{
  "contractName": "BookStore",
  "abi": [
    {
      "inputs": [
        {
          "internalType": "contract ListedBookStorage",
          "name": "listedBookStorage",
          "type": "address"
        },
        {
          "internalType": "contract RentedBookStorage",
          "name": "rentedBookStorage",
          "type": "address"
        }
      ],
      "stateMutability": "nonpayable",
      "type": "constructor"
    },
    {
      "anonymous": false,
      "inputs": [
        {
          "indexed": true,
          "internalType": "address",
          "name": "account",
          "type": "address"
        },
        {
          "indexed": true,
          "internalType": "address",
          "name": "operator",
          "type": "address"
        },
        {
          "indexed": false,
          "internalType": "bool",
          "name": "approved",
          "type": "bool"
        }
      ],
      "name": "ApprovalForAll",
      "type": "event"
    },
    {
      "anonymous": false,
      "inputs": [
        {
          "indexed": false,
          "internalType": "uint256",
          "name": "tokenId",
          "type": "uint256"
        },
        {
          "indexed": false,
          "internalType": "address",
          "name": "author",
          "type": "address"
        },
        {
          "indexed": false,
          "internalType": "uint256",
          "name": "balance",
          "type": "uint256"
        }
      ],
      "name": "NFTBookCreated",
      "type": "event"
    },
    {
      "anonymous": false,
      "inputs": [
        {
          "indexed": true,
          "internalType": "address",
          "name": "previousOwner",
          "type": "address"
        },
        {
          "indexed": true,
          "internalType": "address",
          "name": "newOwner",
          "type": "address"
        }
      ],
      "name": "OwnershipTransferred",
      "type": "event"
    },
    {
      "anonymous": false,
      "inputs": [
        {
          "indexed": true,
          "internalType": "address",
          "name": "operator",
          "type": "address"
        },
        {
          "indexed": true,
          "internalType": "address",
          "name": "from",
          "type": "address"
        },
        {
          "indexed": true,
          "internalType": "address",
          "name": "to",
          "type": "address"
        },
        {
          "indexed": false,
          "internalType": "uint256[]",
          "name": "ids",
          "type": "uint256[]"
        },
        {
          "indexed": false,
          "internalType": "uint256[]",
          "name": "values",
          "type": "uint256[]"
        }
      ],
      "name": "TransferBatch",
      "type": "event"
    },
    {
      "anonymous": false,
      "inputs": [
        {
          "indexed": true,
          "internalType": "address",
          "name": "operator",
          "type": "address"
        },
        {
          "indexed": true,
          "internalType": "address",
          "name": "from",
          "type": "address"
        },
        {
          "indexed": true,
          "internalType": "address",
          "name": "to",
          "type": "address"
        },
        {
          "indexed": false,
          "internalType": "uint256",
          "name": "id",
          "type": "uint256"
        },
        {
          "indexed": false,
          "internalType": "uint256",
          "name": "value",
          "type": "uint256"
        }
      ],
      "name": "TransferSingle",
      "type": "event"
    },
    {
      "anonymous": false,
      "inputs": [
        {
          "indexed": false,
          "internalType": "string",
          "name": "value",
          "type": "string"
        },
        {
          "indexed": true,
          "internalType": "uint256",
          "name": "id",
          "type": "uint256"
        }
      ],
      "name": "URI",
      "type": "event"
    },
    {
      "inputs": [
        {
          "internalType": "address",
          "name": "account",
          "type": "address"
        },
        {
          "internalType": "uint256",
          "name": "id",
          "type": "uint256"
        }
      ],
      "name": "balanceOf",
      "outputs": [
        {
          "internalType": "uint256",
          "name": "",
          "type": "uint256"
        }
      ],
      "stateMutability": "view",
      "type": "function",
      "constant": true
    },
    {
      "inputs": [
        {
          "internalType": "address[]",
          "name": "accounts",
          "type": "address[]"
        },
        {
          "internalType": "uint256[]",
          "name": "ids",
          "type": "uint256[]"
        }
      ],
      "name": "balanceOfBatch",
      "outputs": [
        {
          "internalType": "uint256[]",
          "name": "",
          "type": "uint256[]"
        }
      ],
      "stateMutability": "view",
      "type": "function",
      "constant": true
    },
    {
      "inputs": [
        {
          "internalType": "address",
          "name": "account",
          "type": "address"
        },
        {
          "internalType": "address",
          "name": "operator",
          "type": "address"
        }
      ],
      "name": "isApprovedForAll",
      "outputs": [
        {
          "internalType": "bool",
          "name": "",
          "type": "bool"
        }
      ],
      "stateMutability": "view",
      "type": "function",
      "constant": true
    },
    {
      "inputs": [],
      "name": "listingPrice",
      "outputs": [
        {
          "internalType": "uint256",
          "name": "",
          "type": "uint256"
        }
      ],
      "stateMutability": "view",
      "type": "function",
      "constant": true
    },
    {
      "inputs": [],
      "name": "owner",
      "outputs": [
        {
          "internalType": "address",
          "name": "",
          "type": "address"
        }
      ],
      "stateMutability": "view",
      "type": "function",
      "constant": true
    },
    {
      "inputs": [],
      "name": "renounceOwnership",
      "outputs": [],
      "stateMutability": "nonpayable",
      "type": "function"
    },
    {
      "inputs": [],
      "name": "rentingPrice",
      "outputs": [
        {
          "internalType": "uint256",
          "name": "",
          "type": "uint256"
        }
      ],
      "stateMutability": "view",
      "type": "function",
      "constant": true
    },
    {
      "inputs": [
        {
          "internalType": "address",
          "name": "from",
          "type": "address"
        },
        {
          "internalType": "address",
          "name": "to",
          "type": "address"
        },
        {
          "internalType": "uint256[]",
          "name": "ids",
          "type": "uint256[]"
        },
        {
          "internalType": "uint256[]",
          "name": "amounts",
          "type": "uint256[]"
        },
        {
          "internalType": "bytes",
          "name": "data",
          "type": "bytes"
        }
      ],
      "name": "safeBatchTransferFrom",
      "outputs": [],
      "stateMutability": "nonpayable",
      "type": "function"
    },
    {
      "inputs": [
        {
          "internalType": "address",
          "name": "from",
          "type": "address"
        },
        {
          "internalType": "address",
          "name": "to",
          "type": "address"
        },
        {
          "internalType": "uint256",
          "name": "id",
          "type": "uint256"
        },
        {
          "internalType": "uint256",
          "name": "amount",
          "type": "uint256"
        },
        {
          "internalType": "bytes",
          "name": "data",
          "type": "bytes"
        }
      ],
      "name": "safeTransferFrom",
      "outputs": [],
      "stateMutability": "nonpayable",
      "type": "function"
    },
    {
      "inputs": [
        {
          "internalType": "address",
          "name": "operator",
          "type": "address"
        },
        {
          "internalType": "bool",
          "name": "approved",
          "type": "bool"
        }
      ],
      "name": "setApprovalForAll",
      "outputs": [],
      "stateMutability": "nonpayable",
      "type": "function"
    },
    {
      "inputs": [
        {
          "internalType": "bytes4",
          "name": "interfaceId",
          "type": "bytes4"
        }
      ],
      "name": "supportsInterface",
      "outputs": [
        {
          "internalType": "bool",
          "name": "",
          "type": "bool"
        }
      ],
      "stateMutability": "view",
      "type": "function",
      "constant": true
    },
    {
      "inputs": [
        {
          "internalType": "address",
          "name": "newOwner",
          "type": "address"
        }
      ],
      "name": "transferOwnership",
      "outputs": [],
      "stateMutability": "nonpayable",
      "type": "function"
    },
    {
      "inputs": [
        {
          "internalType": "uint256",
          "name": "tokenId",
          "type": "uint256"
        }
      ],
      "name": "uri",
      "outputs": [
        {
          "internalType": "string",
          "name": "",
          "type": "string"
        }
      ],
      "stateMutability": "view",
      "type": "function",
      "constant": true
    },
    {
      "inputs": [
        {
          "internalType": "uint256",
          "name": "newPrice",
          "type": "uint256"
        }
      ],
      "name": "setListingPrice",
      "outputs": [],
      "stateMutability": "nonpayable",
      "type": "function"
    },
    {
      "inputs": [
        {
          "internalType": "uint256",
          "name": "newPrice",
          "type": "uint256"
        }
      ],
      "name": "setRentingPrice",
      "outputs": [],
      "stateMutability": "nonpayable",
      "type": "function"
    },
    {
      "inputs": [
        {
          "internalType": "uint256",
          "name": "tokenId",
          "type": "uint256"
        }
      ],
      "name": "getNftBook",
      "outputs": [
        {
          "components": [
            {
              "internalType": "uint256",
              "name": "tokenId",
              "type": "uint256"
            },
            {
              "internalType": "address",
              "name": "author",
              "type": "address"
            },
            {
              "internalType": "uint256",
              "name": "balance",
              "type": "uint256"
            }
          ],
          "internalType": "struct BookStore.NFTBook",
          "name": "",
          "type": "tuple"
        }
      ],
      "stateMutability": "view",
      "type": "function",
      "constant": true
    },
    {
      "inputs": [
        {
          "internalType": "string",
          "name": "tokenURI",
          "type": "string"
        }
      ],
      "name": "isTokenURIExist",
      "outputs": [
        {
          "internalType": "bool",
          "name": "",
          "type": "bool"
        }
      ],
      "stateMutability": "view",
      "type": "function",
      "constant": true
    },
    {
      "inputs": [
        {
          "internalType": "string",
          "name": "tokenURI",
          "type": "string"
        },
        {
          "internalType": "uint256",
          "name": "balance",
          "type": "uint256"
        }
      ],
      "name": "mintBook",
      "outputs": [
        {
          "internalType": "uint256",
          "name": "",
          "type": "uint256"
        }
      ],
      "stateMutability": "payable",
      "type": "function",
      "payable": true
    },
    {
      "inputs": [
        {
          "internalType": "uint256",
          "name": "tokenId",
          "type": "uint256"
        },
        {
          "internalType": "address",
          "name": "owner",
          "type": "address"
        }
      ],
      "name": "isOwnerOfToken",
      "outputs": [
        {
          "internalType": "bool",
          "name": "",
          "type": "bool"
        }
      ],
      "stateMutability": "view",
      "type": "function",
      "constant": true
    },
    {
      "inputs": [],
      "name": "getOwnedNFTBooks",
      "outputs": [
        {
          "components": [
            {
              "internalType": "uint256",
              "name": "tokenId",
              "type": "uint256"
            },
            {
              "internalType": "address",
              "name": "author",
              "type": "address"
            },
            {
              "internalType": "uint256",
              "name": "balance",
              "type": "uint256"
            }
          ],
          "internalType": "struct BookStore.NFTBook[]",
          "name": "",
          "type": "tuple[]"
        }
      ],
      "stateMutability": "view",
      "type": "function",
      "constant": true
    },
    {
      "inputs": [],
      "name": "getOwnedListedBooks",
      "outputs": [
        {
          "components": [
            {
              "internalType": "uint256",
              "name": "tokenId",
              "type": "uint256"
            },
            {
              "internalType": "address",
              "name": "seller",
              "type": "address"
            },
            {
              "internalType": "uint256",
              "name": "price",
              "type": "uint256"
            },
            {
              "internalType": "uint256",
              "name": "amount",
              "type": "uint256"
            }
          ],
          "internalType": "struct ListedBookStorage.ListedBook[]",
          "name": "",
          "type": "tuple[]"
        }
      ],
      "stateMutability": "view",
      "type": "function",
      "constant": true
    },
    {
      "inputs": [],
      "name": "getTotalOwnedToken",
      "outputs": [
        {
          "internalType": "uint256",
          "name": "",
          "type": "uint256"
        }
      ],
      "stateMutability": "view",
      "type": "function",
      "constant": true
    },
    {
      "inputs": [],
      "name": "getOwnedRentedBooks",
      "outputs": [
        {
          "components": [
            {
              "internalType": "uint256",
              "name": "tokenId",
              "type": "uint256"
            },
            {
              "internalType": "address",
              "name": "renter",
              "type": "address"
            },
            {
              "internalType": "uint256",
              "name": "price",
              "type": "uint256"
            },
            {
              "internalType": "uint256",
              "name": "amount",
              "type": "uint256"
            },
            {
              "internalType": "uint256",
              "name": "startTime",
              "type": "uint256"
            },
            {
              "internalType": "uint256",
              "name": "rentalDuration",
              "type": "uint256"
            }
          ],
          "internalType": "struct RentedBookStorage.RentedBook[]",
          "name": "",
          "type": "tuple[]"
        }
      ],
      "stateMutability": "view",
      "type": "function",
      "constant": true
    },
    {
      "inputs": [
        {
          "internalType": "uint256",
          "name": "tokenId",
          "type": "uint256"
        },
        {
          "internalType": "address",
          "name": "owner",
          "type": "address"
        }
      ],
      "name": "getAmountOfAllTypeBooks",
      "outputs": [
        {
          "internalType": "uint256",
          "name": "",
          "type": "uint256"
        }
      ],
      "stateMutability": "view",
      "type": "function",
      "constant": true
    },
    {
      "inputs": [
        {
          "internalType": "uint256",
          "name": "tokenId",
          "type": "uint256"
        },
        {
          "internalType": "uint256",
          "name": "price",
          "type": "uint256"
        },
        {
          "internalType": "uint256",
          "name": "amount",
          "type": "uint256"
        }
      ],
      "name": "sellBooks",
      "outputs": [],
      "stateMutability": "payable",
      "type": "function",
      "payable": true
    },
    {
      "inputs": [
        {
          "internalType": "uint256",
          "name": "tokenId",
          "type": "uint256"
        },
        {
          "internalType": "uint256",
          "name": "price",
          "type": "uint256"
        },
        {
          "internalType": "uint256",
          "name": "amount",
          "type": "uint256"
        },
        {
          "internalType": "uint256",
          "name": "rentalDuration",
          "type": "uint256"
        }
      ],
      "name": "rentBooks",
      "outputs": [],
      "stateMutability": "payable",
      "type": "function",
      "payable": true
    },
    {
      "inputs": [
        {
          "internalType": "uint256",
          "name": "tokenId",
          "type": "uint256"
        },
        {
          "internalType": "uint256",
          "name": "newPrice",
          "type": "uint256"
        },
        {
          "internalType": "uint256",
          "name": "newAmount",
          "type": "uint256"
        },
        {
          "internalType": "address",
          "name": "seller",
          "type": "address"
        }
      ],
      "name": "updateBookFromSale",
      "outputs": [],
      "stateMutability": "nonpayable",
      "type": "function"
    },
    {
      "inputs": [
        {
          "internalType": "uint256",
          "name": "tokenId",
          "type": "uint256"
        },
        {
          "internalType": "uint256",
          "name": "newPrice",
          "type": "uint256"
        },
        {
          "internalType": "uint256",
          "name": "newAmount",
          "type": "uint256"
        },
        {
          "internalType": "uint256",
          "name": "newStartTime",
          "type": "uint256"
        },
        {
          "internalType": "uint256",
          "name": "newRentalDuration",
          "type": "uint256"
        },
        {
          "internalType": "address",
          "name": "renter",
          "type": "address"
        }
      ],
      "name": "updateBookFromRenting",
      "outputs": [],
      "stateMutability": "nonpayable",
      "type": "function"
    },
    {
      "inputs": [],
      "name": "getAllBooksOnSale",
      "outputs": [
        {
          "components": [
            {
              "internalType": "uint256",
              "name": "tokenId",
              "type": "uint256"
            },
            {
              "internalType": "address",
              "name": "seller",
              "type": "address"
            },
            {
              "internalType": "uint256",
              "name": "price",
              "type": "uint256"
            },
            {
              "internalType": "uint256",
              "name": "amount",
              "type": "uint256"
            }
          ],
          "internalType": "struct ListedBookStorage.ListedBook[]",
          "name": "",
          "type": "tuple[]"
        }
      ],
      "stateMutability": "view",
      "type": "function",
      "constant": true
    },
    {
      "inputs": [],
      "name": "getAllBooksOnRenting",
      "outputs": [
        {
          "components": [
            {
              "internalType": "uint256",
              "name": "tokenId",
              "type": "uint256"
            },
            {
              "internalType": "address",
              "name": "renter",
              "type": "address"
            },
            {
              "internalType": "uint256",
              "name": "price",
              "type": "uint256"
            },
            {
              "internalType": "uint256",
              "name": "amount",
              "type": "uint256"
            },
            {
              "internalType": "uint256",
              "name": "startTime",
              "type": "uint256"
            },
            {
              "internalType": "uint256",
              "name": "rentalDuration",
              "type": "uint256"
            }
          ],
          "internalType": "struct RentedBookStorage.RentedBook[]",
          "name": "",
          "type": "tuple[]"
        }
      ],
      "stateMutability": "view",
      "type": "function",
      "constant": true
    },
    {
      "inputs": [
        {
          "internalType": "uint256",
          "name": "tokenId",
          "type": "uint256"
        },
        {
          "internalType": "address",
          "name": "seller",
          "type": "address"
        },
        {
          "internalType": "uint256",
          "name": "amount",
          "type": "uint256"
        }
      ],
      "name": "buyBooks",
      "outputs": [],
      "stateMutability": "payable",
      "type": "function",
      "payable": true
    }
  ],
  "bytecode": "0x60806040526040518060200160405280600081525060039081620000249190620003f3565b506101f46006556658d15e176280006007553480156200004357600080fd5b5060405180606001604052806021815260200162006311602191396200006f816200009660201b60201c565b506200009062000084620000ab60201b60201c565b620000b360201b60201c565b620004da565b8060029081620000a79190620003f3565b5050565b600033905090565b6000600560009054906101000a900473ffffffffffffffffffffffffffffffffffffffff16905081600560006101000a81548173ffffffffffffffffffffffffffffffffffffffff021916908373ffffffffffffffffffffffffffffffffffffffff1602179055508173ffffffffffffffffffffffffffffffffffffffff168173ffffffffffffffffffffffffffffffffffffffff167f8be0079c531659141344cd1fd0a4f28419497f9722a3daafe3b4186f6b6457e060405160405180910390a35050565b600081519050919050565b7f4e487b7100000000000000000000000000000000000000000000000000000000600052604160045260246000fd5b7f4e487b7100000000000000000000000000000000000000000000000000000000600052602260045260246000fd5b60006002820490506001821680620001fb57607f821691505b602082108103620002115762000210620001b3565b5b50919050565b60008190508160005260206000209050919050565b60006020601f8301049050919050565b600082821b905092915050565b6000600883026200027b7fffffffffffffffffffffffffffffffffffffffffffffffffffffffffffffffff826200023c565b6200028786836200023c565b95508019841693508086168417925050509392505050565b6000819050919050565b6000819050919050565b6000620002d4620002ce620002c8846200029f565b620002a9565b6200029f565b9050919050565b6000819050919050565b620002f083620002b3565b62000308620002ff82620002db565b84845462000249565b825550505050565b600090565b6200031f62000310565b6200032c818484620002e5565b505050565b5b8181101562000354576200034860008262000315565b60018101905062000332565b5050565b601f821115620003a3576200036d8162000217565b62000378846200022c565b8101602085101562000388578190505b620003a062000397856200022c565b83018262000331565b50505b505050565b600082821c905092915050565b6000620003c860001984600802620003a8565b1980831691505092915050565b6000620003e38383620003b5565b9150826002028217905092915050565b620003fe8262000179565b67ffffffffffffffff8111156200041a576200041962000184565b5b620004268254620001e2565b6200043382828562000358565b600060209050601f8311600181146200046b576000841562000456578287015190505b620004628582620003d5565b865550620004d2565b601f1984166200047b8662000217565b60005b82811015620004a5578489015182556001820191506020850194506020810190506200047e565b86831015620004c55784890151620004c1601f891682620003b5565b8355505b6001600288020188555050505b505050505050565b615e2780620004ea6000396000f3fe6080604052600436106101805760003560e01c80637c726b69116100d1578063c78f19f91161008a578063eafdf24c11610064578063eafdf24c14610590578063ed148dd0146105cd578063f242432a1461060a578063f2fde38b1461063357610180565b8063c78f19f9146104eb578063e5c4272714610516578063e985e9c51461055357610180565b80637c726b69146103db57806380e8b138146104045780638da5cb5b1461042f578063a22cb4651461045a578063b0a3a2f314610483578063ba71a713146104ae57610180565b80632e43a9f91161013e578063415d645811610118578063415d6458146103425780634e1273f41461036b5780635c4f1257146103a8578063715018a6146103c457610180565b80632e43a9f9146102cd5780632eb2c2d6146102e95780633dd7a71e1461031257610180565b8062fdd58e1461018557806301ffc9a7146101c25780630e89341c146101ff5780630f94934d1461023c57806312d0a7661461026557806320cf53b8146102a2575b600080fd5b34801561019157600080fd5b506101ac60048036038101906101a79190613a3c565b61065c565b6040516101b99190613a8b565b60405180910390f35b3480156101ce57600080fd5b506101e960048036038101906101e49190613afe565b610724565b6040516101f69190613b46565b60405180910390f35b34801561020b57600080fd5b5061022660048036038101906102219190613b61565b610806565b6040516102339190613c1e565b60405180910390f35b34801561024857600080fd5b50610263600480360381019061025e9190613d10565b6108eb565b005b34801561027157600080fd5b5061028c60048036038101906102879190613d3d565b610aeb565b6040516102999190613b46565b60405180910390f35b3480156102ae57600080fd5b506102b7610b01565b6040516102c49190613e9f565b60405180910390f35b6102e760048036038101906102e29190613ec1565b610d7c565b005b3480156102f557600080fd5b50610310600480360381019061030b9190614096565b610fee565b005b61032c60048036038101906103279190614206565b61108f565b6040516103399190613a8b565b60405180910390f35b34801561034e57600080fd5b5061036960048036038101906103649190614262565b6111f7565b005b34801561037757600080fd5b50610392600480360381019061038d9190614378565b6114ee565b60405161039f919061449f565b60405180910390f35b6103c260048036038101906103bd91906144c1565b611607565b005b3480156103d057600080fd5b506103d961189e565b005b3480156103e757600080fd5b5061040260048036038101906103fd9190613b61565b6118b2565b005b34801561041057600080fd5b50610419611907565b6040516104269190613e9f565b60405180910390f35b34801561043b57600080fd5b50610444611b71565b6040516104519190614523565b60405180910390f35b34801561046657600080fd5b50610481600480360381019061047c919061456a565b611b9b565b005b34801561048f57600080fd5b50610498611bb1565b6040516104a5919061469b565b60405180910390f35b3480156104ba57600080fd5b506104d560048036038101906104d091906146bd565b611d78565b6040516104e29190613b46565b60405180910390f35b3480156104f757600080fd5b50610500611dad565b60405161050d9190613a8b565b60405180910390f35b34801561052257600080fd5b5061053d60048036038101906105389190613d3d565b611db3565b60405161054a9190613a8b565b60405180910390f35b34801561055f57600080fd5b5061057a60048036038101906105759190614706565b611e11565b6040516105879190613b46565b60405180910390f35b34801561059c57600080fd5b506105b760048036038101906105b29190613b61565b611ea5565b6040516105c49190614788565b60405180910390f35b3480156105d957600080fd5b506105f460048036038101906105ef9190613d3d565b611f3c565b60405161060191906147f8565b60405180910390f35b34801561061657600080fd5b50610631600480360381019061062c9190614813565b61201b565b005b34801561063f57600080fd5b5061065a600480360381019061065591906148aa565b6120bc565b005b60008073ffffffffffffffffffffffffffffffffffffffff168373ffffffffffffffffffffffffffffffffffffffff16036106cc576040517f08c379a00000000000000000000000000000000000000000000000000000000081526004016106c390614949565b60405180910390fd5b60008083815260200190815260200160002060008473ffffffffffffffffffffffffffffffffffffffff1673ffffffffffffffffffffffffffffffffffffffff16815260200190815260200160002054905092915050565b60007fd9b67a26000000000000000000000000000000000000000000000000000000007bffffffffffffffffffffffffffffffffffffffffffffffffffffffff1916827bffffffffffffffffffffffffffffffffffffffffffffffffffffffff191614806107ef57507f0e89341c000000000000000000000000000000000000000000000000000000007bffffffffffffffffffffffffffffffffffffffffffffffffffffffff1916827bffffffffffffffffffffffffffffffffffffffffffffffffffffffff1916145b806107ff57506107fe8261213f565b5b9050919050565b6060600060046000848152602001908152602001600020805461082890614998565b80601f016020809104026020016040519081016040528092919081815260200182805461085490614998565b80156108a15780601f10610876576101008083540402835291602001916108a1565b820191906000526020600020905b81548152906001019060200180831161088457829003601f168201915b5050505050905060008151116108bf576108ba836121a9565b6108e3565b6003816040516020016108d3929190614a9d565b6040516020818303038152906040525b915050919050565b60005b600e80549050811015610ae7578160000151600e828154811061091457610913614ac1565b5b9060005260206000209060020201600001541480156109a75750816020015173ffffffffffffffffffffffffffffffffffffffff16600e828154811061095d5761095c614ac1565b5b906000526020600020906002020160010160009054906101000a900473ffffffffffffffffffffffffffffffffffffffff1673ffffffffffffffffffffffffffffffffffffffff16145b15610ad457600e6001600e805490506109c09190614b1f565b815481106109d1576109d0614ac1565b5b9060005260206000209060020201600e82815481106109f3576109f2614ac1565b5b9060005260206000209060020201600082015481600001556001820160009054906101000a900473ffffffffffffffffffffffffffffffffffffffff168160010160006101000a81548173ffffffffffffffffffffffffffffffffffffffff021916908373ffffffffffffffffffffffffffffffffffffffff160217905550905050600e805480610a8757610a86614b53565b5b60019003818190600052602060002090600202016000808201600090556001820160006101000a81549073ffffffffffffffffffffffffffffffffffffffff021916905550509055610ae7565b8080610adf90614b82565b9150506108ee565b5050565b600080610af8838561065c565b11905092915050565b60606000610b0f600f61223d565b67ffffffffffffffff811115610b2857610b27613c45565b5b604051908082528060200260200182016040528015610b6157816020015b610b4e61391f565b815260200190600190039081610b465790505b5090506000805b610b72600f61223d565b811015610d73576000600e8281548110610b8f57610b8e614ac1565b5b9060005260206000209060020201604051806040016040529081600082015481526020016001820160009054906101000a900473ffffffffffffffffffffffffffffffffffffffff1673ffffffffffffffffffffffffffffffffffffffff1673ffffffffffffffffffffffffffffffffffffffff168152505090506000600a6000836000015181526020019081526020016000206000836020015173ffffffffffffffffffffffffffffffffffffffff1673ffffffffffffffffffffffffffffffffffffffff168152602001908152602001600020604051806080016040529081600082015481526020016001820160009054906101000a900473ffffffffffffffffffffffffffffffffffffffff1673ffffffffffffffffffffffffffffffffffffffff1673ffffffffffffffffffffffffffffffffffffffff1681526020016002820154815260200160038201548152505090506000816000015114158015610d2b5750600073ffffffffffffffffffffffffffffffffffffffff16816020015173ffffffffffffffffffffffffffffffffffffffff1614155b15610d5e5780858581518110610d4457610d43614ac1565b5b60200260200101819052508380610d5a90614b82565b9450505b50508080610d6b90614b82565b915050610b68565b50819250505090565b6000600a600085815260200190815260200160002060008473ffffffffffffffffffffffffffffffffffffffff1673ffffffffffffffffffffffffffffffffffffffff168152602001908152602001600020604051806080016040529081600082015481526020016001820160009054906101000a900473ffffffffffffffffffffffffffffffffffffffff1673ffffffffffffffffffffffffffffffffffffffff1673ffffffffffffffffffffffffffffffffffffffff168152602001600282015481526020016003820154815250509050806020015173ffffffffffffffffffffffffffffffffffffffff163373ffffffffffffffffffffffffffffffffffffffff1603610ec1576040517f08c379a0000000000000000000000000000000000000000000000000000000008152600401610eb890614c3c565b60405180910390fd5b806040015182610ed19190614c5c565b3414610f12576040517f08c379a0000000000000000000000000000000000000000000000000000000008152600401610f0990614cea565b60405180910390fd5b80606001518211158015610f265750600082115b610f65576040517f08c379a0000000000000000000000000000000000000000000000000000000008152600401610f5c90614d56565b60405180910390fd5b6000816040015183610f779190614c5c565b9050610f848584866111f7565b610fa0843387866040518060200160405280600081525061224b565b8373ffffffffffffffffffffffffffffffffffffffff166108fc829081150290604051600060405180830381858888f19350505050158015610fe6573d6000803e3d6000fd5b505050505050565b610ff66124e6565b73ffffffffffffffffffffffffffffffffffffffff168573ffffffffffffffffffffffffffffffffffffffff16148061103c575061103b856110366124e6565b611e11565b5b61107b576040517f08c379a000000000000000000000000000000000000000000000000000000000815260040161107290614de8565b60405180910390fd5b61108885858585856124ee565b5050505050565b600061109a83611d78565b156110da576040517f08c379a00000000000000000000000000000000000000000000000000000000081526004016110d190614e54565b60405180910390fd5b6000821180156110ec57506006548211155b61112b576040517f08c379a000000000000000000000000000000000000000000000000000000000815260040161112290614ee6565b60405180910390fd5b600754341461116f576040517f08c379a000000000000000000000000000000000000000000000000000000000815260040161116690614f78565b60405180910390fd5b611179600861280f565b6000611185600861223d565b90506111a233828560405180602001604052806000815250612825565b6111ac81856129d5565b6111b68184612a3a565b6001600b856040516111c89190614f98565b908152602001604051809103902060006101000a81548160ff0219169083151502179055508091505092915050565b6112018382610aeb565b611240576040517f08c379a000000000000000000000000000000000000000000000000000000000815260040161123790615021565b60405180910390fd5b60008211611283576040517f08c379a000000000000000000000000000000000000000000000000000000000815260040161127a906150b3565b60405180910390fd5b6000600a600085815260200190815260200160002060008373ffffffffffffffffffffffffffffffffffffffff1673ffffffffffffffffffffffffffffffffffffffff168152602001908152602001600020604051806080016040529081600082015481526020016001820160009054906101000a900473ffffffffffffffffffffffffffffffffffffffff1673ffffffffffffffffffffffffffffffffffffffff1673ffffffffffffffffffffffffffffffffffffffff168152602001600282015481526020016003820154815250509050600081606001511161139d576040517f08c379a00000000000000000000000000000000000000000000000000000000081526004016113949061511f565b60405180910390fd5b80606001518310156114185782600a600086815260200190815260200160002060008473ffffffffffffffffffffffffffffffffffffffff1673ffffffffffffffffffffffffffffffffffffffff168152602001908152602001600020600301600082825461140c9190614b1f565b925050819055506114e8565b61144b60405180604001604052808681526020018473ffffffffffffffffffffffffffffffffffffffff168152506108eb565b611455600f612b1b565b600a600085815260200190815260200160002060008373ffffffffffffffffffffffffffffffffffffffff1673ffffffffffffffffffffffffffffffffffffffff1681526020019081526020016000206000808201600090556001820160006101000a81549073ffffffffffffffffffffffffffffffffffffffff02191690556002820160009055600382016000905550505b50505050565b60608151835114611534576040517f08c379a000000000000000000000000000000000000000000000000000000000815260040161152b906151b1565b60405180910390fd5b6000835167ffffffffffffffff81111561155157611550613c45565b5b60405190808252806020026020018201604052801561157f5781602001602082028036833780820191505090505b50905060005b84518110156115fc576115cc8582815181106115a4576115a3614ac1565b5b60200260200101518583815181106115bf576115be614ac1565b5b602002602001015161065c565b8282815181106115df576115de614ac1565b5b602002602001018181525050806115f590614b82565b9050611585565b508091505092915050565b6116118333610aeb565b611650576040517f08c379a000000000000000000000000000000000000000000000000000000000815260040161164790615021565b60405180910390fd5b61165a338461065c565b816116658533611db3565b61166f91906151d1565b1115801561167d5750600081115b6116bc576040517f08c379a00000000000000000000000000000000000000000000000000000000081526004016116b390615277565b60405180910390fd5b6007543414611700576040517f08c379a00000000000000000000000000000000000000000000000000000000081526004016116f790614f78565b60405180910390fd5b6000600a600085815260200190815260200160002060003373ffffffffffffffffffffffffffffffffffffffff1673ffffffffffffffffffffffffffffffffffffffff168152602001908152602001600020604051806080016040529081600082015481526020016001820160009054906101000a900473ffffffffffffffffffffffffffffffffffffffff1673ffffffffffffffffffffffffffffffffffffffff1673ffffffffffffffffffffffffffffffffffffffff168152602001600282015481526020016003820154815250509050600081600001511480156118175750600073ffffffffffffffffffffffffffffffffffffffff16816020015173ffffffffffffffffffffffffffffffffffffffff16145b1561182d5761182884338585612b77565b611898565b81600a600086815260200190815260200160002060003373ffffffffffffffffffffffffffffffffffffffff1673ffffffffffffffffffffffffffffffffffffffff168152602001908152602001600020600301600082825461189091906151d1565b925050819055505b50505050565b6118a6612d5c565b6118b06000612dda565b565b6118ba612d5c565b600081116118fd576040517f08c379a00000000000000000000000000000000000000000000000000000000081526004016118f4906152e3565b60405180910390fd5b8060078190555050565b60606000600d60003373ffffffffffffffffffffffffffffffffffffffff1673ffffffffffffffffffffffffffffffffffffffff16815260200190815260200160002054905060008167ffffffffffffffff81111561196957611968613c45565b5b6040519080825280602002602001820160405280156119a257816020015b61198f61391f565b8152602001906001900390816119875790505b5090506000805b83811015611b67576000600c60003373ffffffffffffffffffffffffffffffffffffffff1673ffffffffffffffffffffffffffffffffffffffff16815260200190815260200160002060008381526020019081526020016000205490506000600a600083815260200190815260200160002060003373ffffffffffffffffffffffffffffffffffffffff1673ffffffffffffffffffffffffffffffffffffffff168152602001908152602001600020604051806080016040529081600082015481526020016001820160009054906101000a900473ffffffffffffffffffffffffffffffffffffffff1673ffffffffffffffffffffffffffffffffffffffff1673ffffffffffffffffffffffffffffffffffffffff1681526020016002820154815260200160038201548152505090506000816000015114158015611b1f5750600073ffffffffffffffffffffffffffffffffffffffff16816020015173ffffffffffffffffffffffffffffffffffffffff1614155b15611b525780858581518110611b3857611b37614ac1565b5b60200260200101819052508380611b4e90614b82565b9450505b50508080611b5f90614b82565b9150506119a9565b5081935050505090565b6000600560009054906101000a900473ffffffffffffffffffffffffffffffffffffffff16905090565b611bad611ba66124e6565b8383612ea0565b5050565b60606000600d60003373ffffffffffffffffffffffffffffffffffffffff1673ffffffffffffffffffffffffffffffffffffffff16815260200190815260200160002054905060008167ffffffffffffffff811115611c1357611c12613c45565b5b604051908082528060200260200182016040528015611c4c57816020015b611c3961395d565b815260200190600190039081611c315790505b50905060005b82811015611d6f576000600c60003373ffffffffffffffffffffffffffffffffffffffff1673ffffffffffffffffffffffffffffffffffffffff1681526020019081526020016000206000838152602001908152602001600020549050600060096000838152602001908152602001600020604051806060016040529081600082015481526020016001820160009054906101000a900473ffffffffffffffffffffffffffffffffffffffff1673ffffffffffffffffffffffffffffffffffffffff1673ffffffffffffffffffffffffffffffffffffffff168152602001600282015481525050905080848481518110611d4f57611d4e614ac1565b5b602002602001018190525050508080611d6790614b82565b915050611c52565b50809250505090565b6000600b82604051611d8a9190614f98565b908152602001604051809103902060009054906101000a900460ff169050919050565b60075481565b6000600a600084815260200190815260200160002060008373ffffffffffffffffffffffffffffffffffffffff1673ffffffffffffffffffffffffffffffffffffffff16815260200190815260200160002060030154905092915050565b6000600160008473ffffffffffffffffffffffffffffffffffffffff1673ffffffffffffffffffffffffffffffffffffffff16815260200190815260200160002060008373ffffffffffffffffffffffffffffffffffffffff1673ffffffffffffffffffffffffffffffffffffffff16815260200190815260200160002060009054906101000a900460ff16905092915050565b611ead61395d565b60096000838152602001908152602001600020604051806060016040529081600082015481526020016001820160009054906101000a900473ffffffffffffffffffffffffffffffffffffffff1673ffffffffffffffffffffffffffffffffffffffff1673ffffffffffffffffffffffffffffffffffffffff1681526020016002820154815250509050919050565b611f4461391f565b600a600084815260200190815260200160002060008373ffffffffffffffffffffffffffffffffffffffff1673ffffffffffffffffffffffffffffffffffffffff168152602001908152602001600020604051806080016040529081600082015481526020016001820160009054906101000a900473ffffffffffffffffffffffffffffffffffffffff1673ffffffffffffffffffffffffffffffffffffffff1673ffffffffffffffffffffffffffffffffffffffff16815260200160028201548152602001600382015481525050905092915050565b6120236124e6565b73ffffffffffffffffffffffffffffffffffffffff168573ffffffffffffffffffffffffffffffffffffffff1614806120695750612068856120636124e6565b611e11565b5b6120a8576040517f08c379a000000000000000000000000000000000000000000000000000000000815260040161209f90614de8565b60405180910390fd5b6120b5858585858561224b565b5050505050565b6120c4612d5c565b600073ffffffffffffffffffffffffffffffffffffffff168173ffffffffffffffffffffffffffffffffffffffff1603612133576040517f08c379a000000000000000000000000000000000000000000000000000000000815260040161212a90615375565b60405180910390fd5b61213c81612dda565b50565b60007f01ffc9a7000000000000000000000000000000000000000000000000000000007bffffffffffffffffffffffffffffffffffffffffffffffffffffffff1916827bffffffffffffffffffffffffffffffffffffffffffffffffffffffff1916149050919050565b6060600280546121b890614998565b80601f01602080910402602001604051908101604052809291908181526020018280546121e490614998565b80156122315780601f1061220657610100808354040283529160200191612231565b820191906000526020600020905b81548152906001019060200180831161221457829003601f168201915b50505050509050919050565b600081600001549050919050565b600073ffffffffffffffffffffffffffffffffffffffff168473ffffffffffffffffffffffffffffffffffffffff16036122ba576040517f08c379a00000000000000000000000000000000000000000000000000000000081526004016122b190615407565b60405180910390fd5b60006122c46124e6565b905060006122d18561300c565b905060006122de8561300c565b90506122ee838989858589613086565b600080600088815260200190815260200160002060008a73ffffffffffffffffffffffffffffffffffffffff1673ffffffffffffffffffffffffffffffffffffffff16815260200190815260200160002054905085811015612385576040517f08c379a000000000000000000000000000000000000000000000000000000000815260040161237c90615499565b60405180910390fd5b85810360008089815260200190815260200160002060008b73ffffffffffffffffffffffffffffffffffffffff1673ffffffffffffffffffffffffffffffffffffffff168152602001908152602001600020819055508560008089815260200190815260200160002060008a73ffffffffffffffffffffffffffffffffffffffff1673ffffffffffffffffffffffffffffffffffffffff168152602001908152602001600020600082825461243a91906151d1565b925050819055508773ffffffffffffffffffffffffffffffffffffffff168973ffffffffffffffffffffffffffffffffffffffff168573ffffffffffffffffffffffffffffffffffffffff167fc3d58168c5ae7397731d063d5bbf3d657854427343f4c083240f7aacaa2d0f628a8a6040516124b79291906154b9565b60405180910390a46124cd848a8a86868a613225565b6124db848a8a8a8a8a61322d565b505050505050505050565b600033905090565b8151835114612532576040517f08c379a000000000000000000000000000000000000000000000000000000000815260040161252990615554565b60405180910390fd5b600073ffffffffffffffffffffffffffffffffffffffff168473ffffffffffffffffffffffffffffffffffffffff16036125a1576040517f08c379a000000000000000000000000000000000000000000000000000000000815260040161259890615407565b60405180910390fd5b60006125ab6124e6565b90506125bb818787878787613086565b60005b845181101561276c5760008582815181106125dc576125db614ac1565b5b6020026020010151905060008583815181106125fb576125fa614ac1565b5b60200260200101519050600080600084815260200190815260200160002060008b73ffffffffffffffffffffffffffffffffffffffff1673ffffffffffffffffffffffffffffffffffffffff1681526020019081526020016000205490508181101561269c576040517f08c379a000000000000000000000000000000000000000000000000000000000815260040161269390615499565b60405180910390fd5b81810360008085815260200190815260200160002060008c73ffffffffffffffffffffffffffffffffffffffff1673ffffffffffffffffffffffffffffffffffffffff168152602001908152602001600020819055508160008085815260200190815260200160002060008b73ffffffffffffffffffffffffffffffffffffffff1673ffffffffffffffffffffffffffffffffffffffff168152602001908152602001600020600082825461275191906151d1565b925050819055505050508061276590614b82565b90506125be565b508473ffffffffffffffffffffffffffffffffffffffff168673ffffffffffffffffffffffffffffffffffffffff168273ffffffffffffffffffffffffffffffffffffffff167f4a39dc06d4c0dbc64b70af90fd698a233a518aa5d07e595d983b8c0526c8f7fb87876040516127e3929190615574565b60405180910390a46127f9818787878787613225565b612807818787878787613404565b505050505050565b6001816000016000828254019250508190555050565b600073ffffffffffffffffffffffffffffffffffffffff168473ffffffffffffffffffffffffffffffffffffffff1603612894576040517f08c379a000000000000000000000000000000000000000000000000000000000815260040161288b9061561d565b60405180910390fd5b600061289e6124e6565b905060006128ab8561300c565b905060006128b88561300c565b90506128c983600089858589613086565b8460008088815260200190815260200160002060008973ffffffffffffffffffffffffffffffffffffffff1673ffffffffffffffffffffffffffffffffffffffff168152602001908152602001600020600082825461292891906151d1565b925050819055508673ffffffffffffffffffffffffffffffffffffffff16600073ffffffffffffffffffffffffffffffffffffffff168473ffffffffffffffffffffffffffffffffffffffff167fc3d58168c5ae7397731d063d5bbf3d657854427343f4c083240f7aacaa2d0f6289896040516129a69291906154b9565b60405180910390a46129bd83600089858589613225565b6129cc8360008989898961322d565b50505050505050565b806004600084815260200190815260200160002090816129f591906157d4565b50817f6bb7ff708619ba0610cba295a58592e0451dee2622938c8755667688daf3529b612a2184610806565b604051612a2e9190613c1e565b60405180910390a25050565b60405180606001604052808381526020013373ffffffffffffffffffffffffffffffffffffffff16815260200182815250600960008481526020019081526020016000206000820151816000015560208201518160010160006101000a81548173ffffffffffffffffffffffffffffffffffffffff021916908373ffffffffffffffffffffffffffffffffffffffff160217905550604082015181600201559050507f1b0894b5dbaa4e03eefef0639cb8bdd09459f893cb73161de2aad97a30c66f78823383604051612b0f939291906158a6565b60405180910390a15050565b60008160000154905060008111612b67576040517f08c379a0000000000000000000000000000000000000000000000000000000008152600401612b5e90615929565b60405180910390fd5b6001810382600001819055505050565b60405180608001604052808581526020018473ffffffffffffffffffffffffffffffffffffffff16815260200183815260200182815250600a600086815260200190815260200160002060008573ffffffffffffffffffffffffffffffffffffffff1673ffffffffffffffffffffffffffffffffffffffff1681526020019081526020016000206000820151816000015560208201518160010160006101000a81548173ffffffffffffffffffffffffffffffffffffffff021916908373ffffffffffffffffffffffffffffffffffffffff1602179055506040820151816002015560608201518160030155905050600e60405180604001604052808681526020018573ffffffffffffffffffffffffffffffffffffffff1681525090806001815401808255809150506001900390600052602060002090600202016000909190919091506000820151816000015560208201518160010160006101000a81548173ffffffffffffffffffffffffffffffffffffffff021916908373ffffffffffffffffffffffffffffffffffffffff1602179055505050612d19600f61280f565b7f5b83511fd1d3d8bfdab85700518eb12ccc021d17b8de38ab1acdd99d9705a40284848484604051612d4e9493929190615949565b60405180910390a150505050565b612d646124e6565b73ffffffffffffffffffffffffffffffffffffffff16612d82611b71565b73ffffffffffffffffffffffffffffffffffffffff1614612dd8576040517f08c379a0000000000000000000000000000000000000000000000000000000008152600401612dcf906159da565b60405180910390fd5b565b6000600560009054906101000a900473ffffffffffffffffffffffffffffffffffffffff16905081600560006101000a81548173ffffffffffffffffffffffffffffffffffffffff021916908373ffffffffffffffffffffffffffffffffffffffff1602179055508173ffffffffffffffffffffffffffffffffffffffff168173ffffffffffffffffffffffffffffffffffffffff167f8be0079c531659141344cd1fd0a4f28419497f9722a3daafe3b4186f6b6457e060405160405180910390a35050565b8173ffffffffffffffffffffffffffffffffffffffff168373ffffffffffffffffffffffffffffffffffffffff1603612f0e576040517f08c379a0000000000000000000000000000000000000000000000000000000008152600401612f0590615a6c565b60405180910390fd5b80600160008573ffffffffffffffffffffffffffffffffffffffff1673ffffffffffffffffffffffffffffffffffffffff16815260200190815260200160002060008473ffffffffffffffffffffffffffffffffffffffff1673ffffffffffffffffffffffffffffffffffffffff16815260200190815260200160002060006101000a81548160ff0219169083151502179055508173ffffffffffffffffffffffffffffffffffffffff168373ffffffffffffffffffffffffffffffffffffffff167f17307eab39ab6107e8899845ad3d59bd9653f200f220920489ca2b5937696c3183604051612fff9190613b46565b60405180910390a3505050565b60606000600167ffffffffffffffff81111561302b5761302a613c45565b5b6040519080825280602002602001820160405280156130595781602001602082028036833780820191505090505b509050828160008151811061307157613070614ac1565b5b60200260200101818152505080915050919050565b6130948686868686866135db565b600073ffffffffffffffffffffffffffffffffffffffff168573ffffffffffffffffffffffffffffffffffffffff161480156130fd5750600073ffffffffffffffffffffffffffffffffffffffff168473ffffffffffffffffffffffffffffffffffffffff1614155b1561312e5760008360008151811061311857613117614ac1565b5b6020026020010151905061312c85826135e3565b505b600073ffffffffffffffffffffffffffffffffffffffff168573ffffffffffffffffffffffffffffffffffffffff16141580156131985750600073ffffffffffffffffffffffffffffffffffffffff168473ffffffffffffffffffffffffffffffffffffffff1614155b80156131d057508473ffffffffffffffffffffffffffffffffffffffff168473ffffffffffffffffffffffffffffffffffffffff1614155b1561321d576000836000815181106131eb576131ea614ac1565b5b602002602001015190506131ff85826135e3565b600061320b878361065c565b0361321b5761321a86826136d6565b5b505b505050505050565b505050505050565b61324c8473ffffffffffffffffffffffffffffffffffffffff166138fc565b156133fc578373ffffffffffffffffffffffffffffffffffffffff1663f23a6e6187878686866040518663ffffffff1660e01b8152600401613292959493929190615ae1565b6020604051808303816000875af19250505080156132ce57506040513d601f19601f820116820180604052508101906132cb9190615b50565b60015b613373576132da615b8a565b806308c379a00361333657506132ee615bac565b806132f95750613338565b806040517f08c379a000000000000000000000000000000000000000000000000000000000815260040161332d9190613c1e565b60405180910390fd5b505b6040517f08c379a000000000000000000000000000000000000000000000000000000000815260040161336a90615cae565b60405180910390fd5b63f23a6e6160e01b7bffffffffffffffffffffffffffffffffffffffffffffffffffffffff1916817bffffffffffffffffffffffffffffffffffffffffffffffffffffffff1916146133fa576040517f08c379a00000000000000000000000000000000000000000000000000000000081526004016133f190615d40565b60405180910390fd5b505b505050505050565b6134238473ffffffffffffffffffffffffffffffffffffffff166138fc565b156135d3578373ffffffffffffffffffffffffffffffffffffffff1663bc197c8187878686866040518663ffffffff1660e01b8152600401613469959493929190615d60565b6020604051808303816000875af19250505080156134a557506040513d601f19601f820116820180604052508101906134a29190615b50565b60015b61354a576134b1615b8a565b806308c379a00361350d57506134c5615bac565b806134d0575061350f565b806040517f08c379a00000000000000000000000000000000000000000000000000000000081526004016135049190613c1e565b60405180910390fd5b505b6040517f08c379a000000000000000000000000000000000000000000000000000000000815260040161354190615cae565b60405180910390fd5b63bc197c8160e01b7bffffffffffffffffffffffffffffffffffffffffffffffffffffffff1916817bffffffffffffffffffffffffffffffffffffffffffffffffffffffff1916146135d1576040517f08c379a00000000000000000000000000000000000000000000000000000000081526004016135c890615d40565b60405180910390fd5b505b505050505050565b505050505050565b6000600d60008473ffffffffffffffffffffffffffffffffffffffff1673ffffffffffffffffffffffffffffffffffffffff16815260200190815260200160002054905081600c60008573ffffffffffffffffffffffffffffffffffffffff1673ffffffffffffffffffffffffffffffffffffffff168152602001908152602001600020600083815260200190815260200160002081905550600d60008473ffffffffffffffffffffffffffffffffffffffff1673ffffffffffffffffffffffffffffffffffffffff16815260200190815260200160002060008154809291906136cc90614b82565b9190505550505050565b60006001600d60008573ffffffffffffffffffffffffffffffffffffffff1673ffffffffffffffffffffffffffffffffffffffff168152602001908152602001600020546137249190614b1f565b905060005b60018261373691906151d1565b81101561384d57600c60008573ffffffffffffffffffffffffffffffffffffffff1673ffffffffffffffffffffffffffffffffffffffff168152602001908152602001600020600082815260200190815260200160002054830361383a57600c60008573ffffffffffffffffffffffffffffffffffffffff1673ffffffffffffffffffffffffffffffffffffffff168152602001908152602001600020600083815260200190815260200160002054600c60008673ffffffffffffffffffffffffffffffffffffffff1673ffffffffffffffffffffffffffffffffffffffff1681526020019081526020016000206000838152602001908152602001600020819055505b808061384590614b82565b915050613729565b50600d60008473ffffffffffffffffffffffffffffffffffffffff1673ffffffffffffffffffffffffffffffffffffffff168152602001908152602001600020600081548092919061389e90615dc8565b9190505550600c60008473ffffffffffffffffffffffffffffffffffffffff1673ffffffffffffffffffffffffffffffffffffffff168152602001908152602001600020600082815260200190815260200160002060009055505050565b6000808273ffffffffffffffffffffffffffffffffffffffff163b119050919050565b604051806080016040528060008152602001600073ffffffffffffffffffffffffffffffffffffffff16815260200160008152602001600081525090565b604051806060016040528060008152602001600073ffffffffffffffffffffffffffffffffffffffff168152602001600081525090565b6000604051905090565b600080fd5b600080fd5b600073ffffffffffffffffffffffffffffffffffffffff82169050919050565b60006139d3826139a8565b9050919050565b6139e3816139c8565b81146139ee57600080fd5b50565b600081359050613a00816139da565b92915050565b6000819050919050565b613a1981613a06565b8114613a2457600080fd5b50565b600081359050613a3681613a10565b92915050565b60008060408385031215613a5357613a5261399e565b5b6000613a61858286016139f1565b9250506020613a7285828601613a27565b9150509250929050565b613a8581613a06565b82525050565b6000602082019050613aa06000830184613a7c565b92915050565b60007fffffffff0000000000000000000000000000000000000000000000000000000082169050919050565b613adb81613aa6565b8114613ae657600080fd5b50565b600081359050613af881613ad2565b92915050565b600060208284031215613b1457613b1361399e565b5b6000613b2284828501613ae9565b91505092915050565b60008115159050919050565b613b4081613b2b565b82525050565b6000602082019050613b5b6000830184613b37565b92915050565b600060208284031215613b7757613b7661399e565b5b6000613b8584828501613a27565b91505092915050565b600081519050919050565b600082825260208201905092915050565b60005b83811015613bc8578082015181840152602081019050613bad565b60008484015250505050565b6000601f19601f8301169050919050565b6000613bf082613b8e565b613bfa8185613b99565b9350613c0a818560208601613baa565b613c1381613bd4565b840191505092915050565b60006020820190508181036000830152613c388184613be5565b905092915050565b600080fd5b7f4e487b7100000000000000000000000000000000000000000000000000000000600052604160045260246000fd5b613c7d82613bd4565b810181811067ffffffffffffffff82111715613c9c57613c9b613c45565b5b80604052505050565b6000613caf613994565b9050613cbb8282613c74565b919050565b600060408284031215613cd657613cd5613c40565b5b613ce06040613ca5565b90506000613cf084828501613a27565b6000830152506020613d04848285016139f1565b60208301525092915050565b600060408284031215613d2657613d2561399e565b5b6000613d3484828501613cc0565b91505092915050565b60008060408385031215613d5457613d5361399e565b5b6000613d6285828601613a27565b9250506020613d73858286016139f1565b9150509250929050565b600081519050919050565b600082825260208201905092915050565b6000819050602082019050919050565b613db281613a06565b82525050565b613dc1816139c8565b82525050565b608082016000820151613ddd6000850182613da9565b506020820151613df06020850182613db8565b506040820151613e036040850182613da9565b506060820151613e166060850182613da9565b50505050565b6000613e288383613dc7565b60808301905092915050565b6000602082019050919050565b6000613e4c82613d7d565b613e568185613d88565b9350613e6183613d99565b8060005b83811015613e92578151613e798882613e1c565b9750613e8483613e34565b925050600181019050613e65565b5085935050505092915050565b60006020820190508181036000830152613eb98184613e41565b905092915050565b600080600060608486031215613eda57613ed961399e565b5b6000613ee886828701613a27565b9350506020613ef9868287016139f1565b9250506040613f0a86828701613a27565b9150509250925092565b600080fd5b600067ffffffffffffffff821115613f3457613f33613c45565b5b602082029050602081019050919050565b600080fd5b6000613f5d613f5884613f19565b613ca5565b90508083825260208201905060208402830185811115613f8057613f7f613f45565b5b835b81811015613fa95780613f958882613a27565b845260208401935050602081019050613f82565b5050509392505050565b600082601f830112613fc857613fc7613f14565b5b8135613fd8848260208601613f4a565b91505092915050565b600080fd5b600067ffffffffffffffff82111561400157614000613c45565b5b61400a82613bd4565b9050602081019050919050565b82818337600083830152505050565b600061403961403484613fe6565b613ca5565b90508281526020810184848401111561405557614054613fe1565b5b614060848285614017565b509392505050565b600082601f83011261407d5761407c613f14565b5b813561408d848260208601614026565b91505092915050565b600080600080600060a086880312156140b2576140b161399e565b5b60006140c0888289016139f1565b95505060206140d1888289016139f1565b945050604086013567ffffffffffffffff8111156140f2576140f16139a3565b5b6140fe88828901613fb3565b935050606086013567ffffffffffffffff81111561411f5761411e6139a3565b5b61412b88828901613fb3565b925050608086013567ffffffffffffffff81111561414c5761414b6139a3565b5b61415888828901614068565b9150509295509295909350565b600067ffffffffffffffff8211156141805761417f613c45565b5b61418982613bd4565b9050602081019050919050565b60006141a96141a484614165565b613ca5565b9050828152602081018484840111156141c5576141c4613fe1565b5b6141d0848285614017565b509392505050565b600082601f8301126141ed576141ec613f14565b5b81356141fd848260208601614196565b91505092915050565b6000806040838503121561421d5761421c61399e565b5b600083013567ffffffffffffffff81111561423b5761423a6139a3565b5b614247858286016141d8565b925050602061425885828601613a27565b9150509250929050565b60008060006060848603121561427b5761427a61399e565b5b600061428986828701613a27565b935050602061429a86828701613a27565b92505060406142ab868287016139f1565b9150509250925092565b600067ffffffffffffffff8211156142d0576142cf613c45565b5b602082029050602081019050919050565b60006142f46142ef846142b5565b613ca5565b9050808382526020820190506020840283018581111561431757614316613f45565b5b835b81811015614340578061432c88826139f1565b845260208401935050602081019050614319565b5050509392505050565b600082601f83011261435f5761435e613f14565b5b813561436f8482602086016142e1565b91505092915050565b6000806040838503121561438f5761438e61399e565b5b600083013567ffffffffffffffff8111156143ad576143ac6139a3565b5b6143b98582860161434a565b925050602083013567ffffffffffffffff8111156143da576143d96139a3565b5b6143e685828601613fb3565b9150509250929050565b600081519050919050565b600082825260208201905092915050565b6000819050602082019050919050565b60006144288383613da9565b60208301905092915050565b6000602082019050919050565b600061444c826143f0565b61445681856143fb565b93506144618361440c565b8060005b83811015614492578151614479888261441c565b975061448483614434565b925050600181019050614465565b5085935050505092915050565b600060208201905081810360008301526144b98184614441565b905092915050565b6000806000606084860312156144da576144d961399e565b5b60006144e886828701613a27565b93505060206144f986828701613a27565b925050604061450a86828701613a27565b9150509250925092565b61451d816139c8565b82525050565b60006020820190506145386000830184614514565b92915050565b61454781613b2b565b811461455257600080fd5b50565b6000813590506145648161453e565b92915050565b600080604083850312156145815761458061399e565b5b600061458f858286016139f1565b92505060206145a085828601614555565b9150509250929050565b600081519050919050565b600082825260208201905092915050565b6000819050602082019050919050565b6060820160008201516145ec6000850182613da9565b5060208201516145ff6020850182613db8565b5060408201516146126040850182613da9565b50505050565b600061462483836145d6565b60608301905092915050565b6000602082019050919050565b6000614648826145aa565b61465281856145b5565b935061465d836145c6565b8060005b8381101561468e5781516146758882614618565b975061468083614630565b925050600181019050614661565b5085935050505092915050565b600060208201905081810360008301526146b5818461463d565b905092915050565b6000602082840312156146d3576146d261399e565b5b600082013567ffffffffffffffff8111156146f1576146f06139a3565b5b6146fd848285016141d8565b91505092915050565b6000806040838503121561471d5761471c61399e565b5b600061472b858286016139f1565b925050602061473c858286016139f1565b9150509250929050565b60608201600082015161475c6000850182613da9565b50602082015161476f6020850182613db8565b5060408201516147826040850182613da9565b50505050565b600060608201905061479d6000830184614746565b92915050565b6080820160008201516147b96000850182613da9565b5060208201516147cc6020850182613db8565b5060408201516147df6040850182613da9565b5060608201516147f26060850182613da9565b50505050565b600060808201905061480d60008301846147a3565b92915050565b600080600080600060a0868803121561482f5761482e61399e565b5b600061483d888289016139f1565b955050602061484e888289016139f1565b945050604061485f88828901613a27565b935050606061487088828901613a27565b925050608086013567ffffffffffffffff811115614891576148906139a3565b5b61489d88828901614068565b9150509295509295909350565b6000602082840312156148c0576148bf61399e565b5b60006148ce848285016139f1565b91505092915050565b7f455243313135353a2061646472657373207a65726f206973206e6f742061207660008201527f616c6964206f776e657200000000000000000000000000000000000000000000602082015250565b6000614933602a83613b99565b915061493e826148d7565b604082019050919050565b6000602082019050818103600083015261496281614926565b9050919050565b7f4e487b7100000000000000000000000000000000000000000000000000000000600052602260045260246000fd5b600060028204905060018216806149b057607f821691505b6020821081036149c3576149c2614969565b5b50919050565b600081905092915050565b60008190508160005260206000209050919050565b600081546149f681614998565b614a0081866149c9565b94506001821660008114614a1b5760018114614a3057614a63565b60ff1983168652811515820286019350614a63565b614a39856149d4565b60005b83811015614a5b57815481890152600182019150602081019050614a3c565b838801955050505b50505092915050565b6000614a7782613b8e565b614a8181856149c9565b9350614a91818560208601613baa565b80840191505092915050565b6000614aa982856149e9565b9150614ab58284614a6c565b91508190509392505050565b7f4e487b7100000000000000000000000000000000000000000000000000000000600052603260045260246000fd5b7f4e487b7100000000000000000000000000000000000000000000000000000000600052601160045260246000fd5b6000614b2a82613a06565b9150614b3583613a06565b9250828203905081811115614b4d57614b4c614af0565b5b92915050565b7f4e487b7100000000000000000000000000000000000000000000000000000000600052603160045260246000fd5b6000614b8d82613a06565b91507fffffffffffffffffffffffffffffffffffffffffffffffffffffffffffffffff8203614bbf57614bbe614af0565b5b600182019050919050565b7f596f752063616e27742062757920796f7572206f776e20626f6f6b73206f6e2060008201527f73616c6500000000000000000000000000000000000000000000000000000000602082015250565b6000614c26602483613b99565b9150614c3182614bca565b604082019050919050565b60006020820190508181036000830152614c5581614c19565b9050919050565b6000614c6782613a06565b9150614c7283613a06565b9250828202614c8081613a06565b91508282048414831517614c9757614c96614af0565b5b5092915050565b7f506c65617365207375626d6974207468652061736b696e672070726963650000600082015250565b6000614cd4601e83613b99565b9150614cdf82614c9e565b602082019050919050565b60006020820190508181036000830152614d0381614cc7565b9050919050565b7f416d6f756e7420697320696e76616c6964000000000000000000000000000000600082015250565b6000614d40601183613b99565b9150614d4b82614d0a565b602082019050919050565b60006020820190508181036000830152614d6f81614d33565b9050919050565b7f455243313135353a2063616c6c6572206973206e6f7420746f6b656e206f776e60008201527f6572206f7220617070726f766564000000000000000000000000000000000000602082015250565b6000614dd2602e83613b99565b9150614ddd82614d76565b604082019050919050565b60006020820190508181036000830152614e0181614dc5565b9050919050565b7f546f6b656e2055524920616c7265616479206578697374730000000000000000600082015250565b6000614e3e601883613b99565b9150614e4982614e08565b602082019050919050565b60006020820190508181036000830152614e6d81614e31565b9050919050565b7f546865206e756d626572206f6620626f6f6b7320796f752077616e7420746f2060008201527f7075626c697368206973206e6f7420617070726f707269617465000000000000602082015250565b6000614ed0603a83613b99565b9150614edb82614e74565b604082019050919050565b60006020820190508181036000830152614eff81614ec3565b9050919050565b7f5072696365206d75737420626520657175616c20746f206c697374696e67207060008201527f7269636500000000000000000000000000000000000000000000000000000000602082015250565b6000614f62602483613b99565b9150614f6d82614f06565b604082019050919050565b60006020820190508181036000830152614f9181614f55565b9050919050565b6000614fa48284614a6c565b915081905092915050565b7f596f7520617265206e6f7420746865206f776e6572206f66207468697320746f60008201527f6b656e0000000000000000000000000000000000000000000000000000000000602082015250565b600061500b602383613b99565b915061501682614faf565b604082019050919050565b6000602082019050818103600083015261503a81614ffe565b9050919050565b7f72656d6f76656420616d6f756e74206f6620626f6f6b20697320696e76616c6960008201527f6400000000000000000000000000000000000000000000000000000000000000602082015250565b600061509d602183613b99565b91506150a882615041565b604082019050919050565b600060208201905081810360008301526150cc81615090565b9050919050565b7f596f757220626f6f6b20617265206e6f74206f6e2073616c6500000000000000600082015250565b6000615109601983613b99565b9150615114826150d3565b602082019050919050565b60006020820190508181036000830152615138816150fc565b9050919050565b7f455243313135353a206163636f756e747320616e6420696473206c656e67746860008201527f206d69736d617463680000000000000000000000000000000000000000000000602082015250565b600061519b602983613b99565b91506151a68261513f565b604082019050919050565b600060208201905081810360008301526151ca8161518e565b9050919050565b60006151dc82613a06565b91506151e783613a06565b92508282019050808211156151ff576151fe614af0565b5b92915050565b7f596f7520646f6e2774206861766520656e6f75676820626f6f6b7320746f207360008201527f656c6c0000000000000000000000000000000000000000000000000000000000602082015250565b6000615261602383613b99565b915061526c82615205565b604082019050919050565b6000602082019050818103600083015261529081615254565b9050919050565b7f5072696365206d757374206265206174206c6561737420312077656900000000600082015250565b60006152cd601c83613b99565b91506152d882615297565b602082019050919050565b600060208201905081810360008301526152fc816152c0565b9050919050565b7f4f776e61626c653a206e6577206f776e657220697320746865207a65726f206160008201527f6464726573730000000000000000000000000000000000000000000000000000602082015250565b600061535f602683613b99565b915061536a82615303565b604082019050919050565b6000602082019050818103600083015261538e81615352565b9050919050565b7f455243313135353a207472616e7366657220746f20746865207a65726f20616460008201527f6472657373000000000000000000000000000000000000000000000000000000602082015250565b60006153f1602583613b99565b91506153fc82615395565b604082019050919050565b60006020820190508181036000830152615420816153e4565b9050919050565b7f455243313135353a20696e73756666696369656e742062616c616e636520666f60008201527f72207472616e7366657200000000000000000000000000000000000000000000602082015250565b6000615483602a83613b99565b915061548e82615427565b604082019050919050565b600060208201905081810360008301526154b281615476565b9050919050565b60006040820190506154ce6000830185613a7c565b6154db6020830184613a7c565b9392505050565b7f455243313135353a2069647320616e6420616d6f756e7473206c656e6774682060008201527f6d69736d61746368000000000000000000000000000000000000000000000000602082015250565b600061553e602883613b99565b9150615549826154e2565b604082019050919050565b6000602082019050818103600083015261556d81615531565b9050919050565b6000604082019050818103600083015261558e8185614441565b905081810360208301526155a28184614441565b90509392505050565b7f455243313135353a206d696e7420746f20746865207a65726f2061646472657360008201527f7300000000000000000000000000000000000000000000000000000000000000602082015250565b6000615607602183613b99565b9150615612826155ab565b604082019050919050565b60006020820190508181036000830152615636816155fa565b9050919050565b60006020601f8301049050919050565b600082821b905092915050565b60006008830261568a7fffffffffffffffffffffffffffffffffffffffffffffffffffffffffffffffff8261564d565b615694868361564d565b95508019841693508086168417925050509392505050565b6000819050919050565b60006156d16156cc6156c784613a06565b6156ac565b613a06565b9050919050565b6000819050919050565b6156eb836156b6565b6156ff6156f7826156d8565b84845461565a565b825550505050565b600090565b615714615707565b61571f8184846156e2565b505050565b5b818110156157435761573860008261570c565b600181019050615725565b5050565b601f82111561578857615759816149d4565b6157628461563d565b81016020851015615771578190505b61578561577d8561563d565b830182615724565b50505b505050565b600082821c905092915050565b60006157ab6000198460080261578d565b1980831691505092915050565b60006157c4838361579a565b9150826002028217905092915050565b6157dd82613b8e565b67ffffffffffffffff8111156157f6576157f5613c45565b5b6158008254614998565b61580b828285615747565b600060209050601f83116001811461583e576000841561582c578287015190505b61583685826157b8565b86555061589e565b601f19841661584c866149d4565b60005b828110156158745784890151825560018201915060208501945060208101905061584f565b86831015615891578489015161588d601f89168261579a565b8355505b6001600288020188555050505b505050505050565b60006060820190506158bb6000830186613a7c565b6158c86020830185614514565b6158d56040830184613a7c565b949350505050565b7f436f756e7465723a2064656372656d656e74206f766572666c6f770000000000600082015250565b6000615913601b83613b99565b915061591e826158dd565b602082019050919050565b6000602082019050818103600083015261594281615906565b9050919050565b600060808201905061595e6000830187613a7c565b61596b6020830186614514565b6159786040830185613a7c565b6159856060830184613a7c565b95945050505050565b7f4f776e61626c653a2063616c6c6572206973206e6f7420746865206f776e6572600082015250565b60006159c4602083613b99565b91506159cf8261598e565b602082019050919050565b600060208201905081810360008301526159f3816159b7565b9050919050565b7f455243313135353a2073657474696e6720617070726f76616c2073746174757360008201527f20666f722073656c660000000000000000000000000000000000000000000000602082015250565b6000615a56602983613b99565b9150615a61826159fa565b604082019050919050565b60006020820190508181036000830152615a8581615a49565b9050919050565b600081519050919050565b600082825260208201905092915050565b6000615ab382615a8c565b615abd8185615a97565b9350615acd818560208601613baa565b615ad681613bd4565b840191505092915050565b600060a082019050615af66000830188614514565b615b036020830187614514565b615b106040830186613a7c565b615b1d6060830185613a7c565b8181036080830152615b2f8184615aa8565b90509695505050505050565b600081519050615b4a81613ad2565b92915050565b600060208284031215615b6657615b6561399e565b5b6000615b7484828501615b3b565b91505092915050565b60008160e01c9050919050565b600060033d1115615ba95760046000803e615ba6600051615b7d565b90505b90565b600060443d10615c3957615bbe613994565b60043d036004823e80513d602482011167ffffffffffffffff82111715615be6575050615c39565b808201805167ffffffffffffffff811115615c045750505050615c39565b80602083010160043d038501811115615c21575050505050615c39565b615c3082602001850186613c74565b82955050505050505b90565b7f455243313135353a207472616e7366657220746f206e6f6e2d4552433131353560008201527f526563656976657220696d706c656d656e746572000000000000000000000000602082015250565b6000615c98603483613b99565b9150615ca382615c3c565b604082019050919050565b60006020820190508181036000830152615cc781615c8b565b9050919050565b7f455243313135353a204552433131353552656365697665722072656a6563746560008201527f6420746f6b656e73000000000000000000000000000000000000000000000000602082015250565b6000615d2a602883613b99565b9150615d3582615cce565b604082019050919050565b60006020820190508181036000830152615d5981615d1d565b9050919050565b600060a082019050615d756000830188614514565b615d826020830187614514565b8181036040830152615d948186614441565b90508181036060830152615da88185614441565b90508181036080830152615dbc8184615aa8565b90509695505050505050565b6000615dd382613a06565b915060008203615de657615de5614af0565b5b60018203905091905056fea2646970667358221220c57ee261998c3fb2f32d29d63be0316f242fec5cbd45ec32a10f521ed74b542d64736f6c6343000811003368747470733a2f2f6578616d706c652e636f6d2f6170692f7b69647d2e6a736f6e",
  "immutableReferences": {},
  "source": "// SPDX-License-Identifier: MIT\r\n\r\npragma solidity >=0.4.22 <0.9.0;\r\nimport \"@openzeppelin/contracts/token/ERC1155/extensions/ERC1155URIStorage.sol\";\r\nimport \"@openzeppelin/contracts/utils/Counters.sol\";\r\nimport \"@openzeppelin/contracts/access/Ownable.sol\";\r\n\r\ncontract BookStore is ERC1155URIStorage, Ownable {\r\n  using Counters for Counters.Counter;\r\n\r\n  struct NFTBook {\r\n    uint256 tokenId;\r\n    address author;\r\n    uint256 balance;\r\n  }\r\n\r\n  event NFTBookCreated (\r\n    uint256 tokenId,\r\n    address author,\r\n    uint256 balance\r\n  );\r\n\r\n  struct ListedBook {\r\n    uint256 tokenId;\r\n    address seller;\r\n    uint price;\r\n    uint amount;\r\n  }\r\n\r\n  struct PrimaryKeyListedBook {\r\n    uint256 tokenId;\r\n    address seller;\r\n  }\r\n\r\n  event ListedBookCreated (\r\n    uint tokenId,\r\n    address seller,\r\n    uint price,\r\n    uint amount\r\n  );\r\n\r\n  uint MAX_BALANCE = 500;\r\n  uint public listingPrice = 0.025 ether;\r\n  Counters.Counter private _tokenIds;\r\n\r\n  mapping (uint => NFTBook) _idToNFTBook;\r\n  mapping (uint => mapping (address => ListedBook)) _keyToListedBook; // Key is tokenId and seller\r\n  mapping (string => bool) private _usedTokenURIs;\r\n\r\n  mapping(address => mapping(uint => uint)) private _ownedTokens;\r\n  mapping(address => uint) private _totalOwnedToken;\r\n\r\n  PrimaryKeyListedBook[] private _allListedBook;\r\n  Counters.Counter private _listedBooks;\r\n\r\n  constructor() ERC1155(\"https://example.com/api/{id}.json\") {}\r\n\r\n  function setListingPrice(uint newPrice) external onlyOwner {\r\n    require(newPrice > 0, \"Price must be at least 1 wei\");\r\n    listingPrice = newPrice;\r\n  }\r\n\r\n  function _beforeTokenTransfer(\r\n        address operator,\r\n        address from,\r\n        address to,\r\n        uint256[] memory ids,\r\n        uint256[] memory amounts,\r\n        bytes memory data\r\n  ) internal virtual override {\r\n\r\n    super._beforeTokenTransfer(operator, from, to, ids, amounts, data);\r\n\r\n    // Mint book\r\n    if (from == address(0) && to != address(0)) {\r\n      uint tokenId = ids[0];\r\n      _addTokenToOwnerEnumeration(to, tokenId);\r\n    }\r\n\r\n    // Buy books\r\n    if (from != address(0) && to != address(0) && to != from) {\r\n      uint tokenId = ids[0];\r\n      _addTokenToOwnerEnumeration(to, tokenId);\r\n      if (ERC1155.balanceOf(from, tokenId) == 0) {\r\n        _removeTokenFromOwnerEnumeration(from, tokenId);\r\n      }\r\n    }\r\n\r\n  }\r\n\r\n  // Not necessary\r\n\r\n  // function getBalanceOfBook(uint256 tokenId, address owner) public view returns (uint256) {\r\n  //   require(isOwnerOfToken(tokenId, owner), \"You do not own this token\");\r\n  //   return ERC1155.balanceOf(owner, tokenId);\r\n  // }\r\n\r\n  function _addTokenToOwnerEnumeration(address owner, uint tokenId) private {\r\n    uint length = _totalOwnedToken[owner];\r\n    _ownedTokens[owner][length] = tokenId;\r\n    _totalOwnedToken[owner]++;\r\n  }\r\n\r\n  function _removeTokenFromOwnerEnumeration(address owner, uint tokenId) private {\r\n    uint lastTokenIndex = _totalOwnedToken[owner] - 1;\r\n\r\n    for (uint i = 0; i < lastTokenIndex + 1; i++) {\r\n      if (tokenId == _ownedTokens[owner][i]) {\r\n        _ownedTokens[owner][i] = _ownedTokens[owner][lastTokenIndex];\r\n      }\r\n    }\r\n\r\n    _totalOwnedToken[owner]--;\r\n    delete _ownedTokens[owner][lastTokenIndex];\r\n  }\r\n\r\n  function getNftBook(uint tokenId) public view returns (NFTBook memory) {\r\n    return _idToNFTBook[tokenId];\r\n  }\r\n\r\n  function getListedBook(uint tokenId, address seller) public view returns (ListedBook memory) {\r\n    return _keyToListedBook[tokenId][seller];\r\n  }\r\n\r\n  function isTokenURIExist(string memory tokenURI) public view returns (bool) {\r\n    return _usedTokenURIs[tokenURI];\r\n  }\r\n\r\n  function mintBook(string memory tokenURI, uint256 balance)\r\n    public payable returns (uint) {\r\n\r\n    require(!isTokenURIExist(tokenURI),\r\n           \"Token URI already exists\");\r\n    require(balance > 0 && balance <= MAX_BALANCE,\r\n          \"The number of books you want to publish is not appropriate\");\r\n    require(msg.value == listingPrice,\r\n           \"Price must be equal to listing price\");\r\n\r\n    _tokenIds.increment();\r\n    uint newTokenId = _tokenIds.current();\r\n\r\n    _mint(msg.sender, newTokenId, balance, \"\");\r\n    _setURI(newTokenId, tokenURI);\r\n    _createNftBook(newTokenId, balance);\r\n\r\n    _usedTokenURIs[tokenURI] = true;\r\n    return newTokenId;\r\n  }\r\n\r\n  function _createNftBook(uint tokenId, uint256 balance) private {\r\n    _idToNFTBook[tokenId] = NFTBook(tokenId, msg.sender, balance);\r\n    emit NFTBookCreated(tokenId, msg.sender, balance);\r\n  }\r\n\r\n  function _createListedBook(uint tokenId, address seller, uint256 price, uint amount) private {\r\n    _keyToListedBook[tokenId][seller] = ListedBook(tokenId, seller, price, amount);\r\n    // _allListedBook[_listedBooks.current()] = ListedBook(tokenId, seller, price, amount);\r\n    _allListedBook.push(PrimaryKeyListedBook(tokenId, seller));\r\n    _listedBooks.increment();\r\n    emit ListedBookCreated(tokenId, seller, price, amount);\r\n  }\r\n\r\n  function isOwnerOfToken(uint tokenId, address owner) public view returns(bool) {\r\n    // uint total = _totalOwnedToken[owner];\r\n    // for (uint i = 0; i < total; i++) {\r\n    //   if (_ownedTokens[owner][i] == tokenId) {\r\n    //     return true;\r\n    //   }\r\n    // }\r\n    // return false;\r\n\r\n    // Suggest\r\n    return ERC1155.balanceOf(owner, tokenId) > 0;\r\n  }\r\n\r\n  function getOwnedNFTBooks() public view returns (NFTBook[] memory) {\r\n    uint ownedItemsCount = _totalOwnedToken[msg.sender];\r\n    NFTBook[] memory books = new NFTBook[](ownedItemsCount);\r\n\r\n    for (uint i = 0; i < ownedItemsCount; i++) {\r\n      uint tokenId = _ownedTokens[msg.sender][i];\r\n      NFTBook memory book = _idToNFTBook[tokenId];\r\n\r\n      books[i] = book;\r\n    }\r\n\r\n    return books;\r\n  }\r\n\r\n  function getOwnedListedBooks() public view returns (ListedBook[] memory) {\r\n    uint ownedItemsCount = _totalOwnedToken[msg.sender];\r\n    ListedBook[] memory books = new ListedBook[](ownedItemsCount);\r\n\r\n    uint currentIndex = 0;\r\n    for (uint i = 0; i < ownedItemsCount; i++) {\r\n      uint tokenId = _ownedTokens[msg.sender][i];\r\n      ListedBook memory book = _keyToListedBook[tokenId][msg.sender];\r\n\r\n      if(book.tokenId != 0 && book.seller != address(0)) {\r\n        books[currentIndex] = book;\r\n        currentIndex++;\r\n      }\r\n    }\r\n\r\n    return books;\r\n  }\r\n\r\n  // TODO: not necessary\r\n\r\n  // return false: You don't have enough books to sell\r\n  // function checkQuantityToSell(uint256 quantity, uint256 tokenId) public view returns(bool) {\r\n  //   return quantity <= getBalanceOfBook(tokenId, msg.sender) && quantity > 0;\r\n  // }\r\n\r\n  // return i > 0: listed book on sale\r\n  // return -1: unlisted book on sale\r\n  // function getIdListedBookOnSale(uint256 tokenId,\r\n  //                               uint price,\r\n  //                               address seller) public view returns (int) {\r\n  //   for (uint256 i = 0; i < _listedBooks.current(); i++) {\r\n  //     ListedBook memory listedBook = _allListedBook[i];\r\n\r\n  //     if (tokenId == listedBook.tokenId &&\r\n  //         seller == listedBook.seller &&\r\n  //         price == listedBook.price) {\r\n  //       return int(i);\r\n  //     }\r\n  //   }\r\n  //   return -1;\r\n  // }\r\n\r\n  function getAmountOfListedBook(uint256 tokenId, address seller) public view returns(uint256) {\r\n    return _keyToListedBook[tokenId][seller].amount;\r\n  }\r\n\r\n  function sellBooks(uint256 tokenId, uint price, uint256 amount) public payable {\r\n    require(isOwnerOfToken(tokenId, msg.sender),\r\n          \"You are not the owner of this token\");\r\n    require(getAmountOfListedBook(tokenId, msg.sender) + amount <= ERC1155.balanceOf(msg.sender, tokenId) &&\r\n           amount > 0,\r\n          \"You don't have enough books to sell\");\r\n    require(msg.value == listingPrice,\r\n           \"Price must be equal to listing price\");\r\n    // int idListedBook = getIdListedBookOnSale(tokenId, price, msg.sender);\r\n    ListedBook memory listedBook = _keyToListedBook[tokenId][msg.sender];\r\n\r\n    if (listedBook.tokenId == 0 && listedBook.seller == address(0)) {\r\n      _createListedBook(tokenId, msg.sender, price, amount);\r\n\r\n    } else {\r\n      // require(checkQuantityToSell(listedBook.amount + amount,\r\n      //                          tokenId),\r\n      //                         \"You don't have enough books to sell\"); // TODO: not necessary\r\n      _keyToListedBook[tokenId][msg.sender].amount += amount;\r\n    }\r\n  }\r\n\r\n  function removeItemFromAllListedBooks(PrimaryKeyListedBook memory value) public {\r\n    for (uint i = 0; i < _allListedBook.length; i++) {\r\n        if (_allListedBook[i].tokenId == value.tokenId \r\n            && _allListedBook[i].seller == value.seller) {\r\n            _allListedBook[i] = _allListedBook[_allListedBook.length - 1];\r\n            _allListedBook.pop();\r\n            break;\r\n        }\r\n    }\r\n  }\r\n\r\n  function decreaseListedBookFromSale(uint256 tokenId, uint256 amount, address seller) public {\r\n    require(isOwnerOfToken(tokenId, seller),\r\n          \"You are not the owner of this token\");\r\n    require(amount > 0,\r\n          \"removed amount of book is invalid\");\r\n    \r\n    // int idListedBook = getIdListedBookOnSale(tokenId, price, seller);\r\n\r\n    // ListedBook memory listedBook = getListedBook(uint256(idListedBook));\r\n    ListedBook memory listedBook = _keyToListedBook[tokenId][seller];\r\n    require(listedBook.amount > 0,\r\n          \"Your book are not on sale\");\r\n\r\n    if (amount < listedBook.amount) {\r\n      _keyToListedBook[tokenId][seller].amount -= amount;\r\n    } else {\r\n      // uint256 lastIndexListedBook = _listedBooks.current() - 1;\r\n      // ListedBook memory lastListedBook = getListedBook(uint256(lastIndexListedBook));\r\n      // _allListedBook[uint256(idListedBook)] = lastListedBook;\r\n      removeItemFromAllListedBooks(PrimaryKeyListedBook(tokenId, seller));\r\n      _listedBooks.decrement();\r\n      delete _keyToListedBook[tokenId][seller];\r\n    }\r\n  }\r\n\r\n  function getAllBooksOnSale() public view returns (ListedBook[] memory) {\r\n    ListedBook[] memory books = new ListedBook[](_listedBooks.current());\r\n\r\n    uint currentIndex = 0;\r\n    for (uint i = 0; i < _listedBooks.current(); i++) {\r\n      PrimaryKeyListedBook memory keyListedBook = _allListedBook[i];\r\n      ListedBook memory book = _keyToListedBook[keyListedBook.tokenId][keyListedBook.seller];\r\n      if(book.tokenId != 0 && book.seller != address(0)) {\r\n        books[currentIndex] = book;\r\n        currentIndex++;\r\n      }\r\n    }\r\n    return books;\r\n  }\r\n\r\n  function buyBooks(uint256 tokenId, address seller, uint256 amount) public payable {\r\n    // int idListedBook = getIdListedBookOnSale(tokenId, price, seller);\r\n    // ListedBook memory listedBook = getListedBook(uint256(idListedBook));\r\n    ListedBook memory listedBook = _keyToListedBook[tokenId][seller];\r\n    require(msg.sender != listedBook.seller, \"You can't buy your own books on sale\");\r\n    require(msg.value == amount * listedBook.price, \"Please submit the asking price\");\r\n    require(amount <= listedBook.amount && amount > 0, \"Amount is invalid\");\r\n\r\n    uint256 totalPrice = amount * listedBook.price;\r\n    decreaseListedBookFromSale(tokenId, amount, seller);\r\n    _safeTransferFrom(seller, msg.sender, tokenId, amount, \"\");\r\n    payable(seller).transfer(totalPrice);\r\n  }\r\n\r\n}",
  "sourcePath": "D:\\DO_AN_TOT_NGHIEP\\project\\nft-bookstore\\contracts\\BookStore.sol",
  "compiler": {
    "name": "solc",
    "version": "0.8.17+commit.8df45f5f.Emscripten.clang"
  },
  "schemaVersion": "3.4.11",
  "updatedAt": "2023-02-24T06:19:17.905Z",
  "networkType": "ethereum",
  "devdoc": {
    "kind": "dev",
    "methods": {
      "balanceOf(address,uint256)": {
        "details": "See {IERC1155-balanceOf}. Requirements: - `account` cannot be the zero address."
      },
      "balanceOfBatch(address[],uint256[])": {
        "details": "See {IERC1155-balanceOfBatch}. Requirements: - `accounts` and `ids` must have the same length."
      },
      "isApprovedForAll(address,address)": {
        "details": "See {IERC1155-isApprovedForAll}."
      },
      "owner()": {
        "details": "Returns the address of the current owner."
      },
      "renounceOwnership()": {
        "details": "Leaves the contract without owner. It will not be possible to call `onlyOwner` functions anymore. Can only be called by the current owner. NOTE: Renouncing ownership will leave the contract without an owner, thereby removing any functionality that is only available to the owner."
      },
      "safeBatchTransferFrom(address,address,uint256[],uint256[],bytes)": {
        "details": "See {IERC1155-safeBatchTransferFrom}."
      },
      "safeTransferFrom(address,address,uint256,uint256,bytes)": {
        "details": "See {IERC1155-safeTransferFrom}."
      },
      "setApprovalForAll(address,bool)": {
        "details": "See {IERC1155-setApprovalForAll}."
      },
      "supportsInterface(bytes4)": {
        "details": "See {IERC165-supportsInterface}."
      },
      "transferOwnership(address)": {
        "details": "Transfers ownership of the contract to a new account (`newOwner`). Can only be called by the current owner."
      },
      "uri(uint256)": {
        "details": "See {IERC1155MetadataURI-uri}. This implementation returns the concatenation of the `_baseURI` and the token-specific uri if the latter is set This enables the following behaviors: - if `_tokenURIs[tokenId]` is set, then the result is the concatenation   of `_baseURI` and `_tokenURIs[tokenId]` (keep in mind that `_baseURI`   is empty per default); - if `_tokenURIs[tokenId]` is NOT set then we fallback to `super.uri()`   which in most cases will contain `ERC1155._uri`; - if `_tokenURIs[tokenId]` is NOT set, and if the parents do not have a   uri value set, then the result is empty."
      }
    },
    "version": 1
  },
  "userdoc": {
    "kind": "user",
    "methods": {},
    "version": 1
  }
}