{
  "contractName": "BookSharingStorage",
  "abi": [
    {
      "inputs": [
        {
          "internalType": "contract TimeLock",
          "name": "timelock",
          "type": "address"
        }
      ],
      "stateMutability": "nonpayable",
      "type": "constructor"
    },
    {
      "inputs": [
        {
          "internalType": "address",
          "name": "",
          "type": "address"
        }
      ],
      "name": "InvalidAddressError",
      "type": "error"
    },
    {
      "inputs": [
        {
          "internalType": "uint256",
          "name": "",
          "type": "uint256"
        }
      ],
      "name": "InvalidAmountError",
      "type": "error"
    },
    {
      "inputs": [
        {
          "internalType": "uint256",
          "name": "",
          "type": "uint256"
        }
      ],
      "name": "InvalidIdError",
      "type": "error"
    },
    {
      "anonymous": false,
      "inputs": [
        {
          "indexed": false,
          "internalType": "uint256",
          "name": "tokenId",
          "type": "uint256"
        },
        {
          "indexed": false,
          "internalType": "address",
          "name": "fromRenter",
          "type": "address"
        },
        {
          "indexed": false,
          "internalType": "address",
          "name": "sharer",
          "type": "address"
        },
        {
          "indexed": false,
          "internalType": "address",
          "name": "sharedPer",
          "type": "address"
        },
        {
          "indexed": false,
          "internalType": "uint256",
          "name": "priceOfBB",
          "type": "uint256"
        },
        {
          "indexed": false,
          "internalType": "uint256",
          "name": "price",
          "type": "uint256"
        },
        {
          "indexed": false,
          "internalType": "uint256",
          "name": "amount",
          "type": "uint256"
        },
        {
          "indexed": false,
          "internalType": "uint256",
          "name": "startTime",
          "type": "uint256"
        },
        {
          "indexed": false,
          "internalType": "uint256",
          "name": "endTime",
          "type": "uint256"
        }
      ],
      "name": "BookSharingCreated",
      "type": "event"
    },
    {
      "inputs": [],
      "name": "getTotalBookOnSharing",
      "outputs": [
        {
          "internalType": "uint256",
          "name": "",
          "type": "uint256"
        }
      ],
      "stateMutability": "view",
      "type": "function",
      "constant": true
    },
    {
      "inputs": [
        {
          "internalType": "uint256",
          "name": "tokenId",
          "type": "uint256"
        },
        {
          "internalType": "address",
          "name": "sharer",
          "type": "address"
        },
        {
          "internalType": "address",
          "name": "sharedPer",
          "type": "address"
        },
        {
          "internalType": "uint256",
          "name": "startTime",
          "type": "uint256"
        },
        {
          "internalType": "uint256",
          "name": "endTime",
          "type": "uint256"
        }
      ],
      "name": "getHashIdForSharedBook",
      "outputs": [
        {
          "internalType": "bytes32",
          "name": "",
          "type": "bytes32"
        }
      ],
      "stateMutability": "pure",
      "type": "function",
      "constant": true
    },
    {
      "inputs": [
        {
          "internalType": "uint256",
          "name": "tokenId",
          "type": "uint256"
        },
        {
          "internalType": "address",
          "name": "fromRenter",
          "type": "address"
        },
        {
          "internalType": "address",
          "name": "sharer",
          "type": "address"
        },
        {
          "internalType": "uint256",
          "name": "startTime",
          "type": "uint256"
        },
        {
          "internalType": "uint256",
          "name": "endTime",
          "type": "uint256"
        }
      ],
      "name": "getHashIdForBookOnSharing",
      "outputs": [
        {
          "internalType": "bytes32",
          "name": "",
          "type": "bytes32"
        }
      ],
      "stateMutability": "pure",
      "type": "function",
      "constant": true
    },
    {
      "inputs": [
        {
          "internalType": "uint256",
          "name": "tokenId",
          "type": "uint256"
        },
        {
          "internalType": "address",
          "name": "fromRenter",
          "type": "address"
        },
        {
          "internalType": "address",
          "name": "sharer",
          "type": "address"
        },
        {
          "internalType": "uint256",
          "name": "startTime",
          "type": "uint256"
        },
        {
          "internalType": "uint256",
          "name": "endTime",
          "type": "uint256"
        }
      ],
      "name": "getIdBookOnSharing",
      "outputs": [
        {
          "internalType": "uint256",
          "name": "",
          "type": "uint256"
        }
      ],
      "stateMutability": "view",
      "type": "function",
      "constant": true
    },
    {
      "inputs": [],
      "name": "getTotalSharedBooks",
      "outputs": [
        {
          "internalType": "uint256",
          "name": "",
          "type": "uint256"
        }
      ],
      "stateMutability": "view",
      "type": "function",
      "constant": true
    },
    {
      "inputs": [
        {
          "internalType": "uint256",
          "name": "idBooksOnSharing",
          "type": "uint256"
        }
      ],
      "name": "getBooksOnSharing",
      "outputs": [
        {
          "components": [
            {
              "internalType": "uint256",
              "name": "tokenId",
              "type": "uint256"
            },
            {
              "internalType": "address",
              "name": "fromRenter",
              "type": "address"
            },
            {
              "internalType": "address",
              "name": "sharer",
              "type": "address"
            },
            {
              "internalType": "address",
              "name": "sharedPer",
              "type": "address"
            },
            {
              "internalType": "uint256",
              "name": "priceOfBB",
              "type": "uint256"
            },
            {
              "internalType": "uint256",
              "name": "price",
              "type": "uint256"
            },
            {
              "internalType": "uint256",
              "name": "amount",
              "type": "uint256"
            },
            {
              "internalType": "uint256",
              "name": "startTime",
              "type": "uint256"
            },
            {
              "internalType": "uint256",
              "name": "endTime",
              "type": "uint256"
            }
          ],
          "internalType": "struct BookSharingStorage.BookSharing",
          "name": "",
          "type": "tuple"
        }
      ],
      "stateMutability": "view",
      "type": "function",
      "constant": true
    },
    {
      "inputs": [
        {
          "internalType": "uint256",
          "name": "tokenId",
          "type": "uint256"
        },
        {
          "internalType": "address",
          "name": "sharedPer",
          "type": "address"
        },
        {
          "internalType": "address",
          "name": "sharer",
          "type": "address"
        },
        {
          "internalType": "uint256",
          "name": "startTime",
          "type": "uint256"
        },
        {
          "internalType": "uint256",
          "name": "endTime",
          "type": "uint256"
        }
      ],
      "name": "getIdSharedBook",
      "outputs": [
        {
          "internalType": "uint256",
          "name": "",
          "type": "uint256"
        }
      ],
      "stateMutability": "view",
      "type": "function",
      "constant": true
    },
    {
      "inputs": [
        {
          "internalType": "uint256",
          "name": "idSharedBook",
          "type": "uint256"
        }
      ],
      "name": "getSharedBooks",
      "outputs": [
        {
          "components": [
            {
              "internalType": "uint256",
              "name": "tokenId",
              "type": "uint256"
            },
            {
              "internalType": "address",
              "name": "fromRenter",
              "type": "address"
            },
            {
              "internalType": "address",
              "name": "sharer",
              "type": "address"
            },
            {
              "internalType": "address",
              "name": "sharedPer",
              "type": "address"
            },
            {
              "internalType": "uint256",
              "name": "priceOfBB",
              "type": "uint256"
            },
            {
              "internalType": "uint256",
              "name": "price",
              "type": "uint256"
            },
            {
              "internalType": "uint256",
              "name": "amount",
              "type": "uint256"
            },
            {
              "internalType": "uint256",
              "name": "startTime",
              "type": "uint256"
            },
            {
              "internalType": "uint256",
              "name": "endTime",
              "type": "uint256"
            }
          ],
          "internalType": "struct BookSharingStorage.BookSharing",
          "name": "",
          "type": "tuple"
        }
      ],
      "stateMutability": "view",
      "type": "function",
      "constant": true
    },
    {
      "inputs": [
        {
          "internalType": "uint256",
          "name": "tokenId",
          "type": "uint256"
        },
        {
          "internalType": "address",
          "name": "fromRenter",
          "type": "address"
        },
        {
          "internalType": "address",
          "name": "sharer",
          "type": "address"
        },
        {
          "internalType": "uint256",
          "name": "priceOfBB",
          "type": "uint256"
        },
        {
          "internalType": "uint256",
          "name": "price",
          "type": "uint256"
        },
        {
          "internalType": "uint256",
          "name": "amount",
          "type": "uint256"
        },
        {
          "internalType": "uint256",
          "name": "startTime",
          "type": "uint256"
        },
        {
          "internalType": "uint256",
          "name": "endTime",
          "type": "uint256"
        }
      ],
      "name": "shareBooks",
      "outputs": [],
      "stateMutability": "payable",
      "type": "function",
      "payable": true
    },
    {
      "inputs": [],
      "name": "getAllBooksOnSharing",
      "outputs": [
        {
          "components": [
            {
              "internalType": "uint256",
              "name": "tokenId",
              "type": "uint256"
            },
            {
              "internalType": "address",
              "name": "fromRenter",
              "type": "address"
            },
            {
              "internalType": "address",
              "name": "sharer",
              "type": "address"
            },
            {
              "internalType": "address",
              "name": "sharedPer",
              "type": "address"
            },
            {
              "internalType": "uint256",
              "name": "priceOfBB",
              "type": "uint256"
            },
            {
              "internalType": "uint256",
              "name": "price",
              "type": "uint256"
            },
            {
              "internalType": "uint256",
              "name": "amount",
              "type": "uint256"
            },
            {
              "internalType": "uint256",
              "name": "startTime",
              "type": "uint256"
            },
            {
              "internalType": "uint256",
              "name": "endTime",
              "type": "uint256"
            }
          ],
          "internalType": "struct BookSharingStorage.BookSharing[]",
          "name": "",
          "type": "tuple[]"
        }
      ],
      "stateMutability": "view",
      "type": "function",
      "constant": true
    },
    {
      "inputs": [],
      "name": "getAllOwnedBooksOnSharing",
      "outputs": [
        {
          "components": [
            {
              "internalType": "uint256",
              "name": "tokenId",
              "type": "uint256"
            },
            {
              "internalType": "address",
              "name": "fromRenter",
              "type": "address"
            },
            {
              "internalType": "address",
              "name": "sharer",
              "type": "address"
            },
            {
              "internalType": "address",
              "name": "sharedPer",
              "type": "address"
            },
            {
              "internalType": "uint256",
              "name": "priceOfBB",
              "type": "uint256"
            },
            {
              "internalType": "uint256",
              "name": "price",
              "type": "uint256"
            },
            {
              "internalType": "uint256",
              "name": "amount",
              "type": "uint256"
            },
            {
              "internalType": "uint256",
              "name": "startTime",
              "type": "uint256"
            },
            {
              "internalType": "uint256",
              "name": "endTime",
              "type": "uint256"
            }
          ],
          "internalType": "struct BookSharingStorage.BookSharing[]",
          "name": "",
          "type": "tuple[]"
        }
      ],
      "stateMutability": "view",
      "type": "function",
      "constant": true
    },
    {
      "inputs": [],
      "name": "getAllSharedBook",
      "outputs": [
        {
          "components": [
            {
              "internalType": "uint256",
              "name": "tokenId",
              "type": "uint256"
            },
            {
              "internalType": "address",
              "name": "fromRenter",
              "type": "address"
            },
            {
              "internalType": "address",
              "name": "sharer",
              "type": "address"
            },
            {
              "internalType": "address",
              "name": "sharedPer",
              "type": "address"
            },
            {
              "internalType": "uint256",
              "name": "priceOfBB",
              "type": "uint256"
            },
            {
              "internalType": "uint256",
              "name": "price",
              "type": "uint256"
            },
            {
              "internalType": "uint256",
              "name": "amount",
              "type": "uint256"
            },
            {
              "internalType": "uint256",
              "name": "startTime",
              "type": "uint256"
            },
            {
              "internalType": "uint256",
              "name": "endTime",
              "type": "uint256"
            }
          ],
          "internalType": "struct BookSharingStorage.BookSharing[]",
          "name": "",
          "type": "tuple[]"
        }
      ],
      "stateMutability": "view",
      "type": "function",
      "constant": true
    },
    {
      "inputs": [],
      "name": "getAllOwnedSharedBook",
      "outputs": [
        {
          "components": [
            {
              "internalType": "uint256",
              "name": "tokenId",
              "type": "uint256"
            },
            {
              "internalType": "address",
              "name": "fromRenter",
              "type": "address"
            },
            {
              "internalType": "address",
              "name": "sharer",
              "type": "address"
            },
            {
              "internalType": "address",
              "name": "sharedPer",
              "type": "address"
            },
            {
              "internalType": "uint256",
              "name": "priceOfBB",
              "type": "uint256"
            },
            {
              "internalType": "uint256",
              "name": "price",
              "type": "uint256"
            },
            {
              "internalType": "uint256",
              "name": "amount",
              "type": "uint256"
            },
            {
              "internalType": "uint256",
              "name": "startTime",
              "type": "uint256"
            },
            {
              "internalType": "uint256",
              "name": "endTime",
              "type": "uint256"
            }
          ],
          "internalType": "struct BookSharingStorage.BookSharing[]",
          "name": "",
          "type": "tuple[]"
        }
      ],
      "stateMutability": "view",
      "type": "function",
      "constant": true
    },
    {
      "inputs": [
        {
          "internalType": "uint256",
          "name": "tokenId",
          "type": "uint256"
        },
        {
          "internalType": "address",
          "name": "owner",
          "type": "address"
        }
      ],
      "name": "isSharedBookReadable",
      "outputs": [
        {
          "internalType": "bool",
          "name": "",
          "type": "bool"
        }
      ],
      "stateMutability": "view",
      "type": "function",
      "constant": true
    },
    {
      "inputs": [],
      "name": "getTotalBooksOnSharing",
      "outputs": [
        {
          "internalType": "uint256",
          "name": "",
          "type": "uint256"
        }
      ],
      "stateMutability": "view",
      "type": "function",
      "constant": true
    },
    {
      "inputs": [
        {
          "internalType": "uint256",
          "name": "idBookOnSharing",
          "type": "uint256"
        },
        {
          "internalType": "address",
          "name": "sharer",
          "type": "address"
        },
        {
          "internalType": "uint256",
          "name": "tokenId",
          "type": "uint256"
        },
        {
          "internalType": "uint256",
          "name": "newPrice",
          "type": "uint256"
        },
        {
          "internalType": "uint256",
          "name": "newAmount",
          "type": "uint256"
        }
      ],
      "name": "updateBooksOnSharing",
      "outputs": [],
      "stateMutability": "nonpayable",
      "type": "function"
    },
    {
      "inputs": [
        {
          "internalType": "uint256",
          "name": "tokenId",
          "type": "uint256"
        },
        {
          "internalType": "address",
          "name": "fromRenter",
          "type": "address"
        },
        {
          "internalType": "address",
          "name": "sharer",
          "type": "address"
        },
        {
          "internalType": "uint256",
          "name": "startTime",
          "type": "uint256"
        },
        {
          "internalType": "uint256",
          "name": "endTime",
          "type": "uint256"
        }
      ],
      "name": "removeBooksOnSharing",
      "outputs": [],
      "stateMutability": "nonpayable",
      "type": "function"
    },
    {
      "inputs": [
        {
          "internalType": "uint256",
          "name": "tokenId",
          "type": "uint256"
        },
        {
          "internalType": "address",
          "name": "owner",
          "type": "address"
        },
        {
          "internalType": "address",
          "name": "sharer",
          "type": "address"
        },
        {
          "internalType": "uint256",
          "name": "startTime",
          "type": "uint256"
        },
        {
          "internalType": "uint256",
          "name": "endTime",
          "type": "uint256"
        }
      ],
      "name": "removeSharedBooks",
      "outputs": [],
      "stateMutability": "nonpayable",
      "type": "function"
    },
    {
      "inputs": [
        {
          "internalType": "uint256",
          "name": "idBooksOnSharing",
          "type": "uint256"
        },
        {
          "internalType": "address",
          "name": "sender",
          "type": "address"
        }
      ],
      "name": "takeBooksOnSharing",
      "outputs": [
        {
          "internalType": "uint256",
          "name": "",
          "type": "uint256"
        }
      ],
      "stateMutability": "payable",
      "type": "function",
      "payable": true
    },
    {
      "inputs": [
        {
          "internalType": "uint256",
          "name": "tokenId",
          "type": "uint256"
        },
        {
          "internalType": "address",
          "name": "owner",
          "type": "address"
        }
      ],
      "name": "getAmountOfAllBooksOnSharing",
      "outputs": [
        {
          "internalType": "uint256",
          "name": "",
          "type": "uint256"
        }
      ],
      "stateMutability": "view",
      "type": "function",
      "constant": true
    },
    {
      "inputs": [
        {
          "internalType": "uint256",
          "name": "tokenId",
          "type": "uint256"
        },
        {
          "internalType": "address",
          "name": "owner",
          "type": "address"
        }
      ],
      "name": "getAmountOfAllSharedBooks",
      "outputs": [
        {
          "internalType": "uint256",
          "name": "",
          "type": "uint256"
        }
      ],
      "stateMutability": "view",
      "type": "function",
      "constant": true
    },
    {
      "inputs": [
        {
          "internalType": "uint256",
          "name": "idSharedBook",
          "type": "uint256"
        }
      ],
      "name": "excRecallSharedBooks",
      "outputs": [
        {
          "internalType": "bool",
          "name": "",
          "type": "bool"
        }
      ],
      "stateMutability": "nonpayable",
      "type": "function"
    },
    {
      "inputs": [
        {
          "internalType": "address",
          "name": "renter",
          "type": "address"
        }
      ],
      "name": "excRecallAllSharedBooks",
      "outputs": [
        {
          "internalType": "uint256",
          "name": "",
          "type": "uint256"
        }
      ],
      "stateMutability": "nonpayable",
      "type": "function"
    },
    {
      "inputs": [
        {
          "internalType": "uint256",
          "name": "idBooksOnSharing",
          "type": "uint256"
        }
      ],
      "name": "excRecallBooksOnSharing",
      "outputs": [
        {
          "internalType": "bool",
          "name": "",
          "type": "bool"
        }
      ],
      "stateMutability": "nonpayable",
      "type": "function"
    },
    {
      "inputs": [
        {
          "internalType": "address",
          "name": "renter",
          "type": "address"
        }
      ],
      "name": "excRecallAllBooksOnSharing",
      "outputs": [
        {
          "internalType": "uint256",
          "name": "",
          "type": "uint256"
        }
      ],
      "stateMutability": "nonpayable",
      "type": "function"
    }
  ],
  "bytecode": "0x60806040523480156200001157600080fd5b50604051620030083803806200300883398101604081905262000034916200005a565b600080546001600160a01b0319166001600160a01b03929092169190911790556200008c565b6000602082840312156200006d57600080fd5b81516001600160a01b03811681146200008557600080fd5b9392505050565b612f6c806200009c6000396000f3fe6080604052600436106101365760003560e01c80638ad24dbb116100b15780638ad24dbb146102b75780638d43257b146102f757806392cbd5871461030c5780639a8f08721461032c5780639c48c1b31461033f578063a9e9d4a41461035f578063b913d4ba1461037f578063c0a641711461039f578063d02d29c9146102f7578063dda749b5146103bf578063e0695c6b146103df578063e5efe2a5146103f4578063fdda71ea1461040957600080fd5b8063074f93a21461013b578063339256541461017057806338aea1f21461019e5780633dc5ae58146101cb5780634caa2605146101ed57806351200158146102025780635170e882146102245780635b6434d7146102375780635d0e85f2146102575780635f058af81461027757806368300a1f146102375780637d2b236914610297575b600080fd5b34801561014757600080fd5b5061015b610156366004612954565b61041e565b60405190151581526020015b60405180910390f35b34801561017c57600080fd5b5061019061018b366004612989565b610593565b604051908152602001610167565b3480156101aa57600080fd5b506101be6101b9366004612954565b6105be565b6040516101679190612a1f565b3480156101d757600080fd5b506101eb6101e6366004612a2e565b61064d565b005b3480156101f957600080fd5b5061019061066f565b34801561020e57600080fd5b5061021761067f565b6040516101679190612a7c565b610190610232366004612989565b6107be565b34801561024357600080fd5b50610190610252366004612a2e565b610a3d565b34801561026357600080fd5b5061015b610272366004612989565b610a8f565b34801561028357600080fd5b50610190610292366004612a2e565b610b90565b3480156102a357600080fd5b506101906102b2366004612a2e565b610bef565b3480156102c357600080fd5b506101906102d2366004612989565b6001600160a01b03166000908152600560209081526040808320938352929052205490565b34801561030357600080fd5b50610190610c3f565b34801561031857600080fd5b50610190610327366004612acb565b610c4a565b6101eb61033a366004612aed565b610d3b565b34801561034b57600080fd5b506101eb61035a366004612b57565b610d89565b34801561036b57600080fd5b5061015b61037a366004612954565b610de5565b34801561038b57600080fd5b506101eb61039a366004612a2e565b610f46565b3480156103ab57600080fd5b506101be6103ba366004612954565b610f60565b3480156103cb57600080fd5b506101906103da366004612acb565b611068565b3480156103eb57600080fd5b50610217611144565b34801561040057600080fd5b50610217611295565b34801561041557600080fd5b506102176113cc565b6000808260405160200161043491815260200190565b60408051601f19818403018152600086815260046020818152848320610120870186528054875260018101546001600160a01b03908116888401526002820154811688880152600382015416606080890191909152928101546080880152600581015460a0880152600681015460c0880152600781015460e088015260080154610100870152845191820190945260348082529295509092909190612ed29083013960008054602085015161010086015160405163f3e7a3b960e01b81529495506001600160a01b039092169363f3e7a3b99361051993909187918a91600401612be3565b602060405180830381865afa158015610536573d6000803e3d6000fd5b505050506040513d601f19601f8201168201806040525081019061055a9190612c2f565b156105885761057d85836020015184604001518560e00151866101000151610f46565b506001949350505050565b506000949350505050565b6001600160a01b0381166000908152600a602090815260408083208584529091529020545b92915050565b6105c66128ed565b506000908152600960209081526040918290208251610120810184528154815260018201546001600160a01b039081169382019390935260028201548316938101939093526003810154909116606083015260048101546080830152600581015460a0830152600681015460c0830152600781015460e08301526008015461010082015290565b600061065c8685878686610a3d565b905061066781611529565b505050505050565b600061067a60085490565b905090565b6060600061068c60035490565b9050606081156105b857816001600160401b038111156106ae576106ae612c51565b6040519080825280602002602001820160405280156106e757816020015b6106d46128ed565b8152602001906001900390816106cc5790505b50905060015b8281116107b757600081815260046020818152604092839020835161012081018552815481526001808301546001600160a01b0390811694830194909452600283015484169582019590955260038201549092166060830152918201546080820152600582015460a0820152600682015460c0820152600782015460e082015260089091015461010082015290819084906107889085612c7d565b8151811061079857610798612c90565b60200260200101819052505080806107af90612ca6565b9150506106ed565b5092915050565b6000806107ca84610f60565b80519091506000036107fa57805160405163d8bbd62160e01b815260048101919091526024015b60405180910390fd5b60408101516001600160a01b0316158061081b57506001600160a01b038316155b1561083c576000604051633992dcbd60e21b81526004016107f19190612cbf565b826001600160a01b031681604001516001600160a01b0316036108745782604051633992dcbd60e21b81526004016107f19190612cbf565b8060c0015160000361089c5760405163099f49a360e11b8152600060048201526024016107f1565b8051604082015160e08301516101008401516000916108c19185918991869190610b90565b9050806000036108f7576108f2838560200151848988608001518960a0015160018b60e001518c6101000151611a84565b6109a3565b600081815260096020908152604091829020825161012081018452815481526001808301546001600160a01b039081169483019490945260028301548416948201949094526003820154909216606083015260048101546080830152600581015460a080840191909152600682015460c08401819052600783015460e085015260089092015461010084015287015191926109a19285928b9289929161099c91612cd3565b611d54565b505b8360c00151600103610a0e5760006109cb848660200151858860e00151896101000151610a3d565b60008181526001602052604090205490915088146109ff5760405163d8bbd62160e01b8152600481018990526024016107f1565b610a0881611ef8565b50610a2f565b610a2f8783858760a0015160018960c00151610a2a9190612c7d565b612424565b50505060a001519392505050565b6040805160208082018890526001600160a01b0387811683850152861660608301526080820185905260a08083018590528351808403909101815260c090920190925280519101205b95945050505050565b6001600160a01b0381166000908152600760205260408120548015610b865760015b6008548111610b84576000818152600960209081526040918290208251610120810184528154815260018201546001600160a01b03908116938201939093526002820154831693810193909352600381015482166060840181905260048201546080850152600582015460a0850152600682015460c0850152600782015460e0850152600890910154610100840152908616148015610b505750805186145b8015610b60575042816101000151115b15610b7157600193505050506105b8565b5080610b7c81612ca6565b915050610ab1565b505b5060009392505050565b600080610ba08786888787610a3d565b6000818152600660205260409020549091508015610be1576000818152600960205260409020600301546001600160a01b031615610be1579150610a869050565b506000979650505050505050565b600080610bff8787878787610a3d565b6000818152600160205260409020549091508015610be1576000818152600460205260409020600301546001600160a01b0316610be1579150610a869050565b600061067a60035490565b60008080610c5760035490565b11156105b85760015b60035481116107b7576000818152600460208181526040928390208351610120810185528154815260018201546001600160a01b039081169382018490526002830154811695820195909552600382015485166060820152928101546080840152600581015460a0840152600681015460c0840152600781015460e08401526008015461010083015290918616148015610d05575060608101516001600160a01b0316155b8015610d155750610d158261041e565b15610d285782610d2481612ca6565b9350505b5080610d3381612ca6565b915050610c60565b6000610d4a8989898686610bef565b90508015610d6e5760405163d8bbd62160e01b8152600481018290526024016107f1565b610d7e89898989898989896125c8565b505050505050505050565b84600003610dad5760405163d8bbd62160e01b8152600481018690526024016107f1565b80600003610dd15760405163099f49a360e11b8152600481018290526024016107f1565b610dde8585858585612424565b5050505050565b60008082604051602001610dfb91815260200190565b60408051601f19818403018152600086815260096020908152838220610120860185528054865260018101546001600160a01b0390811687840152600282015481168787015260038201541660608088019190915260048201546080880152600582015460a0880152600682015460c0880152600782015460e08801526008909101546101008701528451908101909452603180855292955090929190612f069083013960008054602085015161010086015160405163f3e7a3b960e01b81529495506001600160a01b039092169363f3e7a3b993610ee293909187918a91600401612be3565b602060405180830381865afa158015610eff573d6000803e3d6000fd5b505050506040513d601f19601f82011682018060405250810190610f239190612c2f565b156105885761057d85836060015184604001518560e0015186610100015161064d565b6000610f558686868686610a3d565b905061066781611ef8565b610f686128ed565b81600003610f8c5760405163d8bbd62160e01b8152600481018390526024016107f1565b6000828152600460205260409020600301546001600160a01b031615610fe257600082815260046020819052604091829020600301549151633992dcbd60e21b81526107f1926001600160a01b03169101612cbf565b506000908152600460208181526040928390208351610120810185528154815260018201546001600160a01b0390811693820193909352600282015483169481019490945260038101549091166060840152908101546080830152600581015460a0830152600681015460c0830152600781015460e08301526008015461010082015290565b6000808061107560085490565b11156105b85760015b60085481116107b7576000818152600960209081526040918290208251610120810184528154815260018201546001600160a01b03908116938201849052600283015481169482019490945260038201548416606082015260048201546080820152600582015460a0820152600682015460c0820152600782015460e082015260089091015461010082015291861614801561111e575061111e82610de5565b15611131578261112d81612ca6565b9350505b508061113c81612ca6565b91505061107e565b336000908152600760205260409020546060908181156105b8576000826001600160401b0381111561117857611178612c51565b6040519080825280602002602001820160405280156111b157816020015b61119e6128ed565b8152602001906001900390816111965790505b50915060015b600854811161128d576000818152600960209081526040918290208251610120810184528154815260018201546001600160a01b0390811693820193909352600282015483169381019390935260038101549091166060830181905260048201546080840152600582015460a0840152600682015460c0840152600782015460e084015260089091015461010083015233900361127a578084848151811061126157611261612c90565b6020908102919091010152611277600184612cd3565b92505b508061128581612ca6565b9150506111b7565b505092915050565b606060006112a260085490565b9050606081156105b857816001600160401b038111156112c4576112c4612c51565b6040519080825280602002602001820160405280156112fd57816020015b6112ea6128ed565b8152602001906001900390816112e25790505b50905060015b8281116107b757600081815260096020908152604091829020825161012081018452815481526001808301546001600160a01b039081169483019490945260028301548416948201949094526003820154909216606083015260048101546080830152600581015460a0830152600681015460c0830152600781015460e083015260080154610100820152908190849061139d9085612c7d565b815181106113ad576113ad612c90565b60200260200101819052505080806113c490612ca6565b915050611303565b336000908152600260205260409020546060908181156105b8576000826001600160401b0381111561140057611400612c51565b60405190808252806020026020018201604052801561143957816020015b6114266128ed565b81526020019060019003908161141e5790505b50915060015b600354811161128d576000818152600460208181526040928390208351610120810185528154815260018201546001600160a01b03908116938201939093526002820154831694810185905260038201549092166060830152918201546080820152600582015460a0820152600682015460c0820152600782015460e082015260089091015461010082015290331480156114e5575060608101516001600160a01b0316155b1561151657808484815181106114fd576114fd612c90565b6020908102919091010152611513600184612cd3565b92505b508061152181612ca6565b91505061143f565b6000818152600660205260408120549081900361155c5760405163d8bbd62160e01b8152600481018290526024016107f1565b60008181526009602090815260408083208151610120810183528154815260018201546001600160a01b039081169482019490945260028201548416928101929092526003810154909216606082015260048201546080820152600582015460a0820152600682015460c0820152600782015460e082015260089182015461010082015291906115ea905490565b905060008060009054906101000a90046001600160a01b03166001600160a01b0316638a1ce0b6846020015160008760405160200161162b91815260200190565b60408051601f19818403018152908290526101008901516001600160e01b031960e087901b168352611661949392600401612d30565b602060405180830381865afa15801561167e573d6000803e3d6000fd5b505050506040513d601f19601f820116820180604052508101906116a29190612d7a565b60005460405163c4d252f560e01b8152600481018390529192506001600160a01b03169063c4d252f590602401600060405180830381600087803b1580156116e957600080fd5b505af11580156116fd573d6000803e3d6000fd5b5050505083821461199c5760008281526009602090815260408083208151610120810183528154815260018201546001600160a01b03908116828601819052600284015482168386015260038401548216606084015260048401546080840152600584015460a0840152600684015460c0840152600784015460e0840152600890930154610100830152855484519586018990529195911693638a1ce0b6930160408051601f19818403018152908290526101008701516001600160e01b031960e087901b1683526117d3949392600401612d30565b602060405180830381865afa1580156117f0573d6000803e3d6000fd5b505050506040513d601f19601f820116820180604052508101906118149190612d7a565b915060008054906101000a90046001600160a01b03166001600160a01b031663a14e440683836020015160008960405160200161185391815260200190565b60408051601f19818403018152908290526101008801516001600160e01b031960e088901b16835261188a95949392600401612d93565b6020604051808303816000875af11580156118a9573d6000803e3d6000fd5b505050506040513d601f19601f820116820180604052508101906118cd9190612c2f565b5060006118f28260000151836040015184606001518560e00151866101000151610a3d565b60009081526006602081815260408084208a9055898452600982529283902085518155908501516001820180546001600160a01b03199081166001600160a01b039384161790915593860151600283018054861691831691909117905560608601516003830180549095169116179092556080840151600483015560a0840151600583015560c08401519082015560e0830151600782015561010090920151600890920191909155505b600085815260066020818152604080842084905585845260098252808420848155600180820180546001600160a01b031990811690915560028301805482169055600383018054909116905560048201869055600582018690559381018590556007808201869055600890910185905560608801516001600160a01b031685529091528220805491929091611a32908490612c7d565b909155505060c083015160608401516001600160a01b03166000908152600a602090815260408083208751845290915281208054909190611a74908490612c7d565b90915550610dde90506008612898565b6000611a938a89898686610a3d565b60008181526006602052604090205490915015611ad7576000818152600660205260409081902054905163d8bbd62160e01b815260048101919091526024016107f1565b611ae5600880546001019055565b60085460066000838152602001908152602001600020819055506040518061012001604052808b81526020018a6001600160a01b03168152602001896001600160a01b03168152602001886001600160a01b031681526020018781526020018681526020018581526020018481526020018381525060096000611b6760085490565b81526020808201929092526040908101600090812084518155848401516001820180546001600160a01b03199081166001600160a01b039384161790915586850151600284018054831691841691909117905560608701516003840180549092169083161790556080860151600483015560a0860151600583015560c0860151600683015560e0860151600780840191909155610100909601516008909201919091558b168152929091528120805491611c2083612ca6565b90915550506001600160a01b0387166000908152600a602090815260408083208d845290915281208054869290611c58908490612cd3565b9091555050600080546001600160a01b031690634b9915a5908b90611c7c60085490565b604051602001611c8e91815260200190565b604051602081830303815290604052866040518563ffffffff1660e01b8152600401611cbd9493929190612d30565b6020604051808303816000875af1158015611cdc573d6000803e3d6000fd5b505050506040513d601f19601f82011682018060405250810190611d009190612d7a565b507f7b7b2ff66399a0dc2308ee5571159e63c4ad55906846552d117215bfe86e3a008a8a8a8a8a8a8a8a8a604051611d4099989796959493929190612de4565b60405180910390a150505050505050505050565b6000858152600960205260409020548314611d855760405163d8bbd62160e01b8152600481018490526024016107f1565b6000858152600960205260409020600301546001600160a01b03858116911614611dc45783604051633992dcbd60e21b81526004016107f19190612cbf565b6000858152600960205260409020600501548214611df15760008581526009602052604090206005018290555b6000858152600960205260409020600601548114610dde57600085815260096020526040812060060154821015611e8257600086815260096020526040902060060154611e3f908390612c7d565b6001600160a01b0386166000908152600a60209081526040808320888452909152812080549293508392909190611e77908490612c7d565b90915550611edc9050565b600086815260096020526040902060060154611e9e9083612c7d565b6001600160a01b0386166000908152600a60209081526040808320888452909152812080549293508392909190611ed6908490612cd3565b90915550505b5060008581526009602052604090206006018190555050505050565b60008181526001602052604081205490819003611f2b5760405163d8bbd62160e01b8152600481018290526024016107f1565b60008181526004602081815260408084208151610120810183528154815260018201546001600160a01b03908116828601819052600284015482168386015260038085015483166060850152968401546080840152600584015460a0840152600684015460c0840152600784015460e0840152600890930154610100830152945486548451958601899052919690959094911692638a1ce0b6929185910160408051601f19818403018152908290526101008901516001600160e01b031960e087901b168352611fff949392600401612e7f565b602060405180830381865afa15801561201c573d6000803e3d6000fd5b505050506040513d601f19601f820116820180604052508101906120409190612d7a565b60005460405163c4d252f560e01b8152600481018390529192506001600160a01b03169063c4d252f590602401600060405180830381600087803b15801561208757600080fd5b505af115801561209b573d6000803e3d6000fd5b505050508382146123405760008281526004602081815260408084208151610120810183528154815260018201546001600160a01b039081168286018190526002840154821683860152600384015482166060840152958301546080830152600583015460a0830152600683015460c0830152600783015460e0830152600890920154610100820152855483519485018990529095911693638a1ce0b69390920160408051601f19818403018152908290526101008701516001600160e01b031960e087901b168352612172949392600401612e7f565b602060405180830381865afa15801561218f573d6000803e3d6000fd5b505050506040513d601f19601f820116820180604052508101906121b39190612d7a565b915060008054906101000a90046001600160a01b03166001600160a01b031663a14e44068383602001516000896040516020016121f291815260200190565b60408051601f19818403018152908290526101008801516001600160e01b031960e088901b16835261222995949392600401612ea5565b6020604051808303816000875af1158015612248573d6000803e3d6000fd5b505050506040513d601f19601f8201168201806040525081019061226c9190612c2f565b5060006122918260000151836020015184604001518560e00151866101000151610a3d565b60009081526001602081815260408084208a9055898452600480835293819020865181559186015192820180546001600160a01b039485166001600160a01b0319918216179091559086015160028301805491851691831691909117905560608601516003830180549190941691161790915560808401519181019190915560a0830151600582015560c0830151600682015560e0830151600782015561010090920151600890920191909155505b6000858152600160208181526040808420849055858452600480835281852085815580850180546001600160a01b03199081169091556002808301805483169055600383018054909216909155918101869055600581018690556006810186905560078101869055600801859055878201516001600160a01b0316855290915282208054919290916123d3908490612c7d565b909155505060c08301516040808501516001600160a01b03166000908152600560209081528282208751835290529081208054909190612414908490612c7d565b90915550610dde90506003612898565b60008581526004602052604090205483146124555760405163d8bbd62160e01b8152600481018490526024016107f1565b6000858152600460205260409020600201546001600160a01b038581169116146124945783604051633992dcbd60e21b81526004016107f19190612cbf565b60008581526004602052604090206005015482146124c15760008581526004602052604090206005018290555b6000858152600460205260409020600601548114610dde576000858152600460205260408120600601548210156125525760008681526004602052604090206006015461250f908390612c7d565b6001600160a01b0386166000908152600560209081526040808320888452909152812080549293508392909190612547908490612c7d565b909155506125ac9050565b60008681526004602052604090206006015461256e9083612c7d565b6001600160a01b03861660009081526005602090815260408083208884529091528120805492935083929091906125a6908490612cd3565b90915550505b5060008581526004602052604090206006018190555050505050565b60006125d78989898686610a3d565b6000818152600660205260409020549091501561261b576000818152600660205260409081902054905163d8bbd62160e01b815260048101919091526024016107f1565b612629600380546001019055565b60035460016000838152602001908152602001600020819055506040518061012001604052808a8152602001896001600160a01b03168152602001886001600160a01b0316815260200160006001600160a01b0316815260200187815260200186815260200185815260200184815260200183815250600460006126ac60035490565b81526020808201929092526040908101600090812084518155848401516001820180546001600160a01b03199081166001600160a01b039384161790915586850151600280850180548416928516929092179091556060880151600385018054909316908416179091556080870151600484015560a0870151600584015560c0870151600684015560e08701516007840155610100909601516008909201919091558b16815292909152812080549161276483612ca6565b90915550506001600160a01b03871660009081526005602090815260408083208c84529091528120805486929061279c908490612cd3565b9091555050600080546001600160a01b031690634b9915a5908a906127c060035490565b6040516020016127d291815260200190565b604051602081830303815290604052866040518563ffffffff1660e01b81526004016128019493929190612e7f565b6020604051808303816000875af1158015612820573d6000803e3d6000fd5b505050506040513d601f19601f820116820180604052508101906128449190612d7a565b507f7b7b2ff66399a0dc2308ee5571159e63c4ad55906846552d117215bfe86e3a0089898960008a8a8a8a8a60405161288599989796959493929190612de4565b60405180910390a1505050505050505050565b8054806128e55760405162461bcd60e51b815260206004820152601b60248201527a436f756e7465723a2064656372656d656e74206f766572666c6f7760281b60448201526064016107f1565b600019019055565b6040518061012001604052806000815260200160006001600160a01b0316815260200160006001600160a01b0316815260200160006001600160a01b0316815260200160008152602001600081526020016000815260200160008152602001600081525090565b60006020828403121561296657600080fd5b5035919050565b80356001600160a01b038116811461298457600080fd5b919050565b6000806040838503121561299c57600080fd5b823591506129ac6020840161296d565b90509250929050565b80518252602081015160018060a01b03808216602085015280604084015116604085015280606084015116606085015250506080810151608083015260a081015160a083015260c081015160c083015260e081015160e08301526101008082015181840152505050565b61012081016105b882846129b5565b600080600080600060a08688031215612a4657600080fd5b85359450612a566020870161296d565b9350612a646040870161296d565b94979396509394606081013594506080013592915050565b6020808252825182820181905260009190848201906040850190845b81811015612abf57612aab8385516129b5565b928401926101209290920191600101612a98565b50909695505050505050565b600060208284031215612add57600080fd5b612ae68261296d565b9392505050565b600080600080600080600080610100898b031215612b0a57600080fd5b88359750612b1a60208a0161296d565b9650612b2860408a0161296d565b979a96995096976060810135975060808101359660a0820135965060c0820135955060e0909101359350915050565b600080600080600060a08688031215612b6f57600080fd5b85359450612b7f6020870161296d565b94979496505050506040830135926060810135926080909101359150565b6000815180845260005b81811015612bc357602081850181015186830182015201612ba7565b506000602082860101526020601f19601f83011685010191505092915050565b60018060a01b038616815284602082015260a060408201526000612c0a60a0830186612b9d565b8281036060840152612c1c8186612b9d565b9150508260808301529695505050505050565b600060208284031215612c4157600080fd5b81518015158114612ae657600080fd5b634e487b7160e01b600052604160045260246000fd5b634e487b7160e01b600052601160045260246000fd5b818103818111156105b8576105b8612c67565b634e487b7160e01b600052603260045260246000fd5b600060018201612cb857612cb8612c67565b5060010190565b6001600160a01b0391909116815260200190565b808201808211156105b8576105b8612c67565b603181527f72656d6f7665536861726564426f6f6b732875696e742c616464726573732c616020820152706464726573732c75696e742c75696e742960781b604082015260600190565b60018060a01b038516815283602082015260a060408201526000612d5660a08301612ce6565b8281036060840152612d688186612b9d565b91505082608083015295945050505050565b600060208284031215612d8c57600080fd5b5051919050565b85815260018060a01b038516602082015283604082015260c060608201526000612dbf60c08301612ce6565b8281036080840152612dd18186612b9d565b9150508260a08301529695505050505050565b9889526001600160a01b0397881660208a01529587166040890152939095166060870152608086019190915260a085015260c084019290925260e08301919091526101008201526101200190565b603481527f72656d6f7665426f6f6b734f6e53686172696e672875696e742c616464726573602082015273732c616464726573732c75696e742c75696e742960601b604082015260600190565b60018060a01b038516815283602082015260a060408201526000612d5660a08301612e32565b85815260018060a01b038516602082015283604082015260c060608201526000612dbf60c08301612e3256fe72656d6f7665426f6f6b734f6e53686172696e672875696e742c616464726573732c616464726573732c75696e742c75696e742972656d6f7665536861726564426f6f6b732875696e742c616464726573732c616464726573732c75696e742c75696e7429a2646970667358221220fc244d7321f0558ec4b7ded44e666c19123b3a37a176ce35d9a378afcd96e47664736f6c63430008110033",
  "immutableReferences": {},
  "source": "// SPDX-License-Identifier: MIT\npragma solidity ^0.8.17;\nimport \"@openzeppelin/contracts/utils/Counters.sol\";\nimport \"../utils/Timelock.sol\";\nimport \"../utils/Error.sol\";\n\ncontract BookSharingStorage {\n    using Counters for Counters.Counter;\n    \n    // priceOfBB: Save the price of previously borrowed books.\n    // For the purpose of creating a new borrowed book when convert.\n    // Read func convertBookOnSharingToBorrowedBook to more understand\n    struct BookSharing {\n        uint256 tokenId;\n        address fromRenter;\n        address sharer;\n        address  sharedPer;\n        uint priceOfBB; \n        uint price; // price / books \n        uint amount;\n        uint startTime;\n        uint endTime;\n    }\n\n    event BookSharingCreated (\n        uint256 tokenId,\n        address fromRenter,\n        address sharer,\n        address  sharedPer,\n        uint priceOfBB,\n        uint price,\n        uint amount,\n        uint startTime,\n        uint endTime\n    );\n\n    TimeLock private _timelock;\n    // Variable for Shared Books\n\n    // (hash ID ->  ID Book on sharing)\n    mapping (bytes32 => uint) _allBooksOnSharing;\n    // For sharer\n    mapping(address => uint) private _totalOwnedBookOnSharing; \n    Counters.Counter private _booksOnSharing;\n    mapping(uint => BookSharing) private _idToBookOnSharing; // (ID -> Book on Sharing)\n    mapping(address => mapping(uint => uint)) private _amountOwnedBooksOnSharing;\n\n    // hash ID => ID shared book\n    mapping (bytes32 => uint) _allSharedBooks;\n    // For shared person\n    mapping(address => uint) private _totalOwnedSharedBook; \n    Counters.Counter private _sharedBooks;\n    mapping(uint => BookSharing) private _idToSharedBook; // (ID -> Shared book)\n    // Shared person => (tokenId => amount)\n    mapping(address => mapping(uint => uint)) private _amountOwnedSharedBooks;\n\n    \n    constructor(TimeLock timelock) {\n        _timelock = timelock;\n    }\n\n    function getTotalBookOnSharing() public view returns(uint) {\n        return _booksOnSharing.current();\n    }\n    function getHashIdForSharedBook(uint tokenId, \n                                    address sharer, \n                                    address sharedPer, \n                                    uint startTime, \n                                    uint endTime) public pure returns (bytes32) {\n        return keccak256(abi.encode(tokenId, sharer, sharedPer, startTime, endTime));                                  \n    }\n\n    function getHashIdForBookOnSharing(uint tokenId,\n                                       address fromRenter, \n                                       address sharer, \n                                       uint startTime, \n                                       uint endTime) public pure returns (bytes32) {\n        return keccak256(abi.encode(tokenId, fromRenter, sharer, startTime, endTime));                                  \n    }\n    function _createBookForSharing(uint tokenId, \n                                   address fromRenter,\n                                   address sharer, \n                                   uint priceOfBB, \n                                   uint price, \n                                   uint amount, \n                                   uint startTime, \n                                   uint endTime) private {\n        bytes32 hashId = getHashIdForBookOnSharing(tokenId,\n                                                   fromRenter,\n                                                   sharer,  \n                                                   startTime, \n                                                   endTime);\n        if (_allSharedBooks[hashId] != 0) {\n            revert Error.InvalidIdError(_allSharedBooks[hashId]);\n        }\n        _booksOnSharing.increment();\n        \n        _allBooksOnSharing[hashId] = _booksOnSharing.current();\n        _idToBookOnSharing[_booksOnSharing.current()] = BookSharing(tokenId,\n                                                                   fromRenter,\n                                                                   sharer,\n                                                                   address(0), \n                                                                   priceOfBB,\n                                                                   price, \n                                                                   amount,\n                                                                   startTime,\n                                                                   endTime);\n        _totalOwnedBookOnSharing[sharer]++;\n        _amountOwnedBooksOnSharing[sharer][tokenId] += amount;\n        _timelock.queue(fromRenter,\n                        0, \n                        \"removeBooksOnSharing(uint,address,address,uint,uint)\", \n                        abi.encodePacked(_booksOnSharing.current()), \n                        endTime);   \n        emit BookSharingCreated(tokenId,\n                                fromRenter,\n                                sharer,\n                                address(0), \n                                priceOfBB,\n                                price, \n                                amount,\n                                startTime,\n                                endTime);\n    }\n\n    function _createSharedBook(uint tokenId, \n                               address fromRenter,\n                               address sharer, \n                               address sharedPer, \n                               uint priceOfBB,\n                               uint256 price, \n                               uint amount,\n                               uint startTime,\n                               uint endTime) private {\n        bytes32 hashId = getHashIdForSharedBook(tokenId,\n                                                sharer, \n                                                sharedPer, \n                                                startTime, \n                                                endTime);\n        if (_allSharedBooks[hashId] != 0) {\n            revert Error.InvalidIdError(_allSharedBooks[hashId]);\n        }\n        _sharedBooks.increment();\n        _allSharedBooks[hashId] = _sharedBooks.current();\n        _idToSharedBook[_sharedBooks.current()] = BookSharing(tokenId,\n                                                             fromRenter,\n                                                             sharer,\n                                                             sharedPer, \n                                                             priceOfBB,\n                                                             price, \n                                                             amount,\n                                                             startTime,\n                                                             endTime);\n        _totalOwnedSharedBook[sharedPer]++;\n        _amountOwnedSharedBooks[sharedPer][tokenId] += amount;\n        _timelock.queue(fromRenter,\n                        0, \n                        \"removeSharedBooks(uint,address,address,uint,uint)\", \n                        abi.encodePacked(_sharedBooks.current()), \n                        endTime);  \n        emit BookSharingCreated(tokenId,\n                               fromRenter,\n                               sharer,\n                               sharedPer, \n                               priceOfBB,\n                               price, \n                               amount,\n                               startTime,\n                               endTime);\n    }\n\n    function getIdBookOnSharing(uint tokenId, \n                                address fromRenter,\n                                address sharer, \n                                uint startTime, \n                                uint endTime) public view returns(uint) {\n        bytes32 hashId = getHashIdForBookOnSharing(tokenId,\n                                                   fromRenter, \n                                                   sharer, \n                                                   startTime, \n                                                   endTime);\n        uint idBooksOnSharing = _allBooksOnSharing[hashId];\n        if (idBooksOnSharing != 0) {\n            if (_idToBookOnSharing[idBooksOnSharing].sharedPer == address(0)) {\n                return idBooksOnSharing;\n            }\n        }\n        return 0;\n    }\n\n    function getTotalSharedBooks() public view returns(uint) {\n        return _sharedBooks.current();\n    }\n\n    function getBooksOnSharing(uint idBooksOnSharing) public view returns(BookSharing memory) {\n        if (idBooksOnSharing == 0) {\n            revert Error.InvalidIdError(idBooksOnSharing);\n        } \n        if (_idToBookOnSharing[idBooksOnSharing].sharedPer != address(0)) {\n            revert Error.InvalidAddressError(_idToBookOnSharing[idBooksOnSharing].sharedPer);\n        }\n        return _idToBookOnSharing[idBooksOnSharing];\n    }\n\n    function getIdSharedBook(uint tokenId, \n                            address sharedPer, \n                            address sharer,\n                            uint startTime,\n                            uint endTime) public view returns(uint) {\n        bytes32 hashId = getHashIdForSharedBook(tokenId, \n                                                sharer, \n                                                sharedPer, \n                                                startTime, \n                                                endTime);\n        uint idSharedBook = _allSharedBooks[hashId];\n        if (idSharedBook != 0) {\n            if (_idToSharedBook[idSharedBook].sharedPer != address(0)) {\n                return idSharedBook;\n            }\n        }\n        return 0;\n    }\n\n    function getSharedBooks(uint idSharedBook) public view returns(BookSharing memory) {\n        return _idToSharedBook[idSharedBook];\n    }\n\n    function shareBooks(uint256 tokenId,\n                        address fromRenter, \n                        address sharer,\n                        uint priceOfBB,\n                        uint price,\n                        uint256 amount,\n                        uint256 startTime,\n                        uint256 endTime) public payable {\n\n        uint idBookOnSharing = getIdBookOnSharing(tokenId, fromRenter, sharer, startTime, endTime);\n        if (idBookOnSharing != 0) {\n            revert Error.InvalidIdError(idBookOnSharing);\n        }\n        _createBookForSharing(tokenId, fromRenter, sharer, priceOfBB, price, amount, startTime, endTime);\n\n    }\n\n    function getAllBooksOnSharing() public view returns (BookSharing[] memory) {\n        uint length = _booksOnSharing.current();\n        BookSharing[] memory books;\n        if (length > 0) {\n            books = new BookSharing[](length);\n\n            for (uint i = 1; i <= length; i++) {\n                BookSharing memory book = _idToBookOnSharing[i];\n                books[i - 1] = book;\n            }\n        }\n\n        return books;\n    }\n\n    function getAllOwnedBooksOnSharing() \n        public view returns (BookSharing[] memory) {\n        uint total = _totalOwnedBookOnSharing[msg.sender];\n        BookSharing[] memory books;\n\n        if (total > 0) {\n            uint currentIndex = 0;\n            books = new BookSharing[](total);\n\n            for (uint i = 1; i <= _booksOnSharing.current(); i++) {\n                BookSharing memory book = _idToBookOnSharing[i];\n                if (book.sharer == msg.sender && book.sharedPer == address(0)) {\n                    books[currentIndex] = book;\n                    currentIndex += 1;\n                }\n            }\n        }\n        return books;\n    }\n\n    function getAllSharedBook() public view returns (BookSharing[] memory) {\n        uint length = _sharedBooks.current();\n        BookSharing[] memory books;\n        if (length > 0) {\n            books = new BookSharing[](length);\n\n            for (uint i = 1; i <= length; i++) {\n                BookSharing memory book = _idToSharedBook[i];\n                books[i - 1] = book;\n            }\n        }\n\n        return books;\n    }\n\n    function getAllOwnedSharedBook() public view returns (BookSharing[] memory) {\n        uint total = _totalOwnedSharedBook[msg.sender];\n        BookSharing[] memory books;\n\n        if (total > 0) {\n            uint currentIndex = 0;\n            books = new BookSharing[](total);\n\n            for (uint i = 1; i <= _sharedBooks.current(); i++) {\n                BookSharing memory book = _idToSharedBook[i];\n                if (book.sharedPer == msg.sender) {\n                    books[currentIndex] = book;\n                    currentIndex += 1;\n                }\n            }\n        }\n        return books;\n    }\n\n    function isSharedBookReadable(uint tokenId, address owner) \n        public view returns (bool) {\n        uint total = _totalOwnedSharedBook[owner];\n\n        if (total > 0) {\n\n            for (uint i = 1; i <= _sharedBooks.current(); i++) {\n                BookSharing memory book = _idToSharedBook[i];\n                if (book.sharedPer == owner &&\n                    book.tokenId == tokenId &&\n                    book.endTime > block.timestamp) {\n                    return true;\n                }\n            }\n            \n        }\n        return false;\n    }\n\n    function _updateSharedBooksInternal(uint idSharedBook,\n                                        address sharedPer,\n                                        uint tokenId,\n                                        uint newPrice,\n                                        uint256 newAmount\n                                        ) private {\n        if (_idToSharedBook[idSharedBook].tokenId != tokenId) {\n            revert Error.InvalidIdError(tokenId);\n        }\n        if (_idToSharedBook[idSharedBook].sharedPer != sharedPer) {\n            revert Error.InvalidAddressError(sharedPer);\n        }\n        if(_idToSharedBook[idSharedBook].price != newPrice) {\n\n            _idToSharedBook[idSharedBook].price = newPrice;\n\n        } \n        \n        if( _idToSharedBook[idSharedBook].amount != newAmount) {\n            uint balance;\n            if (_idToSharedBook[idSharedBook].amount > newAmount) {\n                balance = _idToSharedBook[idSharedBook].amount - newAmount;\n                _amountOwnedSharedBooks[sharedPer][tokenId] -= balance;\n            } else {\n                balance = newAmount - _idToSharedBook[idSharedBook].amount;\n                _amountOwnedSharedBooks[sharedPer][tokenId] += balance;\n            }\n\n            _idToSharedBook[idSharedBook].amount = newAmount;\n\n        }\n\n    }\n\n    function getTotalBooksOnSharing() public view returns(uint) {\n        return _booksOnSharing.current();\n    }\n\n    function _updateBooksOnSharingInternal(uint idBookOnSharing,\n                                           address sharer,\n                                           uint tokenId,\n                                           uint newPrice,\n                                           uint256 newAmount\n                                        ) private {\n        if (_idToBookOnSharing[idBookOnSharing].tokenId != tokenId) {\n            revert Error.InvalidIdError(tokenId);\n        }\n        if (_idToBookOnSharing[idBookOnSharing].sharer != sharer) {\n            revert Error.InvalidAddressError(sharer);\n        }\n        if(_idToBookOnSharing[idBookOnSharing].price != newPrice ) {\n\n            _idToBookOnSharing[idBookOnSharing].price = newPrice;\n\n        }\n\n        if (_idToBookOnSharing[idBookOnSharing].amount != newAmount) {\n            uint balance;\n            if (_idToBookOnSharing[idBookOnSharing].amount > newAmount) {\n                balance = _idToBookOnSharing[idBookOnSharing].amount - newAmount;\n                _amountOwnedBooksOnSharing[sharer][tokenId] -= balance;\n            } else {\n                balance = newAmount - _idToBookOnSharing[idBookOnSharing].amount;\n                _amountOwnedBooksOnSharing[sharer][tokenId] += balance;\n            }\n            _idToBookOnSharing[idBookOnSharing].amount = newAmount;\n\n        }\n\n    }\n\n    function updateBooksOnSharing(uint idBookOnSharing,\n                                  address sharer,\n                                  uint tokenId,\n                                  uint newPrice, \n                                  uint newAmount) public {\n        if (idBookOnSharing == 0) {\n            revert Error.InvalidIdError(idBookOnSharing);\n        }\n        if (newAmount == 0) {\n            revert Error.InvalidAmountError(newAmount);\n        }\n        _updateBooksOnSharingInternal(idBookOnSharing, sharer, tokenId, newPrice, newAmount);\n    }\n\n    function _removeBooksOnSharingInternal(bytes32 hashId) private {\n        uint idBook = _allBooksOnSharing[hashId];\n        if (idBook == 0) {\n            revert Error.InvalidIdError(idBook);\n        }\n        BookSharing memory bookOnSharing = _idToBookOnSharing[idBook];\n\n        uint lastIdBook = _booksOnSharing.current();\n        bytes32 txId = _timelock.getTxId(bookOnSharing.fromRenter,\n                                         0, \n                                         \"removeBooksOnSharing(uint,address,address,uint,uint)\", \n                                         abi.encodePacked(idBook), \n                                         bookOnSharing.endTime);\n        _timelock.cancel(txId);\n        if (lastIdBook != idBook) {\n            BookSharing memory lastBook = _idToBookOnSharing[lastIdBook];\n            txId = _timelock.getTxId(lastBook.fromRenter,\n                                     0, \n                                     \"removeBooksOnSharing(uint,address,address,uint,uint)\", \n                                     abi.encodePacked(lastIdBook), \n                                     lastBook.endTime);\n            \n            _timelock.update(txId,\n                             lastBook.fromRenter,\n                             0, \n                             \"removeBooksOnSharing(uint,address,address,uint,uint)\", \n                             abi.encodePacked(idBook), \n                             lastBook.endTime);\n            bytes32 lastHashId = getHashIdForBookOnSharing(lastBook.tokenId, \n                                                           lastBook.fromRenter,\n                                                           lastBook.sharer, \n                                                           lastBook.startTime, \n                                                           lastBook.endTime);\n\n            _allBooksOnSharing[lastHashId] = idBook;\n            _idToBookOnSharing[idBook] = lastBook;\n\n        }\n\n        delete _allBooksOnSharing[hashId];\n        delete _idToBookOnSharing[lastIdBook];\n\n        _totalOwnedBookOnSharing[bookOnSharing.sharer] -= 1;\n        _amountOwnedBooksOnSharing[bookOnSharing.sharer][bookOnSharing.tokenId] -= bookOnSharing.amount;\n        _booksOnSharing.decrement();\n\n    }\n\n    function removeBooksOnSharing(uint tokenId,\n                                  address fromRenter,\n                                  address sharer,\n                                  uint startTime,\n                                  uint endTime) public {\n\n        bytes32 hashId = getHashIdForBookOnSharing(tokenId, \n                                                   fromRenter,\n                                                   sharer, \n                                                   startTime, \n                                                   endTime); \n\n        _removeBooksOnSharingInternal(hashId);\n    }\n\n    function _removeSharedBooksInternal(bytes32 hashId) private {\n        uint idBook = _allSharedBooks[hashId];\n        if (idBook == 0) {\n            revert Error.InvalidIdError(idBook);\n        }\n        BookSharing memory sharedBook = _idToSharedBook[idBook];\n\n        uint lastIdBook = _sharedBooks.current();\n        bytes32 txId = _timelock.getTxId(sharedBook.fromRenter,\n                                         0, \n                                         \"removeSharedBooks(uint,address,address,uint,uint)\", \n                                         abi.encodePacked(idBook), \n                                         sharedBook.endTime);\n        _timelock.cancel(txId);\n        if (lastIdBook != idBook) {\n            BookSharing memory lastBook = _idToSharedBook[lastIdBook];\n            txId = _timelock.getTxId(lastBook.fromRenter,\n                                     0, \n                                     \"removeSharedBooks(uint,address,address,uint,uint)\", \n                                     abi.encodePacked(lastIdBook), \n                                     lastBook.endTime);\n            \n            _timelock.update(txId,\n                             lastBook.fromRenter,\n                             0, \n                             \"removeSharedBooks(uint,address,address,uint,uint)\", \n                             abi.encodePacked(idBook), \n                             lastBook.endTime);\n            bytes32 lastHashId = getHashIdForSharedBook(lastBook.tokenId, \n                                                        lastBook.sharer, \n                                                        lastBook.sharedPer, \n                                                        lastBook.startTime, \n                                                        lastBook.endTime);\n\n            _allSharedBooks[lastHashId] = idBook;\n            _idToSharedBook[idBook] = lastBook;\n\n        }\n\n        delete _allSharedBooks[hashId];\n        delete _idToSharedBook[lastIdBook];\n\n        _totalOwnedSharedBook[sharedBook.sharedPer] -= 1;\n        _amountOwnedSharedBooks[sharedBook.sharedPer][sharedBook.tokenId] -= sharedBook.amount;\n        _sharedBooks.decrement();\n\n    }\n\n    function removeSharedBooks(uint tokenId,\n                              address owner,\n                              address sharer,\n                              uint startTime,\n                              uint endTime\n                              ) public {\n        bytes32 hashId = getHashIdForSharedBook(tokenId, \n                                                sharer, \n                                                owner, \n                                                startTime, \n                                                endTime); \n        _removeSharedBooksInternal(hashId);\n    }\n\n    function takeBooksOnSharing(uint idBooksOnSharing,\n                                address sender) \n        public payable returns(uint) {\n        BookSharing memory booksOnSharing = getBooksOnSharing(idBooksOnSharing);\n        if (booksOnSharing.tokenId == 0) {\n            revert Error.InvalidIdError(booksOnSharing.tokenId);\n        }\n        if (booksOnSharing.sharer == address(0) || sender == address(0)) {\n            revert Error.InvalidAddressError(address(0));\n        }\n        if (booksOnSharing.sharer == sender) {\n            revert Error.InvalidAddressError(sender);\n        }\n        if (booksOnSharing.amount == 0) {\n            revert Error.InvalidAmountError(0);\n        }\n        uint tokenId = booksOnSharing.tokenId;\n        address sharer = booksOnSharing.sharer;\n\n        uint idSharedBook = getIdSharedBook(tokenId, \n                                            sender, \n                                            sharer, \n                                            booksOnSharing.startTime, \n                                            booksOnSharing.endTime);\n        if (idSharedBook == 0) {\n            _createSharedBook(tokenId,\n                              booksOnSharing.fromRenter,\n                              sharer, \n                              sender, \n                              booksOnSharing.priceOfBB,\n                              booksOnSharing.price, \n                              1, \n                              booksOnSharing.startTime, \n                              booksOnSharing.endTime);\n\n        } else {\n            BookSharing memory sharedBooks = _idToSharedBook[idSharedBook];\n            _updateSharedBooksInternal(idSharedBook, \n                                       sender,\n                                       tokenId,\n                                       booksOnSharing.price, \n                                       sharedBooks.amount + 1);\n        }\n\n        if (booksOnSharing.amount == 1) {\n            bytes32 hashId = getHashIdForBookOnSharing(tokenId,\n                                                       booksOnSharing.fromRenter,\n                                                       sharer, \n                                                       booksOnSharing.startTime, \n                                                       booksOnSharing.endTime); \n            if (_allBooksOnSharing[hashId] != idBooksOnSharing) {\n                revert Error.InvalidIdError(idBooksOnSharing);\n            }\n            _removeBooksOnSharingInternal(hashId);\n        } else {\n            _updateBooksOnSharingInternal(idBooksOnSharing,\n                                          sharer,\n                                          tokenId,\n                                          booksOnSharing.price, \n                                          booksOnSharing.amount - 1);\n        }\n\n        // Return price of books on sharing to transfer to sharer \n        return booksOnSharing.price;\n    }\n\n    function getAmountOfAllBooksOnSharing(uint tokenId,\n                                          address owner) public view returns(uint) {\n        return _amountOwnedBooksOnSharing[owner][tokenId];\n    }\n\n    function getAmountOfAllSharedBooks(uint tokenId,\n                                    address owner) public view returns(uint) {\n            \n        return _amountOwnedSharedBooks[owner][tokenId];\n    }\n\n    function excRecallSharedBooks(uint idSharedBook) public returns(bool) {\n\n        bytes memory data = abi.encodePacked(idSharedBook);\n        BookSharing memory book = _idToSharedBook[idSharedBook];\n        string memory func = \"removeSharedBooks(uint,address,address,uint,uint)\";\n        if (_timelock.isExecute(book.fromRenter, \n                                0, \n                                func, \n                                data, \n                                book.endTime)) {\n            removeSharedBooks(idSharedBook, \n                             book.sharedPer, \n                             book.sharer, \n                             book.startTime, \n                             book.endTime);\n            return true;\n        }\n\n        return false;\n    }\n\n    function excRecallAllSharedBooks(address renter) public returns(uint) {\n        uint total = 0;\n        if (_sharedBooks.current() > 0) {\n\n        for (uint i = 1; i <= _sharedBooks.current(); i++) {\n            BookSharing memory book = _idToSharedBook[i];\n            if (book.fromRenter == renter && \n                excRecallSharedBooks(i)) {\n                total++;     \n\n            }\n        }\n        }\n        return total;\n    }\n\n    function excRecallBooksOnSharing(uint idBooksOnSharing) public returns(bool) {\n\n        bytes memory data = abi.encodePacked(idBooksOnSharing);\n        BookSharing memory book = _idToBookOnSharing[idBooksOnSharing];\n        string memory func = \"removeBooksOnSharing(uint,address,address,uint,uint)\";\n        if (_timelock.isExecute(book.fromRenter, \n                                0, \n                                func, \n                                data, \n                                book.endTime)) {\n            removeBooksOnSharing(idBooksOnSharing, \n                                 book.fromRenter, \n                                 book.sharer, \n                                 book.startTime, \n                                 book.endTime);\n            return true;\n        }\n\n        return false;\n    }\n\n    function excRecallAllBooksOnSharing(address renter) public returns(uint) {\n        uint total = 0;\n        if (_booksOnSharing.current() > 0) {\n\n        for (uint i = 1; i <= _booksOnSharing.current(); i++) {\n            BookSharing memory book = _idToBookOnSharing[i];\n            if (book.fromRenter == renter && \n                book.sharedPer == address(0) && \n                excRecallBooksOnSharing(i)) {\n                total++;     \n\n            }\n        }\n        }\n        return total;\n    }\n\n}",
  "sourcePath": "D:\\HCMUS_Nam4_HocKi1\\04_DoAnTotNghiep\\nft-bookstore-development\\nft-bookstore\\contracts\\share\\BookSharingStorage.sol",
  "compiler": {
    "name": "solc",
    "version": "0.8.17+commit.8df45f5f.Emscripten.clang"
  },
  "schemaVersion": "3.4.12",
  "updatedAt": "2023-06-29T15:10:07.512Z",
  "networkType": "ethereum",
  "devdoc": {
    "kind": "dev",
    "methods": {},
    "version": 1
  },
  "userdoc": {
    "kind": "user",
    "methods": {},
    "version": 1
  }
}