{
  "contractName": "BookStore",
  "abi": [
    {
      "inputs": [
        {
          "internalType": "contract BookSellingStorage",
          "name": "bookSellingStorage",
          "type": "address"
        },
        {
          "internalType": "contract BookTemporary",
          "name": "bookTemporary",
          "type": "address"
        },
        {
          "internalType": "contract ListRealOwners",
          "name": "listRealOwners",
          "type": "address"
        },
        {
          "internalType": "contract SecretKeyStorage",
          "name": "secretKeyStorage",
          "type": "address"
        }
      ],
      "stateMutability": "nonpayable",
      "type": "constructor"
    },
    {
      "inputs": [],
      "name": "ExecutionError",
      "type": "error"
    },
    {
      "inputs": [
        {
          "internalType": "address",
          "name": "",
          "type": "address"
        }
      ],
      "name": "InvalidAddressError",
      "type": "error"
    },
    {
      "inputs": [
        {
          "internalType": "uint256",
          "name": "",
          "type": "uint256"
        }
      ],
      "name": "InvalidAmountError",
      "type": "error"
    },
    {
      "inputs": [
        {
          "internalType": "uint256",
          "name": "",
          "type": "uint256"
        }
      ],
      "name": "InvalidIdError",
      "type": "error"
    },
    {
      "inputs": [
        {
          "internalType": "uint256",
          "name": "",
          "type": "uint256"
        },
        {
          "internalType": "address",
          "name": "",
          "type": "address"
        }
      ],
      "name": "InvalidOwnerError",
      "type": "error"
    },
    {
      "inputs": [
        {
          "internalType": "uint256",
          "name": "",
          "type": "uint256"
        }
      ],
      "name": "InvalidPriceError",
      "type": "error"
    },
    {
      "inputs": [
        {
          "internalType": "uint256",
          "name": "",
          "type": "uint256"
        }
      ],
      "name": "InvalidTimeError",
      "type": "error"
    },
    {
      "inputs": [
        {
          "internalType": "string",
          "name": "",
          "type": "string"
        }
      ],
      "name": "InvalidTokenUriError",
      "type": "error"
    },
    {
      "inputs": [
        {
          "internalType": "uint256",
          "name": "",
          "type": "uint256"
        }
      ],
      "name": "NoReadingPermissionError",
      "type": "error"
    },
    {
      "anonymous": false,
      "inputs": [
        {
          "indexed": true,
          "internalType": "address",
          "name": "account",
          "type": "address"
        },
        {
          "indexed": true,
          "internalType": "address",
          "name": "operator",
          "type": "address"
        },
        {
          "indexed": false,
          "internalType": "bool",
          "name": "approved",
          "type": "bool"
        }
      ],
      "name": "ApprovalForAll",
      "type": "event"
    },
    {
      "anonymous": false,
      "inputs": [
        {
          "indexed": false,
          "internalType": "uint256",
          "name": "tokenId",
          "type": "uint256"
        },
        {
          "indexed": false,
          "internalType": "address",
          "name": "author",
          "type": "address"
        },
        {
          "indexed": false,
          "internalType": "uint256",
          "name": "quantity",
          "type": "uint256"
        }
      ],
      "name": "NFTBookCreated",
      "type": "event"
    },
    {
      "anonymous": false,
      "inputs": [
        {
          "indexed": true,
          "internalType": "address",
          "name": "previousOwner",
          "type": "address"
        },
        {
          "indexed": true,
          "internalType": "address",
          "name": "newOwner",
          "type": "address"
        }
      ],
      "name": "OwnershipTransferred",
      "type": "event"
    },
    {
      "anonymous": false,
      "inputs": [
        {
          "indexed": false,
          "internalType": "bool",
          "name": "isSuccess",
          "type": "bool"
        }
      ],
      "name": "RecallBookResult",
      "type": "event"
    },
    {
      "anonymous": false,
      "inputs": [
        {
          "indexed": true,
          "internalType": "address",
          "name": "operator",
          "type": "address"
        },
        {
          "indexed": true,
          "internalType": "address",
          "name": "from",
          "type": "address"
        },
        {
          "indexed": true,
          "internalType": "address",
          "name": "to",
          "type": "address"
        },
        {
          "indexed": false,
          "internalType": "uint256[]",
          "name": "ids",
          "type": "uint256[]"
        },
        {
          "indexed": false,
          "internalType": "uint256[]",
          "name": "values",
          "type": "uint256[]"
        }
      ],
      "name": "TransferBatch",
      "type": "event"
    },
    {
      "anonymous": false,
      "inputs": [
        {
          "indexed": true,
          "internalType": "address",
          "name": "operator",
          "type": "address"
        },
        {
          "indexed": true,
          "internalType": "address",
          "name": "from",
          "type": "address"
        },
        {
          "indexed": true,
          "internalType": "address",
          "name": "to",
          "type": "address"
        },
        {
          "indexed": false,
          "internalType": "uint256",
          "name": "id",
          "type": "uint256"
        },
        {
          "indexed": false,
          "internalType": "uint256",
          "name": "value",
          "type": "uint256"
        }
      ],
      "name": "TransferSingle",
      "type": "event"
    },
    {
      "anonymous": false,
      "inputs": [
        {
          "indexed": false,
          "internalType": "string",
          "name": "value",
          "type": "string"
        },
        {
          "indexed": true,
          "internalType": "uint256",
          "name": "id",
          "type": "uint256"
        }
      ],
      "name": "URI",
      "type": "event"
    },
    {
      "inputs": [
        {
          "internalType": "address",
          "name": "account",
          "type": "address"
        },
        {
          "internalType": "uint256",
          "name": "id",
          "type": "uint256"
        }
      ],
      "name": "balanceOf",
      "outputs": [
        {
          "internalType": "uint256",
          "name": "",
          "type": "uint256"
        }
      ],
      "stateMutability": "view",
      "type": "function",
      "constant": true
    },
    {
      "inputs": [
        {
          "internalType": "address[]",
          "name": "accounts",
          "type": "address[]"
        },
        {
          "internalType": "uint256[]",
          "name": "ids",
          "type": "uint256[]"
        }
      ],
      "name": "balanceOfBatch",
      "outputs": [
        {
          "internalType": "uint256[]",
          "name": "",
          "type": "uint256[]"
        }
      ],
      "stateMutability": "view",
      "type": "function",
      "constant": true
    },
    {
      "inputs": [
        {
          "internalType": "address",
          "name": "account",
          "type": "address"
        },
        {
          "internalType": "address",
          "name": "operator",
          "type": "address"
        }
      ],
      "name": "isApprovedForAll",
      "outputs": [
        {
          "internalType": "bool",
          "name": "",
          "type": "bool"
        }
      ],
      "stateMutability": "view",
      "type": "function",
      "constant": true
    },
    {
      "inputs": [],
      "name": "lendingPrice",
      "outputs": [
        {
          "internalType": "uint256",
          "name": "",
          "type": "uint256"
        }
      ],
      "stateMutability": "view",
      "type": "function",
      "constant": true
    },
    {
      "inputs": [],
      "name": "listingPrice",
      "outputs": [
        {
          "internalType": "uint256",
          "name": "",
          "type": "uint256"
        }
      ],
      "stateMutability": "view",
      "type": "function",
      "constant": true
    },
    {
      "inputs": [],
      "name": "owner",
      "outputs": [
        {
          "internalType": "address",
          "name": "",
          "type": "address"
        }
      ],
      "stateMutability": "view",
      "type": "function",
      "constant": true
    },
    {
      "inputs": [],
      "name": "renounceOwnership",
      "outputs": [],
      "stateMutability": "nonpayable",
      "type": "function"
    },
    {
      "inputs": [
        {
          "internalType": "address",
          "name": "from",
          "type": "address"
        },
        {
          "internalType": "address",
          "name": "to",
          "type": "address"
        },
        {
          "internalType": "uint256[]",
          "name": "ids",
          "type": "uint256[]"
        },
        {
          "internalType": "uint256[]",
          "name": "amounts",
          "type": "uint256[]"
        },
        {
          "internalType": "bytes",
          "name": "data",
          "type": "bytes"
        }
      ],
      "name": "safeBatchTransferFrom",
      "outputs": [],
      "stateMutability": "nonpayable",
      "type": "function"
    },
    {
      "inputs": [
        {
          "internalType": "address",
          "name": "from",
          "type": "address"
        },
        {
          "internalType": "address",
          "name": "to",
          "type": "address"
        },
        {
          "internalType": "uint256",
          "name": "id",
          "type": "uint256"
        },
        {
          "internalType": "uint256",
          "name": "amount",
          "type": "uint256"
        },
        {
          "internalType": "bytes",
          "name": "data",
          "type": "bytes"
        }
      ],
      "name": "safeTransferFrom",
      "outputs": [],
      "stateMutability": "nonpayable",
      "type": "function"
    },
    {
      "inputs": [
        {
          "internalType": "address",
          "name": "operator",
          "type": "address"
        },
        {
          "internalType": "bool",
          "name": "approved",
          "type": "bool"
        }
      ],
      "name": "setApprovalForAll",
      "outputs": [],
      "stateMutability": "nonpayable",
      "type": "function"
    },
    {
      "inputs": [],
      "name": "sharingPrice",
      "outputs": [
        {
          "internalType": "uint256",
          "name": "",
          "type": "uint256"
        }
      ],
      "stateMutability": "view",
      "type": "function",
      "constant": true
    },
    {
      "inputs": [
        {
          "internalType": "bytes4",
          "name": "interfaceId",
          "type": "bytes4"
        }
      ],
      "name": "supportsInterface",
      "outputs": [
        {
          "internalType": "bool",
          "name": "",
          "type": "bool"
        }
      ],
      "stateMutability": "view",
      "type": "function",
      "constant": true
    },
    {
      "inputs": [
        {
          "internalType": "address",
          "name": "newOwner",
          "type": "address"
        }
      ],
      "name": "transferOwnership",
      "outputs": [],
      "stateMutability": "nonpayable",
      "type": "function"
    },
    {
      "inputs": [
        {
          "internalType": "uint256",
          "name": "tokenId",
          "type": "uint256"
        }
      ],
      "name": "uri",
      "outputs": [
        {
          "internalType": "string",
          "name": "",
          "type": "string"
        }
      ],
      "stateMutability": "view",
      "type": "function",
      "constant": true
    },
    {
      "inputs": [
        {
          "internalType": "uint256",
          "name": "tokenId",
          "type": "uint256"
        }
      ],
      "name": "getUri",
      "outputs": [
        {
          "internalType": "string",
          "name": "",
          "type": "string"
        }
      ],
      "stateMutability": "view",
      "type": "function",
      "constant": true
    },
    {
      "inputs": [
        {
          "internalType": "uint256",
          "name": "newPrice",
          "type": "uint256"
        }
      ],
      "name": "setListingPrice",
      "outputs": [],
      "stateMutability": "nonpayable",
      "type": "function"
    },
    {
      "inputs": [
        {
          "internalType": "uint256",
          "name": "newPrice",
          "type": "uint256"
        }
      ],
      "name": "setLendingPrice",
      "outputs": [],
      "stateMutability": "nonpayable",
      "type": "function"
    },
    {
      "inputs": [
        {
          "internalType": "uint256",
          "name": "newPrice",
          "type": "uint256"
        }
      ],
      "name": "setSharingPrice",
      "outputs": [],
      "stateMutability": "nonpayable",
      "type": "function"
    },
    {
      "inputs": [
        {
          "internalType": "uint256",
          "name": "tokenId",
          "type": "uint256"
        }
      ],
      "name": "getAllRealOwnerOfTokenId",
      "outputs": [
        {
          "internalType": "address[]",
          "name": "",
          "type": "address[]"
        }
      ],
      "stateMutability": "view",
      "type": "function",
      "constant": true
    },
    {
      "inputs": [
        {
          "internalType": "uint256",
          "name": "tokenId",
          "type": "uint256"
        }
      ],
      "name": "getBalanceOfOwnerBook",
      "outputs": [
        {
          "internalType": "uint256",
          "name": "",
          "type": "uint256"
        }
      ],
      "stateMutability": "view",
      "type": "function",
      "constant": true
    },
    {
      "inputs": [
        {
          "internalType": "uint256",
          "name": "tokenId",
          "type": "uint256"
        }
      ],
      "name": "getNftBook",
      "outputs": [
        {
          "components": [
            {
              "internalType": "uint256",
              "name": "tokenId",
              "type": "uint256"
            },
            {
              "internalType": "address",
              "name": "author",
              "type": "address"
            },
            {
              "internalType": "uint256",
              "name": "quantity",
              "type": "uint256"
            }
          ],
          "internalType": "struct BookStore.NFTBook",
          "name": "",
          "type": "tuple"
        }
      ],
      "stateMutability": "view",
      "type": "function",
      "constant": true
    },
    {
      "inputs": [
        {
          "internalType": "string",
          "name": "tokenURI",
          "type": "string"
        }
      ],
      "name": "isTokenURIExist",
      "outputs": [
        {
          "internalType": "bool",
          "name": "",
          "type": "bool"
        }
      ],
      "stateMutability": "view",
      "type": "function",
      "constant": true
    },
    {
      "inputs": [
        {
          "internalType": "string",
          "name": "tokenURI",
          "type": "string"
        },
        {
          "internalType": "uint256",
          "name": "quantity",
          "type": "uint256"
        },
        {
          "internalType": "string",
          "name": "privateKey",
          "type": "string"
        },
        {
          "internalType": "string",
          "name": "iv",
          "type": "string"
        }
      ],
      "name": "mintBook",
      "outputs": [
        {
          "internalType": "uint256",
          "name": "",
          "type": "uint256"
        }
      ],
      "stateMutability": "payable",
      "type": "function",
      "payable": true
    },
    {
      "inputs": [
        {
          "internalType": "uint256",
          "name": "tokenId",
          "type": "uint256"
        }
      ],
      "name": "getSecretKey",
      "outputs": [
        {
          "internalType": "string[]",
          "name": "",
          "type": "string[]"
        }
      ],
      "stateMutability": "view",
      "type": "function",
      "constant": true
    },
    {
      "inputs": [
        {
          "internalType": "uint256",
          "name": "tokenId",
          "type": "uint256"
        }
      ],
      "name": "isBookReadableByUser",
      "outputs": [
        {
          "internalType": "bool",
          "name": "",
          "type": "bool"
        }
      ],
      "stateMutability": "view",
      "type": "function",
      "constant": true
    },
    {
      "inputs": [
        {
          "internalType": "uint256",
          "name": "tokenId",
          "type": "uint256"
        },
        {
          "internalType": "address",
          "name": "owner",
          "type": "address"
        }
      ],
      "name": "isOwnerOfToken",
      "outputs": [
        {
          "internalType": "bool",
          "name": "",
          "type": "bool"
        }
      ],
      "stateMutability": "view",
      "type": "function",
      "constant": true
    },
    {
      "inputs": [],
      "name": "getOwnedNFTBooks",
      "outputs": [
        {
          "components": [
            {
              "internalType": "uint256",
              "name": "tokenId",
              "type": "uint256"
            },
            {
              "internalType": "address",
              "name": "author",
              "type": "address"
            },
            {
              "internalType": "uint256",
              "name": "quantity",
              "type": "uint256"
            }
          ],
          "internalType": "struct BookStore.NFTBook[]",
          "name": "",
          "type": "tuple[]"
        }
      ],
      "stateMutability": "view",
      "type": "function",
      "constant": true
    },
    {
      "inputs": [],
      "name": "getOwnedListedBooks",
      "outputs": [
        {
          "components": [
            {
              "internalType": "uint256",
              "name": "tokenId",
              "type": "uint256"
            },
            {
              "internalType": "address",
              "name": "seller",
              "type": "address"
            },
            {
              "internalType": "address",
              "name": "buyer",
              "type": "address"
            },
            {
              "internalType": "uint256",
              "name": "price",
              "type": "uint256"
            },
            {
              "internalType": "uint256",
              "name": "amount",
              "type": "uint256"
            }
          ],
          "internalType": "struct BookSellingStorage.BookSelling[]",
          "name": "",
          "type": "tuple[]"
        }
      ],
      "stateMutability": "view",
      "type": "function",
      "constant": true
    },
    {
      "inputs": [],
      "name": "getOwnedLendingBooks",
      "outputs": [
        {
          "components": [
            {
              "internalType": "uint256",
              "name": "tokenId",
              "type": "uint256"
            },
            {
              "internalType": "address",
              "name": "renter",
              "type": "address"
            },
            {
              "internalType": "uint256",
              "name": "price",
              "type": "uint256"
            },
            {
              "internalType": "uint256",
              "name": "amount",
              "type": "uint256"
            }
          ],
          "internalType": "struct BookRentingStorage.LendBook[]",
          "name": "",
          "type": "tuple[]"
        }
      ],
      "stateMutability": "view",
      "type": "function",
      "constant": true
    },
    {
      "inputs": [
        {
          "internalType": "uint256",
          "name": "tokenId",
          "type": "uint256"
        }
      ],
      "name": "getAmountUnUsedBook",
      "outputs": [
        {
          "internalType": "uint256",
          "name": "",
          "type": "uint256"
        }
      ],
      "stateMutability": "view",
      "type": "function",
      "constant": true
    },
    {
      "inputs": [
        {
          "internalType": "uint256",
          "name": "tokenId",
          "type": "uint256"
        }
      ],
      "name": "getAmountOfAllTypeBooksUntradeable",
      "outputs": [
        {
          "internalType": "uint256",
          "name": "",
          "type": "uint256"
        }
      ],
      "stateMutability": "view",
      "type": "function",
      "constant": true
    },
    {
      "inputs": [
        {
          "internalType": "uint256",
          "name": "tokenId",
          "type": "uint256"
        },
        {
          "internalType": "uint256",
          "name": "price",
          "type": "uint256"
        },
        {
          "internalType": "uint256",
          "name": "amount",
          "type": "uint256"
        }
      ],
      "name": "sellBooks",
      "outputs": [],
      "stateMutability": "payable",
      "type": "function",
      "payable": true
    },
    {
      "inputs": [
        {
          "internalType": "uint256",
          "name": "tokenId",
          "type": "uint256"
        },
        {
          "internalType": "uint256",
          "name": "price",
          "type": "uint256"
        },
        {
          "internalType": "uint256",
          "name": "amount",
          "type": "uint256"
        }
      ],
      "name": "lendBooks",
      "outputs": [],
      "stateMutability": "payable",
      "type": "function",
      "payable": true
    },
    {
      "inputs": [
        {
          "internalType": "uint256",
          "name": "tokenId",
          "type": "uint256"
        },
        {
          "internalType": "uint256",
          "name": "newPrice",
          "type": "uint256"
        },
        {
          "internalType": "uint256",
          "name": "newAmount",
          "type": "uint256"
        },
        {
          "internalType": "address",
          "name": "seller",
          "type": "address"
        }
      ],
      "name": "updateBookFromSale",
      "outputs": [],
      "stateMutability": "nonpayable",
      "type": "function"
    },
    {
      "inputs": [
        {
          "internalType": "uint256",
          "name": "tokenId",
          "type": "uint256"
        },
        {
          "internalType": "uint256",
          "name": "newPrice",
          "type": "uint256"
        },
        {
          "internalType": "uint256",
          "name": "newAmount",
          "type": "uint256"
        },
        {
          "internalType": "address",
          "name": "renter",
          "type": "address"
        }
      ],
      "name": "updateBookFromRenting",
      "outputs": [],
      "stateMutability": "nonpayable",
      "type": "function"
    },
    {
      "inputs": [
        {
          "internalType": "uint256",
          "name": "tokenId",
          "type": "uint256"
        },
        {
          "internalType": "address",
          "name": "seller",
          "type": "address"
        },
        {
          "internalType": "uint256",
          "name": "amount",
          "type": "uint256"
        }
      ],
      "name": "buyBooks",
      "outputs": [],
      "stateMutability": "payable",
      "type": "function",
      "payable": true
    },
    {
      "inputs": [
        {
          "internalType": "uint256",
          "name": "tokenId",
          "type": "uint256"
        },
        {
          "internalType": "address",
          "name": "renter",
          "type": "address"
        },
        {
          "internalType": "uint256",
          "name": "price",
          "type": "uint256"
        },
        {
          "internalType": "uint256",
          "name": "amount",
          "type": "uint256"
        },
        {
          "internalType": "uint256",
          "name": "rentalDuration",
          "type": "uint256"
        }
      ],
      "name": "borrowBooks",
      "outputs": [],
      "stateMutability": "payable",
      "type": "function",
      "payable": true
    },
    {
      "inputs": [
        {
          "internalType": "uint256",
          "name": "tokenId",
          "type": "uint256"
        },
        {
          "internalType": "address",
          "name": "renter",
          "type": "address"
        },
        {
          "internalType": "uint256",
          "name": "startTime",
          "type": "uint256"
        },
        {
          "internalType": "uint256",
          "name": "endTime",
          "type": "uint256"
        },
        {
          "internalType": "uint256",
          "name": "extendedAmount",
          "type": "uint256"
        },
        {
          "internalType": "uint256",
          "name": "extendedTime",
          "type": "uint256"
        }
      ],
      "name": "requestExtendTimeOfBorrowedBooks",
      "outputs": [],
      "stateMutability": "nonpayable",
      "type": "function"
    },
    {
      "inputs": [
        {
          "internalType": "uint256",
          "name": "tokenId",
          "type": "uint256"
        },
        {
          "internalType": "address",
          "name": "renter",
          "type": "address"
        },
        {
          "internalType": "uint256",
          "name": "startTime",
          "type": "uint256"
        },
        {
          "internalType": "uint256",
          "name": "endTime",
          "type": "uint256"
        },
        {
          "internalType": "uint256",
          "name": "newExtendedAmount",
          "type": "uint256"
        },
        {
          "internalType": "uint256",
          "name": "newExtendedTime",
          "type": "uint256"
        }
      ],
      "name": "updateRequestOfBorrowedBooks",
      "outputs": [],
      "stateMutability": "nonpayable",
      "type": "function"
    },
    {
      "inputs": [
        {
          "internalType": "uint256",
          "name": "idBorrowedBook",
          "type": "uint256"
        },
        {
          "internalType": "address",
          "name": "borrower",
          "type": "address"
        },
        {
          "internalType": "bool",
          "name": "isAccept",
          "type": "bool"
        }
      ],
      "name": "doAcceptRequest",
      "outputs": [
        {
          "internalType": "bool",
          "name": "",
          "type": "bool"
        }
      ],
      "stateMutability": "nonpayable",
      "type": "function"
    },
    {
      "inputs": [
        {
          "internalType": "uint256",
          "name": "id",
          "type": "uint256"
        },
        {
          "internalType": "address",
          "name": "renter",
          "type": "address"
        },
        {
          "internalType": "bool",
          "name": "isExtend",
          "type": "bool"
        }
      ],
      "name": "transferForSendedRequest",
      "outputs": [],
      "stateMutability": "payable",
      "type": "function",
      "payable": true
    },
    {
      "inputs": [
        {
          "internalType": "uint256",
          "name": "idBorrowedBook",
          "type": "uint256"
        }
      ],
      "name": "recallBorrowedBooks",
      "outputs": [
        {
          "internalType": "bool",
          "name": "",
          "type": "bool"
        }
      ],
      "stateMutability": "nonpayable",
      "type": "function"
    },
    {
      "inputs": [
        {
          "internalType": "uint256",
          "name": "idBorrowedBook",
          "type": "uint256"
        },
        {
          "internalType": "uint256",
          "name": "price",
          "type": "uint256"
        },
        {
          "internalType": "uint256",
          "name": "amount",
          "type": "uint256"
        }
      ],
      "name": "shareBooks",
      "outputs": [],
      "stateMutability": "payable",
      "type": "function",
      "payable": true
    },
    {
      "inputs": [
        {
          "internalType": "uint256",
          "name": "idBooksOnSharing",
          "type": "uint256"
        },
        {
          "internalType": "uint256",
          "name": "newPrice",
          "type": "uint256"
        },
        {
          "internalType": "uint256",
          "name": "newAmount",
          "type": "uint256"
        }
      ],
      "name": "updateBooksOnSharing",
      "outputs": [],
      "stateMutability": "nonpayable",
      "type": "function"
    },
    {
      "inputs": [
        {
          "internalType": "uint256",
          "name": "idBooksOnSharing",
          "type": "uint256"
        }
      ],
      "name": "takeBooksOnSharing",
      "outputs": [],
      "stateMutability": "payable",
      "type": "function",
      "payable": true
    },
    {
      "inputs": [
        {
          "internalType": "uint256",
          "name": "idSharedBook",
          "type": "uint256"
        }
      ],
      "name": "recallSharedBooks",
      "outputs": [
        {
          "internalType": "bool",
          "name": "",
          "type": "bool"
        }
      ],
      "stateMutability": "nonpayable",
      "type": "function"
    },
    {
      "inputs": [
        {
          "internalType": "uint256",
          "name": "idBooksOnSharing",
          "type": "uint256"
        }
      ],
      "name": "recallBooksOnSharing",
      "outputs": [
        {
          "internalType": "bool",
          "name": "",
          "type": "bool"
        }
      ],
      "stateMutability": "nonpayable",
      "type": "function"
    }
  ],
  "bytecode": "0x60a0604052600060809081526003906200001a90826200030c565b506101f4600c5562093a80600d556658d15e17628000600e5566038d7ea4c68000600f556601c6bf526340006010553480156200005657600080fd5b5060405162005319380380620053198339810160408190526200007991620003f1565b604051806060016040528060218152602001620052f8602191396200009e8162000203565b50620000aa3362000215565b600680546001600160a01b038087166001600160a01b0319928316179092556007805492861692909116821790556040805163a943f98f60e01b8152905163a943f98f916004808201926020929091908290030181865afa15801562000114573d6000803e3d6000fd5b505050506040513d601f19601f820116820180604052508101906200013a919062000459565b600880546001600160a01b0319166001600160a01b039283161790556007546040805163bc20efc560e01b81529051919092169163bc20efc59160048083019260209291908290030181865afa15801562000199573d6000803e3d6000fd5b505050506040513d601f19601f82011682018060405250810190620001bf919062000459565b600980546001600160a01b03199081166001600160a01b0393841617909155600a8054821694831694909417909355600b8054909316911617905550620004809050565b60026200021182826200030c565b5050565b600580546001600160a01b038381166001600160a01b0319831681179093556040519116919082907f8be0079c531659141344cd1fd0a4f28419497f9722a3daafe3b4186f6b6457e090600090a35050565b634e487b7160e01b600052604160045260246000fd5b600181811c908216806200029257607f821691505b602082108103620002b357634e487b7160e01b600052602260045260246000fd5b50919050565b601f8211156200030757600081815260208120601f850160051c81016020861015620002e25750805b601f850160051c820191505b818110156200030357828155600101620002ee565b5050505b505050565b81516001600160401b0381111562000328576200032862000267565b62000340816200033984546200027d565b84620002b9565b602080601f8311600181146200037857600084156200035f5750858301515b600019600386901b1c1916600185901b17855562000303565b600085815260208120601f198616915b82811015620003a95788860151825594840194600190910190840162000388565b5085821015620003c85787850151600019600388901b60f8161c191681555b5050505050600190811b01905550565b6001600160a01b0381168114620003ee57600080fd5b50565b600080600080608085870312156200040857600080fd5b84516200041581620003d8565b60208601519094506200042881620003d8565b60408601519093506200043b81620003d8565b60608601519092506200044e81620003d8565b939692955090935050565b6000602082840312156200046c57600080fd5b81516200047981620003d8565b9392505050565b614e6880620004906000396000f3fe6080604052600436106102475760003560e01c80637c726b691161013a578063da0544aa116100b1578063da0544aa14610680578063dd01b4b2146106a0578063e04f7abe146106c0578063e30340ea146106e0578063e86c214e14610700578063e985e9c514610720578063eafdf24c14610769578063eca8dcf314610796578063f242432a146107b6578063f2fde38b146107d6578063f59e1293146107f6578063f6ee75031461081657600080fd5b80637c726b691461050d57806380e8b1381461052d5780638da5cb5b1461054f578063a22cb46514610575578063abef9cf914610595578063b0a3a2f3146105a8578063b39455e7146105ca578063b4a0e525146105ea578063ba71a7131461060a578063c6043b0c1461062a578063c78f19f91461064a578063d47181d51461066057600080fd5b80634162673d116101ce5780634162673d146103c65780634b61469a146103dc5780634d76a8d3146103f25780634e1273f4146104055780634e129cde146104325780635a7d1499146104525780635b859bc8146104655780635c4f12571461047857806364b93e741461048b578063715018a61461049e5780637731b1f0146104b35780637ba9a1b3146104e057600080fd5b8062fdd58e1461024c57806301ffc9a71461027f5780630838c49d146102af5780630e419fb2146102d15780630e89341c146102e4578063115e9cfe1461031157806312d0a7661461033357806313e54b3d146103535780632a5c3592146103735780632e43a9f9146103935780632eb2c2d6146103a6575b600080fd5b34801561025857600080fd5b5061026c610267366004613ac6565b610836565b6040519081526020015b60405180910390f35b34801561028b57600080fd5b5061029f61029a366004613b08565b6108cf565b6040519015158152602001610276565b3480156102bb57600080fd5b506102c461091f565b6040516102769190613b25565b61026c6102df366004613c80565b610b33565b3480156102f057600080fd5b506103046102ff366004613d11565b610c99565b6040516102769190613d7a565b34801561031d57600080fd5b5061033161032c366004613d8d565b610d79565b005b34801561033f57600080fd5b5061029f61034e366004613db9565b6110ce565b34801561035f57600080fd5b5061033161036e366004613d11565b6110e3565b34801561037f57600080fd5b5061026c61038e366004613d11565b611114565b6103316103a1366004613de9565b611205565b3480156103b257600080fd5b506103316103c1366004613eb5565b6112f2565b3480156103d257600080fd5b5061026c60105481565b3480156103e857600080fd5b5061026c600f5481565b610331610400366004613d11565b611337565b34801561041157600080fd5b50610425610420366004613f62565b611510565b6040516102769190614069565b34801561043e57600080fd5b5061033161044d36600461407c565b611639565b610331610460366004613d8d565b6116fd565b6103316104733660046140bd565b611907565b610331610486366004613d8d565b611a3b565b610331610499366004613d8d565b611b40565b3480156104aa57600080fd5b50610331611c1d565b3480156104bf57600080fd5b506104d36104ce366004613d11565b611c31565b6040516102769190614105565b3480156104ec57600080fd5b506105006104fb366004613d11565b611cce565b6040516102769190614167565b34801561051957600080fd5b50610331610528366004613d11565b611d40565b34801561053957600080fd5b50610542611d71565b60405161027691906141b4565b34801561055b57600080fd5b506005546001600160a01b03166040516102769190614221565b34801561058157600080fd5b50610331610590366004614243565b611f8b565b6103316105a3366004614271565b611f9a565b3480156105b457600080fd5b506105bd61208f565b60405161027691906142d5565b3480156105d657600080fd5b5061026c6105e5366004613d11565b61218d565b3480156105f657600080fd5b50610331610605366004614317565b6121c4565b34801561061657600080fd5b5061029f610625366004614367565b61228b565b34801561063657600080fd5b5061029f610645366004613d11565b6122b6565b34801561065657600080fd5b5061026c600e5481565b34801561066c57600080fd5b5061029f61067b366004614271565b612461565b34801561068c57600080fd5b5061030461069b366004613d11565b6124ef565b3480156106ac57600080fd5b5061029f6106bb366004613d11565b6124fa565b3480156106cc57600080fd5b506103316106db366004614317565b61262a565b3480156106ec57600080fd5b5061029f6106fb366004613d11565b6126ec565b34801561070c57600080fd5b5061026c61071b366004613d11565b612825565b34801561072c57600080fd5b5061029f61073b36600461439b565b6001600160a01b03918216600090815260016020908152604080832093909416825291909152205460ff1690565b34801561077557600080fd5b50610789610784366004613d11565b612843565b60405161027691906143c9565b3480156107a257600080fd5b5061029f6107b1366004613d11565b61288d565b3480156107c257600080fd5b506103316107d13660046143d7565b6129c8565b3480156107e257600080fd5b506103316107f136600461443f565b612a0d565b34801561080257600080fd5b50610331610811366004613d11565b612a86565b34801561082257600080fd5b5061033161083136600461407c565b612ab7565b60006001600160a01b0383166108a65760405162461bcd60e51b815260206004820152602a60248201527f455243313135353a2061646472657373207a65726f206973206e6f742061207660448201526930b634b21037bbb732b960b11b60648201526084015b60405180910390fd5b506000818152602081815260408083206001600160a01b03861684529091529020545b92915050565b60006001600160e01b03198216636cdb3d1360e11b148061090057506001600160e01b031982166303a24d0760e21b145b806108c957506301ffc9a760e01b6001600160e01b03198316146108c9565b6008546040516302b1dead60e11b81526060916000916001600160a01b0390911690630563bd5a90610955903390600401614221565b602060405180830381865afa158015610972573d6000803e3d6000fd5b505050506040513d601f19601f82011682018060405250810190610996919061445c565b33600090815260156020526040812054919250826001600160401b038111156109c1576109c1613b92565b604051908082528060200260200182016040528015610a2657816020015b610a1360405180608001604052806000815260200160006001600160a01b0316815260200160008152602001600081525090565b8152602001906001900390816109df5790505b5090506000805b83811015610b295733600081815260146020908152604080832085845290915280822054600854915163ca36874d60e01b815290936001600160a01b039092169163ca36874d91610a82918691600401614475565b608060405180830381865afa158015610a9f573d6000803e3d6000fd5b505050506040513d601f19601f82011682018060405250810190610ac3919061449c565b805190915015801590610ae2575060208101516001600160a01b031615155b15610b145780858581518110610afa57610afa614507565b60200260200101819052508380610b1090614533565b9450505b50508080610b2190614533565b915050610a2d565b5090949350505050565b6000610b3e8561228b565b15610b5e578460405163d8c63acf60e01b815260040161089d9190613d7a565b831580610b6c5750600c5484115b15610b8d5760405163099f49a360e11b81526004810185905260240161089d565b600e543414610bb15760405163713bd66960e01b815234600482015260240161089d565b610bbf601180546001019055565b6000610bca60115490565b9050610be733828760405180602001604052806000815250612b43565b610bf18187612c6c565b610bfb8186612cc9565b6001601387604051610c0d919061454c565b908152604051908190036020018120805492151560ff1990931692909217909155600b546353d36d8f60e01b82526001600160a01b0316906353d36d8f90610c5d90849088908890600401614568565b600060405180830381600087803b158015610c7757600080fd5b505af1158015610c8b573d6000803e3d6000fd5b509298975050505050505050565b600081815260046020526040812080546060929190610cb79061459d565b80601f0160208091040260200160405190810160405280929190818152602001828054610ce39061459d565b8015610d305780601f10610d0557610100808354040283529160200191610d30565b820191906000526020600020905b815481529060010190602001808311610d1357829003601f168201915b505050505090506000815111610d4e57610d4983612d61565b610d72565b600381604051602001610d629291906145d7565b6040516020818303038152906040525b9392505050565b60095460405163c0a6417160e01b8152600481018590526000916001600160a01b03169063c0a641719060240161012060405180830381865afa158015610dc4573d6000803e3d6000fd5b505050506040513d601f19601f82011682018060405250810190610de8919061465e565b6008548151602083015160408085015160e086015161010087015192516301e4faa160e31b815260048101959095526001600160a01b03938416602486015290831660448501526064840152608483015292935060009290911690630f27d5089060a401602060405180830381865afa158015610e69573d6000803e3d6000fd5b505050506040513d601f19601f82011682018060405250810190610e8d919061445c565b905080600003610eb35760405163d8bbd62160e01b81526004810182905260240161089d565b600854604051633c78cc8360e11b8152600481018390526000916001600160a01b0316906378f199069060240160e060405180830381865afa158015610efd573d6000803e3d6000fd5b505050506040513d601f19601f82011682018060405250810190610f2191906146ee565b905080604001516001600160a01b0316336001600160a01b031614610f5b5733604051633992dcbd60e21b815260040161089d9190614221565b831580610f7a57508260c001518160800151610f779190614783565b84115b15610f9b5760405163099f49a360e11b81526004810185905260240161089d565b6000808460c001518611610fc45760009150858560c00151610fbd9190614796565b9050610fda565b60c085015160019250610fd79087614796565b90505b6009548351604051639c48c1b360e01b8152600481018b9052336024820152604481019190915260648101899052608481018890526001600160a01b0390911690639c48c1b39060a401600060405180830381600087803b15801561103e57600080fd5b505af1158015611052573d6000803e3d6000fd5b5050600854604051631a43551f60e11b8152600481018890526024810185905285151560448201526001600160a01b039091169250633486aa3e91506064015b600060405180830381600087803b1580156110ac57600080fd5b505af11580156110c0573d6000803e3d6000fd5b505050505050505050505050565b6000806110db8385610836565b119392505050565b6110eb612df5565b8060000361110f5760405163713bd66960e01b81526004810182905260240161089d565b601055565b600754604051630a43ea8360e31b81526000916001600160a01b03169063521f5418906111479085903390600401614475565b602060405180830381865afa158015611164573d6000803e3d6000fd5b505050506040513d601f19601f82011682018060405250810190611188919061445c565b6006546040516362513fcd60e11b81526001600160a01b039091169063c4a27f9a906111ba9086903390600401614475565b602060405180830381865afa1580156111d7573d6000803e3d6000fd5b505050506040513d601f19601f820116820180604052508101906111fb919061445c565b6108c99190614783565b600654604051633af98cfd60e11b8152600481018590526001600160a01b0384811660248301526044820184905233606483015234608483015260009216906375f319fa9060a4016020604051808303816000875af115801561126c573d6000803e3d6000fd5b505050506040513d601f19601f82011682018060405250810190611290919061445c565b905080156112ec576112b48333868560405180602001604052806000815250612e4f565b6040516001600160a01b0384169082156108fc029083906000818181858888f193505050501580156112ea573d6000803e3d6000fd5b505b50505050565b6001600160a01b03851633148061130e575061130e853361073b565b61132a5760405162461bcd60e51b815260040161089d906147a9565b6112ea8585858585612f8a565b336113575733604051633992dcbd60e21b815260040161089d9190614221565b8060000361137b5760405163d8bbd62160e01b81526000600482015260240161089d565b60095460405163c0a6417160e01b8152600481018390526000916001600160a01b03169063c0a641719060240161012060405180830381865afa1580156113c6573d6000803e3d6000fd5b505050506040513d601f19601f820116820180604052508101906113ea919061465e565b6009546040516328b8744160e11b81529192506000916001600160a01b0390911690635170e882906114229086903390600401614475565b6020604051808303816000875af1158015611441573d6000803e3d6000fd5b505050506040513d601f19601f82011682018060405250810190611465919061445c565b90508034146114895760405163713bd66960e01b815234600482015260240161089d565b8151156114f2576114b58260400151338460000151600160405180602001604052806000815250612e4f565b81604001516001600160a01b03166108fc829081150290604051600060405180830381858888f193505050501580156112ec573d6000803e3d6000fd5b604051632532cf4560e01b815260040160405180910390fd5b505050565b606081518351146115755760405162461bcd60e51b815260206004820152602960248201527f455243313135353a206163636f756e747320616e6420696473206c656e677468604482015268040dad2e6dac2e8c6d60bb1b606482015260840161089d565b600083516001600160401b0381111561159057611590613b92565b6040519080825280602002602001820160405280156115b9578160200160208202803683370190505b50905060005b8451811015611631576116048582815181106115dd576115dd614507565b60200260200101518583815181106115f7576115f7614507565b6020026020010151610836565b82828151811061161657611616614507565b602090810291909101015261162a81614533565b90506115bf565b509392505050565b61164384336110ce565b611664578333604051633df9e10b60e11b815260040161089d929190614475565b6001600160a01b038116331461168f5733604051633992dcbd60e21b815260040161089d9190614221565b60065460405163783db84b60e01b81526001600160a01b039091169063783db84b906116c59087908790879087906004016147f7565b600060405180830381600087803b1580156116df57600080fd5b505af11580156116f3573d6000803e3d6000fd5b5050505050505050565b600854604051633c78cc8360e11b8152600481018590526000916001600160a01b0316906378f199069060240160e060405180830381865afa158015611747573d6000803e3d6000fd5b505050506040513d601f19601f8201168201806040525081019061176b91906146ee565b905080604001516001600160a01b0316336001600160a01b0316146117a55733604051633992dcbd60e21b815260040161089d9190614221565b60105434146117cd5760105460405163713bd66960e01b815260040161089d91815260200190565b8115806117dd5750806080015182115b156117fe5760405163099f49a360e11b81526004810183905260240161089d565b8060c001514210611824576040516307b263f160e11b815242600482015260240161089d565b60095481516020830151606084015160a085015160c0860151604051634d47843960e11b815260048101959095526001600160a01b03938416602486015233604486015260648501929092526084840188905260a4840187905260c484015260e483015290911690639a8f08729061010401600060405180830381600087803b1580156118b057600080fd5b505af11580156118c4573d6000803e3d6000fd5b5050600854604051631a43551f60e11b81526004810188905260248101869052600160448201526001600160a01b039091169250633486aa3e91506064016116c5565b600d5481101561192d576040516307b263f160e11b81526004810182905260240161089d565b42600061193a8383614783565b6008546040516001621893ad60e21b03198152600481018a90526001600160a01b03898116602483015260448201889052606482018990526084820186905260a482018490523360c48301529293506000929091169063ff9db14c9060e4016020604051808303816000875af11580156119b8573d6000803e3d6000fd5b505050506040513d601f19601f820116820180604052508101906119dc919061445c565b90506119fa87338a8860405180602001604052806000815250612e4f565b6040516001600160a01b0388169082156108fc029083906000818181858888f19350505050158015611a30573d6000803e3d6000fd5b505050505050505050565b611a4583336110ce565b611a66578233604051633df9e10b60e11b815260040161089d929190614475565b611a703384610836565b81611a7a85611114565b611a849190614783565b1180611a8e575080155b15611aaf5760405163099f49a360e11b81526004810182905260240161089d565b600e543414611ad35760405163713bd66960e01b815234600482015260240161089d565b600654604051634c5aecb560e01b81526001600160a01b0390911690634c5aecb590611b099086908690869033906004016147f7565b600060405180830381600087803b158015611b2357600080fd5b505af1158015611b37573d6000803e3d6000fd5b50505050505050565b611b4a83336110ce565b611b6b578233604051633df9e10b60e11b815260040161089d929190614475565b611b753384610836565b81611b7f85611114565b611b899190614783565b1180611b93575080155b15611bb45760405163099f49a360e11b81526004810182905260240161089d565b600f543414611bd85760405163713bd66960e01b815234600482015260240161089d565b60085460405163cca1003d60e01b81526004810185905233602482015260448101849052606481018390526001600160a01b039091169063cca1003d90608401611b09565b611c25612df5565b611c2f6000613183565b565b6060611c3c826126ec565b611c5c5760405163056fd2d960e01b81526004810183905260240161089d565b600b546040516307731b1f60e41b8152600481018490526000916001600160a01b031690637731b1f090602401600060405180830381865afa158015611ca6573d6000803e3d6000fd5b505050506040513d6000823e601f3d908101601f19168201604052610d72919081019061481b565b600a54604051637ba9a1b360e01b8152600481018390526060916001600160a01b031690637ba9a1b390602401600060405180830381865afa158015611d18573d6000803e3d6000fd5b505050506040513d6000823e601f3d908101601f191682016040526108c9919081019061491d565b611d48612df5565b80600003611d6c5760405163713bd66960e01b81526004810182905260240161089d565b600e55565b600654604051637cf6961960e11b81526060916000916001600160a01b039091169063f9ed2c3290611da7903390600401614221565b602060405180830381865afa158015611dc4573d6000803e3d6000fd5b505050506040513d601f19601f82011682018060405250810190611de8919061445c565b33600090815260156020526040812054919250826001600160401b03811115611e1357611e13613b92565b604051908082528060200260200182016040528015611e8857816020015b611e756040518060a001604052806000815260200160006001600160a01b0316815260200160006001600160a01b0316815260200160008152602001600081525090565b815260200190600190039081611e315790505b5090506000805b83811015610b2957336000818152601460209081526040808320858452909152808220546006549151630ed148dd60e41b815290936001600160a01b039092169163ed148dd091611ee4918691600401614475565b60a060405180830381865afa158015611f01573d6000803e3d6000fd5b505050506040513d601f19601f82011682018060405250810190611f2591906149c1565b805190915015801590611f44575060208101516001600160a01b031615155b15611f765780858581518110611f5c57611f5c614507565b60200260200101819052508380611f7290614533565b9450505b50508080611f8390614533565b915050611e8f565b611f963383836131d5565b5050565b336001600160a01b03831603611fc55733604051633992dcbd60e21b815260040161089d9190614221565b600854604051637e9a759f60e11b8152600481018590526001600160a01b0384811660248301523360448301524260648301528315156084830152600092169063fd34eb3e9060a4016020604051808303816000875af115801561202d573d6000803e3d6000fd5b505050506040513d601f19601f82011682018060405250810190612051919061445c565b905080156112ec576040516001600160a01b0384169082156108fc029083906000818181858888f193505050501580156112ea573d6000803e3d6000fd5b33600090815260156020526040812054606091816001600160401b038111156120ba576120ba613b92565b6040519080825280602002602001820160405280156120f357816020015b6120e0613a87565b8152602001906001900390816120d85790505b50905060005b8281101561218657336000908152601460209081526040808320848452825280832054808452601283529281902081516060810183528154815260018201546001600160a01b03169381019390935260020154908201528351819085908590811061216657612166614507565b60200260200101819052505050808061217e90614533565b9150506120f9565b5092915050565b600061219982336110ce565b6121ba578133604051633df9e10b60e11b815260040161089d929190614475565b6108c93383610836565b336001600160a01b038616036121ef5733604051633992dcbd60e21b815260040161089d9190614221565b600d54811015612215576040516307b263f160e11b81526004810182905260240161089d565b600854604051635d1d319560e11b81526001600160a01b039091169063ba3a632a90612251908990899033908a908a908a908a90600401614a3f565b600060405180830381600087803b15801561226b57600080fd5b505af115801561227f573d6000803e3d6000fd5b50505050505050505050565b600060138260405161229d919061454c565b9081526040519081900360200190205460ff1692915050565b600954604051631c5750f960e11b81526004810183905260009182916001600160a01b03909116906338aea1f29060240161012060405180830381865afa158015612305573d6000803e3d6000fd5b505050506040513d601f19601f82011682018060405250810190612329919061465e565b9050336001600160a01b031681602001516001600160a01b03160361242457600954604051632a7a752960e21b8152600481018590526000916001600160a01b03169063a9e9d4a4906024016020604051808303816000875af1158015612394573d6000803e3d6000fd5b505050506040513d601f19601f820116820180604052508101906123b89190614a7b565b905080156123e8576123e882606001513384600001518560c0015160405180602001604052806000815250612e4f565b60405181151581527fe38e50a89766248233feffed7b43385c8186be090b5f79d929ceeecf5b08d15f9060200160405180910390a19392505050565b604051600081527fe38e50a89766248233feffed7b43385c8186be090b5f79d929ceeecf5b08d15f9060200160405180910390a150600092915050565b60085460405163d572cd8960e01b8152600481018590526001600160a01b0384811660248301523360448301528315156064830152600092169063d572cd89906084016020604051808303816000875af11580156124c3573d6000803e3d6000fd5b505050506040513d601f19601f820116820180604052508101906124e79190614a7b565b949350505050565b60606108c982610c99565b600854604051633c78cc8360e11b81526004810183905260009182916001600160a01b03909116906378f199069060240160e060405180830381865afa158015612548573d6000803e3d6000fd5b505050506040513d601f19601f8201168201806040525081019061256c91906146ee565b9050336001600160a01b031681602001516001600160a01b03160361242457600854604051626b016560e51b8152600481018590526000916001600160a01b031690630d602ca0906024016020604051808303816000875af11580156125d6573d6000803e3d6000fd5b505050506040513d601f19601f820116820180604052508101906125fa9190614a7b565b905080156123e8576123e88260400151338460000151856080015160405180602001604052806000815250612e4f565b6001600160a01b038516158061263e575033155b1561265f576000604051633992dcbd60e21b815260040161089d9190614221565b336001600160a01b0386160361268a5733604051633992dcbd60e21b815260040161089d9190614221565b600d548110156126b0576040516307b263f160e11b81526004810182905260240161089d565b600854604051630527095960e51b81526001600160a01b039091169063a4e12b2090612251908990899033908a908a908a908a90600401614a3f565b60006126f882336110ce565b61270457506000919050565b600061270f83612825565b111561271d57506001919050565b600854604051634780710d60e01b81526001600160a01b0390911690634780710d9061274f9085903390600401614475565b602060405180830381865afa15801561276c573d6000803e3d6000fd5b505050506040513d601f19601f820116820180604052508101906127909190614a7b565b1561279d57506001919050565b600954604051632e8742f960e11b81526001600160a01b0390911690635d0e85f2906127cf9085903390600401614475565b602060405180830381865afa1580156127ec573d6000803e3d6000fd5b505050506040513d601f19601f820116820180604052508101906128109190614a7b565b1561281d57506001919050565b506000919050565b600061283082611114565b6128398361218d565b6108c99190614796565b61284b613a87565b5060009081526012602090815260409182902082516060810184528154815260018201546001600160a01b031692810192909252600201549181019190915290565b60095460405163c0a6417160e01b81526004810183905260009182916001600160a01b039091169063c0a641719060240161012060405180830381865afa1580156128dc573d6000803e3d6000fd5b505050506040513d601f19601f82011682018060405250810190612900919061465e565b9050336001600160a01b031681602001516001600160a01b0316036129bf576009546040516303a7c9d160e11b8152600481018590526000916001600160a01b03169063074f93a2906024016020604051808303816000875af115801561296b573d6000803e3d6000fd5b505050506040513d601f19601f8201168201806040525081019061298f9190614a7b565b90508015610d7257610d7282604001513384600001518560c0015160405180602001604052806000815250612e4f565b50600092915050565b6001600160a01b0385163314806129e457506129e4853361073b565b612a005760405162461bcd60e51b815260040161089d906147a9565b6112ea8585858585612e4f565b612a15612df5565b6001600160a01b038116612a7a5760405162461bcd60e51b815260206004820152602660248201527f4f776e61626c653a206e6577206f776e657220697320746865207a65726f206160448201526564647265737360d01b606482015260840161089d565b612a8381613183565b50565b612a8e612df5565b80600003612ab25760405163713bd66960e01b81526004810182905260240161089d565b600f55565b612ac184826110ce565b612ae2578381604051633df9e10b60e11b815260040161089d929190614475565b6001600160a01b0381163314612b0d5733604051633992dcbd60e21b815260040161089d9190614221565b600854604051636423566d60e01b81526001600160a01b0390911690636423566d906116c59087908790879087906004016147f7565b6001600160a01b038416612ba35760405162461bcd60e51b815260206004820152602160248201527f455243313135353a206d696e7420746f20746865207a65726f206164647265736044820152607360f81b606482015260840161089d565b336000612baf856132b5565b90506000612bbc856132b5565b9050612bcd83600089858589613300565b6000868152602081815260408083206001600160a01b038b16845290915281208054879290612bfd908490614783565b909155505060408051878152602081018790526001600160a01b03808a1692600092918716917fc3d58168c5ae7397731d063d5bbf3d657854427343f4c083240f7aacaa2d0f62910160405180910390a4612c5d836000898585896133d6565b611b378360008989898961371b565b6000828152600460205260409020612c848282614ade565b50817f6bb7ff708619ba0610cba295a58592e0451dee2622938c8755667688daf3529b612cb084610c99565b604051612cbd9190613d7a565b60405180910390a25050565b60408051606080820183528482523360208084018281528486018781526000898152601284528790209551865590516001860180546001600160a01b0319166001600160a01b03909216919091179055516002909401939093558351868152928301529181018390527f1b0894b5dbaa4e03eefef0639cb8bdd09459f893cb73161de2aad97a30c66f78910160405180910390a15050565b606060028054612d709061459d565b80601f0160208091040260200160405190810160405280929190818152602001828054612d9c9061459d565b8015612de95780601f10612dbe57610100808354040283529160200191612de9565b820191906000526020600020905b815481529060010190602001808311612dcc57829003601f168201915b50505050509050919050565b6005546001600160a01b03163314611c2f5760405162461bcd60e51b815260206004820181905260248201527f4f776e61626c653a2063616c6c6572206973206e6f7420746865206f776e6572604482015260640161089d565b6001600160a01b038416612e755760405162461bcd60e51b815260040161089d90614b9d565b336000612e81856132b5565b90506000612e8e856132b5565b9050612e9e838989858589613300565b6000868152602081815260408083206001600160a01b038c16845290915290205485811015612edf5760405162461bcd60e51b815260040161089d90614be2565b6000878152602081815260408083206001600160a01b038d8116855292528083208985039055908a16825281208054889290612f1c908490614783565b909155505060408051888152602081018890526001600160a01b03808b16928c821692918816917fc3d58168c5ae7397731d063d5bbf3d657854427343f4c083240f7aacaa2d0f62910160405180910390a4612f7c848a8a86868a6133d6565b611a30848a8a8a8a8a61371b565b8151835114612fec5760405162461bcd60e51b815260206004820152602860248201527f455243313135353a2069647320616e6420616d6f756e7473206c656e677468206044820152670dad2e6dac2e8c6d60c31b606482015260840161089d565b6001600160a01b0384166130125760405162461bcd60e51b815260040161089d90614b9d565b33613021818787878787613300565b60005b845181101561310757600085828151811061304157613041614507565b60200260200101519050600085838151811061305f5761305f614507565b602090810291909101810151600084815280835260408082206001600160a01b038e1683529093529190912054909150818110156130af5760405162461bcd60e51b815260040161089d90614be2565b6000838152602081815260408083206001600160a01b038e8116855292528083208585039055908b168252812080548492906130ec908490614783565b925050819055505050508061310090614533565b9050613024565b50846001600160a01b0316866001600160a01b0316826001600160a01b03167f4a39dc06d4c0dbc64b70af90fd698a233a518aa5d07e595d983b8c0526c8f7fb8787604051613157929190614c2c565b60405180910390a461316d8187878787876133d6565b61317b818787878787613876565b505050505050565b600580546001600160a01b038381166001600160a01b0319831681179093556040519116919082907f8be0079c531659141344cd1fd0a4f28419497f9722a3daafe3b4186f6b6457e090600090a35050565b816001600160a01b0316836001600160a01b0316036132485760405162461bcd60e51b815260206004820152602960248201527f455243313135353a2073657474696e6720617070726f76616c20737461747573604482015268103337b91039b2b63360b91b606482015260840161089d565b6001600160a01b03838116600081815260016020908152604080832094871680845294825291829020805460ff191686151590811790915591519182527f17307eab39ab6107e8899845ad3d59bd9653f200f220920489ca2b5937696c31910160405180910390a3505050565b604080516001808252818301909252606091600091906020808301908036833701905050905082816000815181106132ef576132ef614507565b602090810291909101015292915050565b6001600160a01b03851615801561331f57506001600160a01b03841615155b1561334f5760008360008151811061333957613339614507565b6020026020010151905061334d8582613931565b505b6001600160a01b0385161580159061336f57506001600160a01b03841615155b801561338d5750846001600160a01b0316846001600160a01b031614155b1561317b576000836000815181106133a7576133a7614507565b602002602001015190506133bb8582613931565b6133c58682610836565b600003611b3757611b37868261398d565b60006001600160a01b0386161580156133f757506001600160a01b03851615155b1561350d5760008460008151811061341157613411614507565b602090810291909101015160075460405163defec46760e01b81529192506001600160a01b03169063defec4679061344f9084908a90600401614475565b602060405180830381865afa15801561346c573d6000803e3d6000fd5b505050506040513d601f19601f82011682018060405250810190613490919061445c565b61349a8783610836565b6134a49190614796565b600a5460405163d8e7337f60e01b81529193506001600160a01b03169063d8e7337f906134d990859085908b90600401614c5a565b600060405180830381600087803b1580156134f357600080fd5b505af1158015613507573d6000803e3d6000fd5b50505050505b6001600160a01b0386161580159061352d57506001600160a01b03851615155b801561354b5750856001600160a01b0316856001600160a01b031614155b15611b375760008460008151811061356557613565614507565b602090810291909101015160075460405163defec46760e01b81529192506001600160a01b03169063defec467906135a39084908a90600401614475565b602060405180830381865afa1580156135c0573d6000803e3d6000fd5b505050506040513d601f19601f820116820180604052508101906135e4919061445c565b6135ee8783610836565b6135f89190614796565b600a5460405163d8e7337f60e01b81529193506001600160a01b03169063d8e7337f9061362d90859085908b90600401614c5a565b600060405180830381600087803b15801561364757600080fd5b505af115801561365b573d6000803e3d6000fd5b505060075460405163defec46760e01b81526001600160a01b03909116925063defec46791506136919084908b90600401614475565b602060405180830381865afa1580156136ae573d6000803e3d6000fd5b505050506040513d601f19601f820116820180604052508101906136d2919061445c565b6136dc8883610836565b6136e69190614796565b600a5460405163d8e7337f60e01b81529193506001600160a01b03169063d8e7337f9061109290859085908c90600401614c5a565b6001600160a01b0384163b1561317b5760405163f23a6e6160e01b81526001600160a01b0385169063f23a6e619061375f9089908990889088908890600401614c79565b6020604051808303816000875af192505050801561379a575060408051601f3d908101601f1916820190925261379791810190614cb3565b60015b613846576137a6614cd0565b806308c379a0036137df57506137ba614cec565b806137c557506137e1565b8060405162461bcd60e51b815260040161089d9190613d7a565b505b60405162461bcd60e51b815260206004820152603460248201527f455243313135353a207472616e7366657220746f206e6f6e2d455243313135356044820152732932b1b2b4bb32b91034b6b83632b6b2b73a32b960611b606482015260840161089d565b6001600160e01b0319811663f23a6e6160e01b14611b375760405162461bcd60e51b815260040161089d90614d75565b6001600160a01b0384163b1561317b5760405163bc197c8160e01b81526001600160a01b0385169063bc197c81906138ba9089908990889088908890600401614dbd565b6020604051808303816000875af19250505080156138f5575060408051601f3d908101601f191682019092526138f291810190614cb3565b60015b613901576137a6614cd0565b6001600160e01b0319811663bc197c8160e01b14611b375760405162461bcd60e51b815260040161089d90614d75565b61393b81836110ce565b611f96576001600160a01b0382166000818152601560208181526040808420805460148452828620818752845291852087905594845291905282549092909161398383614533565b9190505550505050565b6001600160a01b0382166000908152601560205260408120546139b290600190614796565b905060005b6139c2826001614783565b811015613a31576001600160a01b03841660009081526014602090815260408083208484529091529020548303613a1f576001600160a01b0384166000908152601460209081526040808320858452909152808220548383529120555b80613a2981614533565b9150506139b7565b506001600160a01b0383166000908152601560205260408120805491613a5683614e1b565b90915550506001600160a01b0390921660009081526014602090815260408083209483529390529182209190915550565b60405180606001604052806000815260200160006001600160a01b03168152602001600081525090565b6001600160a01b0381168114612a8357600080fd5b60008060408385031215613ad957600080fd5b8235613ae481613ab1565b946020939093013593505050565b6001600160e01b031981168114612a8357600080fd5b600060208284031215613b1a57600080fd5b8135610d7281613af2565b602080825282518282018190526000919060409081850190868401855b82811015613b8557815180518552868101516001600160a01b03168786015285810151868601526060908101519085015260809093019290850190600101613b42565b5091979650505050505050565b634e487b7160e01b600052604160045260246000fd5b601f8201601f191681016001600160401b0381118282101715613bcd57613bcd613b92565b6040525050565b60405161012081016001600160401b0381118282101715613bf757613bf7613b92565b60405290565b60006001600160401b03821115613c1657613c16613b92565b50601f01601f191660200190565b600082601f830112613c3557600080fd5b8135613c4081613bfd565b604051613c4d8282613ba8565b828152856020848701011115613c6257600080fd5b82602086016020830137600092810160200192909252509392505050565b60008060008060808587031215613c9657600080fd5b84356001600160401b0380821115613cad57600080fd5b613cb988838901613c24565b9550602087013594506040870135915080821115613cd657600080fd5b613ce288838901613c24565b93506060870135915080821115613cf857600080fd5b50613d0587828801613c24565b91505092959194509250565b600060208284031215613d2357600080fd5b5035919050565b60005b83811015613d45578181015183820152602001613d2d565b50506000910152565b60008151808452613d66816020860160208601613d2a565b601f01601f19169290920160200192915050565b602081526000610d726020830184613d4e565b600080600060608486031215613da257600080fd5b505081359360208301359350604090920135919050565b60008060408385031215613dcc57600080fd5b823591506020830135613dde81613ab1565b809150509250929050565b600080600060608486031215613dfe57600080fd5b833592506020840135613e1081613ab1565b929592945050506040919091013590565b60006001600160401b03821115613e3a57613e3a613b92565b5060051b60200190565b600082601f830112613e5557600080fd5b81356020613e6282613e21565b604051613e6f8282613ba8565b83815260059390931b8501820192828101915086841115613e8f57600080fd5b8286015b84811015613eaa5780358352918301918301613e93565b509695505050505050565b600080600080600060a08688031215613ecd57600080fd5b8535613ed881613ab1565b94506020860135613ee881613ab1565b935060408601356001600160401b0380821115613f0457600080fd5b613f1089838a01613e44565b94506060880135915080821115613f2657600080fd5b613f3289838a01613e44565b93506080880135915080821115613f4857600080fd5b50613f5588828901613c24565b9150509295509295909350565b60008060408385031215613f7557600080fd5b82356001600160401b0380821115613f8c57600080fd5b818501915085601f830112613fa057600080fd5b81356020613fad82613e21565b604051613fba8282613ba8565b83815260059390931b8501820192828101915089841115613fda57600080fd5b948201945b83861015614001578535613ff281613ab1565b82529482019490820190613fdf565b9650508601359250508082111561401757600080fd5b5061402485828601613e44565b9150509250929050565b600081518084526020808501945080840160005b8381101561405e57815187529582019590820190600101614042565b509495945050505050565b602081526000610d72602083018461402e565b6000806000806080858703121561409257600080fd5b84359350602085013592506040850135915060608501356140b281613ab1565b939692955090935050565b600080600080600060a086880312156140d557600080fd5b8535945060208601356140e781613ab1565b94979496505050506040830135926060810135926080909101359150565b6000602080830181845280855180835260408601915060408160051b870101925083870160005b8281101561415a57603f19888603018452614148858351613d4e565b9450928501929085019060010161412c565b5092979650505050505050565b6020808252825182820181905260009190848201906040850190845b818110156141a85783516001600160a01b031683529284019291840191600101614183565b50909695505050505050565b602080825282518282018190526000919060409081850190868401855b82811015613b8557815180518552868101516001600160a01b0390811688870152868201511686860152606080820151908601526080908101519085015260a090930192908501906001016141d1565b6001600160a01b0391909116815260200190565b8015158114612a8357600080fd5b6000806040838503121561425657600080fd5b823561426181613ab1565b91506020830135613dde81614235565b60008060006060848603121561428657600080fd5b83359250602084013561429881613ab1565b915060408401356142a881614235565b809150509250925092565b805182526020808201516001600160a01b031690830152604090810151910152565b6020808252825182820181905260009190848201906040850190845b818110156141a8576143048385516142b3565b92840192606092909201916001016142f1565b60008060008060008060c0878903121561433057600080fd5b86359550602087013561434281613ab1565b95989597505050506040840135936060810135936080820135935060a0909101359150565b60006020828403121561437957600080fd5b81356001600160401b0381111561438f57600080fd5b6124e784828501613c24565b600080604083850312156143ae57600080fd5b82356143b981613ab1565b91506020830135613dde81613ab1565b606081016108c982846142b3565b600080600080600060a086880312156143ef57600080fd5b85356143fa81613ab1565b9450602086013561440a81613ab1565b9350604086013592506060860135915060808601356001600160401b0381111561443357600080fd5b613f5588828901613c24565b60006020828403121561445157600080fd5b8135610d7281613ab1565b60006020828403121561446e57600080fd5b5051919050565b9182526001600160a01b0316602082015260400190565b805161449781613ab1565b919050565b6000608082840312156144ae57600080fd5b604051608081018181106001600160401b03821117156144d0576144d0613b92565b6040528251815260208301516144e581613ab1565b6020820152604083810151908201526060928301519281019290925250919050565b634e487b7160e01b600052603260045260246000fd5b634e487b7160e01b600052601160045260246000fd5b6000600182016145455761454561451d565b5060010190565b6000825161455e818460208701613d2a565b9190910192915050565b8381526060602082015260006145816060830185613d4e565b82810360408401526145938185613d4e565b9695505050505050565b600181811c908216806145b157607f821691505b6020821081036145d157634e487b7160e01b600052602260045260246000fd5b50919050565b60008084546145e58161459d565b600182811680156145fd576001811461461257614641565b60ff1984168752821515830287019450614641565b8860005260208060002060005b858110156146385781548a82015290840190820161461f565b50505082870194505b505050508351614655818360208801613d2a565b01949350505050565b6000610120828403121561467157600080fd5b614679613bd4565b825181526146896020840161448c565b602082015261469a6040840161448c565b60408201526146ab6060840161448c565b60608201526080830151608082015260a083015160a082015260c083015160c082015260e083015160e08201526101008084015181830152508091505092915050565b600060e0828403121561470057600080fd5b60405160e081018181106001600160401b038211171561472257614722613b92565b60405282518152602083015161473781613ab1565b6020820152604083015161474a81613ab1565b80604083015250606083015160608201526080830151608082015260a083015160a082015260c083015160c08201528091505092915050565b808201808211156108c9576108c961451d565b818103818111156108c9576108c961451d565b6020808252602e908201527f455243313135353a2063616c6c6572206973206e6f7420746f6b656e206f776e60408201526d195c881bdc88185c1c1c9bdd995960921b606082015260800190565b938452602084019290925260408301526001600160a01b0316606082015260800190565b6000602080838503121561482e57600080fd5b82516001600160401b038082111561484557600080fd5b818501915085601f83011261485957600080fd5b815161486481613e21565b604080516148728382613ba8565b83815260059390931b850186019286810192508984111561489257600080fd5b8686015b8481101561490f578051868111156148ae5760008081fd5b8701603f81018c136148c05760008081fd5b888101516148cd81613bfd565b85516148d98282613ba8565b8281528e878486010111156148f057600091508182fd5b6148ff838d8301898701613d2a565b8752505050928701928701614896565b509998505050505050505050565b6000602080838503121561493057600080fd5b82516001600160401b0381111561494657600080fd5b8301601f8101851361495757600080fd5b805161496281613e21565b60405161496f8282613ba8565b82815260059290921b830184019184810191508783111561498f57600080fd5b928401925b828410156149b65783516149a781613ab1565b82529284019290840190614994565b979650505050505050565b600060a082840312156149d357600080fd5b60405160a081018181106001600160401b03821117156149f5576149f5613b92565b604052825181526020830151614a0a81613ab1565b60208201526040830151614a1d81613ab1565b6040820152606083810151908201526080928301519281019290925250919050565b9687526001600160a01b0395861660208801529390941660408601526060850191909152608084015260a083019190915260c082015260e00190565b600060208284031215614a8d57600080fd5b8151610d7281614235565b601f82111561150b57600081815260208120601f850160051c81016020861015614abf5750805b601f850160051c820191505b8181101561317b57828155600101614acb565b81516001600160401b03811115614af757614af7613b92565b614b0b81614b05845461459d565b84614a98565b602080601f831160018114614b405760008415614b285750858301515b600019600386901b1c1916600185901b17855561317b565b600085815260208120601f198616915b82811015614b6f57888601518255948401946001909101908401614b50565b5085821015614b8d5787850151600019600388901b60f8161c191681555b5050505050600190811b01905550565b60208082526025908201527f455243313135353a207472616e7366657220746f20746865207a65726f206164604082015264647265737360d81b606082015260800190565b6020808252602a908201527f455243313135353a20696e73756666696369656e742062616c616e636520666f60408201526939103a3930b739b332b960b11b606082015260800190565b604081526000614c3f604083018561402e565b8281036020840152614c51818561402e565b95945050505050565b92835260208301919091526001600160a01b0316604082015260600190565b6001600160a01b03868116825285166020820152604081018490526060810183905260a0608082018190526000906149b690830184613d4e565b600060208284031215614cc557600080fd5b8151610d7281613af2565b600060033d1115614ce95760046000803e5060005160e01c5b90565b600060443d1015614cfa5790565b6040516003193d81016004833e81513d6001600160401b038160248401118184111715614d2957505050505090565b8285019150815181811115614d415750505050505090565b843d8701016020828501011115614d5b5750505050505090565b614d6a60208286010187613ba8565b509095945050505050565b60208082526028908201527f455243313135353a204552433131353552656365697665722072656a656374656040820152676420746f6b656e7360c01b606082015260800190565b6001600160a01b0386811682528516602082015260a060408201819052600090614de99083018661402e565b8281036060840152614dfb818661402e565b90508281036080840152614e0f8185613d4e565b98975050505050505050565b600081614e2a57614e2a61451d565b50600019019056fea2646970667358221220a77d5e6d18a324aacd6bbddec2aea1d170a8910853a3b4417b887ea0ef797cee64736f6c6343000811003368747470733a2f2f6578616d706c652e636f6d2f6170692f7b69647d2e6a736f6e",
  "immutableReferences": {},
  "source": "// SPDX-License-Identifier: MIT\r\n// pragma solidity >=0.4.22 <0.9.0;\r\npragma solidity ^0.8.17;\r\n\r\nimport \"@openzeppelin/contracts/token/ERC1155/extensions/ERC1155URIStorage.sol\";\r\nimport \"@openzeppelin/contracts/utils/Counters.sol\";\r\nimport \"@openzeppelin/contracts/access/Ownable.sol\";\r\n\r\nimport \"./sell/BookSellingStorage.sol\";\r\nimport \"./rent/BookRentingStorage.sol\";\r\nimport \"./share/BookSharingStorage.sol\";\r\nimport \"./BookTemporary.sol\";\r\nimport \"./ListRealOwners.sol\";\r\nimport \"./keyManager/SecretKeyStorage.sol\";\r\n\r\ncontract BookStore is ERC1155URIStorage, Ownable {\r\n  using Counters for Counters.Counter;\r\n\r\n  struct NFTBook {\r\n    uint256 tokenId;\r\n    address author;\r\n    uint256 quantity;\r\n  }\r\n\r\n  event NFTBookCreated(uint256 tokenId, address author, uint256 quantity);\r\n  // Event handler when recall book\r\n  event RecallBookResult(bool isSuccess);\r\n\r\n  BookSellingStorage private _bookSellingStorage;\r\n  BookTemporary private _bookTemporary;\r\n  BookRentingStorage private _bookRentingStorage;\r\n  BookSharingStorage private _bookSharingStorage;\r\n  ListRealOwners private _listRealOwners;\r\n  SecretKeyStorage private _secretKeyStorage;\r\n\r\n  uint MAX_BALANCE = 500;\r\n  uint MIN_TIME = 604800; // Rental period is at least one week\r\n  uint public listingPrice = 0.025 ether;\r\n  uint public lendingPrice = 0.001 ether;\r\n  uint public sharingPrice = 0.0005 ether;\r\n\r\n  Counters.Counter private _tokenIds;\r\n\r\n  mapping(uint => NFTBook) _idToNFTBook;\r\n  mapping(string => bool) private _usedTokenURIs;\r\n\r\n  mapping(address => mapping(uint => uint)) private _ownedTokens;\r\n  mapping(address => uint) private _totalOwnedToken;\r\n\r\n  constructor(\r\n    BookSellingStorage bookSellingStorage,\r\n    BookTemporary bookTemporary,\r\n    ListRealOwners listRealOwners,\r\n    SecretKeyStorage secretKeyStorage\r\n  ) ERC1155(\"https://example.com/api/{id}.json\") {\r\n    _bookSellingStorage = bookSellingStorage;\r\n    _bookTemporary = bookTemporary;\r\n    _bookRentingStorage = _bookTemporary.getBookRentingStorage();\r\n    _bookSharingStorage = _bookTemporary.getBookSharingStorage();\r\n    _listRealOwners = listRealOwners;\r\n    _secretKeyStorage = secretKeyStorage;\r\n  }\r\n\r\n  function getUri(uint tokenId) public view returns (string memory) {\r\n    return ERC1155URIStorage.uri(tokenId);\r\n  }\r\n\r\n  function setListingPrice(uint newPrice) external onlyOwner {\r\n    if (newPrice == 0) {\r\n      revert Error.InvalidPriceError(newPrice);\r\n    }\r\n    listingPrice = newPrice;\r\n  }\r\n\r\n  function setLendingPrice(uint newPrice) external onlyOwner {\r\n    if (newPrice == 0) {\r\n      revert Error.InvalidPriceError(newPrice);\r\n    }\r\n    lendingPrice = newPrice;\r\n  }\r\n\r\n  function setSharingPrice(uint newPrice) external onlyOwner {\r\n    if (newPrice == 0) {\r\n      revert Error.InvalidPriceError(newPrice);\r\n    }\r\n    sharingPrice = newPrice;\r\n  }\r\n\r\n  function _beforeTokenTransfer(\r\n    address operator,\r\n    address from,\r\n    address to,\r\n    uint256[] memory ids,\r\n    uint256[] memory amounts,\r\n    bytes memory data\r\n  ) internal virtual override {\r\n    super._beforeTokenTransfer(operator, from, to, ids, amounts, data);\r\n\r\n    // Mint book\r\n    if (from == address(0) && to != address(0)) {\r\n      uint tokenId = ids[0];\r\n      _addTokenToOwnerEnumeration(to, tokenId);\r\n    }\r\n\r\n    // Buy books/ Borrow books / Share books\r\n    if (from != address(0) && to != address(0) && to != from) {\r\n      uint tokenId = ids[0];\r\n      _addTokenToOwnerEnumeration(to, tokenId);\r\n      if (ERC1155.balanceOf(from, tokenId) == 0) {\r\n        _removeTokenFromOwnerEnumeration(from, tokenId);\r\n      }\r\n    }\r\n  }\r\n\r\n  function getAllRealOwnerOfTokenId(\r\n    uint tokenId\r\n  ) public view returns (address[] memory) {\r\n    return _listRealOwners.getAllRealOwnerOfTokenId(tokenId);\r\n  }\r\n\r\n  function _afterTokenTransfer(\r\n    address operator,\r\n    address from,\r\n    address to,\r\n    uint256[] memory ids,\r\n    uint256[] memory amounts,\r\n    bytes memory data\r\n  ) internal virtual override {\r\n    super._afterTokenTransfer(operator, from, to, ids, amounts, data);\r\n    uint realQuantity;\r\n    // Mint book\r\n    if (from == address(0) && to != address(0)) {\r\n      uint tokenId = ids[0];\r\n      realQuantity =\r\n        ERC1155.balanceOf(to, tokenId) -\r\n        _bookTemporary.getAmountOfUnsalableBooksInTemporary(tokenId, to);\r\n      _listRealOwners.updateRealOwnerOfTokenIdIfNeed(realQuantity, tokenId, to);\r\n    }\r\n\r\n    // Buy books/ Borrow books / Share books\r\n    if (from != address(0) && to != address(0) && to != from) {\r\n      uint tokenId = ids[0];\r\n      realQuantity =\r\n        ERC1155.balanceOf(to, tokenId) -\r\n        _bookTemporary.getAmountOfUnsalableBooksInTemporary(tokenId, to);\r\n      _listRealOwners.updateRealOwnerOfTokenIdIfNeed(realQuantity, tokenId, to);\r\n      realQuantity =\r\n        ERC1155.balanceOf(from, tokenId) -\r\n        _bookTemporary.getAmountOfUnsalableBooksInTemporary(tokenId, from);\r\n      _listRealOwners.updateRealOwnerOfTokenIdIfNeed(\r\n        realQuantity,\r\n        tokenId,\r\n        from\r\n      );\r\n    }\r\n  }\r\n\r\n  function getBalanceOfOwnerBook(uint tokenId) public view returns (uint) {\r\n    if (!isOwnerOfToken(tokenId, msg.sender)) {\r\n      revert Error.InvalidOwnerError(tokenId, msg.sender);\r\n    }\r\n\r\n    return ERC1155.balanceOf(msg.sender, tokenId);\r\n  }\r\n\r\n  function _addTokenToOwnerEnumeration(address owner, uint tokenId) private {\r\n    if (!isOwnerOfToken(tokenId, owner)) {\r\n      uint length = _totalOwnedToken[owner];\r\n      _ownedTokens[owner][length] = tokenId;\r\n      _totalOwnedToken[owner]++;\r\n    }\r\n  }\r\n\r\n  function _removeTokenFromOwnerEnumeration(\r\n    address owner,\r\n    uint tokenId\r\n  ) private {\r\n    uint lastTokenIndex = _totalOwnedToken[owner] - 1;\r\n\r\n    for (uint i = 0; i < lastTokenIndex + 1; i++) {\r\n      if (tokenId == _ownedTokens[owner][i]) {\r\n        _ownedTokens[owner][i] = _ownedTokens[owner][lastTokenIndex];\r\n      }\r\n    }\r\n\r\n    _totalOwnedToken[owner]--;\r\n    delete _ownedTokens[owner][lastTokenIndex];\r\n  }\r\n\r\n  function getNftBook(uint tokenId) public view returns (NFTBook memory) {\r\n    return _idToNFTBook[tokenId];\r\n  }\r\n\r\n  function isTokenURIExist(string memory tokenURI) public view returns (bool) {\r\n    return _usedTokenURIs[tokenURI];\r\n  }\r\n\r\n  function mintBook(\r\n    string memory tokenURI,\r\n    uint256 quantity,\r\n    string memory privateKey,\r\n    string memory iv\r\n  ) public payable returns (uint) {\r\n    if (isTokenURIExist(tokenURI)) {\r\n      revert Error.InvalidTokenUriError(tokenURI);\r\n    }\r\n    if (quantity == 0 || quantity > MAX_BALANCE) {\r\n      revert Error.InvalidAmountError(quantity);\r\n    }\r\n    if (msg.value != listingPrice) {\r\n      revert Error.InvalidPriceError(msg.value);\r\n    }\r\n\r\n    _tokenIds.increment();\r\n    uint newTokenId = _tokenIds.current();\r\n\r\n    _mint(msg.sender, newTokenId, quantity, \"\");\r\n    _setURI(newTokenId, tokenURI);\r\n    _createNftBook(newTokenId, quantity);\r\n\r\n    _usedTokenURIs[tokenURI] = true;\r\n    _secretKeyStorage.addSecretKey(newTokenId, privateKey, iv);\r\n    return newTokenId;\r\n  }\r\n\r\n  function getSecretKey(uint tokenId) public view returns (string[] memory) {\r\n    // Need check is readable?\r\n    if (!isBookReadableByUser(tokenId)) {\r\n      revert Error.NoReadingPermissionError(tokenId);\r\n    }\r\n    string[] memory sk = _secretKeyStorage.getSecretKey(tokenId);\r\n    return sk;\r\n  }\r\n\r\n  function isBookReadableByUser(uint tokenId) public view returns (bool) {\r\n    if (!isOwnerOfToken(tokenId, msg.sender)) {\r\n      return false;\r\n    }\r\n    if (getAmountUnUsedBook(tokenId) > 0) {\r\n      return true;\r\n    }\r\n\r\n    if (_bookRentingStorage.isBorrowedBookReadable(tokenId, msg.sender)) {\r\n      return true;\r\n    }\r\n\r\n    if (_bookSharingStorage.isSharedBookReadable(tokenId, msg.sender)) {\r\n      return true;\r\n    }\r\n    return false;\r\n  }\r\n\r\n  function _createNftBook(uint tokenId, uint256 quantity) private {\r\n    _idToNFTBook[tokenId] = NFTBook(tokenId, msg.sender, quantity);\r\n    emit NFTBookCreated(tokenId, msg.sender, quantity);\r\n  }\r\n\r\n  function isOwnerOfToken(\r\n    uint tokenId,\r\n    address owner\r\n  ) public view returns (bool) {\r\n    return ERC1155.balanceOf(owner, tokenId) > 0;\r\n  }\r\n\r\n  function getOwnedNFTBooks() public view returns (NFTBook[] memory) {\r\n    uint ownedItemsCount = _totalOwnedToken[msg.sender];\r\n    NFTBook[] memory books = new NFTBook[](ownedItemsCount);\r\n\r\n    for (uint i = 0; i < ownedItemsCount; i++) {\r\n      uint tokenId = _ownedTokens[msg.sender][i];\r\n      NFTBook memory book = _idToNFTBook[tokenId];\r\n\r\n      books[i] = book;\r\n    }\r\n\r\n    return books;\r\n  }\r\n\r\n  function getOwnedListedBooks()\r\n    public\r\n    view\r\n    returns (BookSellingStorage.BookSelling[] memory)\r\n  {\r\n    uint ownedListedBookCount = _bookSellingStorage.getTotalOwnedListedBook(\r\n      msg.sender\r\n    );\r\n    uint ownedItemsCount = _totalOwnedToken[msg.sender];\r\n    BookSellingStorage.BookSelling[]\r\n      memory books = new BookSellingStorage.BookSelling[](ownedListedBookCount);\r\n\r\n    uint currentIndex = 0;\r\n    for (uint i = 0; i < ownedItemsCount; i++) {\r\n      uint tokenId = _ownedTokens[msg.sender][i];\r\n      BookSellingStorage.BookSelling memory book = _bookSellingStorage\r\n        .getListedBook(tokenId, msg.sender);\r\n      if (book.tokenId != 0 && book.seller != address(0)) {\r\n        books[currentIndex] = book;\r\n        currentIndex++;\r\n      }\r\n    }\r\n\r\n    return books;\r\n  }\r\n\r\n  function getOwnedLendingBooks()\r\n    public\r\n    view\r\n    returns (BookRentingStorage.LendBook[] memory)\r\n  {\r\n    uint ownedLendBookCount = _bookRentingStorage.getTotalOwnedLendBook(\r\n      msg.sender\r\n    );\r\n    uint ownedItemsCount = _totalOwnedToken[msg.sender];\r\n    BookRentingStorage.LendBook[]\r\n      memory books = new BookRentingStorage.LendBook[](ownedLendBookCount);\r\n\r\n    uint currentIndex = 0;\r\n    for (uint i = 0; i < ownedItemsCount; i++) {\r\n      uint tokenId = _ownedTokens[msg.sender][i];\r\n      BookRentingStorage.LendBook memory book = _bookRentingStorage.getLendBook(\r\n        tokenId,\r\n        msg.sender\r\n      );\r\n      if (book.tokenId != 0 && book.renter != address(0)) {\r\n        books[currentIndex] = book;\r\n        currentIndex++;\r\n      }\r\n    }\r\n\r\n    return books;\r\n  }\r\n\r\n  function getAmountUnUsedBook(uint256 tokenId) public view returns (uint) {\r\n    return\r\n      getBalanceOfOwnerBook(tokenId) -\r\n      getAmountOfAllTypeBooksUntradeable(tokenId);\r\n  }\r\n\r\n  function getAmountOfAllTypeBooksUntradeable(\r\n    uint256 tokenId\r\n  ) public view returns (uint) {\r\n    return\r\n      _bookSellingStorage.getAmountOfListedBooks(tokenId, msg.sender) +\r\n      _bookTemporary.getAmountOfAllTypeBooksInTemporary(tokenId, msg.sender);\r\n  }\r\n\r\n  function sellBooks(\r\n    uint256 tokenId,\r\n    uint price,\r\n    uint256 amount\r\n  ) public payable {\r\n    if (!isOwnerOfToken(tokenId, msg.sender)) {\r\n      revert Error.InvalidOwnerError(tokenId, msg.sender);\r\n    }\r\n    if (\r\n      getAmountOfAllTypeBooksUntradeable(tokenId) + amount >\r\n      ERC1155.balanceOf(msg.sender, tokenId) ||\r\n      amount == 0\r\n    ) {\r\n      revert Error.InvalidAmountError(amount);\r\n    }\r\n    if (msg.value != listingPrice) {\r\n      revert Error.InvalidPriceError(msg.value);\r\n    }\r\n    _bookSellingStorage.sellListedBooks(tokenId, price, amount, msg.sender);\r\n  }\r\n\r\n  function lendBooks(\r\n    uint256 tokenId,\r\n    uint price,\r\n    uint256 amount\r\n  ) public payable {\r\n    if (!isOwnerOfToken(tokenId, msg.sender)) {\r\n      revert Error.InvalidOwnerError(tokenId, msg.sender);\r\n    }\r\n    if (\r\n      getAmountOfAllTypeBooksUntradeable(tokenId) + amount >\r\n      ERC1155.balanceOf(msg.sender, tokenId) ||\r\n      amount == 0\r\n    ) {\r\n      revert Error.InvalidAmountError(amount);\r\n    }\r\n    if (msg.value != lendingPrice) {\r\n      revert Error.InvalidPriceError(msg.value);\r\n    }\r\n    _bookRentingStorage.lendBooks(tokenId, msg.sender, price, amount);\r\n  }\r\n\r\n  function updateBookFromSale(\r\n    uint256 tokenId,\r\n    uint newPrice,\r\n    uint256 newAmount,\r\n    address seller\r\n  ) public {\r\n    if (!isOwnerOfToken(tokenId, msg.sender)) {\r\n      revert Error.InvalidOwnerError(tokenId, msg.sender);\r\n    }\r\n    if (seller != msg.sender) {\r\n      revert Error.InvalidAddressError(msg.sender);\r\n    }\r\n    _bookSellingStorage.updateListedBookFromSale(\r\n      tokenId,\r\n      newPrice,\r\n      newAmount,\r\n      seller\r\n    );\r\n  }\r\n\r\n  function updateBookFromRenting(\r\n    uint256 tokenId,\r\n    uint newPrice,\r\n    uint256 newAmount,\r\n    address renter\r\n  ) public {\r\n    if (!isOwnerOfToken(tokenId, renter)) {\r\n      revert Error.InvalidOwnerError(tokenId, renter);\r\n    }\r\n    if (renter != msg.sender) {\r\n      revert Error.InvalidAddressError(msg.sender);\r\n    }\r\n\r\n    _bookRentingStorage.updateLendBookFromRenting(\r\n      tokenId,\r\n      newPrice,\r\n      newAmount,\r\n      renter\r\n    );\r\n  }\r\n\r\n  function buyBooks(\r\n    uint256 tokenId,\r\n    address seller,\r\n    uint256 amount\r\n  ) public payable {\r\n    uint totalPrice = _bookSellingStorage.buyListedBooks(\r\n      tokenId,\r\n      seller,\r\n      amount,\r\n      msg.sender,\r\n      msg.value\r\n    );\r\n    if (totalPrice != 0) {\r\n      _safeTransferFrom(seller, msg.sender, tokenId, amount, \"\");\r\n      payable(seller).transfer(totalPrice);\r\n    }\r\n  }\r\n\r\n  function borrowBooks(\r\n    uint256 tokenId,\r\n    address renter,\r\n    uint256 price,\r\n    uint256 amount,\r\n    uint rentalDuration\r\n  ) public payable {\r\n    if (rentalDuration < MIN_TIME) {\r\n      revert Error.InvalidTimeError(rentalDuration);\r\n    }\r\n\r\n    uint startTime = block.timestamp;\r\n    uint endTime = startTime + rentalDuration;\r\n    uint256 totalPrice = _bookRentingStorage.borrowBooks(\r\n      tokenId,\r\n      renter,\r\n      amount,\r\n      price,\r\n      startTime,\r\n      endTime,\r\n      msg.sender\r\n    );\r\n\r\n    _safeTransferFrom(renter, msg.sender, tokenId, amount, \"\");\r\n    payable(renter).transfer(totalPrice);\r\n  }\r\n\r\n  //Make a request to extend the rental period and wait for their owner to approve your request\r\n  function requestExtendTimeOfBorrowedBooks(\r\n    uint256 tokenId,\r\n    address renter,\r\n    uint startTime,\r\n    uint endTime,\r\n    uint extendedAmount,\r\n    uint extendedTime\r\n  ) public {\r\n    if (renter == msg.sender) {\r\n      revert Error.InvalidAddressError(msg.sender);\r\n    }\r\n    if (extendedTime < MIN_TIME) {\r\n      revert Error.InvalidTimeError(extendedTime);\r\n    }\r\n    _bookRentingStorage.requestExtendTimeOfBorrowedBooks(\r\n      tokenId,\r\n      renter,\r\n      msg.sender,\r\n      startTime,\r\n      endTime,\r\n      extendedAmount,\r\n      extendedTime\r\n    );\r\n  }\r\n\r\n  // If borrowed book exist, only update extended time. Owthersise, do nothing\r\n  function updateRequestOfBorrowedBooks(\r\n    uint256 tokenId,\r\n    address renter,\r\n    uint startTime,\r\n    uint endTime,\r\n    uint newExtendedAmount,\r\n    uint newExtendedTime\r\n  ) public {\r\n    if (renter == address(0) || msg.sender == address(0)) {\r\n      revert Error.InvalidAddressError(address(0));\r\n    }\r\n    if (renter == msg.sender) {\r\n      revert Error.InvalidAddressError(msg.sender);\r\n    }\r\n    if (newExtendedTime < MIN_TIME) {\r\n      revert Error.InvalidTimeError(newExtendedTime);\r\n    }\r\n\r\n    _bookRentingStorage.updateRequestOfBorrowedBooks(\r\n      tokenId,\r\n      renter,\r\n      msg.sender,\r\n      startTime,\r\n      endTime,\r\n      newExtendedAmount,\r\n      newExtendedTime\r\n    );\r\n  }\r\n\r\n  function doAcceptRequest(\r\n    uint idBorrowedBook,\r\n    address borrower,\r\n    bool isAccept\r\n  ) public returns (bool) {\r\n    return\r\n      _bookRentingStorage.doAcceptRequestAndCreateResponse(\r\n        idBorrowedBook,\r\n        borrower,\r\n        msg.sender,\r\n        isAccept\r\n      );\r\n  }\r\n\r\n  function transferForSendedRequest(\r\n    uint id,\r\n    address renter,\r\n    bool isExtend\r\n  ) public payable {\r\n    if (renter == msg.sender) {\r\n      revert Error.InvalidAddressError(msg.sender);\r\n    }\r\n    uint totalPrice = _bookRentingStorage.transferForSendedRequest(\r\n      id,\r\n      renter,\r\n      msg.sender,\r\n      block.timestamp,\r\n      isExtend\r\n    );\r\n\r\n    if (totalPrice > 0) {\r\n      // if (msg.value != totalPrice) {\r\n      //   revert Error.InvalidPriceError(msg.value);\r\n      // }\r\n      payable(renter).transfer(totalPrice);\r\n    }\r\n  }\r\n\r\n  // Return true if success, owthersise return false\r\n  function recallBorrowedBooks(uint idBorrowedBook) public returns (bool) {\r\n    BookRentingStorage.BorrowedBook memory book = _bookRentingStorage\r\n      .getBorrowedBookFromId(idBorrowedBook);\r\n    if (book.renter == msg.sender) {\r\n      bool res = _bookRentingStorage.excRecallBorrowedBooks(idBorrowedBook);\r\n      if (res) {\r\n        _safeTransferFrom(\r\n          book.borrower,\r\n          msg.sender,\r\n          book.tokenId,\r\n          book.amount,\r\n          \"\"\r\n        );\r\n      }\r\n      emit RecallBookResult(res);\r\n      return res;\r\n    }\r\n    emit RecallBookResult(false);\r\n    return false;\r\n  }\r\n\r\n  function shareBooks(\r\n    uint256 idBorrowedBook,\r\n    uint price,\r\n    uint256 amount\r\n  ) public payable {\r\n    BookRentingStorage.BorrowedBook memory borrowedBook = _bookRentingStorage\r\n      .getBorrowedBookFromId(idBorrowedBook);\r\n    if (msg.sender != borrowedBook.borrower) {\r\n      revert Error.InvalidAddressError(msg.sender);\r\n    }\r\n    if (msg.value != sharingPrice) {\r\n      revert Error.InvalidPriceError(sharingPrice);\r\n    }\r\n    if (amount == 0 || amount > borrowedBook.amount) {\r\n      revert Error.InvalidAmountError(amount);\r\n    }\r\n    if (block.timestamp >= borrowedBook.endTime) {\r\n      revert Error.InvalidTimeError(block.timestamp);\r\n    }\r\n    _bookSharingStorage.shareBooks(\r\n      borrowedBook.tokenId,\r\n      borrowedBook.renter,\r\n      msg.sender,\r\n      borrowedBook.price,\r\n      price,\r\n      amount,\r\n      borrowedBook.startTime,\r\n      borrowedBook.endTime\r\n    );\r\n\r\n    _bookRentingStorage.updateAmountBorrowedBookFromBorrowing(\r\n      idBorrowedBook,\r\n      amount,\r\n      true\r\n    );\r\n  }\r\n\r\n  function updateBooksOnSharing(\r\n    uint idBooksOnSharing,\r\n    uint newPrice,\r\n    uint newAmount\r\n  ) public {\r\n    BookSharingStorage.BookSharing memory booksOnSharing = _bookSharingStorage\r\n      .getBooksOnSharing(idBooksOnSharing);\r\n    uint idBorrowedBook = _bookRentingStorage.getIdBorrowedBook(\r\n      booksOnSharing.tokenId,\r\n      booksOnSharing.fromRenter,\r\n      booksOnSharing.sharer,\r\n      booksOnSharing.startTime,\r\n      booksOnSharing.endTime\r\n    );\r\n    if (idBorrowedBook == 0) {\r\n      revert Error.InvalidIdError(idBorrowedBook);\r\n    }\r\n    BookRentingStorage.BorrowedBook memory borrowedBook = _bookRentingStorage\r\n      .getBorrowedBookFromId(idBorrowedBook);\r\n    if (msg.sender != borrowedBook.borrower) {\r\n      revert Error.InvalidAddressError(msg.sender);\r\n    }\r\n    if (\r\n      newAmount == 0 || newAmount > borrowedBook.amount + booksOnSharing.amount\r\n    ) {\r\n      revert Error.InvalidAmountError(newAmount);\r\n    }\r\n\r\n    bool isDecrease;\r\n    uint balance;\r\n\r\n    if (newAmount <= booksOnSharing.amount) {\r\n      isDecrease = false;\r\n      balance = booksOnSharing.amount - newAmount;\r\n    } else {\r\n      isDecrease = true;\r\n      balance = newAmount - booksOnSharing.amount;\r\n    }\r\n\r\n    _bookSharingStorage.updateBooksOnSharing(\r\n      idBooksOnSharing,\r\n      msg.sender,\r\n      borrowedBook.tokenId,\r\n      newPrice,\r\n      newAmount\r\n    );\r\n\r\n    _bookRentingStorage.updateAmountBorrowedBookFromBorrowing(\r\n      idBorrowedBook,\r\n      balance,\r\n      isDecrease\r\n    );\r\n  }\r\n\r\n  function takeBooksOnSharing(uint idBooksOnSharing) public payable {\r\n    if (msg.sender == address(0)) {\r\n      revert Error.InvalidAddressError(msg.sender);\r\n    }\r\n    if (idBooksOnSharing == 0) {\r\n      revert Error.InvalidIdError(0);\r\n    }\r\n    BookSharingStorage.BookSharing memory booksOnSharing = _bookSharingStorage\r\n      .getBooksOnSharing(idBooksOnSharing);\r\n    uint price = _bookSharingStorage.takeBooksOnSharing(\r\n      idBooksOnSharing,\r\n      msg.sender\r\n    );\r\n    if (msg.value != price) {\r\n      revert Error.InvalidPriceError(msg.value);\r\n    }\r\n    if (booksOnSharing.tokenId != 0) {\r\n      _safeTransferFrom(\r\n        booksOnSharing.sharer,\r\n        msg.sender,\r\n        booksOnSharing.tokenId,\r\n        1,\r\n        \"\"\r\n      );\r\n      // The amount you pay for this transaction will not depend on the period of borrowing the book,\r\n      // the price will be set by the sharer\r\n      payable(booksOnSharing.sharer).transfer(price);\r\n    } else {\r\n      revert Error.ExecutionError();\r\n    }\r\n  }\r\n\r\n  // Return true if success, owthersise return false\r\n  function recallSharedBooks(uint idSharedBook) public returns (bool) {\r\n    BookSharingStorage.BookSharing memory book = _bookSharingStorage\r\n      .getSharedBooks(idSharedBook);\r\n    if (book.fromRenter == msg.sender) {\r\n      bool res = _bookSharingStorage.excRecallSharedBooks(idSharedBook);\r\n      if (res) {\r\n        _safeTransferFrom(\r\n          book.sharedPer,\r\n          msg.sender,\r\n          book.tokenId,\r\n          book.amount,\r\n          \"\"\r\n        );\r\n      }\r\n      emit RecallBookResult(res);\r\n      return res;\r\n    }\r\n    emit RecallBookResult(false);\r\n    return false;\r\n  }\r\n\r\n  function recallBooksOnSharing(uint idBooksOnSharing) public returns (bool) {\r\n    BookSharingStorage.BookSharing memory book = _bookSharingStorage\r\n      .getBooksOnSharing(idBooksOnSharing);\r\n    if (book.fromRenter == msg.sender) {\r\n      bool res = _bookSharingStorage.excRecallBooksOnSharing(idBooksOnSharing);\r\n      if (res) {\r\n        _safeTransferFrom(\r\n          book.sharer,\r\n          msg.sender,\r\n          book.tokenId,\r\n          book.amount,\r\n          \"\"\r\n        );\r\n      }\r\n      return res;\r\n    }\r\n    return false;\r\n  }\r\n}\r\n",
  "sourcePath": "D:\\DO_AN_TOT_NGHIEP\\project\\nft-bookstore\\contracts\\BookStore.sol",
  "compiler": {
    "name": "solc",
    "version": "0.8.17+commit.8df45f5f.Emscripten.clang"
  },
  "schemaVersion": "3.4.11",
  "updatedAt": "2023-06-03T11:51:29.123Z",
  "networkType": "ethereum",
  "devdoc": {
    "kind": "dev",
    "methods": {
      "balanceOf(address,uint256)": {
        "details": "See {IERC1155-balanceOf}. Requirements: - `account` cannot be the zero address."
      },
      "balanceOfBatch(address[],uint256[])": {
        "details": "See {IERC1155-balanceOfBatch}. Requirements: - `accounts` and `ids` must have the same length."
      },
      "isApprovedForAll(address,address)": {
        "details": "See {IERC1155-isApprovedForAll}."
      },
      "owner()": {
        "details": "Returns the address of the current owner."
      },
      "renounceOwnership()": {
        "details": "Leaves the contract without owner. It will not be possible to call `onlyOwner` functions anymore. Can only be called by the current owner. NOTE: Renouncing ownership will leave the contract without an owner, thereby removing any functionality that is only available to the owner."
      },
      "safeBatchTransferFrom(address,address,uint256[],uint256[],bytes)": {
        "details": "See {IERC1155-safeBatchTransferFrom}."
      },
      "safeTransferFrom(address,address,uint256,uint256,bytes)": {
        "details": "See {IERC1155-safeTransferFrom}."
      },
      "setApprovalForAll(address,bool)": {
        "details": "See {IERC1155-setApprovalForAll}."
      },
      "supportsInterface(bytes4)": {
        "details": "See {IERC165-supportsInterface}."
      },
      "transferOwnership(address)": {
        "details": "Transfers ownership of the contract to a new account (`newOwner`). Can only be called by the current owner."
      },
      "uri(uint256)": {
        "details": "See {IERC1155MetadataURI-uri}. This implementation returns the concatenation of the `_baseURI` and the token-specific uri if the latter is set This enables the following behaviors: - if `_tokenURIs[tokenId]` is set, then the result is the concatenation   of `_baseURI` and `_tokenURIs[tokenId]` (keep in mind that `_baseURI`   is empty per default); - if `_tokenURIs[tokenId]` is NOT set then we fallback to `super.uri()`   which in most cases will contain `ERC1155._uri`; - if `_tokenURIs[tokenId]` is NOT set, and if the parents do not have a   uri value set, then the result is empty."
      }
    },
    "version": 1
  },
  "userdoc": {
    "kind": "user",
    "methods": {},
    "version": 1
  }
}