{
  "contractName": "BookSellingStorage",
  "abi": [
    {
      "anonymous": false,
      "inputs": [
        {
          "indexed": false,
          "internalType": "uint256",
          "name": "tokenId",
          "type": "uint256"
        },
        {
          "indexed": false,
          "internalType": "address",
          "name": "seller",
          "type": "address"
        },
        {
          "indexed": false,
          "internalType": "address",
          "name": "buyer",
          "type": "address"
        },
        {
          "indexed": false,
          "internalType": "uint256",
          "name": "price",
          "type": "uint256"
        },
        {
          "indexed": false,
          "internalType": "uint256",
          "name": "amount",
          "type": "uint256"
        }
      ],
      "name": "BookSellingCreated",
      "type": "event"
    },
    {
      "inputs": [
        {
          "internalType": "uint256",
          "name": "tokenId",
          "type": "uint256"
        },
        {
          "internalType": "address",
          "name": "seller",
          "type": "address"
        }
      ],
      "name": "isListing",
      "outputs": [
        {
          "internalType": "bool",
          "name": "",
          "type": "bool"
        }
      ],
      "stateMutability": "view",
      "type": "function",
      "constant": true
    },
    {
      "inputs": [
        {
          "internalType": "uint256",
          "name": "tokenId",
          "type": "uint256"
        },
        {
          "internalType": "address",
          "name": "seller",
          "type": "address"
        }
      ],
      "name": "getListedBook",
      "outputs": [
        {
          "components": [
            {
              "internalType": "uint256",
              "name": "tokenId",
              "type": "uint256"
            },
            {
              "internalType": "address",
              "name": "seller",
              "type": "address"
            },
            {
              "internalType": "address",
              "name": "buyer",
              "type": "address"
            },
            {
              "internalType": "uint256",
              "name": "price",
              "type": "uint256"
            },
            {
              "internalType": "uint256",
              "name": "amount",
              "type": "uint256"
            }
          ],
          "internalType": "struct BookSellingStorage.BookSelling",
          "name": "",
          "type": "tuple"
        }
      ],
      "stateMutability": "view",
      "type": "function",
      "constant": true
    },
    {
      "inputs": [
        {
          "internalType": "uint256",
          "name": "idListedBook",
          "type": "uint256"
        }
      ],
      "name": "getListedBookById",
      "outputs": [
        {
          "components": [
            {
              "internalType": "uint256",
              "name": "tokenId",
              "type": "uint256"
            },
            {
              "internalType": "address",
              "name": "seller",
              "type": "address"
            },
            {
              "internalType": "address",
              "name": "buyer",
              "type": "address"
            },
            {
              "internalType": "uint256",
              "name": "price",
              "type": "uint256"
            },
            {
              "internalType": "uint256",
              "name": "amount",
              "type": "uint256"
            }
          ],
          "internalType": "struct BookSellingStorage.BookSelling",
          "name": "",
          "type": "tuple"
        }
      ],
      "stateMutability": "view",
      "type": "function",
      "constant": true
    },
    {
      "inputs": [
        {
          "internalType": "address",
          "name": "seller",
          "type": "address"
        }
      ],
      "name": "getTotalOwnedListedBook",
      "outputs": [
        {
          "internalType": "uint256",
          "name": "",
          "type": "uint256"
        }
      ],
      "stateMutability": "view",
      "type": "function",
      "constant": true
    },
    {
      "inputs": [
        {
          "internalType": "uint256",
          "name": "tokenId",
          "type": "uint256"
        },
        {
          "internalType": "address",
          "name": "seller",
          "type": "address"
        }
      ],
      "name": "getIdListedBook",
      "outputs": [
        {
          "internalType": "uint256",
          "name": "",
          "type": "uint256"
        }
      ],
      "stateMutability": "view",
      "type": "function",
      "constant": true
    },
    {
      "inputs": [
        {
          "internalType": "uint256",
          "name": "tokenId",
          "type": "uint256"
        },
        {
          "internalType": "address",
          "name": "owner",
          "type": "address"
        }
      ],
      "name": "getAmountOfListedBooks",
      "outputs": [
        {
          "internalType": "uint256",
          "name": "",
          "type": "uint256"
        }
      ],
      "stateMutability": "view",
      "type": "function",
      "constant": true
    },
    {
      "inputs": [
        {
          "internalType": "uint256",
          "name": "tokenId",
          "type": "uint256"
        },
        {
          "internalType": "uint256",
          "name": "price",
          "type": "uint256"
        },
        {
          "internalType": "uint256",
          "name": "amount",
          "type": "uint256"
        },
        {
          "internalType": "address",
          "name": "seller",
          "type": "address"
        }
      ],
      "name": "sellListedBooks",
      "outputs": [],
      "stateMutability": "payable",
      "type": "function",
      "payable": true
    },
    {
      "inputs": [
        {
          "internalType": "uint256",
          "name": "tokenId",
          "type": "uint256"
        },
        {
          "internalType": "uint256",
          "name": "newPrice",
          "type": "uint256"
        },
        {
          "internalType": "uint256",
          "name": "newAmount",
          "type": "uint256"
        },
        {
          "internalType": "address",
          "name": "seller",
          "type": "address"
        }
      ],
      "name": "updateListedBookFromSale",
      "outputs": [],
      "stateMutability": "nonpayable",
      "type": "function"
    },
    {
      "inputs": [],
      "name": "getAllListedBooks",
      "outputs": [
        {
          "components": [
            {
              "internalType": "uint256",
              "name": "tokenId",
              "type": "uint256"
            },
            {
              "internalType": "address",
              "name": "seller",
              "type": "address"
            },
            {
              "internalType": "address",
              "name": "buyer",
              "type": "address"
            },
            {
              "internalType": "uint256",
              "name": "price",
              "type": "uint256"
            },
            {
              "internalType": "uint256",
              "name": "amount",
              "type": "uint256"
            }
          ],
          "internalType": "struct BookSellingStorage.BookSelling[]",
          "name": "",
          "type": "tuple[]"
        }
      ],
      "stateMutability": "view",
      "type": "function",
      "constant": true
    },
    {
      "inputs": [
        {
          "internalType": "uint256",
          "name": "tokenId",
          "type": "uint256"
        },
        {
          "internalType": "address",
          "name": "seller",
          "type": "address"
        },
        {
          "internalType": "uint256",
          "name": "amount",
          "type": "uint256"
        },
        {
          "internalType": "address",
          "name": "buyer",
          "type": "address"
        },
        {
          "internalType": "uint256",
          "name": "value",
          "type": "uint256"
        }
      ],
      "name": "buyListedBooks",
      "outputs": [
        {
          "internalType": "uint256",
          "name": "",
          "type": "uint256"
        }
      ],
      "stateMutability": "payable",
      "type": "function",
      "payable": true
    },
    {
      "inputs": [
        {
          "internalType": "address",
          "name": "buyer",
          "type": "address"
        }
      ],
      "name": "getTotalOwnedPurchasedBook",
      "outputs": [
        {
          "internalType": "uint256",
          "name": "",
          "type": "uint256"
        }
      ],
      "stateMutability": "view",
      "type": "function",
      "constant": true
    },
    {
      "inputs": [],
      "name": "getOwnedPurchasedBooks",
      "outputs": [
        {
          "components": [
            {
              "internalType": "uint256",
              "name": "tokenId",
              "type": "uint256"
            },
            {
              "internalType": "address",
              "name": "seller",
              "type": "address"
            },
            {
              "internalType": "address",
              "name": "buyer",
              "type": "address"
            },
            {
              "internalType": "uint256",
              "name": "price",
              "type": "uint256"
            },
            {
              "internalType": "uint256",
              "name": "amount",
              "type": "uint256"
            }
          ],
          "internalType": "struct BookSellingStorage.BookSelling[]",
          "name": "",
          "type": "tuple[]"
        }
      ],
      "stateMutability": "view",
      "type": "function",
      "constant": true
    }
  ],
  "bytecode": "0x608060405234801561001057600080fd5b5061106e806100206000396000f3fe6080604052600436106100975760003560e01c8063101be81d1461009c57806316b32f65146100cf57806329832056146100ff5780634c5aecb51461012c5780635204a3ce1461014157806375f319fa14610163578063783db84b146101765780638f5b2b0e14610196578063c41854b3146101b6578063c4a27f9a146101cb578063ed148dd0146101eb578063f9ed2c321461020b575b600080fd5b3480156100a857600080fd5b506100bc6100b7366004610dfb565b610241565b6040519081526020015b60405180910390f35b3480156100db57600080fd5b506100ef6100ea366004610dfb565b6102e3565b60405190151581526020016100c6565b34801561010b57600080fd5b5061011f61011a366004610e27565b61030c565b6040516100c69190610e7e565b61013f61013a366004610e8c565b610370565b005b34801561014d57600080fd5b50610156610435565b6040516100c69190610ecb565b6100bc610171366004610f19565b61053e565b34801561018257600080fd5b5061013f610191366004610e8c565b610711565b3480156101a257600080fd5b506100bc6101b1366004610f67565b6107a8565b3480156101c257600080fd5b506101566107c3565b3480156101d757600080fd5b506100bc6101e6366004610dfb565b6108fe565b3480156101f757600080fd5b5061011f610206366004610dfb565b61093c565b34801561021757600080fd5b506100bc610226366004610f67565b6001600160a01b031660009081526001602052604090205490565b6000821580159061025a57506001600160a01b03821615155b6102ba5760405162461bcd60e51b815260206004820152602660248201527f546f6b656e20696420616e642061646472657373206f6620796f7520697320696044820152651b9d985b1a5960d21b60648201526084015b60405180910390fd5b506000828152602081815260408083206001600160a01b03851684529091529020545b92915050565b6000806102f08484610241565b905080156103025760019150506102dd565b60009150506102dd565b610314610d9e565b50600090815260026020818152604092839020835160a0810185528154815260018201546001600160a01b0390811693820193909352928101549091169282019290925260038201546060820152600490910154608082015290565b600061037c8583610241565b905080600003610399576103948583600087876109b0565b61042e565b801561042e576000818152600260208181526040808420815160a0810183528154815260018201546001600160a01b03908116828601528286015416928101929092526003810154606083015260040180546080830181905286865293909252928692610407908490610f9f565b90915550506060810151851461042c5760008281526002602052604090206003018590555b505b5050505050565b6060600061044260035490565b67ffffffffffffffff81111561045a5761045a610fb2565b60405190808252806020026020018201604052801561049357816020015b610480610d9e565b8152602001906001900390816104785790505b50905060015b600354811161053857600081815260026020818152604092839020835160a081018552815481526001808301546001600160a01b03908116948301949094529382015490921693820193909352600383015460608201526004909201546080830152819084906105099085610fc8565b8151811061051957610519610fdb565b602002602001018190525050808061053090610ff1565b915050610499565b50919050565b60008061054b8787610241565b9050801561070257600081815260026020818152604092839020835160a0810185528154815260018201546001600160a01b039081169382018490529382015484169481019490945260038101546060850152600401546080840152908616036106035760405162461bcd60e51b8152602060048201526024808201527f596f752063616e27742062757920796f7572206f776e20626f6f6b73206f6e2060448201526373616c6560e01b60648201526084016102b1565b6060810151610612908761100a565b84146106605760405162461bcd60e51b815260206004820152601e60248201527f506c65617365207375626d6974207468652061736b696e67207072696365000060448201526064016102b1565b806080015186111580156106745750600086115b6106b45760405162461bcd60e51b8152602060048201526011602482015270105b5bdd5b9d081a5cc81a5b9d985b1a59607a1b60448201526064016102b1565b60008160600151876106c6919061100a565b90506106e78983606001518985608001516106e19190610fc8565b8b610711565b6106f889898885606001518b6109b0565b9250610708915050565b60009150505b95945050505050565b600061071d8583610241565b90508060000361076b5760405162461bcd60e51b8152602060048201526019602482015278596f757220626f6f6b20617265206e6f74206f6e2073616c6560381b60448201526064016102b1565b6000818152600260205260409020600301849055821561079e57600081815260026020526040902060040183905561042e565b61042e8583610bb0565b6001600160a01b031660009081526005602052604090205490565b606060006107d0336107a8565b905060008167ffffffffffffffff8111156107ed576107ed610fb2565b60405190808252806020026020018201604052801561082657816020015b610813610d9e565b81526020019060019003908161080b5790505b509050600060015b8381116108f557336000908152600460208181526040808420858552825292839020835160a081018552815480825260018301546001600160a01b039081169483019490945260028301549093169481019490945260038101546060850152909101546080830152158015906108b0575060408101516001600160a01b031633145b156108e257808484815181106108c8576108c8610fdb565b602002602001018190525082806108de90610ff1565b9350505b50806108ed81610ff1565b91505061082e565b50909392505050565b60008061090b8484610241565b905060008115610934576000828152600260205260409020600401546109319082610f9f565b90505b949350505050565b610944610d9e565b60006109508484610241565b600090815260026020818152604092839020835160a0810185528154815260018201546001600160a01b03908116938201939093529281015490911692820192909252600382015460608201526004909101546080820152949350505050565b6001600160a01b038316610a8f576109cc600380546001019055565b600380546000878152602081815260408083206001600160a01b038a8116808652918452828520869055825160a0810184528c81528085018381528b8316828601908152606083018c8152608084018c81529989526002808952878a20945185559251600180860180549288166001600160a01b031993841617905592519385018054949096169316929092179093555197810197909755945160049096019590955593825291909152908120805491610a8583610ff1565b9190505550610b52565b6001600160a01b0383166000908152600560205260408120805491610ab383610ff1565b90915550506001600160a01b03808416600081815260056020908152604080832054815160a0810183528b81528a8716818501908152818401878152606083018b8152608084018b8152988852600480885286892095895294909652939095209051815593516001850180549188166001600160a01b031992831617905591516002850180549190971692169190911790945551600382015590519101555b604080518681526001600160a01b038681166020830152851681830152606081018490526080810183905290517f88001a3678b5c492d8e317e10e014714f5b7dee2599f60c8a4b64aded8e68ddb9181900360a00190a15050505050565b6000610bbc8383610241565b90506000610bc960035490565b600081815260026020818152604092839020835160a081018552815480825260018301546001600160a01b0390811694830185905294830154909416948101949094526003810154606085015260040154608084015292935090918415610d4057848414610cb0576000828152602081815260408083206001600160a01b03808616855290835281842089905588845260028084529382902087518155928701516001840180549183166001600160a01b03199283161790559187015193830180549490911693909116929092179091556060840151600382015560808401516004909101555b610cba6003610d49565b6001600160a01b0386166000908152600160205260408120805491610cde83611021565b90915550506000878152602081815260408083206001600160a01b038a168452825280832083905586835260029182905282208281556001810180546001600160a01b0319908116909155918101805490921690915560038101829055600401555b50505050505050565b805480610d965760405162461bcd60e51b815260206004820152601b60248201527a436f756e7465723a2064656372656d656e74206f766572666c6f7760281b60448201526064016102b1565b600019019055565b6040518060a001604052806000815260200160006001600160a01b0316815260200160006001600160a01b0316815260200160008152602001600081525090565b80356001600160a01b0381168114610df657600080fd5b919050565b60008060408385031215610e0e57600080fd5b82359150610e1e60208401610ddf565b90509250929050565b600060208284031215610e3957600080fd5b5035919050565b805182526020808201516001600160a01b03908116918401919091526040808301519091169083015260608082015190830152608090810151910152565b60a081016102dd8284610e40565b60008060008060808587031215610ea257600080fd5b843593506020850135925060408501359150610ec060608601610ddf565b905092959194509250565b6020808252825182820181905260009190848201906040850190845b81811015610f0d57610efa838551610e40565b9284019260a09290920191600101610ee7565b50909695505050505050565b600080600080600060a08688031215610f3157600080fd5b85359450610f4160208701610ddf565b935060408601359250610f5660608701610ddf565b949793965091946080013592915050565b600060208284031215610f7957600080fd5b610f8282610ddf565b9392505050565b634e487b7160e01b600052601160045260246000fd5b808201808211156102dd576102dd610f89565b634e487b7160e01b600052604160045260246000fd5b818103818111156102dd576102dd610f89565b634e487b7160e01b600052603260045260246000fd5b60006001820161100357611003610f89565b5060010190565b80820281158282048414176102dd576102dd610f89565b60008161103057611030610f89565b50600019019056fea2646970667358221220ea9d909b6dfd8a10a31ac69e43bf5b7b395d7c84169c7bbf1edd0f135e59c3ba64736f6c63430008110033",
  "immutableReferences": {},
  "source": "// SPDX-License-Identifier: MIT\r\npragma solidity >=0.4.22 <0.9.0;\r\nimport \"@openzeppelin/contracts/utils/Counters.sol\";\r\n\r\ncontract BookSellingStorage {\r\n  using Counters for Counters.Counter;\r\n\r\n  struct BookSelling {\r\n    uint256 tokenId;\r\n    address seller;\r\n    address buyer;\r\n    uint price;\r\n    uint amount;\r\n  }\r\n\r\n  event BookSellingCreated(\r\n    uint tokenId,\r\n    address seller,\r\n    address buyer,\r\n    uint price,\r\n    uint amount\r\n  );\r\n\r\n  // Variable for Listed Books\r\n  mapping(uint => mapping(address => uint)) _allListedBook; // (tokenID -> (seller -> ID))\r\n  mapping(address => uint) private _totalOwnedListedBook;\r\n  mapping(uint => BookSelling) private _idToListedBook; // (ID -> BookSelling))\r\n  Counters.Counter private _listedBooks;\r\n\r\n    // Variable for Purchased Books\r\n  mapping(address => mapping(uint => BookSelling)) private _ownedPurchasedBooks;\r\n  mapping(address => uint) private _totalOwnedPurchasedBook;\r\n\r\n  function isListing(uint tokenId, address seller) public view returns (bool) {\r\n    uint idListedBook = getIdListedBook(tokenId, seller);\r\n    if (idListedBook > 0) {\r\n      return true;\r\n    } else {\r\n      return false;\r\n    }\r\n  }\r\n\r\n  function getListedBook(\r\n    uint tokenId,\r\n    address seller\r\n  ) public view returns (BookSelling memory) {\r\n    uint idListedBook = getIdListedBook(tokenId, seller);\r\n    return _idToListedBook[idListedBook];\r\n  }\r\n\r\n  function getListedBookById(\r\n    uint idListedBook\r\n  ) public view returns (BookSelling memory) {\r\n    return _idToListedBook[idListedBook];\r\n  }\r\n\r\n  function getTotalOwnedListedBook(address seller) public view returns (uint) {\r\n    return _totalOwnedListedBook[seller];\r\n  }\r\n\r\n  function _createBookSelling(\r\n    uint tokenId,\r\n    address seller,\r\n    address buyer,\r\n    uint256 price,\r\n    uint amount\r\n  ) private {\r\n    if (buyer == address(0)) {\r\n      _listedBooks.increment();\r\n      _allListedBook[tokenId][seller] = _listedBooks.current();\r\n      _idToListedBook[_listedBooks.current()] = BookSelling(\r\n        tokenId,\r\n        seller,\r\n        buyer,\r\n        price,\r\n        amount\r\n      );\r\n      _totalOwnedListedBook[seller]++;\r\n    } else {\r\n      _totalOwnedPurchasedBook[buyer]++;\r\n      uint length = _totalOwnedPurchasedBook[buyer];\r\n      _ownedPurchasedBooks[buyer][length] = BookSelling(\r\n        tokenId,\r\n        seller,\r\n        buyer,\r\n        price,\r\n        amount\r\n      );\r\n    }\r\n    emit BookSellingCreated(tokenId, seller, buyer, price, amount);\r\n  }\r\n\r\n  // ===================================LISTING============================================\r\n\r\n  function getIdListedBook(\r\n    uint tokenId,\r\n    address seller\r\n  ) public view returns (uint) {\r\n    require(\r\n      tokenId != 0 && seller != address(0),\r\n      \"Token id and address of you is invalid\"\r\n    );\r\n    return _allListedBook[tokenId][seller];\r\n  }\r\n\r\n  function getAmountOfListedBooks(\r\n    uint256 tokenId,\r\n    address owner\r\n  ) public view returns (uint) {\r\n    uint idListedBook = getIdListedBook(tokenId, owner);\r\n\r\n    uint totalBook = 0;\r\n    if (idListedBook != 0) {\r\n      totalBook += _idToListedBook[idListedBook].amount;\r\n    }\r\n\r\n    return totalBook;\r\n  }\r\n\r\n  function sellListedBooks(\r\n    uint256 tokenId,\r\n    uint price,\r\n    uint256 amount,\r\n    address seller\r\n  ) public payable {\r\n    uint idListedBook = getIdListedBook(tokenId, seller);\r\n    if (idListedBook == 0) {\r\n      _createBookSelling(tokenId, seller, address(0), price, amount);\r\n    } else if (idListedBook != 0) {\r\n      BookSelling memory listedBook = _idToListedBook[idListedBook];\r\n      _idToListedBook[idListedBook].amount += amount;\r\n\r\n      // Update price of listed book if need\r\n      if (price != listedBook.price) {\r\n        _idToListedBook[idListedBook].price = price;\r\n      }\r\n    }\r\n  }\r\n\r\n  function _removeItemFromAllListedBooks(uint tokenId, address seller) private {\r\n    uint idListedBook = getIdListedBook(tokenId, seller);\r\n    uint lastIdListedBook = _listedBooks.current();\r\n    BookSelling memory lastListedBook = _idToListedBook[lastIdListedBook];\r\n    uint lastTokenId = lastListedBook.tokenId;\r\n    address lastSeller = lastListedBook.seller;\r\n    if (idListedBook != 0) {\r\n      if (lastIdListedBook != idListedBook) {\r\n        _allListedBook[lastTokenId][lastSeller] = idListedBook;\r\n        _idToListedBook[idListedBook] = lastListedBook;\r\n      }\r\n\r\n      _listedBooks.decrement();\r\n      _totalOwnedListedBook[seller]--;\r\n      delete _allListedBook[tokenId][seller];\r\n      delete _idToListedBook[lastIdListedBook];\r\n    }\r\n  }\r\n\r\n  function updateListedBookFromSale(\r\n    uint256 tokenId,\r\n    uint newPrice,\r\n    uint256 newAmount,\r\n    address seller\r\n  ) public {\r\n    uint idListedBook = getIdListedBook(tokenId, seller);\r\n    require(idListedBook != 0, \"Your book are not on sale\");\r\n\r\n    _idToListedBook[idListedBook].price = newPrice;\r\n\r\n    if (newAmount != 0) {\r\n      _idToListedBook[idListedBook].amount = newAmount;\r\n    } else {\r\n      _removeItemFromAllListedBooks(tokenId, seller);\r\n    }\r\n  }\r\n\r\n  function getAllListedBooks() public view returns (BookSelling[] memory) {\r\n    BookSelling[] memory books = new BookSelling[](_listedBooks.current());\r\n\r\n    for (uint i = 1; i <= _listedBooks.current(); i++) {\r\n      BookSelling memory book = _idToListedBook[i];\r\n      books[i - 1] = book;\r\n    }\r\n\r\n    return books;\r\n  }\r\n\r\n  function buyListedBooks(\r\n    uint256 tokenId,\r\n    address seller,\r\n    uint256 amount,\r\n    address buyer,\r\n    uint256 value\r\n  ) public payable returns (uint) {\r\n    uint idListedBook = getIdListedBook(tokenId, seller);\r\n    if (idListedBook != 0) {\r\n      BookSelling memory listedBook = _idToListedBook[idListedBook];\r\n      require(\r\n        buyer != listedBook.seller,\r\n        \"You can't buy your own books on sale\"\r\n      );\r\n      require(\r\n        value == amount * listedBook.price,\r\n        \"Please submit the asking price\"\r\n      );\r\n      require(amount <= listedBook.amount && amount > 0, \"Amount is invalid\");\r\n\r\n      uint256 totalPrice = amount * listedBook.price;\r\n      \r\n      updateListedBookFromSale(\r\n        tokenId,\r\n        listedBook.price,\r\n        listedBook.amount - amount,\r\n        seller\r\n      );\r\n      _createBookSelling(tokenId, seller, buyer, listedBook.price, amount);\r\n\r\n      return totalPrice;\r\n    }\r\n\r\n    return 0;\r\n  }\r\n\r\n  function getTotalOwnedPurchasedBook(\r\n    address buyer\r\n  ) public view returns (uint) {\r\n    return _totalOwnedPurchasedBook[buyer];\r\n  }\r\n\r\n  function getOwnedPurchasedBooks() \r\n    public view returns (BookSelling[] memory) {\r\n    uint ownedPurchasedBookCount = getTotalOwnedPurchasedBook(msg.sender);\r\n    BookSelling[] memory books = new BookSelling[](ownedPurchasedBookCount);\r\n\r\n    uint currentIndex = 0;\r\n    for (uint i = 1; i <= ownedPurchasedBookCount; i++) {\r\n      BookSelling memory book = _ownedPurchasedBooks[msg.sender][i];\r\n      if (book.tokenId != 0 && book.buyer == msg.sender) {\r\n        books[currentIndex] = book;\r\n        currentIndex++;\r\n      }\r\n    }\r\n\r\n    return books;\r\n  }\r\n}\r\n",
  "sourcePath": "D:\\DO_AN_TOT_NGHIEP\\project\\nft-bookstore\\contracts\\sell\\BookSellingStorage.sol",
  "compiler": {
    "name": "solc",
    "version": "0.8.17+commit.8df45f5f.Emscripten.clang"
  },
  "schemaVersion": "3.4.11",
  "updatedAt": "2023-06-03T11:51:29.169Z",
  "networkType": "ethereum",
  "devdoc": {
    "kind": "dev",
    "methods": {},
    "version": 1
  },
  "userdoc": {
    "kind": "user",
    "methods": {},
    "version": 1
  }
}