{
  "contractName": "BookStore",
  "abi": [
    {
      "inputs": [
        {
          "internalType": "contract BookSellingStorage",
          "name": "bookSellingStorage",
          "type": "address"
        },
        {
          "internalType": "contract BookTemporary",
          "name": "bookTemporary",
          "type": "address"
        },
        {
          "internalType": "contract ListRealOwners",
          "name": "listRealOwners",
          "type": "address"
        },
        {
          "internalType": "contract SecretKeyStorage",
          "name": "secretKeyStorage",
          "type": "address"
        }
      ],
      "stateMutability": "nonpayable",
      "type": "constructor"
    },
    {
      "inputs": [],
      "name": "ExecutionError",
      "type": "error"
    },
    {
      "inputs": [
        {
          "internalType": "address",
          "name": "",
          "type": "address"
        }
      ],
      "name": "InvalidAddressError",
      "type": "error"
    },
    {
      "inputs": [
        {
          "internalType": "uint256",
          "name": "",
          "type": "uint256"
        }
      ],
      "name": "InvalidAmountError",
      "type": "error"
    },
    {
      "inputs": [
        {
          "internalType": "uint256",
          "name": "",
          "type": "uint256"
        }
      ],
      "name": "InvalidIdError",
      "type": "error"
    },
    {
      "inputs": [
        {
          "internalType": "uint256",
          "name": "",
          "type": "uint256"
        },
        {
          "internalType": "address",
          "name": "",
          "type": "address"
        }
      ],
      "name": "InvalidOwnerError",
      "type": "error"
    },
    {
      "inputs": [
        {
          "internalType": "uint256",
          "name": "",
          "type": "uint256"
        }
      ],
      "name": "InvalidPriceError",
      "type": "error"
    },
    {
      "inputs": [
        {
          "internalType": "uint256",
          "name": "",
          "type": "uint256"
        }
      ],
      "name": "InvalidTimeError",
      "type": "error"
    },
    {
      "inputs": [
        {
          "internalType": "string",
          "name": "",
          "type": "string"
        }
      ],
      "name": "InvalidTokenUriError",
      "type": "error"
    },
    {
      "inputs": [
        {
          "internalType": "uint256",
          "name": "",
          "type": "uint256"
        }
      ],
      "name": "NoReadingPermissionError",
      "type": "error"
    },
    {
      "anonymous": false,
      "inputs": [
        {
          "indexed": true,
          "internalType": "address",
          "name": "account",
          "type": "address"
        },
        {
          "indexed": true,
          "internalType": "address",
          "name": "operator",
          "type": "address"
        },
        {
          "indexed": false,
          "internalType": "bool",
          "name": "approved",
          "type": "bool"
        }
      ],
      "name": "ApprovalForAll",
      "type": "event"
    },
    {
      "anonymous": false,
      "inputs": [
        {
          "indexed": false,
          "internalType": "uint256",
          "name": "tokenId",
          "type": "uint256"
        },
        {
          "indexed": false,
          "internalType": "address",
          "name": "author",
          "type": "address"
        },
        {
          "indexed": false,
          "internalType": "uint256",
          "name": "quantity",
          "type": "uint256"
        }
      ],
      "name": "NFTBookCreated",
      "type": "event"
    },
    {
      "anonymous": false,
      "inputs": [
        {
          "indexed": true,
          "internalType": "address",
          "name": "previousOwner",
          "type": "address"
        },
        {
          "indexed": true,
          "internalType": "address",
          "name": "newOwner",
          "type": "address"
        }
      ],
      "name": "OwnershipTransferred",
      "type": "event"
    },
    {
      "anonymous": false,
      "inputs": [
        {
          "indexed": false,
          "internalType": "bool",
          "name": "isSuccess",
          "type": "bool"
        }
      ],
      "name": "RecallBookResult",
      "type": "event"
    },
    {
      "anonymous": false,
      "inputs": [
        {
          "indexed": true,
          "internalType": "address",
          "name": "operator",
          "type": "address"
        },
        {
          "indexed": true,
          "internalType": "address",
          "name": "from",
          "type": "address"
        },
        {
          "indexed": true,
          "internalType": "address",
          "name": "to",
          "type": "address"
        },
        {
          "indexed": false,
          "internalType": "uint256[]",
          "name": "ids",
          "type": "uint256[]"
        },
        {
          "indexed": false,
          "internalType": "uint256[]",
          "name": "values",
          "type": "uint256[]"
        }
      ],
      "name": "TransferBatch",
      "type": "event"
    },
    {
      "anonymous": false,
      "inputs": [
        {
          "indexed": true,
          "internalType": "address",
          "name": "operator",
          "type": "address"
        },
        {
          "indexed": true,
          "internalType": "address",
          "name": "from",
          "type": "address"
        },
        {
          "indexed": true,
          "internalType": "address",
          "name": "to",
          "type": "address"
        },
        {
          "indexed": false,
          "internalType": "uint256",
          "name": "id",
          "type": "uint256"
        },
        {
          "indexed": false,
          "internalType": "uint256",
          "name": "value",
          "type": "uint256"
        }
      ],
      "name": "TransferSingle",
      "type": "event"
    },
    {
      "anonymous": false,
      "inputs": [
        {
          "indexed": false,
          "internalType": "string",
          "name": "value",
          "type": "string"
        },
        {
          "indexed": true,
          "internalType": "uint256",
          "name": "id",
          "type": "uint256"
        }
      ],
      "name": "URI",
      "type": "event"
    },
    {
      "inputs": [
        {
          "internalType": "address",
          "name": "account",
          "type": "address"
        },
        {
          "internalType": "uint256",
          "name": "id",
          "type": "uint256"
        }
      ],
      "name": "balanceOf",
      "outputs": [
        {
          "internalType": "uint256",
          "name": "",
          "type": "uint256"
        }
      ],
      "stateMutability": "view",
      "type": "function",
      "constant": true
    },
    {
      "inputs": [
        {
          "internalType": "address[]",
          "name": "accounts",
          "type": "address[]"
        },
        {
          "internalType": "uint256[]",
          "name": "ids",
          "type": "uint256[]"
        }
      ],
      "name": "balanceOfBatch",
      "outputs": [
        {
          "internalType": "uint256[]",
          "name": "",
          "type": "uint256[]"
        }
      ],
      "stateMutability": "view",
      "type": "function",
      "constant": true
    },
    {
      "inputs": [
        {
          "internalType": "address",
          "name": "account",
          "type": "address"
        },
        {
          "internalType": "address",
          "name": "operator",
          "type": "address"
        }
      ],
      "name": "isApprovedForAll",
      "outputs": [
        {
          "internalType": "bool",
          "name": "",
          "type": "bool"
        }
      ],
      "stateMutability": "view",
      "type": "function",
      "constant": true
    },
    {
      "inputs": [],
      "name": "lendingPrice",
      "outputs": [
        {
          "internalType": "uint256",
          "name": "",
          "type": "uint256"
        }
      ],
      "stateMutability": "view",
      "type": "function",
      "constant": true
    },
    {
      "inputs": [],
      "name": "listingPrice",
      "outputs": [
        {
          "internalType": "uint256",
          "name": "",
          "type": "uint256"
        }
      ],
      "stateMutability": "view",
      "type": "function",
      "constant": true
    },
    {
      "inputs": [],
      "name": "owner",
      "outputs": [
        {
          "internalType": "address",
          "name": "",
          "type": "address"
        }
      ],
      "stateMutability": "view",
      "type": "function",
      "constant": true
    },
    {
      "inputs": [],
      "name": "renounceOwnership",
      "outputs": [],
      "stateMutability": "nonpayable",
      "type": "function"
    },
    {
      "inputs": [
        {
          "internalType": "address",
          "name": "from",
          "type": "address"
        },
        {
          "internalType": "address",
          "name": "to",
          "type": "address"
        },
        {
          "internalType": "uint256[]",
          "name": "ids",
          "type": "uint256[]"
        },
        {
          "internalType": "uint256[]",
          "name": "amounts",
          "type": "uint256[]"
        },
        {
          "internalType": "bytes",
          "name": "data",
          "type": "bytes"
        }
      ],
      "name": "safeBatchTransferFrom",
      "outputs": [],
      "stateMutability": "nonpayable",
      "type": "function"
    },
    {
      "inputs": [
        {
          "internalType": "address",
          "name": "from",
          "type": "address"
        },
        {
          "internalType": "address",
          "name": "to",
          "type": "address"
        },
        {
          "internalType": "uint256",
          "name": "id",
          "type": "uint256"
        },
        {
          "internalType": "uint256",
          "name": "amount",
          "type": "uint256"
        },
        {
          "internalType": "bytes",
          "name": "data",
          "type": "bytes"
        }
      ],
      "name": "safeTransferFrom",
      "outputs": [],
      "stateMutability": "nonpayable",
      "type": "function"
    },
    {
      "inputs": [
        {
          "internalType": "address",
          "name": "operator",
          "type": "address"
        },
        {
          "internalType": "bool",
          "name": "approved",
          "type": "bool"
        }
      ],
      "name": "setApprovalForAll",
      "outputs": [],
      "stateMutability": "nonpayable",
      "type": "function"
    },
    {
      "inputs": [],
      "name": "sharingPrice",
      "outputs": [
        {
          "internalType": "uint256",
          "name": "",
          "type": "uint256"
        }
      ],
      "stateMutability": "view",
      "type": "function",
      "constant": true
    },
    {
      "inputs": [
        {
          "internalType": "bytes4",
          "name": "interfaceId",
          "type": "bytes4"
        }
      ],
      "name": "supportsInterface",
      "outputs": [
        {
          "internalType": "bool",
          "name": "",
          "type": "bool"
        }
      ],
      "stateMutability": "view",
      "type": "function",
      "constant": true
    },
    {
      "inputs": [
        {
          "internalType": "address",
          "name": "newOwner",
          "type": "address"
        }
      ],
      "name": "transferOwnership",
      "outputs": [],
      "stateMutability": "nonpayable",
      "type": "function"
    },
    {
      "inputs": [
        {
          "internalType": "uint256",
          "name": "tokenId",
          "type": "uint256"
        }
      ],
      "name": "uri",
      "outputs": [
        {
          "internalType": "string",
          "name": "",
          "type": "string"
        }
      ],
      "stateMutability": "view",
      "type": "function",
      "constant": true
    },
    {
      "inputs": [
        {
          "internalType": "uint256",
          "name": "tokenId",
          "type": "uint256"
        }
      ],
      "name": "getUri",
      "outputs": [
        {
          "internalType": "string",
          "name": "",
          "type": "string"
        }
      ],
      "stateMutability": "view",
      "type": "function",
      "constant": true
    },
    {
      "inputs": [
        {
          "internalType": "uint256",
          "name": "newPrice",
          "type": "uint256"
        }
      ],
      "name": "setListingPrice",
      "outputs": [],
      "stateMutability": "nonpayable",
      "type": "function"
    },
    {
      "inputs": [
        {
          "internalType": "uint256",
          "name": "newPrice",
          "type": "uint256"
        }
      ],
      "name": "setLendingPrice",
      "outputs": [],
      "stateMutability": "nonpayable",
      "type": "function"
    },
    {
      "inputs": [
        {
          "internalType": "uint256",
          "name": "newPrice",
          "type": "uint256"
        }
      ],
      "name": "setSharingPrice",
      "outputs": [],
      "stateMutability": "nonpayable",
      "type": "function"
    },
    {
      "inputs": [
        {
          "internalType": "uint256",
          "name": "tokenId",
          "type": "uint256"
        }
      ],
      "name": "getAllRealOwnerOfTokenId",
      "outputs": [
        {
          "internalType": "address[]",
          "name": "",
          "type": "address[]"
        }
      ],
      "stateMutability": "view",
      "type": "function",
      "constant": true
    },
    {
      "inputs": [
        {
          "internalType": "uint256",
          "name": "tokenId",
          "type": "uint256"
        }
      ],
      "name": "getBalanceOfOwnerBook",
      "outputs": [
        {
          "internalType": "uint256",
          "name": "",
          "type": "uint256"
        }
      ],
      "stateMutability": "view",
      "type": "function",
      "constant": true
    },
    {
      "inputs": [
        {
          "internalType": "uint256",
          "name": "tokenId",
          "type": "uint256"
        }
      ],
      "name": "getNftBook",
      "outputs": [
        {
          "components": [
            {
              "internalType": "uint256",
              "name": "tokenId",
              "type": "uint256"
            },
            {
              "internalType": "address",
              "name": "author",
              "type": "address"
            },
            {
              "internalType": "uint256",
              "name": "quantity",
              "type": "uint256"
            }
          ],
          "internalType": "struct BookStore.NFTBook",
          "name": "",
          "type": "tuple"
        }
      ],
      "stateMutability": "view",
      "type": "function",
      "constant": true
    },
    {
      "inputs": [
        {
          "internalType": "string",
          "name": "tokenURI",
          "type": "string"
        }
      ],
      "name": "isTokenURIExist",
      "outputs": [
        {
          "internalType": "bool",
          "name": "",
          "type": "bool"
        }
      ],
      "stateMutability": "view",
      "type": "function",
      "constant": true
    },
    {
      "inputs": [
        {
          "internalType": "string",
          "name": "tokenURI",
          "type": "string"
        },
        {
          "internalType": "uint256",
          "name": "quantity",
          "type": "uint256"
        },
        {
          "internalType": "string",
          "name": "privateKey",
          "type": "string"
        },
        {
          "internalType": "string",
          "name": "iv",
          "type": "string"
        }
      ],
      "name": "mintBook",
      "outputs": [
        {
          "internalType": "uint256",
          "name": "",
          "type": "uint256"
        }
      ],
      "stateMutability": "payable",
      "type": "function",
      "payable": true
    },
    {
      "inputs": [
        {
          "internalType": "uint256",
          "name": "tokenId",
          "type": "uint256"
        }
      ],
      "name": "getSecretKey",
      "outputs": [
        {
          "internalType": "string[]",
          "name": "",
          "type": "string[]"
        }
      ],
      "stateMutability": "view",
      "type": "function",
      "constant": true
    },
    {
      "inputs": [
        {
          "internalType": "uint256",
          "name": "tokenId",
          "type": "uint256"
        }
      ],
      "name": "isBookReadableByUser",
      "outputs": [
        {
          "internalType": "bool",
          "name": "",
          "type": "bool"
        }
      ],
      "stateMutability": "view",
      "type": "function",
      "constant": true
    },
    {
      "inputs": [
        {
          "internalType": "uint256",
          "name": "tokenId",
          "type": "uint256"
        },
        {
          "internalType": "address",
          "name": "owner",
          "type": "address"
        }
      ],
      "name": "isOwnerOfToken",
      "outputs": [
        {
          "internalType": "bool",
          "name": "",
          "type": "bool"
        }
      ],
      "stateMutability": "view",
      "type": "function",
      "constant": true
    },
    {
      "inputs": [],
      "name": "getOwnedNFTBooks",
      "outputs": [
        {
          "components": [
            {
              "internalType": "uint256",
              "name": "tokenId",
              "type": "uint256"
            },
            {
              "internalType": "address",
              "name": "author",
              "type": "address"
            },
            {
              "internalType": "uint256",
              "name": "quantity",
              "type": "uint256"
            }
          ],
          "internalType": "struct BookStore.NFTBook[]",
          "name": "",
          "type": "tuple[]"
        }
      ],
      "stateMutability": "view",
      "type": "function",
      "constant": true
    },
    {
      "inputs": [],
      "name": "getOwnedListedBooks",
      "outputs": [
        {
          "components": [
            {
              "internalType": "uint256",
              "name": "tokenId",
              "type": "uint256"
            },
            {
              "internalType": "address",
              "name": "seller",
              "type": "address"
            },
            {
              "internalType": "address",
              "name": "buyer",
              "type": "address"
            },
            {
              "internalType": "uint256",
              "name": "price",
              "type": "uint256"
            },
            {
              "internalType": "uint256",
              "name": "amount",
              "type": "uint256"
            }
          ],
          "internalType": "struct BookSellingStorage.BookSelling[]",
          "name": "",
          "type": "tuple[]"
        }
      ],
      "stateMutability": "view",
      "type": "function",
      "constant": true
    },
    {
      "inputs": [],
      "name": "getOwnedLendingBooks",
      "outputs": [
        {
          "components": [
            {
              "internalType": "uint256",
              "name": "tokenId",
              "type": "uint256"
            },
            {
              "internalType": "address",
              "name": "renter",
              "type": "address"
            },
            {
              "internalType": "uint256",
              "name": "price",
              "type": "uint256"
            },
            {
              "internalType": "uint256",
              "name": "amount",
              "type": "uint256"
            }
          ],
          "internalType": "struct BookRentingStorage.LendBook[]",
          "name": "",
          "type": "tuple[]"
        }
      ],
      "stateMutability": "view",
      "type": "function",
      "constant": true
    },
    {
      "inputs": [
        {
          "internalType": "uint256",
          "name": "tokenId",
          "type": "uint256"
        }
      ],
      "name": "getAmountUnUsedBook",
      "outputs": [
        {
          "internalType": "uint256",
          "name": "",
          "type": "uint256"
        }
      ],
      "stateMutability": "view",
      "type": "function",
      "constant": true
    },
    {
      "inputs": [
        {
          "internalType": "uint256",
          "name": "tokenId",
          "type": "uint256"
        }
      ],
      "name": "getAmountOfAllTypeBooksUntradeable",
      "outputs": [
        {
          "internalType": "uint256",
          "name": "",
          "type": "uint256"
        }
      ],
      "stateMutability": "view",
      "type": "function",
      "constant": true
    },
    {
      "inputs": [
        {
          "internalType": "uint256",
          "name": "tokenId",
          "type": "uint256"
        },
        {
          "internalType": "uint256",
          "name": "price",
          "type": "uint256"
        },
        {
          "internalType": "uint256",
          "name": "amount",
          "type": "uint256"
        }
      ],
      "name": "sellBooks",
      "outputs": [],
      "stateMutability": "payable",
      "type": "function",
      "payable": true
    },
    {
      "inputs": [
        {
          "internalType": "uint256",
          "name": "tokenId",
          "type": "uint256"
        },
        {
          "internalType": "uint256",
          "name": "price",
          "type": "uint256"
        },
        {
          "internalType": "uint256",
          "name": "amount",
          "type": "uint256"
        }
      ],
      "name": "lendBooks",
      "outputs": [],
      "stateMutability": "payable",
      "type": "function",
      "payable": true
    },
    {
      "inputs": [
        {
          "internalType": "uint256",
          "name": "tokenId",
          "type": "uint256"
        },
        {
          "internalType": "uint256",
          "name": "newPrice",
          "type": "uint256"
        },
        {
          "internalType": "uint256",
          "name": "newAmount",
          "type": "uint256"
        },
        {
          "internalType": "address",
          "name": "seller",
          "type": "address"
        }
      ],
      "name": "updateBookFromSale",
      "outputs": [],
      "stateMutability": "nonpayable",
      "type": "function"
    },
    {
      "inputs": [
        {
          "internalType": "uint256",
          "name": "tokenId",
          "type": "uint256"
        },
        {
          "internalType": "uint256",
          "name": "newPrice",
          "type": "uint256"
        },
        {
          "internalType": "uint256",
          "name": "newAmount",
          "type": "uint256"
        },
        {
          "internalType": "address",
          "name": "renter",
          "type": "address"
        }
      ],
      "name": "updateBookFromRenting",
      "outputs": [],
      "stateMutability": "nonpayable",
      "type": "function"
    },
    {
      "inputs": [
        {
          "internalType": "uint256",
          "name": "tokenId",
          "type": "uint256"
        },
        {
          "internalType": "address",
          "name": "seller",
          "type": "address"
        },
        {
          "internalType": "uint256",
          "name": "amount",
          "type": "uint256"
        }
      ],
      "name": "buyBooks",
      "outputs": [],
      "stateMutability": "payable",
      "type": "function",
      "payable": true
    },
    {
      "inputs": [
        {
          "internalType": "uint256",
          "name": "tokenId",
          "type": "uint256"
        },
        {
          "internalType": "address",
          "name": "renter",
          "type": "address"
        },
        {
          "internalType": "uint256",
          "name": "price",
          "type": "uint256"
        },
        {
          "internalType": "uint256",
          "name": "amount",
          "type": "uint256"
        },
        {
          "internalType": "uint256",
          "name": "rentalDuration",
          "type": "uint256"
        }
      ],
      "name": "borrowBooks",
      "outputs": [],
      "stateMutability": "payable",
      "type": "function",
      "payable": true
    },
    {
      "inputs": [
        {
          "internalType": "uint256",
          "name": "tokenId",
          "type": "uint256"
        },
        {
          "internalType": "address",
          "name": "renter",
          "type": "address"
        },
        {
          "internalType": "uint256",
          "name": "startTime",
          "type": "uint256"
        },
        {
          "internalType": "uint256",
          "name": "endTime",
          "type": "uint256"
        },
        {
          "internalType": "uint256",
          "name": "extendedAmount",
          "type": "uint256"
        },
        {
          "internalType": "uint256",
          "name": "extendedTime",
          "type": "uint256"
        }
      ],
      "name": "requestExtendTimeOfBorrowedBooks",
      "outputs": [],
      "stateMutability": "nonpayable",
      "type": "function"
    },
    {
      "inputs": [
        {
          "internalType": "uint256",
          "name": "tokenId",
          "type": "uint256"
        },
        {
          "internalType": "address",
          "name": "renter",
          "type": "address"
        },
        {
          "internalType": "uint256",
          "name": "startTime",
          "type": "uint256"
        },
        {
          "internalType": "uint256",
          "name": "endTime",
          "type": "uint256"
        },
        {
          "internalType": "uint256",
          "name": "newExtendedAmount",
          "type": "uint256"
        },
        {
          "internalType": "uint256",
          "name": "newExtendedTime",
          "type": "uint256"
        }
      ],
      "name": "updateRequestOfBorrowedBooks",
      "outputs": [],
      "stateMutability": "nonpayable",
      "type": "function"
    },
    {
      "inputs": [
        {
          "internalType": "uint256",
          "name": "idBorrowedBook",
          "type": "uint256"
        },
        {
          "internalType": "address",
          "name": "borrower",
          "type": "address"
        },
        {
          "internalType": "bool",
          "name": "isAccept",
          "type": "bool"
        }
      ],
      "name": "doAcceptRequest",
      "outputs": [
        {
          "internalType": "bool",
          "name": "",
          "type": "bool"
        }
      ],
      "stateMutability": "nonpayable",
      "type": "function"
    },
    {
      "inputs": [
        {
          "internalType": "uint256",
          "name": "id",
          "type": "uint256"
        },
        {
          "internalType": "address",
          "name": "renter",
          "type": "address"
        },
        {
          "internalType": "bool",
          "name": "isExtend",
          "type": "bool"
        }
      ],
      "name": "transferForSendedRequest",
      "outputs": [],
      "stateMutability": "payable",
      "type": "function",
      "payable": true
    },
    {
      "inputs": [
        {
          "internalType": "uint256",
          "name": "idBorrowedBook",
          "type": "uint256"
        }
      ],
      "name": "recallBorrowedBooks",
      "outputs": [
        {
          "internalType": "bool",
          "name": "",
          "type": "bool"
        }
      ],
      "stateMutability": "nonpayable",
      "type": "function"
    },
    {
      "inputs": [
        {
          "internalType": "uint256",
          "name": "idBorrowedBook",
          "type": "uint256"
        },
        {
          "internalType": "uint256",
          "name": "price",
          "type": "uint256"
        },
        {
          "internalType": "uint256",
          "name": "amount",
          "type": "uint256"
        }
      ],
      "name": "shareBooks",
      "outputs": [],
      "stateMutability": "payable",
      "type": "function",
      "payable": true
    },
    {
      "inputs": [
        {
          "internalType": "uint256",
          "name": "idBooksOnSharing",
          "type": "uint256"
        },
        {
          "internalType": "uint256",
          "name": "newPrice",
          "type": "uint256"
        },
        {
          "internalType": "uint256",
          "name": "newAmount",
          "type": "uint256"
        }
      ],
      "name": "updateBooksOnSharing",
      "outputs": [],
      "stateMutability": "nonpayable",
      "type": "function"
    },
    {
      "inputs": [
        {
          "internalType": "uint256",
          "name": "idBooksOnSharing",
          "type": "uint256"
        }
      ],
      "name": "takeBooksOnSharing",
      "outputs": [],
      "stateMutability": "payable",
      "type": "function",
      "payable": true
    },
    {
      "inputs": [
        {
          "internalType": "uint256",
          "name": "idSharedBook",
          "type": "uint256"
        }
      ],
      "name": "recallSharedBooks",
      "outputs": [
        {
          "internalType": "bool",
          "name": "",
          "type": "bool"
        }
      ],
      "stateMutability": "nonpayable",
      "type": "function"
    },
    {
      "inputs": [
        {
          "internalType": "uint256",
          "name": "idBooksOnSharing",
          "type": "uint256"
        }
      ],
      "name": "recallBooksOnSharing",
      "outputs": [
        {
          "internalType": "bool",
          "name": "",
          "type": "bool"
        }
      ],
      "stateMutability": "nonpayable",
      "type": "function"
    }
  ],
  "bytecode": "0x60a0604052600060809081526003906200001a90826200030c565b506101f4600c5562093a80600d556658d15e17628000600e5566038d7ea4c68000600f556601c6bf526340006010553480156200005657600080fd5b5060405162005310380380620053108339810160408190526200007991620003f1565b604051806060016040528060218152602001620052ef602191396200009e8162000203565b50620000aa3362000215565b600680546001600160a01b038087166001600160a01b0319928316179092556007805492861692909116821790556040805163a943f98f60e01b8152905163a943f98f916004808201926020929091908290030181865afa15801562000114573d6000803e3d6000fd5b505050506040513d601f19601f820116820180604052508101906200013a919062000459565b600880546001600160a01b0319166001600160a01b039283161790556007546040805163bc20efc560e01b81529051919092169163bc20efc59160048083019260209291908290030181865afa15801562000199573d6000803e3d6000fd5b505050506040513d601f19601f82011682018060405250810190620001bf919062000459565b600980546001600160a01b03199081166001600160a01b0393841617909155600a8054821694831694909417909355600b8054909316911617905550620004809050565b60026200021182826200030c565b5050565b600580546001600160a01b038381166001600160a01b0319831681179093556040519116919082907f8be0079c531659141344cd1fd0a4f28419497f9722a3daafe3b4186f6b6457e090600090a35050565b634e487b7160e01b600052604160045260246000fd5b600181811c908216806200029257607f821691505b602082108103620002b357634e487b7160e01b600052602260045260246000fd5b50919050565b601f8211156200030757600081815260208120601f850160051c81016020861015620002e25750805b601f850160051c820191505b818110156200030357828155600101620002ee565b5050505b505050565b81516001600160401b0381111562000328576200032862000267565b62000340816200033984546200027d565b84620002b9565b602080601f8311600181146200037857600084156200035f5750858301515b600019600386901b1c1916600185901b17855562000303565b600085815260208120601f198616915b82811015620003a95788860151825594840194600190910190840162000388565b5085821015620003c85787850151600019600388901b60f8161c191681555b5050505050600190811b01905550565b6001600160a01b0381168114620003ee57600080fd5b50565b600080600080608085870312156200040857600080fd5b84516200041581620003d8565b60208601519094506200042881620003d8565b60408601519093506200043b81620003d8565b60608601519092506200044e81620003d8565b939692955090935050565b6000602082840312156200046c57600080fd5b81516200047981620003d8565b9392505050565b614e5f80620004906000396000f3fe6080604052600436106102475760003560e01c80637c726b691161013a578063da0544aa116100b1578063da0544aa14610680578063dd01b4b2146106a0578063e04f7abe146106c0578063e30340ea146106e0578063e86c214e14610700578063e985e9c514610720578063eafdf24c14610769578063eca8dcf314610796578063f242432a146107b6578063f2fde38b146107d6578063f59e1293146107f6578063f6ee75031461081657600080fd5b80637c726b691461050d57806380e8b1381461052d5780638da5cb5b1461054f578063a22cb46514610575578063abef9cf914610595578063b0a3a2f3146105a8578063b39455e7146105ca578063b4a0e525146105ea578063ba71a7131461060a578063c6043b0c1461062a578063c78f19f91461064a578063d47181d51461066057600080fd5b80634162673d116101ce5780634162673d146103c65780634b61469a146103dc5780634d76a8d3146103f25780634e1273f4146104055780634e129cde146104325780635a7d1499146104525780635b859bc8146104655780635c4f12571461047857806364b93e741461048b578063715018a61461049e5780637731b1f0146104b35780637ba9a1b3146104e057600080fd5b8062fdd58e1461024c57806301ffc9a71461027f5780630838c49d146102af5780630e419fb2146102d15780630e89341c146102e4578063115e9cfe1461031157806312d0a7661461033357806313e54b3d146103535780632a5c3592146103735780632e43a9f9146103935780632eb2c2d6146103a6575b600080fd5b34801561025857600080fd5b5061026c610267366004613abd565b610836565b6040519081526020015b60405180910390f35b34801561028b57600080fd5b5061029f61029a366004613aff565b6108cf565b6040519015158152602001610276565b3480156102bb57600080fd5b506102c461091f565b6040516102769190613b1c565b61026c6102df366004613c77565b610b33565b3480156102f057600080fd5b506103046102ff366004613d08565b610c99565b6040516102769190613d71565b34801561031d57600080fd5b5061033161032c366004613d84565b610d79565b005b34801561033f57600080fd5b5061029f61034e366004613db0565b6110ce565b34801561035f57600080fd5b5061033161036e366004613d08565b6110e3565b34801561037f57600080fd5b5061026c61038e366004613d08565b611114565b6103316103a1366004613de0565b611205565b3480156103b257600080fd5b506103316103c1366004613eac565b6112f2565b3480156103d257600080fd5b5061026c60105481565b3480156103e857600080fd5b5061026c600f5481565b610331610400366004613d08565b611337565b34801561041157600080fd5b50610425610420366004613f59565b611510565b6040516102769190614060565b34801561043e57600080fd5b5061033161044d366004614073565b611639565b610331610460366004613d84565b6116fd565b6103316104733660046140b4565b611907565b610331610486366004613d84565b611a3b565b610331610499366004613d84565b611b40565b3480156104aa57600080fd5b50610331611c1d565b3480156104bf57600080fd5b506104d36104ce366004613d08565b611c31565b60405161027691906140fc565b3480156104ec57600080fd5b506105006104fb366004613d08565b611cce565b604051610276919061415e565b34801561051957600080fd5b50610331610528366004613d08565b611d40565b34801561053957600080fd5b50610542611d71565b60405161027691906141ab565b34801561055b57600080fd5b506005546001600160a01b03166040516102769190614218565b34801561058157600080fd5b5061033161059036600461423a565b611f8b565b6103316105a3366004614268565b611f9a565b3480156105b457600080fd5b506105bd61208f565b60405161027691906142cc565b3480156105d657600080fd5b5061026c6105e5366004613d08565b61218d565b3480156105f657600080fd5b5061033161060536600461430e565b6121c4565b34801561061657600080fd5b5061029f61062536600461435e565b61228b565b34801561063657600080fd5b5061029f610645366004613d08565b6122b6565b34801561065657600080fd5b5061026c600e5481565b34801561066c57600080fd5b5061029f61067b366004614268565b612461565b34801561068c57600080fd5b5061030461069b366004613d08565b6124ef565b3480156106ac57600080fd5b5061029f6106bb366004613d08565b6124fa565b3480156106cc57600080fd5b506103316106db36600461430e565b61262a565b3480156106ec57600080fd5b5061029f6106fb366004613d08565b6126ec565b34801561070c57600080fd5b5061026c61071b366004613d08565b612825565b34801561072c57600080fd5b5061029f61073b366004614392565b6001600160a01b03918216600090815260016020908152604080832093909416825291909152205460ff1690565b34801561077557600080fd5b50610789610784366004613d08565b612843565b60405161027691906143c0565b3480156107a257600080fd5b5061029f6107b1366004613d08565b61288d565b3480156107c257600080fd5b506103316107d13660046143ce565b6129bf565b3480156107e257600080fd5b506103316107f1366004614436565b612a04565b34801561080257600080fd5b50610331610811366004613d08565b612a7d565b34801561082257600080fd5b50610331610831366004614073565b612aae565b60006001600160a01b0383166108a65760405162461bcd60e51b815260206004820152602a60248201527f455243313135353a2061646472657373207a65726f206973206e6f742061207660448201526930b634b21037bbb732b960b11b60648201526084015b60405180910390fd5b506000818152602081815260408083206001600160a01b03861684529091529020545b92915050565b60006001600160e01b03198216636cdb3d1360e11b148061090057506001600160e01b031982166303a24d0760e21b145b806108c957506301ffc9a760e01b6001600160e01b03198316146108c9565b6008546040516302b1dead60e11b81526060916000916001600160a01b0390911690630563bd5a90610955903390600401614218565b602060405180830381865afa158015610972573d6000803e3d6000fd5b505050506040513d601f19601f820116820180604052508101906109969190614453565b33600090815260156020526040812054919250826001600160401b038111156109c1576109c1613b89565b604051908082528060200260200182016040528015610a2657816020015b610a1360405180608001604052806000815260200160006001600160a01b0316815260200160008152602001600081525090565b8152602001906001900390816109df5790505b5090506000805b83811015610b295733600081815260146020908152604080832085845290915280822054600854915163ca36874d60e01b815290936001600160a01b039092169163ca36874d91610a8291869160040161446c565b608060405180830381865afa158015610a9f573d6000803e3d6000fd5b505050506040513d601f19601f82011682018060405250810190610ac39190614493565b805190915015801590610ae2575060208101516001600160a01b031615155b15610b145780858581518110610afa57610afa6144fe565b60200260200101819052508380610b109061452a565b9450505b50508080610b219061452a565b915050610a2d565b5090949350505050565b6000610b3e8561228b565b15610b5e578460405163d8c63acf60e01b815260040161089d9190613d71565b831580610b6c5750600c5484115b15610b8d5760405163099f49a360e11b81526004810185905260240161089d565b600e543414610bb15760405163713bd66960e01b815234600482015260240161089d565b610bbf601180546001019055565b6000610bca60115490565b9050610be733828760405180602001604052806000815250612b3a565b610bf18187612c63565b610bfb8186612cc0565b6001601387604051610c0d9190614543565b908152604051908190036020018120805492151560ff1990931692909217909155600b546353d36d8f60e01b82526001600160a01b0316906353d36d8f90610c5d9084908890889060040161455f565b600060405180830381600087803b158015610c7757600080fd5b505af1158015610c8b573d6000803e3d6000fd5b509298975050505050505050565b600081815260046020526040812080546060929190610cb790614594565b80601f0160208091040260200160405190810160405280929190818152602001828054610ce390614594565b8015610d305780601f10610d0557610100808354040283529160200191610d30565b820191906000526020600020905b815481529060010190602001808311610d1357829003601f168201915b505050505090506000815111610d4e57610d4983612d58565b610d72565b600381604051602001610d629291906145ce565b6040516020818303038152906040525b9392505050565b60095460405163c0a6417160e01b8152600481018590526000916001600160a01b03169063c0a641719060240161012060405180830381865afa158015610dc4573d6000803e3d6000fd5b505050506040513d601f19601f82011682018060405250810190610de89190614655565b6008548151602083015160408085015160e086015161010087015192516301e4faa160e31b815260048101959095526001600160a01b03938416602486015290831660448501526064840152608483015292935060009290911690630f27d5089060a401602060405180830381865afa158015610e69573d6000803e3d6000fd5b505050506040513d601f19601f82011682018060405250810190610e8d9190614453565b905080600003610eb35760405163d8bbd62160e01b81526004810182905260240161089d565b600854604051633c78cc8360e11b8152600481018390526000916001600160a01b0316906378f199069060240160e060405180830381865afa158015610efd573d6000803e3d6000fd5b505050506040513d601f19601f82011682018060405250810190610f2191906146e5565b905080604001516001600160a01b0316336001600160a01b031614610f5b5733604051633992dcbd60e21b815260040161089d9190614218565b831580610f7a57508260c001518160800151610f77919061477a565b84115b15610f9b5760405163099f49a360e11b81526004810185905260240161089d565b6000808460c001518611610fc45760009150858560c00151610fbd919061478d565b9050610fda565b60c085015160019250610fd7908761478d565b90505b6009548351604051639c48c1b360e01b8152600481018b9052336024820152604481019190915260648101899052608481018890526001600160a01b0390911690639c48c1b39060a401600060405180830381600087803b15801561103e57600080fd5b505af1158015611052573d6000803e3d6000fd5b5050600854604051631a43551f60e11b8152600481018890526024810185905285151560448201526001600160a01b039091169250633486aa3e91506064015b600060405180830381600087803b1580156110ac57600080fd5b505af11580156110c0573d6000803e3d6000fd5b505050505050505050505050565b6000806110db8385610836565b119392505050565b6110eb612dec565b8060000361110f5760405163713bd66960e01b81526004810182905260240161089d565b601055565b600754604051630a43ea8360e31b81526000916001600160a01b03169063521f541890611147908590339060040161446c565b602060405180830381865afa158015611164573d6000803e3d6000fd5b505050506040513d601f19601f820116820180604052508101906111889190614453565b6006546040516362513fcd60e11b81526001600160a01b039091169063c4a27f9a906111ba908690339060040161446c565b602060405180830381865afa1580156111d7573d6000803e3d6000fd5b505050506040513d601f19601f820116820180604052508101906111fb9190614453565b6108c9919061477a565b600654604051633af98cfd60e11b8152600481018590526001600160a01b0384811660248301526044820184905233606483015234608483015260009216906375f319fa9060a4016020604051808303816000875af115801561126c573d6000803e3d6000fd5b505050506040513d601f19601f820116820180604052508101906112909190614453565b905080156112ec576112b48333868560405180602001604052806000815250612e46565b6040516001600160a01b0384169082156108fc029083906000818181858888f193505050501580156112ea573d6000803e3d6000fd5b505b50505050565b6001600160a01b03851633148061130e575061130e853361073b565b61132a5760405162461bcd60e51b815260040161089d906147a0565b6112ea8585858585612f81565b336113575733604051633992dcbd60e21b815260040161089d9190614218565b8060000361137b5760405163d8bbd62160e01b81526000600482015260240161089d565b60095460405163c0a6417160e01b8152600481018390526000916001600160a01b03169063c0a641719060240161012060405180830381865afa1580156113c6573d6000803e3d6000fd5b505050506040513d601f19601f820116820180604052508101906113ea9190614655565b6009546040516328b8744160e11b81529192506000916001600160a01b0390911690635170e88290611422908690339060040161446c565b6020604051808303816000875af1158015611441573d6000803e3d6000fd5b505050506040513d601f19601f820116820180604052508101906114659190614453565b90508034146114895760405163713bd66960e01b815234600482015260240161089d565b8151156114f2576114b58260400151338460000151600160405180602001604052806000815250612e46565b81604001516001600160a01b03166108fc829081150290604051600060405180830381858888f193505050501580156112ec573d6000803e3d6000fd5b604051632532cf4560e01b815260040160405180910390fd5b505050565b606081518351146115755760405162461bcd60e51b815260206004820152602960248201527f455243313135353a206163636f756e747320616e6420696473206c656e677468604482015268040dad2e6dac2e8c6d60bb1b606482015260840161089d565b600083516001600160401b0381111561159057611590613b89565b6040519080825280602002602001820160405280156115b9578160200160208202803683370190505b50905060005b8451811015611631576116048582815181106115dd576115dd6144fe565b60200260200101518583815181106115f7576115f76144fe565b6020026020010151610836565b828281518110611616576116166144fe565b602090810291909101015261162a8161452a565b90506115bf565b509392505050565b61164384336110ce565b611664578333604051633df9e10b60e11b815260040161089d92919061446c565b6001600160a01b038116331461168f5733604051633992dcbd60e21b815260040161089d9190614218565b60065460405163783db84b60e01b81526001600160a01b039091169063783db84b906116c59087908790879087906004016147ee565b600060405180830381600087803b1580156116df57600080fd5b505af11580156116f3573d6000803e3d6000fd5b5050505050505050565b600854604051633c78cc8360e11b8152600481018590526000916001600160a01b0316906378f199069060240160e060405180830381865afa158015611747573d6000803e3d6000fd5b505050506040513d601f19601f8201168201806040525081019061176b91906146e5565b905080604001516001600160a01b0316336001600160a01b0316146117a55733604051633992dcbd60e21b815260040161089d9190614218565b60105434146117cd5760105460405163713bd66960e01b815260040161089d91815260200190565b8115806117dd5750806080015182115b156117fe5760405163099f49a360e11b81526004810183905260240161089d565b8060c001514210611824576040516307b263f160e11b815242600482015260240161089d565b60095481516020830151606084015160a085015160c0860151604051634d47843960e11b815260048101959095526001600160a01b03938416602486015233604486015260648501929092526084840188905260a4840187905260c484015260e483015290911690639a8f08729061010401600060405180830381600087803b1580156118b057600080fd5b505af11580156118c4573d6000803e3d6000fd5b5050600854604051631a43551f60e11b81526004810188905260248101869052600160448201526001600160a01b039091169250633486aa3e91506064016116c5565b600d5481101561192d576040516307b263f160e11b81526004810182905260240161089d565b42600061193a838361477a565b6008546040516001621893ad60e21b03198152600481018a90526001600160a01b03898116602483015260448201889052606482018990526084820186905260a482018490523360c48301529293506000929091169063ff9db14c9060e4016020604051808303816000875af11580156119b8573d6000803e3d6000fd5b505050506040513d601f19601f820116820180604052508101906119dc9190614453565b90506119fa87338a8860405180602001604052806000815250612e46565b6040516001600160a01b0388169082156108fc029083906000818181858888f19350505050158015611a30573d6000803e3d6000fd5b505050505050505050565b611a4583336110ce565b611a66578233604051633df9e10b60e11b815260040161089d92919061446c565b611a703384610836565b81611a7a85611114565b611a84919061477a565b1180611a8e575080155b15611aaf5760405163099f49a360e11b81526004810182905260240161089d565b600e543414611ad35760405163713bd66960e01b815234600482015260240161089d565b600654604051634c5aecb560e01b81526001600160a01b0390911690634c5aecb590611b099086908690869033906004016147ee565b600060405180830381600087803b158015611b2357600080fd5b505af1158015611b37573d6000803e3d6000fd5b50505050505050565b611b4a83336110ce565b611b6b578233604051633df9e10b60e11b815260040161089d92919061446c565b611b753384610836565b81611b7f85611114565b611b89919061477a565b1180611b93575080155b15611bb45760405163099f49a360e11b81526004810182905260240161089d565b600f543414611bd85760405163713bd66960e01b815234600482015260240161089d565b60085460405163cca1003d60e01b81526004810185905233602482015260448101849052606481018390526001600160a01b039091169063cca1003d90608401611b09565b611c25612dec565b611c2f600061317a565b565b6060611c3c826126ec565b611c5c5760405163056fd2d960e01b81526004810183905260240161089d565b600b546040516307731b1f60e41b8152600481018490526000916001600160a01b031690637731b1f090602401600060405180830381865afa158015611ca6573d6000803e3d6000fd5b505050506040513d6000823e601f3d908101601f19168201604052610d729190810190614812565b600a54604051637ba9a1b360e01b8152600481018390526060916001600160a01b031690637ba9a1b390602401600060405180830381865afa158015611d18573d6000803e3d6000fd5b505050506040513d6000823e601f3d908101601f191682016040526108c99190810190614914565b611d48612dec565b80600003611d6c5760405163713bd66960e01b81526004810182905260240161089d565b600e55565b600654604051637cf6961960e11b81526060916000916001600160a01b039091169063f9ed2c3290611da7903390600401614218565b602060405180830381865afa158015611dc4573d6000803e3d6000fd5b505050506040513d601f19601f82011682018060405250810190611de89190614453565b33600090815260156020526040812054919250826001600160401b03811115611e1357611e13613b89565b604051908082528060200260200182016040528015611e8857816020015b611e756040518060a001604052806000815260200160006001600160a01b0316815260200160006001600160a01b0316815260200160008152602001600081525090565b815260200190600190039081611e315790505b5090506000805b83811015610b2957336000818152601460209081526040808320858452909152808220546006549151630ed148dd60e41b815290936001600160a01b039092169163ed148dd091611ee491869160040161446c565b60a060405180830381865afa158015611f01573d6000803e3d6000fd5b505050506040513d601f19601f82011682018060405250810190611f2591906149b8565b805190915015801590611f44575060208101516001600160a01b031615155b15611f765780858581518110611f5c57611f5c6144fe565b60200260200101819052508380611f729061452a565b9450505b50508080611f839061452a565b915050611e8f565b611f963383836131cc565b5050565b336001600160a01b03831603611fc55733604051633992dcbd60e21b815260040161089d9190614218565b600854604051637e9a759f60e11b8152600481018590526001600160a01b0384811660248301523360448301524260648301528315156084830152600092169063fd34eb3e9060a4016020604051808303816000875af115801561202d573d6000803e3d6000fd5b505050506040513d601f19601f820116820180604052508101906120519190614453565b905080156112ec576040516001600160a01b0384169082156108fc029083906000818181858888f193505050501580156112ea573d6000803e3d6000fd5b33600090815260156020526040812054606091816001600160401b038111156120ba576120ba613b89565b6040519080825280602002602001820160405280156120f357816020015b6120e0613a7e565b8152602001906001900390816120d85790505b50905060005b8281101561218657336000908152601460209081526040808320848452825280832054808452601283529281902081516060810183528154815260018201546001600160a01b031693810193909352600201549082015283518190859085908110612166576121666144fe565b60200260200101819052505050808061217e9061452a565b9150506120f9565b5092915050565b600061219982336110ce565b6121ba578133604051633df9e10b60e11b815260040161089d92919061446c565b6108c93383610836565b336001600160a01b038616036121ef5733604051633992dcbd60e21b815260040161089d9190614218565b600d54811015612215576040516307b263f160e11b81526004810182905260240161089d565b600854604051635d1d319560e11b81526001600160a01b039091169063ba3a632a90612251908990899033908a908a908a908a90600401614a36565b600060405180830381600087803b15801561226b57600080fd5b505af115801561227f573d6000803e3d6000fd5b50505050505050505050565b600060138260405161229d9190614543565b9081526040519081900360200190205460ff1692915050565b600954604051631c5750f960e11b81526004810183905260009182916001600160a01b03909116906338aea1f29060240161012060405180830381865afa158015612305573d6000803e3d6000fd5b505050506040513d601f19601f820116820180604052508101906123299190614655565b9050336001600160a01b031681602001516001600160a01b03160361242457600954604051632a7a752960e21b8152600481018590526000916001600160a01b03169063a9e9d4a4906024016020604051808303816000875af1158015612394573d6000803e3d6000fd5b505050506040513d601f19601f820116820180604052508101906123b89190614a72565b905080156123e8576123e882606001513384600001518560c0015160405180602001604052806000815250612e46565b60405181151581527fe38e50a89766248233feffed7b43385c8186be090b5f79d929ceeecf5b08d15f9060200160405180910390a19392505050565b604051600081527fe38e50a89766248233feffed7b43385c8186be090b5f79d929ceeecf5b08d15f9060200160405180910390a150600092915050565b60085460405163d572cd8960e01b8152600481018590526001600160a01b0384811660248301523360448301528315156064830152600092169063d572cd89906084016020604051808303816000875af11580156124c3573d6000803e3d6000fd5b505050506040513d601f19601f820116820180604052508101906124e79190614a72565b949350505050565b60606108c982610c99565b600854604051633c78cc8360e11b81526004810183905260009182916001600160a01b03909116906378f199069060240160e060405180830381865afa158015612548573d6000803e3d6000fd5b505050506040513d601f19601f8201168201806040525081019061256c91906146e5565b9050336001600160a01b031681602001516001600160a01b03160361242457600854604051626b016560e51b8152600481018590526000916001600160a01b031690630d602ca0906024016020604051808303816000875af11580156125d6573d6000803e3d6000fd5b505050506040513d601f19601f820116820180604052508101906125fa9190614a72565b905080156123e8576123e88260400151338460000151856080015160405180602001604052806000815250612e46565b6001600160a01b038516158061263e575033155b1561265f576000604051633992dcbd60e21b815260040161089d9190614218565b336001600160a01b0386160361268a5733604051633992dcbd60e21b815260040161089d9190614218565b600d548110156126b0576040516307b263f160e11b81526004810182905260240161089d565b600854604051630527095960e51b81526001600160a01b039091169063a4e12b2090612251908990899033908a908a908a908a90600401614a36565b60006126f882336110ce565b61270457506000919050565b600061270f83612825565b111561271d57506001919050565b600854604051634780710d60e01b81526001600160a01b0390911690634780710d9061274f908590339060040161446c565b602060405180830381865afa15801561276c573d6000803e3d6000fd5b505050506040513d601f19601f820116820180604052508101906127909190614a72565b1561279d57506001919050565b600954604051632e8742f960e11b81526001600160a01b0390911690635d0e85f2906127cf908590339060040161446c565b602060405180830381865afa1580156127ec573d6000803e3d6000fd5b505050506040513d601f19601f820116820180604052508101906128109190614a72565b1561281d57506001919050565b506000919050565b600061283082611114565b6128398361218d565b6108c9919061478d565b61284b613a7e565b5060009081526012602090815260409182902082516060810184528154815260018201546001600160a01b031692810192909252600201549181019190915290565b60095460405163c0a6417160e01b81526004810183905260009182916001600160a01b039091169063c0a641719060240161012060405180830381865afa1580156128dc573d6000803e3d6000fd5b505050506040513d601f19601f820116820180604052508101906129009190614655565b9050336001600160a01b031681602001516001600160a01b031603612424576009546040516303a7c9d160e11b8152600481018590526000916001600160a01b03169063074f93a2906024016020604051808303816000875af115801561296b573d6000803e3d6000fd5b505050506040513d601f19601f8201168201806040525081019061298f9190614a72565b905080156123e8576123e882604001513384600001518560c0015160405180602001604052806000815250612e46565b6001600160a01b0385163314806129db57506129db853361073b565b6129f75760405162461bcd60e51b815260040161089d906147a0565b6112ea8585858585612e46565b612a0c612dec565b6001600160a01b038116612a715760405162461bcd60e51b815260206004820152602660248201527f4f776e61626c653a206e6577206f776e657220697320746865207a65726f206160448201526564647265737360d01b606482015260840161089d565b612a7a8161317a565b50565b612a85612dec565b80600003612aa95760405163713bd66960e01b81526004810182905260240161089d565b600f55565b612ab884826110ce565b612ad9578381604051633df9e10b60e11b815260040161089d92919061446c565b6001600160a01b0381163314612b045733604051633992dcbd60e21b815260040161089d9190614218565b600854604051636423566d60e01b81526001600160a01b0390911690636423566d906116c59087908790879087906004016147ee565b6001600160a01b038416612b9a5760405162461bcd60e51b815260206004820152602160248201527f455243313135353a206d696e7420746f20746865207a65726f206164647265736044820152607360f81b606482015260840161089d565b336000612ba6856132ac565b90506000612bb3856132ac565b9050612bc4836000898585896132f7565b6000868152602081815260408083206001600160a01b038b16845290915281208054879290612bf490849061477a565b909155505060408051878152602081018790526001600160a01b03808a1692600092918716917fc3d58168c5ae7397731d063d5bbf3d657854427343f4c083240f7aacaa2d0f62910160405180910390a4612c54836000898585896133cd565b611b3783600089898989613712565b6000828152600460205260409020612c7b8282614ad5565b50817f6bb7ff708619ba0610cba295a58592e0451dee2622938c8755667688daf3529b612ca784610c99565b604051612cb49190613d71565b60405180910390a25050565b60408051606080820183528482523360208084018281528486018781526000898152601284528790209551865590516001860180546001600160a01b0319166001600160a01b03909216919091179055516002909401939093558351868152928301529181018390527f1b0894b5dbaa4e03eefef0639cb8bdd09459f893cb73161de2aad97a30c66f78910160405180910390a15050565b606060028054612d6790614594565b80601f0160208091040260200160405190810160405280929190818152602001828054612d9390614594565b8015612de05780601f10612db557610100808354040283529160200191612de0565b820191906000526020600020905b815481529060010190602001808311612dc357829003601f168201915b50505050509050919050565b6005546001600160a01b03163314611c2f5760405162461bcd60e51b815260206004820181905260248201527f4f776e61626c653a2063616c6c6572206973206e6f7420746865206f776e6572604482015260640161089d565b6001600160a01b038416612e6c5760405162461bcd60e51b815260040161089d90614b94565b336000612e78856132ac565b90506000612e85856132ac565b9050612e958389898585896132f7565b6000868152602081815260408083206001600160a01b038c16845290915290205485811015612ed65760405162461bcd60e51b815260040161089d90614bd9565b6000878152602081815260408083206001600160a01b038d8116855292528083208985039055908a16825281208054889290612f1390849061477a565b909155505060408051888152602081018890526001600160a01b03808b16928c821692918816917fc3d58168c5ae7397731d063d5bbf3d657854427343f4c083240f7aacaa2d0f62910160405180910390a4612f73848a8a86868a6133cd565b611a30848a8a8a8a8a613712565b8151835114612fe35760405162461bcd60e51b815260206004820152602860248201527f455243313135353a2069647320616e6420616d6f756e7473206c656e677468206044820152670dad2e6dac2e8c6d60c31b606482015260840161089d565b6001600160a01b0384166130095760405162461bcd60e51b815260040161089d90614b94565b336130188187878787876132f7565b60005b84518110156130fe576000858281518110613038576130386144fe565b602002602001015190506000858381518110613056576130566144fe565b602090810291909101810151600084815280835260408082206001600160a01b038e1683529093529190912054909150818110156130a65760405162461bcd60e51b815260040161089d90614bd9565b6000838152602081815260408083206001600160a01b038e8116855292528083208585039055908b168252812080548492906130e390849061477a565b92505081905550505050806130f79061452a565b905061301b565b50846001600160a01b0316866001600160a01b0316826001600160a01b03167f4a39dc06d4c0dbc64b70af90fd698a233a518aa5d07e595d983b8c0526c8f7fb878760405161314e929190614c23565b60405180910390a46131648187878787876133cd565b61317281878787878761386d565b505050505050565b600580546001600160a01b038381166001600160a01b0319831681179093556040519116919082907f8be0079c531659141344cd1fd0a4f28419497f9722a3daafe3b4186f6b6457e090600090a35050565b816001600160a01b0316836001600160a01b03160361323f5760405162461bcd60e51b815260206004820152602960248201527f455243313135353a2073657474696e6720617070726f76616c20737461747573604482015268103337b91039b2b63360b91b606482015260840161089d565b6001600160a01b03838116600081815260016020908152604080832094871680845294825291829020805460ff191686151590811790915591519182527f17307eab39ab6107e8899845ad3d59bd9653f200f220920489ca2b5937696c31910160405180910390a3505050565b604080516001808252818301909252606091600091906020808301908036833701905050905082816000815181106132e6576132e66144fe565b602090810291909101015292915050565b6001600160a01b03851615801561331657506001600160a01b03841615155b1561334657600083600081518110613330576133306144fe565b602002602001015190506133448582613928565b505b6001600160a01b0385161580159061336657506001600160a01b03841615155b80156133845750846001600160a01b0316846001600160a01b031614155b156131725760008360008151811061339e5761339e6144fe565b602002602001015190506133b28582613928565b6133bc8682610836565b600003611b3757611b378682613984565b60006001600160a01b0386161580156133ee57506001600160a01b03851615155b1561350457600084600081518110613408576134086144fe565b602090810291909101015160075460405163defec46760e01b81529192506001600160a01b03169063defec467906134469084908a9060040161446c565b602060405180830381865afa158015613463573d6000803e3d6000fd5b505050506040513d601f19601f820116820180604052508101906134879190614453565b6134918783610836565b61349b919061478d565b600a5460405163d8e7337f60e01b81529193506001600160a01b03169063d8e7337f906134d090859085908b90600401614c51565b600060405180830381600087803b1580156134ea57600080fd5b505af11580156134fe573d6000803e3d6000fd5b50505050505b6001600160a01b0386161580159061352457506001600160a01b03851615155b80156135425750856001600160a01b0316856001600160a01b031614155b15611b375760008460008151811061355c5761355c6144fe565b602090810291909101015160075460405163defec46760e01b81529192506001600160a01b03169063defec4679061359a9084908a9060040161446c565b602060405180830381865afa1580156135b7573d6000803e3d6000fd5b505050506040513d601f19601f820116820180604052508101906135db9190614453565b6135e58783610836565b6135ef919061478d565b600a5460405163d8e7337f60e01b81529193506001600160a01b03169063d8e7337f9061362490859085908b90600401614c51565b600060405180830381600087803b15801561363e57600080fd5b505af1158015613652573d6000803e3d6000fd5b505060075460405163defec46760e01b81526001600160a01b03909116925063defec46791506136889084908b9060040161446c565b602060405180830381865afa1580156136a5573d6000803e3d6000fd5b505050506040513d601f19601f820116820180604052508101906136c99190614453565b6136d38883610836565b6136dd919061478d565b600a5460405163d8e7337f60e01b81529193506001600160a01b03169063d8e7337f9061109290859085908c90600401614c51565b6001600160a01b0384163b156131725760405163f23a6e6160e01b81526001600160a01b0385169063f23a6e61906137569089908990889088908890600401614c70565b6020604051808303816000875af1925050508015613791575060408051601f3d908101601f1916820190925261378e91810190614caa565b60015b61383d5761379d614cc7565b806308c379a0036137d657506137b1614ce3565b806137bc57506137d8565b8060405162461bcd60e51b815260040161089d9190613d71565b505b60405162461bcd60e51b815260206004820152603460248201527f455243313135353a207472616e7366657220746f206e6f6e2d455243313135356044820152732932b1b2b4bb32b91034b6b83632b6b2b73a32b960611b606482015260840161089d565b6001600160e01b0319811663f23a6e6160e01b14611b375760405162461bcd60e51b815260040161089d90614d6c565b6001600160a01b0384163b156131725760405163bc197c8160e01b81526001600160a01b0385169063bc197c81906138b19089908990889088908890600401614db4565b6020604051808303816000875af19250505080156138ec575060408051601f3d908101601f191682019092526138e991810190614caa565b60015b6138f85761379d614cc7565b6001600160e01b0319811663bc197c8160e01b14611b375760405162461bcd60e51b815260040161089d90614d6c565b61393281836110ce565b611f96576001600160a01b0382166000818152601560208181526040808420805460148452828620818752845291852087905594845291905282549092909161397a8361452a565b9190505550505050565b6001600160a01b0382166000908152601560205260408120546139a99060019061478d565b905060005b6139b982600161477a565b811015613a28576001600160a01b03841660009081526014602090815260408083208484529091529020548303613a16576001600160a01b0384166000908152601460209081526040808320858452909152808220548383529120555b80613a208161452a565b9150506139ae565b506001600160a01b0383166000908152601560205260408120805491613a4d83614e12565b90915550506001600160a01b0390921660009081526014602090815260408083209483529390529182209190915550565b60405180606001604052806000815260200160006001600160a01b03168152602001600081525090565b6001600160a01b0381168114612a7a57600080fd5b60008060408385031215613ad057600080fd5b8235613adb81613aa8565b946020939093013593505050565b6001600160e01b031981168114612a7a57600080fd5b600060208284031215613b1157600080fd5b8135610d7281613ae9565b602080825282518282018190526000919060409081850190868401855b82811015613b7c57815180518552868101516001600160a01b03168786015285810151868601526060908101519085015260809093019290850190600101613b39565b5091979650505050505050565b634e487b7160e01b600052604160045260246000fd5b601f8201601f191681016001600160401b0381118282101715613bc457613bc4613b89565b6040525050565b60405161012081016001600160401b0381118282101715613bee57613bee613b89565b60405290565b60006001600160401b03821115613c0d57613c0d613b89565b50601f01601f191660200190565b600082601f830112613c2c57600080fd5b8135613c3781613bf4565b604051613c448282613b9f565b828152856020848701011115613c5957600080fd5b82602086016020830137600092810160200192909252509392505050565b60008060008060808587031215613c8d57600080fd5b84356001600160401b0380821115613ca457600080fd5b613cb088838901613c1b565b9550602087013594506040870135915080821115613ccd57600080fd5b613cd988838901613c1b565b93506060870135915080821115613cef57600080fd5b50613cfc87828801613c1b565b91505092959194509250565b600060208284031215613d1a57600080fd5b5035919050565b60005b83811015613d3c578181015183820152602001613d24565b50506000910152565b60008151808452613d5d816020860160208601613d21565b601f01601f19169290920160200192915050565b602081526000610d726020830184613d45565b600080600060608486031215613d9957600080fd5b505081359360208301359350604090920135919050565b60008060408385031215613dc357600080fd5b823591506020830135613dd581613aa8565b809150509250929050565b600080600060608486031215613df557600080fd5b833592506020840135613e0781613aa8565b929592945050506040919091013590565b60006001600160401b03821115613e3157613e31613b89565b5060051b60200190565b600082601f830112613e4c57600080fd5b81356020613e5982613e18565b604051613e668282613b9f565b83815260059390931b8501820192828101915086841115613e8657600080fd5b8286015b84811015613ea15780358352918301918301613e8a565b509695505050505050565b600080600080600060a08688031215613ec457600080fd5b8535613ecf81613aa8565b94506020860135613edf81613aa8565b935060408601356001600160401b0380821115613efb57600080fd5b613f0789838a01613e3b565b94506060880135915080821115613f1d57600080fd5b613f2989838a01613e3b565b93506080880135915080821115613f3f57600080fd5b50613f4c88828901613c1b565b9150509295509295909350565b60008060408385031215613f6c57600080fd5b82356001600160401b0380821115613f8357600080fd5b818501915085601f830112613f9757600080fd5b81356020613fa482613e18565b604051613fb18282613b9f565b83815260059390931b8501820192828101915089841115613fd157600080fd5b948201945b83861015613ff8578535613fe981613aa8565b82529482019490820190613fd6565b9650508601359250508082111561400e57600080fd5b5061401b85828601613e3b565b9150509250929050565b600081518084526020808501945080840160005b8381101561405557815187529582019590820190600101614039565b509495945050505050565b602081526000610d726020830184614025565b6000806000806080858703121561408957600080fd5b84359350602085013592506040850135915060608501356140a981613aa8565b939692955090935050565b600080600080600060a086880312156140cc57600080fd5b8535945060208601356140de81613aa8565b94979496505050506040830135926060810135926080909101359150565b6000602080830181845280855180835260408601915060408160051b870101925083870160005b8281101561415157603f1988860301845261413f858351613d45565b94509285019290850190600101614123565b5092979650505050505050565b6020808252825182820181905260009190848201906040850190845b8181101561419f5783516001600160a01b03168352928401929184019160010161417a565b50909695505050505050565b602080825282518282018190526000919060409081850190868401855b82811015613b7c57815180518552868101516001600160a01b0390811688870152868201511686860152606080820151908601526080908101519085015260a090930192908501906001016141c8565b6001600160a01b0391909116815260200190565b8015158114612a7a57600080fd5b6000806040838503121561424d57600080fd5b823561425881613aa8565b91506020830135613dd58161422c565b60008060006060848603121561427d57600080fd5b83359250602084013561428f81613aa8565b9150604084013561429f8161422c565b809150509250925092565b805182526020808201516001600160a01b031690830152604090810151910152565b6020808252825182820181905260009190848201906040850190845b8181101561419f576142fb8385516142aa565b92840192606092909201916001016142e8565b60008060008060008060c0878903121561432757600080fd5b86359550602087013561433981613aa8565b95989597505050506040840135936060810135936080820135935060a0909101359150565b60006020828403121561437057600080fd5b81356001600160401b0381111561438657600080fd5b6124e784828501613c1b565b600080604083850312156143a557600080fd5b82356143b081613aa8565b91506020830135613dd581613aa8565b606081016108c982846142aa565b600080600080600060a086880312156143e657600080fd5b85356143f181613aa8565b9450602086013561440181613aa8565b9350604086013592506060860135915060808601356001600160401b0381111561442a57600080fd5b613f4c88828901613c1b565b60006020828403121561444857600080fd5b8135610d7281613aa8565b60006020828403121561446557600080fd5b5051919050565b9182526001600160a01b0316602082015260400190565b805161448e81613aa8565b919050565b6000608082840312156144a557600080fd5b604051608081018181106001600160401b03821117156144c7576144c7613b89565b6040528251815260208301516144dc81613aa8565b6020820152604083810151908201526060928301519281019290925250919050565b634e487b7160e01b600052603260045260246000fd5b634e487b7160e01b600052601160045260246000fd5b60006001820161453c5761453c614514565b5060010190565b60008251614555818460208701613d21565b9190910192915050565b8381526060602082015260006145786060830185613d45565b828103604084015261458a8185613d45565b9695505050505050565b600181811c908216806145a857607f821691505b6020821081036145c857634e487b7160e01b600052602260045260246000fd5b50919050565b60008084546145dc81614594565b600182811680156145f4576001811461460957614638565b60ff1984168752821515830287019450614638565b8860005260208060002060005b8581101561462f5781548a820152908401908201614616565b50505082870194505b50505050835161464c818360208801613d21565b01949350505050565b6000610120828403121561466857600080fd5b614670613bcb565b8251815261468060208401614483565b602082015261469160408401614483565b60408201526146a260608401614483565b60608201526080830151608082015260a083015160a082015260c083015160c082015260e083015160e08201526101008084015181830152508091505092915050565b600060e082840312156146f757600080fd5b60405160e081018181106001600160401b038211171561471957614719613b89565b60405282518152602083015161472e81613aa8565b6020820152604083015161474181613aa8565b80604083015250606083015160608201526080830151608082015260a083015160a082015260c083015160c08201528091505092915050565b808201808211156108c9576108c9614514565b818103818111156108c9576108c9614514565b6020808252602e908201527f455243313135353a2063616c6c6572206973206e6f7420746f6b656e206f776e60408201526d195c881bdc88185c1c1c9bdd995960921b606082015260800190565b938452602084019290925260408301526001600160a01b0316606082015260800190565b6000602080838503121561482557600080fd5b82516001600160401b038082111561483c57600080fd5b818501915085601f83011261485057600080fd5b815161485b81613e18565b604080516148698382613b9f565b83815260059390931b850186019286810192508984111561488957600080fd5b8686015b84811015614906578051868111156148a55760008081fd5b8701603f81018c136148b75760008081fd5b888101516148c481613bf4565b85516148d08282613b9f565b8281528e878486010111156148e757600091508182fd5b6148f6838d8301898701613d21565b875250505092870192870161488d565b509998505050505050505050565b6000602080838503121561492757600080fd5b82516001600160401b0381111561493d57600080fd5b8301601f8101851361494e57600080fd5b805161495981613e18565b6040516149668282613b9f565b82815260059290921b830184019184810191508783111561498657600080fd5b928401925b828410156149ad57835161499e81613aa8565b8252928401929084019061498b565b979650505050505050565b600060a082840312156149ca57600080fd5b60405160a081018181106001600160401b03821117156149ec576149ec613b89565b604052825181526020830151614a0181613aa8565b60208201526040830151614a1481613aa8565b6040820152606083810151908201526080928301519281019290925250919050565b9687526001600160a01b0395861660208801529390941660408601526060850191909152608084015260a083019190915260c082015260e00190565b600060208284031215614a8457600080fd5b8151610d728161422c565b601f82111561150b57600081815260208120601f850160051c81016020861015614ab65750805b601f850160051c820191505b8181101561317257828155600101614ac2565b81516001600160401b03811115614aee57614aee613b89565b614b0281614afc8454614594565b84614a8f565b602080601f831160018114614b375760008415614b1f5750858301515b600019600386901b1c1916600185901b178555613172565b600085815260208120601f198616915b82811015614b6657888601518255948401946001909101908401614b47565b5085821015614b845787850151600019600388901b60f8161c191681555b5050505050600190811b01905550565b60208082526025908201527f455243313135353a207472616e7366657220746f20746865207a65726f206164604082015264647265737360d81b606082015260800190565b6020808252602a908201527f455243313135353a20696e73756666696369656e742062616c616e636520666f60408201526939103a3930b739b332b960b11b606082015260800190565b604081526000614c366040830185614025565b8281036020840152614c488185614025565b95945050505050565b92835260208301919091526001600160a01b0316604082015260600190565b6001600160a01b03868116825285166020820152604081018490526060810183905260a0608082018190526000906149ad90830184613d45565b600060208284031215614cbc57600080fd5b8151610d7281613ae9565b600060033d1115614ce05760046000803e5060005160e01c5b90565b600060443d1015614cf15790565b6040516003193d81016004833e81513d6001600160401b038160248401118184111715614d2057505050505090565b8285019150815181811115614d385750505050505090565b843d8701016020828501011115614d525750505050505090565b614d6160208286010187613b9f565b509095945050505050565b60208082526028908201527f455243313135353a204552433131353552656365697665722072656a656374656040820152676420746f6b656e7360c01b606082015260800190565b6001600160a01b0386811682528516602082015260a060408201819052600090614de090830186614025565b8281036060840152614df28186614025565b90508281036080840152614e068185613d45565b98975050505050505050565b600081614e2157614e21614514565b50600019019056fea2646970667358221220d3ce62697f68360b7bc0ec514c57042772bd3191d650a6071a15c1a29d5ceb2f64736f6c6343000811003368747470733a2f2f6578616d706c652e636f6d2f6170692f7b69647d2e6a736f6e",
  "immutableReferences": {},
  "source": "// SPDX-License-Identifier: MIT\n// pragma solidity >=0.4.22 <0.9.0;\npragma solidity ^0.8.17;\n\nimport \"@openzeppelin/contracts/token/ERC1155/extensions/ERC1155URIStorage.sol\";\nimport \"@openzeppelin/contracts/utils/Counters.sol\";\nimport \"@openzeppelin/contracts/access/Ownable.sol\";\n\nimport \"./sell/BookSellingStorage.sol\";\nimport \"./rent/BookRentingStorage.sol\";\nimport \"./share/BookSharingStorage.sol\";\nimport \"./BookTemporary.sol\";\nimport \"./ListRealOwners.sol\";\nimport \"./keyManager/SecretKeyStorage.sol\";\n\ncontract BookStore is ERC1155URIStorage, Ownable {\n  using Counters for Counters.Counter;\n\n  struct NFTBook {\n    uint256 tokenId;\n    address author;\n    uint256 quantity;\n  }\n\n  event NFTBookCreated(uint256 tokenId, address author, uint256 quantity);\n  // Event handler when recall book\n  event RecallBookResult(bool isSuccess);\n\n  BookSellingStorage private _bookSellingStorage;\n  BookTemporary private _bookTemporary;\n  BookRentingStorage private _bookRentingStorage;\n  BookSharingStorage private _bookSharingStorage;\n  ListRealOwners private _listRealOwners;\n  SecretKeyStorage private _secretKeyStorage;\n\n  uint MAX_BALANCE = 500;\n  uint MIN_TIME = 604800; // Rental period is at least one week\n  uint public listingPrice = 0.025 ether;\n  uint public lendingPrice = 0.001 ether;\n  uint public sharingPrice = 0.0005 ether;\n\n  Counters.Counter private _tokenIds;\n\n  mapping(uint => NFTBook) _idToNFTBook;\n  mapping(string => bool) private _usedTokenURIs;\n\n  mapping(address => mapping(uint => uint)) private _ownedTokens;\n  mapping(address => uint) private _totalOwnedToken;\n\n  constructor(\n    BookSellingStorage bookSellingStorage,\n    BookTemporary bookTemporary,\n    ListRealOwners listRealOwners,\n    SecretKeyStorage secretKeyStorage\n  ) ERC1155(\"https://example.com/api/{id}.json\") {\n    _bookSellingStorage = bookSellingStorage;\n    _bookTemporary = bookTemporary;\n    _bookRentingStorage = _bookTemporary.getBookRentingStorage();\n    _bookSharingStorage = _bookTemporary.getBookSharingStorage();\n    _listRealOwners = listRealOwners;\n    _secretKeyStorage = secretKeyStorage;\n  }\n\n  function getUri(uint tokenId) public view returns (string memory) {\n    return ERC1155URIStorage.uri(tokenId);\n  }\n\n  function setListingPrice(uint newPrice) external onlyOwner {\n    if (newPrice == 0) {\n      revert Error.InvalidPriceError(newPrice);\n    }\n    listingPrice = newPrice;\n  }\n\n  function setLendingPrice(uint newPrice) external onlyOwner {\n    if (newPrice == 0) {\n      revert Error.InvalidPriceError(newPrice);\n    }\n    lendingPrice = newPrice;\n  }\n\n  function setSharingPrice(uint newPrice) external onlyOwner {\n    if (newPrice == 0) {\n      revert Error.InvalidPriceError(newPrice);\n    }\n    sharingPrice = newPrice;\n  }\n\n  function _beforeTokenTransfer(\n    address operator,\n    address from,\n    address to,\n    uint256[] memory ids,\n    uint256[] memory amounts,\n    bytes memory data\n  ) internal virtual override {\n    super._beforeTokenTransfer(operator, from, to, ids, amounts, data);\n\n    // Mint book\n    if (from == address(0) && to != address(0)) {\n      uint tokenId = ids[0];\n      _addTokenToOwnerEnumeration(to, tokenId);\n    }\n\n    // Buy books/ Borrow books / Share books\n    if (from != address(0) && to != address(0) && to != from) {\n      uint tokenId = ids[0];\n      _addTokenToOwnerEnumeration(to, tokenId);\n      if (ERC1155.balanceOf(from, tokenId) == 0) {\n        _removeTokenFromOwnerEnumeration(from, tokenId);\n      }\n    }\n  }\n\n  function getAllRealOwnerOfTokenId(\n    uint tokenId\n  ) public view returns (address[] memory) {\n    return _listRealOwners.getAllRealOwnerOfTokenId(tokenId);\n  }\n\n  function _afterTokenTransfer(\n    address operator,\n    address from,\n    address to,\n    uint256[] memory ids,\n    uint256[] memory amounts,\n    bytes memory data\n  ) internal virtual override {\n    super._afterTokenTransfer(operator, from, to, ids, amounts, data);\n    uint realQuantity;\n    // Mint book\n    if (from == address(0) && to != address(0)) {\n      uint tokenId = ids[0];\n      realQuantity =\n        ERC1155.balanceOf(to, tokenId) -\n        _bookTemporary.getAmountOfUnsalableBooksInTemporary(tokenId, to);\n      _listRealOwners.updateRealOwnerOfTokenIdIfNeed(realQuantity, tokenId, to);\n    }\n\n    // Buy books/ Borrow books / Share books\n    if (from != address(0) && to != address(0) && to != from) {\n      uint tokenId = ids[0];\n      realQuantity =\n        ERC1155.balanceOf(to, tokenId) -\n        _bookTemporary.getAmountOfUnsalableBooksInTemporary(tokenId, to);\n      _listRealOwners.updateRealOwnerOfTokenIdIfNeed(realQuantity, tokenId, to);\n      realQuantity =\n        ERC1155.balanceOf(from, tokenId) -\n        _bookTemporary.getAmountOfUnsalableBooksInTemporary(tokenId, from);\n      _listRealOwners.updateRealOwnerOfTokenIdIfNeed(\n        realQuantity,\n        tokenId,\n        from\n      );\n    }\n  }\n\n  function getBalanceOfOwnerBook(uint tokenId) public view returns (uint) {\n    if (!isOwnerOfToken(tokenId, msg.sender)) {\n      revert Error.InvalidOwnerError(tokenId, msg.sender);\n    }\n\n    return ERC1155.balanceOf(msg.sender, tokenId);\n  }\n\n  function _addTokenToOwnerEnumeration(address owner, uint tokenId) private {\n    if (!isOwnerOfToken(tokenId, owner)) {\n      uint length = _totalOwnedToken[owner];\n      _ownedTokens[owner][length] = tokenId;\n      _totalOwnedToken[owner]++;\n    }\n  }\n\n  function _removeTokenFromOwnerEnumeration(\n    address owner,\n    uint tokenId\n  ) private {\n    uint lastTokenIndex = _totalOwnedToken[owner] - 1;\n\n    for (uint i = 0; i < lastTokenIndex + 1; i++) {\n      if (tokenId == _ownedTokens[owner][i]) {\n        _ownedTokens[owner][i] = _ownedTokens[owner][lastTokenIndex];\n      }\n    }\n\n    _totalOwnedToken[owner]--;\n    delete _ownedTokens[owner][lastTokenIndex];\n  }\n\n  function getNftBook(uint tokenId) public view returns (NFTBook memory) {\n    return _idToNFTBook[tokenId];\n  }\n\n  function isTokenURIExist(string memory tokenURI) public view returns (bool) {\n    return _usedTokenURIs[tokenURI];\n  }\n\n  function mintBook(\n    string memory tokenURI,\n    uint256 quantity,\n    string memory privateKey,\n    string memory iv\n  ) public payable returns (uint) {\n    if (isTokenURIExist(tokenURI)) {\n      revert Error.InvalidTokenUriError(tokenURI);\n    }\n    if (quantity == 0 || quantity > MAX_BALANCE) {\n      revert Error.InvalidAmountError(quantity);\n    }\n    if (msg.value != listingPrice) {\n      revert Error.InvalidPriceError(msg.value);\n    }\n\n    _tokenIds.increment();\n    uint newTokenId = _tokenIds.current();\n\n    _mint(msg.sender, newTokenId, quantity, \"\");\n    _setURI(newTokenId, tokenURI);\n    _createNftBook(newTokenId, quantity);\n\n    _usedTokenURIs[tokenURI] = true;\n    _secretKeyStorage.addSecretKey(newTokenId, privateKey, iv);\n    return newTokenId;\n  }\n\n  function getSecretKey(uint tokenId) public view returns (string[] memory) {\n    // Need check is readable?\n    if (!isBookReadableByUser(tokenId)) {\n      revert Error.NoReadingPermissionError(tokenId);\n    }\n    string[] memory sk = _secretKeyStorage.getSecretKey(tokenId);\n    return sk;\n  }\n\n  function isBookReadableByUser(uint tokenId) public view returns (bool) {\n    if (!isOwnerOfToken(tokenId, msg.sender)) {\n      return false;\n    }\n    if (getAmountUnUsedBook(tokenId) > 0) {\n      return true;\n    }\n\n    if (_bookRentingStorage.isBorrowedBookReadable(tokenId, msg.sender)) {\n      return true;\n    }\n\n    if (_bookSharingStorage.isSharedBookReadable(tokenId, msg.sender)) {\n      return true;\n    }\n    return false;\n  }\n\n  function _createNftBook(uint tokenId, uint256 quantity) private {\n    _idToNFTBook[tokenId] = NFTBook(tokenId, msg.sender, quantity);\n    emit NFTBookCreated(tokenId, msg.sender, quantity);\n  }\n\n  function isOwnerOfToken(\n    uint tokenId,\n    address owner\n  ) public view returns (bool) {\n    return ERC1155.balanceOf(owner, tokenId) > 0;\n  }\n\n  function getOwnedNFTBooks() public view returns (NFTBook[] memory) {\n    uint ownedItemsCount = _totalOwnedToken[msg.sender];\n    NFTBook[] memory books = new NFTBook[](ownedItemsCount);\n\n    for (uint i = 0; i < ownedItemsCount; i++) {\n      uint tokenId = _ownedTokens[msg.sender][i];\n      NFTBook memory book = _idToNFTBook[tokenId];\n\n      books[i] = book;\n    }\n\n    return books;\n  }\n\n  function getOwnedListedBooks()\n    public\n    view\n    returns (BookSellingStorage.BookSelling[] memory)\n  {\n    uint ownedListedBookCount = _bookSellingStorage.getTotalOwnedListedBook(\n      msg.sender\n    );\n    uint ownedItemsCount = _totalOwnedToken[msg.sender];\n    BookSellingStorage.BookSelling[]\n      memory books = new BookSellingStorage.BookSelling[](ownedListedBookCount);\n\n    uint currentIndex = 0;\n    for (uint i = 0; i < ownedItemsCount; i++) {\n      uint tokenId = _ownedTokens[msg.sender][i];\n      BookSellingStorage.BookSelling memory book = _bookSellingStorage\n        .getListedBook(tokenId, msg.sender);\n      if (book.tokenId != 0 && book.seller != address(0)) {\n        books[currentIndex] = book;\n        currentIndex++;\n      }\n    }\n\n    return books;\n  }\n\n  function getOwnedLendingBooks()\n    public\n    view\n    returns (BookRentingStorage.LendBook[] memory)\n  {\n    uint ownedLendBookCount = _bookRentingStorage.getTotalOwnedLendBook(\n      msg.sender\n    );\n    uint ownedItemsCount = _totalOwnedToken[msg.sender];\n    BookRentingStorage.LendBook[]\n      memory books = new BookRentingStorage.LendBook[](ownedLendBookCount);\n\n    uint currentIndex = 0;\n    for (uint i = 0; i < ownedItemsCount; i++) {\n      uint tokenId = _ownedTokens[msg.sender][i];\n      BookRentingStorage.LendBook memory book = _bookRentingStorage.getLendBook(\n        tokenId,\n        msg.sender\n      );\n      if (book.tokenId != 0 && book.renter != address(0)) {\n        books[currentIndex] = book;\n        currentIndex++;\n      }\n    }\n\n    return books;\n  }\n\n  function getAmountUnUsedBook(uint256 tokenId) public view returns (uint) {\n    return\n      getBalanceOfOwnerBook(tokenId) -\n      getAmountOfAllTypeBooksUntradeable(tokenId);\n  }\n\n  function getAmountOfAllTypeBooksUntradeable(\n    uint256 tokenId\n  ) public view returns (uint) {\n    return\n      _bookSellingStorage.getAmountOfListedBooks(tokenId, msg.sender) +\n      _bookTemporary.getAmountOfAllTypeBooksInTemporary(tokenId, msg.sender);\n  }\n\n  function sellBooks(\n    uint256 tokenId,\n    uint price,\n    uint256 amount\n  ) public payable {\n    if (!isOwnerOfToken(tokenId, msg.sender)) {\n      revert Error.InvalidOwnerError(tokenId, msg.sender);\n    }\n    if (\n      getAmountOfAllTypeBooksUntradeable(tokenId) + amount >\n      ERC1155.balanceOf(msg.sender, tokenId) ||\n      amount == 0\n    ) {\n      revert Error.InvalidAmountError(amount);\n    }\n    if (msg.value != listingPrice) {\n      revert Error.InvalidPriceError(msg.value);\n    }\n    _bookSellingStorage.sellListedBooks(tokenId, price, amount, msg.sender);\n  }\n\n  function lendBooks(\n    uint256 tokenId,\n    uint price,\n    uint256 amount\n  ) public payable {\n    if (!isOwnerOfToken(tokenId, msg.sender)) {\n      revert Error.InvalidOwnerError(tokenId, msg.sender);\n    }\n    if (\n      getAmountOfAllTypeBooksUntradeable(tokenId) + amount >\n      ERC1155.balanceOf(msg.sender, tokenId) ||\n      amount == 0\n    ) {\n      revert Error.InvalidAmountError(amount);\n    }\n    if (msg.value != lendingPrice) {\n      revert Error.InvalidPriceError(msg.value);\n    }\n    _bookRentingStorage.lendBooks(tokenId, msg.sender, price, amount);\n  }\n\n  function updateBookFromSale(\n    uint256 tokenId,\n    uint newPrice,\n    uint256 newAmount,\n    address seller\n  ) public {\n    if (!isOwnerOfToken(tokenId, msg.sender)) {\n      revert Error.InvalidOwnerError(tokenId, msg.sender);\n    }\n    if (seller != msg.sender) {\n      revert Error.InvalidAddressError(msg.sender);\n    }\n    _bookSellingStorage.updateListedBookFromSale(\n      tokenId,\n      newPrice,\n      newAmount,\n      seller\n    );\n  }\n\n  function updateBookFromRenting(\n    uint256 tokenId,\n    uint newPrice,\n    uint256 newAmount,\n    address renter\n  ) public {\n    if (!isOwnerOfToken(tokenId, renter)) {\n      revert Error.InvalidOwnerError(tokenId, renter);\n    }\n    if (renter != msg.sender) {\n      revert Error.InvalidAddressError(msg.sender);\n    }\n\n    _bookRentingStorage.updateLendBookFromRenting(\n      tokenId,\n      newPrice,\n      newAmount,\n      renter\n    );\n  }\n\n  function buyBooks(\n    uint256 tokenId,\n    address seller,\n    uint256 amount\n  ) public payable {\n    uint totalPrice = _bookSellingStorage.buyListedBooks(\n      tokenId,\n      seller,\n      amount,\n      msg.sender,\n      msg.value\n    );\n    if (totalPrice != 0) {\n      _safeTransferFrom(seller, msg.sender, tokenId, amount, \"\");\n      payable(seller).transfer(totalPrice);\n    }\n  }\n\n  function borrowBooks(\n    uint256 tokenId,\n    address renter,\n    uint256 price,\n    uint256 amount,\n    uint rentalDuration\n  ) public payable {\n    if (rentalDuration < MIN_TIME) {\n      revert Error.InvalidTimeError(rentalDuration);\n    }\n\n    uint startTime = block.timestamp;\n    uint endTime = startTime + rentalDuration;\n    uint256 totalPrice = _bookRentingStorage.borrowBooks(\n      tokenId,\n      renter,\n      amount,\n      price,\n      startTime,\n      endTime,\n      msg.sender\n    );\n\n    _safeTransferFrom(renter, msg.sender, tokenId, amount, \"\");\n    payable(renter).transfer(totalPrice);\n  }\n\n  //Make a request to extend the rental period and wait for their owner to approve your request\n  function requestExtendTimeOfBorrowedBooks(\n    uint256 tokenId,\n    address renter,\n    uint startTime,\n    uint endTime,\n    uint extendedAmount,\n    uint extendedTime\n  ) public {\n    if (renter == msg.sender) {\n      revert Error.InvalidAddressError(msg.sender);\n    }\n    if (extendedTime < MIN_TIME) {\n      revert Error.InvalidTimeError(extendedTime);\n    }\n    _bookRentingStorage.requestExtendTimeOfBorrowedBooks(\n      tokenId,\n      renter,\n      msg.sender,\n      startTime,\n      endTime,\n      extendedAmount,\n      extendedTime\n    );\n  }\n\n  // If borrowed book exist, only update extended time. Owthersise, do nothing\n  function updateRequestOfBorrowedBooks(\n    uint256 tokenId,\n    address renter,\n    uint startTime,\n    uint endTime,\n    uint newExtendedAmount,\n    uint newExtendedTime\n  ) public {\n    if (renter == address(0) || msg.sender == address(0)) {\n      revert Error.InvalidAddressError(address(0));\n    }\n    if (renter == msg.sender) {\n      revert Error.InvalidAddressError(msg.sender);\n    }\n    if (newExtendedTime < MIN_TIME) {\n      revert Error.InvalidTimeError(newExtendedTime);\n    }\n\n    _bookRentingStorage.updateRequestOfBorrowedBooks(\n      tokenId,\n      renter,\n      msg.sender,\n      startTime,\n      endTime,\n      newExtendedAmount,\n      newExtendedTime\n    );\n  }\n\n  function doAcceptRequest(\n    uint idBorrowedBook,\n    address borrower,\n    bool isAccept\n  ) public returns (bool) {\n    return\n      _bookRentingStorage.doAcceptRequestAndCreateResponse(\n        idBorrowedBook,\n        borrower,\n        msg.sender,\n        isAccept\n      );\n  }\n\n  function transferForSendedRequest(\n    uint id,\n    address renter,\n    bool isExtend\n  ) public payable {\n    if (renter == msg.sender) {\n      revert Error.InvalidAddressError(msg.sender);\n    }\n    uint totalPrice = _bookRentingStorage.transferForSendedRequest(\n      id,\n      renter,\n      msg.sender,\n      block.timestamp,\n      isExtend\n    );\n\n    if (totalPrice > 0) {\n      // if (msg.value != totalPrice) {\n      //   revert Error.InvalidPriceError(msg.value);\n      // }\n      payable(renter).transfer(totalPrice);\n    }\n  }\n\n  // Return true if success, owthersise return false\n  function recallBorrowedBooks(uint idBorrowedBook) public returns (bool) {\n    BookRentingStorage.BorrowedBook memory book = _bookRentingStorage\n      .getBorrowedBookFromId(idBorrowedBook);\n    if (book.renter == msg.sender) {\n      bool res = _bookRentingStorage.excRecallBorrowedBooks(idBorrowedBook);\n      if (res) {\n        _safeTransferFrom(\n          book.borrower,\n          msg.sender,\n          book.tokenId,\n          book.amount,\n          \"\"\n        );\n      }\n      emit RecallBookResult(res);\n      return res;\n    }\n    emit RecallBookResult(false);\n    return false;\n  }\n\n  function shareBooks(\n    uint256 idBorrowedBook,\n    uint price,\n    uint256 amount\n  ) public payable {\n    BookRentingStorage.BorrowedBook memory borrowedBook = _bookRentingStorage\n      .getBorrowedBookFromId(idBorrowedBook);\n    if (msg.sender != borrowedBook.borrower) {\n      revert Error.InvalidAddressError(msg.sender);\n    }\n    if (msg.value != sharingPrice) {\n      revert Error.InvalidPriceError(sharingPrice);\n    }\n    if (amount == 0 || amount > borrowedBook.amount) {\n      revert Error.InvalidAmountError(amount);\n    }\n    if (block.timestamp >= borrowedBook.endTime) {\n      revert Error.InvalidTimeError(block.timestamp);\n    }\n    _bookSharingStorage.shareBooks(\n      borrowedBook.tokenId,\n      borrowedBook.renter,\n      msg.sender,\n      borrowedBook.price,\n      price,\n      amount,\n      borrowedBook.startTime,\n      borrowedBook.endTime\n    );\n\n    _bookRentingStorage.updateAmountBorrowedBookFromBorrowing(\n      idBorrowedBook,\n      amount,\n      true\n    );\n  }\n\n  function updateBooksOnSharing(\n    uint idBooksOnSharing,\n    uint newPrice,\n    uint newAmount\n  ) public {\n    BookSharingStorage.BookSharing memory booksOnSharing = _bookSharingStorage\n      .getBooksOnSharing(idBooksOnSharing);\n    uint idBorrowedBook = _bookRentingStorage.getIdBorrowedBook(\n      booksOnSharing.tokenId,\n      booksOnSharing.fromRenter,\n      booksOnSharing.sharer,\n      booksOnSharing.startTime,\n      booksOnSharing.endTime\n    );\n    if (idBorrowedBook == 0) {\n      revert Error.InvalidIdError(idBorrowedBook);\n    }\n    BookRentingStorage.BorrowedBook memory borrowedBook = _bookRentingStorage\n      .getBorrowedBookFromId(idBorrowedBook);\n    if (msg.sender != borrowedBook.borrower) {\n      revert Error.InvalidAddressError(msg.sender);\n    }\n    if (\n      newAmount == 0 || newAmount > borrowedBook.amount + booksOnSharing.amount\n    ) {\n      revert Error.InvalidAmountError(newAmount);\n    }\n\n    bool isDecrease;\n    uint balance;\n\n    if (newAmount <= booksOnSharing.amount) {\n      isDecrease = false;\n      balance = booksOnSharing.amount - newAmount;\n    } else {\n      isDecrease = true;\n      balance = newAmount - booksOnSharing.amount;\n    }\n\n    _bookSharingStorage.updateBooksOnSharing(\n      idBooksOnSharing,\n      msg.sender,\n      borrowedBook.tokenId,\n      newPrice,\n      newAmount\n    );\n\n    _bookRentingStorage.updateAmountBorrowedBookFromBorrowing(\n      idBorrowedBook,\n      balance,\n      isDecrease\n    );\n  }\n\n  function takeBooksOnSharing(uint idBooksOnSharing) public payable {\n    if (msg.sender == address(0)) {\n      revert Error.InvalidAddressError(msg.sender);\n    }\n    if (idBooksOnSharing == 0) {\n      revert Error.InvalidIdError(0);\n    }\n    BookSharingStorage.BookSharing memory booksOnSharing = _bookSharingStorage\n      .getBooksOnSharing(idBooksOnSharing);\n    uint price = _bookSharingStorage.takeBooksOnSharing(\n      idBooksOnSharing,\n      msg.sender\n    );\n    if (msg.value != price) {\n      revert Error.InvalidPriceError(msg.value);\n    }\n    if (booksOnSharing.tokenId != 0) {\n      _safeTransferFrom(\n        booksOnSharing.sharer,\n        msg.sender,\n        booksOnSharing.tokenId,\n        1,\n        \"\"\n      );\n      // The amount you pay for this transaction will not depend on the period of borrowing the book,\n      // the price will be set by the sharer\n      payable(booksOnSharing.sharer).transfer(price);\n    } else {\n      revert Error.ExecutionError();\n    }\n  }\n\n  // Return true if success, owthersise return false\n  function recallSharedBooks(uint idSharedBook) public returns (bool) {\n    BookSharingStorage.BookSharing memory book = _bookSharingStorage\n      .getSharedBooks(idSharedBook);\n    if (book.fromRenter == msg.sender) {\n      bool res = _bookSharingStorage.excRecallSharedBooks(idSharedBook);\n      if (res) {\n        _safeTransferFrom(\n          book.sharedPer,\n          msg.sender,\n          book.tokenId,\n          book.amount,\n          \"\"\n        );\n      }\n      emit RecallBookResult(res);\n      return res;\n    }\n    emit RecallBookResult(false);\n    return false;\n  }\n\n  function recallBooksOnSharing(uint idBooksOnSharing) public returns (bool) {\n    BookSharingStorage.BookSharing memory book = _bookSharingStorage\n      .getBooksOnSharing(idBooksOnSharing);\n    if (book.fromRenter == msg.sender) {\n      bool res = _bookSharingStorage.excRecallBooksOnSharing(idBooksOnSharing);\n      if (res) {\n        _safeTransferFrom(\n          book.sharer,\n          msg.sender,\n          book.tokenId,\n          book.amount,\n          \"\"\n        );\n      }\n      emit RecallBookResult(res);\n      return res;\n    }\n    emit RecallBookResult(false);\n    return false;\n  }\n}\n",
  "sourcePath": "D:\\HCMUS_Nam4_HocKi1\\04_DoAnTotNghiep\\nft-bookstore-development\\nft-bookstore\\contracts\\BookStore.sol",
  "compiler": {
    "name": "solc",
    "version": "0.8.17+commit.8df45f5f.Emscripten.clang"
  },
  "schemaVersion": "3.4.12",
  "updatedAt": "2023-06-29T15:10:07.308Z",
  "networkType": "ethereum",
  "devdoc": {
    "kind": "dev",
    "methods": {
      "balanceOf(address,uint256)": {
        "details": "See {IERC1155-balanceOf}. Requirements: - `account` cannot be the zero address."
      },
      "balanceOfBatch(address[],uint256[])": {
        "details": "See {IERC1155-balanceOfBatch}. Requirements: - `accounts` and `ids` must have the same length."
      },
      "isApprovedForAll(address,address)": {
        "details": "See {IERC1155-isApprovedForAll}."
      },
      "owner()": {
        "details": "Returns the address of the current owner."
      },
      "renounceOwnership()": {
        "details": "Leaves the contract without owner. It will not be possible to call `onlyOwner` functions anymore. Can only be called by the current owner. NOTE: Renouncing ownership will leave the contract without an owner, thereby removing any functionality that is only available to the owner."
      },
      "safeBatchTransferFrom(address,address,uint256[],uint256[],bytes)": {
        "details": "See {IERC1155-safeBatchTransferFrom}."
      },
      "safeTransferFrom(address,address,uint256,uint256,bytes)": {
        "details": "See {IERC1155-safeTransferFrom}."
      },
      "setApprovalForAll(address,bool)": {
        "details": "See {IERC1155-setApprovalForAll}."
      },
      "supportsInterface(bytes4)": {
        "details": "See {IERC165-supportsInterface}."
      },
      "transferOwnership(address)": {
        "details": "Transfers ownership of the contract to a new account (`newOwner`). Can only be called by the current owner."
      },
      "uri(uint256)": {
        "details": "See {IERC1155MetadataURI-uri}. This implementation returns the concatenation of the `_baseURI` and the token-specific uri if the latter is set This enables the following behaviors: - if `_tokenURIs[tokenId]` is set, then the result is the concatenation   of `_baseURI` and `_tokenURIs[tokenId]` (keep in mind that `_baseURI`   is empty per default); - if `_tokenURIs[tokenId]` is NOT set then we fallback to `super.uri()`   which in most cases will contain `ERC1155._uri`; - if `_tokenURIs[tokenId]` is NOT set, and if the parents do not have a   uri value set, then the result is empty."
      }
    },
    "version": 1
  },
  "userdoc": {
    "kind": "user",
    "methods": {},
    "version": 1
  }
}