{
  "contractName": "BookSharingStorage",
  "abi": [
    {
      "inputs": [
        {
          "internalType": "contract TimeLock",
          "name": "timelock",
          "type": "address"
        }
      ],
      "stateMutability": "nonpayable",
      "type": "constructor"
    },
    {
      "inputs": [
        {
          "internalType": "address",
          "name": "",
          "type": "address"
        }
      ],
      "name": "InvalidAddressError",
      "type": "error"
    },
    {
      "inputs": [
        {
          "internalType": "uint256",
          "name": "",
          "type": "uint256"
        }
      ],
      "name": "InvalidAmountError",
      "type": "error"
    },
    {
      "inputs": [
        {
          "internalType": "uint256",
          "name": "",
          "type": "uint256"
        }
      ],
      "name": "InvalidIdError",
      "type": "error"
    },
    {
      "inputs": [
        {
          "internalType": "uint256",
          "name": "",
          "type": "uint256"
        }
      ],
      "name": "InvalidPriceError",
      "type": "error"
    },
    {
      "anonymous": false,
      "inputs": [
        {
          "indexed": false,
          "internalType": "uint256",
          "name": "tokenId",
          "type": "uint256"
        },
        {
          "indexed": false,
          "internalType": "address",
          "name": "fromRenter",
          "type": "address"
        },
        {
          "indexed": false,
          "internalType": "address",
          "name": "sharer",
          "type": "address"
        },
        {
          "indexed": false,
          "internalType": "address",
          "name": "sharedPer",
          "type": "address"
        },
        {
          "indexed": false,
          "internalType": "uint256",
          "name": "priceOfBB",
          "type": "uint256"
        },
        {
          "indexed": false,
          "internalType": "uint256",
          "name": "price",
          "type": "uint256"
        },
        {
          "indexed": false,
          "internalType": "uint256",
          "name": "amount",
          "type": "uint256"
        },
        {
          "indexed": false,
          "internalType": "uint256",
          "name": "startTime",
          "type": "uint256"
        },
        {
          "indexed": false,
          "internalType": "uint256",
          "name": "endTime",
          "type": "uint256"
        }
      ],
      "name": "BookSharingCreated",
      "type": "event"
    },
    {
      "inputs": [],
      "name": "getTotalBookOnSharing",
      "outputs": [
        {
          "internalType": "uint256",
          "name": "",
          "type": "uint256"
        }
      ],
      "stateMutability": "view",
      "type": "function",
      "constant": true
    },
    {
      "inputs": [
        {
          "internalType": "uint256",
          "name": "tokenId",
          "type": "uint256"
        },
        {
          "internalType": "address",
          "name": "sharer",
          "type": "address"
        },
        {
          "internalType": "address",
          "name": "sharedPer",
          "type": "address"
        },
        {
          "internalType": "uint256",
          "name": "startTime",
          "type": "uint256"
        },
        {
          "internalType": "uint256",
          "name": "endTime",
          "type": "uint256"
        }
      ],
      "name": "getHashIdForSharedBook",
      "outputs": [
        {
          "internalType": "bytes32",
          "name": "",
          "type": "bytes32"
        }
      ],
      "stateMutability": "pure",
      "type": "function",
      "constant": true
    },
    {
      "inputs": [
        {
          "internalType": "uint256",
          "name": "tokenId",
          "type": "uint256"
        },
        {
          "internalType": "address",
          "name": "fromRenter",
          "type": "address"
        },
        {
          "internalType": "address",
          "name": "sharer",
          "type": "address"
        },
        {
          "internalType": "uint256",
          "name": "startTime",
          "type": "uint256"
        },
        {
          "internalType": "uint256",
          "name": "endTime",
          "type": "uint256"
        }
      ],
      "name": "getHashIdForBookOnSharing",
      "outputs": [
        {
          "internalType": "bytes32",
          "name": "",
          "type": "bytes32"
        }
      ],
      "stateMutability": "pure",
      "type": "function",
      "constant": true
    },
    {
      "inputs": [
        {
          "internalType": "uint256",
          "name": "tokenId",
          "type": "uint256"
        },
        {
          "internalType": "address",
          "name": "fromRenter",
          "type": "address"
        },
        {
          "internalType": "address",
          "name": "sharer",
          "type": "address"
        },
        {
          "internalType": "uint256",
          "name": "startTime",
          "type": "uint256"
        },
        {
          "internalType": "uint256",
          "name": "endTime",
          "type": "uint256"
        }
      ],
      "name": "getIdBookOnSharing",
      "outputs": [
        {
          "internalType": "uint256",
          "name": "",
          "type": "uint256"
        }
      ],
      "stateMutability": "view",
      "type": "function",
      "constant": true
    },
    {
      "inputs": [],
      "name": "getTotalSharedBooks",
      "outputs": [
        {
          "internalType": "uint256",
          "name": "",
          "type": "uint256"
        }
      ],
      "stateMutability": "view",
      "type": "function",
      "constant": true
    },
    {
      "inputs": [
        {
          "internalType": "uint256",
          "name": "idBooksOnSharing",
          "type": "uint256"
        }
      ],
      "name": "getBooksOnSharing",
      "outputs": [
        {
          "components": [
            {
              "internalType": "uint256",
              "name": "tokenId",
              "type": "uint256"
            },
            {
              "internalType": "address",
              "name": "fromRenter",
              "type": "address"
            },
            {
              "internalType": "address",
              "name": "sharer",
              "type": "address"
            },
            {
              "internalType": "address",
              "name": "sharedPer",
              "type": "address"
            },
            {
              "internalType": "uint256",
              "name": "priceOfBB",
              "type": "uint256"
            },
            {
              "internalType": "uint256",
              "name": "price",
              "type": "uint256"
            },
            {
              "internalType": "uint256",
              "name": "amount",
              "type": "uint256"
            },
            {
              "internalType": "uint256",
              "name": "startTime",
              "type": "uint256"
            },
            {
              "internalType": "uint256",
              "name": "endTime",
              "type": "uint256"
            }
          ],
          "internalType": "struct BookSharingStorage.BookSharing",
          "name": "",
          "type": "tuple"
        }
      ],
      "stateMutability": "view",
      "type": "function",
      "constant": true
    },
    {
      "inputs": [
        {
          "internalType": "uint256",
          "name": "tokenId",
          "type": "uint256"
        },
        {
          "internalType": "address",
          "name": "sharedPer",
          "type": "address"
        },
        {
          "internalType": "address",
          "name": "sharer",
          "type": "address"
        },
        {
          "internalType": "uint256",
          "name": "startTime",
          "type": "uint256"
        },
        {
          "internalType": "uint256",
          "name": "endTime",
          "type": "uint256"
        }
      ],
      "name": "getIdSharedBook",
      "outputs": [
        {
          "internalType": "uint256",
          "name": "",
          "type": "uint256"
        }
      ],
      "stateMutability": "view",
      "type": "function",
      "constant": true
    },
    {
      "inputs": [
        {
          "internalType": "uint256",
          "name": "idSharedBook",
          "type": "uint256"
        }
      ],
      "name": "getSharedBooks",
      "outputs": [
        {
          "components": [
            {
              "internalType": "uint256",
              "name": "tokenId",
              "type": "uint256"
            },
            {
              "internalType": "address",
              "name": "fromRenter",
              "type": "address"
            },
            {
              "internalType": "address",
              "name": "sharer",
              "type": "address"
            },
            {
              "internalType": "address",
              "name": "sharedPer",
              "type": "address"
            },
            {
              "internalType": "uint256",
              "name": "priceOfBB",
              "type": "uint256"
            },
            {
              "internalType": "uint256",
              "name": "price",
              "type": "uint256"
            },
            {
              "internalType": "uint256",
              "name": "amount",
              "type": "uint256"
            },
            {
              "internalType": "uint256",
              "name": "startTime",
              "type": "uint256"
            },
            {
              "internalType": "uint256",
              "name": "endTime",
              "type": "uint256"
            }
          ],
          "internalType": "struct BookSharingStorage.BookSharing",
          "name": "",
          "type": "tuple"
        }
      ],
      "stateMutability": "view",
      "type": "function",
      "constant": true
    },
    {
      "inputs": [
        {
          "internalType": "uint256",
          "name": "tokenId",
          "type": "uint256"
        },
        {
          "internalType": "address",
          "name": "fromRenter",
          "type": "address"
        },
        {
          "internalType": "address",
          "name": "sharer",
          "type": "address"
        },
        {
          "internalType": "uint256",
          "name": "priceOfBB",
          "type": "uint256"
        },
        {
          "internalType": "uint256",
          "name": "price",
          "type": "uint256"
        },
        {
          "internalType": "uint256",
          "name": "amount",
          "type": "uint256"
        },
        {
          "internalType": "uint256",
          "name": "startTime",
          "type": "uint256"
        },
        {
          "internalType": "uint256",
          "name": "endTime",
          "type": "uint256"
        }
      ],
      "name": "shareBooks",
      "outputs": [],
      "stateMutability": "payable",
      "type": "function",
      "payable": true
    },
    {
      "inputs": [],
      "name": "getAllBooksOnSharing",
      "outputs": [
        {
          "components": [
            {
              "internalType": "uint256",
              "name": "tokenId",
              "type": "uint256"
            },
            {
              "internalType": "address",
              "name": "fromRenter",
              "type": "address"
            },
            {
              "internalType": "address",
              "name": "sharer",
              "type": "address"
            },
            {
              "internalType": "address",
              "name": "sharedPer",
              "type": "address"
            },
            {
              "internalType": "uint256",
              "name": "priceOfBB",
              "type": "uint256"
            },
            {
              "internalType": "uint256",
              "name": "price",
              "type": "uint256"
            },
            {
              "internalType": "uint256",
              "name": "amount",
              "type": "uint256"
            },
            {
              "internalType": "uint256",
              "name": "startTime",
              "type": "uint256"
            },
            {
              "internalType": "uint256",
              "name": "endTime",
              "type": "uint256"
            }
          ],
          "internalType": "struct BookSharingStorage.BookSharing[]",
          "name": "",
          "type": "tuple[]"
        }
      ],
      "stateMutability": "view",
      "type": "function",
      "constant": true
    },
    {
      "inputs": [],
      "name": "getAllOwnedBooksOnSharing",
      "outputs": [
        {
          "components": [
            {
              "internalType": "uint256",
              "name": "tokenId",
              "type": "uint256"
            },
            {
              "internalType": "address",
              "name": "fromRenter",
              "type": "address"
            },
            {
              "internalType": "address",
              "name": "sharer",
              "type": "address"
            },
            {
              "internalType": "address",
              "name": "sharedPer",
              "type": "address"
            },
            {
              "internalType": "uint256",
              "name": "priceOfBB",
              "type": "uint256"
            },
            {
              "internalType": "uint256",
              "name": "price",
              "type": "uint256"
            },
            {
              "internalType": "uint256",
              "name": "amount",
              "type": "uint256"
            },
            {
              "internalType": "uint256",
              "name": "startTime",
              "type": "uint256"
            },
            {
              "internalType": "uint256",
              "name": "endTime",
              "type": "uint256"
            }
          ],
          "internalType": "struct BookSharingStorage.BookSharing[]",
          "name": "",
          "type": "tuple[]"
        }
      ],
      "stateMutability": "view",
      "type": "function",
      "constant": true
    },
    {
      "inputs": [],
      "name": "getAllSharedBook",
      "outputs": [
        {
          "components": [
            {
              "internalType": "uint256",
              "name": "tokenId",
              "type": "uint256"
            },
            {
              "internalType": "address",
              "name": "fromRenter",
              "type": "address"
            },
            {
              "internalType": "address",
              "name": "sharer",
              "type": "address"
            },
            {
              "internalType": "address",
              "name": "sharedPer",
              "type": "address"
            },
            {
              "internalType": "uint256",
              "name": "priceOfBB",
              "type": "uint256"
            },
            {
              "internalType": "uint256",
              "name": "price",
              "type": "uint256"
            },
            {
              "internalType": "uint256",
              "name": "amount",
              "type": "uint256"
            },
            {
              "internalType": "uint256",
              "name": "startTime",
              "type": "uint256"
            },
            {
              "internalType": "uint256",
              "name": "endTime",
              "type": "uint256"
            }
          ],
          "internalType": "struct BookSharingStorage.BookSharing[]",
          "name": "",
          "type": "tuple[]"
        }
      ],
      "stateMutability": "view",
      "type": "function",
      "constant": true
    },
    {
      "inputs": [],
      "name": "getAllOwnedSharedBook",
      "outputs": [
        {
          "components": [
            {
              "internalType": "uint256",
              "name": "tokenId",
              "type": "uint256"
            },
            {
              "internalType": "address",
              "name": "fromRenter",
              "type": "address"
            },
            {
              "internalType": "address",
              "name": "sharer",
              "type": "address"
            },
            {
              "internalType": "address",
              "name": "sharedPer",
              "type": "address"
            },
            {
              "internalType": "uint256",
              "name": "priceOfBB",
              "type": "uint256"
            },
            {
              "internalType": "uint256",
              "name": "price",
              "type": "uint256"
            },
            {
              "internalType": "uint256",
              "name": "amount",
              "type": "uint256"
            },
            {
              "internalType": "uint256",
              "name": "startTime",
              "type": "uint256"
            },
            {
              "internalType": "uint256",
              "name": "endTime",
              "type": "uint256"
            }
          ],
          "internalType": "struct BookSharingStorage.BookSharing[]",
          "name": "",
          "type": "tuple[]"
        }
      ],
      "stateMutability": "view",
      "type": "function",
      "constant": true
    },
    {
      "inputs": [
        {
          "internalType": "uint256",
          "name": "tokenId",
          "type": "uint256"
        },
        {
          "internalType": "address",
          "name": "owner",
          "type": "address"
        }
      ],
      "name": "isSharedBookReadable",
      "outputs": [
        {
          "internalType": "bool",
          "name": "",
          "type": "bool"
        }
      ],
      "stateMutability": "view",
      "type": "function",
      "constant": true
    },
    {
      "inputs": [],
      "name": "getTotalBooksOnSharing",
      "outputs": [
        {
          "internalType": "uint256",
          "name": "",
          "type": "uint256"
        }
      ],
      "stateMutability": "view",
      "type": "function",
      "constant": true
    },
    {
      "inputs": [
        {
          "internalType": "uint256",
          "name": "idBookOnSharing",
          "type": "uint256"
        },
        {
          "internalType": "address",
          "name": "sharer",
          "type": "address"
        },
        {
          "internalType": "uint256",
          "name": "tokenId",
          "type": "uint256"
        },
        {
          "internalType": "uint256",
          "name": "newPrice",
          "type": "uint256"
        },
        {
          "internalType": "uint256",
          "name": "newAmount",
          "type": "uint256"
        }
      ],
      "name": "updateBooksOnSharing",
      "outputs": [],
      "stateMutability": "nonpayable",
      "type": "function"
    },
    {
      "inputs": [
        {
          "internalType": "uint256",
          "name": "tokenId",
          "type": "uint256"
        },
        {
          "internalType": "address",
          "name": "fromRenter",
          "type": "address"
        },
        {
          "internalType": "address",
          "name": "sharer",
          "type": "address"
        },
        {
          "internalType": "uint256",
          "name": "startTime",
          "type": "uint256"
        },
        {
          "internalType": "uint256",
          "name": "endTime",
          "type": "uint256"
        }
      ],
      "name": "removeBooksOnSharing",
      "outputs": [],
      "stateMutability": "nonpayable",
      "type": "function"
    },
    {
      "inputs": [
        {
          "internalType": "uint256",
          "name": "tokenId",
          "type": "uint256"
        },
        {
          "internalType": "address",
          "name": "owner",
          "type": "address"
        },
        {
          "internalType": "address",
          "name": "sharer",
          "type": "address"
        },
        {
          "internalType": "uint256",
          "name": "startTime",
          "type": "uint256"
        },
        {
          "internalType": "uint256",
          "name": "endTime",
          "type": "uint256"
        }
      ],
      "name": "removeSharedBooks",
      "outputs": [],
      "stateMutability": "nonpayable",
      "type": "function"
    },
    {
      "inputs": [
        {
          "internalType": "uint256",
          "name": "idBooksOnSharing",
          "type": "uint256"
        },
        {
          "internalType": "address",
          "name": "sender",
          "type": "address"
        }
      ],
      "name": "takeBooksOnSharing",
      "outputs": [
        {
          "internalType": "uint256",
          "name": "",
          "type": "uint256"
        }
      ],
      "stateMutability": "payable",
      "type": "function",
      "payable": true
    },
    {
      "inputs": [
        {
          "internalType": "uint256",
          "name": "tokenId",
          "type": "uint256"
        },
        {
          "internalType": "address",
          "name": "owner",
          "type": "address"
        }
      ],
      "name": "getAmountOfAllBooksOnSharing",
      "outputs": [
        {
          "internalType": "uint256",
          "name": "",
          "type": "uint256"
        }
      ],
      "stateMutability": "view",
      "type": "function",
      "constant": true
    },
    {
      "inputs": [
        {
          "internalType": "uint256",
          "name": "tokenId",
          "type": "uint256"
        },
        {
          "internalType": "address",
          "name": "owner",
          "type": "address"
        }
      ],
      "name": "getAmountOfAllSharedBooks",
      "outputs": [
        {
          "internalType": "uint256",
          "name": "",
          "type": "uint256"
        }
      ],
      "stateMutability": "view",
      "type": "function",
      "constant": true
    },
    {
      "inputs": [
        {
          "internalType": "uint256",
          "name": "idSharedBook",
          "type": "uint256"
        }
      ],
      "name": "excRecallSharedBooks",
      "outputs": [
        {
          "internalType": "bool",
          "name": "",
          "type": "bool"
        }
      ],
      "stateMutability": "nonpayable",
      "type": "function"
    },
    {
      "inputs": [
        {
          "internalType": "address",
          "name": "renter",
          "type": "address"
        }
      ],
      "name": "excRecallAllSharedBooks",
      "outputs": [
        {
          "internalType": "uint256",
          "name": "",
          "type": "uint256"
        }
      ],
      "stateMutability": "nonpayable",
      "type": "function"
    },
    {
      "inputs": [
        {
          "internalType": "uint256",
          "name": "idBooksOnSharing",
          "type": "uint256"
        }
      ],
      "name": "excRecallBooksOnSharing",
      "outputs": [
        {
          "internalType": "bool",
          "name": "",
          "type": "bool"
        }
      ],
      "stateMutability": "nonpayable",
      "type": "function"
    },
    {
      "inputs": [
        {
          "internalType": "address",
          "name": "renter",
          "type": "address"
        }
      ],
      "name": "excRecallAllBooksOnSharing",
      "outputs": [
        {
          "internalType": "uint256",
          "name": "",
          "type": "uint256"
        }
      ],
      "stateMutability": "nonpayable",
      "type": "function"
    }
  ],
  "bytecode": "0x60806040523480156200001157600080fd5b50604051620030303803806200303083398101604081905262000034916200005a565b600080546001600160a01b0319166001600160a01b03929092169190911790556200008c565b6000602082840312156200006d57600080fd5b81516001600160a01b03811681146200008557600080fd5b9392505050565b612f94806200009c6000396000f3fe6080604052600436106101365760003560e01c80638ad24dbb116100b15780638ad24dbb146102b75780638d43257b146102f757806392cbd5871461030c5780639a8f08721461032c5780639c48c1b31461033f578063a9e9d4a41461035f578063b913d4ba1461037f578063c0a641711461039f578063d02d29c9146102f7578063dda749b5146103bf578063e0695c6b146103df578063e5efe2a5146103f4578063fdda71ea1461040957600080fd5b8063074f93a21461013b578063339256541461017057806338aea1f21461019e5780633dc5ae58146101cb5780634caa2605146101ed57806351200158146102025780635170e882146102245780635b6434d7146102375780635d0e85f2146102575780635f058af81461027757806368300a1f146102375780637d2b236914610297575b600080fd5b34801561014757600080fd5b5061015b61015636600461297c565b61041e565b60405190151581526020015b60405180910390f35b34801561017c57600080fd5b5061019061018b3660046129b1565b610595565b604051908152602001610167565b3480156101aa57600080fd5b506101be6101b936600461297c565b6105c0565b6040516101679190612a47565b3480156101d757600080fd5b506101eb6101e6366004612a56565b61064f565b005b3480156101f957600080fd5b50610190610671565b34801561020e57600080fd5b50610217610681565b6040516101679190612aa4565b6101906102323660046129b1565b6107c0565b34801561024357600080fd5b50610190610252366004612a56565b610a3f565b34801561026357600080fd5b5061015b6102723660046129b1565b610a91565b34801561028357600080fd5b50610190610292366004612a56565b610b92565b3480156102a357600080fd5b506101906102b2366004612a56565b610bf1565b3480156102c357600080fd5b506101906102d23660046129b1565b6001600160a01b03166000908152600560209081526040808320938352929052205490565b34801561030357600080fd5b50610190610c41565b34801561031857600080fd5b50610190610327366004612af3565b610c4c565b6101eb61033a366004612b15565b610d3d565b34801561034b57600080fd5b506101eb61035a366004612b7f565b610d8b565b34801561036b57600080fd5b5061015b61037a36600461297c565b610e0b565b34801561038b57600080fd5b506101eb61039a366004612a56565b610f6e565b3480156103ab57600080fd5b506101be6103ba36600461297c565b610f88565b3480156103cb57600080fd5b506101906103da366004612af3565b611090565b3480156103eb57600080fd5b5061021761116c565b34801561040057600080fd5b506102176112bd565b34801561041557600080fd5b506102176113f4565b6000808260405160200161043491815260200190565b60408051601f19818403018152600086815260046020818152848320610120870186528054875260018101546001600160a01b03908116888401526002820154811688880152600382015416606080890191909152928101546080880152600581015460a0880152600681015460c0880152600781015460e088015260080154610100870152845191820190945260348082529295509092909190612efa9083013960008054602085015161010086015160405163f3e7a3b960e01b81529495506001600160a01b039092169363f3e7a3b99361051993909187918a91600401612c0b565b6020604051808303816000875af1158015610538573d6000803e3d6000fd5b505050506040513d601f19601f8201168201806040525081019061055c9190612c57565b1561058a5761057f85836020015184604001518560e00151866101000151610f6e565b506001949350505050565b506000949350505050565b6001600160a01b0381166000908152600a602090815260408083208584529091529020545b92915050565b6105c8612915565b506000908152600960209081526040918290208251610120810184528154815260018201546001600160a01b039081169382019390935260028201548316938101939093526003810154909116606083015260048101546080830152600581015460a0830152600681015460c0830152600781015460e08301526008015461010082015290565b600061065e8685878686610a3f565b905061066981611551565b505050505050565b600061067c60085490565b905090565b6060600061068e60035490565b9050606081156105ba57816001600160401b038111156106b0576106b0612c79565b6040519080825280602002602001820160405280156106e957816020015b6106d6612915565b8152602001906001900390816106ce5790505b50905060015b8281116107b957600081815260046020818152604092839020835161012081018552815481526001808301546001600160a01b0390811694830194909452600283015484169582019590955260038201549092166060830152918201546080820152600582015460a0820152600682015460c0820152600782015460e0820152600890910154610100820152908190849061078a9085612ca5565b8151811061079a5761079a612cb8565b60200260200101819052505080806107b190612cce565b9150506106ef565b5092915050565b6000806107cc84610f88565b80519091506000036107fc57805160405163d8bbd62160e01b815260048101919091526024015b60405180910390fd5b60408101516001600160a01b0316158061081d57506001600160a01b038316155b1561083e576000604051633992dcbd60e21b81526004016107f39190612ce7565b826001600160a01b031681604001516001600160a01b0316036108765782604051633992dcbd60e21b81526004016107f39190612ce7565b8060c0015160000361089e5760405163099f49a360e11b8152600060048201526024016107f3565b8051604082015160e08301516101008401516000916108c39185918991869190610b92565b9050806000036108f9576108f4838560200151848988608001518960a0015160018b60e001518c6101000151611aac565b6109a5565b600081815260096020908152604091829020825161012081018452815481526001808301546001600160a01b039081169483019490945260028301548416948201949094526003820154909216606083015260048101546080830152600581015460a080840191909152600682015460c08401819052600783015460e085015260089092015461010084015287015191926109a39285928b9289929161099e91612cfb565b611d7c565b505b8360c00151600103610a105760006109cd848660200151858860e00151896101000151610a3f565b6000818152600160205260409020549091508814610a015760405163d8bbd62160e01b8152600481018990526024016107f3565b610a0a81611f20565b50610a31565b610a318783858760a0015160018960c00151610a2c9190612ca5565b61244c565b50505060a001519392505050565b6040805160208082018890526001600160a01b0387811683850152861660608301526080820185905260a08083018590528351808403909101815260c090920190925280519101205b95945050505050565b6001600160a01b0381166000908152600760205260408120548015610b885760015b6008548111610b86576000818152600960209081526040918290208251610120810184528154815260018201546001600160a01b03908116938201939093526002820154831693810193909352600381015482166060840181905260048201546080850152600582015460a0850152600682015460c0850152600782015460e0850152600890910154610100840152908616148015610b525750805186145b8015610b62575042816101000151115b15610b7357600193505050506105ba565b5080610b7e81612cce565b915050610ab3565b505b5060009392505050565b600080610ba28786888787610a3f565b6000818152600660205260409020549091508015610be3576000818152600960205260409020600301546001600160a01b031615610be3579150610a889050565b506000979650505050505050565b600080610c018787878787610a3f565b6000818152600160205260409020549091508015610be3576000818152600460205260409020600301546001600160a01b0316610be3579150610a889050565b600061067c60035490565b60008080610c5960035490565b11156105ba5760015b60035481116107b9576000818152600460208181526040928390208351610120810185528154815260018201546001600160a01b039081169382018490526002830154811695820195909552600382015485166060820152928101546080840152600581015460a0840152600681015460c0840152600781015460e08401526008015461010083015290918616148015610d07575060608101516001600160a01b0316155b8015610d175750610d178261041e565b15610d2a5782610d2681612cce565b9350505b5080610d3581612cce565b915050610c62565b6000610d4c8989898686610bf1565b90508015610d705760405163d8bbd62160e01b8152600481018290526024016107f3565b610d8089898989898989896125f0565b505050505050505050565b84600003610daf5760405163d8bbd62160e01b8152600481018690526024016107f3565b81600003610dd35760405163713bd66960e01b8152600481018390526024016107f3565b80600003610df75760405163099f49a360e11b8152600481018290526024016107f3565b610e04858585858561244c565b5050505050565b60008082604051602001610e2191815260200190565b60408051601f19818403018152600086815260096020908152838220610120860185528054865260018101546001600160a01b0390811687840152600282015481168787015260038201541660608088019190915260048201546080880152600582015460a0880152600682015460c0880152600782015460e08801526008909101546101008701528451908101909452603180855292955090929190612f2e9083013960008054602085015161010086015160405163f3e7a3b960e01b81529495506001600160a01b039092169363f3e7a3b993610f0893909187918a91600401612c0b565b6020604051808303816000875af1158015610f27573d6000803e3d6000fd5b505050506040513d601f19601f82011682018060405250810190610f4b9190612c57565b1561058a5761057f85836060015184604001518560e0015186610100015161064f565b6000610f7d8686868686610a3f565b905061066981611f20565b610f90612915565b81600003610fb45760405163d8bbd62160e01b8152600481018390526024016107f3565b6000828152600460205260409020600301546001600160a01b03161561100a57600082815260046020819052604091829020600301549151633992dcbd60e21b81526107f3926001600160a01b03169101612ce7565b506000908152600460208181526040928390208351610120810185528154815260018201546001600160a01b0390811693820193909352600282015483169481019490945260038101549091166060840152908101546080830152600581015460a0830152600681015460c0830152600781015460e08301526008015461010082015290565b6000808061109d60085490565b11156105ba5760015b60085481116107b9576000818152600960209081526040918290208251610120810184528154815260018201546001600160a01b03908116938201849052600283015481169482019490945260038201548416606082015260048201546080820152600582015460a0820152600682015460c0820152600782015460e0820152600890910154610100820152918616148015611146575061114682610e0b565b15611159578261115581612cce565b9350505b508061116481612cce565b9150506110a6565b336000908152600760205260409020546060908181156105ba576000826001600160401b038111156111a0576111a0612c79565b6040519080825280602002602001820160405280156111d957816020015b6111c6612915565b8152602001906001900390816111be5790505b50915060015b60085481116112b5576000818152600960209081526040918290208251610120810184528154815260018201546001600160a01b0390811693820193909352600282015483169381019390935260038101549091166060830181905260048201546080840152600582015460a0840152600682015460c0840152600782015460e08401526008909101546101008301523390036112a2578084848151811061128957611289612cb8565b602090810291909101015261129f600184612cfb565b92505b50806112ad81612cce565b9150506111df565b505092915050565b606060006112ca60085490565b9050606081156105ba57816001600160401b038111156112ec576112ec612c79565b60405190808252806020026020018201604052801561132557816020015b611312612915565b81526020019060019003908161130a5790505b50905060015b8281116107b957600081815260096020908152604091829020825161012081018452815481526001808301546001600160a01b039081169483019490945260028301548416948201949094526003820154909216606083015260048101546080830152600581015460a0830152600681015460c0830152600781015460e08301526008015461010082015290819084906113c59085612ca5565b815181106113d5576113d5612cb8565b60200260200101819052505080806113ec90612cce565b91505061132b565b336000908152600260205260409020546060908181156105ba576000826001600160401b0381111561142857611428612c79565b60405190808252806020026020018201604052801561146157816020015b61144e612915565b8152602001906001900390816114465790505b50915060015b60035481116112b5576000818152600460208181526040928390208351610120810185528154815260018201546001600160a01b03908116938201939093526002820154831694810185905260038201549092166060830152918201546080820152600582015460a0820152600682015460c0820152600782015460e0820152600890910154610100820152903314801561150d575060608101516001600160a01b0316155b1561153e578084848151811061152557611525612cb8565b602090810291909101015261153b600184612cfb565b92505b508061154981612cce565b915050611467565b600081815260066020526040812054908190036115845760405163d8bbd62160e01b8152600481018290526024016107f3565b60008181526009602090815260408083208151610120810183528154815260018201546001600160a01b039081169482019490945260028201548416928101929092526003810154909216606082015260048201546080820152600582015460a0820152600682015460c0820152600782015460e08201526008918201546101008201529190611612905490565b905060008060009054906101000a90046001600160a01b03166001600160a01b0316638a1ce0b6846020015160008760405160200161165391815260200190565b60408051601f19818403018152908290526101008901516001600160e01b031960e087901b168352611689949392600401612d58565b602060405180830381865afa1580156116a6573d6000803e3d6000fd5b505050506040513d601f19601f820116820180604052508101906116ca9190612da2565b60005460405163c4d252f560e01b8152600481018390529192506001600160a01b03169063c4d252f590602401600060405180830381600087803b15801561171157600080fd5b505af1158015611725573d6000803e3d6000fd5b505050508382146119c45760008281526009602090815260408083208151610120810183528154815260018201546001600160a01b03908116828601819052600284015482168386015260038401548216606084015260048401546080840152600584015460a0840152600684015460c0840152600784015460e0840152600890930154610100830152855484519586018990529195911693638a1ce0b6930160408051601f19818403018152908290526101008701516001600160e01b031960e087901b1683526117fb949392600401612d58565b602060405180830381865afa158015611818573d6000803e3d6000fd5b505050506040513d601f19601f8201168201806040525081019061183c9190612da2565b915060008054906101000a90046001600160a01b03166001600160a01b031663a14e440683836020015160008960405160200161187b91815260200190565b60408051601f19818403018152908290526101008801516001600160e01b031960e088901b1683526118b295949392600401612dbb565b6020604051808303816000875af11580156118d1573d6000803e3d6000fd5b505050506040513d601f19601f820116820180604052508101906118f59190612c57565b50600061191a8260000151836040015184606001518560e00151866101000151610a3f565b60009081526006602081815260408084208a9055898452600982529283902085518155908501516001820180546001600160a01b03199081166001600160a01b039384161790915593860151600283018054861691831691909117905560608601516003830180549095169116179092556080840151600483015560a0840151600583015560c08401519082015560e0830151600782015561010090920151600890920191909155505b600085815260066020818152604080842084905585845260098252808420848155600180820180546001600160a01b031990811690915560028301805482169055600383018054909116905560048201869055600582018690559381018590556007808201869055600890910185905560608801516001600160a01b031685529091528220805491929091611a5a908490612ca5565b909155505060c083015160608401516001600160a01b03166000908152600a602090815260408083208751845290915281208054909190611a9c908490612ca5565b90915550610e04905060086128c0565b6000611abb8a89898686610a3f565b60008181526006602052604090205490915015611aff576000818152600660205260409081902054905163d8bbd62160e01b815260048101919091526024016107f3565b611b0d600880546001019055565b60085460066000838152602001908152602001600020819055506040518061012001604052808b81526020018a6001600160a01b03168152602001896001600160a01b03168152602001886001600160a01b031681526020018781526020018681526020018581526020018481526020018381525060096000611b8f60085490565b81526020808201929092526040908101600090812084518155848401516001820180546001600160a01b03199081166001600160a01b039384161790915586850151600284018054831691841691909117905560608701516003840180549092169083161790556080860151600483015560a0860151600583015560c0860151600683015560e0860151600780840191909155610100909601516008909201919091558b168152929091528120805491611c4883612cce565b90915550506001600160a01b0387166000908152600a602090815260408083208d845290915281208054869290611c80908490612cfb565b9091555050600080546001600160a01b031690634b9915a5908b90611ca460085490565b604051602001611cb691815260200190565b604051602081830303815290604052866040518563ffffffff1660e01b8152600401611ce59493929190612d58565b6020604051808303816000875af1158015611d04573d6000803e3d6000fd5b505050506040513d601f19601f82011682018060405250810190611d289190612da2565b507f7b7b2ff66399a0dc2308ee5571159e63c4ad55906846552d117215bfe86e3a008a8a8a8a8a8a8a8a8a604051611d6899989796959493929190612e0c565b60405180910390a150505050505050505050565b6000858152600960205260409020548314611dad5760405163d8bbd62160e01b8152600481018490526024016107f3565b6000858152600960205260409020600301546001600160a01b03858116911614611dec5783604051633992dcbd60e21b81526004016107f39190612ce7565b6000858152600960205260409020600501548214611e195760008581526009602052604090206005018290555b6000858152600960205260409020600601548114610e0457600085815260096020526040812060060154821015611eaa57600086815260096020526040902060060154611e67908390612ca5565b6001600160a01b0386166000908152600a60209081526040808320888452909152812080549293508392909190611e9f908490612ca5565b90915550611f049050565b600086815260096020526040902060060154611ec69083612ca5565b6001600160a01b0386166000908152600a60209081526040808320888452909152812080549293508392909190611efe908490612cfb565b90915550505b5060008581526009602052604090206006018190555050505050565b60008181526001602052604081205490819003611f535760405163d8bbd62160e01b8152600481018290526024016107f3565b60008181526004602081815260408084208151610120810183528154815260018201546001600160a01b03908116828601819052600284015482168386015260038085015483166060850152968401546080840152600584015460a0840152600684015460c0840152600784015460e0840152600890930154610100830152945486548451958601899052919690959094911692638a1ce0b6929185910160408051601f19818403018152908290526101008901516001600160e01b031960e087901b168352612027949392600401612ea7565b602060405180830381865afa158015612044573d6000803e3d6000fd5b505050506040513d601f19601f820116820180604052508101906120689190612da2565b60005460405163c4d252f560e01b8152600481018390529192506001600160a01b03169063c4d252f590602401600060405180830381600087803b1580156120af57600080fd5b505af11580156120c3573d6000803e3d6000fd5b505050508382146123685760008281526004602081815260408084208151610120810183528154815260018201546001600160a01b039081168286018190526002840154821683860152600384015482166060840152958301546080830152600583015460a0830152600683015460c0830152600783015460e0830152600890920154610100820152855483519485018990529095911693638a1ce0b69390920160408051601f19818403018152908290526101008701516001600160e01b031960e087901b16835261219a949392600401612ea7565b602060405180830381865afa1580156121b7573d6000803e3d6000fd5b505050506040513d601f19601f820116820180604052508101906121db9190612da2565b915060008054906101000a90046001600160a01b03166001600160a01b031663a14e440683836020015160008960405160200161221a91815260200190565b60408051601f19818403018152908290526101008801516001600160e01b031960e088901b16835261225195949392600401612ecd565b6020604051808303816000875af1158015612270573d6000803e3d6000fd5b505050506040513d601f19601f820116820180604052508101906122949190612c57565b5060006122b98260000151836020015184604001518560e00151866101000151610a3f565b60009081526001602081815260408084208a9055898452600480835293819020865181559186015192820180546001600160a01b039485166001600160a01b0319918216179091559086015160028301805491851691831691909117905560608601516003830180549190941691161790915560808401519181019190915560a0830151600582015560c0830151600682015560e0830151600782015561010090920151600890920191909155505b6000858152600160208181526040808420849055858452600480835281852085815580850180546001600160a01b03199081169091556002808301805483169055600383018054909216909155918101869055600581018690556006810186905560078101869055600801859055878201516001600160a01b0316855290915282208054919290916123fb908490612ca5565b909155505060c08301516040808501516001600160a01b0316600090815260056020908152828220875183529052908120805490919061243c908490612ca5565b90915550610e04905060036128c0565b600085815260046020526040902054831461247d5760405163d8bbd62160e01b8152600481018490526024016107f3565b6000858152600460205260409020600201546001600160a01b038581169116146124bc5783604051633992dcbd60e21b81526004016107f39190612ce7565b60008581526004602052604090206005015482146124e95760008581526004602052604090206005018290555b6000858152600460205260409020600601548114610e045760008581526004602052604081206006015482101561257a57600086815260046020526040902060060154612537908390612ca5565b6001600160a01b038616600090815260056020908152604080832088845290915281208054929350839290919061256f908490612ca5565b909155506125d49050565b6000868152600460205260409020600601546125969083612ca5565b6001600160a01b03861660009081526005602090815260408083208884529091528120805492935083929091906125ce908490612cfb565b90915550505b5060008581526004602052604090206006018190555050505050565b60006125ff8989898686610a3f565b60008181526006602052604090205490915015612643576000818152600660205260409081902054905163d8bbd62160e01b815260048101919091526024016107f3565b612651600380546001019055565b60035460016000838152602001908152602001600020819055506040518061012001604052808a8152602001896001600160a01b03168152602001886001600160a01b0316815260200160006001600160a01b0316815260200187815260200186815260200185815260200184815260200183815250600460006126d460035490565b81526020808201929092526040908101600090812084518155848401516001820180546001600160a01b03199081166001600160a01b039384161790915586850151600280850180548416928516929092179091556060880151600385018054909316908416179091556080870151600484015560a0870151600584015560c0870151600684015560e08701516007840155610100909601516008909201919091558b16815292909152812080549161278c83612cce565b90915550506001600160a01b03871660009081526005602090815260408083208c8452909152812080548692906127c4908490612cfb565b9091555050600080546001600160a01b031690634b9915a5908a906127e860035490565b6040516020016127fa91815260200190565b604051602081830303815290604052866040518563ffffffff1660e01b81526004016128299493929190612ea7565b6020604051808303816000875af1158015612848573d6000803e3d6000fd5b505050506040513d601f19601f8201168201806040525081019061286c9190612da2565b507f7b7b2ff66399a0dc2308ee5571159e63c4ad55906846552d117215bfe86e3a0089898960008a8a8a8a8a6040516128ad99989796959493929190612e0c565b60405180910390a1505050505050505050565b80548061290d5760405162461bcd60e51b815260206004820152601b60248201527a436f756e7465723a2064656372656d656e74206f766572666c6f7760281b60448201526064016107f3565b600019019055565b6040518061012001604052806000815260200160006001600160a01b0316815260200160006001600160a01b0316815260200160006001600160a01b0316815260200160008152602001600081526020016000815260200160008152602001600081525090565b60006020828403121561298e57600080fd5b5035919050565b80356001600160a01b03811681146129ac57600080fd5b919050565b600080604083850312156129c457600080fd5b823591506129d460208401612995565b90509250929050565b80518252602081015160018060a01b03808216602085015280604084015116604085015280606084015116606085015250506080810151608083015260a081015160a083015260c081015160c083015260e081015160e08301526101008082015181840152505050565b61012081016105ba82846129dd565b600080600080600060a08688031215612a6e57600080fd5b85359450612a7e60208701612995565b9350612a8c60408701612995565b94979396509394606081013594506080013592915050565b6020808252825182820181905260009190848201906040850190845b81811015612ae757612ad38385516129dd565b928401926101209290920191600101612ac0565b50909695505050505050565b600060208284031215612b0557600080fd5b612b0e82612995565b9392505050565b600080600080600080600080610100898b031215612b3257600080fd5b88359750612b4260208a01612995565b9650612b5060408a01612995565b979a96995096976060810135975060808101359660a0820135965060c0820135955060e0909101359350915050565b600080600080600060a08688031215612b9757600080fd5b85359450612ba760208701612995565b94979496505050506040830135926060810135926080909101359150565b6000815180845260005b81811015612beb57602081850181015186830182015201612bcf565b506000602082860101526020601f19601f83011685010191505092915050565b60018060a01b038616815284602082015260a060408201526000612c3260a0830186612bc5565b8281036060840152612c448186612bc5565b9150508260808301529695505050505050565b600060208284031215612c6957600080fd5b81518015158114612b0e57600080fd5b634e487b7160e01b600052604160045260246000fd5b634e487b7160e01b600052601160045260246000fd5b818103818111156105ba576105ba612c8f565b634e487b7160e01b600052603260045260246000fd5b600060018201612ce057612ce0612c8f565b5060010190565b6001600160a01b0391909116815260200190565b808201808211156105ba576105ba612c8f565b603181527f72656d6f7665536861726564426f6f6b732875696e742c616464726573732c616020820152706464726573732c75696e742c75696e742960781b604082015260600190565b60018060a01b038516815283602082015260a060408201526000612d7e60a08301612d0e565b8281036060840152612d908186612bc5565b91505082608083015295945050505050565b600060208284031215612db457600080fd5b5051919050565b85815260018060a01b038516602082015283604082015260c060608201526000612de760c08301612d0e565b8281036080840152612df98186612bc5565b9150508260a08301529695505050505050565b9889526001600160a01b0397881660208a01529587166040890152939095166060870152608086019190915260a085015260c084019290925260e08301919091526101008201526101200190565b603481527f72656d6f7665426f6f6b734f6e53686172696e672875696e742c616464726573602082015273732c616464726573732c75696e742c75696e742960601b604082015260600190565b60018060a01b038516815283602082015260a060408201526000612d7e60a08301612e5a565b85815260018060a01b038516602082015283604082015260c060608201526000612de760c08301612e5a56fe72656d6f7665426f6f6b734f6e53686172696e672875696e742c616464726573732c616464726573732c75696e742c75696e742972656d6f7665536861726564426f6f6b732875696e742c616464726573732c616464726573732c75696e742c75696e7429a26469706673582212205ae8c44708db2325edca4de30564dc2588dc0202ef12de5fab4e7d26aadcd32e64736f6c63430008110033",
  "immutableReferences": {},
  "source": "// SPDX-License-Identifier: MIT\r\npragma solidity ^0.8.17;\r\nimport \"@openzeppelin/contracts/utils/Counters.sol\";\r\nimport \"../utils/Timelock.sol\";\r\nimport \"../utils/Error.sol\";\r\n\r\ncontract BookSharingStorage {\r\n    using Counters for Counters.Counter;\r\n    \r\n    // priceOfBB: Save the price of previously borrowed books.\r\n    // For the purpose of creating a new borrowed book when convert.\r\n    // Read func convertBookOnSharingToBorrowedBook to more understand\r\n    struct BookSharing {\r\n        uint256 tokenId;\r\n        address fromRenter;\r\n        address sharer;\r\n        address  sharedPer;\r\n        uint priceOfBB; \r\n        uint price; // price / books \r\n        uint amount;\r\n        uint startTime;\r\n        uint endTime;\r\n    }\r\n\r\n    event BookSharingCreated (\r\n        uint256 tokenId,\r\n        address fromRenter,\r\n        address sharer,\r\n        address  sharedPer,\r\n        uint priceOfBB,\r\n        uint price,\r\n        uint amount,\r\n        uint startTime,\r\n        uint endTime\r\n    );\r\n\r\n    TimeLock private _timelock;\r\n    // Variable for Shared Books\r\n\r\n    // (hash ID ->  ID Book on sharing)\r\n    mapping (bytes32 => uint) _allBooksOnSharing;\r\n    // For sharer\r\n    mapping(address => uint) private _totalOwnedBookOnSharing; \r\n    Counters.Counter private _booksOnSharing;\r\n    mapping(uint => BookSharing) private _idToBookOnSharing; // (ID -> Book on Sharing)\r\n    mapping(address => mapping(uint => uint)) private _amountOwnedBooksOnSharing;\r\n\r\n    // hash ID => ID shared book\r\n    mapping (bytes32 => uint) _allSharedBooks;\r\n    // For shared person\r\n    mapping(address => uint) private _totalOwnedSharedBook; \r\n    Counters.Counter private _sharedBooks;\r\n    mapping(uint => BookSharing) private _idToSharedBook; // (ID -> Shared book)\r\n    // Shared person => (tokenId => amount)\r\n    mapping(address => mapping(uint => uint)) private _amountOwnedSharedBooks;\r\n\r\n    \r\n    constructor(TimeLock timelock) {\r\n        _timelock = timelock;\r\n    }\r\n\r\n    function getTotalBookOnSharing() public view returns(uint) {\r\n        return _booksOnSharing.current();\r\n    }\r\n    function getHashIdForSharedBook(uint tokenId, \r\n                                    address sharer, \r\n                                    address sharedPer, \r\n                                    uint startTime, \r\n                                    uint endTime) public pure returns (bytes32) {\r\n        return keccak256(abi.encode(tokenId, sharer, sharedPer, startTime, endTime));                                  \r\n    }\r\n\r\n    function getHashIdForBookOnSharing(uint tokenId,\r\n                                       address fromRenter, \r\n                                       address sharer, \r\n                                       uint startTime, \r\n                                       uint endTime) public pure returns (bytes32) {\r\n        return keccak256(abi.encode(tokenId, fromRenter, sharer, startTime, endTime));                                  \r\n    }\r\n    function _createBookForSharing(uint tokenId, \r\n                                   address fromRenter,\r\n                                   address sharer, \r\n                                   uint priceOfBB, \r\n                                   uint price, \r\n                                   uint amount, \r\n                                   uint startTime, \r\n                                   uint endTime) private {\r\n        bytes32 hashId = getHashIdForBookOnSharing(tokenId,\r\n                                                   fromRenter,\r\n                                                   sharer,  \r\n                                                   startTime, \r\n                                                   endTime);\r\n        if (_allSharedBooks[hashId] != 0) {\r\n            revert Error.InvalidIdError(_allSharedBooks[hashId]);\r\n        }\r\n        _booksOnSharing.increment();\r\n        \r\n        _allBooksOnSharing[hashId] = _booksOnSharing.current();\r\n        _idToBookOnSharing[_booksOnSharing.current()] = BookSharing(tokenId,\r\n                                                                   fromRenter,\r\n                                                                   sharer,\r\n                                                                   address(0), \r\n                                                                   priceOfBB,\r\n                                                                   price, \r\n                                                                   amount,\r\n                                                                   startTime,\r\n                                                                   endTime);\r\n        _totalOwnedBookOnSharing[sharer]++;\r\n        _amountOwnedBooksOnSharing[sharer][tokenId] += amount;\r\n        _timelock.queue(fromRenter,\r\n                        0, \r\n                        \"removeBooksOnSharing(uint,address,address,uint,uint)\", \r\n                        abi.encodePacked(_booksOnSharing.current()), \r\n                        endTime);   \r\n        emit BookSharingCreated(tokenId,\r\n                                fromRenter,\r\n                                sharer,\r\n                                address(0), \r\n                                priceOfBB,\r\n                                price, \r\n                                amount,\r\n                                startTime,\r\n                                endTime);\r\n    }\r\n\r\n    function _createSharedBook(uint tokenId, \r\n                               address fromRenter,\r\n                               address sharer, \r\n                               address sharedPer, \r\n                               uint priceOfBB,\r\n                               uint256 price, \r\n                               uint amount,\r\n                               uint startTime,\r\n                               uint endTime) private {\r\n        bytes32 hashId = getHashIdForSharedBook(tokenId,\r\n                                                sharer, \r\n                                                sharedPer, \r\n                                                startTime, \r\n                                                endTime);\r\n        if (_allSharedBooks[hashId] != 0) {\r\n            revert Error.InvalidIdError(_allSharedBooks[hashId]);\r\n        }\r\n        _sharedBooks.increment();\r\n        _allSharedBooks[hashId] = _sharedBooks.current();\r\n        _idToSharedBook[_sharedBooks.current()] = BookSharing(tokenId,\r\n                                                             fromRenter,\r\n                                                             sharer,\r\n                                                             sharedPer, \r\n                                                             priceOfBB,\r\n                                                             price, \r\n                                                             amount,\r\n                                                             startTime,\r\n                                                             endTime);\r\n        _totalOwnedSharedBook[sharedPer]++;\r\n        _amountOwnedSharedBooks[sharedPer][tokenId] += amount;\r\n        _timelock.queue(fromRenter,\r\n                        0, \r\n                        \"removeSharedBooks(uint,address,address,uint,uint)\", \r\n                        abi.encodePacked(_sharedBooks.current()), \r\n                        endTime);  \r\n        emit BookSharingCreated(tokenId,\r\n                               fromRenter,\r\n                               sharer,\r\n                               sharedPer, \r\n                               priceOfBB,\r\n                               price, \r\n                               amount,\r\n                               startTime,\r\n                               endTime);\r\n    }\r\n\r\n    function getIdBookOnSharing(uint tokenId, \r\n                                address fromRenter,\r\n                                address sharer, \r\n                                uint startTime, \r\n                                uint endTime) public view returns(uint) {\r\n        bytes32 hashId = getHashIdForBookOnSharing(tokenId,\r\n                                                   fromRenter, \r\n                                                   sharer, \r\n                                                   startTime, \r\n                                                   endTime);\r\n        uint idBooksOnSharing = _allBooksOnSharing[hashId];\r\n        if (idBooksOnSharing != 0) {\r\n            if (_idToBookOnSharing[idBooksOnSharing].sharedPer == address(0)) {\r\n                return idBooksOnSharing;\r\n            }\r\n        }\r\n        return 0;\r\n    }\r\n\r\n    function getTotalSharedBooks() public view returns(uint) {\r\n        return _sharedBooks.current();\r\n    }\r\n\r\n    function getBooksOnSharing(uint idBooksOnSharing) public view returns(BookSharing memory) {\r\n        if (idBooksOnSharing == 0) {\r\n            revert Error.InvalidIdError(idBooksOnSharing);\r\n        } \r\n        if (_idToBookOnSharing[idBooksOnSharing].sharedPer != address(0)) {\r\n            revert Error.InvalidAddressError(_idToBookOnSharing[idBooksOnSharing].sharedPer);\r\n        }\r\n        return _idToBookOnSharing[idBooksOnSharing];\r\n    }\r\n\r\n    function getIdSharedBook(uint tokenId, \r\n                            address sharedPer, \r\n                            address sharer,\r\n                            uint startTime,\r\n                            uint endTime) public view returns(uint) {\r\n        bytes32 hashId = getHashIdForSharedBook(tokenId, \r\n                                                sharer, \r\n                                                sharedPer, \r\n                                                startTime, \r\n                                                endTime);\r\n        uint idSharedBook = _allSharedBooks[hashId];\r\n        if (idSharedBook != 0) {\r\n            if (_idToSharedBook[idSharedBook].sharedPer != address(0)) {\r\n                return idSharedBook;\r\n            }\r\n        }\r\n        return 0;\r\n    }\r\n\r\n    function getSharedBooks(uint idSharedBook) public view returns(BookSharing memory) {\r\n        return _idToSharedBook[idSharedBook];\r\n    }\r\n\r\n    function shareBooks(uint256 tokenId,\r\n                        address fromRenter, \r\n                        address sharer,\r\n                        uint priceOfBB,\r\n                        uint price,\r\n                        uint256 amount,\r\n                        uint256 startTime,\r\n                        uint256 endTime) public payable {\r\n\r\n        uint idBookOnSharing = getIdBookOnSharing(tokenId, fromRenter, sharer, startTime, endTime);\r\n        if (idBookOnSharing != 0) {\r\n            revert Error.InvalidIdError(idBookOnSharing);\r\n        }\r\n        _createBookForSharing(tokenId, fromRenter, sharer, priceOfBB, price, amount, startTime, endTime);\r\n\r\n    }\r\n\r\n    function getAllBooksOnSharing() public view returns (BookSharing[] memory) {\r\n        uint length = _booksOnSharing.current();\r\n        BookSharing[] memory books;\r\n        if (length > 0) {\r\n            books = new BookSharing[](length);\r\n\r\n            for (uint i = 1; i <= length; i++) {\r\n                BookSharing memory book = _idToBookOnSharing[i];\r\n                books[i - 1] = book;\r\n            }\r\n        }\r\n\r\n        return books;\r\n    }\r\n\r\n    function getAllOwnedBooksOnSharing() \r\n        public view returns (BookSharing[] memory) {\r\n        uint total = _totalOwnedBookOnSharing[msg.sender];\r\n        BookSharing[] memory books;\r\n\r\n        if (total > 0) {\r\n            uint currentIndex = 0;\r\n            books = new BookSharing[](total);\r\n\r\n            for (uint i = 1; i <= _booksOnSharing.current(); i++) {\r\n                BookSharing memory book = _idToBookOnSharing[i];\r\n                if (book.sharer == msg.sender && book.sharedPer == address(0)) {\r\n                    books[currentIndex] = book;\r\n                    currentIndex += 1;\r\n                }\r\n            }\r\n        }\r\n        return books;\r\n    }\r\n\r\n    function getAllSharedBook() public view returns (BookSharing[] memory) {\r\n        uint length = _sharedBooks.current();\r\n        BookSharing[] memory books;\r\n        if (length > 0) {\r\n            books = new BookSharing[](length);\r\n\r\n            for (uint i = 1; i <= length; i++) {\r\n                BookSharing memory book = _idToSharedBook[i];\r\n                books[i - 1] = book;\r\n            }\r\n        }\r\n\r\n        return books;\r\n    }\r\n\r\n    function getAllOwnedSharedBook() public view returns (BookSharing[] memory) {\r\n        uint total = _totalOwnedSharedBook[msg.sender];\r\n        BookSharing[] memory books;\r\n\r\n        if (total > 0) {\r\n            uint currentIndex = 0;\r\n            books = new BookSharing[](total);\r\n\r\n            for (uint i = 1; i <= _sharedBooks.current(); i++) {\r\n                BookSharing memory book = _idToSharedBook[i];\r\n                if (book.sharedPer == msg.sender) {\r\n                    books[currentIndex] = book;\r\n                    currentIndex += 1;\r\n                }\r\n            }\r\n        }\r\n        return books;\r\n    }\r\n\r\n    function isSharedBookReadable(uint tokenId, address owner) \r\n        public view returns (bool) {\r\n        uint total = _totalOwnedSharedBook[owner];\r\n\r\n        if (total > 0) {\r\n\r\n            for (uint i = 1; i <= _sharedBooks.current(); i++) {\r\n                BookSharing memory book = _idToSharedBook[i];\r\n                if (book.sharedPer == owner &&\r\n                    book.tokenId == tokenId &&\r\n                    book.endTime > block.timestamp) {\r\n                    return true;\r\n                }\r\n            }\r\n            \r\n        }\r\n        return false;\r\n    }\r\n\r\n    function _updateSharedBooksInternal(uint idSharedBook,\r\n                                        address sharedPer,\r\n                                        uint tokenId,\r\n                                        uint newPrice,\r\n                                        uint256 newAmount\r\n                                        ) private {\r\n        if (_idToSharedBook[idSharedBook].tokenId != tokenId) {\r\n            revert Error.InvalidIdError(tokenId);\r\n        }\r\n        if (_idToSharedBook[idSharedBook].sharedPer != sharedPer) {\r\n            revert Error.InvalidAddressError(sharedPer);\r\n        }\r\n        if(_idToSharedBook[idSharedBook].price != newPrice) {\r\n\r\n            _idToSharedBook[idSharedBook].price = newPrice;\r\n\r\n        } \r\n        \r\n        if( _idToSharedBook[idSharedBook].amount != newAmount) {\r\n            uint balance;\r\n            if (_idToSharedBook[idSharedBook].amount > newAmount) {\r\n                balance = _idToSharedBook[idSharedBook].amount - newAmount;\r\n                _amountOwnedSharedBooks[sharedPer][tokenId] -= balance;\r\n            } else {\r\n                balance = newAmount - _idToSharedBook[idSharedBook].amount;\r\n                _amountOwnedSharedBooks[sharedPer][tokenId] += balance;\r\n            }\r\n\r\n            _idToSharedBook[idSharedBook].amount = newAmount;\r\n\r\n        }\r\n\r\n    }\r\n\r\n    function getTotalBooksOnSharing() public view returns(uint) {\r\n        return _booksOnSharing.current();\r\n    }\r\n\r\n    function _updateBooksOnSharingInternal(uint idBookOnSharing,\r\n                                           address sharer,\r\n                                           uint tokenId,\r\n                                           uint newPrice,\r\n                                           uint256 newAmount\r\n                                        ) private {\r\n        if (_idToBookOnSharing[idBookOnSharing].tokenId != tokenId) {\r\n            revert Error.InvalidIdError(tokenId);\r\n        }\r\n        if (_idToBookOnSharing[idBookOnSharing].sharer != sharer) {\r\n            revert Error.InvalidAddressError(sharer);\r\n        }\r\n        if(_idToBookOnSharing[idBookOnSharing].price != newPrice ) {\r\n\r\n            _idToBookOnSharing[idBookOnSharing].price = newPrice;\r\n\r\n        }\r\n\r\n        if (_idToBookOnSharing[idBookOnSharing].amount != newAmount) {\r\n            uint balance;\r\n            if (_idToBookOnSharing[idBookOnSharing].amount > newAmount) {\r\n                balance = _idToBookOnSharing[idBookOnSharing].amount - newAmount;\r\n                _amountOwnedBooksOnSharing[sharer][tokenId] -= balance;\r\n            } else {\r\n                balance = newAmount - _idToBookOnSharing[idBookOnSharing].amount;\r\n                _amountOwnedBooksOnSharing[sharer][tokenId] += balance;\r\n            }\r\n            _idToBookOnSharing[idBookOnSharing].amount = newAmount;\r\n\r\n        }\r\n\r\n    }\r\n\r\n    function updateBooksOnSharing(uint idBookOnSharing,\r\n                                  address sharer,\r\n                                  uint tokenId,\r\n                                  uint newPrice, \r\n                                  uint newAmount) public {\r\n        if (idBookOnSharing == 0) {\r\n            revert Error.InvalidIdError(idBookOnSharing);\r\n        }\r\n        if (newPrice == 0) {\r\n            revert Error.InvalidPriceError(newPrice);\r\n        }\r\n        if (newAmount == 0) {\r\n            revert Error.InvalidAmountError(newAmount);\r\n        }\r\n        _updateBooksOnSharingInternal(idBookOnSharing, sharer, tokenId, newPrice, newAmount);\r\n    }\r\n\r\n    function _removeBooksOnSharingInternal(bytes32 hashId) private {\r\n        uint idBook = _allBooksOnSharing[hashId];\r\n        if (idBook == 0) {\r\n            revert Error.InvalidIdError(idBook);\r\n        }\r\n        BookSharing memory bookOnSharing = _idToBookOnSharing[idBook];\r\n\r\n        uint lastIdBook = _booksOnSharing.current();\r\n        bytes32 txId = _timelock.getTxId(bookOnSharing.fromRenter,\r\n                                         0, \r\n                                         \"removeBooksOnSharing(uint,address,address,uint,uint)\", \r\n                                         abi.encodePacked(idBook), \r\n                                         bookOnSharing.endTime);\r\n        _timelock.cancel(txId);\r\n        if (lastIdBook != idBook) {\r\n            BookSharing memory lastBook = _idToBookOnSharing[lastIdBook];\r\n            txId = _timelock.getTxId(lastBook.fromRenter,\r\n                                     0, \r\n                                     \"removeBooksOnSharing(uint,address,address,uint,uint)\", \r\n                                     abi.encodePacked(lastIdBook), \r\n                                     lastBook.endTime);\r\n            \r\n            _timelock.update(txId,\r\n                             lastBook.fromRenter,\r\n                             0, \r\n                             \"removeBooksOnSharing(uint,address,address,uint,uint)\", \r\n                             abi.encodePacked(idBook), \r\n                             lastBook.endTime);\r\n            bytes32 lastHashId = getHashIdForBookOnSharing(lastBook.tokenId, \r\n                                                           lastBook.fromRenter,\r\n                                                           lastBook.sharer, \r\n                                                           lastBook.startTime, \r\n                                                           lastBook.endTime);\r\n\r\n            _allBooksOnSharing[lastHashId] = idBook;\r\n            _idToBookOnSharing[idBook] = lastBook;\r\n\r\n        }\r\n\r\n        delete _allBooksOnSharing[hashId];\r\n        delete _idToBookOnSharing[lastIdBook];\r\n\r\n        _totalOwnedBookOnSharing[bookOnSharing.sharer] -= 1;\r\n        _amountOwnedBooksOnSharing[bookOnSharing.sharer][bookOnSharing.tokenId] -= bookOnSharing.amount;\r\n        _booksOnSharing.decrement();\r\n\r\n    }\r\n\r\n    function removeBooksOnSharing(uint tokenId,\r\n                                  address fromRenter,\r\n                                  address sharer,\r\n                                  uint startTime,\r\n                                  uint endTime) public {\r\n\r\n        bytes32 hashId = getHashIdForBookOnSharing(tokenId, \r\n                                                   fromRenter,\r\n                                                   sharer, \r\n                                                   startTime, \r\n                                                   endTime); \r\n\r\n        _removeBooksOnSharingInternal(hashId);\r\n    }\r\n\r\n    function _removeSharedBooksInternal(bytes32 hashId) private {\r\n        uint idBook = _allSharedBooks[hashId];\r\n        if (idBook == 0) {\r\n            revert Error.InvalidIdError(idBook);\r\n        }\r\n        BookSharing memory sharedBook = _idToSharedBook[idBook];\r\n\r\n        uint lastIdBook = _sharedBooks.current();\r\n        bytes32 txId = _timelock.getTxId(sharedBook.fromRenter,\r\n                                         0, \r\n                                         \"removeSharedBooks(uint,address,address,uint,uint)\", \r\n                                         abi.encodePacked(idBook), \r\n                                         sharedBook.endTime);\r\n        _timelock.cancel(txId);\r\n        if (lastIdBook != idBook) {\r\n            BookSharing memory lastBook = _idToSharedBook[lastIdBook];\r\n            txId = _timelock.getTxId(lastBook.fromRenter,\r\n                                     0, \r\n                                     \"removeSharedBooks(uint,address,address,uint,uint)\", \r\n                                     abi.encodePacked(lastIdBook), \r\n                                     lastBook.endTime);\r\n            \r\n            _timelock.update(txId,\r\n                             lastBook.fromRenter,\r\n                             0, \r\n                             \"removeSharedBooks(uint,address,address,uint,uint)\", \r\n                             abi.encodePacked(idBook), \r\n                             lastBook.endTime);\r\n            bytes32 lastHashId = getHashIdForSharedBook(lastBook.tokenId, \r\n                                                        lastBook.sharer, \r\n                                                        lastBook.sharedPer, \r\n                                                        lastBook.startTime, \r\n                                                        lastBook.endTime);\r\n\r\n            _allSharedBooks[lastHashId] = idBook;\r\n            _idToSharedBook[idBook] = lastBook;\r\n\r\n        }\r\n\r\n        delete _allSharedBooks[hashId];\r\n        delete _idToSharedBook[lastIdBook];\r\n\r\n        _totalOwnedSharedBook[sharedBook.sharedPer] -= 1;\r\n        _amountOwnedSharedBooks[sharedBook.sharedPer][sharedBook.tokenId] -= sharedBook.amount;\r\n        _sharedBooks.decrement();\r\n\r\n    }\r\n\r\n    function removeSharedBooks(uint tokenId,\r\n                              address owner,\r\n                              address sharer,\r\n                              uint startTime,\r\n                              uint endTime\r\n                              ) public {\r\n        bytes32 hashId = getHashIdForSharedBook(tokenId, \r\n                                                sharer, \r\n                                                owner, \r\n                                                startTime, \r\n                                                endTime); \r\n        _removeSharedBooksInternal(hashId);\r\n    }\r\n\r\n    function takeBooksOnSharing(uint idBooksOnSharing,\r\n                                address sender) \r\n        public payable returns(uint) {\r\n        BookSharing memory booksOnSharing = getBooksOnSharing(idBooksOnSharing);\r\n        if (booksOnSharing.tokenId == 0) {\r\n            revert Error.InvalidIdError(booksOnSharing.tokenId);\r\n        }\r\n        if (booksOnSharing.sharer == address(0) || sender == address(0)) {\r\n            revert Error.InvalidAddressError(address(0));\r\n        }\r\n        if (booksOnSharing.sharer == sender) {\r\n            revert Error.InvalidAddressError(sender);\r\n        }\r\n        if (booksOnSharing.amount == 0) {\r\n            revert Error.InvalidAmountError(0);\r\n        }\r\n        uint tokenId = booksOnSharing.tokenId;\r\n        address sharer = booksOnSharing.sharer;\r\n\r\n        uint idSharedBook = getIdSharedBook(tokenId, \r\n                                            sender, \r\n                                            sharer, \r\n                                            booksOnSharing.startTime, \r\n                                            booksOnSharing.endTime);\r\n        if (idSharedBook == 0) {\r\n            _createSharedBook(tokenId,\r\n                              booksOnSharing.fromRenter,\r\n                              sharer, \r\n                              sender, \r\n                              booksOnSharing.priceOfBB,\r\n                              booksOnSharing.price, \r\n                              1, \r\n                              booksOnSharing.startTime, \r\n                              booksOnSharing.endTime);\r\n\r\n        } else {\r\n            BookSharing memory sharedBooks = _idToSharedBook[idSharedBook];\r\n            _updateSharedBooksInternal(idSharedBook, \r\n                                       sender,\r\n                                       tokenId,\r\n                                       booksOnSharing.price, \r\n                                       sharedBooks.amount + 1);\r\n        }\r\n\r\n        if (booksOnSharing.amount == 1) {\r\n            bytes32 hashId = getHashIdForBookOnSharing(tokenId,\r\n                                                       booksOnSharing.fromRenter,\r\n                                                       sharer, \r\n                                                       booksOnSharing.startTime, \r\n                                                       booksOnSharing.endTime); \r\n            if (_allBooksOnSharing[hashId] != idBooksOnSharing) {\r\n                revert Error.InvalidIdError(idBooksOnSharing);\r\n            }\r\n            _removeBooksOnSharingInternal(hashId);\r\n        } else {\r\n            _updateBooksOnSharingInternal(idBooksOnSharing,\r\n                                          sharer,\r\n                                          tokenId,\r\n                                          booksOnSharing.price, \r\n                                          booksOnSharing.amount - 1);\r\n        }\r\n\r\n        // Return price of books on sharing to transfer to sharer \r\n        return booksOnSharing.price;\r\n    }\r\n\r\n    function getAmountOfAllBooksOnSharing(uint tokenId,\r\n                                          address owner) public view returns(uint) {\r\n        return _amountOwnedBooksOnSharing[owner][tokenId];\r\n    }\r\n\r\n    function getAmountOfAllSharedBooks(uint tokenId,\r\n                                    address owner) public view returns(uint) {\r\n            \r\n        return _amountOwnedSharedBooks[owner][tokenId];\r\n    }\r\n\r\n    function excRecallSharedBooks(uint idSharedBook) public returns(bool) {\r\n\r\n        bytes memory data = abi.encodePacked(idSharedBook);\r\n        BookSharing memory book = _idToSharedBook[idSharedBook];\r\n        string memory func = \"removeSharedBooks(uint,address,address,uint,uint)\";\r\n        if (_timelock.isExecute(book.fromRenter, \r\n                                0, \r\n                                func, \r\n                                data, \r\n                                book.endTime)) {\r\n            removeSharedBooks(idSharedBook, \r\n                             book.sharedPer, \r\n                             book.sharer, \r\n                             book.startTime, \r\n                             book.endTime);\r\n            return true;\r\n        }\r\n\r\n        return false;\r\n    }\r\n\r\n    function excRecallAllSharedBooks(address renter) public returns(uint) {\r\n        uint total = 0;\r\n        if (_sharedBooks.current() > 0) {\r\n\r\n        for (uint i = 1; i <= _sharedBooks.current(); i++) {\r\n            BookSharing memory book = _idToSharedBook[i];\r\n            if (book.fromRenter == renter && \r\n                excRecallSharedBooks(i)) {\r\n                total++;     \r\n\r\n            }\r\n        }\r\n        }\r\n        return total;\r\n    }\r\n\r\n    function excRecallBooksOnSharing(uint idBooksOnSharing) public returns(bool) {\r\n\r\n        bytes memory data = abi.encodePacked(idBooksOnSharing);\r\n        BookSharing memory book = _idToBookOnSharing[idBooksOnSharing];\r\n        string memory func = \"removeBooksOnSharing(uint,address,address,uint,uint)\";\r\n        if (_timelock.isExecute(book.fromRenter, \r\n                                0, \r\n                                func, \r\n                                data, \r\n                                book.endTime)) {\r\n            removeBooksOnSharing(idBooksOnSharing, \r\n                                 book.fromRenter, \r\n                                 book.sharer, \r\n                                 book.startTime, \r\n                                 book.endTime);\r\n            return true;\r\n        }\r\n\r\n        return false;\r\n    }\r\n\r\n    function excRecallAllBooksOnSharing(address renter) public returns(uint) {\r\n        uint total = 0;\r\n        if (_booksOnSharing.current() > 0) {\r\n\r\n        for (uint i = 1; i <= _booksOnSharing.current(); i++) {\r\n            BookSharing memory book = _idToBookOnSharing[i];\r\n            if (book.fromRenter == renter && \r\n                book.sharedPer == address(0) && \r\n                excRecallBooksOnSharing(i)) {\r\n                total++;     \r\n\r\n            }\r\n        }\r\n        }\r\n        return total;\r\n    }\r\n\r\n}",
  "sourcePath": "D:\\DO_AN_TOT_NGHIEP\\project\\nft-bookstore\\contracts\\share\\BookSharingStorage.sol",
  "compiler": {
    "name": "solc",
    "version": "0.8.17+commit.8df45f5f.Emscripten.clang"
  },
  "schemaVersion": "3.4.11",
  "updatedAt": "2023-05-17T15:56:05.746Z",
  "networkType": "ethereum",
  "devdoc": {
    "kind": "dev",
    "methods": {},
    "version": 1
  },
  "userdoc": {
    "kind": "user",
    "methods": {},
    "version": 1
  }
}