{
  "contractName": "BookStore",
  "abi": [
    {
      "inputs": [
        {
          "internalType": "contract ListedBookStorage",
          "name": "listedBookStorage",
          "type": "address"
        },
        {
          "internalType": "contract RentedBookStorage",
          "name": "rentedBookStorage",
          "type": "address"
        }
      ],
      "stateMutability": "nonpayable",
      "type": "constructor"
    },
    {
      "anonymous": false,
      "inputs": [
        {
          "indexed": true,
          "internalType": "address",
          "name": "account",
          "type": "address"
        },
        {
          "indexed": true,
          "internalType": "address",
          "name": "operator",
          "type": "address"
        },
        {
          "indexed": false,
          "internalType": "bool",
          "name": "approved",
          "type": "bool"
        }
      ],
      "name": "ApprovalForAll",
      "type": "event"
    },
    {
      "anonymous": false,
      "inputs": [
        {
          "indexed": false,
          "internalType": "uint256",
          "name": "tokenId",
          "type": "uint256"
        },
        {
          "indexed": false,
          "internalType": "address",
          "name": "author",
          "type": "address"
        },
        {
          "indexed": false,
          "internalType": "uint256",
          "name": "balance",
          "type": "uint256"
        }
      ],
      "name": "NFTBookCreated",
      "type": "event"
    },
    {
      "anonymous": false,
      "inputs": [
        {
          "indexed": true,
          "internalType": "address",
          "name": "previousOwner",
          "type": "address"
        },
        {
          "indexed": true,
          "internalType": "address",
          "name": "newOwner",
          "type": "address"
        }
      ],
      "name": "OwnershipTransferred",
      "type": "event"
    },
    {
      "anonymous": false,
      "inputs": [
        {
          "indexed": true,
          "internalType": "address",
          "name": "operator",
          "type": "address"
        },
        {
          "indexed": true,
          "internalType": "address",
          "name": "from",
          "type": "address"
        },
        {
          "indexed": true,
          "internalType": "address",
          "name": "to",
          "type": "address"
        },
        {
          "indexed": false,
          "internalType": "uint256[]",
          "name": "ids",
          "type": "uint256[]"
        },
        {
          "indexed": false,
          "internalType": "uint256[]",
          "name": "values",
          "type": "uint256[]"
        }
      ],
      "name": "TransferBatch",
      "type": "event"
    },
    {
      "anonymous": false,
      "inputs": [
        {
          "indexed": true,
          "internalType": "address",
          "name": "operator",
          "type": "address"
        },
        {
          "indexed": true,
          "internalType": "address",
          "name": "from",
          "type": "address"
        },
        {
          "indexed": true,
          "internalType": "address",
          "name": "to",
          "type": "address"
        },
        {
          "indexed": false,
          "internalType": "uint256",
          "name": "id",
          "type": "uint256"
        },
        {
          "indexed": false,
          "internalType": "uint256",
          "name": "value",
          "type": "uint256"
        }
      ],
      "name": "TransferSingle",
      "type": "event"
    },
    {
      "anonymous": false,
      "inputs": [
        {
          "indexed": false,
          "internalType": "string",
          "name": "value",
          "type": "string"
        },
        {
          "indexed": true,
          "internalType": "uint256",
          "name": "id",
          "type": "uint256"
        }
      ],
      "name": "URI",
      "type": "event"
    },
    {
      "inputs": [
        {
          "internalType": "address",
          "name": "account",
          "type": "address"
        },
        {
          "internalType": "uint256",
          "name": "id",
          "type": "uint256"
        }
      ],
      "name": "balanceOf",
      "outputs": [
        {
          "internalType": "uint256",
          "name": "",
          "type": "uint256"
        }
      ],
      "stateMutability": "view",
      "type": "function",
      "constant": true
    },
    {
      "inputs": [
        {
          "internalType": "address[]",
          "name": "accounts",
          "type": "address[]"
        },
        {
          "internalType": "uint256[]",
          "name": "ids",
          "type": "uint256[]"
        }
      ],
      "name": "balanceOfBatch",
      "outputs": [
        {
          "internalType": "uint256[]",
          "name": "",
          "type": "uint256[]"
        }
      ],
      "stateMutability": "view",
      "type": "function",
      "constant": true
    },
    {
      "inputs": [
        {
          "internalType": "address",
          "name": "account",
          "type": "address"
        },
        {
          "internalType": "address",
          "name": "operator",
          "type": "address"
        }
      ],
      "name": "isApprovedForAll",
      "outputs": [
        {
          "internalType": "bool",
          "name": "",
          "type": "bool"
        }
      ],
      "stateMutability": "view",
      "type": "function",
      "constant": true
    },
    {
      "inputs": [],
      "name": "listingPrice",
      "outputs": [
        {
          "internalType": "uint256",
          "name": "",
          "type": "uint256"
        }
      ],
      "stateMutability": "view",
      "type": "function",
      "constant": true
    },
    {
      "inputs": [],
      "name": "owner",
      "outputs": [
        {
          "internalType": "address",
          "name": "",
          "type": "address"
        }
      ],
      "stateMutability": "view",
      "type": "function",
      "constant": true
    },
    {
      "inputs": [],
      "name": "renounceOwnership",
      "outputs": [],
      "stateMutability": "nonpayable",
      "type": "function"
    },
    {
      "inputs": [
        {
          "internalType": "address",
          "name": "from",
          "type": "address"
        },
        {
          "internalType": "address",
          "name": "to",
          "type": "address"
        },
        {
          "internalType": "uint256[]",
          "name": "ids",
          "type": "uint256[]"
        },
        {
          "internalType": "uint256[]",
          "name": "amounts",
          "type": "uint256[]"
        },
        {
          "internalType": "bytes",
          "name": "data",
          "type": "bytes"
        }
      ],
      "name": "safeBatchTransferFrom",
      "outputs": [],
      "stateMutability": "nonpayable",
      "type": "function"
    },
    {
      "inputs": [
        {
          "internalType": "address",
          "name": "from",
          "type": "address"
        },
        {
          "internalType": "address",
          "name": "to",
          "type": "address"
        },
        {
          "internalType": "uint256",
          "name": "id",
          "type": "uint256"
        },
        {
          "internalType": "uint256",
          "name": "amount",
          "type": "uint256"
        },
        {
          "internalType": "bytes",
          "name": "data",
          "type": "bytes"
        }
      ],
      "name": "safeTransferFrom",
      "outputs": [],
      "stateMutability": "nonpayable",
      "type": "function"
    },
    {
      "inputs": [
        {
          "internalType": "address",
          "name": "operator",
          "type": "address"
        },
        {
          "internalType": "bool",
          "name": "approved",
          "type": "bool"
        }
      ],
      "name": "setApprovalForAll",
      "outputs": [],
      "stateMutability": "nonpayable",
      "type": "function"
    },
    {
      "inputs": [
        {
          "internalType": "bytes4",
          "name": "interfaceId",
          "type": "bytes4"
        }
      ],
      "name": "supportsInterface",
      "outputs": [
        {
          "internalType": "bool",
          "name": "",
          "type": "bool"
        }
      ],
      "stateMutability": "view",
      "type": "function",
      "constant": true
    },
    {
      "inputs": [
        {
          "internalType": "address",
          "name": "newOwner",
          "type": "address"
        }
      ],
      "name": "transferOwnership",
      "outputs": [],
      "stateMutability": "nonpayable",
      "type": "function"
    },
    {
      "inputs": [
        {
          "internalType": "uint256",
          "name": "tokenId",
          "type": "uint256"
        }
      ],
      "name": "uri",
      "outputs": [
        {
          "internalType": "string",
          "name": "",
          "type": "string"
        }
      ],
      "stateMutability": "view",
      "type": "function",
      "constant": true
    },
    {
      "inputs": [
        {
          "internalType": "uint256",
          "name": "newPrice",
          "type": "uint256"
        }
      ],
      "name": "setListingPrice",
      "outputs": [],
      "stateMutability": "nonpayable",
      "type": "function"
    },
    {
      "inputs": [
        {
          "internalType": "uint256",
          "name": "tokenId",
          "type": "uint256"
        }
      ],
      "name": "getNftBook",
      "outputs": [
        {
          "components": [
            {
              "internalType": "uint256",
              "name": "tokenId",
              "type": "uint256"
            },
            {
              "internalType": "address",
              "name": "author",
              "type": "address"
            },
            {
              "internalType": "uint256",
              "name": "balance",
              "type": "uint256"
            }
          ],
          "internalType": "struct BookStore.NFTBook",
          "name": "",
          "type": "tuple"
        }
      ],
      "stateMutability": "view",
      "type": "function",
      "constant": true
    },
    {
      "inputs": [
        {
          "internalType": "string",
          "name": "tokenURI",
          "type": "string"
        }
      ],
      "name": "isTokenURIExist",
      "outputs": [
        {
          "internalType": "bool",
          "name": "",
          "type": "bool"
        }
      ],
      "stateMutability": "view",
      "type": "function",
      "constant": true
    },
    {
      "inputs": [
        {
          "internalType": "string",
          "name": "tokenURI",
          "type": "string"
        },
        {
          "internalType": "uint256",
          "name": "balance",
          "type": "uint256"
        }
      ],
      "name": "mintBook",
      "outputs": [
        {
          "internalType": "uint256",
          "name": "",
          "type": "uint256"
        }
      ],
      "stateMutability": "payable",
      "type": "function",
      "payable": true
    },
    {
      "inputs": [
        {
          "internalType": "uint256",
          "name": "tokenId",
          "type": "uint256"
        }
      ],
      "name": "getBalance",
      "outputs": [
        {
          "internalType": "uint256",
          "name": "",
          "type": "uint256"
        }
      ],
      "stateMutability": "view",
      "type": "function",
      "constant": true
    },
    {
      "inputs": [
        {
          "internalType": "uint256",
          "name": "tokenId",
          "type": "uint256"
        },
        {
          "internalType": "address",
          "name": "owner",
          "type": "address"
        }
      ],
      "name": "isOwnerOfToken",
      "outputs": [
        {
          "internalType": "bool",
          "name": "",
          "type": "bool"
        }
      ],
      "stateMutability": "view",
      "type": "function",
      "constant": true
    },
    {
      "inputs": [],
      "name": "getOwnedNFTBooks",
      "outputs": [
        {
          "components": [
            {
              "internalType": "uint256",
              "name": "tokenId",
              "type": "uint256"
            },
            {
              "internalType": "address",
              "name": "author",
              "type": "address"
            },
            {
              "internalType": "uint256",
              "name": "balance",
              "type": "uint256"
            }
          ],
          "internalType": "struct BookStore.NFTBook[]",
          "name": "",
          "type": "tuple[]"
        }
      ],
      "stateMutability": "view",
      "type": "function",
      "constant": true
    },
    {
      "inputs": [],
      "name": "getOwnedListedBooks",
      "outputs": [
        {
          "components": [
            {
              "internalType": "uint256",
              "name": "tokenId",
              "type": "uint256"
            },
            {
              "internalType": "address",
              "name": "seller",
              "type": "address"
            },
            {
              "internalType": "uint256",
              "name": "price",
              "type": "uint256"
            },
            {
              "internalType": "uint256",
              "name": "amount",
              "type": "uint256"
            }
          ],
          "internalType": "struct ListedBookStorage.ListedBook[]",
          "name": "",
          "type": "tuple[]"
        }
      ],
      "stateMutability": "view",
      "type": "function",
      "constant": true
    },
    {
      "inputs": [
        {
          "internalType": "uint256",
          "name": "tokenId",
          "type": "uint256"
        },
        {
          "internalType": "address",
          "name": "owner",
          "type": "address"
        }
      ],
      "name": "getAmountOfAllTypeBooks",
      "outputs": [
        {
          "internalType": "uint256",
          "name": "",
          "type": "uint256"
        }
      ],
      "stateMutability": "view",
      "type": "function",
      "constant": true
    },
    {
      "inputs": [
        {
          "internalType": "uint256",
          "name": "tokenId",
          "type": "uint256"
        },
        {
          "internalType": "uint256",
          "name": "price",
          "type": "uint256"
        },
        {
          "internalType": "uint256",
          "name": "amount",
          "type": "uint256"
        }
      ],
      "name": "sellBooks",
      "outputs": [],
      "stateMutability": "payable",
      "type": "function",
      "payable": true
    },
    {
      "inputs": [
        {
          "internalType": "uint256",
          "name": "tokenId",
          "type": "uint256"
        },
        {
          "internalType": "uint256",
          "name": "amount",
          "type": "uint256"
        },
        {
          "internalType": "address",
          "name": "seller",
          "type": "address"
        }
      ],
      "name": "decreaseBookFromSale",
      "outputs": [],
      "stateMutability": "nonpayable",
      "type": "function"
    },
    {
      "inputs": [],
      "name": "getAllBooksOnSale",
      "outputs": [
        {
          "components": [
            {
              "internalType": "uint256",
              "name": "tokenId",
              "type": "uint256"
            },
            {
              "internalType": "address",
              "name": "seller",
              "type": "address"
            },
            {
              "internalType": "uint256",
              "name": "price",
              "type": "uint256"
            },
            {
              "internalType": "uint256",
              "name": "amount",
              "type": "uint256"
            }
          ],
          "internalType": "struct ListedBookStorage.ListedBook[]",
          "name": "",
          "type": "tuple[]"
        }
      ],
      "stateMutability": "view",
      "type": "function",
      "constant": true
    },
    {
      "inputs": [
        {
          "internalType": "uint256",
          "name": "tokenId",
          "type": "uint256"
        },
        {
          "internalType": "address",
          "name": "seller",
          "type": "address"
        },
        {
          "internalType": "uint256",
          "name": "amount",
          "type": "uint256"
        }
      ],
      "name": "buyBooks",
      "outputs": [],
      "stateMutability": "payable",
      "type": "function",
      "payable": true
    }
  ],
  "bytecode": "0x60806040526040518060200160405280600081525060039081620000249190620004a3565b506101f460085562093a806009556658d15e17628000600a553480156200004a57600080fd5b50604051620058803803806200588083398181016040528101906200007091906200064d565b6040518060600160405280602181526020016200585f602191396200009b816200014660201b60201c565b50620000bc620000b06200015b60201b60201c565b6200016360201b60201c565b81600660006101000a81548173ffffffffffffffffffffffffffffffffffffffff021916908373ffffffffffffffffffffffffffffffffffffffff16021790555080600760006101000a81548173ffffffffffffffffffffffffffffffffffffffff021916908373ffffffffffffffffffffffffffffffffffffffff160217905550505062000694565b8060029081620001579190620004a3565b5050565b600033905090565b6000600560009054906101000a900473ffffffffffffffffffffffffffffffffffffffff16905081600560006101000a81548173ffffffffffffffffffffffffffffffffffffffff021916908373ffffffffffffffffffffffffffffffffffffffff1602179055508173ffffffffffffffffffffffffffffffffffffffff168173ffffffffffffffffffffffffffffffffffffffff167f8be0079c531659141344cd1fd0a4f28419497f9722a3daafe3b4186f6b6457e060405160405180910390a35050565b600081519050919050565b7f4e487b7100000000000000000000000000000000000000000000000000000000600052604160045260246000fd5b7f4e487b7100000000000000000000000000000000000000000000000000000000600052602260045260246000fd5b60006002820490506001821680620002ab57607f821691505b602082108103620002c157620002c062000263565b5b50919050565b60008190508160005260206000209050919050565b60006020601f8301049050919050565b600082821b905092915050565b6000600883026200032b7fffffffffffffffffffffffffffffffffffffffffffffffffffffffffffffffff82620002ec565b620003378683620002ec565b95508019841693508086168417925050509392505050565b6000819050919050565b6000819050919050565b6000620003846200037e62000378846200034f565b62000359565b6200034f565b9050919050565b6000819050919050565b620003a08362000363565b620003b8620003af826200038b565b848454620002f9565b825550505050565b600090565b620003cf620003c0565b620003dc81848462000395565b505050565b5b818110156200040457620003f8600082620003c5565b600181019050620003e2565b5050565b601f82111562000453576200041d81620002c7565b6200042884620002dc565b8101602085101562000438578190505b620004506200044785620002dc565b830182620003e1565b50505b505050565b600082821c905092915050565b6000620004786000198460080262000458565b1980831691505092915050565b600062000493838362000465565b9150826002028217905092915050565b620004ae8262000229565b67ffffffffffffffff811115620004ca57620004c962000234565b5b620004d6825462000292565b620004e382828562000408565b600060209050601f8311600181146200051b576000841562000506578287015190505b62000512858262000485565b86555062000582565b601f1984166200052b86620002c7565b60005b8281101562000555578489015182556001820191506020850194506020810190506200052e565b8683101562000575578489015162000571601f89168262000465565b8355505b6001600288020188555050505b505050505050565b600080fd5b600073ffffffffffffffffffffffffffffffffffffffff82169050919050565b6000620005bc826200058f565b9050919050565b6000620005d082620005af565b9050919050565b620005e281620005c3565b8114620005ee57600080fd5b50565b6000815190506200060281620005d7565b92915050565b60006200061582620005af565b9050919050565b620006278162000608565b81146200063357600080fd5b50565b60008151905062000647816200061c565b92915050565b600080604083850312156200066757620006666200058a565b5b60006200067785828601620005f1565b92505060206200068a8582860162000636565b9150509250929050565b6151bb80620006a46000396000f3fe6080604052600436106101655760003560e01c8063715018a6116100d1578063b1eec6411161008a578063e985e9c511610064578063e985e9c51461054c578063eafdf24c14610589578063f242432a146105c6578063f2fde38b146105ef57610165565b8063b1eec641146104bb578063ba71a713146104e4578063c78f19f91461052157610165565b8063715018a6146103d15780637c726b69146103e857806380e8b138146104115780638da5cb5b1461043c578063a22cb46514610467578063b0a3a2f31461049057610165565b806320cf53b81161012357806320cf53b8146102d85780632e43a9f9146103035780632eb2c2d61461031f5780633dd7a71e146103485780634e1273f4146103785780635c4f1257146103b557610165565b8062fdd58e1461016a57806301ffc9a7146101a75780630e89341c146101e457806312d0a766146102215780631bcb98e61461025e5780631e0104391461029b575b600080fd5b34801561017657600080fd5b50610191600480360381019061018c9190612f47565b610618565b60405161019e9190612f96565b60405180910390f35b3480156101b357600080fd5b506101ce60048036038101906101c99190613009565b6106e0565b6040516101db9190613051565b60405180910390f35b3480156101f057600080fd5b5061020b6004803603810190610206919061306c565b6107c2565b6040516102189190613129565b60405180910390f35b34801561022d57600080fd5b506102486004803603810190610243919061314b565b6108a7565b6040516102559190613051565b60405180910390f35b34801561026a57600080fd5b506102856004803603810190610280919061314b565b6108bd565b6040516102929190612f96565b60405180910390f35b3480156102a757600080fd5b506102c260048036038101906102bd919061306c565b610965565b6040516102cf9190612f96565b60405180910390f35b3480156102e457600080fd5b506102ed610978565b6040516102fa91906132ad565b60405180910390f35b61031d600480360381019061031891906132cf565b610a15565b005b34801561032b57600080fd5b506103466004803603810190610341919061351f565b610b31565b005b610362600480360381019061035d919061368f565b610bd2565b60405161036f9190612f96565b60405180910390f35b34801561038457600080fd5b5061039f600480360381019061039a91906137ae565b610d3a565b6040516103ac91906138d5565b60405180910390f35b6103cf60048036038101906103ca91906138f7565b610e53565b005b3480156103dd57600080fd5b506103e6610fd8565b005b3480156103f457600080fd5b5061040f600480360381019061040a919061306c565b610fec565b005b34801561041d57600080fd5b50610426611041565b60405161043391906132ad565b60405180910390f35b34801561044857600080fd5b5061045161131b565b60405161045e9190613959565b60405180910390f35b34801561047357600080fd5b5061048e600480360381019061048991906139a0565b611345565b005b34801561049c57600080fd5b506104a561135b565b6040516104b29190613ad1565b60405180910390f35b3480156104c757600080fd5b506104e260048036038101906104dd9190613af3565b611522565b005b3480156104f057600080fd5b5061050b60048036038101906105069190613b46565b611601565b6040516105189190613051565b60405180910390f35b34801561052d57600080fd5b50610536611636565b6040516105439190612f96565b60405180910390f35b34801561055857600080fd5b50610573600480360381019061056e9190613b8f565b61163c565b6040516105809190613051565b60405180910390f35b34801561059557600080fd5b506105b060048036038101906105ab919061306c565b6116d0565b6040516105bd9190613c11565b60405180910390f35b3480156105d257600080fd5b506105ed60048036038101906105e89190613c2c565b611767565b005b3480156105fb57600080fd5b5061061660048036038101906106119190613cc3565b611808565b005b60008073ffffffffffffffffffffffffffffffffffffffff168373ffffffffffffffffffffffffffffffffffffffff1603610688576040517f08c379a000000000000000000000000000000000000000000000000000000000815260040161067f90613d62565b60405180910390fd5b60008083815260200190815260200160002060008473ffffffffffffffffffffffffffffffffffffffff1673ffffffffffffffffffffffffffffffffffffffff16815260200190815260200160002054905092915050565b60007fd9b67a26000000000000000000000000000000000000000000000000000000007bffffffffffffffffffffffffffffffffffffffffffffffffffffffff1916827bffffffffffffffffffffffffffffffffffffffffffffffffffffffff191614806107ab57507f0e89341c000000000000000000000000000000000000000000000000000000007bffffffffffffffffffffffffffffffffffffffffffffffffffffffff1916827bffffffffffffffffffffffffffffffffffffffffffffffffffffffff1916145b806107bb57506107ba8261188b565b5b9050919050565b606060006004600084815260200190815260200160002080546107e490613db1565b80601f016020809104026020016040519081016040528092919081815260200182805461081090613db1565b801561085d5780601f106108325761010080835404028352916020019161085d565b820191906000526020600020905b81548152906001019060200180831161084057829003601f168201915b50505050509050600081511161087b57610876836118f5565b61089f565b60038160405160200161088f929190613eb6565b6040516020818303038152906040525b915050919050565b6000806108b48385610618565b11905092915050565b6000600660009054906101000a900473ffffffffffffffffffffffffffffffffffffffff1673ffffffffffffffffffffffffffffffffffffffff1663c4a27f9a84846040518363ffffffff1660e01b815260040161091c929190613eda565b602060405180830381865afa158015610939573d6000803e3d6000fd5b505050506040513d601f19601f8201168201806040525081019061095d9190613f18565b905092915050565b60006109713383610618565b9050919050565b6060600660009054906101000a900473ffffffffffffffffffffffffffffffffffffffff1673ffffffffffffffffffffffffffffffffffffffff16635204a3ce6040518163ffffffff1660e01b8152600401600060405180830381865afa1580156109e7573d6000803e3d6000fd5b505050506040513d6000823e3d601f19601f82011682018060405250810190610a10919061409a565b905090565b6000600660009054906101000a900473ffffffffffffffffffffffffffffffffffffffff1673ffffffffffffffffffffffffffffffffffffffff166375f319fa85858533346040518663ffffffff1660e01b8152600401610a7a9594939291906140e3565b6020604051808303816000875af1158015610a99573d6000803e3d6000fd5b505050506040513d601f19601f82011682018060405250810190610abd9190613f18565b905060008114610b2b57610ae38333868560405180602001604052806000815250611989565b8273ffffffffffffffffffffffffffffffffffffffff166108fc829081150290604051600060405180830381858888f19350505050158015610b29573d6000803e3d6000fd5b505b50505050565b610b39611c24565b73ffffffffffffffffffffffffffffffffffffffff168573ffffffffffffffffffffffffffffffffffffffff161480610b7f5750610b7e85610b79611c24565b61163c565b5b610bbe576040517f08c379a0000000000000000000000000000000000000000000000000000000008152600401610bb5906141a8565b60405180910390fd5b610bcb8585858585611c2c565b5050505050565b6000610bdd83611601565b15610c1d576040517f08c379a0000000000000000000000000000000000000000000000000000000008152600401610c1490614214565b60405180910390fd5b600082118015610c2f57506008548211155b610c6e576040517f08c379a0000000000000000000000000000000000000000000000000000000008152600401610c65906142a6565b60405180910390fd5b600a543414610cb2576040517f08c379a0000000000000000000000000000000000000000000000000000000008152600401610ca990614338565b60405180910390fd5b610cbc600b611f4d565b6000610cc8600b611f63565b9050610ce533828560405180602001604052806000815250611f71565b610cef8185612121565b610cf98184612186565b6001600d85604051610d0b9190614358565b908152602001604051809103902060006101000a81548160ff0219169083151502179055508091505092915050565b60608151835114610d80576040517f08c379a0000000000000000000000000000000000000000000000000000000008152600401610d77906143e1565b60405180910390fd5b6000835167ffffffffffffffff811115610d9d57610d9c613327565b5b604051908082528060200260200182016040528015610dcb5781602001602082028036833780820191505090505b50905060005b8451811015610e4857610e18858281518110610df057610def614401565b5b6020026020010151858381518110610e0b57610e0a614401565b5b6020026020010151610618565b828281518110610e2b57610e2a614401565b5b60200260200101818152505080610e419061445f565b9050610dd1565b508091505092915050565b610e5d83336108a7565b610e9c576040517f08c379a0000000000000000000000000000000000000000000000000000000008152600401610e9390614519565b60405180910390fd5b610ea63384610618565b81610eb185336108bd565b610ebb9190614539565b1115610efc576040517f08c379a0000000000000000000000000000000000000000000000000000000008152600401610ef3906145df565b60405180910390fd5b600a543414610f40576040517f08c379a0000000000000000000000000000000000000000000000000000000008152600401610f3790614338565b60405180910390fd5b600660009054906101000a900473ffffffffffffffffffffffffffffffffffffffff1673ffffffffffffffffffffffffffffffffffffffff16634c5aecb5848484336040518563ffffffff1660e01b8152600401610fa194939291906145ff565b600060405180830381600087803b158015610fbb57600080fd5b505af1158015610fcf573d6000803e3d6000fd5b50505050505050565b610fe0612267565b610fea60006122e5565b565b610ff4612267565b60008111611037576040517f08c379a000000000000000000000000000000000000000000000000000000000815260040161102e90614690565b60405180910390fd5b80600a8190555050565b60606000600660009054906101000a900473ffffffffffffffffffffffffffffffffffffffff1673ffffffffffffffffffffffffffffffffffffffff1663f9ed2c32336040518263ffffffff1660e01b81526004016110a09190613959565b602060405180830381865afa1580156110bd573d6000803e3d6000fd5b505050506040513d601f19601f820116820180604052508101906110e19190613f18565b90506000600f60003373ffffffffffffffffffffffffffffffffffffffff1673ffffffffffffffffffffffffffffffffffffffff16815260200190815260200160002054905060008267ffffffffffffffff81111561114357611142613327565b5b60405190808252806020026020018201604052801561117c57816020015b611169612e2a565b8152602001906001900390816111615790505b5090506000805b83811015611310576000600e60003373ffffffffffffffffffffffffffffffffffffffff1673ffffffffffffffffffffffffffffffffffffffff16815260200190815260200160002060008381526020019081526020016000205490506000600660009054906101000a900473ffffffffffffffffffffffffffffffffffffffff1673ffffffffffffffffffffffffffffffffffffffff1663ed148dd083336040518363ffffffff1660e01b815260040161123f929190613eda565b608060405180830381865afa15801561125c573d6000803e3d6000fd5b505050506040513d601f19601f8201168201806040525081019061128091906146b0565b905060008160000151141580156112c85750600073ffffffffffffffffffffffffffffffffffffffff16816020015173ffffffffffffffffffffffffffffffffffffffff1614155b156112fb57808585815181106112e1576112e0614401565b5b602002602001018190525083806112f79061445f565b9450505b505080806113089061445f565b915050611183565b508194505050505090565b6000600560009054906101000a900473ffffffffffffffffffffffffffffffffffffffff16905090565b611357611350611c24565b83836123ab565b5050565b60606000600f60003373ffffffffffffffffffffffffffffffffffffffff1673ffffffffffffffffffffffffffffffffffffffff16815260200190815260200160002054905060008167ffffffffffffffff8111156113bd576113bc613327565b5b6040519080825280602002602001820160405280156113f657816020015b6113e3612e68565b8152602001906001900390816113db5790505b50905060005b82811015611519576000600e60003373ffffffffffffffffffffffffffffffffffffffff1673ffffffffffffffffffffffffffffffffffffffff16815260200190815260200160002060008381526020019081526020016000205490506000600c6000838152602001908152602001600020604051806060016040529081600082015481526020016001820160009054906101000a900473ffffffffffffffffffffffffffffffffffffffff1673ffffffffffffffffffffffffffffffffffffffff1673ffffffffffffffffffffffffffffffffffffffff1681526020016002820154815250509050808484815181106114f9576114f8614401565b5b6020026020010181905250505080806115119061445f565b9150506113fc565b50809250505090565b61152c83826108a7565b61156b576040517f08c379a000000000000000000000000000000000000000000000000000000000815260040161156290614519565b60405180910390fd5b600660009054906101000a900473ffffffffffffffffffffffffffffffffffffffff1673ffffffffffffffffffffffffffffffffffffffff1663415d64588484846040518463ffffffff1660e01b81526004016115ca939291906146dd565b600060405180830381600087803b1580156115e457600080fd5b505af11580156115f8573d6000803e3d6000fd5b50505050505050565b6000600d826040516116139190614358565b908152602001604051809103902060009054906101000a900460ff169050919050565b600a5481565b6000600160008473ffffffffffffffffffffffffffffffffffffffff1673ffffffffffffffffffffffffffffffffffffffff16815260200190815260200160002060008373ffffffffffffffffffffffffffffffffffffffff1673ffffffffffffffffffffffffffffffffffffffff16815260200190815260200160002060009054906101000a900460ff16905092915050565b6116d8612e68565b600c6000838152602001908152602001600020604051806060016040529081600082015481526020016001820160009054906101000a900473ffffffffffffffffffffffffffffffffffffffff1673ffffffffffffffffffffffffffffffffffffffff1673ffffffffffffffffffffffffffffffffffffffff1681526020016002820154815250509050919050565b61176f611c24565b73ffffffffffffffffffffffffffffffffffffffff168573ffffffffffffffffffffffffffffffffffffffff1614806117b557506117b4856117af611c24565b61163c565b5b6117f4576040517f08c379a00000000000000000000000000000000000000000000000000000000081526004016117eb906141a8565b60405180910390fd5b6118018585858585611989565b5050505050565b611810612267565b600073ffffffffffffffffffffffffffffffffffffffff168173ffffffffffffffffffffffffffffffffffffffff160361187f576040517f08c379a000000000000000000000000000000000000000000000000000000000815260040161187690614786565b60405180910390fd5b611888816122e5565b50565b60007f01ffc9a7000000000000000000000000000000000000000000000000000000007bffffffffffffffffffffffffffffffffffffffffffffffffffffffff1916827bffffffffffffffffffffffffffffffffffffffffffffffffffffffff1916149050919050565b60606002805461190490613db1565b80601f016020809104026020016040519081016040528092919081815260200182805461193090613db1565b801561197d5780601f106119525761010080835404028352916020019161197d565b820191906000526020600020905b81548152906001019060200180831161196057829003601f168201915b50505050509050919050565b600073ffffffffffffffffffffffffffffffffffffffff168473ffffffffffffffffffffffffffffffffffffffff16036119f8576040517f08c379a00000000000000000000000000000000000000000000000000000000081526004016119ef90614818565b60405180910390fd5b6000611a02611c24565b90506000611a0f85612517565b90506000611a1c85612517565b9050611a2c838989858589612591565b600080600088815260200190815260200160002060008a73ffffffffffffffffffffffffffffffffffffffff1673ffffffffffffffffffffffffffffffffffffffff16815260200190815260200160002054905085811015611ac3576040517f08c379a0000000000000000000000000000000000000000000000000000000008152600401611aba906148aa565b60405180910390fd5b85810360008089815260200190815260200160002060008b73ffffffffffffffffffffffffffffffffffffffff1673ffffffffffffffffffffffffffffffffffffffff168152602001908152602001600020819055508560008089815260200190815260200160002060008a73ffffffffffffffffffffffffffffffffffffffff1673ffffffffffffffffffffffffffffffffffffffff1681526020019081526020016000206000828254611b789190614539565b925050819055508773ffffffffffffffffffffffffffffffffffffffff168973ffffffffffffffffffffffffffffffffffffffff168573ffffffffffffffffffffffffffffffffffffffff167fc3d58168c5ae7397731d063d5bbf3d657854427343f4c083240f7aacaa2d0f628a8a604051611bf59291906148ca565b60405180910390a4611c0b848a8a86868a612730565b611c19848a8a8a8a8a612738565b505050505050505050565b600033905090565b8151835114611c70576040517f08c379a0000000000000000000000000000000000000000000000000000000008152600401611c6790614965565b60405180910390fd5b600073ffffffffffffffffffffffffffffffffffffffff168473ffffffffffffffffffffffffffffffffffffffff1603611cdf576040517f08c379a0000000000000000000000000000000000000000000000000000000008152600401611cd690614818565b60405180910390fd5b6000611ce9611c24565b9050611cf9818787878787612591565b60005b8451811015611eaa576000858281518110611d1a57611d19614401565b5b602002602001015190506000858381518110611d3957611d38614401565b5b60200260200101519050600080600084815260200190815260200160002060008b73ffffffffffffffffffffffffffffffffffffffff1673ffffffffffffffffffffffffffffffffffffffff16815260200190815260200160002054905081811015611dda576040517f08c379a0000000000000000000000000000000000000000000000000000000008152600401611dd1906148aa565b60405180910390fd5b81810360008085815260200190815260200160002060008c73ffffffffffffffffffffffffffffffffffffffff1673ffffffffffffffffffffffffffffffffffffffff168152602001908152602001600020819055508160008085815260200190815260200160002060008b73ffffffffffffffffffffffffffffffffffffffff1673ffffffffffffffffffffffffffffffffffffffff1681526020019081526020016000206000828254611e8f9190614539565b9250508190555050505080611ea39061445f565b9050611cfc565b508473ffffffffffffffffffffffffffffffffffffffff168673ffffffffffffffffffffffffffffffffffffffff168273ffffffffffffffffffffffffffffffffffffffff167f4a39dc06d4c0dbc64b70af90fd698a233a518aa5d07e595d983b8c0526c8f7fb8787604051611f21929190614985565b60405180910390a4611f37818787878787612730565b611f4581878787878761290f565b505050505050565b6001816000016000828254019250508190555050565b600081600001549050919050565b600073ffffffffffffffffffffffffffffffffffffffff168473ffffffffffffffffffffffffffffffffffffffff1603611fe0576040517f08c379a0000000000000000000000000000000000000000000000000000000008152600401611fd790614a2e565b60405180910390fd5b6000611fea611c24565b90506000611ff785612517565b9050600061200485612517565b905061201583600089858589612591565b8460008088815260200190815260200160002060008973ffffffffffffffffffffffffffffffffffffffff1673ffffffffffffffffffffffffffffffffffffffff16815260200190815260200160002060008282546120749190614539565b925050819055508673ffffffffffffffffffffffffffffffffffffffff16600073ffffffffffffffffffffffffffffffffffffffff168473ffffffffffffffffffffffffffffffffffffffff167fc3d58168c5ae7397731d063d5bbf3d657854427343f4c083240f7aacaa2d0f6289896040516120f29291906148ca565b60405180910390a461210983600089858589612730565b61211883600089898989612738565b50505050505050565b806004600084815260200190815260200160002090816121419190614be5565b50817f6bb7ff708619ba0610cba295a58592e0451dee2622938c8755667688daf3529b61216d846107c2565b60405161217a9190613129565b60405180910390a25050565b60405180606001604052808381526020013373ffffffffffffffffffffffffffffffffffffffff16815260200182815250600c60008481526020019081526020016000206000820151816000015560208201518160010160006101000a81548173ffffffffffffffffffffffffffffffffffffffff021916908373ffffffffffffffffffffffffffffffffffffffff160217905550604082015181600201559050507f1b0894b5dbaa4e03eefef0639cb8bdd09459f893cb73161de2aad97a30c66f7882338360405161225b93929190614cb7565b60405180910390a15050565b61226f611c24565b73ffffffffffffffffffffffffffffffffffffffff1661228d61131b565b73ffffffffffffffffffffffffffffffffffffffff16146122e3576040517f08c379a00000000000000000000000000000000000000000000000000000000081526004016122da90614d3a565b60405180910390fd5b565b6000600560009054906101000a900473ffffffffffffffffffffffffffffffffffffffff16905081600560006101000a81548173ffffffffffffffffffffffffffffffffffffffff021916908373ffffffffffffffffffffffffffffffffffffffff1602179055508173ffffffffffffffffffffffffffffffffffffffff168173ffffffffffffffffffffffffffffffffffffffff167f8be0079c531659141344cd1fd0a4f28419497f9722a3daafe3b4186f6b6457e060405160405180910390a35050565b8173ffffffffffffffffffffffffffffffffffffffff168373ffffffffffffffffffffffffffffffffffffffff1603612419576040517f08c379a000000000000000000000000000000000000000000000000000000000815260040161241090614dcc565b60405180910390fd5b80600160008573ffffffffffffffffffffffffffffffffffffffff1673ffffffffffffffffffffffffffffffffffffffff16815260200190815260200160002060008473ffffffffffffffffffffffffffffffffffffffff1673ffffffffffffffffffffffffffffffffffffffff16815260200190815260200160002060006101000a81548160ff0219169083151502179055508173ffffffffffffffffffffffffffffffffffffffff168373ffffffffffffffffffffffffffffffffffffffff167f17307eab39ab6107e8899845ad3d59bd9653f200f220920489ca2b5937696c318360405161250a9190613051565b60405180910390a3505050565b60606000600167ffffffffffffffff81111561253657612535613327565b5b6040519080825280602002602001820160405280156125645781602001602082028036833780820191505090505b509050828160008151811061257c5761257b614401565b5b60200260200101818152505080915050919050565b61259f868686868686612ae6565b600073ffffffffffffffffffffffffffffffffffffffff168573ffffffffffffffffffffffffffffffffffffffff161480156126085750600073ffffffffffffffffffffffffffffffffffffffff168473ffffffffffffffffffffffffffffffffffffffff1614155b156126395760008360008151811061262357612622614401565b5b602002602001015190506126378582612aee565b505b600073ffffffffffffffffffffffffffffffffffffffff168573ffffffffffffffffffffffffffffffffffffffff16141580156126a35750600073ffffffffffffffffffffffffffffffffffffffff168473ffffffffffffffffffffffffffffffffffffffff1614155b80156126db57508473ffffffffffffffffffffffffffffffffffffffff168473ffffffffffffffffffffffffffffffffffffffff1614155b15612728576000836000815181106126f6576126f5614401565b5b6020026020010151905061270a8582612aee565b60006127168783610618565b03612726576127258682612be1565b5b505b505050505050565b505050505050565b6127578473ffffffffffffffffffffffffffffffffffffffff16612e07565b15612907578373ffffffffffffffffffffffffffffffffffffffff1663f23a6e6187878686866040518663ffffffff1660e01b815260040161279d959493929190614e41565b6020604051808303816000875af19250505080156127d957506040513d601f19601f820116820180604052508101906127d69190614eb0565b60015b61287e576127e5614eea565b806308c379a00361284157506127f9614f0c565b806128045750612843565b806040517f08c379a00000000000000000000000000000000000000000000000000000000081526004016128389190613129565b60405180910390fd5b505b6040517f08c379a00000000000000000000000000000000000000000000000000000000081526004016128759061500e565b60405180910390fd5b63f23a6e6160e01b7bffffffffffffffffffffffffffffffffffffffffffffffffffffffff1916817bffffffffffffffffffffffffffffffffffffffffffffffffffffffff191614612905576040517f08c379a00000000000000000000000000000000000000000000000000000000081526004016128fc906150a0565b60405180910390fd5b505b505050505050565b61292e8473ffffffffffffffffffffffffffffffffffffffff16612e07565b15612ade578373ffffffffffffffffffffffffffffffffffffffff1663bc197c8187878686866040518663ffffffff1660e01b81526004016129749594939291906150c0565b6020604051808303816000875af19250505080156129b057506040513d601f19601f820116820180604052508101906129ad9190614eb0565b60015b612a55576129bc614eea565b806308c379a003612a1857506129d0614f0c565b806129db5750612a1a565b806040517f08c379a0000000000000000000000000000000000000000000000000000000008152600401612a0f9190613129565b60405180910390fd5b505b6040517f08c379a0000000000000000000000000000000000000000000000000000000008152600401612a4c9061500e565b60405180910390fd5b63bc197c8160e01b7bffffffffffffffffffffffffffffffffffffffffffffffffffffffff1916817bffffffffffffffffffffffffffffffffffffffffffffffffffffffff191614612adc576040517f08c379a0000000000000000000000000000000000000000000000000000000008152600401612ad3906150a0565b60405180910390fd5b505b505050505050565b505050505050565b6000600f60008473ffffffffffffffffffffffffffffffffffffffff1673ffffffffffffffffffffffffffffffffffffffff16815260200190815260200160002054905081600e60008573ffffffffffffffffffffffffffffffffffffffff1673ffffffffffffffffffffffffffffffffffffffff168152602001908152602001600020600083815260200190815260200160002081905550600f60008473ffffffffffffffffffffffffffffffffffffffff1673ffffffffffffffffffffffffffffffffffffffff1681526020019081526020016000206000815480929190612bd79061445f565b9190505550505050565b60006001600f60008573ffffffffffffffffffffffffffffffffffffffff1673ffffffffffffffffffffffffffffffffffffffff16815260200190815260200160002054612c2f9190615128565b905060005b600182612c419190614539565b811015612d5857600e60008573ffffffffffffffffffffffffffffffffffffffff1673ffffffffffffffffffffffffffffffffffffffff1681526020019081526020016000206000828152602001908152602001600020548303612d4557600e60008573ffffffffffffffffffffffffffffffffffffffff1673ffffffffffffffffffffffffffffffffffffffff168152602001908152602001600020600083815260200190815260200160002054600e60008673ffffffffffffffffffffffffffffffffffffffff1673ffffffffffffffffffffffffffffffffffffffff1681526020019081526020016000206000838152602001908152602001600020819055505b8080612d509061445f565b915050612c34565b50600f60008473ffffffffffffffffffffffffffffffffffffffff1673ffffffffffffffffffffffffffffffffffffffff1681526020019081526020016000206000815480929190612da99061515c565b9190505550600e60008473ffffffffffffffffffffffffffffffffffffffff1673ffffffffffffffffffffffffffffffffffffffff168152602001908152602001600020600082815260200190815260200160002060009055505050565b6000808273ffffffffffffffffffffffffffffffffffffffff163b119050919050565b604051806080016040528060008152602001600073ffffffffffffffffffffffffffffffffffffffff16815260200160008152602001600081525090565b604051806060016040528060008152602001600073ffffffffffffffffffffffffffffffffffffffff168152602001600081525090565b6000604051905090565b600080fd5b600080fd5b600073ffffffffffffffffffffffffffffffffffffffff82169050919050565b6000612ede82612eb3565b9050919050565b612eee81612ed3565b8114612ef957600080fd5b50565b600081359050612f0b81612ee5565b92915050565b6000819050919050565b612f2481612f11565b8114612f2f57600080fd5b50565b600081359050612f4181612f1b565b92915050565b60008060408385031215612f5e57612f5d612ea9565b5b6000612f6c85828601612efc565b9250506020612f7d85828601612f32565b9150509250929050565b612f9081612f11565b82525050565b6000602082019050612fab6000830184612f87565b92915050565b60007fffffffff0000000000000000000000000000000000000000000000000000000082169050919050565b612fe681612fb1565b8114612ff157600080fd5b50565b60008135905061300381612fdd565b92915050565b60006020828403121561301f5761301e612ea9565b5b600061302d84828501612ff4565b91505092915050565b60008115159050919050565b61304b81613036565b82525050565b60006020820190506130666000830184613042565b92915050565b60006020828403121561308257613081612ea9565b5b600061309084828501612f32565b91505092915050565b600081519050919050565b600082825260208201905092915050565b60005b838110156130d35780820151818401526020810190506130b8565b60008484015250505050565b6000601f19601f8301169050919050565b60006130fb82613099565b61310581856130a4565b93506131158185602086016130b5565b61311e816130df565b840191505092915050565b6000602082019050818103600083015261314381846130f0565b905092915050565b6000806040838503121561316257613161612ea9565b5b600061317085828601612f32565b925050602061318185828601612efc565b9150509250929050565b600081519050919050565b600082825260208201905092915050565b6000819050602082019050919050565b6131c081612f11565b82525050565b6131cf81612ed3565b82525050565b6080820160008201516131eb60008501826131b7565b5060208201516131fe60208501826131c6565b50604082015161321160408501826131b7565b50606082015161322460608501826131b7565b50505050565b600061323683836131d5565b60808301905092915050565b6000602082019050919050565b600061325a8261318b565b6132648185613196565b935061326f836131a7565b8060005b838110156132a0578151613287888261322a565b975061329283613242565b925050600181019050613273565b5085935050505092915050565b600060208201905081810360008301526132c7818461324f565b905092915050565b6000806000606084860312156132e8576132e7612ea9565b5b60006132f686828701612f32565b935050602061330786828701612efc565b925050604061331886828701612f32565b9150509250925092565b600080fd5b7f4e487b7100000000000000000000000000000000000000000000000000000000600052604160045260246000fd5b61335f826130df565b810181811067ffffffffffffffff8211171561337e5761337d613327565b5b80604052505050565b6000613391612e9f565b905061339d8282613356565b919050565b600067ffffffffffffffff8211156133bd576133bc613327565b5b602082029050602081019050919050565b600080fd5b60006133e66133e1846133a2565b613387565b90508083825260208201905060208402830185811115613409576134086133ce565b5b835b81811015613432578061341e8882612f32565b84526020840193505060208101905061340b565b5050509392505050565b600082601f83011261345157613450613322565b5b81356134618482602086016133d3565b91505092915050565b600080fd5b600067ffffffffffffffff82111561348a57613489613327565b5b613493826130df565b9050602081019050919050565b82818337600083830152505050565b60006134c26134bd8461346f565b613387565b9050828152602081018484840111156134de576134dd61346a565b5b6134e98482856134a0565b509392505050565b600082601f83011261350657613505613322565b5b81356135168482602086016134af565b91505092915050565b600080600080600060a0868803121561353b5761353a612ea9565b5b600061354988828901612efc565b955050602061355a88828901612efc565b945050604086013567ffffffffffffffff81111561357b5761357a612eae565b5b6135878882890161343c565b935050606086013567ffffffffffffffff8111156135a8576135a7612eae565b5b6135b48882890161343c565b925050608086013567ffffffffffffffff8111156135d5576135d4612eae565b5b6135e1888289016134f1565b9150509295509295909350565b600067ffffffffffffffff82111561360957613608613327565b5b613612826130df565b9050602081019050919050565b600061363261362d846135ee565b613387565b90508281526020810184848401111561364e5761364d61346a565b5b6136598482856134a0565b509392505050565b600082601f83011261367657613675613322565b5b813561368684826020860161361f565b91505092915050565b600080604083850312156136a6576136a5612ea9565b5b600083013567ffffffffffffffff8111156136c4576136c3612eae565b5b6136d085828601613661565b92505060206136e185828601612f32565b9150509250929050565b600067ffffffffffffffff82111561370657613705613327565b5b602082029050602081019050919050565b600061372a613725846136eb565b613387565b9050808382526020820190506020840283018581111561374d5761374c6133ce565b5b835b8181101561377657806137628882612efc565b84526020840193505060208101905061374f565b5050509392505050565b600082601f83011261379557613794613322565b5b81356137a5848260208601613717565b91505092915050565b600080604083850312156137c5576137c4612ea9565b5b600083013567ffffffffffffffff8111156137e3576137e2612eae565b5b6137ef85828601613780565b925050602083013567ffffffffffffffff8111156138105761380f612eae565b5b61381c8582860161343c565b9150509250929050565b600081519050919050565b600082825260208201905092915050565b6000819050602082019050919050565b600061385e83836131b7565b60208301905092915050565b6000602082019050919050565b600061388282613826565b61388c8185613831565b935061389783613842565b8060005b838110156138c85781516138af8882613852565b97506138ba8361386a565b92505060018101905061389b565b5085935050505092915050565b600060208201905081810360008301526138ef8184613877565b905092915050565b6000806000606084860312156139105761390f612ea9565b5b600061391e86828701612f32565b935050602061392f86828701612f32565b925050604061394086828701612f32565b9150509250925092565b61395381612ed3565b82525050565b600060208201905061396e600083018461394a565b92915050565b61397d81613036565b811461398857600080fd5b50565b60008135905061399a81613974565b92915050565b600080604083850312156139b7576139b6612ea9565b5b60006139c585828601612efc565b92505060206139d68582860161398b565b9150509250929050565b600081519050919050565b600082825260208201905092915050565b6000819050602082019050919050565b606082016000820151613a2260008501826131b7565b506020820151613a3560208501826131c6565b506040820151613a4860408501826131b7565b50505050565b6000613a5a8383613a0c565b60608301905092915050565b6000602082019050919050565b6000613a7e826139e0565b613a8881856139eb565b9350613a93836139fc565b8060005b83811015613ac4578151613aab8882613a4e565b9750613ab683613a66565b925050600181019050613a97565b5085935050505092915050565b60006020820190508181036000830152613aeb8184613a73565b905092915050565b600080600060608486031215613b0c57613b0b612ea9565b5b6000613b1a86828701612f32565b9350506020613b2b86828701612f32565b9250506040613b3c86828701612efc565b9150509250925092565b600060208284031215613b5c57613b5b612ea9565b5b600082013567ffffffffffffffff811115613b7a57613b79612eae565b5b613b8684828501613661565b91505092915050565b60008060408385031215613ba657613ba5612ea9565b5b6000613bb485828601612efc565b9250506020613bc585828601612efc565b9150509250929050565b606082016000820151613be560008501826131b7565b506020820151613bf860208501826131c6565b506040820151613c0b60408501826131b7565b50505050565b6000606082019050613c266000830184613bcf565b92915050565b600080600080600060a08688031215613c4857613c47612ea9565b5b6000613c5688828901612efc565b9550506020613c6788828901612efc565b9450506040613c7888828901612f32565b9350506060613c8988828901612f32565b925050608086013567ffffffffffffffff811115613caa57613ca9612eae565b5b613cb6888289016134f1565b9150509295509295909350565b600060208284031215613cd957613cd8612ea9565b5b6000613ce784828501612efc565b91505092915050565b7f455243313135353a2061646472657373207a65726f206973206e6f742061207660008201527f616c6964206f776e657200000000000000000000000000000000000000000000602082015250565b6000613d4c602a836130a4565b9150613d5782613cf0565b604082019050919050565b60006020820190508181036000830152613d7b81613d3f565b9050919050565b7f4e487b7100000000000000000000000000000000000000000000000000000000600052602260045260246000fd5b60006002820490506001821680613dc957607f821691505b602082108103613ddc57613ddb613d82565b5b50919050565b600081905092915050565b60008190508160005260206000209050919050565b60008154613e0f81613db1565b613e198186613de2565b94506001821660008114613e345760018114613e4957613e7c565b60ff1983168652811515820286019350613e7c565b613e5285613ded565b60005b83811015613e7457815481890152600182019150602081019050613e55565b838801955050505b50505092915050565b6000613e9082613099565b613e9a8185613de2565b9350613eaa8185602086016130b5565b80840191505092915050565b6000613ec28285613e02565b9150613ece8284613e85565b91508190509392505050565b6000604082019050613eef6000830185612f87565b613efc602083018461394a565b9392505050565b600081519050613f1281612f1b565b92915050565b600060208284031215613f2e57613f2d612ea9565b5b6000613f3c84828501613f03565b91505092915050565b600067ffffffffffffffff821115613f6057613f5f613327565b5b602082029050602081019050919050565b600080fd5b600081519050613f8581612ee5565b92915050565b600060808284031215613fa157613fa0613f71565b5b613fab6080613387565b90506000613fbb84828501613f03565b6000830152506020613fcf84828501613f76565b6020830152506040613fe384828501613f03565b6040830152506060613ff784828501613f03565b60608301525092915050565b600061401661401184613f45565b613387565b90508083825260208201905060808402830185811115614039576140386133ce565b5b835b81811015614062578061404e8882613f8b565b84526020840193505060808101905061403b565b5050509392505050565b600082601f83011261408157614080613322565b5b8151614091848260208601614003565b91505092915050565b6000602082840312156140b0576140af612ea9565b5b600082015167ffffffffffffffff8111156140ce576140cd612eae565b5b6140da8482850161406c565b91505092915050565b600060a0820190506140f86000830188612f87565b614105602083018761394a565b6141126040830186612f87565b61411f606083018561394a565b61412c6080830184612f87565b9695505050505050565b7f455243313135353a2063616c6c6572206973206e6f7420746f6b656e206f776e60008201527f6572206f7220617070726f766564000000000000000000000000000000000000602082015250565b6000614192602e836130a4565b915061419d82614136565b604082019050919050565b600060208201905081810360008301526141c181614185565b9050919050565b7f546f6b656e2055524920616c7265616479206578697374730000000000000000600082015250565b60006141fe6018836130a4565b9150614209826141c8565b602082019050919050565b6000602082019050818103600083015261422d816141f1565b9050919050565b7f546865206e756d626572206f6620626f6f6b7320796f752077616e7420746f2060008201527f7075626c697368206973206e6f7420617070726f707269617465000000000000602082015250565b6000614290603a836130a4565b915061429b82614234565b604082019050919050565b600060208201905081810360008301526142bf81614283565b9050919050565b7f5072696365206d75737420626520657175616c20746f206c697374696e67207060008201527f7269636500000000000000000000000000000000000000000000000000000000602082015250565b60006143226024836130a4565b915061432d826142c6565b604082019050919050565b6000602082019050818103600083015261435181614315565b9050919050565b60006143648284613e85565b915081905092915050565b7f455243313135353a206163636f756e747320616e6420696473206c656e67746860008201527f206d69736d617463680000000000000000000000000000000000000000000000602082015250565b60006143cb6029836130a4565b91506143d68261436f565b604082019050919050565b600060208201905081810360008301526143fa816143be565b9050919050565b7f4e487b7100000000000000000000000000000000000000000000000000000000600052603260045260246000fd5b7f4e487b7100000000000000000000000000000000000000000000000000000000600052601160045260246000fd5b600061446a82612f11565b91507fffffffffffffffffffffffffffffffffffffffffffffffffffffffffffffffff820361449c5761449b614430565b5b600182019050919050565b7f596f7520617265206e6f7420746865206f776e6572206f66207468697320746f60008201527f6b656e0000000000000000000000000000000000000000000000000000000000602082015250565b60006145036023836130a4565b915061450e826144a7565b604082019050919050565b60006020820190508181036000830152614532816144f6565b9050919050565b600061454482612f11565b915061454f83612f11565b925082820190508082111561456757614566614430565b5b92915050565b7f596f7520646f6e2774206861766520656e6f75676820626f6f6b7320746f207360008201527f656c6c0000000000000000000000000000000000000000000000000000000000602082015250565b60006145c96023836130a4565b91506145d48261456d565b604082019050919050565b600060208201905081810360008301526145f8816145bc565b9050919050565b60006080820190506146146000830187612f87565b6146216020830186612f87565b61462e6040830185612f87565b61463b606083018461394a565b95945050505050565b7f5072696365206d757374206265206174206c6561737420312077656900000000600082015250565b600061467a601c836130a4565b915061468582614644565b602082019050919050565b600060208201905081810360008301526146a98161466d565b9050919050565b6000608082840312156146c6576146c5612ea9565b5b60006146d484828501613f8b565b91505092915050565b60006060820190506146f26000830186612f87565b6146ff6020830185612f87565b61470c604083018461394a565b949350505050565b7f4f776e61626c653a206e6577206f776e657220697320746865207a65726f206160008201527f6464726573730000000000000000000000000000000000000000000000000000602082015250565b60006147706026836130a4565b915061477b82614714565b604082019050919050565b6000602082019050818103600083015261479f81614763565b9050919050565b7f455243313135353a207472616e7366657220746f20746865207a65726f20616460008201527f6472657373000000000000000000000000000000000000000000000000000000602082015250565b60006148026025836130a4565b915061480d826147a6565b604082019050919050565b60006020820190508181036000830152614831816147f5565b9050919050565b7f455243313135353a20696e73756666696369656e742062616c616e636520666f60008201527f72207472616e7366657200000000000000000000000000000000000000000000602082015250565b6000614894602a836130a4565b915061489f82614838565b604082019050919050565b600060208201905081810360008301526148c381614887565b9050919050565b60006040820190506148df6000830185612f87565b6148ec6020830184612f87565b9392505050565b7f455243313135353a2069647320616e6420616d6f756e7473206c656e6774682060008201527f6d69736d61746368000000000000000000000000000000000000000000000000602082015250565b600061494f6028836130a4565b915061495a826148f3565b604082019050919050565b6000602082019050818103600083015261497e81614942565b9050919050565b6000604082019050818103600083015261499f8185613877565b905081810360208301526149b38184613877565b90509392505050565b7f455243313135353a206d696e7420746f20746865207a65726f2061646472657360008201527f7300000000000000000000000000000000000000000000000000000000000000602082015250565b6000614a186021836130a4565b9150614a23826149bc565b604082019050919050565b60006020820190508181036000830152614a4781614a0b565b9050919050565b60006020601f8301049050919050565b600082821b905092915050565b600060088302614a9b7fffffffffffffffffffffffffffffffffffffffffffffffffffffffffffffffff82614a5e565b614aa58683614a5e565b95508019841693508086168417925050509392505050565b6000819050919050565b6000614ae2614add614ad884612f11565b614abd565b612f11565b9050919050565b6000819050919050565b614afc83614ac7565b614b10614b0882614ae9565b848454614a6b565b825550505050565b600090565b614b25614b18565b614b30818484614af3565b505050565b5b81811015614b5457614b49600082614b1d565b600181019050614b36565b5050565b601f821115614b9957614b6a81613ded565b614b7384614a4e565b81016020851015614b82578190505b614b96614b8e85614a4e565b830182614b35565b50505b505050565b600082821c905092915050565b6000614bbc60001984600802614b9e565b1980831691505092915050565b6000614bd58383614bab565b9150826002028217905092915050565b614bee82613099565b67ffffffffffffffff811115614c0757614c06613327565b5b614c118254613db1565b614c1c828285614b58565b600060209050601f831160018114614c4f5760008415614c3d578287015190505b614c478582614bc9565b865550614caf565b601f198416614c5d86613ded565b60005b82811015614c8557848901518255600182019150602085019450602081019050614c60565b86831015614ca25784890151614c9e601f891682614bab565b8355505b6001600288020188555050505b505050505050565b6000606082019050614ccc6000830186612f87565b614cd9602083018561394a565b614ce66040830184612f87565b949350505050565b7f4f776e61626c653a2063616c6c6572206973206e6f7420746865206f776e6572600082015250565b6000614d246020836130a4565b9150614d2f82614cee565b602082019050919050565b60006020820190508181036000830152614d5381614d17565b9050919050565b7f455243313135353a2073657474696e6720617070726f76616c2073746174757360008201527f20666f722073656c660000000000000000000000000000000000000000000000602082015250565b6000614db66029836130a4565b9150614dc182614d5a565b604082019050919050565b60006020820190508181036000830152614de581614da9565b9050919050565b600081519050919050565b600082825260208201905092915050565b6000614e1382614dec565b614e1d8185614df7565b9350614e2d8185602086016130b5565b614e36816130df565b840191505092915050565b600060a082019050614e56600083018861394a565b614e63602083018761394a565b614e706040830186612f87565b614e7d6060830185612f87565b8181036080830152614e8f8184614e08565b90509695505050505050565b600081519050614eaa81612fdd565b92915050565b600060208284031215614ec657614ec5612ea9565b5b6000614ed484828501614e9b565b91505092915050565b60008160e01c9050919050565b600060033d1115614f095760046000803e614f06600051614edd565b90505b90565b600060443d10614f9957614f1e612e9f565b60043d036004823e80513d602482011167ffffffffffffffff82111715614f46575050614f99565b808201805167ffffffffffffffff811115614f645750505050614f99565b80602083010160043d038501811115614f81575050505050614f99565b614f9082602001850186613356565b82955050505050505b90565b7f455243313135353a207472616e7366657220746f206e6f6e2d4552433131353560008201527f526563656976657220696d706c656d656e746572000000000000000000000000602082015250565b6000614ff86034836130a4565b915061500382614f9c565b604082019050919050565b6000602082019050818103600083015261502781614feb565b9050919050565b7f455243313135353a204552433131353552656365697665722072656a6563746560008201527f6420746f6b656e73000000000000000000000000000000000000000000000000602082015250565b600061508a6028836130a4565b91506150958261502e565b604082019050919050565b600060208201905081810360008301526150b98161507d565b9050919050565b600060a0820190506150d5600083018861394a565b6150e2602083018761394a565b81810360408301526150f48186613877565b905081810360608301526151088185613877565b9050818103608083015261511c8184614e08565b90509695505050505050565b600061513382612f11565b915061513e83612f11565b925082820390508181111561515657615155614430565b5b92915050565b600061516782612f11565b91506000820361517a57615179614430565b5b60018203905091905056fea26469706673582212201f360133587408131b9a853c2701d93acf637654b9738c26c1bf462aed8c956164736f6c6343000811003368747470733a2f2f6578616d706c652e636f6d2f6170692f7b69647d2e6a736f6e",
  "immutableReferences": {},
  "source": "// SPDX-License-Identifier: MIT\r\n\r\npragma solidity >=0.4.22 <0.9.0;\r\nimport \"@openzeppelin/contracts/token/ERC1155/extensions/ERC1155URIStorage.sol\";\r\nimport \"@openzeppelin/contracts/utils/Counters.sol\";\r\nimport \"@openzeppelin/contracts/access/Ownable.sol\";\r\n\r\nimport \"./ListedBookStorage.sol\";\r\nimport \"./RentedBookStorage.sol\";\r\n\r\ncontract BookStore is ERC1155URIStorage, Ownable {\r\n  using Counters for Counters.Counter;\r\n\r\n  struct NFTBook {\r\n    uint256 tokenId;\r\n    address author;\r\n    uint256 balance;\r\n  }\r\n\r\n  event NFTBookCreated (\r\n    uint256 tokenId,\r\n    address author,\r\n    uint256 balance\r\n  );\r\n\r\n  ListedBookStorage private _listedBookStorage;\r\n  RentedBookStorage private _rentedBookStorage;\r\n\r\n  uint MAX_BALANCE = 500;\r\n  uint MIN_TIME = 604800; // Rental period is at least one week\r\n  uint public listingPrice = 0.025 ether;\r\n  Counters.Counter private _tokenIds;\r\n\r\n  mapping (uint => NFTBook) _idToNFTBook;\r\n  mapping (string => bool) private _usedTokenURIs;\r\n\r\n  mapping(address => mapping(uint => uint)) private _ownedTokens;\r\n  mapping(address => uint) private _totalOwnedToken;\r\n\r\n\r\n  constructor(ListedBookStorage  listedBookStorage,\r\n               RentedBookStorage rentedBookStorage)\r\n    ERC1155(\"https://example.com/api/{id}.json\") {\r\n\r\n    _listedBookStorage = listedBookStorage;\r\n    _rentedBookStorage = rentedBookStorage;\r\n    \r\n  }\r\n\r\n  function setListingPrice(uint newPrice) external onlyOwner {\r\n    require(newPrice > 0, \"Price must be at least 1 wei\");\r\n    listingPrice = newPrice;\r\n  }\r\n\r\n  function _beforeTokenTransfer(\r\n        address operator,\r\n        address from,\r\n        address to,\r\n        uint256[] memory ids,\r\n        uint256[] memory amounts,\r\n        bytes memory data\r\n  ) internal virtual override {\r\n\r\n    super._beforeTokenTransfer(operator, from, to, ids, amounts, data);\r\n\r\n    // Mint book\r\n    if (from == address(0) && to != address(0)) {\r\n      uint tokenId = ids[0];\r\n      _addTokenToOwnerEnumeration(to, tokenId);\r\n    }\r\n\r\n    // Buy books\r\n    if (from != address(0) && to != address(0) && to != from) {\r\n      uint tokenId = ids[0];\r\n      _addTokenToOwnerEnumeration(to, tokenId);\r\n      if (ERC1155.balanceOf(from, tokenId) == 0) {\r\n        _removeTokenFromOwnerEnumeration(from, tokenId);\r\n      }\r\n    }\r\n\r\n  }\r\n\r\n  function _addTokenToOwnerEnumeration(address owner, uint tokenId) private {\r\n    uint length = _totalOwnedToken[owner];\r\n    _ownedTokens[owner][length] = tokenId;\r\n    _totalOwnedToken[owner]++;\r\n  }\r\n\r\n  function _removeTokenFromOwnerEnumeration(address owner, uint tokenId) private {\r\n    uint lastTokenIndex = _totalOwnedToken[owner] - 1;\r\n\r\n    for (uint i = 0; i < lastTokenIndex + 1; i++) {\r\n      if (tokenId == _ownedTokens[owner][i]) {\r\n        _ownedTokens[owner][i] = _ownedTokens[owner][lastTokenIndex];\r\n      }\r\n    }\r\n\r\n    _totalOwnedToken[owner]--;\r\n    delete _ownedTokens[owner][lastTokenIndex];\r\n  }\r\n\r\n  function getNftBook(uint tokenId) public view returns (NFTBook memory) {\r\n    return _idToNFTBook[tokenId];\r\n  }\r\n\r\n  function isTokenURIExist(string memory tokenURI) public view returns (bool) {\r\n    return _usedTokenURIs[tokenURI];\r\n  }\r\n\r\n  function mintBook(string memory tokenURI, uint256 balance)\r\n    public payable returns (uint) {\r\n\r\n    require(!isTokenURIExist(tokenURI),\r\n           \"Token URI already exists\");\r\n    require(balance > 0 && balance <= MAX_BALANCE,\r\n          \"The number of books you want to publish is not appropriate\");\r\n    require(msg.value == listingPrice,\r\n           \"Price must be equal to listing price\");\r\n\r\n    _tokenIds.increment();\r\n    uint newTokenId = _tokenIds.current();\r\n\r\n    _mint(msg.sender, newTokenId, balance, \"\");\r\n    _setURI(newTokenId, tokenURI);\r\n    _createNftBook(newTokenId, balance);\r\n\r\n    _usedTokenURIs[tokenURI] = true;\r\n    return newTokenId;\r\n  }\r\n\r\n  function _createNftBook(uint tokenId, uint256 balance) private {\r\n    _idToNFTBook[tokenId] = NFTBook(tokenId, msg.sender, balance);\r\n    emit NFTBookCreated(tokenId, msg.sender, balance);\r\n  }\r\n\r\n  // Only testing\r\n  function getBalance(uint tokenId) public view returns(uint) {\r\n    return ERC1155.balanceOf(msg.sender, tokenId);\r\n  }\r\n  \r\n  function isOwnerOfToken(uint tokenId, address owner) public view returns(bool) {\r\n    return ERC1155.balanceOf(owner, tokenId) > 0;\r\n  }\r\n\r\n  function getOwnedNFTBooks() public view returns (NFTBook[] memory) {\r\n    uint ownedItemsCount = _totalOwnedToken[msg.sender];\r\n    NFTBook[] memory books = new NFTBook[](ownedItemsCount);\r\n\r\n    for (uint i = 0; i < ownedItemsCount; i++) {\r\n      uint tokenId = _ownedTokens[msg.sender][i];\r\n      NFTBook memory book = _idToNFTBook[tokenId];\r\n\r\n      books[i] = book;\r\n    }\r\n\r\n    return books;\r\n  }\r\n\r\n  function getOwnedListedBooks() public view returns (ListedBookStorage.ListedBook[] memory) {\r\n    uint ownedListedBookCount = _listedBookStorage.getTotalOwnedListedBook(msg.sender);\r\n    uint ownedItemsCount = _totalOwnedToken[msg.sender];\r\n    ListedBookStorage.ListedBook[] memory books = new ListedBookStorage.ListedBook[](ownedListedBookCount);\r\n\r\n    uint currentIndex = 0;\r\n    for (uint i = 0; i < ownedItemsCount; i++) {\r\n      uint tokenId = _ownedTokens[msg.sender][i];\r\n      ListedBookStorage.ListedBook memory book = _listedBookStorage.getListedBook(tokenId, msg.sender);\r\n      if (book.tokenId != 0 && book.seller != address(0)) {\r\n        books[currentIndex] = book;\r\n        currentIndex++;\r\n      }\r\n    }\r\n\r\n    return books;\r\n  }\r\n\r\n  // function getOwnedRentedBooks() public view returns (RentedBook[] memory) {\r\n  //   uint ownedRentedBookCount = _totalOwnedRentedBook[msg.sender];\r\n  //   uint ownedItemsCount = _totalOwnedToken[msg.sender];\r\n  //   RentedBook[] memory books = new RentedBook[](ownedRentedBookCount);\r\n\r\n  //   uint currentIndex = 0;\r\n  //   for (uint i = 0; i < ownedItemsCount; i++) {\r\n  //     uint tokenId = _ownedTokens[msg.sender][i];\r\n  //     uint idRentedBook = getIdRentedBook(tokenId, msg.sender);\r\n  //     if (idRentedBook != 0) {\r\n  //       RentedBook memory book = _idToRentedBook[idRentedBook];\r\n\r\n  //       if(book.tokenId != 0 &&\r\n  //           book.renter != address(0) &&\r\n  //           book.rentalDuration > MIN_TIME &&\r\n  //           book.startTime == 0) {\r\n\r\n  //         books[currentIndex] = book;\r\n  //         currentIndex++;\r\n  //       }\r\n  //     }\r\n  //   }\r\n\r\n  //   return books;\r\n  // }\r\n\r\n  function getAmountOfAllTypeBooks(uint256 tokenId, address owner) public view returns(uint) {\r\n    // return getAmountOfListedBooks(tokenId, owner) + getAmountOfRentedBooks(tokenId, owner);\r\n    return _listedBookStorage.getAmountOfListedBooks(tokenId, owner);\r\n  }\r\n\r\n  function sellBooks(uint256 tokenId, uint price, uint256 amount) public payable {\r\n    require(isOwnerOfToken(tokenId, msg.sender),\r\n          \"You are not the owner of this token\");\r\n    require(getAmountOfAllTypeBooks(tokenId, msg.sender) + amount <= ERC1155.balanceOf(msg.sender, tokenId),\r\n          \"You don't have enough books to sell\");\r\n    require(msg.value == listingPrice,\r\n           \"Price must be equal to listing price\");\r\n    _listedBookStorage.sellListedBooks(tokenId, price, amount, msg.sender);\r\n  }\r\n\r\n  // function rentBooks(uint256 tokenId, uint price, uint256 amount, uint rentalDuration) public payable {\r\n  //   require(isOwnerOfToken(tokenId, msg.sender),\r\n  //         \"You are not the owner of this token\");\r\n  //   require(getAmountOfAllTypeBooks(tokenId, msg.sender) + amount <= ERC1155.balanceOf(msg.sender, tokenId) &&\r\n  //          amount > 0,\r\n  //         \"You don't have enough books to sell\");\r\n  //   require(msg.value == listingPrice,\r\n  //          \"Price must be equal to listing price\");\r\n  //   require(rentalDuration >= MIN_TIME,\r\n  //          \"Rental period is at least one week\");\r\n\r\n  //   rentRentedBooks(tokenId, price, amount, rentalDuration);\r\n  // }\r\n\r\n  function decreaseBookFromSale(uint256 tokenId, uint256 amount, address seller) public {\r\n    require(isOwnerOfToken(tokenId, seller),\r\n          \"You are not the owner of this token\");\r\n    _listedBookStorage.decreaseListedBookFromSale(tokenId, amount, seller);\r\n  }\r\n\r\n  function getAllBooksOnSale() public view returns (ListedBookStorage.ListedBook[] memory) {\r\n    return _listedBookStorage.getAllListedBooks();\r\n  }\r\n\r\n  function buyBooks(uint256 tokenId, address seller, uint256 amount) public payable {\r\n\r\n    uint totalPrice = _listedBookStorage.buyListedBooks(tokenId, seller, amount, msg.sender, msg.value);\r\n    if (totalPrice != 0) {\r\n      _safeTransferFrom(seller, msg.sender, tokenId, amount, \"\");\r\n      payable(seller).transfer(totalPrice);\r\n    }\r\n  }\r\n\r\n}",
  "sourcePath": "D:\\Workspace\\DoAnTotNghiep\\Product\\nft-bookstore\\contracts\\BookStore.sol",
  "compiler": {
    "name": "solc",
    "version": "0.8.17+commit.8df45f5f.Emscripten.clang"
  },
  "schemaVersion": "3.4.11",
  "updatedAt": "2023-02-25T08:19:31.364Z",
  "networkType": "ethereum",
  "devdoc": {
    "kind": "dev",
    "methods": {
      "balanceOf(address,uint256)": {
        "details": "See {IERC1155-balanceOf}. Requirements: - `account` cannot be the zero address."
      },
      "balanceOfBatch(address[],uint256[])": {
        "details": "See {IERC1155-balanceOfBatch}. Requirements: - `accounts` and `ids` must have the same length."
      },
      "isApprovedForAll(address,address)": {
        "details": "See {IERC1155-isApprovedForAll}."
      },
      "owner()": {
        "details": "Returns the address of the current owner."
      },
      "renounceOwnership()": {
        "details": "Leaves the contract without owner. It will not be possible to call `onlyOwner` functions anymore. Can only be called by the current owner. NOTE: Renouncing ownership will leave the contract without an owner, thereby removing any functionality that is only available to the owner."
      },
      "safeBatchTransferFrom(address,address,uint256[],uint256[],bytes)": {
        "details": "See {IERC1155-safeBatchTransferFrom}."
      },
      "safeTransferFrom(address,address,uint256,uint256,bytes)": {
        "details": "See {IERC1155-safeTransferFrom}."
      },
      "setApprovalForAll(address,bool)": {
        "details": "See {IERC1155-setApprovalForAll}."
      },
      "supportsInterface(bytes4)": {
        "details": "See {IERC165-supportsInterface}."
      },
      "transferOwnership(address)": {
        "details": "Transfers ownership of the contract to a new account (`newOwner`). Can only be called by the current owner."
      },
      "uri(uint256)": {
        "details": "See {IERC1155MetadataURI-uri}. This implementation returns the concatenation of the `_baseURI` and the token-specific uri if the latter is set This enables the following behaviors: - if `_tokenURIs[tokenId]` is set, then the result is the concatenation   of `_baseURI` and `_tokenURIs[tokenId]` (keep in mind that `_baseURI`   is empty per default); - if `_tokenURIs[tokenId]` is NOT set then we fallback to `super.uri()`   which in most cases will contain `ERC1155._uri`; - if `_tokenURIs[tokenId]` is NOT set, and if the parents do not have a   uri value set, then the result is empty."
      }
    },
    "version": 1
  },
  "userdoc": {
    "kind": "user",
    "methods": {},
    "version": 1
  }
}