{
  "contractName": "BookRentingStorage",
  "abi": [
    {
      "inputs": [
        {
          "internalType": "contract TimeLock",
          "name": "timelock",
          "type": "address"
        }
      ],
      "stateMutability": "nonpayable",
      "type": "constructor"
    },
    {
      "inputs": [
        {
          "internalType": "bool",
          "name": "",
          "type": "bool"
        }
      ],
      "name": "AlreadyChangedStatusError",
      "type": "error"
    },
    {
      "inputs": [
        {
          "internalType": "bool",
          "name": "",
          "type": "bool"
        }
      ],
      "name": "AlreadyExistsRequestError",
      "type": "error"
    },
    {
      "inputs": [
        {
          "internalType": "bool",
          "name": "",
          "type": "bool"
        }
      ],
      "name": "AlreadyExistsResponseError",
      "type": "error"
    },
    {
      "inputs": [
        {
          "internalType": "address",
          "name": "",
          "type": "address"
        }
      ],
      "name": "InvalidAddressError",
      "type": "error"
    },
    {
      "inputs": [
        {
          "internalType": "uint256",
          "name": "",
          "type": "uint256"
        }
      ],
      "name": "InvalidAmountError",
      "type": "error"
    },
    {
      "inputs": [
        {
          "internalType": "uint256",
          "name": "",
          "type": "uint256"
        }
      ],
      "name": "InvalidIdError",
      "type": "error"
    },
    {
      "inputs": [
        {
          "internalType": "uint256",
          "name": "",
          "type": "uint256"
        }
      ],
      "name": "InvalidLengthError",
      "type": "error"
    },
    {
      "inputs": [],
      "name": "InvalidParamsError",
      "type": "error"
    },
    {
      "anonymous": false,
      "inputs": [
        {
          "indexed": false,
          "internalType": "uint256",
          "name": "tokenId",
          "type": "uint256"
        },
        {
          "indexed": false,
          "internalType": "address",
          "name": "renter",
          "type": "address"
        },
        {
          "indexed": false,
          "internalType": "address",
          "name": "borrower",
          "type": "address"
        },
        {
          "indexed": false,
          "internalType": "uint256",
          "name": "price",
          "type": "uint256"
        },
        {
          "indexed": false,
          "internalType": "uint256",
          "name": "amount",
          "type": "uint256"
        },
        {
          "indexed": false,
          "internalType": "uint256",
          "name": "startTime",
          "type": "uint256"
        },
        {
          "indexed": false,
          "internalType": "uint256",
          "name": "endTime",
          "type": "uint256"
        }
      ],
      "name": "BorrowedBookCreated",
      "type": "event"
    },
    {
      "anonymous": false,
      "inputs": [
        {
          "indexed": false,
          "internalType": "uint256",
          "name": "id",
          "type": "uint256"
        },
        {
          "indexed": false,
          "internalType": "uint256",
          "name": "time",
          "type": "uint256"
        },
        {
          "indexed": false,
          "internalType": "uint256",
          "name": "amount",
          "type": "uint256"
        },
        {
          "indexed": false,
          "internalType": "address",
          "name": "sender",
          "type": "address"
        },
        {
          "indexed": false,
          "internalType": "bool",
          "name": "isAccept",
          "type": "bool"
        }
      ],
      "name": "CreatedRequest",
      "type": "event"
    },
    {
      "anonymous": false,
      "inputs": [
        {
          "indexed": false,
          "internalType": "uint256",
          "name": "id",
          "type": "uint256"
        },
        {
          "indexed": false,
          "internalType": "uint256",
          "name": "time",
          "type": "uint256"
        },
        {
          "indexed": false,
          "internalType": "uint256",
          "name": "amount",
          "type": "uint256"
        },
        {
          "indexed": false,
          "internalType": "address",
          "name": "sender",
          "type": "address"
        }
      ],
      "name": "CreatedResponse",
      "type": "event"
    },
    {
      "anonymous": false,
      "inputs": [
        {
          "indexed": false,
          "internalType": "uint256",
          "name": "tokenId",
          "type": "uint256"
        },
        {
          "indexed": false,
          "internalType": "address",
          "name": "renter",
          "type": "address"
        },
        {
          "indexed": false,
          "internalType": "uint256",
          "name": "price",
          "type": "uint256"
        },
        {
          "indexed": false,
          "internalType": "uint256",
          "name": "amount",
          "type": "uint256"
        }
      ],
      "name": "LendBookCreated",
      "type": "event"
    },
    {
      "inputs": [],
      "name": "getAllOwnedRequest",
      "outputs": [
        {
          "components": [
            {
              "internalType": "uint256",
              "name": "id",
              "type": "uint256"
            },
            {
              "internalType": "uint256",
              "name": "time",
              "type": "uint256"
            },
            {
              "internalType": "uint256",
              "name": "amount",
              "type": "uint256"
            },
            {
              "internalType": "address",
              "name": "sender",
              "type": "address"
            },
            {
              "internalType": "bool",
              "name": "isAccept",
              "type": "bool"
            }
          ],
          "internalType": "struct ExtendTime.Request[]",
          "name": "",
          "type": "tuple[]"
        }
      ],
      "stateMutability": "view",
      "type": "function",
      "constant": true
    },
    {
      "inputs": [],
      "name": "getAllOwnedResponse",
      "outputs": [
        {
          "components": [
            {
              "internalType": "uint256",
              "name": "id",
              "type": "uint256"
            },
            {
              "internalType": "uint256",
              "name": "time",
              "type": "uint256"
            },
            {
              "internalType": "uint256",
              "name": "amount",
              "type": "uint256"
            },
            {
              "internalType": "address",
              "name": "sender",
              "type": "address"
            }
          ],
          "internalType": "struct ExtendTime.Response[]",
          "name": "",
          "type": "tuple[]"
        }
      ],
      "stateMutability": "view",
      "type": "function",
      "constant": true
    },
    {
      "inputs": [
        {
          "internalType": "uint256",
          "name": "id",
          "type": "uint256"
        },
        {
          "internalType": "address",
          "name": "sender",
          "type": "address"
        },
        {
          "internalType": "address",
          "name": "receiver",
          "type": "address"
        }
      ],
      "name": "getRequest",
      "outputs": [
        {
          "components": [
            {
              "internalType": "uint256",
              "name": "id",
              "type": "uint256"
            },
            {
              "internalType": "uint256",
              "name": "time",
              "type": "uint256"
            },
            {
              "internalType": "uint256",
              "name": "amount",
              "type": "uint256"
            },
            {
              "internalType": "address",
              "name": "sender",
              "type": "address"
            },
            {
              "internalType": "bool",
              "name": "isAccept",
              "type": "bool"
            }
          ],
          "internalType": "struct ExtendTime.Request",
          "name": "",
          "type": "tuple"
        }
      ],
      "stateMutability": "view",
      "type": "function",
      "constant": true
    },
    {
      "inputs": [
        {
          "internalType": "uint256",
          "name": "id",
          "type": "uint256"
        },
        {
          "internalType": "address",
          "name": "sender",
          "type": "address"
        },
        {
          "internalType": "address",
          "name": "receiver",
          "type": "address"
        }
      ],
      "name": "getResponse",
      "outputs": [
        {
          "components": [
            {
              "internalType": "uint256",
              "name": "id",
              "type": "uint256"
            },
            {
              "internalType": "uint256",
              "name": "time",
              "type": "uint256"
            },
            {
              "internalType": "uint256",
              "name": "amount",
              "type": "uint256"
            },
            {
              "internalType": "address",
              "name": "sender",
              "type": "address"
            }
          ],
          "internalType": "struct ExtendTime.Response",
          "name": "",
          "type": "tuple"
        }
      ],
      "stateMutability": "view",
      "type": "function",
      "constant": true
    },
    {
      "inputs": [
        {
          "internalType": "uint256",
          "name": "id",
          "type": "uint256"
        },
        {
          "internalType": "address",
          "name": "sender",
          "type": "address"
        },
        {
          "internalType": "address",
          "name": "receiver",
          "type": "address"
        }
      ],
      "name": "isAcceptRequest",
      "outputs": [
        {
          "internalType": "bool",
          "name": "",
          "type": "bool"
        }
      ],
      "stateMutability": "view",
      "type": "function",
      "constant": true
    },
    {
      "inputs": [
        {
          "internalType": "uint256",
          "name": "id",
          "type": "uint256"
        },
        {
          "internalType": "address",
          "name": "sender",
          "type": "address"
        },
        {
          "internalType": "address",
          "name": "receiver",
          "type": "address"
        }
      ],
      "name": "isRequestExist",
      "outputs": [
        {
          "internalType": "bool",
          "name": "",
          "type": "bool"
        }
      ],
      "stateMutability": "view",
      "type": "function",
      "constant": true
    },
    {
      "inputs": [
        {
          "internalType": "uint256",
          "name": "id",
          "type": "uint256"
        },
        {
          "internalType": "address",
          "name": "sender",
          "type": "address"
        },
        {
          "internalType": "address",
          "name": "receiver",
          "type": "address"
        }
      ],
      "name": "isResponseExist",
      "outputs": [
        {
          "internalType": "bool",
          "name": "",
          "type": "bool"
        }
      ],
      "stateMutability": "view",
      "type": "function",
      "constant": true
    },
    {
      "inputs": [
        {
          "internalType": "uint256",
          "name": "tokenId",
          "type": "uint256"
        },
        {
          "internalType": "address",
          "name": "renter",
          "type": "address"
        }
      ],
      "name": "isLending",
      "outputs": [
        {
          "internalType": "bool",
          "name": "",
          "type": "bool"
        }
      ],
      "stateMutability": "view",
      "type": "function",
      "constant": true
    },
    {
      "inputs": [
        {
          "internalType": "uint256",
          "name": "tokenId",
          "type": "uint256"
        },
        {
          "internalType": "address",
          "name": "renter",
          "type": "address"
        }
      ],
      "name": "getLendBook",
      "outputs": [
        {
          "components": [
            {
              "internalType": "uint256",
              "name": "tokenId",
              "type": "uint256"
            },
            {
              "internalType": "address",
              "name": "renter",
              "type": "address"
            },
            {
              "internalType": "uint256",
              "name": "price",
              "type": "uint256"
            },
            {
              "internalType": "uint256",
              "name": "amount",
              "type": "uint256"
            }
          ],
          "internalType": "struct BookRentingStorage.LendBook",
          "name": "",
          "type": "tuple"
        }
      ],
      "stateMutability": "view",
      "type": "function",
      "constant": true
    },
    {
      "inputs": [
        {
          "internalType": "uint256",
          "name": "id",
          "type": "uint256"
        }
      ],
      "name": "getLendBookFromId",
      "outputs": [
        {
          "components": [
            {
              "internalType": "uint256",
              "name": "tokenId",
              "type": "uint256"
            },
            {
              "internalType": "address",
              "name": "renter",
              "type": "address"
            },
            {
              "internalType": "uint256",
              "name": "price",
              "type": "uint256"
            },
            {
              "internalType": "uint256",
              "name": "amount",
              "type": "uint256"
            }
          ],
          "internalType": "struct BookRentingStorage.LendBook",
          "name": "",
          "type": "tuple"
        }
      ],
      "stateMutability": "view",
      "type": "function",
      "constant": true
    },
    {
      "inputs": [
        {
          "internalType": "address",
          "name": "renter",
          "type": "address"
        }
      ],
      "name": "getTotalOwnedLendBook",
      "outputs": [
        {
          "internalType": "uint256",
          "name": "",
          "type": "uint256"
        }
      ],
      "stateMutability": "view",
      "type": "function",
      "constant": true
    },
    {
      "inputs": [
        {
          "internalType": "uint256",
          "name": "tokenId",
          "type": "uint256"
        },
        {
          "internalType": "address",
          "name": "renter",
          "type": "address"
        }
      ],
      "name": "getIdLendBook",
      "outputs": [
        {
          "internalType": "uint256",
          "name": "",
          "type": "uint256"
        }
      ],
      "stateMutability": "view",
      "type": "function",
      "constant": true
    },
    {
      "inputs": [
        {
          "internalType": "uint256",
          "name": "tokenId",
          "type": "uint256"
        },
        {
          "internalType": "address",
          "name": "owner",
          "type": "address"
        }
      ],
      "name": "getAmountOfLendBooks",
      "outputs": [
        {
          "internalType": "uint256",
          "name": "",
          "type": "uint256"
        }
      ],
      "stateMutability": "view",
      "type": "function",
      "constant": true
    },
    {
      "inputs": [
        {
          "internalType": "uint256",
          "name": "tokenId",
          "type": "uint256"
        },
        {
          "internalType": "uint256",
          "name": "newPrice",
          "type": "uint256"
        },
        {
          "internalType": "uint256",
          "name": "newAmount",
          "type": "uint256"
        },
        {
          "internalType": "address",
          "name": "renter",
          "type": "address"
        }
      ],
      "name": "updateLendBookFromRenting",
      "outputs": [],
      "stateMutability": "nonpayable",
      "type": "function"
    },
    {
      "inputs": [],
      "name": "getAllLendBooks",
      "outputs": [
        {
          "components": [
            {
              "internalType": "uint256",
              "name": "tokenId",
              "type": "uint256"
            },
            {
              "internalType": "address",
              "name": "renter",
              "type": "address"
            },
            {
              "internalType": "uint256",
              "name": "price",
              "type": "uint256"
            },
            {
              "internalType": "uint256",
              "name": "amount",
              "type": "uint256"
            }
          ],
          "internalType": "struct BookRentingStorage.LendBook[]",
          "name": "",
          "type": "tuple[]"
        }
      ],
      "stateMutability": "view",
      "type": "function",
      "constant": true
    },
    {
      "inputs": [
        {
          "internalType": "uint256",
          "name": "tokenId",
          "type": "uint256"
        },
        {
          "internalType": "address",
          "name": "renter",
          "type": "address"
        },
        {
          "internalType": "uint256",
          "name": "price",
          "type": "uint256"
        },
        {
          "internalType": "uint256",
          "name": "amount",
          "type": "uint256"
        }
      ],
      "name": "lendBooks",
      "outputs": [],
      "stateMutability": "payable",
      "type": "function",
      "payable": true
    },
    {
      "inputs": [],
      "name": "getTotalBorrowedBooksOnBorrowing",
      "outputs": [
        {
          "internalType": "uint256",
          "name": "",
          "type": "uint256"
        }
      ],
      "stateMutability": "view",
      "type": "function",
      "constant": true
    },
    {
      "inputs": [
        {
          "internalType": "uint256",
          "name": "tokenId",
          "type": "uint256"
        },
        {
          "internalType": "address",
          "name": "renter",
          "type": "address"
        },
        {
          "internalType": "address",
          "name": "borrower",
          "type": "address"
        },
        {
          "internalType": "uint256",
          "name": "startTime",
          "type": "uint256"
        },
        {
          "internalType": "uint256",
          "name": "endTime",
          "type": "uint256"
        }
      ],
      "name": "getHashIdForBorrowedBook",
      "outputs": [
        {
          "internalType": "bytes32",
          "name": "",
          "type": "bytes32"
        }
      ],
      "stateMutability": "pure",
      "type": "function",
      "constant": true
    },
    {
      "inputs": [
        {
          "internalType": "uint256",
          "name": "tokenId",
          "type": "uint256"
        },
        {
          "internalType": "address",
          "name": "renter",
          "type": "address"
        },
        {
          "internalType": "address",
          "name": "borrower",
          "type": "address"
        },
        {
          "internalType": "uint256",
          "name": "startTime",
          "type": "uint256"
        },
        {
          "internalType": "uint256",
          "name": "endTime",
          "type": "uint256"
        }
      ],
      "name": "getBorrowedBook",
      "outputs": [
        {
          "components": [
            {
              "internalType": "uint256",
              "name": "tokenId",
              "type": "uint256"
            },
            {
              "internalType": "address",
              "name": "renter",
              "type": "address"
            },
            {
              "internalType": "address",
              "name": "borrower",
              "type": "address"
            },
            {
              "internalType": "uint256",
              "name": "price",
              "type": "uint256"
            },
            {
              "internalType": "uint256",
              "name": "amount",
              "type": "uint256"
            },
            {
              "internalType": "uint256",
              "name": "startTime",
              "type": "uint256"
            },
            {
              "internalType": "uint256",
              "name": "endTime",
              "type": "uint256"
            }
          ],
          "internalType": "struct BookRentingStorage.BorrowedBook",
          "name": "",
          "type": "tuple"
        }
      ],
      "stateMutability": "view",
      "type": "function",
      "constant": true
    },
    {
      "inputs": [
        {
          "internalType": "uint256",
          "name": "id",
          "type": "uint256"
        }
      ],
      "name": "getBorrowedBookFromId",
      "outputs": [
        {
          "components": [
            {
              "internalType": "uint256",
              "name": "tokenId",
              "type": "uint256"
            },
            {
              "internalType": "address",
              "name": "renter",
              "type": "address"
            },
            {
              "internalType": "address",
              "name": "borrower",
              "type": "address"
            },
            {
              "internalType": "uint256",
              "name": "price",
              "type": "uint256"
            },
            {
              "internalType": "uint256",
              "name": "amount",
              "type": "uint256"
            },
            {
              "internalType": "uint256",
              "name": "startTime",
              "type": "uint256"
            },
            {
              "internalType": "uint256",
              "name": "endTime",
              "type": "uint256"
            }
          ],
          "internalType": "struct BookRentingStorage.BorrowedBook",
          "name": "",
          "type": "tuple"
        }
      ],
      "stateMutability": "view",
      "type": "function",
      "constant": true
    },
    {
      "inputs": [
        {
          "internalType": "address",
          "name": "borrower",
          "type": "address"
        }
      ],
      "name": "getTotalOwnedBorrowedBook",
      "outputs": [
        {
          "internalType": "uint256",
          "name": "",
          "type": "uint256"
        }
      ],
      "stateMutability": "view",
      "type": "function",
      "constant": true
    },
    {
      "inputs": [
        {
          "internalType": "uint256",
          "name": "tokenId",
          "type": "uint256"
        },
        {
          "internalType": "address",
          "name": "renter",
          "type": "address"
        },
        {
          "internalType": "uint256",
          "name": "price",
          "type": "uint256"
        },
        {
          "internalType": "uint256",
          "name": "amount",
          "type": "uint256"
        },
        {
          "internalType": "uint256",
          "name": "startTime",
          "type": "uint256"
        },
        {
          "internalType": "uint256",
          "name": "endTime",
          "type": "uint256"
        },
        {
          "internalType": "address",
          "name": "borrower",
          "type": "address"
        }
      ],
      "name": "createBorrowedBook",
      "outputs": [],
      "stateMutability": "nonpayable",
      "type": "function"
    },
    {
      "inputs": [
        {
          "internalType": "uint256",
          "name": "tokenId",
          "type": "uint256"
        },
        {
          "internalType": "address",
          "name": "renter",
          "type": "address"
        },
        {
          "internalType": "address",
          "name": "borrower",
          "type": "address"
        },
        {
          "internalType": "uint256",
          "name": "startTime",
          "type": "uint256"
        },
        {
          "internalType": "uint256",
          "name": "endTime",
          "type": "uint256"
        }
      ],
      "name": "getIdBorrowedBook",
      "outputs": [
        {
          "internalType": "uint256",
          "name": "",
          "type": "uint256"
        }
      ],
      "stateMutability": "view",
      "type": "function",
      "constant": true
    },
    {
      "inputs": [
        {
          "internalType": "uint256",
          "name": "idBorrowedBook",
          "type": "uint256"
        },
        {
          "internalType": "uint256",
          "name": "amount",
          "type": "uint256"
        },
        {
          "internalType": "bool",
          "name": "isDecrease",
          "type": "bool"
        }
      ],
      "name": "updateAmountBorrowedBookFromBorrowing",
      "outputs": [],
      "stateMutability": "nonpayable",
      "type": "function"
    },
    {
      "inputs": [
        {
          "internalType": "uint256",
          "name": "tokenId",
          "type": "uint256"
        },
        {
          "internalType": "address",
          "name": "owner",
          "type": "address"
        }
      ],
      "name": "getAmountOfBorrowedBooks",
      "outputs": [
        {
          "internalType": "uint256",
          "name": "",
          "type": "uint256"
        }
      ],
      "stateMutability": "view",
      "type": "function",
      "constant": true
    },
    {
      "inputs": [],
      "name": "getOwnedBorrowedBooks",
      "outputs": [
        {
          "components": [
            {
              "internalType": "uint256",
              "name": "tokenId",
              "type": "uint256"
            },
            {
              "internalType": "address",
              "name": "renter",
              "type": "address"
            },
            {
              "internalType": "address",
              "name": "borrower",
              "type": "address"
            },
            {
              "internalType": "uint256",
              "name": "price",
              "type": "uint256"
            },
            {
              "internalType": "uint256",
              "name": "amount",
              "type": "uint256"
            },
            {
              "internalType": "uint256",
              "name": "startTime",
              "type": "uint256"
            },
            {
              "internalType": "uint256",
              "name": "endTime",
              "type": "uint256"
            }
          ],
          "internalType": "struct BookRentingStorage.BorrowedBook[]",
          "name": "",
          "type": "tuple[]"
        }
      ],
      "stateMutability": "view",
      "type": "function",
      "constant": true
    },
    {
      "inputs": [
        {
          "internalType": "uint256",
          "name": "tokenId",
          "type": "uint256"
        },
        {
          "internalType": "address",
          "name": "owner",
          "type": "address"
        }
      ],
      "name": "isBorrowedBookReadable",
      "outputs": [
        {
          "internalType": "bool",
          "name": "",
          "type": "bool"
        }
      ],
      "stateMutability": "view",
      "type": "function",
      "constant": true
    },
    {
      "inputs": [
        {
          "internalType": "uint256",
          "name": "tokenId",
          "type": "uint256"
        },
        {
          "internalType": "address",
          "name": "renter",
          "type": "address"
        },
        {
          "internalType": "uint256",
          "name": "amount",
          "type": "uint256"
        },
        {
          "internalType": "uint256",
          "name": "price",
          "type": "uint256"
        },
        {
          "internalType": "uint256",
          "name": "startTime",
          "type": "uint256"
        },
        {
          "internalType": "uint256",
          "name": "endTime",
          "type": "uint256"
        },
        {
          "internalType": "address",
          "name": "borrower",
          "type": "address"
        }
      ],
      "name": "borrowBooks",
      "outputs": [
        {
          "internalType": "uint256",
          "name": "",
          "type": "uint256"
        }
      ],
      "stateMutability": "payable",
      "type": "function",
      "payable": true
    },
    {
      "inputs": [
        {
          "internalType": "uint256",
          "name": "tokenId",
          "type": "uint256"
        },
        {
          "internalType": "address",
          "name": "renter",
          "type": "address"
        },
        {
          "internalType": "address",
          "name": "borrower",
          "type": "address"
        },
        {
          "internalType": "uint256",
          "name": "startTime",
          "type": "uint256"
        },
        {
          "internalType": "uint256",
          "name": "endTime",
          "type": "uint256"
        },
        {
          "internalType": "uint256",
          "name": "extendedAmount",
          "type": "uint256"
        },
        {
          "internalType": "uint256",
          "name": "extendedTime",
          "type": "uint256"
        }
      ],
      "name": "requestExtendTimeOfBorrowedBooks",
      "outputs": [],
      "stateMutability": "nonpayable",
      "type": "function"
    },
    {
      "inputs": [
        {
          "internalType": "uint256",
          "name": "tokenId",
          "type": "uint256"
        },
        {
          "internalType": "address",
          "name": "renter",
          "type": "address"
        },
        {
          "internalType": "address",
          "name": "borrower",
          "type": "address"
        },
        {
          "internalType": "uint256",
          "name": "startTime",
          "type": "uint256"
        },
        {
          "internalType": "uint256",
          "name": "endTime",
          "type": "uint256"
        },
        {
          "internalType": "uint256",
          "name": "newExtendedAmount",
          "type": "uint256"
        },
        {
          "internalType": "uint256",
          "name": "newExtendedTime",
          "type": "uint256"
        }
      ],
      "name": "updateRequestOfBorrowedBooks",
      "outputs": [],
      "stateMutability": "nonpayable",
      "type": "function"
    },
    {
      "inputs": [
        {
          "internalType": "uint256",
          "name": "id",
          "type": "uint256"
        },
        {
          "internalType": "address",
          "name": "borrower",
          "type": "address"
        },
        {
          "internalType": "address",
          "name": "renter",
          "type": "address"
        },
        {
          "internalType": "bool",
          "name": "isAccept",
          "type": "bool"
        }
      ],
      "name": "doAcceptRequestAndCreateResponse",
      "outputs": [
        {
          "internalType": "bool",
          "name": "",
          "type": "bool"
        }
      ],
      "stateMutability": "nonpayable",
      "type": "function"
    },
    {
      "inputs": [
        {
          "internalType": "uint256",
          "name": "id",
          "type": "uint256"
        },
        {
          "internalType": "address",
          "name": "renter",
          "type": "address"
        },
        {
          "internalType": "address",
          "name": "borrower",
          "type": "address"
        },
        {
          "internalType": "uint256",
          "name": "currentTime",
          "type": "uint256"
        },
        {
          "internalType": "bool",
          "name": "isExtend",
          "type": "bool"
        }
      ],
      "name": "transferForSendedRequest",
      "outputs": [
        {
          "internalType": "uint256",
          "name": "",
          "type": "uint256"
        }
      ],
      "stateMutability": "payable",
      "type": "function",
      "payable": true
    },
    {
      "inputs": [],
      "name": "getAllBorrowedBooks",
      "outputs": [
        {
          "components": [
            {
              "internalType": "uint256",
              "name": "tokenId",
              "type": "uint256"
            },
            {
              "internalType": "address",
              "name": "renter",
              "type": "address"
            },
            {
              "internalType": "address",
              "name": "borrower",
              "type": "address"
            },
            {
              "internalType": "uint256",
              "name": "price",
              "type": "uint256"
            },
            {
              "internalType": "uint256",
              "name": "amount",
              "type": "uint256"
            },
            {
              "internalType": "uint256",
              "name": "startTime",
              "type": "uint256"
            },
            {
              "internalType": "uint256",
              "name": "endTime",
              "type": "uint256"
            }
          ],
          "internalType": "struct BookRentingStorage.BorrowedBook[]",
          "name": "",
          "type": "tuple[]"
        }
      ],
      "stateMutability": "view",
      "type": "function",
      "constant": true
    },
    {
      "inputs": [
        {
          "internalType": "uint256",
          "name": "idBorrowedBook",
          "type": "uint256"
        }
      ],
      "name": "excRecallBorrowedBooks",
      "outputs": [
        {
          "internalType": "bool",
          "name": "",
          "type": "bool"
        }
      ],
      "stateMutability": "nonpayable",
      "type": "function"
    }
  ],
  "bytecode": "0x608060405262093a806004553480156200001857600080fd5b5060405162003e3938038062003e398339810160408190526200003b9162000061565b600580546001600160a01b0319166001600160a01b039290921691909117905562000093565b6000602082840312156200007457600080fd5b81516001600160a01b03811681146200008c57600080fd5b9392505050565b613d9680620000a36000396000f3fe6080604052600436106101b95760003560e01c80637ca1a868116100ed578063cca1003d11610090578063cca1003d14610573578063d20419f214610586578063d572cd89146105a6578063d5cb4efb146105c6578063df143868146105e6578063e774ed6114610606578063fd34eb3e14610633578063fdbcb6aa14610646578063ff9db14c1461065b57600080fd5b80637ca1a86814610439578063991968e4146104665780639e73701314610486578063a4e12b20146104a6578063ad034596146104c6578063ba3a632a14610506578063bcb7a58714610526578063ca36874d1461055357600080fd5b80633486aa3e116101605780633486aa3e1461030f5780634780710d146103315780634e4509fe1461035157806354e76f83146103735780636423566d146103935780636756e11e146103b35780636a3ae1d4146103d55780636d312e8d146103ea57806378f199061461040c57600080fd5b80630563bd5a146101be5780630d602ca0146102075780630f026d8f146102375780630f27d508146102575780632229aea21461027757806327ae13871461029757806328964f6d146102cd5780632f3a00b3146102ed575b600080fd5b3480156101ca57600080fd5b506101f46101d93660046135a1565b6001600160a01b031660009081526007602052604090205490565b6040519081526020015b60405180910390f35b34801561021357600080fd5b506102276102223660046135bc565b61066e565b60405190151581526020016101fe565b34801561024357600080fd5b506102276102523660046135d5565b610772565b34801561026357600080fd5b506101f4610272366004613601565b61079d565b34801561028357600080fd5b5061022761029236600461364f565b610820565b3480156102a357600080fd5b506101f46102b23660046135a1565b6001600160a01b03166000908152600b602052604090205490565b3480156102d957600080fd5b506102276102e836600461364f565b61091f565b3480156102f957600080fd5b506103026109d2565b6040516101fe91906136b7565b34801561031b57600080fd5b5061032f61032a366004613716565b610ae3565b005b34801561033d57600080fd5b5061022761034c3660046135d5565b610c10565b34801561035d57600080fd5b50610366610cd6565b6040516101fe919061377b565b34801561037f57600080fd5b5061022761038e36600461364f565b610dce565b34801561039f57600080fd5b5061032f6103ae3660046137bd565b610e7d565b3480156103bf57600080fd5b506103c8610ef8565b6040516101fe919061384e565b3480156103e157600080fd5b506103c8611028565b3480156103f657600080fd5b506103ff61114c565b6040516101fe91906138c8565b34801561041857600080fd5b5061042c6104273660046135bc565b611266565b6040516101fe919061390a565b34801561044557600080fd5b5061045961045436600461364f565b6112df565b6040516101fe9190613918565b34801561047257600080fd5b506101f4610481366004613601565b6113e4565b34801561049257600080fd5b506101f46104a13660046135d5565b611434565b3480156104b257600080fd5b5061032f6104c1366004613926565b611491565b3480156104d257600080fd5b506101f46104e13660046135d5565b6001600160a01b03166000908152600c60209081526040808320938352929052205490565b34801561051257600080fd5b5061032f610521366004613926565b6114dd565b34801561053257600080fd5b506105466105413660046135bc565b61155f565b6040516101fe9190613987565b34801561055f57600080fd5b5061054661056e3660046135d5565b6115b5565b61032f610581366004613995565b61161b565b34801561059257600080fd5b506101f46105a13660046135d5565b611654565b3480156105b257600080fd5b506102276105c13660046139d0565b611692565b3480156105d257600080fd5b5061032f6105e1366004613a1f565b6117b0565b3480156105f257600080fd5b5061042c610601366004613601565b611a5e565b34801561061257600080fd5b5061062661062136600461364f565b611aed565b6040516101fe9190613a82565b6101f4610641366004613a90565b611bd6565b34801561065257600080fd5b506101f4611eed565b6101f4610669366004613a1f565b611efd565b60008061067a83611266565b905060008360405160200161069191815260200190565b60408051601f198184030181528282018252601a8352795f726563616c6c426f72726f776564426f6f6b732875696e742960301b6020848101919091526005549086015160c0870151935163f3e7a3b960e01b81529295506001600160a01b039091169263f3e7a3b99261070f929160009187918991600401613b31565b602060405180830381865afa15801561072c573d6000803e3d6000fd5b505050506040513d601f19601f820116820180604052508101906107509190613b7d565b156107675761075e85611fdb565b95945050505050565b506000949350505050565b60008061077f8484611434565b90508015610791576001915050610797565b60009150505b92915050565b60008515806107b357506001600160a01b038416155b806107c557506001600160a01b038516155b806107ce575082155b806107d95750828211155b156107f7576040516354f9d1b760e01b815260040160405180910390fd5b600061080687878787876113e4565b6000908152600a6020526040902054979650505050505050565b6001600160a01b03811660009081526003602052604081205480820361084a576000915050610918565b60005b81811015610911576001600160a01b0384166000908152600260209081526040808320848452909152902054861480156108b157506001600160a01b0384811660009081526002602090815260408083208584529091529020600301548116908616145b80156108ef57506001600160a01b0384166000908152600260209081526040808320848452909152902060030154600160a01b900460ff1615156001145b156108ff57600192505050610918565b8061090981613bb0565b91505061084d565b5060009150505b9392505050565b6001600160a01b038116600090815260036020526040812054808203610949576000915050610918565b60005b81811015610911576001600160a01b0384166000908152600260209081526040808320848452909152902054861480156109b057506001600160a01b0384811660009081526002602090815260408083208584529091529020600301548116908616145b156109c057600192505050610918565b806109ca81613bb0565b91505061094c565b3360009081526001602052604090205460609081811561079757816001600160401b03811115610a0457610a04613bc9565b604051908082528060200260200182016040528015610a3d57816020015b610a2a61349f565b815260200190600190039081610a225790505b509050610a4861349f565b60005b83811015610adb57336000908152602081815260408083208484528252918290208251608081018452815481526001820154928101929092526002810154928201929092526003909101546001600160a01b0316606082015283519092508290849083908110610abd57610abd613bdf565b60200260200101819052508080610ad390613bb0565b915050610a4b565b505092915050565b6000610aee84611266565b905082816080015110158015610b015750815b15610ba2576000848152600d602052604081206004018054859290610b27908490613bf5565b90915550506000848152600d60205260408120600401549003610b6557610b658160000151826020015183604001518460a001518560c00151612055565b6040808201516001600160a01b03166000908152600c60209081528282208451835290529081208054859290610b9c908490613bf5565b90915550505b81610c0a576000848152600d602052604081206004018054859290610bc8908490613c08565b90915550506040808201516001600160a01b03166000908152600c60209081528282208451835290529081208054859290610c04908490613c08565b90915550505b50505050565b600060015b600e548111610ccc576000818152600d6020908152604091829020825160e0810184528154815260018201546001600160a01b0390811693820193909352600282015483169381018490526003820154606082015260048201546080820152600582015460a082015260069091015460c082015291908516148015610c9a5750805185145b8015610ca95750428160c00151115b15610cb957600192505050610797565b5080610cc481613bb0565b915050610c15565b5060009392505050565b60606000610ce360095490565b6001600160401b03811115610cfa57610cfa613bc9565b604051908082528060200260200182016040528015610d3357816020015b610d206134d0565b815260200190600190039081610d185790505b50905060015b6009548111610dc8576000818152600860209081526040918290208251608081018452815481526001808301546001600160a01b03169382019390935260028201549381019390935260030154606083015281908490610d999085613bf5565b81518110610da957610da9613bdf565b6020026020010181905250508080610dc090613bb0565b915050610d39565b50919050565b6001600160a01b038116600090815260016020526040812054808203610df8576000915050610918565b60005b81811015610911576001600160a01b03841660009081526020818152604080832084845290915290205486148015610e5b57506001600160a01b038481166000908152602081815260408083208584529091529020600301548116908616145b15610e6b57600192505050610918565b80610e7581613bb0565b915050610dfb565b6000610e898583611434565b905080600003610eb45760405163d8bbd62160e01b8152600481018290526024015b60405180910390fd5b60008181526008602052604090206002018490558215610ee7576000818152600860205260409020600301839055610ef1565b610ef185836125d7565b5050505050565b336000908152600b6020526040812054606091816001600160401b03811115610f2357610f23613bc9565b604051908082528060200260200182016040528015610f5c57816020015b610f49613501565b815260200190600190039081610f415790505b509050600060015b600e54811161101f576000818152600d6020908152604091829020825160e0810184528154815260018201546001600160a01b039081169382019390935260028201549092169282018390526003810154606083015260048101546080830152600581015460a08301526006015460c08201529033900361100c5780848481518110610ff257610ff2613bdf565b6020026020010181905250828061100890613bb0565b9350505b508061101781613bb0565b915050610f64565b50909392505050565b6060806000611036600e5490565b111561114757600e546001600160401b0381111561105657611056613bc9565b60405190808252806020026020018201604052801561108f57816020015b61107c613501565b8152602001906001900390816110745790505b50905060015b600e548111610dc8576000818152600d6020908152604091829020825160e081018452815481526001808301546001600160a01b03908116948301949094526002830154909316938101939093526003810154606084015260048101546080840152600581015460a08401526006015460c0830152819084906111189085613bf5565b8151811061112857611128613bdf565b602002602001018190525050808061113f90613bb0565b915050611095565b919050565b3360009081526003602052604090205460609081811561079757816001600160401b0381111561117e5761117e613bc9565b6040519080825280602002602001820160405280156111b757816020015b6111a4613550565b81526020019060019003908161119c5790505b5090506111c2613550565b60005b83811015610adb57336000908152600260208181526040808420858552825292839020835160a081018552815481526001820154928101929092529182015492810192909252600301546001600160a01b0381166060830152600160a01b900460ff16151560808201528351909250829084908390811061124857611248613bdf565b6020026020010181905250808061125e90613bb0565b9150506111c5565b61126e613501565b506000908152600d6020908152604091829020825160e0810184528154815260018201546001600160a01b03908116938201939093526002820154909216928201929092526003820154606082015260048201546080820152600582015460a082015260069091015460c082015290565b6112e7613550565b6112f284848461091f565b61131257604051634c043de760e01b815260006004820152602401610eab565b6001600160a01b038216600090815260036020526040902054611333613550565b60005b828110156113da576001600160a01b038581166000908152600260208181526040808420868552825292839020835160a0810185528154815260018201549281019290925291820154928101929092526003015480831660608301819052600160a01b90910460ff16151560808301529093509087161480156113b95750815187145b156113c8575091506109189050565b806113d281613bb0565b915050611336565b5095945050505050565b604080516020808201979097526001600160a01b0395861681830152939094166060840152608083019190915260a0808301919091528251808303909101815260c0909101909152805191012090565b600082158061144a57506001600160a01b038216155b15611468576040516354f9d1b760e01b815260040160405180910390fd5b5060009182526006602090815260408084206001600160a01b0393909316845291905290205490565b60006114a0888888888861079d565b9050806000036114c65760405163d8bbd62160e01b815260048101829052602401610eab565b6114d3818484898b61273d565b5050505050505050565b60006114ec888888888861079d565b9050806000036115125760405163d8bbd62160e01b815260048101829052602401610eab565b600061151d82611266565b905083816080015110156115475760405163099f49a360e11b815260048101859052602401610eab565b6115548284868a8c6128a5565b505050505050505050565b6115676134d0565b5060009081526008602090815260409182902082516080810184528154815260018201546001600160a01b031692810192909252600281015492820192909252600390910154606082015290565b6115bd6134d0565b60006115c98484611434565b60009081526008602090815260409182902082516080810184528154815260018201546001600160a01b0316928101929092526002810154928201929092526003909101546060820152949350505050565b60006116278585611434565b90508060000361164857811561164357611643858585856129e7565b610ef1565b610ef185848487610e7d565b6000806116618484611434565b90506000811561168a576000828152600860205260409020600301546116879082613c08565b90505b949350505050565b6000846000036116b85760405163d8bbd62160e01b815260048101869052602401610eab565b6000858152600d60205260409020600201546001600160a01b038581169116146116f75783604051633992dcbd60e21b8152600401610eab9190613c1b565b6000858152600d60205260409020600101546001600160a01b038481169116146117365782604051633992dcbd60e21b8152600401610eab9190613c1b565b60006117438686866112df565b60200151905060006117568787876112df565b604001519050831561179a5781158061176d575080155b1561177d5760009250505061168a565b611788878787612ae9565b611795878383888a612c5d565b6117a5565b6117a5878787612d73565b509195945050505050565b60006117bf88888487876113e4565b6000818152600a602052604090205490915015611803576000818152600a60205260409081902054905163d8bbd62160e01b81526004810191909152602401610eab565b611811600e80546001019055565b600e54600a6000838152602001908152602001600020819055506040518060e00160405280898152602001886001600160a01b03168152602001836001600160a01b0316815260200187815260200186815260200185815260200184815250600d600061187d600e5490565b81526020808201929092526040908101600090812084518155848401516001820180546001600160a01b03199081166001600160a01b039384161790915586850151600284018054909216908316179055606086015160038301556080860151600483015560a0860151600583015560c0909501516006909101559285168352600b909152812080549161191083613bb0565b90915550506001600160a01b0382166000908152600c602090815260408083208b845290915281208054879290611948908490613c08565b90915550506005546001600160a01b0316634b9915a588600061196a600e5490565b60405160200161197c91815260200190565b604051602081830303815290604052876040518563ffffffff1660e01b81526004016119ab9493929190613c5c565b6020604051808303816000875af11580156119ca573d6000803e3d6000fd5b505050506040513d601f19601f820116820180604052508101906119ee9190613ca6565b50604080518981526001600160a01b038981166020830152841681830152606081018890526080810187905260a0810186905260c0810185905290517fec550619bfd16823d04f9b9716febb17bd3cc46a60e88f6a4a82a7b52b99a6209181900360e00190a15050505050505050565b611a66613501565b6000611a75878787878761079d565b6000908152600d6020908152604091829020825160e0810184528154815260018201546001600160a01b03908116938201939093526002820154909216928201929092526003820154606082015260048201546080820152600582015460a082015260069091015460c0820152979650505050505050565b611af561349f565b611b00848484610dce565b611b2057604051634091ca8360e11b815260006004820152602401610eab565b6001600160a01b038216600090815260016020526040902054611b4161349f565b60005b828110156113da576001600160a01b03808616600090815260208181526040808320858452825291829020825160808101845281548152600182015492810192909252600281015492820192909252600390910154821660608201819052909350908716148015611bb55750815187145b15611bc4575091506109189050565b80611bce81613bb0565b915050611b44565b6000611be3868686610dce565b8015611bf55750611bf5868587610820565b15611ee1576000611c07878787611aed565b6000888152600d6020908152604091829020825160e0810184528154815260018201546001600160a01b03908116938201939093526002820154909216928201929092526003820154606082015260048201546080820152600582015460a082015260069091015460c08201529091508315611e8e57600080611ca18360000151846020015185604001518660a001518760c001516113e4565b90508260c001518711611cc95783602001518360c00151611cc29190613c08565b9150611cdb565b6020840151611cd89088613c08565b91505b8260800151846040015103611e41576005546040805160208082018e9052825180830390910181528183019283905260c087015163450e705b60e11b9093526000936001600160a01b031692638a1ce0b692611d3d928f928792604401613c5c565b602060405180830381865afa158015611d5a573d6000803e3d6000fd5b505050506040513d601f19601f82011682018060405250810190611d7e9190613ca6565b60055460408051602081018f90529293506001600160a01b039091169163a14e44069184918e9160009101604051602081830303815290604052886040518663ffffffff1660e01b8152600401611dd9959493929190613cbf565b6020604051808303816000875af1158015611df8573d6000803e3d6000fd5b505050506040513d601f19601f82011682018060405250810190611e1c9190613b7d565b506000611e3085600001518c8c8c886113e4565b9050611e3e83828b87613088565b50505b826080015184604001511015611e8b57611e6c83600001518a856060015187604001518b878e6117b0565b60808301516040850151611e8b918391611e869082613bf5565b6130d5565b50505b611e99888789612d73565b611ea48888886131ad565b6000600454836020015184604001518460600151611ec29190613d10565b611ecc9190613d10565b611ed69190613d27565b935061075e92505050565b50600095945050505050565b6000611ef8600e5490565b905090565b600080611f0a8989611434565b905080600003611f305760405163d8bbd62160e01b815260048101829052602401610eab565b600454600090611f408787613bf5565b611f4a898b613d10565b611f549190613d10565b611f5e9190613d27565b90506000611f6c8b8b6115b5565b90508060600151891180611f7e575088155b15611f9f5760405163099f49a360e11b8152600481018a9052602401610eab565b611fae8b8b8a8c8b8b8b6117b0565b611fcd8b82604001518b8460600151611fc79190613bf5565b8d610e7d565b509998505050505050505050565b600080611fe783611266565b80519091501561204c576120128160000151826020015183604001518460a001518560c00151612055565b82156120435761202b8382602001518360400151610dce565b156120435761204383826020015183604001516131ad565b50600192915050565b50600092915050565b6000612064868686868661079d565b90506000612071600e5490565b90506000600d60008381526020019081526020016000206040518060e0016040529081600082015481526020016001820160009054906101000a90046001600160a01b03166001600160a01b03166001600160a01b031681526020016002820160009054906101000a90046001600160a01b03166001600160a01b03166001600160a01b0316815260200160038201548152602001600482015481526020016005820154815260200160068201548152505090506000600d60008581526020019081526020016000206040518060e0016040529081600082015481526020016001820160009054906101000a90046001600160a01b03166001600160a01b03166001600160a01b031681526020016002820160009054906101000a90046001600160a01b03166001600160a01b03166001600160a01b03168152602001600382015481526020016004820154815260200160058201548152602001600682015481525050905060006121e68a8a8a8a8a6113e4565b9050600061220b8460000151856020015186604001518760a001518860c001516113e4565b600554602085810151604080518084018c9052815180820390940184528082019182905260c089015163450e705b60e11b9092529495506000946001600160a01b0390941693638a1ce0b69361226693928792604401613c5c565b602060405180830381865afa158015612283573d6000803e3d6000fd5b505050506040513d601f19601f820116820180604052508101906122a79190613ca6565b60055460405163c4d252f560e01b8152600481018390529192506001600160a01b03169063c4d252f590602401600060405180830381600087803b1580156122ee57600080fd5b505af1158015612302573d6000803e3d6000fd5b50505050866000146125c9578686146124ec57600554602086810151604080518084018b9052815180820390940184528082019182905260c08a015163450e705b60e11b9092526001600160a01b0390941693638a1ce0b69361236b9392600092604401613c5c565b602060405180830381865afa158015612388573d6000803e3d6000fd5b505050506040513d601f19601f820116820180604052508101906123ac9190613ca6565b9050600560009054906101000a90046001600160a01b03166001600160a01b031663a14e440682876020015160008b6040516020016123ed91815260200190565b60408051601f198184030181529082905260c08c01516001600160e01b031960e088901b16835261242395949392600401613cbf565b6020604051808303816000875af1158015612442573d6000803e3d6000fd5b505050506040513d601f19601f820116820180604052508101906124669190613b7d565b506000828152600a602090815260408083208a9055898352600d82529182902087518155908701516001820180546001600160a01b03199081166001600160a01b039384161790915592880151600283018054909416911617909155606086015160038201556080860151600482015560a0860151600582015560c08601516006909101555b6124f6600e61344a565b6001600160a01b038a166000908152600b6020526040812080549161251a83613d49565b91905055508360800151600c60008c6001600160a01b03166001600160a01b0316815260200190815260200160002060008e815260200190815260200160002060008282546125699190613bf5565b90915550506000838152600a60209081526040808320839055888352600d90915281208181556001810180546001600160a01b03199081169091556002820180549091169055600381018290556004810182905560058101829055600601555b505050505050505050505050565b60006125e38383611434565b905060006125f060095490565b6000818152600860209081526040918290208251608081018452815480825260018301546001600160a01b031693820184905260028301549482019490945260039091015460608201529293508415612734578484146126b15760008281526006602090815260408083206001600160a01b038581168552908352818420899055888452600883529281902086518155918601516001830180546001600160a01b031916919094161790925590840151600282015560608401516003909101555b6126bb600961344a565b6001600160a01b03861660009081526007602052604081208054916126df83613d49565b909155505060008781526006602090815260408083206001600160a01b038a1684528252808320839055868352600890915281208181556001810180546001600160a01b031916905560028101829055600301555b50505050505050565b6001600160a01b0381166000908152600360205260408120549081900361277a57604051632e7eb64760e01b815260048101829052602401610eab565b612782613550565b60005b828110156114d3576001600160a01b038481166000908152600260208181526040808420868552825292839020835160a081018552815480825260018301549382019390935292810154938301939093526003909201549283166060820152600160a01b90920460ff16151560808301529092508814801561281c5750846001600160a01b031682606001516001600160a01b0316145b15612893578160200151861115612857576001600160a01b038416600090815260026020908152604080832084845290915290206001018690555b8160400151871461288b576001600160a01b0384166000908152600260208181526040808420858552909152909120018790555b505050610ef1565b8061289d81613bb0565b915050612785565b6128b085838361091f565b156128d157604051634c043de760e01b815260016004820152602401610eab565b6001600160a01b0380821660008181526003602081815260408084208054825160a0810184528d81528085018d81528185018d81528c8b1660608401908152608084018a81528b8b526002808a52888c20878d528a52978b209451855592516001858101919091559151968401969096559451918701805491511515600160a01b026001600160a81b031990921692909a169190911717909755948452919052825490929190612982908490613c08565b909155505060408051878152602081018790529081018590526001600160a01b0384166060820152600060808201527f0e9848b891f9895b360a0a69fb3f874b563837f7cc945c69948551068ecde2b79060a0015b60405180910390a1505050505050565b6129f5600980546001019055565b60095460008581526006602090815260408083206001600160a01b0388811680865291845282852086905582516080810184528a81528085018381528185018a8152606083018a8152988852600887528588209251835590516001830180546001600160a01b031916919094161790925590516002820155945160039095019490945592825260079052908120805491612a8e83613bb0565b9091555050604080518581526001600160a01b0385166020820152908101839052606081018290527fe660bce9b99159f335d00feacb0cd1b1ab0b22b5ff32b0e58780ae26df227beb9060800160405180910390a150505050565b6001600160a01b03811660009081526003602052604081205490819003612b2657604051632e7eb64760e01b815260048101829052602401610eab565b612b2e613550565b60005b82811015612c55576001600160a01b038481166000908152600260208181526040808420868552825292839020835160a0810185528154815260018201549281019290925291820154928101929092526003015480831660608301819052600160a01b90910460ff1615156080830152909350908616148015612bb45750815186145b15612c43576001600160a01b0384166000908152600260209081526040808320848452909152902060030154600160a01b900460ff1615612c0b576040516326c50dd560e01b815260016004820152602401610eab565b6001600160a01b03841660009081526002602090815260408083208484529091529020600301805460ff60a01b1916600160a01b1790555b80612c4d81613bb0565b915050612b31565b505050505050565b612c68858383610dce565b15612c8957604051634091ca8360e11b815260016004820152602401610eab565b6001600160a01b038181166000818152600160208181526040808420805482516080810184528d81528085018d81528185018d81528c8b16606084019081528a8a52898852868a20858b528852958920925183559051828801555160028201559251600390930180546001600160a01b0319169390981692909217909655938352819052835492939092909190612d21908490613c08565b909155505060408051878152602081018790529081018590526001600160a01b03841660608201527fa8ea443240aedfe35cf201f5f749deea34b19e3b9e56dcf636feba5afddd7360906080016129d7565b6001600160a01b0381166000908152600360205260409020548015610c0a57612d9a613550565b60005b82811015612c55576001600160a01b038481166000908152600260208181526040808420868552825292839020835160a081018552815480825260018301549382019390935292810154938301939093526003909201549283166060820152600160a01b90920460ff161515608083015290925086148015612e345750846001600160a01b031682606001516001600160a01b0316145b15613076576001600160a01b038416600090815260036020526040812054612e5e90600190613bf5565b9050600060026000876001600160a01b03166001600160a01b0316815260200190815260200160002060008381526020019081526020016000206040518060a00160405290816000820154815260200160018201548152602001600282015481526020016003820160009054906101000a90046001600160a01b03166001600160a01b03166001600160a01b031681526020016003820160149054906101000a900460ff16151515158152505090508060026000886001600160a01b03166001600160a01b03168152602001908152602001600020600085815260200190815260200160002060008201518160000155602082015181600101556040820151816002015560608201518160030160006101000a8154816001600160a01b0302191690836001600160a01b0316021790555060808201518160030160146101000a81548160ff02191690831515021790555090505060026000876001600160a01b03166001600160a01b031681526020019081526020016000206000838152602001908152602001600020600080820160009055600182016000905560028201600090556003820160006101000a8154906001600160a01b0302191690556003820160146101000a81549060ff02191690555050600160036000886001600160a01b03166001600160a01b0316815260200190815260200160002060008282546130679190613bf5565b90915550505050505050505050565b8061308081613bb0565b915050612d9d565b6000848152600a60205260409020548015610ef1576000948552600a60209081526040808720879055948652848620829055908552600d9052919092206005810192909255600690910155565b6000838152600a60205260409020548015610c0a576000818152600d602052604090206004810183905580546002909101546001600160a01b03168385111561315b576131228486613bf5565b6001600160a01b0382166000908152600c6020908152604080832086845290915281208054909190613155908490613bf5565b90915550505b83851015612c555761316d8585613bf5565b6001600160a01b0382166000908152600c60209081526040808320868452909152812080549091906131a0908490613c08565b9091555050505050505050565b6001600160a01b0381166000908152600160205260409020548015610c0a576131d461349f565b60005b82811015612c55576001600160a01b03808516600090815260208181526040808320858452825291829020825160808101845281548082526001830154938201939093526002820154938101939093526003015490921660608201529250861480156132585750846001600160a01b031682606001516001600160a01b0316145b15613438576001600160a01b03841660009081526001602081905260408220546132829190613bf5565b90506000806000876001600160a01b03166001600160a01b0316815260200190815260200160002060008381526020019081526020016000206040518060800160405290816000820154815260200160018201548152602001600282015481526020016003820160009054906101000a90046001600160a01b03166001600160a01b03166001600160a01b031681525050905080600080886001600160a01b03166001600160a01b03168152602001908152602001600020600085815260200190815260200160002060008201518160000155602082015181600101556040820151816002015560608201518160030160006101000a8154816001600160a01b0302191690836001600160a01b03160217905550905050600080876001600160a01b03166001600160a01b031681526020019081526020016000206000838152602001908152602001600020600080820160009055600182016000905560028201600090556003820160006101000a8154906001600160a01b03021916905550506001806000886001600160a01b03166001600160a01b0316815260200190815260200160002060008282546130679190613bf5565b8061344281613bb0565b9150506131d7565b8054806134975760405162461bcd60e51b815260206004820152601b60248201527a436f756e7465723a2064656372656d656e74206f766572666c6f7760281b6044820152606401610eab565b600019019055565b604051806080016040528060008152602001600081526020016000815260200160006001600160a01b031681525090565b60405180608001604052806000815260200160006001600160a01b0316815260200160008152602001600081525090565b6040518060e001604052806000815260200160006001600160a01b0316815260200160006001600160a01b03168152602001600081526020016000815260200160008152602001600081525090565b6040518060a0016040528060008152602001600081526020016000815260200160006001600160a01b031681526020016000151581525090565b80356001600160a01b038116811461114757600080fd5b6000602082840312156135b357600080fd5b6109188261358a565b6000602082840312156135ce57600080fd5b5035919050565b600080604083850312156135e857600080fd5b823591506135f86020840161358a565b90509250929050565b600080600080600060a0868803121561361957600080fd5b853594506136296020870161358a565b93506136376040870161358a565b94979396509394606081013594506080013592915050565b60008060006060848603121561366457600080fd5b833592506136746020850161358a565b91506136826040850161358a565b90509250925092565b8051825260208082015190830152604080820151908301526060908101516001600160a01b0316910152565b6020808252825182820181905260009190848201906040850190845b818110156136f9576136e683855161368b565b92840192608092909201916001016136d3565b50909695505050505050565b801515811461371357600080fd5b50565b60008060006060848603121561372b57600080fd5b8335925060208401359150604084013561374481613705565b809150509250925092565b805182526020808201516001600160a01b03169083015260408082015190830152606090810151910152565b6020808252825182820181905260009190848201906040850190845b818110156136f9576137aa83855161374f565b9284019260809290920191600101613797565b600080600080608085870312156137d357600080fd5b8435935060208501359250604085013591506137f16060860161358a565b905092959194509250565b80518252602081015160018060a01b0380821660208501528060408401511660408501525050606081015160608301526080810151608083015260a081015160a083015260c081015160c08301525050565b6020808252825182820181905260009190848201906040850190845b818110156136f95761387d8385516137fc565b9284019260e0929092019160010161386a565b8051825260208082015190830152604080820151908301526060808201516001600160a01b0316908301526080908101511515910152565b6020808252825182820181905260009190848201906040850190845b818110156136f9576138f7838551613890565b9284019260a092909201916001016138e4565b60e0810161079782846137fc565b60a081016107978284613890565b600080600080600080600060e0888a03121561394157600080fd5b873596506139516020890161358a565b955061395f6040890161358a565b969995985095966060810135965060808101359560a0820135955060c0909101359350915050565b60808101610797828461374f565b600080600080608085870312156139ab57600080fd5b843593506139bb6020860161358a565b93969395505050506040820135916060013590565b600080600080608085870312156139e657600080fd5b843593506139f66020860161358a565b9250613a046040860161358a565b91506060850135613a1481613705565b939692955090935050565b600080600080600080600060e0888a031215613a3a57600080fd5b87359650613a4a6020890161358a565b955060408801359450606088013593506080880135925060a08801359150613a7460c0890161358a565b905092959891949750929550565b60808101610797828461368b565b600080600080600060a08688031215613aa857600080fd5b85359450613ab86020870161358a565b9350613ac66040870161358a565b9250606086013591506080860135613add81613705565b809150509295509295909350565b6000815180845260005b81811015613b1157602081850181015186830182015201613af5565b506000602082860101526020601f19601f83011685010191505092915050565b60018060a01b038616815284602082015260a060408201526000613b5860a0830186613aeb565b8281036060840152613b6a8186613aeb565b9150508260808301529695505050505050565b600060208284031215613b8f57600080fd5b815161091881613705565b634e487b7160e01b600052601160045260246000fd5b600060018201613bc257613bc2613b9a565b5060010190565b634e487b7160e01b600052604160045260246000fd5b634e487b7160e01b600052603260045260246000fd5b8181038181111561079757610797613b9a565b8082018082111561079757610797613b9a565b6001600160a01b0391909116815260200190565b601a8152795f726563616c6c426f72726f776564426f6f6b732875696e742960301b602082015260400190565b60018060a01b038516815283602082015260a060408201526000613c8260a08301613c2f565b8281036060840152613c948186613aeb565b91505082608083015295945050505050565b600060208284031215613cb857600080fd5b5051919050565b85815260018060a01b038516602082015283604082015260c060608201526000613ceb60c08301613c2f565b8281036080840152613cfd8186613aeb565b9150508260a08301529695505050505050565b808202811582820484141761079757610797613b9a565b600082613d4457634e487b7160e01b600052601260045260246000fd5b500490565b600081613d5857613d58613b9a565b50600019019056fea26469706673582212208e3fcb70bce244195031bed980008ae65797b13eebf9b31545e816eb289eae5664736f6c63430008110033",
  "immutableReferences": {},
  "source": "// SPDX-License-Identifier: MIT\r\npragma solidity >=0.4.22 <0.9.0;\r\nimport \"@openzeppelin/contracts/utils/Counters.sol\";\r\n\r\nimport \"../utils/Timelock.sol\";\r\nimport \"../utils/ExtendTime.sol\";\r\nimport \"../utils/Error.sol\";\r\n\r\ncontract BookRentingStorage is ExtendTime {\r\n  using Counters for Counters.Counter;\r\n\r\n  struct LendBook {\r\n    uint256 tokenId;\r\n    address renter;\r\n    uint price; // ETH/book/1week\r\n    uint amount;\r\n  }\r\n\r\n  struct BorrowedBook {\r\n    uint256 tokenId;\r\n    address renter;\r\n    address borrower;\r\n    uint price;\r\n    uint amount;\r\n    uint startTime;\r\n    uint endTime;\r\n  }\r\n\r\n  event LendBookCreated(uint tokenId, address renter, uint price, uint amount);\r\n\r\n  event BorrowedBookCreated(\r\n    uint tokenId,\r\n    address renter,\r\n    address borrower,\r\n    uint price,\r\n    uint amount,\r\n    uint startTime,\r\n    uint endTime\r\n  );\r\n\r\n  uint MIN_TIME = 604800;\r\n\r\n  TimeLock private _timelock;\r\n\r\n  // Variable for Lend Books\r\n  mapping(uint => mapping(address => uint)) _allLendBook; // (tokenID -> (renter -> ID))\r\n  mapping(address => uint) private _totalOwnedLendBook;\r\n  mapping(uint => LendBook) private _idToLendBook; // (ID -> LendBook))\r\n  Counters.Counter private _lendBooks;\r\n\r\n  // These variables will manage which books are borrowed\r\n  // hashId -> id BorrowedBook\r\n  // hashId = hash(tokenId, renter, borrower, startTime, endTime)\r\n  mapping(bytes32 => uint) _allBorrowedBook;\r\n  mapping(address => uint) private _totalOwnedBorrowedBook;\r\n  // Borrower => (tokenId => amount)\r\n  mapping(address => mapping(uint => uint)) private _amountOwnedBorrowedBooks;\r\n  mapping(uint => BorrowedBook) private _idToBorrowedBook; // (ID -> BorrowedBook))\r\n  Counters.Counter private _borrowedBooks;\r\n\r\n  constructor(TimeLock timelock) {\r\n    _timelock = timelock;\r\n  }\r\n\r\n  // ===================================L============================================\r\n  function isLending(uint tokenId, address renter) public view returns (bool) {\r\n    uint idLendBook = getIdLendBook(tokenId, renter);\r\n    if (idLendBook > 0) {\r\n      return true;\r\n    } else {\r\n      return false;\r\n    }\r\n  }\r\n\r\n  function getLendBook(\r\n    uint tokenId,\r\n    address renter\r\n  ) public view returns (LendBook memory) {\r\n    uint idLendBook = getIdLendBook(tokenId, renter);\r\n    return _idToLendBook[idLendBook];\r\n  }\r\n\r\n  function getLendBookFromId(uint id) public view returns (LendBook memory) {\r\n    return _idToLendBook[id];\r\n  }\r\n\r\n  function getTotalOwnedLendBook(address renter) public view returns (uint) {\r\n    return _totalOwnedLendBook[renter];\r\n  }\r\n\r\n  function _createLendBook(\r\n    uint tokenId,\r\n    address renter,\r\n    uint256 price,\r\n    uint amount\r\n  ) private {\r\n    _lendBooks.increment();\r\n    _allLendBook[tokenId][renter] = _lendBooks.current();\r\n    _idToLendBook[_lendBooks.current()] = LendBook(\r\n      tokenId,\r\n      renter,\r\n      price,\r\n      amount\r\n    );\r\n    _totalOwnedLendBook[renter]++;\r\n    emit LendBookCreated(tokenId, renter, price, amount);\r\n  }\r\n\r\n  function getIdLendBook(\r\n    uint tokenId,\r\n    address renter\r\n  ) public view returns (uint) {\r\n    if (tokenId == 0 || renter == address(0)) {\r\n      revert Error.InvalidParamsError();\r\n    }\r\n    return _allLendBook[tokenId][renter];\r\n  }\r\n\r\n  function getAmountOfLendBooks(\r\n    uint256 tokenId,\r\n    address owner\r\n  ) public view returns (uint) {\r\n    uint idLendBook = getIdLendBook(tokenId, owner);\r\n\r\n    uint totalBook = 0;\r\n    if (idLendBook != 0) {\r\n      totalBook += _idToLendBook[idLendBook].amount;\r\n    }\r\n\r\n    return totalBook;\r\n  }\r\n\r\n  function _removeItemFromAllLendBooks(uint tokenId, address renter) private {\r\n    uint idLendBook = getIdLendBook(tokenId, renter);\r\n    uint lastIdLendBook = _lendBooks.current();\r\n    LendBook memory lastLendBook = _idToLendBook[lastIdLendBook];\r\n    uint lastTokenId = lastLendBook.tokenId;\r\n    address lastRenter = lastLendBook.renter;\r\n    if (idLendBook != 0) {\r\n      if (lastIdLendBook != idLendBook) {\r\n        _allLendBook[lastTokenId][lastRenter] = idLendBook;\r\n        _idToLendBook[idLendBook] = lastLendBook;\r\n      }\r\n\r\n      _lendBooks.decrement();\r\n      _totalOwnedLendBook[renter]--;\r\n      delete _allLendBook[tokenId][renter];\r\n      delete _idToLendBook[lastIdLendBook];\r\n    }\r\n  }\r\n\r\n  function updateLendBookFromRenting(\r\n    uint256 tokenId,\r\n    uint newPrice,\r\n    uint256 newAmount,\r\n    address renter\r\n  ) public {\r\n    uint idLendBook = getIdLendBook(tokenId, renter);\r\n    if (idLendBook == 0) {\r\n      revert Error.InvalidIdError(idLendBook);\r\n    }\r\n\r\n    _idToLendBook[idLendBook].price = newPrice;\r\n\r\n    if (newAmount != 0) {\r\n      _idToLendBook[idLendBook].amount = newAmount;\r\n    } else {\r\n      _removeItemFromAllLendBooks(tokenId, renter);\r\n    }\r\n  }\r\n\r\n  function getAllLendBooks() public view returns (LendBook[] memory) {\r\n    LendBook[] memory books = new LendBook[](_lendBooks.current());\r\n\r\n    for (uint i = 1; i <= _lendBooks.current(); i++) {\r\n      LendBook memory book = _idToLendBook[i];\r\n      books[i - 1] = book;\r\n    }\r\n\r\n    return books;\r\n  }\r\n\r\n  function lendBooks(\r\n    uint256 tokenId,\r\n    address renter,\r\n    uint price,\r\n    uint256 amount\r\n  ) public payable {\r\n    uint idLendBook = getIdLendBook(tokenId, renter);\r\n    if (idLendBook == 0) {\r\n      if (amount > 0) {\r\n        _createLendBook(tokenId, renter, price, amount);\r\n      }\r\n    } else {\r\n      updateLendBookFromRenting(tokenId, price, amount, renter);\r\n    }\r\n  }\r\n\r\n  // ===================================Borrowing============================================\r\n  function getTotalBorrowedBooksOnBorrowing() public view returns (uint) {\r\n    return _borrowedBooks.current();\r\n  }\r\n\r\n  function getHashIdForBorrowedBook(\r\n    uint tokenId,\r\n    address renter,\r\n    address borrower,\r\n    uint startTime,\r\n    uint endTime\r\n  ) public pure returns (bytes32) {\r\n    return keccak256(abi.encode(tokenId, renter, borrower, startTime, endTime));\r\n  }\r\n\r\n  function getBorrowedBook(\r\n    uint tokenId,\r\n    address renter,\r\n    address borrower,\r\n    uint startTime,\r\n    uint endTime\r\n  ) public view returns (BorrowedBook memory) {\r\n    uint idBorrowedBook = getIdBorrowedBook(\r\n      tokenId,\r\n      renter,\r\n      borrower,\r\n      startTime,\r\n      endTime\r\n    );\r\n    return _idToBorrowedBook[idBorrowedBook];\r\n  }\r\n\r\n  function getBorrowedBookFromId(\r\n    uint id\r\n  ) public view returns (BorrowedBook memory) {\r\n    return _idToBorrowedBook[id];\r\n  }\r\n\r\n  function getTotalOwnedBorrowedBook(\r\n    address borrower\r\n  ) public view returns (uint) {\r\n    return _totalOwnedBorrowedBook[borrower];\r\n  }\r\n\r\n  function createBorrowedBook(\r\n    uint tokenId,\r\n    address renter,\r\n    uint256 price,\r\n    uint amount,\r\n    uint startTime,\r\n    uint endTime,\r\n    address borrower\r\n  ) public {\r\n    bytes32 hashId = getHashIdForBorrowedBook(\r\n      tokenId,\r\n      renter,\r\n      borrower,\r\n      startTime,\r\n      endTime\r\n    );\r\n    if (_allBorrowedBook[hashId] != 0) {\r\n      revert Error.InvalidIdError(_allBorrowedBook[hashId]);\r\n    }\r\n    _borrowedBooks.increment();\r\n    _allBorrowedBook[hashId] = _borrowedBooks.current();\r\n    _idToBorrowedBook[_borrowedBooks.current()] = BorrowedBook(\r\n      tokenId,\r\n      renter,\r\n      borrower,\r\n      price,\r\n      amount,\r\n      startTime,\r\n      endTime\r\n    );\r\n    _totalOwnedBorrowedBook[borrower]++;\r\n    _amountOwnedBorrowedBooks[borrower][tokenId] += amount;\r\n    _timelock.queue(\r\n      renter,\r\n      0,\r\n      \"_recallBorrowedBooks(uint)\",\r\n      abi.encodePacked(_borrowedBooks.current()),\r\n      endTime\r\n    );\r\n    emit BorrowedBookCreated(\r\n      tokenId,\r\n      renter,\r\n      borrower,\r\n      price,\r\n      amount,\r\n      startTime,\r\n      endTime\r\n    );\r\n  }\r\n\r\n  function getIdBorrowedBook(\r\n    uint tokenId,\r\n    address renter,\r\n    address borrower,\r\n    uint startTime,\r\n    uint endTime\r\n  ) public view returns (uint) {\r\n    if (\r\n      tokenId == 0 ||\r\n      borrower == address(0) ||\r\n      renter == address(0) ||\r\n      startTime == 0 ||\r\n      endTime <= startTime\r\n    ) {\r\n      revert Error.InvalidParamsError();\r\n    }\r\n\r\n    bytes32 hashId = getHashIdForBorrowedBook(\r\n      tokenId,\r\n      renter,\r\n      borrower,\r\n      startTime,\r\n      endTime\r\n    );\r\n    return _allBorrowedBook[hashId];\r\n  }\r\n\r\n  function _removeItemFromAllBorrowedBooks(\r\n    uint tokenId,\r\n    address renter,\r\n    address borrower,\r\n    uint startTime,\r\n    uint endTime\r\n  ) private {\r\n    uint idBorrowedBook = getIdBorrowedBook(\r\n      tokenId,\r\n      renter,\r\n      borrower,\r\n      startTime,\r\n      endTime\r\n    );\r\n    uint lastIdBorrowedBook = _borrowedBooks.current();\r\n    BorrowedBook memory lastBorrowedBook = _idToBorrowedBook[\r\n      lastIdBorrowedBook\r\n    ];\r\n    BorrowedBook memory borrowedBook = _idToBorrowedBook[idBorrowedBook];\r\n    bytes32 hashId = getHashIdForBorrowedBook(\r\n      tokenId,\r\n      renter,\r\n      borrower,\r\n      startTime,\r\n      endTime\r\n    );\r\n\r\n    bytes32 hashLastId = getHashIdForBorrowedBook(\r\n      lastBorrowedBook.tokenId,\r\n      lastBorrowedBook.renter,\r\n      lastBorrowedBook.borrower,\r\n      lastBorrowedBook.startTime,\r\n      lastBorrowedBook.endTime\r\n    );\r\n    bytes32 txId = _timelock.getTxId(\r\n      borrowedBook.renter,\r\n      0,\r\n      \"_recallBorrowedBooks(uint)\",\r\n      abi.encodePacked(idBorrowedBook),\r\n      borrowedBook.endTime\r\n    );\r\n    _timelock.cancel(txId);\r\n    if (idBorrowedBook != 0) {\r\n      if (lastIdBorrowedBook != idBorrowedBook) {\r\n        txId = _timelock.getTxId(\r\n          lastBorrowedBook.renter,\r\n          0,\r\n          \"_recallBorrowedBooks(uint)\",\r\n          abi.encodePacked(lastIdBorrowedBook),\r\n          lastBorrowedBook.endTime\r\n        );\r\n\r\n        _timelock.update(\r\n          txId,\r\n          lastBorrowedBook.renter,\r\n          0,\r\n          \"_recallBorrowedBooks(uint)\",\r\n          abi.encodePacked(idBorrowedBook),\r\n          lastBorrowedBook.endTime\r\n        );\r\n        _allBorrowedBook[hashLastId] = idBorrowedBook;\r\n        _idToBorrowedBook[idBorrowedBook] = lastBorrowedBook;\r\n      }\r\n\r\n      _borrowedBooks.decrement();\r\n      _totalOwnedBorrowedBook[borrower]--;\r\n      _amountOwnedBorrowedBooks[borrower][tokenId] -= borrowedBook.amount;\r\n      delete _allBorrowedBook[hashId];\r\n      delete _idToBorrowedBook[lastIdBorrowedBook];\r\n    }\r\n  }\r\n\r\n  // Only update time\r\n  function _updateTimeBorrowedBookFromBorrowing(\r\n    bytes32 oldHashId,\r\n    bytes32 newHashId,\r\n    uint newStartTime,\r\n    uint newEndTime\r\n  ) private {\r\n    uint idBorrowedBook = _allBorrowedBook[oldHashId];\r\n    if (idBorrowedBook != 0) {\r\n      delete _allBorrowedBook[oldHashId];\r\n      _allBorrowedBook[newHashId] = idBorrowedBook;\r\n      _idToBorrowedBook[idBorrowedBook].startTime = newStartTime;\r\n      _idToBorrowedBook[idBorrowedBook].endTime = newEndTime;\r\n    }\r\n  }\r\n\r\n  function _updateAmountBorrowedBookFromBorrowingWithHashId(\r\n    bytes32 hashId,\r\n    uint oldAmount,\r\n    uint newAmount\r\n  ) private {\r\n    uint idBorrowedBook = _allBorrowedBook[hashId];\r\n    if (idBorrowedBook != 0) {\r\n      _idToBorrowedBook[idBorrowedBook].amount = newAmount;\r\n      uint tokenId = _idToBorrowedBook[idBorrowedBook].tokenId;\r\n      address borrower = _idToBorrowedBook[idBorrowedBook].borrower;\r\n      if (oldAmount > newAmount) {\r\n        _amountOwnedBorrowedBooks[borrower][tokenId] -= (oldAmount - newAmount);\r\n      }\r\n      if (oldAmount < newAmount) {\r\n        _amountOwnedBorrowedBooks[borrower][tokenId] += (newAmount - oldAmount);\r\n      }\r\n    }\r\n  }\r\n\r\n  function updateAmountBorrowedBookFromBorrowing(\r\n    uint idBorrowedBook,\r\n    uint amount,\r\n    bool isDecrease\r\n  ) public {\r\n    BorrowedBook memory borrowedBook = getBorrowedBookFromId(idBorrowedBook);\r\n    if (borrowedBook.amount >= amount && isDecrease) {\r\n      _idToBorrowedBook[idBorrowedBook].amount -= amount;\r\n      if (_idToBorrowedBook[idBorrowedBook].amount == 0) {\r\n        _removeItemFromAllBorrowedBooks(\r\n          borrowedBook.tokenId,\r\n          borrowedBook.renter,\r\n          borrowedBook.borrower,\r\n          borrowedBook.startTime,\r\n          borrowedBook.endTime\r\n        );\r\n      }\r\n      _amountOwnedBorrowedBooks[borrowedBook.borrower][\r\n        borrowedBook.tokenId\r\n      ] -= amount;\r\n    }\r\n\r\n    if (!isDecrease) {\r\n      _idToBorrowedBook[idBorrowedBook].amount += amount;\r\n      _amountOwnedBorrowedBooks[borrowedBook.borrower][\r\n        borrowedBook.tokenId\r\n      ] += amount;\r\n    }\r\n  }\r\n\r\n  function getAmountOfBorrowedBooks(\r\n    uint256 tokenId,\r\n    address owner\r\n  ) public view returns (uint) {\r\n    return _amountOwnedBorrowedBooks[owner][tokenId];\r\n  }\r\n\r\n  function getOwnedBorrowedBooks() public view returns (BorrowedBook[] memory) {\r\n    uint totalBorrowedBook = _totalOwnedBorrowedBook[msg.sender];\r\n    BorrowedBook[] memory borrowedBooks = new BorrowedBook[](totalBorrowedBook);\r\n\r\n    uint currentIndex = 0;\r\n    for (uint i = 1; i <= _borrowedBooks.current(); i++) {\r\n      BorrowedBook memory book = _idToBorrowedBook[i];\r\n      if (book.borrower == msg.sender) {\r\n        borrowedBooks[currentIndex] = book;\r\n        currentIndex++;\r\n      }\r\n    }\r\n\r\n    return borrowedBooks;\r\n  }\r\n\r\n  function isBorrowedBookReadable(\r\n    uint tokenId,\r\n    address owner\r\n  ) public view returns (bool) {\r\n    for (uint i = 1; i <= _borrowedBooks.current(); i++) {\r\n      BorrowedBook memory book = _idToBorrowedBook[i];\r\n      if (\r\n        book.borrower == owner &&\r\n        book.tokenId == tokenId &&\r\n        book.endTime > block.timestamp\r\n      ) {\r\n        return true;\r\n      }\r\n    }\r\n\r\n    return false;\r\n  }\r\n\r\n  function borrowBooks(\r\n    uint256 tokenId,\r\n    address renter,\r\n    uint256 amount,\r\n    uint256 price,\r\n    uint startTime,\r\n    uint endTime,\r\n    address borrower\r\n  ) public payable returns (uint256) {\r\n    uint idLendBook = getIdLendBook(tokenId, renter);\r\n    if (idLendBook == 0) {\r\n      revert Error.InvalidIdError(idLendBook);\r\n    }\r\n    uint totalPrice = (amount * price * (endTime - startTime)) / MIN_TIME;\r\n\r\n    // if (value != totalPrice) {\r\n    //   revert Error.InvalidValueError(value);\r\n    // }\r\n\r\n    LendBook memory lendBook = getLendBook(tokenId, renter);\r\n\r\n    if (amount > lendBook.amount || amount <= 0) {\r\n      revert Error.InvalidAmountError(amount);\r\n    }\r\n\r\n    createBorrowedBook(\r\n      tokenId,\r\n      renter,\r\n      price,\r\n      amount,\r\n      startTime,\r\n      endTime,\r\n      borrower\r\n    );\r\n    updateLendBookFromRenting(\r\n      tokenId,\r\n      lendBook.price,\r\n      lendBook.amount - amount,\r\n      renter\r\n    );\r\n\r\n    return totalPrice;\r\n  }\r\n\r\n  function requestExtendTimeOfBorrowedBooks(\r\n    uint256 tokenId,\r\n    address renter,\r\n    address borrower,\r\n    uint startTime,\r\n    uint endTime,\r\n    uint extendedAmount,\r\n    uint extendedTime\r\n  ) public {\r\n    uint id = getIdBorrowedBook(tokenId, renter, borrower, startTime, endTime);\r\n    if (id == 0) {\r\n      revert Error.InvalidIdError(id);\r\n    }\r\n    BorrowedBook memory borrowedBook = getBorrowedBookFromId(id);\r\n    if (borrowedBook.amount < extendedAmount) {\r\n      revert Error.InvalidAmountError(extendedAmount);\r\n    }\r\n    _createRequest(id, extendedTime, extendedAmount, borrower, renter);\r\n  }\r\n\r\n  function updateRequestOfBorrowedBooks(\r\n    uint256 tokenId,\r\n    address renter,\r\n    address borrower,\r\n    uint startTime,\r\n    uint endTime,\r\n    uint newExtendedAmount,\r\n    uint newExtendedTime\r\n  ) public {\r\n    uint id = getIdBorrowedBook(tokenId, renter, borrower, startTime, endTime);\r\n    if (id == 0) {\r\n      revert Error.InvalidIdError(id);\r\n    }\r\n    _updateRequest(id, newExtendedAmount, newExtendedTime, borrower, renter);\r\n  }\r\n\r\n  function doAcceptRequestAndCreateResponse(\r\n    uint id,\r\n    address borrower,\r\n    address renter,\r\n    bool isAccept\r\n  ) public returns (bool) {\r\n    if (id == 0) {\r\n      revert Error.InvalidIdError(id);\r\n    }\r\n    if (_idToBorrowedBook[id].borrower != borrower) {\r\n      revert Error.InvalidAddressError(borrower);\r\n    }\r\n    if (_idToBorrowedBook[id].renter != renter) {\r\n      revert Error.InvalidAddressError(renter);\r\n    }\r\n\r\n    // If the owner approves the request, it set status of request isAccept is true and return extended time,\r\n    // otherwise, this request will be deleted.\r\n    uint extendedTime = getRequest(id, borrower, renter).time;\r\n    uint extendedAmount = getRequest(id, borrower, renter).amount;\r\n    if (isAccept) {\r\n      if (extendedTime == 0 || extendedAmount == 0) {\r\n        return false;\r\n      }\r\n\r\n      _setAcceptionForRequest(id, borrower, renter);\r\n      _createResponse(id, extendedTime, extendedAmount, renter, borrower);\r\n    } else {\r\n      _cancelRequest(id, borrower, renter);\r\n    }\r\n\r\n    return isAccept;\r\n  }\r\n\r\n  function transferForSendedRequest(\r\n    uint id,\r\n    address renter,\r\n    address borrower,\r\n    uint currentTime,\r\n    bool isExtend\r\n  ) public payable returns (uint) {\r\n    if (\r\n      isResponseExist(id, renter, borrower) &&\r\n      isAcceptRequest(id, borrower, renter)\r\n    ) {\r\n      Response memory response = getResponse(id, renter, borrower);\r\n      BorrowedBook memory borrowedBook = _idToBorrowedBook[id];\r\n      // Agree to pay for this transaction\r\n      if (isExtend) {\r\n        uint endTime;\r\n        bytes32 oldHashId = getHashIdForBorrowedBook(\r\n          borrowedBook.tokenId,\r\n          borrowedBook.renter,\r\n          borrowedBook.borrower,\r\n          borrowedBook.startTime,\r\n          borrowedBook.endTime\r\n        );\r\n\r\n        //======|==============|================|==========\r\n        //  BB.startTime    current Time     BB.endTime\r\n        if (currentTime <= borrowedBook.endTime) {\r\n          endTime = borrowedBook.endTime + response.time;\r\n        } else {\r\n          endTime = currentTime + response.time;\r\n        }\r\n        if (response.amount == borrowedBook.amount) {\r\n          // Update timelock for borrowed Book\r\n          bytes32 txId = _timelock.getTxId(\r\n            renter,\r\n            0,\r\n            \"_recallBorrowedBooks(uint)\",\r\n            abi.encodePacked(id),\r\n            borrowedBook.endTime\r\n          );\r\n\r\n          _timelock.update(\r\n            txId,\r\n            renter,\r\n            0,\r\n            \"_recallBorrowedBooks(uint)\",\r\n            abi.encodePacked(id),\r\n            endTime\r\n          );\r\n          bytes32 newHashId = getHashIdForBorrowedBook(\r\n            borrowedBook.tokenId,\r\n            renter,\r\n            borrower,\r\n            currentTime,\r\n            endTime\r\n          );\r\n          _updateTimeBorrowedBookFromBorrowing(\r\n            oldHashId,\r\n            newHashId,\r\n            currentTime,\r\n            endTime\r\n          );\r\n        }\r\n\r\n        if (response.amount < borrowedBook.amount) {\r\n          createBorrowedBook(\r\n            borrowedBook.tokenId,\r\n            renter,\r\n            borrowedBook.price,\r\n            response.amount,\r\n            currentTime,\r\n            endTime,\r\n            borrower\r\n          );\r\n          _updateAmountBorrowedBookFromBorrowingWithHashId(\r\n            oldHashId,\r\n            borrowedBook.amount,\r\n            borrowedBook.amount - response.amount\r\n          );\r\n        }\r\n      }\r\n      // Cancle Req + Res for this transaction\r\n      _cancelRequest(id, borrower, renter);\r\n      _cancelResponse(id, renter, borrower);\r\n      uint totalPrice = (borrowedBook.price * response.amount * response.time) /\r\n        MIN_TIME;\r\n      return totalPrice;\r\n    }\r\n    return 0;\r\n  }\r\n\r\n  function getAllBorrowedBooks() public view returns (BorrowedBook[] memory) {\r\n    BorrowedBook[] memory books;\r\n    if (_borrowedBooks.current() > 0) {\r\n      books = new BorrowedBook[](_borrowedBooks.current());\r\n\r\n      for (uint i = 1; i <= _borrowedBooks.current(); i++) {\r\n        BorrowedBook memory book = _idToBorrowedBook[i];\r\n        books[i - 1] = book;\r\n      }\r\n    }\r\n\r\n    return books;\r\n  }\r\n\r\n  // Return Borrowed Books to Renter (or Owner)\r\n\r\n  function _recallBorrowedBooks(uint idBorrowedBook) private returns (bool) {\r\n    BorrowedBook memory borrowedBook = getBorrowedBookFromId(idBorrowedBook);\r\n    if (borrowedBook.tokenId != 0) {\r\n      _removeItemFromAllBorrowedBooks(\r\n        borrowedBook.tokenId,\r\n        borrowedBook.renter,\r\n        borrowedBook.borrower,\r\n        borrowedBook.startTime,\r\n        borrowedBook.endTime\r\n      );\r\n\r\n      // Remove respone of borrowed books on extending if needed\r\n      if (idBorrowedBook != 0) {\r\n        if (\r\n          isResponseExist(\r\n            idBorrowedBook,\r\n            borrowedBook.renter,\r\n            borrowedBook.borrower\r\n          )\r\n        ) {\r\n          _cancelResponse(\r\n            idBorrowedBook,\r\n            borrowedBook.renter,\r\n            borrowedBook.borrower\r\n          );\r\n        }\r\n      }\r\n\r\n      return true;\r\n    }\r\n    return false;\r\n  }\r\n\r\n  function excRecallBorrowedBooks(uint idBorrowedBook) public returns (bool) {\r\n    BorrowedBook memory book = getBorrowedBookFromId(idBorrowedBook);\r\n    bytes memory data = abi.encodePacked(idBorrowedBook);\r\n    string memory func = \"_recallBorrowedBooks(uint)\";\r\n    if (_timelock.isExecute(book.renter, 0, func, data, book.endTime)) {\r\n      return _recallBorrowedBooks(idBorrowedBook);\r\n    }\r\n\r\n    return false;\r\n  }\r\n}\r\n",
  "sourcePath": "D:\\DO_AN_TOT_NGHIEP\\project\\nft-bookstore\\contracts\\rent\\BookRentingStorage.sol",
  "compiler": {
    "name": "solc",
    "version": "0.8.17+commit.8df45f5f.Emscripten.clang"
  },
  "schemaVersion": "3.4.11",
  "updatedAt": "2023-06-28T14:31:05.191Z",
  "networkType": "ethereum",
  "devdoc": {
    "kind": "dev",
    "methods": {},
    "version": 1
  },
  "userdoc": {
    "kind": "user",
    "methods": {},
    "version": 1
  }
}