{
  "contractName": "BookRentingStorage",
  "abi": [
    {
      "inputs": [
        {
          "internalType": "contract TimeLock",
          "name": "timelock",
          "type": "address"
        }
      ],
      "stateMutability": "nonpayable",
      "type": "constructor"
    },
    {
      "inputs": [
        {
          "internalType": "bool",
          "name": "",
          "type": "bool"
        }
      ],
      "name": "AlreadyChangedStatusError",
      "type": "error"
    },
    {
      "inputs": [
        {
          "internalType": "bool",
          "name": "",
          "type": "bool"
        }
      ],
      "name": "AlreadyExistsRequestError",
      "type": "error"
    },
    {
      "inputs": [
        {
          "internalType": "bool",
          "name": "",
          "type": "bool"
        }
      ],
      "name": "AlreadyExistsResponseError",
      "type": "error"
    },
    {
      "inputs": [
        {
          "internalType": "address",
          "name": "",
          "type": "address"
        }
      ],
      "name": "InvalidAddressError",
      "type": "error"
    },
    {
      "inputs": [
        {
          "internalType": "uint256",
          "name": "",
          "type": "uint256"
        }
      ],
      "name": "InvalidAmountError",
      "type": "error"
    },
    {
      "inputs": [
        {
          "internalType": "uint256",
          "name": "",
          "type": "uint256"
        }
      ],
      "name": "InvalidIdError",
      "type": "error"
    },
    {
      "inputs": [
        {
          "internalType": "uint256",
          "name": "",
          "type": "uint256"
        }
      ],
      "name": "InvalidLengthError",
      "type": "error"
    },
    {
      "inputs": [],
      "name": "InvalidParamsError",
      "type": "error"
    },
    {
      "inputs": [
        {
          "internalType": "uint256",
          "name": "",
          "type": "uint256"
        }
      ],
      "name": "InvalidValueError",
      "type": "error"
    },
    {
      "anonymous": false,
      "inputs": [
        {
          "indexed": false,
          "internalType": "uint256",
          "name": "tokenId",
          "type": "uint256"
        },
        {
          "indexed": false,
          "internalType": "address",
          "name": "renter",
          "type": "address"
        },
        {
          "indexed": false,
          "internalType": "address",
          "name": "borrower",
          "type": "address"
        },
        {
          "indexed": false,
          "internalType": "uint256",
          "name": "price",
          "type": "uint256"
        },
        {
          "indexed": false,
          "internalType": "uint256",
          "name": "amount",
          "type": "uint256"
        },
        {
          "indexed": false,
          "internalType": "uint256",
          "name": "startTime",
          "type": "uint256"
        },
        {
          "indexed": false,
          "internalType": "uint256",
          "name": "endTime",
          "type": "uint256"
        }
      ],
      "name": "BorrowedBookCreated",
      "type": "event"
    },
    {
      "anonymous": false,
      "inputs": [
        {
          "indexed": false,
          "internalType": "uint256",
          "name": "id",
          "type": "uint256"
        },
        {
          "indexed": false,
          "internalType": "uint256",
          "name": "time",
          "type": "uint256"
        },
        {
          "indexed": false,
          "internalType": "uint256",
          "name": "amount",
          "type": "uint256"
        },
        {
          "indexed": false,
          "internalType": "address",
          "name": "sender",
          "type": "address"
        },
        {
          "indexed": false,
          "internalType": "bool",
          "name": "isAccept",
          "type": "bool"
        }
      ],
      "name": "CreatedRequest",
      "type": "event"
    },
    {
      "anonymous": false,
      "inputs": [
        {
          "indexed": false,
          "internalType": "uint256",
          "name": "id",
          "type": "uint256"
        },
        {
          "indexed": false,
          "internalType": "uint256",
          "name": "time",
          "type": "uint256"
        },
        {
          "indexed": false,
          "internalType": "uint256",
          "name": "amount",
          "type": "uint256"
        },
        {
          "indexed": false,
          "internalType": "address",
          "name": "sender",
          "type": "address"
        }
      ],
      "name": "CreatedResponse",
      "type": "event"
    },
    {
      "anonymous": false,
      "inputs": [
        {
          "indexed": false,
          "internalType": "uint256",
          "name": "tokenId",
          "type": "uint256"
        },
        {
          "indexed": false,
          "internalType": "address",
          "name": "renter",
          "type": "address"
        },
        {
          "indexed": false,
          "internalType": "uint256",
          "name": "price",
          "type": "uint256"
        },
        {
          "indexed": false,
          "internalType": "uint256",
          "name": "amount",
          "type": "uint256"
        }
      ],
      "name": "LendBookCreated",
      "type": "event"
    },
    {
      "inputs": [],
      "name": "getAllOwnedRequest",
      "outputs": [
        {
          "components": [
            {
              "internalType": "uint256",
              "name": "id",
              "type": "uint256"
            },
            {
              "internalType": "uint256",
              "name": "time",
              "type": "uint256"
            },
            {
              "internalType": "uint256",
              "name": "amount",
              "type": "uint256"
            },
            {
              "internalType": "address",
              "name": "sender",
              "type": "address"
            },
            {
              "internalType": "bool",
              "name": "isAccept",
              "type": "bool"
            }
          ],
          "internalType": "struct ExtendTime.Request[]",
          "name": "",
          "type": "tuple[]"
        }
      ],
      "stateMutability": "view",
      "type": "function",
      "constant": true
    },
    {
      "inputs": [],
      "name": "getAllOwnedResponse",
      "outputs": [
        {
          "components": [
            {
              "internalType": "uint256",
              "name": "id",
              "type": "uint256"
            },
            {
              "internalType": "uint256",
              "name": "time",
              "type": "uint256"
            },
            {
              "internalType": "uint256",
              "name": "amount",
              "type": "uint256"
            },
            {
              "internalType": "address",
              "name": "sender",
              "type": "address"
            }
          ],
          "internalType": "struct ExtendTime.Response[]",
          "name": "",
          "type": "tuple[]"
        }
      ],
      "stateMutability": "view",
      "type": "function",
      "constant": true
    },
    {
      "inputs": [
        {
          "internalType": "uint256",
          "name": "id",
          "type": "uint256"
        },
        {
          "internalType": "address",
          "name": "sender",
          "type": "address"
        },
        {
          "internalType": "address",
          "name": "receiver",
          "type": "address"
        }
      ],
      "name": "getRequest",
      "outputs": [
        {
          "components": [
            {
              "internalType": "uint256",
              "name": "id",
              "type": "uint256"
            },
            {
              "internalType": "uint256",
              "name": "time",
              "type": "uint256"
            },
            {
              "internalType": "uint256",
              "name": "amount",
              "type": "uint256"
            },
            {
              "internalType": "address",
              "name": "sender",
              "type": "address"
            },
            {
              "internalType": "bool",
              "name": "isAccept",
              "type": "bool"
            }
          ],
          "internalType": "struct ExtendTime.Request",
          "name": "",
          "type": "tuple"
        }
      ],
      "stateMutability": "view",
      "type": "function",
      "constant": true
    },
    {
      "inputs": [
        {
          "internalType": "uint256",
          "name": "id",
          "type": "uint256"
        },
        {
          "internalType": "address",
          "name": "sender",
          "type": "address"
        },
        {
          "internalType": "address",
          "name": "receiver",
          "type": "address"
        }
      ],
      "name": "getResponse",
      "outputs": [
        {
          "components": [
            {
              "internalType": "uint256",
              "name": "id",
              "type": "uint256"
            },
            {
              "internalType": "uint256",
              "name": "time",
              "type": "uint256"
            },
            {
              "internalType": "uint256",
              "name": "amount",
              "type": "uint256"
            },
            {
              "internalType": "address",
              "name": "sender",
              "type": "address"
            }
          ],
          "internalType": "struct ExtendTime.Response",
          "name": "",
          "type": "tuple"
        }
      ],
      "stateMutability": "view",
      "type": "function",
      "constant": true
    },
    {
      "inputs": [
        {
          "internalType": "uint256",
          "name": "id",
          "type": "uint256"
        },
        {
          "internalType": "address",
          "name": "sender",
          "type": "address"
        },
        {
          "internalType": "address",
          "name": "receiver",
          "type": "address"
        }
      ],
      "name": "isAcceptRequest",
      "outputs": [
        {
          "internalType": "bool",
          "name": "",
          "type": "bool"
        }
      ],
      "stateMutability": "view",
      "type": "function",
      "constant": true
    },
    {
      "inputs": [
        {
          "internalType": "uint256",
          "name": "id",
          "type": "uint256"
        },
        {
          "internalType": "address",
          "name": "sender",
          "type": "address"
        },
        {
          "internalType": "address",
          "name": "receiver",
          "type": "address"
        }
      ],
      "name": "isRequestExist",
      "outputs": [
        {
          "internalType": "bool",
          "name": "",
          "type": "bool"
        }
      ],
      "stateMutability": "view",
      "type": "function",
      "constant": true
    },
    {
      "inputs": [
        {
          "internalType": "uint256",
          "name": "id",
          "type": "uint256"
        },
        {
          "internalType": "address",
          "name": "sender",
          "type": "address"
        },
        {
          "internalType": "address",
          "name": "receiver",
          "type": "address"
        }
      ],
      "name": "isResponseExist",
      "outputs": [
        {
          "internalType": "bool",
          "name": "",
          "type": "bool"
        }
      ],
      "stateMutability": "view",
      "type": "function",
      "constant": true
    },
    {
      "inputs": [
        {
          "internalType": "uint256",
          "name": "tokenId",
          "type": "uint256"
        },
        {
          "internalType": "address",
          "name": "renter",
          "type": "address"
        }
      ],
      "name": "isLending",
      "outputs": [
        {
          "internalType": "bool",
          "name": "",
          "type": "bool"
        }
      ],
      "stateMutability": "view",
      "type": "function",
      "constant": true
    },
    {
      "inputs": [
        {
          "internalType": "uint256",
          "name": "tokenId",
          "type": "uint256"
        },
        {
          "internalType": "address",
          "name": "renter",
          "type": "address"
        }
      ],
      "name": "getLendBook",
      "outputs": [
        {
          "components": [
            {
              "internalType": "uint256",
              "name": "tokenId",
              "type": "uint256"
            },
            {
              "internalType": "address",
              "name": "renter",
              "type": "address"
            },
            {
              "internalType": "uint256",
              "name": "price",
              "type": "uint256"
            },
            {
              "internalType": "uint256",
              "name": "amount",
              "type": "uint256"
            }
          ],
          "internalType": "struct BookRentingStorage.LendBook",
          "name": "",
          "type": "tuple"
        }
      ],
      "stateMutability": "view",
      "type": "function",
      "constant": true
    },
    {
      "inputs": [
        {
          "internalType": "uint256",
          "name": "id",
          "type": "uint256"
        }
      ],
      "name": "getLendBookFromId",
      "outputs": [
        {
          "components": [
            {
              "internalType": "uint256",
              "name": "tokenId",
              "type": "uint256"
            },
            {
              "internalType": "address",
              "name": "renter",
              "type": "address"
            },
            {
              "internalType": "uint256",
              "name": "price",
              "type": "uint256"
            },
            {
              "internalType": "uint256",
              "name": "amount",
              "type": "uint256"
            }
          ],
          "internalType": "struct BookRentingStorage.LendBook",
          "name": "",
          "type": "tuple"
        }
      ],
      "stateMutability": "view",
      "type": "function",
      "constant": true
    },
    {
      "inputs": [
        {
          "internalType": "address",
          "name": "renter",
          "type": "address"
        }
      ],
      "name": "getTotalOwnedLendBook",
      "outputs": [
        {
          "internalType": "uint256",
          "name": "",
          "type": "uint256"
        }
      ],
      "stateMutability": "view",
      "type": "function",
      "constant": true
    },
    {
      "inputs": [
        {
          "internalType": "uint256",
          "name": "tokenId",
          "type": "uint256"
        },
        {
          "internalType": "address",
          "name": "renter",
          "type": "address"
        }
      ],
      "name": "getIdLendBook",
      "outputs": [
        {
          "internalType": "uint256",
          "name": "",
          "type": "uint256"
        }
      ],
      "stateMutability": "view",
      "type": "function",
      "constant": true
    },
    {
      "inputs": [
        {
          "internalType": "uint256",
          "name": "tokenId",
          "type": "uint256"
        },
        {
          "internalType": "address",
          "name": "owner",
          "type": "address"
        }
      ],
      "name": "getAmountOfLendBooks",
      "outputs": [
        {
          "internalType": "uint256",
          "name": "",
          "type": "uint256"
        }
      ],
      "stateMutability": "view",
      "type": "function",
      "constant": true
    },
    {
      "inputs": [
        {
          "internalType": "uint256",
          "name": "tokenId",
          "type": "uint256"
        },
        {
          "internalType": "uint256",
          "name": "newPrice",
          "type": "uint256"
        },
        {
          "internalType": "uint256",
          "name": "newAmount",
          "type": "uint256"
        },
        {
          "internalType": "address",
          "name": "renter",
          "type": "address"
        }
      ],
      "name": "updateLendBookFromRenting",
      "outputs": [],
      "stateMutability": "nonpayable",
      "type": "function"
    },
    {
      "inputs": [],
      "name": "getAllLendBooks",
      "outputs": [
        {
          "components": [
            {
              "internalType": "uint256",
              "name": "tokenId",
              "type": "uint256"
            },
            {
              "internalType": "address",
              "name": "renter",
              "type": "address"
            },
            {
              "internalType": "uint256",
              "name": "price",
              "type": "uint256"
            },
            {
              "internalType": "uint256",
              "name": "amount",
              "type": "uint256"
            }
          ],
          "internalType": "struct BookRentingStorage.LendBook[]",
          "name": "",
          "type": "tuple[]"
        }
      ],
      "stateMutability": "view",
      "type": "function",
      "constant": true
    },
    {
      "inputs": [
        {
          "internalType": "uint256",
          "name": "tokenId",
          "type": "uint256"
        },
        {
          "internalType": "address",
          "name": "renter",
          "type": "address"
        },
        {
          "internalType": "uint256",
          "name": "price",
          "type": "uint256"
        },
        {
          "internalType": "uint256",
          "name": "amount",
          "type": "uint256"
        }
      ],
      "name": "lendBooks",
      "outputs": [],
      "stateMutability": "payable",
      "type": "function",
      "payable": true
    },
    {
      "inputs": [],
      "name": "getTotalBorrowedBooksOnBorrowing",
      "outputs": [
        {
          "internalType": "uint256",
          "name": "",
          "type": "uint256"
        }
      ],
      "stateMutability": "view",
      "type": "function",
      "constant": true
    },
    {
      "inputs": [
        {
          "internalType": "uint256",
          "name": "tokenId",
          "type": "uint256"
        },
        {
          "internalType": "address",
          "name": "renter",
          "type": "address"
        },
        {
          "internalType": "address",
          "name": "borrower",
          "type": "address"
        },
        {
          "internalType": "uint256",
          "name": "startTime",
          "type": "uint256"
        },
        {
          "internalType": "uint256",
          "name": "endTime",
          "type": "uint256"
        }
      ],
      "name": "getHashIdForBorrowedBook",
      "outputs": [
        {
          "internalType": "bytes32",
          "name": "",
          "type": "bytes32"
        }
      ],
      "stateMutability": "pure",
      "type": "function",
      "constant": true
    },
    {
      "inputs": [
        {
          "internalType": "uint256",
          "name": "tokenId",
          "type": "uint256"
        },
        {
          "internalType": "address",
          "name": "renter",
          "type": "address"
        },
        {
          "internalType": "address",
          "name": "borrower",
          "type": "address"
        },
        {
          "internalType": "uint256",
          "name": "startTime",
          "type": "uint256"
        },
        {
          "internalType": "uint256",
          "name": "endTime",
          "type": "uint256"
        }
      ],
      "name": "getBorrowedBook",
      "outputs": [
        {
          "components": [
            {
              "internalType": "uint256",
              "name": "tokenId",
              "type": "uint256"
            },
            {
              "internalType": "address",
              "name": "renter",
              "type": "address"
            },
            {
              "internalType": "address",
              "name": "borrower",
              "type": "address"
            },
            {
              "internalType": "uint256",
              "name": "price",
              "type": "uint256"
            },
            {
              "internalType": "uint256",
              "name": "amount",
              "type": "uint256"
            },
            {
              "internalType": "uint256",
              "name": "startTime",
              "type": "uint256"
            },
            {
              "internalType": "uint256",
              "name": "endTime",
              "type": "uint256"
            }
          ],
          "internalType": "struct BookRentingStorage.BorrowedBook",
          "name": "",
          "type": "tuple"
        }
      ],
      "stateMutability": "view",
      "type": "function",
      "constant": true
    },
    {
      "inputs": [
        {
          "internalType": "uint256",
          "name": "id",
          "type": "uint256"
        }
      ],
      "name": "getBorrowedBookFromId",
      "outputs": [
        {
          "components": [
            {
              "internalType": "uint256",
              "name": "tokenId",
              "type": "uint256"
            },
            {
              "internalType": "address",
              "name": "renter",
              "type": "address"
            },
            {
              "internalType": "address",
              "name": "borrower",
              "type": "address"
            },
            {
              "internalType": "uint256",
              "name": "price",
              "type": "uint256"
            },
            {
              "internalType": "uint256",
              "name": "amount",
              "type": "uint256"
            },
            {
              "internalType": "uint256",
              "name": "startTime",
              "type": "uint256"
            },
            {
              "internalType": "uint256",
              "name": "endTime",
              "type": "uint256"
            }
          ],
          "internalType": "struct BookRentingStorage.BorrowedBook",
          "name": "",
          "type": "tuple"
        }
      ],
      "stateMutability": "view",
      "type": "function",
      "constant": true
    },
    {
      "inputs": [
        {
          "internalType": "address",
          "name": "borrower",
          "type": "address"
        }
      ],
      "name": "getTotalOwnedBorrowedBook",
      "outputs": [
        {
          "internalType": "uint256",
          "name": "",
          "type": "uint256"
        }
      ],
      "stateMutability": "view",
      "type": "function",
      "constant": true
    },
    {
      "inputs": [
        {
          "internalType": "uint256",
          "name": "tokenId",
          "type": "uint256"
        },
        {
          "internalType": "address",
          "name": "renter",
          "type": "address"
        },
        {
          "internalType": "uint256",
          "name": "price",
          "type": "uint256"
        },
        {
          "internalType": "uint256",
          "name": "amount",
          "type": "uint256"
        },
        {
          "internalType": "uint256",
          "name": "startTime",
          "type": "uint256"
        },
        {
          "internalType": "uint256",
          "name": "endTime",
          "type": "uint256"
        },
        {
          "internalType": "address",
          "name": "borrower",
          "type": "address"
        }
      ],
      "name": "createBorrowedBook",
      "outputs": [],
      "stateMutability": "nonpayable",
      "type": "function"
    },
    {
      "inputs": [
        {
          "internalType": "uint256",
          "name": "tokenId",
          "type": "uint256"
        },
        {
          "internalType": "address",
          "name": "renter",
          "type": "address"
        },
        {
          "internalType": "address",
          "name": "borrower",
          "type": "address"
        },
        {
          "internalType": "uint256",
          "name": "startTime",
          "type": "uint256"
        },
        {
          "internalType": "uint256",
          "name": "endTime",
          "type": "uint256"
        }
      ],
      "name": "getIdBorrowedBook",
      "outputs": [
        {
          "internalType": "uint256",
          "name": "",
          "type": "uint256"
        }
      ],
      "stateMutability": "view",
      "type": "function",
      "constant": true
    },
    {
      "inputs": [
        {
          "internalType": "uint256",
          "name": "idBorrowedBook",
          "type": "uint256"
        },
        {
          "internalType": "uint256",
          "name": "amount",
          "type": "uint256"
        },
        {
          "internalType": "bool",
          "name": "isDecrease",
          "type": "bool"
        }
      ],
      "name": "updateAmountBorrowedBookFromBorrowing",
      "outputs": [],
      "stateMutability": "nonpayable",
      "type": "function"
    },
    {
      "inputs": [
        {
          "internalType": "uint256",
          "name": "tokenId",
          "type": "uint256"
        },
        {
          "internalType": "address",
          "name": "owner",
          "type": "address"
        }
      ],
      "name": "getAmountOfBorrowedBooks",
      "outputs": [
        {
          "internalType": "uint256",
          "name": "",
          "type": "uint256"
        }
      ],
      "stateMutability": "view",
      "type": "function",
      "constant": true
    },
    {
      "inputs": [],
      "name": "getOwnedBorrowedBooks",
      "outputs": [
        {
          "components": [
            {
              "internalType": "uint256",
              "name": "tokenId",
              "type": "uint256"
            },
            {
              "internalType": "address",
              "name": "renter",
              "type": "address"
            },
            {
              "internalType": "address",
              "name": "borrower",
              "type": "address"
            },
            {
              "internalType": "uint256",
              "name": "price",
              "type": "uint256"
            },
            {
              "internalType": "uint256",
              "name": "amount",
              "type": "uint256"
            },
            {
              "internalType": "uint256",
              "name": "startTime",
              "type": "uint256"
            },
            {
              "internalType": "uint256",
              "name": "endTime",
              "type": "uint256"
            }
          ],
          "internalType": "struct BookRentingStorage.BorrowedBook[]",
          "name": "",
          "type": "tuple[]"
        }
      ],
      "stateMutability": "view",
      "type": "function",
      "constant": true
    },
    {
      "inputs": [
        {
          "internalType": "uint256",
          "name": "tokenId",
          "type": "uint256"
        },
        {
          "internalType": "address",
          "name": "owner",
          "type": "address"
        }
      ],
      "name": "isBorrowedBookReadable",
      "outputs": [
        {
          "internalType": "bool",
          "name": "",
          "type": "bool"
        }
      ],
      "stateMutability": "view",
      "type": "function",
      "constant": true
    },
    {
      "inputs": [
        {
          "internalType": "uint256",
          "name": "tokenId",
          "type": "uint256"
        },
        {
          "internalType": "address",
          "name": "renter",
          "type": "address"
        },
        {
          "internalType": "uint256",
          "name": "amount",
          "type": "uint256"
        },
        {
          "internalType": "uint256",
          "name": "price",
          "type": "uint256"
        },
        {
          "internalType": "uint256",
          "name": "startTime",
          "type": "uint256"
        },
        {
          "internalType": "uint256",
          "name": "endTime",
          "type": "uint256"
        },
        {
          "internalType": "address",
          "name": "borrower",
          "type": "address"
        },
        {
          "internalType": "uint256",
          "name": "value",
          "type": "uint256"
        }
      ],
      "name": "borrowBooks",
      "outputs": [
        {
          "internalType": "uint256",
          "name": "",
          "type": "uint256"
        }
      ],
      "stateMutability": "payable",
      "type": "function",
      "payable": true
    },
    {
      "inputs": [
        {
          "internalType": "uint256",
          "name": "tokenId",
          "type": "uint256"
        },
        {
          "internalType": "address",
          "name": "renter",
          "type": "address"
        },
        {
          "internalType": "address",
          "name": "borrower",
          "type": "address"
        },
        {
          "internalType": "uint256",
          "name": "startTime",
          "type": "uint256"
        },
        {
          "internalType": "uint256",
          "name": "endTime",
          "type": "uint256"
        },
        {
          "internalType": "uint256",
          "name": "extendedAmount",
          "type": "uint256"
        },
        {
          "internalType": "uint256",
          "name": "extendedTime",
          "type": "uint256"
        }
      ],
      "name": "requestExtendTimeOfBorrowedBooks",
      "outputs": [],
      "stateMutability": "nonpayable",
      "type": "function"
    },
    {
      "inputs": [
        {
          "internalType": "uint256",
          "name": "tokenId",
          "type": "uint256"
        },
        {
          "internalType": "address",
          "name": "renter",
          "type": "address"
        },
        {
          "internalType": "address",
          "name": "borrower",
          "type": "address"
        },
        {
          "internalType": "uint256",
          "name": "startTime",
          "type": "uint256"
        },
        {
          "internalType": "uint256",
          "name": "endTime",
          "type": "uint256"
        },
        {
          "internalType": "uint256",
          "name": "newExtendedAmount",
          "type": "uint256"
        },
        {
          "internalType": "uint256",
          "name": "newExtendedTime",
          "type": "uint256"
        }
      ],
      "name": "updateRequestOfBorrowedBooks",
      "outputs": [],
      "stateMutability": "nonpayable",
      "type": "function"
    },
    {
      "inputs": [
        {
          "internalType": "uint256",
          "name": "id",
          "type": "uint256"
        },
        {
          "internalType": "address",
          "name": "borrower",
          "type": "address"
        },
        {
          "internalType": "address",
          "name": "renter",
          "type": "address"
        },
        {
          "internalType": "bool",
          "name": "isAccept",
          "type": "bool"
        }
      ],
      "name": "doAcceptRequestAndCreateResponse",
      "outputs": [
        {
          "internalType": "bool",
          "name": "",
          "type": "bool"
        }
      ],
      "stateMutability": "nonpayable",
      "type": "function"
    },
    {
      "inputs": [
        {
          "internalType": "uint256",
          "name": "id",
          "type": "uint256"
        },
        {
          "internalType": "address",
          "name": "renter",
          "type": "address"
        },
        {
          "internalType": "address",
          "name": "borrower",
          "type": "address"
        },
        {
          "internalType": "uint256",
          "name": "currentTime",
          "type": "uint256"
        },
        {
          "internalType": "bool",
          "name": "isExtend",
          "type": "bool"
        }
      ],
      "name": "transferForSendedRequest",
      "outputs": [
        {
          "internalType": "uint256",
          "name": "",
          "type": "uint256"
        }
      ],
      "stateMutability": "payable",
      "type": "function",
      "payable": true
    },
    {
      "inputs": [],
      "name": "getAllBorrowedBooks",
      "outputs": [
        {
          "components": [
            {
              "internalType": "uint256",
              "name": "tokenId",
              "type": "uint256"
            },
            {
              "internalType": "address",
              "name": "renter",
              "type": "address"
            },
            {
              "internalType": "address",
              "name": "borrower",
              "type": "address"
            },
            {
              "internalType": "uint256",
              "name": "price",
              "type": "uint256"
            },
            {
              "internalType": "uint256",
              "name": "amount",
              "type": "uint256"
            },
            {
              "internalType": "uint256",
              "name": "startTime",
              "type": "uint256"
            },
            {
              "internalType": "uint256",
              "name": "endTime",
              "type": "uint256"
            }
          ],
          "internalType": "struct BookRentingStorage.BorrowedBook[]",
          "name": "",
          "type": "tuple[]"
        }
      ],
      "stateMutability": "view",
      "type": "function",
      "constant": true
    },
    {
      "inputs": [
        {
          "internalType": "uint256",
          "name": "idBorrowedBook",
          "type": "uint256"
        }
      ],
      "name": "excRecallBorrowedBooks",
      "outputs": [
        {
          "internalType": "bool",
          "name": "",
          "type": "bool"
        }
      ],
      "stateMutability": "nonpayable",
      "type": "function"
    }
  ],
  "bytecode": "0x60806040523480156200001157600080fd5b5060405162003ecc38038062003ecc83398101604081905262000034916200005a565b600480546001600160a01b0319166001600160a01b03929092169190911790556200008c565b6000602082840312156200006d57600080fd5b81516001600160a01b03811681146200008557600080fd5b9392505050565b613e30806200009c6000396000f3fe6080604052600436106101b95760003560e01c806378f19906116100ed578063ca36874d11610090578063ca36874d14610566578063cca1003d14610586578063d20419f214610599578063d572cd89146105b9578063d5cb4efb146105d9578063df143868146105f9578063e774ed6114610619578063fd34eb3e14610646578063fdbcb6aa1461065957600080fd5b806378f199061461041f5780637ca1a8681461044c578063991968e4146104795780639e73701314610499578063a4e12b20146104b9578063ad034596146104d9578063ba3a632a14610519578063bcb7a5871461053957600080fd5b80633486aa3e116101605780633486aa3e1461030f5780634780710d1461033157806347aa910f146103515780634e4509fe1461036457806354e76f83146103865780636423566d146103a65780636756e11e146103c65780636a3ae1d4146103e85780636d312e8d146103fd57600080fd5b80630563bd5a146101be5780630d602ca0146102075780630f026d8f146102375780630f27d508146102575780632229aea21461027757806327ae13871461029757806328964f6d146102cd5780632f3a00b3146102ed575b600080fd5b3480156101ca57600080fd5b506101f46101d93660046135ce565b6001600160a01b031660009081526006602052604090205490565b6040519081526020015b60405180910390f35b34801561021357600080fd5b506102276102223660046135e9565b61066e565b60405190151581526020016101fe565b34801561024357600080fd5b50610227610252366004613602565b610773565b34801561026357600080fd5b506101f461027236600461362e565b61079e565b34801561028357600080fd5b5061022761029236600461367c565b610821565b3480156102a357600080fd5b506101f46102b23660046135ce565b6001600160a01b03166000908152600a602052604090205490565b3480156102d957600080fd5b506102276102e836600461367c565b610920565b3480156102f957600080fd5b506103026109d3565b6040516101fe91906136e4565b34801561031b57600080fd5b5061032f61032a366004613743565b610ae4565b005b34801561033d57600080fd5b5061022761034c366004613602565b610c11565b6101f461035f36600461377c565b610cd7565b34801561037057600080fd5b50610379610dde565b6040516101fe9190613815565b34801561039257600080fd5b506102276103a136600461367c565b610ed6565b3480156103b257600080fd5b5061032f6103c1366004613857565b610f85565b3480156103d257600080fd5b506103db610ffb565b6040516101fe91906138e8565b3480156103f457600080fd5b506103db61112b565b34801561040957600080fd5b5061041261124f565b6040516101fe9190613962565b34801561042b57600080fd5b5061043f61043a3660046135e9565b611369565b6040516101fe91906139a4565b34801561045857600080fd5b5061046c61046736600461367c565b6113e2565b6040516101fe91906139b2565b34801561048557600080fd5b506101f461049436600461362e565b6114e7565b3480156104a557600080fd5b506101f46104b4366004613602565b611537565b3480156104c557600080fd5b5061032f6104d43660046139c0565b611594565b3480156104e557600080fd5b506101f46104f4366004613602565b6001600160a01b03166000908152600b60209081526040808320938352929052205490565b34801561052557600080fd5b5061032f6105343660046139c0565b6115e0565b34801561054557600080fd5b506105596105543660046135e9565b611662565b6040516101fe9190613a21565b34801561057257600080fd5b50610559610581366004613602565b6116b8565b61032f610594366004613a2f565b61171e565b3480156105a557600080fd5b506101f46105b4366004613602565b611757565b3480156105c557600080fd5b506102276105d4366004613a6a565b611795565b3480156105e557600080fd5b5061032f6105f4366004613ab9565b6118b3565b34801561060557600080fd5b5061043f61061436600461362e565b611b61565b34801561062557600080fd5b5061063961063436600461367c565b611bf0565b6040516101fe9190613b1c565b6101f4610654366004613b2a565b611cd9565b34801561066557600080fd5b506101f4611ff1565b60008061067a83611369565b905060008360405160200161069191815260200190565b60408051601f198184030181528282018252601a8352795f726563616c6c426f72726f776564426f6f6b732875696e742960301b602084810191909152600480549187015160c0880151945163f3e7a3b960e01b81529396506001600160a01b039092169363f3e7a3b99361070e939260009288928a9201613bcb565b6020604051808303816000875af115801561072d573d6000803e3d6000fd5b505050506040513d601f19601f820116820180604052508101906107519190613c17565b156107685761075f85612001565b95945050505050565b506000949350505050565b6000806107808484611537565b90508015610792576001915050610798565b60009150505b92915050565b60008515806107b457506001600160a01b038416155b806107c657506001600160a01b038516155b806107cf575082155b806107da5750828211155b156107f8576040516354f9d1b760e01b815260040160405180910390fd5b600061080787878787876114e7565b600090815260096020526040902054979650505050505050565b6001600160a01b03811660009081526003602052604081205480820361084b576000915050610919565b60005b81811015610912576001600160a01b0384166000908152600260209081526040808320848452909152902054861480156108b257506001600160a01b0384811660009081526002602090815260408083208584529091529020600301548116908616145b80156108f057506001600160a01b0384166000908152600260209081526040808320848452909152902060030154600160a01b900460ff1615156001145b1561090057600192505050610919565b8061090a81613c4a565b91505061084e565b5060009150505b9392505050565b6001600160a01b03811660009081526003602052604081205480820361094a576000915050610919565b60005b81811015610912576001600160a01b0384166000908152600260209081526040808320848452909152902054861480156109b157506001600160a01b0384811660009081526002602090815260408083208584529091529020600301548116908616145b156109c157600192505050610919565b806109cb81613c4a565b91505061094d565b3360009081526001602052604090205460609081811561079857816001600160401b03811115610a0557610a05613c63565b604051908082528060200260200182016040528015610a3e57816020015b610a2b6134cc565b815260200190600190039081610a235790505b509050610a496134cc565b60005b83811015610adc57336000908152602081815260408083208484528252918290208251608081018452815481526001820154928101929092526002810154928201929092526003909101546001600160a01b0316606082015283519092508290849083908110610abe57610abe613c79565b60200260200101819052508080610ad490613c4a565b915050610a4c565b505092915050565b6000610aef84611369565b905082816080015110158015610b025750815b15610ba3576000848152600c602052604081206004018054859290610b28908490613c8f565b90915550506000848152600c60205260408120600401549003610b6657610b668160000151826020015183604001518460a001518560c0015161207b565b6040808201516001600160a01b03166000908152600b60209081528282208451835290529081208054859290610b9d908490613c8f565b90915550505b81610c0b576000848152600c602052604081206004018054859290610bc9908490613ca2565b90915550506040808201516001600160a01b03166000908152600b60209081528282208451835290529081208054859290610c05908490613ca2565b90915550505b50505050565b600060015b600d548111610ccd576000818152600c6020908152604091829020825160e0810184528154815260018201546001600160a01b0390811693820193909352600282015483169381018490526003820154606082015260048201546080820152600582015460a082015260069091015460c082015291908516148015610c9b5750805185145b8015610caa5750428160c00151115b15610cba57600192505050610798565b5080610cc581613c4a565b915050610c16565b5060009392505050565b600080610ce48a8a611537565b905080600003610d0f5760405163d8bbd62160e01b8152600481018290526024015b60405180910390fd5b600062093a80610d1f8888613c8f565b610d298a8c613cb5565b610d339190613cb5565b610d3d9190613ccc565b9050808414610d6257604051631b437d9160e31b815260048101859052602401610d06565b6000610d6e8c8c6116b8565b905080606001518a1180610d80575089155b15610da15760405163099f49a360e11b8152600481018b9052602401610d06565b610db08c8c8b8d8c8c8c6118b3565b610dcf8c82604001518c8460600151610dc99190613c8f565b8e610f85565b509a9950505050505050505050565b60606000610deb60085490565b6001600160401b03811115610e0257610e02613c63565b604051908082528060200260200182016040528015610e3b57816020015b610e286134fd565b815260200190600190039081610e205790505b50905060015b6008548111610ed0576000818152600760209081526040918290208251608081018452815481526001808301546001600160a01b03169382019390935260028201549381019390935260030154606083015281908490610ea19085613c8f565b81518110610eb157610eb1613c79565b6020026020010181905250508080610ec890613c4a565b915050610e41565b50919050565b6001600160a01b038116600090815260016020526040812054808203610f00576000915050610919565b60005b81811015610912576001600160a01b03841660009081526020818152604080832084845290915290205486148015610f6357506001600160a01b038481166000908152602081815260408083208584529091529020600301548116908616145b15610f7357600192505050610919565b80610f7d81613c4a565b915050610f03565b6000610f918583611537565b905080600003610fb75760405163d8bbd62160e01b815260048101829052602401610d06565b60008181526007602052604090206002018490558215610fea576000818152600760205260409020600301839055610ff4565b610ff48583612604565b5050505050565b336000908152600a6020526040812054606091816001600160401b0381111561102657611026613c63565b60405190808252806020026020018201604052801561105f57816020015b61104c61352e565b8152602001906001900390816110445790505b509050600060015b600d548111611122576000818152600c6020908152604091829020825160e0810184528154815260018201546001600160a01b039081169382019390935260028201549092169282018390526003810154606083015260048101546080830152600581015460a08301526006015460c08201529033900361110f57808484815181106110f5576110f5613c79565b6020026020010181905250828061110b90613c4a565b9350505b508061111a81613c4a565b915050611067565b50909392505050565b6060806000611139600d5490565b111561124a57600d546001600160401b0381111561115957611159613c63565b60405190808252806020026020018201604052801561119257816020015b61117f61352e565b8152602001906001900390816111775790505b50905060015b600d548111610ed0576000818152600c6020908152604091829020825160e081018452815481526001808301546001600160a01b03908116948301949094526002830154909316938101939093526003810154606084015260048101546080840152600581015460a08401526006015460c08301528190849061121b9085613c8f565b8151811061122b5761122b613c79565b602002602001018190525050808061124290613c4a565b915050611198565b919050565b3360009081526003602052604090205460609081811561079857816001600160401b0381111561128157611281613c63565b6040519080825280602002602001820160405280156112ba57816020015b6112a761357d565b81526020019060019003908161129f5790505b5090506112c561357d565b60005b83811015610adc57336000908152600260208181526040808420858552825292839020835160a081018552815481526001820154928101929092529182015492810192909252600301546001600160a01b0381166060830152600160a01b900460ff16151560808201528351909250829084908390811061134b5761134b613c79565b6020026020010181905250808061136190613c4a565b9150506112c8565b61137161352e565b506000908152600c6020908152604091829020825160e0810184528154815260018201546001600160a01b03908116938201939093526002820154909216928201929092526003820154606082015260048201546080820152600582015460a082015260069091015460c082015290565b6113ea61357d565b6113f5848484610920565b61141557604051634c043de760e01b815260006004820152602401610d06565b6001600160a01b03821660009081526003602052604090205461143661357d565b60005b828110156114dd576001600160a01b038581166000908152600260208181526040808420868552825292839020835160a0810185528154815260018201549281019290925291820154928101929092526003015480831660608301819052600160a01b90910460ff16151560808301529093509087161480156114bc5750815187145b156114cb575091506109199050565b806114d581613c4a565b915050611439565b5095945050505050565b604080516020808201979097526001600160a01b0395861681830152939094166060840152608083019190915260a0808301919091528251808303909101815260c0909101909152805191012090565b600082158061154d57506001600160a01b038216155b1561156b576040516354f9d1b760e01b815260040160405180910390fd5b5060009182526005602090815260408084206001600160a01b0393909316845291905290205490565b60006115a3888888888861079e565b9050806000036115c95760405163d8bbd62160e01b815260048101829052602401610d06565b6115d6818484898b61276a565b5050505050505050565b60006115ef888888888861079e565b9050806000036116155760405163d8bbd62160e01b815260048101829052602401610d06565b600061162082611369565b9050838160800151101561164a5760405163099f49a360e11b815260048101859052602401610d06565b6116578284868a8c6128d2565b505050505050505050565b61166a6134fd565b5060009081526007602090815260409182902082516080810184528154815260018201546001600160a01b031692810192909252600281015492820192909252600390910154606082015290565b6116c06134fd565b60006116cc8484611537565b60009081526007602090815260409182902082516080810184528154815260018201546001600160a01b0316928101929092526002810154928201929092526003909101546060820152949350505050565b600061172a8585611537565b90508060000361174b5781156117465761174685858585612a14565b610ff4565b610ff485848487610f85565b6000806117648484611537565b90506000811561178d5760008281526007602052604090206003015461178a9082613ca2565b90505b949350505050565b6000846000036117bb5760405163d8bbd62160e01b815260048101869052602401610d06565b6000858152600c60205260409020600201546001600160a01b038581169116146117fa5783604051633992dcbd60e21b8152600401610d069190613cee565b6000858152600c60205260409020600101546001600160a01b038481169116146118395782604051633992dcbd60e21b8152600401610d069190613cee565b60006118468686866113e2565b60200151905060006118598787876113e2565b604001519050831561189d57811580611870575080155b156118805760009250505061178d565b61188b878787612b16565b611898878383888a612c8a565b6118a8565b6118a8878787612da0565b509195945050505050565b60006118c288888487876114e7565b60008181526009602052604090205490915015611906576000818152600960205260409081902054905163d8bbd62160e01b81526004810191909152602401610d06565b611914600d80546001019055565b600d5460096000838152602001908152602001600020819055506040518060e00160405280898152602001886001600160a01b03168152602001836001600160a01b0316815260200187815260200186815260200185815260200184815250600c6000611980600d5490565b81526020808201929092526040908101600090812084518155848401516001820180546001600160a01b03199081166001600160a01b039384161790915586850151600284018054909216908316179055606086015160038301556080860151600483015560a0860151600583015560c0909501516006909101559285168352600a9091528120805491611a1383613c4a565b90915550506001600160a01b0382166000908152600b602090815260408083208b845290915281208054879290611a4b908490613ca2565b90915550506004546001600160a01b0316634b9915a5886000611a6d600d5490565b604051602001611a7f91815260200190565b604051602081830303815290604052876040518563ffffffff1660e01b8152600401611aae9493929190613d2f565b6020604051808303816000875af1158015611acd573d6000803e3d6000fd5b505050506040513d601f19601f82011682018060405250810190611af19190613d79565b50604080518981526001600160a01b038981166020830152841681830152606081018890526080810187905260a0810186905260c0810185905290517fec550619bfd16823d04f9b9716febb17bd3cc46a60e88f6a4a82a7b52b99a6209181900360e00190a15050505050505050565b611b6961352e565b6000611b78878787878761079e565b6000908152600c6020908152604091829020825160e0810184528154815260018201546001600160a01b03908116938201939093526002820154909216928201929092526003820154606082015260048201546080820152600582015460a082015260069091015460c0820152979650505050505050565b611bf86134cc565b611c03848484610ed6565b611c2357604051634091ca8360e11b815260006004820152602401610d06565b6001600160a01b038216600090815260016020526040902054611c446134cc565b60005b828110156114dd576001600160a01b03808616600090815260208181526040808320858452825291829020825160808101845281548152600182015492810192909252600281015492820192909252600390910154821660608201819052909350908716148015611cb85750815187145b15611cc7575091506109199050565b80611cd181613c4a565b915050611c47565b6000611ce6868686610ed6565b8015611cf85750611cf8868587610821565b15611fe5576000611d0a878787611bf0565b6000888152600c6020908152604091829020825160e0810184528154815260018201546001600160a01b03908116938201939093526002820154909216928201929092526003820154606082015260048201546080820152600582015460a082015260069091015460c08201529091508315611f9157600080611da48360000151846020015185604001518660a001518760c001516114e7565b90508260c001518711611dcc5783602001518360c00151611dc59190613ca2565b9150611dde565b6020840151611ddb9088613ca2565b91505b8260800151846040015103611f44576004546040805160208082018e9052825180830390910181528183019283905260c087015163450e705b60e11b9093526000936001600160a01b031692638a1ce0b692611e40928f928792604401613d2f565b602060405180830381865afa158015611e5d573d6000803e3d6000fd5b505050506040513d601f19601f82011682018060405250810190611e819190613d79565b60045460408051602081018f90529293506001600160a01b039091169163a14e44069184918e9160009101604051602081830303815290604052886040518663ffffffff1660e01b8152600401611edc959493929190613d92565b6020604051808303816000875af1158015611efb573d6000803e3d6000fd5b505050506040513d601f19601f82011682018060405250810190611f1f9190613c17565b506000611f3385600001518c8c8c886114e7565b9050611f4183828b876130b5565b50505b826080015184604001511015611f8e57611f6f83600001518a856060015187604001518b878e6118b3565b60808301516040850151611f8e918391611f899082613c8f565b613102565b50505b611f9c888789612da0565b611fa78888886131da565b600062093a80836020015184604001518460600151611fc69190613cb5565b611fd09190613cb5565b611fda9190613ccc565b935061075f92505050565b50600095945050505050565b6000611ffc600d5490565b905090565b60008061200d83611369565b805190915015612072576120388160000151826020015183604001518460a001518560c0015161207b565b8215612069576120518382602001518360400151610ed6565b156120695761206983826020015183604001516131da565b50600192915050565b50600092915050565b600061208a868686868661079e565b90506000612097600d5490565b90506000600c60008381526020019081526020016000206040518060e0016040529081600082015481526020016001820160009054906101000a90046001600160a01b03166001600160a01b03166001600160a01b031681526020016002820160009054906101000a90046001600160a01b03166001600160a01b03166001600160a01b0316815260200160038201548152602001600482015481526020016005820154815260200160068201548152505090506000600c60008581526020019081526020016000206040518060e0016040529081600082015481526020016001820160009054906101000a90046001600160a01b03166001600160a01b03166001600160a01b031681526020016002820160009054906101000a90046001600160a01b03166001600160a01b03166001600160a01b031681526020016003820154815260200160048201548152602001600582015481526020016006820154815250509050600061220c8a8a8a8a8a6114e7565b905060006122318460000151856020015186604001518760a001518860c001516114e7565b600454602085810151604080518084018c9052815180820390940184528082019182905260c089015163450e705b60e11b9092529495506000946001600160a01b0390941693638a1ce0b69361228c93928792604401613d2f565b602060405180830381865afa1580156122a9573d6000803e3d6000fd5b505050506040513d601f19601f820116820180604052508101906122cd9190613d79565b6004805460405163c4d252f560e01b81529293506001600160a01b03169163c4d252f5916123019185910190815260200190565b600060405180830381600087803b15801561231b57600080fd5b505af115801561232f573d6000803e3d6000fd5b50505050866000146125f65786861461251957600454602086810151604080518084018b9052815180820390940184528082019182905260c08a015163450e705b60e11b9092526001600160a01b0390941693638a1ce0b6936123989392600092604401613d2f565b602060405180830381865afa1580156123b5573d6000803e3d6000fd5b505050506040513d601f19601f820116820180604052508101906123d99190613d79565b9050600460009054906101000a90046001600160a01b03166001600160a01b031663a14e440682876020015160008b60405160200161241a91815260200190565b60408051601f198184030181529082905260c08c01516001600160e01b031960e088901b16835261245095949392600401613d92565b6020604051808303816000875af115801561246f573d6000803e3d6000fd5b505050506040513d601f19601f820116820180604052508101906124939190613c17565b5060008281526009602090815260408083208a9055898352600c82529182902087518155908701516001820180546001600160a01b03199081166001600160a01b039384161790915592880151600283018054909416911617909155606086015160038201556080860151600482015560a0860151600582015560c08601516006909101555b612523600d613477565b6001600160a01b038a166000908152600a6020526040812080549161254783613de3565b91905055508360800151600b60008c6001600160a01b03166001600160a01b0316815260200190815260200160002060008e815260200190815260200160002060008282546125969190613c8f565b90915550506000838152600960209081526040808320839055888352600c90915281208181556001810180546001600160a01b03199081169091556002820180549091169055600381018290556004810182905560058101829055600601555b505050505050505050505050565b60006126108383611537565b9050600061261d60085490565b6000818152600760209081526040918290208251608081018452815480825260018301546001600160a01b031693820184905260028301549482019490945260039091015460608201529293508415612761578484146126de5760008281526005602090815260408083206001600160a01b038581168552908352818420899055888452600783529281902086518155918601516001830180546001600160a01b031916919094161790925590840151600282015560608401516003909101555b6126e86008613477565b6001600160a01b038616600090815260066020526040812080549161270c83613de3565b909155505060008781526005602090815260408083206001600160a01b038a1684528252808320839055868352600790915281208181556001810180546001600160a01b031916905560028101829055600301555b50505050505050565b6001600160a01b038116600090815260036020526040812054908190036127a757604051632e7eb64760e01b815260048101829052602401610d06565b6127af61357d565b60005b828110156115d6576001600160a01b038481166000908152600260208181526040808420868552825292839020835160a081018552815480825260018301549382019390935292810154938301939093526003909201549283166060820152600160a01b90920460ff1615156080830152909250881480156128495750846001600160a01b031682606001516001600160a01b0316145b156128c0578160200151861115612884576001600160a01b038416600090815260026020908152604080832084845290915290206001018690555b816040015187146128b8576001600160a01b0384166000908152600260208181526040808420858552909152909120018790555b505050610ff4565b806128ca81613c4a565b9150506127b2565b6128dd858383610920565b156128fe57604051634c043de760e01b815260016004820152602401610d06565b6001600160a01b0380821660008181526003602081815260408084208054825160a0810184528d81528085018d81528185018d81528c8b1660608401908152608084018a81528b8b526002808a52888c20878d528a52978b209451855592516001858101919091559151968401969096559451918701805491511515600160a01b026001600160a81b031990921692909a1691909117179097559484529190528254909291906129af908490613ca2565b909155505060408051878152602081018790529081018590526001600160a01b0384166060820152600060808201527f0e9848b891f9895b360a0a69fb3f874b563837f7cc945c69948551068ecde2b79060a0015b60405180910390a1505050505050565b612a22600880546001019055565b60085460008581526005602090815260408083206001600160a01b0388811680865291845282852086905582516080810184528a81528085018381528185018a8152606083018a8152988852600787528588209251835590516001830180546001600160a01b031916919094161790925590516002820155945160039095019490945592825260069052908120805491612abb83613c4a565b9091555050604080518581526001600160a01b0385166020820152908101839052606081018290527fe660bce9b99159f335d00feacb0cd1b1ab0b22b5ff32b0e58780ae26df227beb9060800160405180910390a150505050565b6001600160a01b03811660009081526003602052604081205490819003612b5357604051632e7eb64760e01b815260048101829052602401610d06565b612b5b61357d565b60005b82811015612c82576001600160a01b038481166000908152600260208181526040808420868552825292839020835160a0810185528154815260018201549281019290925291820154928101929092526003015480831660608301819052600160a01b90910460ff1615156080830152909350908616148015612be15750815186145b15612c70576001600160a01b0384166000908152600260209081526040808320848452909152902060030154600160a01b900460ff1615612c38576040516326c50dd560e01b815260016004820152602401610d06565b6001600160a01b03841660009081526002602090815260408083208484529091529020600301805460ff60a01b1916600160a01b1790555b80612c7a81613c4a565b915050612b5e565b505050505050565b612c95858383610ed6565b15612cb657604051634091ca8360e11b815260016004820152602401610d06565b6001600160a01b038181166000818152600160208181526040808420805482516080810184528d81528085018d81528185018d81528c8b16606084019081528a8a52898852868a20858b528852958920925183559051828801555160028201559251600390930180546001600160a01b0319169390981692909217909655938352819052835492939092909190612d4e908490613ca2565b909155505060408051878152602081018790529081018590526001600160a01b03841660608201527fa8ea443240aedfe35cf201f5f749deea34b19e3b9e56dcf636feba5afddd736090608001612a04565b6001600160a01b0381166000908152600360205260409020548015610c0b57612dc761357d565b60005b82811015612c82576001600160a01b038481166000908152600260208181526040808420868552825292839020835160a081018552815480825260018301549382019390935292810154938301939093526003909201549283166060820152600160a01b90920460ff161515608083015290925086148015612e615750846001600160a01b031682606001516001600160a01b0316145b156130a3576001600160a01b038416600090815260036020526040812054612e8b90600190613c8f565b9050600060026000876001600160a01b03166001600160a01b0316815260200190815260200160002060008381526020019081526020016000206040518060a00160405290816000820154815260200160018201548152602001600282015481526020016003820160009054906101000a90046001600160a01b03166001600160a01b03166001600160a01b031681526020016003820160149054906101000a900460ff16151515158152505090508060026000886001600160a01b03166001600160a01b03168152602001908152602001600020600085815260200190815260200160002060008201518160000155602082015181600101556040820151816002015560608201518160030160006101000a8154816001600160a01b0302191690836001600160a01b0316021790555060808201518160030160146101000a81548160ff02191690831515021790555090505060026000876001600160a01b03166001600160a01b031681526020019081526020016000206000838152602001908152602001600020600080820160009055600182016000905560028201600090556003820160006101000a8154906001600160a01b0302191690556003820160146101000a81549060ff02191690555050600160036000886001600160a01b03166001600160a01b0316815260200190815260200160002060008282546130949190613c8f565b90915550505050505050505050565b806130ad81613c4a565b915050612dca565b6000848152600960205260409020548015610ff4576000948552600960209081526040808720879055948652848620829055908552600c9052919092206005810192909255600690910155565b6000838152600960205260409020548015610c0b576000818152600c602052604090206004810183905580546002909101546001600160a01b0316838511156131885761314f8486613c8f565b6001600160a01b0382166000908152600b6020908152604080832086845290915281208054909190613182908490613c8f565b90915550505b83851015612c825761319a8585613c8f565b6001600160a01b0382166000908152600b60209081526040808320868452909152812080549091906131cd908490613ca2565b9091555050505050505050565b6001600160a01b0381166000908152600160205260409020548015610c0b576132016134cc565b60005b82811015612c82576001600160a01b03808516600090815260208181526040808320858452825291829020825160808101845281548082526001830154938201939093526002820154938101939093526003015490921660608201529250861480156132855750846001600160a01b031682606001516001600160a01b0316145b15613465576001600160a01b03841660009081526001602081905260408220546132af9190613c8f565b90506000806000876001600160a01b03166001600160a01b0316815260200190815260200160002060008381526020019081526020016000206040518060800160405290816000820154815260200160018201548152602001600282015481526020016003820160009054906101000a90046001600160a01b03166001600160a01b03166001600160a01b031681525050905080600080886001600160a01b03166001600160a01b03168152602001908152602001600020600085815260200190815260200160002060008201518160000155602082015181600101556040820151816002015560608201518160030160006101000a8154816001600160a01b0302191690836001600160a01b03160217905550905050600080876001600160a01b03166001600160a01b031681526020019081526020016000206000838152602001908152602001600020600080820160009055600182016000905560028201600090556003820160006101000a8154906001600160a01b03021916905550506001806000886001600160a01b03166001600160a01b0316815260200190815260200160002060008282546130949190613c8f565b8061346f81613c4a565b915050613204565b8054806134c45760405162461bcd60e51b815260206004820152601b60248201527a436f756e7465723a2064656372656d656e74206f766572666c6f7760281b6044820152606401610d06565b600019019055565b604051806080016040528060008152602001600081526020016000815260200160006001600160a01b031681525090565b60405180608001604052806000815260200160006001600160a01b0316815260200160008152602001600081525090565b6040518060e001604052806000815260200160006001600160a01b0316815260200160006001600160a01b03168152602001600081526020016000815260200160008152602001600081525090565b6040518060a0016040528060008152602001600081526020016000815260200160006001600160a01b031681526020016000151581525090565b80356001600160a01b038116811461124a57600080fd5b6000602082840312156135e057600080fd5b610919826135b7565b6000602082840312156135fb57600080fd5b5035919050565b6000806040838503121561361557600080fd5b82359150613625602084016135b7565b90509250929050565b600080600080600060a0868803121561364657600080fd5b85359450613656602087016135b7565b9350613664604087016135b7565b94979396509394606081013594506080013592915050565b60008060006060848603121561369157600080fd5b833592506136a1602085016135b7565b91506136af604085016135b7565b90509250925092565b8051825260208082015190830152604080820151908301526060908101516001600160a01b0316910152565b6020808252825182820181905260009190848201906040850190845b81811015613726576137138385516136b8565b9284019260809290920191600101613700565b50909695505050505050565b801515811461374057600080fd5b50565b60008060006060848603121561375857600080fd5b8335925060208401359150604084013561377181613732565b809150509250925092565b600080600080600080600080610100898b03121561379957600080fd5b883597506137a960208a016135b7565b965060408901359550606089013594506080890135935060a089013592506137d360c08a016135b7565b915060e089013590509295985092959890939650565b805182526020808201516001600160a01b03169083015260408082015190830152606090810151910152565b6020808252825182820181905260009190848201906040850190845b81811015613726576138448385516137e9565b9284019260809290920191600101613831565b6000806000806080858703121561386d57600080fd5b84359350602085013592506040850135915061388b606086016135b7565b905092959194509250565b80518252602081015160018060a01b0380821660208501528060408401511660408501525050606081015160608301526080810151608083015260a081015160a083015260c081015160c08301525050565b6020808252825182820181905260009190848201906040850190845b8181101561372657613917838551613896565b9284019260e09290920191600101613904565b8051825260208082015190830152604080820151908301526060808201516001600160a01b0316908301526080908101511515910152565b6020808252825182820181905260009190848201906040850190845b818110156137265761399183855161392a565b9284019260a0929092019160010161397e565b60e081016107988284613896565b60a08101610798828461392a565b600080600080600080600060e0888a0312156139db57600080fd5b873596506139eb602089016135b7565b95506139f9604089016135b7565b969995985095966060810135965060808101359560a0820135955060c0909101359350915050565b6080810161079882846137e9565b60008060008060808587031215613a4557600080fd5b84359350613a55602086016135b7565b93969395505050506040820135916060013590565b60008060008060808587031215613a8057600080fd5b84359350613a90602086016135b7565b9250613a9e604086016135b7565b91506060850135613aae81613732565b939692955090935050565b600080600080600080600060e0888a031215613ad457600080fd5b87359650613ae4602089016135b7565b955060408801359450606088013593506080880135925060a08801359150613b0e60c089016135b7565b905092959891949750929550565b6080810161079882846136b8565b600080600080600060a08688031215613b4257600080fd5b85359450613b52602087016135b7565b9350613b60604087016135b7565b9250606086013591506080860135613b7781613732565b809150509295509295909350565b6000815180845260005b81811015613bab57602081850181015186830182015201613b8f565b506000602082860101526020601f19601f83011685010191505092915050565b60018060a01b038616815284602082015260a060408201526000613bf260a0830186613b85565b8281036060840152613c048186613b85565b9150508260808301529695505050505050565b600060208284031215613c2957600080fd5b815161091981613732565b634e487b7160e01b600052601160045260246000fd5b600060018201613c5c57613c5c613c34565b5060010190565b634e487b7160e01b600052604160045260246000fd5b634e487b7160e01b600052603260045260246000fd5b8181038181111561079857610798613c34565b8082018082111561079857610798613c34565b808202811582820484141761079857610798613c34565b600082613ce957634e487b7160e01b600052601260045260246000fd5b500490565b6001600160a01b0391909116815260200190565b601a8152795f726563616c6c426f72726f776564426f6f6b732875696e742960301b602082015260400190565b60018060a01b038516815283602082015260a060408201526000613d5560a08301613d02565b8281036060840152613d678186613b85565b91505082608083015295945050505050565b600060208284031215613d8b57600080fd5b5051919050565b85815260018060a01b038516602082015283604082015260c060608201526000613dbe60c08301613d02565b8281036080840152613dd08186613b85565b9150508260a08301529695505050505050565b600081613df257613df2613c34565b50600019019056fea264697066735822122005eb7a16328697b25c873fe94295466d9d7438baf4e00551088d57e8121c531664736f6c63430008110033",
  "immutableReferences": {},
  "source": "// SPDX-License-Identifier: MIT\r\npragma solidity >=0.4.22 <0.9.0;\r\nimport \"@openzeppelin/contracts/utils/Counters.sol\";\r\n\r\nimport \"../utils/Timelock.sol\";\r\nimport \"../utils/ExtendTime.sol\";\r\nimport \"../utils/Error.sol\";\r\n\r\ncontract BookRentingStorage is ExtendTime {\r\n  using Counters for Counters.Counter;\r\n\r\n  struct LendBook {\r\n    uint256 tokenId;\r\n    address renter;\r\n    uint price; // ETH/book/1week\r\n    uint amount;\r\n  }\r\n\r\n  struct BorrowedBook {\r\n    uint256 tokenId;\r\n    address renter;\r\n    address borrower;\r\n    uint price;\r\n    uint amount;\r\n    uint startTime;\r\n    uint endTime;\r\n  }\r\n\r\n  event LendBookCreated(uint tokenId, address renter, uint price, uint amount);\r\n\r\n  event BorrowedBookCreated(\r\n    uint tokenId,\r\n    address renter,\r\n    address borrower,\r\n    uint price,\r\n    uint amount,\r\n    uint startTime,\r\n    uint endTime\r\n  );\r\n\r\n  TimeLock private _timelock;\r\n\r\n  // Variable for Lend Books\r\n  mapping(uint => mapping(address => uint)) _allLendBook; // (tokenID -> (renter -> ID))\r\n  mapping(address => uint) private _totalOwnedLendBook;\r\n  mapping(uint => LendBook) private _idToLendBook; // (ID -> LendBook))\r\n  Counters.Counter private _lendBooks;\r\n\r\n  // These variables will manage which books are borrowed\r\n  // hashId -> id BorrowedBook\r\n  // hashId = hash(tokenId, renter, borrower, startTime, endTime)\r\n  mapping(bytes32 => uint) _allBorrowedBook;\r\n  mapping(address => uint) private _totalOwnedBorrowedBook;\r\n  // Borrower => (tokenId => amount)\r\n  mapping(address => mapping(uint => uint)) private _amountOwnedBorrowedBooks;\r\n  mapping(uint => BorrowedBook) private _idToBorrowedBook; // (ID -> BorrowedBook))\r\n  Counters.Counter private _borrowedBooks;\r\n\r\n  constructor(TimeLock timelock) {\r\n    _timelock = timelock;\r\n  }\r\n\r\n  // ===================================L============================================\r\n  function isLending(uint tokenId, address renter) public view returns (bool) {\r\n    uint idLendBook = getIdLendBook(tokenId, renter);\r\n    if (idLendBook > 0) {\r\n      return true;\r\n    } else {\r\n      return false;\r\n    }\r\n  }\r\n\r\n  function getLendBook(\r\n    uint tokenId,\r\n    address renter\r\n  ) public view returns (LendBook memory) {\r\n    uint idLendBook = getIdLendBook(tokenId, renter);\r\n    return _idToLendBook[idLendBook];\r\n  }\r\n\r\n  function getLendBookFromId(uint id) public view returns (LendBook memory) {\r\n    return _idToLendBook[id];\r\n  }\r\n\r\n  function getTotalOwnedLendBook(address renter) public view returns (uint) {\r\n    return _totalOwnedLendBook[renter];\r\n  }\r\n\r\n  function _createLendBook(\r\n    uint tokenId,\r\n    address renter,\r\n    uint256 price,\r\n    uint amount\r\n  ) private {\r\n    _lendBooks.increment();\r\n    _allLendBook[tokenId][renter] = _lendBooks.current();\r\n    _idToLendBook[_lendBooks.current()] = LendBook(\r\n      tokenId,\r\n      renter,\r\n      price,\r\n      amount\r\n    );\r\n    _totalOwnedLendBook[renter]++;\r\n    emit LendBookCreated(tokenId, renter, price, amount);\r\n  }\r\n\r\n  function getIdLendBook(\r\n    uint tokenId,\r\n    address renter\r\n  ) public view returns (uint) {\r\n    if (tokenId == 0 || renter == address(0)) {\r\n      revert Error.InvalidParamsError();\r\n    }\r\n    return _allLendBook[tokenId][renter];\r\n  }\r\n\r\n  function getAmountOfLendBooks(\r\n    uint256 tokenId,\r\n    address owner\r\n  ) public view returns (uint) {\r\n    uint idLendBook = getIdLendBook(tokenId, owner);\r\n\r\n    uint totalBook = 0;\r\n    if (idLendBook != 0) {\r\n      totalBook += _idToLendBook[idLendBook].amount;\r\n    }\r\n\r\n    return totalBook;\r\n  }\r\n\r\n  function _removeItemFromAllLendBooks(uint tokenId, address renter) private {\r\n    uint idLendBook = getIdLendBook(tokenId, renter);\r\n    uint lastIdLendBook = _lendBooks.current();\r\n    LendBook memory lastLendBook = _idToLendBook[lastIdLendBook];\r\n    uint lastTokenId = lastLendBook.tokenId;\r\n    address lastRenter = lastLendBook.renter;\r\n    if (idLendBook != 0) {\r\n      if (lastIdLendBook != idLendBook) {\r\n        _allLendBook[lastTokenId][lastRenter] = idLendBook;\r\n        _idToLendBook[idLendBook] = lastLendBook;\r\n      }\r\n\r\n      _lendBooks.decrement();\r\n      _totalOwnedLendBook[renter]--;\r\n      delete _allLendBook[tokenId][renter];\r\n      delete _idToLendBook[lastIdLendBook];\r\n    }\r\n  }\r\n\r\n  function updateLendBookFromRenting(\r\n    uint256 tokenId,\r\n    uint newPrice,\r\n    uint256 newAmount,\r\n    address renter\r\n  ) public {\r\n    uint idLendBook = getIdLendBook(tokenId, renter);\r\n    if (idLendBook == 0) {\r\n      revert Error.InvalidIdError(idLendBook);\r\n    }\r\n\r\n    _idToLendBook[idLendBook].price = newPrice;\r\n\r\n    if (newAmount != 0) {\r\n      _idToLendBook[idLendBook].amount = newAmount;\r\n    } else {\r\n      _removeItemFromAllLendBooks(tokenId, renter);\r\n    }\r\n  }\r\n\r\n  function getAllLendBooks() public view returns (LendBook[] memory) {\r\n    LendBook[] memory books = new LendBook[](_lendBooks.current());\r\n\r\n    for (uint i = 1; i <= _lendBooks.current(); i++) {\r\n      LendBook memory book = _idToLendBook[i];\r\n      books[i - 1] = book;\r\n    }\r\n\r\n    return books;\r\n  }\r\n\r\n  function lendBooks(\r\n    uint256 tokenId,\r\n    address renter,\r\n    uint price,\r\n    uint256 amount\r\n  ) public payable {\r\n    uint idLendBook = getIdLendBook(tokenId, renter);\r\n    if (idLendBook == 0) {\r\n      if (amount > 0) {\r\n        _createLendBook(tokenId, renter, price, amount);\r\n      }\r\n    } else {\r\n      updateLendBookFromRenting(tokenId, price, amount, renter);\r\n    }\r\n  }\r\n\r\n  // ===================================Borrowing============================================\r\n  function getTotalBorrowedBooksOnBorrowing() public view returns (uint) {\r\n    return _borrowedBooks.current();\r\n  }\r\n\r\n  function getHashIdForBorrowedBook(\r\n    uint tokenId,\r\n    address renter,\r\n    address borrower,\r\n    uint startTime,\r\n    uint endTime\r\n  ) public pure returns (bytes32) {\r\n    return keccak256(abi.encode(tokenId, renter, borrower, startTime, endTime));\r\n  }\r\n\r\n  function getBorrowedBook(\r\n    uint tokenId,\r\n    address renter,\r\n    address borrower,\r\n    uint startTime,\r\n    uint endTime\r\n  ) public view returns (BorrowedBook memory) {\r\n    uint idBorrowedBook = getIdBorrowedBook(\r\n      tokenId,\r\n      renter,\r\n      borrower,\r\n      startTime,\r\n      endTime\r\n    );\r\n    return _idToBorrowedBook[idBorrowedBook];\r\n  }\r\n\r\n  function getBorrowedBookFromId(\r\n    uint id\r\n  ) public view returns (BorrowedBook memory) {\r\n    return _idToBorrowedBook[id];\r\n  }\r\n\r\n  function getTotalOwnedBorrowedBook(\r\n    address borrower\r\n  ) public view returns (uint) {\r\n    return _totalOwnedBorrowedBook[borrower];\r\n  }\r\n\r\n  function createBorrowedBook(\r\n    uint tokenId,\r\n    address renter,\r\n    uint256 price,\r\n    uint amount,\r\n    uint startTime,\r\n    uint endTime,\r\n    address borrower\r\n  ) public {\r\n    bytes32 hashId = getHashIdForBorrowedBook(\r\n      tokenId,\r\n      renter,\r\n      borrower,\r\n      startTime,\r\n      endTime\r\n    );\r\n    if (_allBorrowedBook[hashId] != 0) {\r\n      revert Error.InvalidIdError(_allBorrowedBook[hashId]);\r\n    }\r\n    _borrowedBooks.increment();\r\n    _allBorrowedBook[hashId] = _borrowedBooks.current();\r\n    _idToBorrowedBook[_borrowedBooks.current()] = BorrowedBook(\r\n      tokenId,\r\n      renter,\r\n      borrower,\r\n      price,\r\n      amount,\r\n      startTime,\r\n      endTime\r\n    );\r\n    _totalOwnedBorrowedBook[borrower]++;\r\n    _amountOwnedBorrowedBooks[borrower][tokenId] += amount;\r\n    _timelock.queue(\r\n      renter,\r\n      0,\r\n      \"_recallBorrowedBooks(uint)\",\r\n      abi.encodePacked(_borrowedBooks.current()),\r\n      endTime\r\n    );\r\n    emit BorrowedBookCreated(\r\n      tokenId,\r\n      renter,\r\n      borrower,\r\n      price,\r\n      amount,\r\n      startTime,\r\n      endTime\r\n    );\r\n  }\r\n\r\n  function getIdBorrowedBook(\r\n    uint tokenId,\r\n    address renter,\r\n    address borrower,\r\n    uint startTime,\r\n    uint endTime\r\n  ) public view returns (uint) {\r\n    if (\r\n      tokenId == 0 ||\r\n      borrower == address(0) ||\r\n      renter == address(0) ||\r\n      startTime == 0 ||\r\n      endTime <= startTime\r\n    ) {\r\n      revert Error.InvalidParamsError();\r\n    }\r\n\r\n    bytes32 hashId = getHashIdForBorrowedBook(\r\n      tokenId,\r\n      renter,\r\n      borrower,\r\n      startTime,\r\n      endTime\r\n    );\r\n    return _allBorrowedBook[hashId];\r\n  }\r\n\r\n  function _removeItemFromAllBorrowedBooks(\r\n    uint tokenId,\r\n    address renter,\r\n    address borrower,\r\n    uint startTime,\r\n    uint endTime\r\n  ) private {\r\n    uint idBorrowedBook = getIdBorrowedBook(\r\n      tokenId,\r\n      renter,\r\n      borrower,\r\n      startTime,\r\n      endTime\r\n    );\r\n    uint lastIdBorrowedBook = _borrowedBooks.current();\r\n    BorrowedBook memory lastBorrowedBook = _idToBorrowedBook[\r\n      lastIdBorrowedBook\r\n    ];\r\n    BorrowedBook memory borrowedBook = _idToBorrowedBook[idBorrowedBook];\r\n    bytes32 hashId = getHashIdForBorrowedBook(\r\n      tokenId,\r\n      renter,\r\n      borrower,\r\n      startTime,\r\n      endTime\r\n    );\r\n\r\n    bytes32 hashLastId = getHashIdForBorrowedBook(\r\n      lastBorrowedBook.tokenId,\r\n      lastBorrowedBook.renter,\r\n      lastBorrowedBook.borrower,\r\n      lastBorrowedBook.startTime,\r\n      lastBorrowedBook.endTime\r\n    );\r\n    bytes32 txId = _timelock.getTxId(\r\n      borrowedBook.renter,\r\n      0,\r\n      \"_recallBorrowedBooks(uint)\",\r\n      abi.encodePacked(idBorrowedBook),\r\n      borrowedBook.endTime\r\n    );\r\n    _timelock.cancel(txId);\r\n    if (idBorrowedBook != 0) {\r\n      if (lastIdBorrowedBook != idBorrowedBook) {\r\n        txId = _timelock.getTxId(\r\n          lastBorrowedBook.renter,\r\n          0,\r\n          \"_recallBorrowedBooks(uint)\",\r\n          abi.encodePacked(lastIdBorrowedBook),\r\n          lastBorrowedBook.endTime\r\n        );\r\n\r\n        _timelock.update(\r\n          txId,\r\n          lastBorrowedBook.renter,\r\n          0,\r\n          \"_recallBorrowedBooks(uint)\",\r\n          abi.encodePacked(idBorrowedBook),\r\n          lastBorrowedBook.endTime\r\n        );\r\n        _allBorrowedBook[hashLastId] = idBorrowedBook;\r\n        _idToBorrowedBook[idBorrowedBook] = lastBorrowedBook;\r\n      }\r\n\r\n      _borrowedBooks.decrement();\r\n      _totalOwnedBorrowedBook[borrower]--;\r\n      _amountOwnedBorrowedBooks[borrower][tokenId] -= borrowedBook.amount;\r\n      delete _allBorrowedBook[hashId];\r\n      delete _idToBorrowedBook[lastIdBorrowedBook];\r\n    }\r\n  }\r\n\r\n  // Only update time\r\n  function _updateTimeBorrowedBookFromBorrowing(\r\n    bytes32 oldHashId,\r\n    bytes32 newHashId,\r\n    uint newStartTime,\r\n    uint newEndTime\r\n  ) private {\r\n    uint idBorrowedBook = _allBorrowedBook[oldHashId];\r\n    if (idBorrowedBook != 0) {\r\n      delete _allBorrowedBook[oldHashId];\r\n      _allBorrowedBook[newHashId] = idBorrowedBook;\r\n      _idToBorrowedBook[idBorrowedBook].startTime = newStartTime;\r\n      _idToBorrowedBook[idBorrowedBook].endTime = newEndTime;\r\n    }\r\n  }\r\n\r\n  function _updateAmountBorrowedBookFromBorrowingWithHashId(\r\n    bytes32 hashId,\r\n    uint oldAmount,\r\n    uint newAmount\r\n  ) private {\r\n    uint idBorrowedBook = _allBorrowedBook[hashId];\r\n    if (idBorrowedBook != 0) {\r\n      _idToBorrowedBook[idBorrowedBook].amount = newAmount;\r\n      uint tokenId = _idToBorrowedBook[idBorrowedBook].tokenId;\r\n      address borrower = _idToBorrowedBook[idBorrowedBook].borrower;\r\n      if (oldAmount > newAmount) {\r\n        _amountOwnedBorrowedBooks[borrower][tokenId] -= (oldAmount - newAmount);\r\n      }\r\n      if (oldAmount < newAmount) {\r\n        _amountOwnedBorrowedBooks[borrower][tokenId] += (newAmount - oldAmount);\r\n      }\r\n    }\r\n  }\r\n\r\n  function updateAmountBorrowedBookFromBorrowing(\r\n    uint idBorrowedBook,\r\n    uint amount,\r\n    bool isDecrease\r\n  ) public {\r\n    BorrowedBook memory borrowedBook = getBorrowedBookFromId(idBorrowedBook);\r\n    if (borrowedBook.amount >= amount && isDecrease) {\r\n      _idToBorrowedBook[idBorrowedBook].amount -= amount;\r\n      if (_idToBorrowedBook[idBorrowedBook].amount == 0) {\r\n        _removeItemFromAllBorrowedBooks(\r\n          borrowedBook.tokenId,\r\n          borrowedBook.renter,\r\n          borrowedBook.borrower,\r\n          borrowedBook.startTime,\r\n          borrowedBook.endTime\r\n        );\r\n      }\r\n      _amountOwnedBorrowedBooks[borrowedBook.borrower][\r\n        borrowedBook.tokenId\r\n      ] -= amount;\r\n    }\r\n\r\n    if (!isDecrease) {\r\n      _idToBorrowedBook[idBorrowedBook].amount += amount;\r\n      _amountOwnedBorrowedBooks[borrowedBook.borrower][\r\n        borrowedBook.tokenId\r\n      ] += amount;\r\n    }\r\n  }\r\n\r\n  function getAmountOfBorrowedBooks(\r\n    uint256 tokenId,\r\n    address owner\r\n  ) public view returns (uint) {\r\n    return _amountOwnedBorrowedBooks[owner][tokenId];\r\n  }\r\n\r\n  function getOwnedBorrowedBooks() public view returns (BorrowedBook[] memory) {\r\n    uint totalBorrowedBook = _totalOwnedBorrowedBook[msg.sender];\r\n    BorrowedBook[] memory borrowedBooks = new BorrowedBook[](totalBorrowedBook);\r\n\r\n    uint currentIndex = 0;\r\n    for (uint i = 1; i <= _borrowedBooks.current(); i++) {\r\n      BorrowedBook memory book = _idToBorrowedBook[i];\r\n      if (book.borrower == msg.sender) {\r\n        borrowedBooks[currentIndex] = book;\r\n        currentIndex++;\r\n      }\r\n    }\r\n\r\n    return borrowedBooks;\r\n  }\r\n\r\n  function isBorrowedBookReadable(\r\n    uint tokenId,\r\n    address owner\r\n  ) public view returns (bool) {\r\n    for (uint i = 1; i <= _borrowedBooks.current(); i++) {\r\n      BorrowedBook memory book = _idToBorrowedBook[i];\r\n      if (\r\n        book.borrower == owner &&\r\n        book.tokenId == tokenId &&\r\n        book.endTime > block.timestamp\r\n      ) {\r\n        return true;\r\n      }\r\n    }\r\n\r\n    return false;\r\n  }\r\n\r\n  function borrowBooks(\r\n    uint256 tokenId,\r\n    address renter,\r\n    uint256 amount,\r\n    uint256 price,\r\n    uint startTime,\r\n    uint endTime,\r\n    address borrower,\r\n    uint256 value\r\n  ) public payable returns (uint256) {\r\n    uint idLendBook = getIdLendBook(tokenId, renter);\r\n    if (idLendBook == 0) {\r\n      revert Error.InvalidIdError(idLendBook);\r\n    }\r\n    uint totalPrice = (amount * price * (endTime - startTime)) / 604800;\r\n\r\n    if (value != totalPrice) {\r\n      revert Error.InvalidValueError(value);\r\n    }\r\n\r\n    LendBook memory lendBook = getLendBook(tokenId, renter);\r\n\r\n    if (amount > lendBook.amount || amount <= 0) {\r\n      revert Error.InvalidAmountError(amount);\r\n    }\r\n\r\n    createBorrowedBook(\r\n      tokenId,\r\n      renter,\r\n      price,\r\n      amount,\r\n      startTime,\r\n      endTime,\r\n      borrower\r\n    );\r\n    updateLendBookFromRenting(\r\n      tokenId,\r\n      lendBook.price,\r\n      lendBook.amount - amount,\r\n      renter\r\n    );\r\n\r\n    return totalPrice;\r\n  }\r\n\r\n  function requestExtendTimeOfBorrowedBooks(\r\n    uint256 tokenId,\r\n    address renter,\r\n    address borrower,\r\n    uint startTime,\r\n    uint endTime,\r\n    uint extendedAmount,\r\n    uint extendedTime\r\n  ) public {\r\n    uint id = getIdBorrowedBook(tokenId, renter, borrower, startTime, endTime);\r\n    if (id == 0) {\r\n      revert Error.InvalidIdError(id);\r\n    }\r\n    BorrowedBook memory borrowedBook = getBorrowedBookFromId(id);\r\n    if (borrowedBook.amount < extendedAmount) {\r\n      revert Error.InvalidAmountError(extendedAmount);\r\n    }\r\n    _createRequest(id, extendedTime, extendedAmount, borrower, renter);\r\n  }\r\n\r\n  function updateRequestOfBorrowedBooks(\r\n    uint256 tokenId,\r\n    address renter,\r\n    address borrower,\r\n    uint startTime,\r\n    uint endTime,\r\n    uint newExtendedAmount,\r\n    uint newExtendedTime\r\n  ) public {\r\n    uint id = getIdBorrowedBook(tokenId, renter, borrower, startTime, endTime);\r\n    if (id == 0) {\r\n      revert Error.InvalidIdError(id);\r\n    }\r\n    _updateRequest(id, newExtendedAmount, newExtendedTime, borrower, renter);\r\n  }\r\n\r\n  function doAcceptRequestAndCreateResponse(\r\n    uint id,\r\n    address borrower,\r\n    address renter,\r\n    bool isAccept\r\n  ) public returns (bool) {\r\n    if (id == 0) {\r\n      revert Error.InvalidIdError(id);\r\n    }\r\n    if (_idToBorrowedBook[id].borrower != borrower) {\r\n      revert Error.InvalidAddressError(borrower);\r\n    }\r\n    if (_idToBorrowedBook[id].renter != renter) {\r\n      revert Error.InvalidAddressError(renter);\r\n    }\r\n\r\n    // If the owner approves the request, it set status of request isAccept is true and return extended time,\r\n    // otherwise, this request will be deleted.\r\n    uint extendedTime = getRequest(id, borrower, renter).time;\r\n    uint extendedAmount = getRequest(id, borrower, renter).amount;\r\n    if (isAccept) {\r\n      if (extendedTime == 0 || extendedAmount == 0) {\r\n        return false;\r\n      }\r\n\r\n      _setAcceptionForRequest(id, borrower, renter);\r\n      _createResponse(id, extendedTime, extendedAmount, renter, borrower);\r\n    } else {\r\n      _cancelRequest(id, borrower, renter);\r\n    }\r\n\r\n    return isAccept;\r\n  }\r\n\r\n  function transferForSendedRequest(\r\n    uint id,\r\n    address renter,\r\n    address borrower,\r\n    uint currentTime,\r\n    bool isExtend\r\n  ) public payable returns (uint) {\r\n    if (\r\n      isResponseExist(id, renter, borrower) &&\r\n      isAcceptRequest(id, borrower, renter)\r\n    ) {\r\n      Response memory response = getResponse(id, renter, borrower);\r\n      BorrowedBook memory borrowedBook = _idToBorrowedBook[id];\r\n      // Agree to pay for this transaction\r\n      if (isExtend) {\r\n        uint endTime;\r\n        bytes32 oldHashId = getHashIdForBorrowedBook(\r\n          borrowedBook.tokenId,\r\n          borrowedBook.renter,\r\n          borrowedBook.borrower,\r\n          borrowedBook.startTime,\r\n          borrowedBook.endTime\r\n        );\r\n\r\n        //======|==============|================|==========\r\n        //  BB.startTime    current Time     BB.endTime\r\n        if (currentTime <= borrowedBook.endTime) {\r\n          endTime = borrowedBook.endTime + response.time;\r\n        } else {\r\n          endTime = currentTime + response.time;\r\n        }\r\n        if (response.amount == borrowedBook.amount) {\r\n          // Update timelock for borrowed Book\r\n          bytes32 txId = _timelock.getTxId(\r\n            renter,\r\n            0,\r\n            \"_recallBorrowedBooks(uint)\",\r\n            abi.encodePacked(id),\r\n            borrowedBook.endTime\r\n          );\r\n\r\n          _timelock.update(\r\n            txId,\r\n            renter,\r\n            0,\r\n            \"_recallBorrowedBooks(uint)\",\r\n            abi.encodePacked(id),\r\n            endTime\r\n          );\r\n          bytes32 newHashId = getHashIdForBorrowedBook(\r\n            borrowedBook.tokenId,\r\n            renter,\r\n            borrower,\r\n            currentTime,\r\n            endTime\r\n          );\r\n          _updateTimeBorrowedBookFromBorrowing(\r\n            oldHashId,\r\n            newHashId,\r\n            currentTime,\r\n            endTime\r\n          );\r\n        }\r\n\r\n        if (response.amount < borrowedBook.amount) {\r\n          createBorrowedBook(\r\n            borrowedBook.tokenId,\r\n            renter,\r\n            borrowedBook.price,\r\n            response.amount,\r\n            currentTime,\r\n            endTime,\r\n            borrower\r\n          );\r\n          _updateAmountBorrowedBookFromBorrowingWithHashId(\r\n            oldHashId,\r\n            borrowedBook.amount,\r\n            borrowedBook.amount - response.amount\r\n          );\r\n        }\r\n      }\r\n      // Cancle Req + Res for this transaction\r\n      _cancelRequest(id, borrower, renter);\r\n      _cancelResponse(id, renter, borrower);\r\n      uint totalPrice = (borrowedBook.price * response.amount * response.time) /\r\n        604800;\r\n      return totalPrice;\r\n    }\r\n    return 0;\r\n  }\r\n\r\n  function getAllBorrowedBooks() public view returns (BorrowedBook[] memory) {\r\n    BorrowedBook[] memory books;\r\n    if (_borrowedBooks.current() > 0) {\r\n      books = new BorrowedBook[](_borrowedBooks.current());\r\n\r\n      for (uint i = 1; i <= _borrowedBooks.current(); i++) {\r\n        BorrowedBook memory book = _idToBorrowedBook[i];\r\n        books[i - 1] = book;\r\n      }\r\n    }\r\n\r\n    return books;\r\n  }\r\n\r\n  // Return Borrowed Books to Renter (or Owner)\r\n\r\n  function _recallBorrowedBooks(uint idBorrowedBook) private returns (bool) {\r\n    BorrowedBook memory borrowedBook = getBorrowedBookFromId(idBorrowedBook);\r\n    if (borrowedBook.tokenId != 0) {\r\n      _removeItemFromAllBorrowedBooks(\r\n        borrowedBook.tokenId,\r\n        borrowedBook.renter,\r\n        borrowedBook.borrower,\r\n        borrowedBook.startTime,\r\n        borrowedBook.endTime\r\n      );\r\n\r\n      // Remove respone of borrowed books on extending if needed\r\n      if (idBorrowedBook != 0) {\r\n        if (\r\n          isResponseExist(\r\n            idBorrowedBook,\r\n            borrowedBook.renter,\r\n            borrowedBook.borrower\r\n          )\r\n        ) {\r\n          _cancelResponse(\r\n            idBorrowedBook,\r\n            borrowedBook.renter,\r\n            borrowedBook.borrower\r\n          );\r\n        }\r\n      }\r\n\r\n      return true;\r\n    }\r\n    return false;\r\n  }\r\n\r\n  function excRecallBorrowedBooks(uint idBorrowedBook) public returns (bool) {\r\n    BorrowedBook memory book = getBorrowedBookFromId(idBorrowedBook);\r\n    bytes memory data = abi.encodePacked(idBorrowedBook);\r\n    string memory func = \"_recallBorrowedBooks(uint)\";\r\n    if (_timelock.isExecute(book.renter, 0, func, data, book.endTime)) {\r\n      return _recallBorrowedBooks(idBorrowedBook);\r\n    }\r\n\r\n    return false;\r\n  }\r\n}\r\n",
  "sourcePath": "D:\\DO_AN_TOT_NGHIEP\\project\\nft-bookstore\\contracts\\rent\\BookRentingStorage.sol",
  "compiler": {
    "name": "solc",
    "version": "0.8.17+commit.8df45f5f.Emscripten.clang"
  },
  "schemaVersion": "3.4.11",
  "updatedAt": "2023-05-18T04:25:58.940Z",
  "networkType": "ethereum",
  "devdoc": {
    "kind": "dev",
    "methods": {},
    "version": 1
  },
  "userdoc": {
    "kind": "user",
    "methods": {},
    "version": 1
  }
}