{
  "contractName": "BookTemporary",
  "abi": [
    {
      "inputs": [
        {
          "internalType": "contract BookRentingStorage",
          "name": "bookRentingStorage",
          "type": "address"
        },
        {
          "internalType": "contract BookSharingStorage",
          "name": "bookSharingStorage",
          "type": "address"
        }
      ],
      "stateMutability": "nonpayable",
      "type": "constructor"
    },
    {
      "inputs": [
        {
          "internalType": "address",
          "name": "",
          "type": "address"
        }
      ],
      "name": "InvalidAddressError",
      "type": "error"
    },
    {
      "inputs": [
        {
          "internalType": "uint256",
          "name": "",
          "type": "uint256"
        }
      ],
      "name": "InvalidAmountError",
      "type": "error"
    },
    {
      "inputs": [],
      "name": "getBookRentingStorage",
      "outputs": [
        {
          "internalType": "contract BookRentingStorage",
          "name": "",
          "type": "address"
        }
      ],
      "stateMutability": "view",
      "type": "function",
      "constant": true
    },
    {
      "inputs": [],
      "name": "getBookSharingStorage",
      "outputs": [
        {
          "internalType": "contract BookSharingStorage",
          "name": "",
          "type": "address"
        }
      ],
      "stateMutability": "view",
      "type": "function",
      "constant": true
    },
    {
      "inputs": [
        {
          "internalType": "uint256",
          "name": "tokenId",
          "type": "uint256"
        },
        {
          "internalType": "address",
          "name": "owner",
          "type": "address"
        }
      ],
      "name": "getAmountOfAllTypeBooksInTemporary",
      "outputs": [
        {
          "internalType": "uint256",
          "name": "",
          "type": "uint256"
        }
      ],
      "stateMutability": "view",
      "type": "function",
      "constant": true
    },
    {
      "inputs": [
        {
          "internalType": "uint256",
          "name": "tokenId",
          "type": "uint256"
        },
        {
          "internalType": "address",
          "name": "owner",
          "type": "address"
        }
      ],
      "name": "getAmountOfUnsalableBooksInTemporary",
      "outputs": [
        {
          "internalType": "uint256",
          "name": "",
          "type": "uint256"
        }
      ],
      "stateMutability": "view",
      "type": "function",
      "constant": true
    },
    {
      "inputs": [
        {
          "internalType": "uint256",
          "name": "idBookOnSharing",
          "type": "uint256"
        },
        {
          "internalType": "uint256",
          "name": "amount",
          "type": "uint256"
        }
      ],
      "name": "convertBookOnSharingToBorrowedBook",
      "outputs": [],
      "stateMutability": "payable",
      "type": "function",
      "payable": true
    }
  ],
  "bytecode": "0x608060405234801561001057600080fd5b50604051610adc380380610adc83398101604081905261002f91610078565b600080546001600160a01b039384166001600160a01b031991821617909155600180549290931691161790556100b2565b6001600160a01b038116811461007557600080fd5b50565b6000806040838503121561008b57600080fd5b825161009681610060565b60208401519092506100a781610060565b809150509250929050565b610a1b806100c16000396000f3fe60806040526004361061004a5760003560e01c8063521f54181461004f5780637c2f25f314610082578063a943f98f14610097578063bc20efc5146100be578063defec467146100dc575b600080fd5b34801561005b57600080fd5b5061006f61006a36600461080c565b6100fc565b6040519081526020015b60405180910390f35b61009561009036600461083c565b6102f0565b005b3480156100a357600080fd5b506000546001600160a01b03165b604051610079919061085e565b3480156100ca57600080fd5b506001546001600160a01b03166100b1565b3480156100e857600080fd5b5061006f6100f736600461080c565b61069a565b60008054604051635681a2cb60e11b81526001600160a01b039091169063ad0345969061012f9086908690600401610872565b602060405180830381865afa15801561014c573d6000803e3d6000fd5b505050506040513d601f19601f820116820180604052508101906101709190610889565b600154604051638ad24dbb60e01b81526001600160a01b0390911690638ad24dbb906101a29087908790600401610872565b602060405180830381865afa1580156101bf573d6000803e3d6000fd5b505050506040513d601f19601f820116820180604052508101906101e39190610889565b600154604051630ce4959560e21b81526001600160a01b03909116906333925654906102159088908890600401610872565b602060405180830381865afa158015610232573d6000803e3d6000fd5b505050506040513d601f19601f820116820180604052508101906102569190610889565b6000546040516369020cf960e11b81526001600160a01b039091169063d20419f2906102889089908990600401610872565b602060405180830381865afa1580156102a5573d6000803e3d6000fd5b505050506040513d601f19601f820116820180604052508101906102c99190610889565b6102d391906108b8565b6102dd91906108b8565b6102e791906108b8565b90505b92915050565b60015460405163c0a6417160e01b8152600481018490526000916001600160a01b03169063c0a641719060240161012060405180830381865afa15801561033b573d6000803e3d6000fd5b505050506040513d601f19601f8201168201806040525081019061035f9190610913565b60408101519091506001600160a01b0316331461039a5733604051633992dcbd60e21b8152600401610391919061085e565b60405180910390fd5b818160c0015110156103c25760405163099f49a360e11b815260048101839052602401610391565b8060c00151820361044f576001548151602083015160408085015160e08601516101008701519251635c89ea5d60e11b81526001600160a01b039096169563b913d4ba95610418959094909392916004016109a3565b600060405180830381600087803b15801561043257600080fd5b505af1158015610446573d6000803e3d6000fd5b505050506104f3565b600154815160a083015160c08401516001600160a01b0390931692639c48c1b3928792339261047f9089906109d2565b6040516001600160e01b031960e088901b16815260048101959095526001600160a01b03909316602485015260448401919091526064830152608482015260a401600060405180830381600087803b1580156104da57600080fd5b505af11580156104ee573d6000803e3d6000fd5b505050505b600080548251602084015160e08501516101008601516040516301e4faa160e31b81526001600160a01b0390951694630f27d5089461053a949093909233926004016109a3565b602060405180830381865afa158015610557573d6000803e3d6000fd5b505050506040513d601f19601f8201168201806040525081019061057b9190610889565b9050806000036106275760005482516020840151608085015160e086015161010087015160405163d5cb4efb60e01b815260048101959095526001600160a01b039384166024860152604485019290925260648401889052608484015260a48301523360c48301529091169063d5cb4efb9060e401600060405180830381600087803b15801561060a57600080fd5b505af115801561061e573d6000803e3d6000fd5b50505050610694565b60008054604051631a43551f60e11b8152600481018490526024810186905260448101929092526001600160a01b031690633486aa3e90606401600060405180830381600087803b15801561067b57600080fd5b505af115801561068f573d6000803e3d6000fd5b505050505b50505050565b60008054604051635681a2cb60e11b81526001600160a01b039091169063ad034596906106cd9086908690600401610872565b602060405180830381865afa1580156106ea573d6000803e3d6000fd5b505050506040513d601f19601f8201168201806040525081019061070e9190610889565b600154604051638ad24dbb60e01b81526001600160a01b0390911690638ad24dbb906107409087908790600401610872565b602060405180830381865afa15801561075d573d6000803e3d6000fd5b505050506040513d601f19601f820116820180604052508101906107819190610889565b600154604051630ce4959560e21b81526001600160a01b03909116906333925654906107b39088908890600401610872565b602060405180830381865afa1580156107d0573d6000803e3d6000fd5b505050506040513d601f19601f820116820180604052508101906102d39190610889565b6001600160a01b038116811461080957600080fd5b50565b6000806040838503121561081f57600080fd5b823591506020830135610831816107f4565b809150509250929050565b6000806040838503121561084f57600080fd5b50508035926020909101359150565b6001600160a01b0391909116815260200190565b9182526001600160a01b0316602082015260400190565b60006020828403121561089b57600080fd5b5051919050565b634e487b7160e01b600052601160045260246000fd5b808201808211156102ea576102ea6108a2565b604051610120810167ffffffffffffffff811182821017156108fd57634e487b7160e01b600052604160045260246000fd5b60405290565b805161090e816107f4565b919050565b6000610120828403121561092657600080fd5b61092e6108cb565b8251815261093e60208401610903565b602082015261094f60408401610903565b604082015261096060608401610903565b60608201526080830151608082015260a083015160a082015260c083015160c082015260e083015160e08201526101008084015181830152508091505092915050565b9485526001600160a01b0393841660208601529190921660408401526060830191909152608082015260a00190565b818103818111156102ea576102ea6108a256fea26469706673582212203f40264efbbc7356d9fa1f58686d73a6875d657347c5a1e79bb1eb468a9c570264736f6c63430008110033",
  "immutableReferences": {},
  "source": "// SPDX-License-Identifier: MIT\r\npragma solidity >=0.4.22 <0.9.0;\r\nimport \"./utils/Error.sol\";\r\nimport \"./rent/BookRentingStorage.sol\";\r\nimport \"./share/BookSharingStorage.sol\";\r\n\r\ncontract BookTemporary {\r\n  BookRentingStorage private _bookRentingStorage;\r\n  BookSharingStorage private _bookSharingStorage;\r\n\r\n  constructor(\r\n    BookRentingStorage bookRentingStorage,\r\n    BookSharingStorage bookSharingStorage\r\n  ) {\r\n    _bookRentingStorage = bookRentingStorage;\r\n    _bookSharingStorage = bookSharingStorage;\r\n  }\r\n\r\n  function getBookRentingStorage() public view returns (BookRentingStorage) {\r\n    return _bookRentingStorage;\r\n  }\r\n\r\n  function getBookSharingStorage() public view returns (BookSharingStorage) {\r\n    return _bookSharingStorage;\r\n  }\r\n\r\n  function getAmountOfAllTypeBooksInTemporary(\r\n    uint256 tokenId,\r\n    address owner\r\n  ) public view returns (uint) {\r\n    return\r\n      _bookRentingStorage.getAmountOfLendBooks(tokenId, owner) +\r\n      _bookSharingStorage.getAmountOfAllSharedBooks(tokenId, owner) +\r\n      _bookSharingStorage.getAmountOfAllBooksOnSharing(tokenId, owner) +\r\n      _bookRentingStorage.getAmountOfBorrowedBooks(tokenId, owner);\r\n  }\r\n\r\n  function getAmountOfUnsalableBooksInTemporary(\r\n    uint256 tokenId,\r\n    address owner\r\n  ) public view returns (uint) {\r\n    return\r\n      _bookSharingStorage.getAmountOfAllSharedBooks(tokenId, owner) +\r\n      _bookSharingStorage.getAmountOfAllBooksOnSharing(tokenId, owner) +\r\n      _bookRentingStorage.getAmountOfBorrowedBooks(tokenId, owner);\r\n  }\r\n\r\n  function convertBookOnSharingToBorrowedBook(\r\n    uint idBookOnSharing,\r\n    uint amount\r\n  ) public payable {\r\n    BookSharingStorage.BookSharing memory booksOnSharing = _bookSharingStorage\r\n      .getBooksOnSharing(idBookOnSharing);\r\n\r\n    if (booksOnSharing.sharer != msg.sender) {\r\n      revert Error.InvalidAddressError(msg.sender);\r\n    }\r\n    if (booksOnSharing.amount < amount) {\r\n      revert Error.InvalidAmountError(amount);\r\n    }\r\n\r\n    if (amount == booksOnSharing.amount) {\r\n      _bookSharingStorage.removeBooksOnSharing(\r\n        booksOnSharing.tokenId,\r\n        booksOnSharing.fromRenter,\r\n        booksOnSharing.sharer,\r\n        booksOnSharing.startTime,\r\n        booksOnSharing.endTime\r\n      );\r\n    } else {\r\n      _bookSharingStorage.updateBooksOnSharing(\r\n        idBookOnSharing,\r\n        msg.sender,\r\n        booksOnSharing.tokenId,\r\n        booksOnSharing.price,\r\n        booksOnSharing.amount - amount\r\n      );\r\n    }\r\n\r\n    uint idBorrowedBook = _bookRentingStorage.getIdBorrowedBook(\r\n      booksOnSharing.tokenId,\r\n      booksOnSharing.fromRenter,\r\n      msg.sender,\r\n      booksOnSharing.startTime,\r\n      booksOnSharing.endTime\r\n    );\r\n    if (idBorrowedBook == 0) {\r\n      _bookRentingStorage.createBorrowedBook(\r\n        booksOnSharing.tokenId,\r\n        booksOnSharing.fromRenter,\r\n        booksOnSharing.priceOfBB,\r\n        amount,\r\n        booksOnSharing.startTime,\r\n        booksOnSharing.endTime,\r\n        msg.sender\r\n      );\r\n    } else {\r\n      _bookRentingStorage.updateAmountBorrowedBookFromBorrowing(\r\n        idBorrowedBook,\r\n        amount,\r\n        false\r\n      );\r\n    }\r\n  }\r\n}\r\n",
  "sourcePath": "D:\\DO_AN_TOT_NGHIEP\\project\\nft-bookstore\\contracts\\BookTemporary.sol",
  "compiler": {
    "name": "solc",
    "version": "0.8.17+commit.8df45f5f.Emscripten.clang"
  },
  "schemaVersion": "3.4.11",
  "updatedAt": "2023-06-28T14:31:05.054Z",
  "networkType": "ethereum",
  "devdoc": {
    "kind": "dev",
    "methods": {},
    "version": 1
  },
  "userdoc": {
    "kind": "user",
    "methods": {},
    "version": 1
  }
}