{
  "contractName": "BookStore",
  "abi": [
    {
      "inputs": [
        {
          "internalType": "contract BookSellingStorage",
          "name": "bookSellingStorage",
          "type": "address"
        },
        {
          "internalType": "contract BookTemporary",
          "name": "bookTemporary",
          "type": "address"
        },
        {
          "internalType": "contract ListRealOwners",
          "name": "listRealOwners",
          "type": "address"
        },
        {
          "internalType": "contract SecretKeyStorage",
          "name": "secretKeyStorage",
          "type": "address"
        }
      ],
      "stateMutability": "nonpayable",
      "type": "constructor"
    },
    {
      "inputs": [],
      "name": "ExecutionError",
      "type": "error"
    },
    {
      "inputs": [
        {
          "internalType": "address",
          "name": "",
          "type": "address"
        }
      ],
      "name": "InvalidAddressError",
      "type": "error"
    },
    {
      "inputs": [
        {
          "internalType": "uint256",
          "name": "",
          "type": "uint256"
        }
      ],
      "name": "InvalidAmountError",
      "type": "error"
    },
    {
      "inputs": [
        {
          "internalType": "uint256",
          "name": "",
          "type": "uint256"
        }
      ],
      "name": "InvalidIdError",
      "type": "error"
    },
    {
      "inputs": [
        {
          "internalType": "uint256",
          "name": "",
          "type": "uint256"
        },
        {
          "internalType": "address",
          "name": "",
          "type": "address"
        }
      ],
      "name": "InvalidOwnerError",
      "type": "error"
    },
    {
      "inputs": [
        {
          "internalType": "uint256",
          "name": "",
          "type": "uint256"
        }
      ],
      "name": "InvalidPriceError",
      "type": "error"
    },
    {
      "inputs": [
        {
          "internalType": "uint256",
          "name": "",
          "type": "uint256"
        }
      ],
      "name": "InvalidTimeError",
      "type": "error"
    },
    {
      "inputs": [
        {
          "internalType": "string",
          "name": "",
          "type": "string"
        }
      ],
      "name": "InvalidTokenUriError",
      "type": "error"
    },
    {
      "inputs": [
        {
          "internalType": "uint256",
          "name": "",
          "type": "uint256"
        }
      ],
      "name": "NoReadingPermissionError",
      "type": "error"
    },
    {
      "anonymous": false,
      "inputs": [
        {
          "indexed": true,
          "internalType": "address",
          "name": "account",
          "type": "address"
        },
        {
          "indexed": true,
          "internalType": "address",
          "name": "operator",
          "type": "address"
        },
        {
          "indexed": false,
          "internalType": "bool",
          "name": "approved",
          "type": "bool"
        }
      ],
      "name": "ApprovalForAll",
      "type": "event"
    },
    {
      "anonymous": false,
      "inputs": [
        {
          "indexed": false,
          "internalType": "uint256",
          "name": "tokenId",
          "type": "uint256"
        },
        {
          "indexed": false,
          "internalType": "address",
          "name": "author",
          "type": "address"
        },
        {
          "indexed": false,
          "internalType": "uint256",
          "name": "quantity",
          "type": "uint256"
        }
      ],
      "name": "NFTBookCreated",
      "type": "event"
    },
    {
      "anonymous": false,
      "inputs": [
        {
          "indexed": true,
          "internalType": "address",
          "name": "previousOwner",
          "type": "address"
        },
        {
          "indexed": true,
          "internalType": "address",
          "name": "newOwner",
          "type": "address"
        }
      ],
      "name": "OwnershipTransferred",
      "type": "event"
    },
    {
      "anonymous": false,
      "inputs": [
        {
          "indexed": false,
          "internalType": "bool",
          "name": "isSuccess",
          "type": "bool"
        }
      ],
      "name": "RecallBookResult",
      "type": "event"
    },
    {
      "anonymous": false,
      "inputs": [
        {
          "indexed": true,
          "internalType": "address",
          "name": "operator",
          "type": "address"
        },
        {
          "indexed": true,
          "internalType": "address",
          "name": "from",
          "type": "address"
        },
        {
          "indexed": true,
          "internalType": "address",
          "name": "to",
          "type": "address"
        },
        {
          "indexed": false,
          "internalType": "uint256[]",
          "name": "ids",
          "type": "uint256[]"
        },
        {
          "indexed": false,
          "internalType": "uint256[]",
          "name": "values",
          "type": "uint256[]"
        }
      ],
      "name": "TransferBatch",
      "type": "event"
    },
    {
      "anonymous": false,
      "inputs": [
        {
          "indexed": true,
          "internalType": "address",
          "name": "operator",
          "type": "address"
        },
        {
          "indexed": true,
          "internalType": "address",
          "name": "from",
          "type": "address"
        },
        {
          "indexed": true,
          "internalType": "address",
          "name": "to",
          "type": "address"
        },
        {
          "indexed": false,
          "internalType": "uint256",
          "name": "id",
          "type": "uint256"
        },
        {
          "indexed": false,
          "internalType": "uint256",
          "name": "value",
          "type": "uint256"
        }
      ],
      "name": "TransferSingle",
      "type": "event"
    },
    {
      "anonymous": false,
      "inputs": [
        {
          "indexed": false,
          "internalType": "string",
          "name": "value",
          "type": "string"
        },
        {
          "indexed": true,
          "internalType": "uint256",
          "name": "id",
          "type": "uint256"
        }
      ],
      "name": "URI",
      "type": "event"
    },
    {
      "inputs": [
        {
          "internalType": "address",
          "name": "account",
          "type": "address"
        },
        {
          "internalType": "uint256",
          "name": "id",
          "type": "uint256"
        }
      ],
      "name": "balanceOf",
      "outputs": [
        {
          "internalType": "uint256",
          "name": "",
          "type": "uint256"
        }
      ],
      "stateMutability": "view",
      "type": "function",
      "constant": true
    },
    {
      "inputs": [
        {
          "internalType": "address[]",
          "name": "accounts",
          "type": "address[]"
        },
        {
          "internalType": "uint256[]",
          "name": "ids",
          "type": "uint256[]"
        }
      ],
      "name": "balanceOfBatch",
      "outputs": [
        {
          "internalType": "uint256[]",
          "name": "",
          "type": "uint256[]"
        }
      ],
      "stateMutability": "view",
      "type": "function",
      "constant": true
    },
    {
      "inputs": [
        {
          "internalType": "address",
          "name": "account",
          "type": "address"
        },
        {
          "internalType": "address",
          "name": "operator",
          "type": "address"
        }
      ],
      "name": "isApprovedForAll",
      "outputs": [
        {
          "internalType": "bool",
          "name": "",
          "type": "bool"
        }
      ],
      "stateMutability": "view",
      "type": "function",
      "constant": true
    },
    {
      "inputs": [],
      "name": "lendingPrice",
      "outputs": [
        {
          "internalType": "uint256",
          "name": "",
          "type": "uint256"
        }
      ],
      "stateMutability": "view",
      "type": "function",
      "constant": true
    },
    {
      "inputs": [],
      "name": "listingPrice",
      "outputs": [
        {
          "internalType": "uint256",
          "name": "",
          "type": "uint256"
        }
      ],
      "stateMutability": "view",
      "type": "function",
      "constant": true
    },
    {
      "inputs": [],
      "name": "owner",
      "outputs": [
        {
          "internalType": "address",
          "name": "",
          "type": "address"
        }
      ],
      "stateMutability": "view",
      "type": "function",
      "constant": true
    },
    {
      "inputs": [],
      "name": "renounceOwnership",
      "outputs": [],
      "stateMutability": "nonpayable",
      "type": "function"
    },
    {
      "inputs": [
        {
          "internalType": "address",
          "name": "from",
          "type": "address"
        },
        {
          "internalType": "address",
          "name": "to",
          "type": "address"
        },
        {
          "internalType": "uint256[]",
          "name": "ids",
          "type": "uint256[]"
        },
        {
          "internalType": "uint256[]",
          "name": "amounts",
          "type": "uint256[]"
        },
        {
          "internalType": "bytes",
          "name": "data",
          "type": "bytes"
        }
      ],
      "name": "safeBatchTransferFrom",
      "outputs": [],
      "stateMutability": "nonpayable",
      "type": "function"
    },
    {
      "inputs": [
        {
          "internalType": "address",
          "name": "from",
          "type": "address"
        },
        {
          "internalType": "address",
          "name": "to",
          "type": "address"
        },
        {
          "internalType": "uint256",
          "name": "id",
          "type": "uint256"
        },
        {
          "internalType": "uint256",
          "name": "amount",
          "type": "uint256"
        },
        {
          "internalType": "bytes",
          "name": "data",
          "type": "bytes"
        }
      ],
      "name": "safeTransferFrom",
      "outputs": [],
      "stateMutability": "nonpayable",
      "type": "function"
    },
    {
      "inputs": [
        {
          "internalType": "address",
          "name": "operator",
          "type": "address"
        },
        {
          "internalType": "bool",
          "name": "approved",
          "type": "bool"
        }
      ],
      "name": "setApprovalForAll",
      "outputs": [],
      "stateMutability": "nonpayable",
      "type": "function"
    },
    {
      "inputs": [],
      "name": "sharingPrice",
      "outputs": [
        {
          "internalType": "uint256",
          "name": "",
          "type": "uint256"
        }
      ],
      "stateMutability": "view",
      "type": "function",
      "constant": true
    },
    {
      "inputs": [
        {
          "internalType": "bytes4",
          "name": "interfaceId",
          "type": "bytes4"
        }
      ],
      "name": "supportsInterface",
      "outputs": [
        {
          "internalType": "bool",
          "name": "",
          "type": "bool"
        }
      ],
      "stateMutability": "view",
      "type": "function",
      "constant": true
    },
    {
      "inputs": [
        {
          "internalType": "address",
          "name": "newOwner",
          "type": "address"
        }
      ],
      "name": "transferOwnership",
      "outputs": [],
      "stateMutability": "nonpayable",
      "type": "function"
    },
    {
      "inputs": [
        {
          "internalType": "uint256",
          "name": "tokenId",
          "type": "uint256"
        }
      ],
      "name": "uri",
      "outputs": [
        {
          "internalType": "string",
          "name": "",
          "type": "string"
        }
      ],
      "stateMutability": "view",
      "type": "function",
      "constant": true
    },
    {
      "inputs": [
        {
          "internalType": "uint256",
          "name": "tokenId",
          "type": "uint256"
        }
      ],
      "name": "getUri",
      "outputs": [
        {
          "internalType": "string",
          "name": "",
          "type": "string"
        }
      ],
      "stateMutability": "view",
      "type": "function",
      "constant": true
    },
    {
      "inputs": [
        {
          "internalType": "uint256",
          "name": "newPrice",
          "type": "uint256"
        }
      ],
      "name": "setListingPrice",
      "outputs": [],
      "stateMutability": "nonpayable",
      "type": "function"
    },
    {
      "inputs": [
        {
          "internalType": "uint256",
          "name": "newPrice",
          "type": "uint256"
        }
      ],
      "name": "setLendingPrice",
      "outputs": [],
      "stateMutability": "nonpayable",
      "type": "function"
    },
    {
      "inputs": [
        {
          "internalType": "uint256",
          "name": "newPrice",
          "type": "uint256"
        }
      ],
      "name": "setSharingPrice",
      "outputs": [],
      "stateMutability": "nonpayable",
      "type": "function"
    },
    {
      "inputs": [
        {
          "internalType": "uint256",
          "name": "tokenId",
          "type": "uint256"
        }
      ],
      "name": "getAllRealOwnerOfTokenId",
      "outputs": [
        {
          "internalType": "address[]",
          "name": "",
          "type": "address[]"
        }
      ],
      "stateMutability": "view",
      "type": "function",
      "constant": true
    },
    {
      "inputs": [
        {
          "internalType": "uint256",
          "name": "tokenId",
          "type": "uint256"
        }
      ],
      "name": "getBalanceOfOwnerBook",
      "outputs": [
        {
          "internalType": "uint256",
          "name": "",
          "type": "uint256"
        }
      ],
      "stateMutability": "view",
      "type": "function",
      "constant": true
    },
    {
      "inputs": [
        {
          "internalType": "uint256",
          "name": "tokenId",
          "type": "uint256"
        }
      ],
      "name": "getNftBook",
      "outputs": [
        {
          "components": [
            {
              "internalType": "uint256",
              "name": "tokenId",
              "type": "uint256"
            },
            {
              "internalType": "address",
              "name": "author",
              "type": "address"
            },
            {
              "internalType": "uint256",
              "name": "quantity",
              "type": "uint256"
            }
          ],
          "internalType": "struct BookStore.NFTBook",
          "name": "",
          "type": "tuple"
        }
      ],
      "stateMutability": "view",
      "type": "function",
      "constant": true
    },
    {
      "inputs": [
        {
          "internalType": "string",
          "name": "tokenURI",
          "type": "string"
        }
      ],
      "name": "isTokenURIExist",
      "outputs": [
        {
          "internalType": "bool",
          "name": "",
          "type": "bool"
        }
      ],
      "stateMutability": "view",
      "type": "function",
      "constant": true
    },
    {
      "inputs": [
        {
          "internalType": "string",
          "name": "tokenURI",
          "type": "string"
        },
        {
          "internalType": "uint256",
          "name": "quantity",
          "type": "uint256"
        },
        {
          "internalType": "string",
          "name": "privateKey",
          "type": "string"
        },
        {
          "internalType": "string",
          "name": "iv",
          "type": "string"
        }
      ],
      "name": "mintBook",
      "outputs": [
        {
          "internalType": "uint256",
          "name": "",
          "type": "uint256"
        }
      ],
      "stateMutability": "payable",
      "type": "function",
      "payable": true
    },
    {
      "inputs": [
        {
          "internalType": "uint256",
          "name": "tokenId",
          "type": "uint256"
        }
      ],
      "name": "getSecretKey",
      "outputs": [
        {
          "internalType": "string[]",
          "name": "",
          "type": "string[]"
        }
      ],
      "stateMutability": "view",
      "type": "function",
      "constant": true
    },
    {
      "inputs": [
        {
          "internalType": "uint256",
          "name": "tokenId",
          "type": "uint256"
        }
      ],
      "name": "isBookReadableByUser",
      "outputs": [
        {
          "internalType": "bool",
          "name": "",
          "type": "bool"
        }
      ],
      "stateMutability": "view",
      "type": "function",
      "constant": true
    },
    {
      "inputs": [
        {
          "internalType": "uint256",
          "name": "tokenId",
          "type": "uint256"
        },
        {
          "internalType": "address",
          "name": "owner",
          "type": "address"
        }
      ],
      "name": "isOwnerOfToken",
      "outputs": [
        {
          "internalType": "bool",
          "name": "",
          "type": "bool"
        }
      ],
      "stateMutability": "view",
      "type": "function",
      "constant": true
    },
    {
      "inputs": [],
      "name": "getOwnedNFTBooks",
      "outputs": [
        {
          "components": [
            {
              "internalType": "uint256",
              "name": "tokenId",
              "type": "uint256"
            },
            {
              "internalType": "address",
              "name": "author",
              "type": "address"
            },
            {
              "internalType": "uint256",
              "name": "quantity",
              "type": "uint256"
            }
          ],
          "internalType": "struct BookStore.NFTBook[]",
          "name": "",
          "type": "tuple[]"
        }
      ],
      "stateMutability": "view",
      "type": "function",
      "constant": true
    },
    {
      "inputs": [],
      "name": "getOwnedListedBooks",
      "outputs": [
        {
          "components": [
            {
              "internalType": "uint256",
              "name": "tokenId",
              "type": "uint256"
            },
            {
              "internalType": "address",
              "name": "seller",
              "type": "address"
            },
            {
              "internalType": "address",
              "name": "buyer",
              "type": "address"
            },
            {
              "internalType": "uint256",
              "name": "price",
              "type": "uint256"
            },
            {
              "internalType": "uint256",
              "name": "amount",
              "type": "uint256"
            }
          ],
          "internalType": "struct BookSellingStorage.BookSelling[]",
          "name": "",
          "type": "tuple[]"
        }
      ],
      "stateMutability": "view",
      "type": "function",
      "constant": true
    },
    {
      "inputs": [],
      "name": "getOwnedLendingBooks",
      "outputs": [
        {
          "components": [
            {
              "internalType": "uint256",
              "name": "tokenId",
              "type": "uint256"
            },
            {
              "internalType": "address",
              "name": "renter",
              "type": "address"
            },
            {
              "internalType": "uint256",
              "name": "price",
              "type": "uint256"
            },
            {
              "internalType": "uint256",
              "name": "amount",
              "type": "uint256"
            }
          ],
          "internalType": "struct BookRentingStorage.LendBook[]",
          "name": "",
          "type": "tuple[]"
        }
      ],
      "stateMutability": "view",
      "type": "function",
      "constant": true
    },
    {
      "inputs": [
        {
          "internalType": "uint256",
          "name": "tokenId",
          "type": "uint256"
        }
      ],
      "name": "getAmountUnUsedBook",
      "outputs": [
        {
          "internalType": "uint256",
          "name": "",
          "type": "uint256"
        }
      ],
      "stateMutability": "view",
      "type": "function",
      "constant": true
    },
    {
      "inputs": [
        {
          "internalType": "uint256",
          "name": "tokenId",
          "type": "uint256"
        }
      ],
      "name": "getAmountOfAllTypeBooksUntradeable",
      "outputs": [
        {
          "internalType": "uint256",
          "name": "",
          "type": "uint256"
        }
      ],
      "stateMutability": "view",
      "type": "function",
      "constant": true
    },
    {
      "inputs": [
        {
          "internalType": "uint256",
          "name": "tokenId",
          "type": "uint256"
        },
        {
          "internalType": "uint256",
          "name": "price",
          "type": "uint256"
        },
        {
          "internalType": "uint256",
          "name": "amount",
          "type": "uint256"
        }
      ],
      "name": "sellBooks",
      "outputs": [],
      "stateMutability": "payable",
      "type": "function",
      "payable": true
    },
    {
      "inputs": [
        {
          "internalType": "uint256",
          "name": "tokenId",
          "type": "uint256"
        },
        {
          "internalType": "uint256",
          "name": "price",
          "type": "uint256"
        },
        {
          "internalType": "uint256",
          "name": "amount",
          "type": "uint256"
        }
      ],
      "name": "lendBooks",
      "outputs": [],
      "stateMutability": "payable",
      "type": "function",
      "payable": true
    },
    {
      "inputs": [
        {
          "internalType": "uint256",
          "name": "tokenId",
          "type": "uint256"
        },
        {
          "internalType": "uint256",
          "name": "newPrice",
          "type": "uint256"
        },
        {
          "internalType": "uint256",
          "name": "newAmount",
          "type": "uint256"
        },
        {
          "internalType": "address",
          "name": "seller",
          "type": "address"
        }
      ],
      "name": "updateBookFromSale",
      "outputs": [],
      "stateMutability": "nonpayable",
      "type": "function"
    },
    {
      "inputs": [
        {
          "internalType": "uint256",
          "name": "tokenId",
          "type": "uint256"
        },
        {
          "internalType": "uint256",
          "name": "newPrice",
          "type": "uint256"
        },
        {
          "internalType": "uint256",
          "name": "newAmount",
          "type": "uint256"
        },
        {
          "internalType": "address",
          "name": "renter",
          "type": "address"
        }
      ],
      "name": "updateBookFromRenting",
      "outputs": [],
      "stateMutability": "nonpayable",
      "type": "function"
    },
    {
      "inputs": [
        {
          "internalType": "uint256",
          "name": "tokenId",
          "type": "uint256"
        },
        {
          "internalType": "address",
          "name": "seller",
          "type": "address"
        },
        {
          "internalType": "uint256",
          "name": "amount",
          "type": "uint256"
        }
      ],
      "name": "buyBooks",
      "outputs": [],
      "stateMutability": "payable",
      "type": "function",
      "payable": true
    },
    {
      "inputs": [
        {
          "internalType": "uint256",
          "name": "tokenId",
          "type": "uint256"
        },
        {
          "internalType": "address",
          "name": "renter",
          "type": "address"
        },
        {
          "internalType": "uint256",
          "name": "price",
          "type": "uint256"
        },
        {
          "internalType": "uint256",
          "name": "amount",
          "type": "uint256"
        },
        {
          "internalType": "uint256",
          "name": "rentalDuration",
          "type": "uint256"
        }
      ],
      "name": "borrowBooks",
      "outputs": [],
      "stateMutability": "payable",
      "type": "function",
      "payable": true
    },
    {
      "inputs": [
        {
          "internalType": "uint256",
          "name": "tokenId",
          "type": "uint256"
        },
        {
          "internalType": "address",
          "name": "renter",
          "type": "address"
        },
        {
          "internalType": "uint256",
          "name": "startTime",
          "type": "uint256"
        },
        {
          "internalType": "uint256",
          "name": "endTime",
          "type": "uint256"
        },
        {
          "internalType": "uint256",
          "name": "extendedAmount",
          "type": "uint256"
        },
        {
          "internalType": "uint256",
          "name": "extendedTime",
          "type": "uint256"
        }
      ],
      "name": "requestExtendTimeOfBorrowedBooks",
      "outputs": [],
      "stateMutability": "nonpayable",
      "type": "function"
    },
    {
      "inputs": [
        {
          "internalType": "uint256",
          "name": "tokenId",
          "type": "uint256"
        },
        {
          "internalType": "address",
          "name": "renter",
          "type": "address"
        },
        {
          "internalType": "uint256",
          "name": "startTime",
          "type": "uint256"
        },
        {
          "internalType": "uint256",
          "name": "endTime",
          "type": "uint256"
        },
        {
          "internalType": "uint256",
          "name": "newExtendedAmount",
          "type": "uint256"
        },
        {
          "internalType": "uint256",
          "name": "newExtendedTime",
          "type": "uint256"
        }
      ],
      "name": "updateRequestOfBorrowedBooks",
      "outputs": [],
      "stateMutability": "nonpayable",
      "type": "function"
    },
    {
      "inputs": [
        {
          "internalType": "uint256",
          "name": "idBorrowedBook",
          "type": "uint256"
        },
        {
          "internalType": "address",
          "name": "borrower",
          "type": "address"
        },
        {
          "internalType": "bool",
          "name": "isAccept",
          "type": "bool"
        }
      ],
      "name": "doAcceptRequest",
      "outputs": [
        {
          "internalType": "bool",
          "name": "",
          "type": "bool"
        }
      ],
      "stateMutability": "nonpayable",
      "type": "function"
    },
    {
      "inputs": [
        {
          "internalType": "uint256",
          "name": "id",
          "type": "uint256"
        },
        {
          "internalType": "address",
          "name": "renter",
          "type": "address"
        },
        {
          "internalType": "bool",
          "name": "isExtend",
          "type": "bool"
        }
      ],
      "name": "transferForSendedRequest",
      "outputs": [],
      "stateMutability": "payable",
      "type": "function",
      "payable": true
    },
    {
      "inputs": [
        {
          "internalType": "uint256",
          "name": "idBorrowedBook",
          "type": "uint256"
        }
      ],
      "name": "recallBorrowedBooks",
      "outputs": [
        {
          "internalType": "bool",
          "name": "",
          "type": "bool"
        }
      ],
      "stateMutability": "nonpayable",
      "type": "function"
    },
    {
      "inputs": [],
      "name": "recallAllBorrowedBooks",
      "outputs": [
        {
          "internalType": "uint256",
          "name": "",
          "type": "uint256"
        }
      ],
      "stateMutability": "nonpayable",
      "type": "function"
    },
    {
      "inputs": [
        {
          "internalType": "uint256",
          "name": "idBorrowedBook",
          "type": "uint256"
        },
        {
          "internalType": "uint256",
          "name": "price",
          "type": "uint256"
        },
        {
          "internalType": "uint256",
          "name": "amount",
          "type": "uint256"
        }
      ],
      "name": "shareBooks",
      "outputs": [],
      "stateMutability": "payable",
      "type": "function",
      "payable": true
    },
    {
      "inputs": [
        {
          "internalType": "uint256",
          "name": "idBooksOnSharing",
          "type": "uint256"
        },
        {
          "internalType": "uint256",
          "name": "newPrice",
          "type": "uint256"
        },
        {
          "internalType": "uint256",
          "name": "newAmount",
          "type": "uint256"
        }
      ],
      "name": "updateBooksOnSharing",
      "outputs": [],
      "stateMutability": "nonpayable",
      "type": "function"
    },
    {
      "inputs": [
        {
          "internalType": "uint256",
          "name": "idBooksOnSharing",
          "type": "uint256"
        }
      ],
      "name": "takeBooksOnSharing",
      "outputs": [],
      "stateMutability": "payable",
      "type": "function",
      "payable": true
    },
    {
      "inputs": [
        {
          "internalType": "uint256",
          "name": "idSharedBook",
          "type": "uint256"
        }
      ],
      "name": "recallSharedBooks",
      "outputs": [
        {
          "internalType": "bool",
          "name": "",
          "type": "bool"
        }
      ],
      "stateMutability": "nonpayable",
      "type": "function"
    },
    {
      "inputs": [],
      "name": "recallAllSharedBooks",
      "outputs": [
        {
          "internalType": "uint256",
          "name": "",
          "type": "uint256"
        }
      ],
      "stateMutability": "nonpayable",
      "type": "function"
    },
    {
      "inputs": [
        {
          "internalType": "uint256",
          "name": "idBooksOnSharing",
          "type": "uint256"
        }
      ],
      "name": "recallBooksOnSharing",
      "outputs": [
        {
          "internalType": "bool",
          "name": "",
          "type": "bool"
        }
      ],
      "stateMutability": "nonpayable",
      "type": "function"
    },
    {
      "inputs": [],
      "name": "recallAllBooksOnSharing",
      "outputs": [
        {
          "internalType": "uint256",
          "name": "",
          "type": "uint256"
        }
      ],
      "stateMutability": "nonpayable",
      "type": "function"
    }
  ],
  "bytecode": "0x60a0604052600060809081526003906200001a90826200030c565b506101f4600c5562093a80600d556658d15e17628000600e5566038d7ea4c68000600f556601c6bf526340006010553480156200005657600080fd5b5060405162005729380380620057298339810160408190526200007991620003f1565b60405180606001604052806021815260200162005708602191396200009e8162000203565b50620000aa3362000215565b600680546001600160a01b038087166001600160a01b0319928316179092556007805492861692909116821790556040805163a943f98f60e01b8152905163a943f98f916004808201926020929091908290030181865afa15801562000114573d6000803e3d6000fd5b505050506040513d601f19601f820116820180604052508101906200013a919062000459565b600880546001600160a01b0319166001600160a01b039283161790556007546040805163bc20efc560e01b81529051919092169163bc20efc59160048083019260209291908290030181865afa15801562000199573d6000803e3d6000fd5b505050506040513d601f19601f82011682018060405250810190620001bf919062000459565b600980546001600160a01b03199081166001600160a01b0393841617909155600a8054821694831694909417909355600b8054909316911617905550620004809050565b60026200021182826200030c565b5050565b600580546001600160a01b038381166001600160a01b0319831681179093556040519116919082907f8be0079c531659141344cd1fd0a4f28419497f9722a3daafe3b4186f6b6457e090600090a35050565b634e487b7160e01b600052604160045260246000fd5b600181811c908216806200029257607f821691505b602082108103620002b357634e487b7160e01b600052602260045260246000fd5b50919050565b601f8211156200030757600081815260208120601f850160051c81016020861015620002e25750805b601f850160051c820191505b818110156200030357828155600101620002ee565b5050505b505050565b81516001600160401b0381111562000328576200032862000267565b62000340816200033984546200027d565b84620002b9565b602080601f8311600181146200037857600084156200035f5750858301515b600019600386901b1c1916600185901b17855562000303565b600085815260208120601f198616915b82811015620003a95788860151825594840194600190910190840162000388565b5085821015620003c85787850151600019600388901b60f8161c191681555b5050505050600190811b01905550565b6001600160a01b0381168114620003ee57600080fd5b50565b600080600080608085870312156200040857600080fd5b84516200041581620003d8565b60208601519094506200042881620003d8565b60408601519093506200043b81620003d8565b60608601519092506200044e81620003d8565b939692955090935050565b6000602082840312156200046c57600080fd5b81516200047981620003d8565b9392505050565b61527880620004906000396000f3fe6080604052600436106102685760003560e01c80637c726b6911610145578063d47181d5116100bc578063d47181d5146106c0578063da0544aa146106e0578063dd01b4b214610700578063e04f7abe14610720578063e30340ea14610740578063e86c214e14610760578063e985e9c514610780578063eafdf24c146107c9578063eca8dcf3146107f6578063f242432a14610816578063f2fde38b14610836578063f59e129314610856578063f6ee75031461087657600080fd5b80637c726b691461055857806380e8b138146105785780638da5cb5b1461059a578063a22cb465146105c0578063abef9cf9146105e0578063b0a3a2f3146105f3578063b39455e714610615578063b4a0e52514610635578063ba71a71314610655578063c6043b0c14610675578063c78f19f914610695578063d1ee62fa146106ab57600080fd5b8063491d0e02116101e4578063491d0e02146103fd5780634996ded8146104125780634b61469a146104275780634d76a8d31461043d5780634e1273f4146104505780634e129cde1461047d5780635a7d14991461049d5780635b859bc8146104b05780635c4f1257146104c357806364b93e74146104d6578063715018a6146104e95780637731b1f0146104fe5780637ba9a1b31461052b57600080fd5b8062fdd58e1461026d57806301ffc9a7146102a05780630838c49d146102d05780630e419fb2146102f25780630e89341c14610305578063115e9cfe1461033257806312d0a7661461035457806313e54b3d146103745780632a5c3592146103945780632e43a9f9146103b45780632eb2c2d6146103c75780634162673d146103e7575b600080fd5b34801561027957600080fd5b5061028d610288366004613ee1565b610896565b6040519081526020015b60405180910390f35b3480156102ac57600080fd5b506102c06102bb366004613f23565b61092f565b6040519015158152602001610297565b3480156102dc57600080fd5b506102e561097f565b6040516102979190613f40565b61028d61030036600461409b565b610b93565b34801561031157600080fd5b5061032561032036600461412c565b610cf9565b6040516102979190614195565b34801561033e57600080fd5b5061035261034d3660046141a8565b610dd9565b005b34801561036057600080fd5b506102c061036f3660046141d4565b61112e565b34801561038057600080fd5b5061035261038f36600461412c565b611143565b3480156103a057600080fd5b5061028d6103af36600461412c565b611174565b6103526103c2366004614204565b611265565b3480156103d357600080fd5b506103526103e23660046142d0565b611352565b3480156103f357600080fd5b5061028d60105481565b34801561040957600080fd5b5061028d611397565b34801561041e57600080fd5b5061028d6114e1565b34801561043357600080fd5b5061028d600f5481565b61035261044b36600461412c565b611622565b34801561045c57600080fd5b5061047061046b36600461437d565b6117fb565b6040516102979190614484565b34801561048957600080fd5b50610352610498366004614497565b611924565b6103526104ab3660046141a8565b6119e8565b6103526104be3660046144d8565b611bf2565b6103526104d13660046141a8565b611d2a565b6103526104e43660046141a8565b611e2f565b3480156104f557600080fd5b50610352611f0c565b34801561050a57600080fd5b5061051e61051936600461412c565b611f20565b6040516102979190614520565b34801561053757600080fd5b5061054b61054636600461412c565b611fbd565b6040516102979190614582565b34801561056457600080fd5b5061035261057336600461412c565b61202f565b34801561058457600080fd5b5061058d612060565b60405161029791906145cf565b3480156105a657600080fd5b506005546001600160a01b0316604051610297919061463c565b3480156105cc57600080fd5b506103526105db36600461465e565b61227a565b6103526105ee36600461468c565b612289565b3480156105ff57600080fd5b5061060861236a565b60405161029791906146f0565b34801561062157600080fd5b5061028d61063036600461412c565b612468565b34801561064157600080fd5b50610352610650366004614732565b61249f565b34801561066157600080fd5b506102c0610670366004614782565b612566565b34801561068157600080fd5b506102c061069036600461412c565b612591565b3480156106a157600080fd5b5061028d600e5481565b3480156106b757600080fd5b5061028d61273c565b3480156106cc57600080fd5b506102c06106db36600461468c565b61287c565b3480156106ec57600080fd5b506103256106fb36600461412c565b61290a565b34801561070c57600080fd5b506102c061071b36600461412c565b612915565b34801561072c57600080fd5b5061035261073b366004614732565b612a45565b34801561074c57600080fd5b506102c061075b36600461412c565b612b07565b34801561076c57600080fd5b5061028d61077b36600461412c565b612c40565b34801561078c57600080fd5b506102c061079b3660046147b6565b6001600160a01b03918216600090815260016020908152604080832093909416825291909152205460ff1690565b3480156107d557600080fd5b506107e96107e436600461412c565b612c5e565b60405161029791906147e4565b34801561080257600080fd5b506102c061081136600461412c565b612ca8565b34801561082257600080fd5b506103526108313660046147f2565b612de3565b34801561084257600080fd5b5061035261085136600461485a565b612e28565b34801561086257600080fd5b5061035261087136600461412c565b612ea1565b34801561088257600080fd5b50610352610891366004614497565b612ed2565b60006001600160a01b0383166109065760405162461bcd60e51b815260206004820152602a60248201527f455243313135353a2061646472657373207a65726f206973206e6f742061207660448201526930b634b21037bbb732b960b11b60648201526084015b60405180910390fd5b506000818152602081815260408083206001600160a01b03861684529091529020545b92915050565b60006001600160e01b03198216636cdb3d1360e11b148061096057506001600160e01b031982166303a24d0760e21b145b8061092957506301ffc9a760e01b6001600160e01b0319831614610929565b6008546040516302b1dead60e11b81526060916000916001600160a01b0390911690630563bd5a906109b590339060040161463c565b602060405180830381865afa1580156109d2573d6000803e3d6000fd5b505050506040513d601f19601f820116820180604052508101906109f69190614877565b33600090815260156020526040812054919250826001600160401b03811115610a2157610a21613fad565b604051908082528060200260200182016040528015610a8657816020015b610a7360405180608001604052806000815260200160006001600160a01b0316815260200160008152602001600081525090565b815260200190600190039081610a3f5790505b5090506000805b83811015610b895733600081815260146020908152604080832085845290915280822054600854915163ca36874d60e01b815290936001600160a01b039092169163ca36874d91610ae2918691600401614890565b608060405180830381865afa158015610aff573d6000803e3d6000fd5b505050506040513d601f19601f82011682018060405250810190610b2391906148b2565b805190915015801590610b42575060208101516001600160a01b031615155b15610b745780858581518110610b5a57610b5a61491d565b60200260200101819052508380610b7090614949565b9450505b50508080610b8190614949565b915050610a8d565b5090949350505050565b6000610b9e85612566565b15610bbe578460405163d8c63acf60e01b81526004016108fd9190614195565b831580610bcc5750600c5484115b15610bed5760405163099f49a360e11b8152600481018590526024016108fd565b600e543414610c115760405163713bd66960e01b81523460048201526024016108fd565b610c1f601180546001019055565b6000610c2a60115490565b9050610c4733828760405180602001604052806000815250612f5e565b610c518187613087565b610c5b81866130e4565b6001601387604051610c6d9190614962565b908152604051908190036020018120805492151560ff1990931692909217909155600b546353d36d8f60e01b82526001600160a01b0316906353d36d8f90610cbd9084908890889060040161497e565b600060405180830381600087803b158015610cd757600080fd5b505af1158015610ceb573d6000803e3d6000fd5b509298975050505050505050565b600081815260046020526040812080546060929190610d17906149b3565b80601f0160208091040260200160405190810160405280929190818152602001828054610d43906149b3565b8015610d905780601f10610d6557610100808354040283529160200191610d90565b820191906000526020600020905b815481529060010190602001808311610d7357829003601f168201915b505050505090506000815111610dae57610da98361317c565b610dd2565b600381604051602001610dc29291906149e7565b6040516020818303038152906040525b9392505050565b60095460405163c0a6417160e01b8152600481018590526000916001600160a01b03169063c0a641719060240161012060405180830381865afa158015610e24573d6000803e3d6000fd5b505050506040513d601f19601f82011682018060405250810190610e489190614a6e565b6008548151602083015160408085015160e086015161010087015192516301e4faa160e31b815260048101959095526001600160a01b03938416602486015290831660448501526064840152608483015292935060009290911690630f27d5089060a401602060405180830381865afa158015610ec9573d6000803e3d6000fd5b505050506040513d601f19601f82011682018060405250810190610eed9190614877565b905080600003610f135760405163d8bbd62160e01b8152600481018290526024016108fd565b600854604051633c78cc8360e11b8152600481018390526000916001600160a01b0316906378f199069060240160e060405180830381865afa158015610f5d573d6000803e3d6000fd5b505050506040513d601f19601f82011682018060405250810190610f819190614afe565b905080604001516001600160a01b0316336001600160a01b031614610fbb5733604051633992dcbd60e21b81526004016108fd919061463c565b831580610fda57508260c001518160800151610fd79190614b93565b84115b15610ffb5760405163099f49a360e11b8152600481018590526024016108fd565b6000808460c0015186116110245760009150858560c0015161101d9190614ba6565b905061103a565b60c0850151600192506110379087614ba6565b90505b6009548351604051639c48c1b360e01b8152600481018b9052336024820152604481019190915260648101899052608481018890526001600160a01b0390911690639c48c1b39060a401600060405180830381600087803b15801561109e57600080fd5b505af11580156110b2573d6000803e3d6000fd5b5050600854604051631a43551f60e11b8152600481018890526024810185905285151560448201526001600160a01b039091169250633486aa3e91506064015b600060405180830381600087803b15801561110c57600080fd5b505af1158015611120573d6000803e3d6000fd5b505050505050505050505050565b60008061113b8385610896565b119392505050565b61114b613210565b8060000361116f5760405163713bd66960e01b8152600481018290526024016108fd565b601055565b600754604051630a43ea8360e31b81526000916001600160a01b03169063521f5418906111a79085903390600401614890565b602060405180830381865afa1580156111c4573d6000803e3d6000fd5b505050506040513d601f19601f820116820180604052508101906111e89190614877565b6006546040516362513fcd60e11b81526001600160a01b039091169063c4a27f9a9061121a9086903390600401614890565b602060405180830381865afa158015611237573d6000803e3d6000fd5b505050506040513d601f19601f8201168201806040525081019061125b9190614877565b6109299190614b93565b600654604051633af98cfd60e11b8152600481018590526001600160a01b0384811660248301526044820184905233606483015234608483015260009216906375f319fa9060a4016020604051808303816000875af11580156112cc573d6000803e3d6000fd5b505050506040513d601f19601f820116820180604052508101906112f09190614877565b9050801561134c57611314833386856040518060200160405280600081525061326a565b6040516001600160a01b0384169082156108fc029083906000818181858888f1935050505015801561134a573d6000803e3d6000fd5b505b50505050565b6001600160a01b03851633148061136e575061136e853361079b565b61138a5760405162461bcd60e51b81526004016108fd90614bb9565b61134a85858585856133a5565b60008033156114dc5760095460408051638d43257b60e01b815290516000926001600160a01b031691638d43257b9160048083019260209291908290030181865afa1580156113ea573d6000803e3d6000fd5b505050506040513d601f19601f8201168201806040525081019061140e9190614877565b905080156114da5760015b8181116114d85760095460405163c0a6417160e01b8152600481018390526000916001600160a01b03169063c0a641719060240161012060405180830381865afa15801561146b573d6000803e3d6000fd5b505050506040513d601f19601f8201168201806040525081019061148f9190614a6e565b60208101519091506001600160a01b0316331480156114b257506114b282612ca8565b156114c557836114c181614949565b9450505b50806114d081614949565b915050611419565b505b505b919050565b60008033156114dc5760095460408051634caa260560e01b815290516000926001600160a01b031691634caa26059160048083019260209291908290030181865afa158015611534573d6000803e3d6000fd5b505050506040513d601f19601f820116820180604052508101906115589190614877565b905080156114da5760015b8181116114d857600954604051631c5750f960e11b8152600481018390526000916001600160a01b0316906338aea1f29060240161012060405180830381865afa1580156115b5573d6000803e3d6000fd5b505050506040513d601f19601f820116820180604052508101906115d99190614a6e565b60208101519091506001600160a01b0316331480156115fc57506115fc82612591565b1561160f578361160b81614949565b9450505b508061161a81614949565b915050611563565b336116425733604051633992dcbd60e21b81526004016108fd919061463c565b806000036116665760405163d8bbd62160e01b8152600060048201526024016108fd565b60095460405163c0a6417160e01b8152600481018390526000916001600160a01b03169063c0a641719060240161012060405180830381865afa1580156116b1573d6000803e3d6000fd5b505050506040513d601f19601f820116820180604052508101906116d59190614a6e565b6009546040516328b8744160e11b81529192506000916001600160a01b0390911690635170e8829061170d9086903390600401614890565b6020604051808303816000875af115801561172c573d6000803e3d6000fd5b505050506040513d601f19601f820116820180604052508101906117509190614877565b90508034146117745760405163713bd66960e01b81523460048201526024016108fd565b8151156117dd576117a0826040015133846000015160016040518060200160405280600081525061326a565b81604001516001600160a01b03166108fc829081150290604051600060405180830381858888f1935050505015801561134c573d6000803e3d6000fd5b604051632532cf4560e01b815260040160405180910390fd5b505050565b606081518351146118605760405162461bcd60e51b815260206004820152602960248201527f455243313135353a206163636f756e747320616e6420696473206c656e677468604482015268040dad2e6dac2e8c6d60bb1b60648201526084016108fd565b600083516001600160401b0381111561187b5761187b613fad565b6040519080825280602002602001820160405280156118a4578160200160208202803683370190505b50905060005b845181101561191c576118ef8582815181106118c8576118c861491d565b60200260200101518583815181106118e2576118e261491d565b6020026020010151610896565b8282815181106119015761190161491d565b602090810291909101015261191581614949565b90506118aa565b509392505050565b61192e843361112e565b61194f578333604051633df9e10b60e11b81526004016108fd929190614890565b6001600160a01b038116331461197a5733604051633992dcbd60e21b81526004016108fd919061463c565b60065460405163783db84b60e01b81526001600160a01b039091169063783db84b906119b0908790879087908790600401614c07565b600060405180830381600087803b1580156119ca57600080fd5b505af11580156119de573d6000803e3d6000fd5b5050505050505050565b600854604051633c78cc8360e11b8152600481018590526000916001600160a01b0316906378f199069060240160e060405180830381865afa158015611a32573d6000803e3d6000fd5b505050506040513d601f19601f82011682018060405250810190611a569190614afe565b905080604001516001600160a01b0316336001600160a01b031614611a905733604051633992dcbd60e21b81526004016108fd919061463c565b6010543414611ab85760105460405163713bd66960e01b81526004016108fd91815260200190565b811580611ac85750806080015182115b15611ae95760405163099f49a360e11b8152600481018390526024016108fd565b8060c001514210611b0f576040516307b263f160e11b81524260048201526024016108fd565b60095481516020830151606084015160a085015160c0860151604051634d47843960e11b815260048101959095526001600160a01b03938416602486015233604486015260648501929092526084840188905260a4840187905260c484015260e483015290911690639a8f08729061010401600060405180830381600087803b158015611b9b57600080fd5b505af1158015611baf573d6000803e3d6000fd5b5050600854604051631a43551f60e11b81526004810188905260248101869052600160448201526001600160a01b039091169250633486aa3e91506064016119b0565b600d54811015611c18576040516307b263f160e11b8152600481018290526024016108fd565b426000611c258383614b93565b6008546040516347aa910f60e01b8152600481018a90526001600160a01b03898116602483015260448201889052606482018990526084820186905260a482018490523360c48301523460e4830152929350600092909116906347aa910f90610104016020604051808303816000875af1158015611ca7573d6000803e3d6000fd5b505050506040513d601f19601f82011682018060405250810190611ccb9190614877565b9050611ce987338a886040518060200160405280600081525061326a565b6040516001600160a01b0388169082156108fc029083906000818181858888f19350505050158015611d1f573d6000803e3d6000fd5b505050505050505050565b611d34833361112e565b611d55578233604051633df9e10b60e11b81526004016108fd929190614890565b611d5f3384610896565b81611d6985611174565b611d739190614b93565b1180611d7d575080155b15611d9e5760405163099f49a360e11b8152600481018290526024016108fd565b600e543414611dc25760405163713bd66960e01b81523460048201526024016108fd565b600654604051634c5aecb560e01b81526001600160a01b0390911690634c5aecb590611df8908690869086903390600401614c07565b600060405180830381600087803b158015611e1257600080fd5b505af1158015611e26573d6000803e3d6000fd5b50505050505050565b611e39833361112e565b611e5a578233604051633df9e10b60e11b81526004016108fd929190614890565b611e643384610896565b81611e6e85611174565b611e789190614b93565b1180611e82575080155b15611ea35760405163099f49a360e11b8152600481018290526024016108fd565b600f543414611ec75760405163713bd66960e01b81523460048201526024016108fd565b60085460405163cca1003d60e01b81526004810185905233602482015260448101849052606481018390526001600160a01b039091169063cca1003d90608401611df8565b611f14613210565b611f1e600061359e565b565b6060611f2b82612b07565b611f4b5760405163056fd2d960e01b8152600481018390526024016108fd565b600b546040516307731b1f60e41b8152600481018490526000916001600160a01b031690637731b1f090602401600060405180830381865afa158015611f95573d6000803e3d6000fd5b505050506040513d6000823e601f3d908101601f19168201604052610dd29190810190614c2b565b600a54604051637ba9a1b360e01b8152600481018390526060916001600160a01b031690637ba9a1b390602401600060405180830381865afa158015612007573d6000803e3d6000fd5b505050506040513d6000823e601f3d908101601f191682016040526109299190810190614d2d565b612037613210565b8060000361205b5760405163713bd66960e01b8152600481018290526024016108fd565b600e55565b600654604051637cf6961960e11b81526060916000916001600160a01b039091169063f9ed2c329061209690339060040161463c565b602060405180830381865afa1580156120b3573d6000803e3d6000fd5b505050506040513d601f19601f820116820180604052508101906120d79190614877565b33600090815260156020526040812054919250826001600160401b0381111561210257612102613fad565b60405190808252806020026020018201604052801561217757816020015b6121646040518060a001604052806000815260200160006001600160a01b0316815260200160006001600160a01b0316815260200160008152602001600081525090565b8152602001906001900390816121205790505b5090506000805b83811015610b8957336000818152601460209081526040808320858452909152808220546006549151630ed148dd60e41b815290936001600160a01b039092169163ed148dd0916121d3918691600401614890565b60a060405180830381865afa1580156121f0573d6000803e3d6000fd5b505050506040513d601f19601f820116820180604052508101906122149190614dd1565b805190915015801590612233575060208101516001600160a01b031615155b15612265578085858151811061224b5761224b61491d565b6020026020010181905250838061226190614949565b9450505b5050808061227290614949565b91505061217e565b6122853383836135f0565b5050565b336001600160a01b038316036122b45733604051633992dcbd60e21b81526004016108fd919061463c565b600854604051637e9a759f60e11b8152600481018590526001600160a01b0384811660248301523360448301524260648301528315156084830152600092169063fd34eb3e9060a4016020604051808303816000875af115801561231c573d6000803e3d6000fd5b505050506040513d601f19601f820116820180604052508101906123409190614877565b9050801561134c578034146113145760405163713bd66960e01b81523460048201526024016108fd565b33600090815260156020526040812054606091816001600160401b0381111561239557612395613fad565b6040519080825280602002602001820160405280156123ce57816020015b6123bb613ea2565b8152602001906001900390816123b35790505b50905060005b8281101561246157336000908152601460209081526040808320848452825280832054808452601283529281902081516060810183528154815260018201546001600160a01b0316938101939093526002015490820152835181908590859081106124415761244161491d565b60200260200101819052505050808061245990614949565b9150506123d4565b5092915050565b6000612474823361112e565b612495578133604051633df9e10b60e11b81526004016108fd929190614890565b6109293383610896565b336001600160a01b038616036124ca5733604051633992dcbd60e21b81526004016108fd919061463c565b600d548110156124f0576040516307b263f160e11b8152600481018290526024016108fd565b600854604051635d1d319560e11b81526001600160a01b039091169063ba3a632a9061252c908990899033908a908a908a908a90600401614e4f565b600060405180830381600087803b15801561254657600080fd5b505af115801561255a573d6000803e3d6000fd5b50505050505050505050565b60006013826040516125789190614962565b9081526040519081900360200190205460ff1692915050565b600954604051631c5750f960e11b81526004810183905260009182916001600160a01b03909116906338aea1f29060240161012060405180830381865afa1580156125e0573d6000803e3d6000fd5b505050506040513d601f19601f820116820180604052508101906126049190614a6e565b9050336001600160a01b031681602001516001600160a01b0316036126ff57600954604051632a7a752960e21b8152600481018590526000916001600160a01b03169063a9e9d4a4906024016020604051808303816000875af115801561266f573d6000803e3d6000fd5b505050506040513d601f19601f820116820180604052508101906126939190614e8b565b905080156126c3576126c382606001513384600001518560c001516040518060200160405280600081525061326a565b60405181151581527fe38e50a89766248233feffed7b43385c8186be090b5f79d929ceeecf5b08d15f9060200160405180910390a19392505050565b604051600081527fe38e50a89766248233feffed7b43385c8186be090b5f79d929ceeecf5b08d15f9060200160405180910390a150600092915050565b60008033156114dc5760085460408051637ede5b5560e11b815290516000926001600160a01b03169163fdbcb6aa9160048083019260209291908290030181865afa15801561278f573d6000803e3d6000fd5b505050506040513d601f19601f820116820180604052508101906127b39190614877565b905080156114da5760015b8181116114d857600854604051633c78cc8360e11b8152600481018390526000916001600160a01b0316906378f199069060240160e060405180830381865afa15801561280f573d6000803e3d6000fd5b505050506040513d601f19601f820116820180604052508101906128339190614afe565b60208101519091506001600160a01b031633148015612856575061285682612915565b15612869578361286581614949565b9450505b508061287481614949565b9150506127be565b60085460405163d572cd8960e01b8152600481018590526001600160a01b0384811660248301523360448301528315156064830152600092169063d572cd89906084016020604051808303816000875af11580156128de573d6000803e3d6000fd5b505050506040513d601f19601f820116820180604052508101906129029190614e8b565b949350505050565b606061092982610cf9565b600854604051633c78cc8360e11b81526004810183905260009182916001600160a01b03909116906378f199069060240160e060405180830381865afa158015612963573d6000803e3d6000fd5b505050506040513d601f19601f820116820180604052508101906129879190614afe565b9050336001600160a01b031681602001516001600160a01b0316036126ff57600854604051626b016560e51b8152600481018590526000916001600160a01b031690630d602ca0906024016020604051808303816000875af11580156129f1573d6000803e3d6000fd5b505050506040513d601f19601f82011682018060405250810190612a159190614e8b565b905080156126c3576126c3826040015133846000015185608001516040518060200160405280600081525061326a565b6001600160a01b0385161580612a59575033155b15612a7a576000604051633992dcbd60e21b81526004016108fd919061463c565b336001600160a01b03861603612aa55733604051633992dcbd60e21b81526004016108fd919061463c565b600d54811015612acb576040516307b263f160e11b8152600481018290526024016108fd565b600854604051630527095960e51b81526001600160a01b039091169063a4e12b209061252c908990899033908a908a908a908a90600401614e4f565b6000612b13823361112e565b612b1f57506000919050565b6000612b2a83612c40565b1115612b3857506001919050565b600854604051634780710d60e01b81526001600160a01b0390911690634780710d90612b6a9085903390600401614890565b602060405180830381865afa158015612b87573d6000803e3d6000fd5b505050506040513d601f19601f82011682018060405250810190612bab9190614e8b565b15612bb857506001919050565b600954604051632e8742f960e11b81526001600160a01b0390911690635d0e85f290612bea9085903390600401614890565b602060405180830381865afa158015612c07573d6000803e3d6000fd5b505050506040513d601f19601f82011682018060405250810190612c2b9190614e8b565b15612c3857506001919050565b506000919050565b6000612c4b82611174565b612c5483612468565b6109299190614ba6565b612c66613ea2565b5060009081526012602090815260409182902082516060810184528154815260018201546001600160a01b031692810192909252600201549181019190915290565b60095460405163c0a6417160e01b81526004810183905260009182916001600160a01b039091169063c0a641719060240161012060405180830381865afa158015612cf7573d6000803e3d6000fd5b505050506040513d601f19601f82011682018060405250810190612d1b9190614a6e565b9050336001600160a01b031681602001516001600160a01b031603612dda576009546040516303a7c9d160e11b8152600481018590526000916001600160a01b03169063074f93a2906024016020604051808303816000875af1158015612d86573d6000803e3d6000fd5b505050506040513d601f19601f82011682018060405250810190612daa9190614e8b565b90508015610dd257610dd282604001513384600001518560c001516040518060200160405280600081525061326a565b50600092915050565b6001600160a01b038516331480612dff5750612dff853361079b565b612e1b5760405162461bcd60e51b81526004016108fd90614bb9565b61134a858585858561326a565b612e30613210565b6001600160a01b038116612e955760405162461bcd60e51b815260206004820152602660248201527f4f776e61626c653a206e6577206f776e657220697320746865207a65726f206160448201526564647265737360d01b60648201526084016108fd565b612e9e8161359e565b50565b612ea9613210565b80600003612ecd5760405163713bd66960e01b8152600481018290526024016108fd565b600f55565b612edc848261112e565b612efd578381604051633df9e10b60e11b81526004016108fd929190614890565b6001600160a01b0381163314612f285733604051633992dcbd60e21b81526004016108fd919061463c565b600854604051636423566d60e01b81526001600160a01b0390911690636423566d906119b0908790879087908790600401614c07565b6001600160a01b038416612fbe5760405162461bcd60e51b815260206004820152602160248201527f455243313135353a206d696e7420746f20746865207a65726f206164647265736044820152607360f81b60648201526084016108fd565b336000612fca856136d0565b90506000612fd7856136d0565b9050612fe88360008985858961371b565b6000868152602081815260408083206001600160a01b038b16845290915281208054879290613018908490614b93565b909155505060408051878152602081018790526001600160a01b03808a1692600092918716917fc3d58168c5ae7397731d063d5bbf3d657854427343f4c083240f7aacaa2d0f62910160405180910390a4613078836000898585896137f1565b611e2683600089898989613b36565b600082815260046020526040902061309f8282614eee565b50817f6bb7ff708619ba0610cba295a58592e0451dee2622938c8755667688daf3529b6130cb84610cf9565b6040516130d89190614195565b60405180910390a25050565b60408051606080820183528482523360208084018281528486018781526000898152601284528790209551865590516001860180546001600160a01b0319166001600160a01b03909216919091179055516002909401939093558351868152928301529181018390527f1b0894b5dbaa4e03eefef0639cb8bdd09459f893cb73161de2aad97a30c66f78910160405180910390a15050565b60606002805461318b906149b3565b80601f01602080910402602001604051908101604052809291908181526020018280546131b7906149b3565b80156132045780601f106131d957610100808354040283529160200191613204565b820191906000526020600020905b8154815290600101906020018083116131e757829003601f168201915b50505050509050919050565b6005546001600160a01b03163314611f1e5760405162461bcd60e51b815260206004820181905260248201527f4f776e61626c653a2063616c6c6572206973206e6f7420746865206f776e657260448201526064016108fd565b6001600160a01b0384166132905760405162461bcd60e51b81526004016108fd90614fad565b33600061329c856136d0565b905060006132a9856136d0565b90506132b983898985858961371b565b6000868152602081815260408083206001600160a01b038c168452909152902054858110156132fa5760405162461bcd60e51b81526004016108fd90614ff2565b6000878152602081815260408083206001600160a01b038d8116855292528083208985039055908a16825281208054889290613337908490614b93565b909155505060408051888152602081018890526001600160a01b03808b16928c821692918816917fc3d58168c5ae7397731d063d5bbf3d657854427343f4c083240f7aacaa2d0f62910160405180910390a4613397848a8a86868a6137f1565b611d1f848a8a8a8a8a613b36565b81518351146134075760405162461bcd60e51b815260206004820152602860248201527f455243313135353a2069647320616e6420616d6f756e7473206c656e677468206044820152670dad2e6dac2e8c6d60c31b60648201526084016108fd565b6001600160a01b03841661342d5760405162461bcd60e51b81526004016108fd90614fad565b3361343c81878787878761371b565b60005b845181101561352257600085828151811061345c5761345c61491d565b60200260200101519050600085838151811061347a5761347a61491d565b602090810291909101810151600084815280835260408082206001600160a01b038e1683529093529190912054909150818110156134ca5760405162461bcd60e51b81526004016108fd90614ff2565b6000838152602081815260408083206001600160a01b038e8116855292528083208585039055908b16825281208054849290613507908490614b93565b925050819055505050508061351b90614949565b905061343f565b50846001600160a01b0316866001600160a01b0316826001600160a01b03167f4a39dc06d4c0dbc64b70af90fd698a233a518aa5d07e595d983b8c0526c8f7fb878760405161357292919061503c565b60405180910390a46135888187878787876137f1565b613596818787878787613c91565b505050505050565b600580546001600160a01b038381166001600160a01b0319831681179093556040519116919082907f8be0079c531659141344cd1fd0a4f28419497f9722a3daafe3b4186f6b6457e090600090a35050565b816001600160a01b0316836001600160a01b0316036136635760405162461bcd60e51b815260206004820152602960248201527f455243313135353a2073657474696e6720617070726f76616c20737461747573604482015268103337b91039b2b63360b91b60648201526084016108fd565b6001600160a01b03838116600081815260016020908152604080832094871680845294825291829020805460ff191686151590811790915591519182527f17307eab39ab6107e8899845ad3d59bd9653f200f220920489ca2b5937696c31910160405180910390a3505050565b6040805160018082528183019092526060916000919060208083019080368337019050509050828160008151811061370a5761370a61491d565b602090810291909101015292915050565b6001600160a01b03851615801561373a57506001600160a01b03841615155b1561376a576000836000815181106137545761375461491d565b602002602001015190506137688582613d4c565b505b6001600160a01b0385161580159061378a57506001600160a01b03841615155b80156137a85750846001600160a01b0316846001600160a01b031614155b15613596576000836000815181106137c2576137c261491d565b602002602001015190506137d68582613d4c565b6137e08682610896565b600003611e2657611e268682613da8565b60006001600160a01b03861615801561381257506001600160a01b03851615155b156139285760008460008151811061382c5761382c61491d565b602090810291909101015160075460405163defec46760e01b81529192506001600160a01b03169063defec4679061386a9084908a90600401614890565b602060405180830381865afa158015613887573d6000803e3d6000fd5b505050506040513d601f19601f820116820180604052508101906138ab9190614877565b6138b58783610896565b6138bf9190614ba6565b600a5460405163d8e7337f60e01b81529193506001600160a01b03169063d8e7337f906138f490859085908b9060040161506a565b600060405180830381600087803b15801561390e57600080fd5b505af1158015613922573d6000803e3d6000fd5b50505050505b6001600160a01b0386161580159061394857506001600160a01b03851615155b80156139665750856001600160a01b0316856001600160a01b031614155b15611e26576000846000815181106139805761398061491d565b602090810291909101015160075460405163defec46760e01b81529192506001600160a01b03169063defec467906139be9084908a90600401614890565b602060405180830381865afa1580156139db573d6000803e3d6000fd5b505050506040513d601f19601f820116820180604052508101906139ff9190614877565b613a098783610896565b613a139190614ba6565b600a5460405163d8e7337f60e01b81529193506001600160a01b03169063d8e7337f90613a4890859085908b9060040161506a565b600060405180830381600087803b158015613a6257600080fd5b505af1158015613a76573d6000803e3d6000fd5b505060075460405163defec46760e01b81526001600160a01b03909116925063defec4679150613aac9084908b90600401614890565b602060405180830381865afa158015613ac9573d6000803e3d6000fd5b505050506040513d601f19601f82011682018060405250810190613aed9190614877565b613af78883610896565b613b019190614ba6565b600a5460405163d8e7337f60e01b81529193506001600160a01b03169063d8e7337f906110f290859085908c9060040161506a565b6001600160a01b0384163b156135965760405163f23a6e6160e01b81526001600160a01b0385169063f23a6e6190613b7a9089908990889088908890600401615089565b6020604051808303816000875af1925050508015613bb5575060408051601f3d908101601f19168201909252613bb2918101906150c3565b60015b613c6157613bc16150e0565b806308c379a003613bfa5750613bd56150fc565b80613be05750613bfc565b8060405162461bcd60e51b81526004016108fd9190614195565b505b60405162461bcd60e51b815260206004820152603460248201527f455243313135353a207472616e7366657220746f206e6f6e2d455243313135356044820152732932b1b2b4bb32b91034b6b83632b6b2b73a32b960611b60648201526084016108fd565b6001600160e01b0319811663f23a6e6160e01b14611e265760405162461bcd60e51b81526004016108fd90615185565b6001600160a01b0384163b156135965760405163bc197c8160e01b81526001600160a01b0385169063bc197c8190613cd590899089908890889088906004016151cd565b6020604051808303816000875af1925050508015613d10575060408051601f3d908101601f19168201909252613d0d918101906150c3565b60015b613d1c57613bc16150e0565b6001600160e01b0319811663bc197c8160e01b14611e265760405162461bcd60e51b81526004016108fd90615185565b613d56818361112e565b612285576001600160a01b03821660008181526015602081815260408084208054601484528286208187528452918520879055948452919052825490929091613d9e83614949565b9190505550505050565b6001600160a01b038216600090815260156020526040812054613dcd90600190614ba6565b905060005b613ddd826001614b93565b811015613e4c576001600160a01b03841660009081526014602090815260408083208484529091529020548303613e3a576001600160a01b0384166000908152601460209081526040808320858452909152808220548383529120555b80613e4481614949565b915050613dd2565b506001600160a01b0383166000908152601560205260408120805491613e718361522b565b90915550506001600160a01b0390921660009081526014602090815260408083209483529390529182209190915550565b60405180606001604052806000815260200160006001600160a01b03168152602001600081525090565b6001600160a01b0381168114612e9e57600080fd5b60008060408385031215613ef457600080fd5b8235613eff81613ecc565b946020939093013593505050565b6001600160e01b031981168114612e9e57600080fd5b600060208284031215613f3557600080fd5b8135610dd281613f0d565b602080825282518282018190526000919060409081850190868401855b82811015613fa057815180518552868101516001600160a01b03168786015285810151868601526060908101519085015260809093019290850190600101613f5d565b5091979650505050505050565b634e487b7160e01b600052604160045260246000fd5b601f8201601f191681016001600160401b0381118282101715613fe857613fe8613fad565b6040525050565b60405161012081016001600160401b038111828210171561401257614012613fad565b60405290565b60006001600160401b0382111561403157614031613fad565b50601f01601f191660200190565b600082601f83011261405057600080fd5b813561405b81614018565b6040516140688282613fc3565b82815285602084870101111561407d57600080fd5b82602086016020830137600092810160200192909252509392505050565b600080600080608085870312156140b157600080fd5b84356001600160401b03808211156140c857600080fd5b6140d48883890161403f565b95506020870135945060408701359150808211156140f157600080fd5b6140fd8883890161403f565b9350606087013591508082111561411357600080fd5b506141208782880161403f565b91505092959194509250565b60006020828403121561413e57600080fd5b5035919050565b60005b83811015614160578181015183820152602001614148565b50506000910152565b60008151808452614181816020860160208601614145565b601f01601f19169290920160200192915050565b602081526000610dd26020830184614169565b6000806000606084860312156141bd57600080fd5b505081359360208301359350604090920135919050565b600080604083850312156141e757600080fd5b8235915060208301356141f981613ecc565b809150509250929050565b60008060006060848603121561421957600080fd5b83359250602084013561422b81613ecc565b929592945050506040919091013590565b60006001600160401b0382111561425557614255613fad565b5060051b60200190565b600082601f83011261427057600080fd5b8135602061427d8261423c565b60405161428a8282613fc3565b83815260059390931b85018201928281019150868411156142aa57600080fd5b8286015b848110156142c557803583529183019183016142ae565b509695505050505050565b600080600080600060a086880312156142e857600080fd5b85356142f381613ecc565b9450602086013561430381613ecc565b935060408601356001600160401b038082111561431f57600080fd5b61432b89838a0161425f565b9450606088013591508082111561434157600080fd5b61434d89838a0161425f565b9350608088013591508082111561436357600080fd5b506143708882890161403f565b9150509295509295909350565b6000806040838503121561439057600080fd5b82356001600160401b03808211156143a757600080fd5b818501915085601f8301126143bb57600080fd5b813560206143c88261423c565b6040516143d58282613fc3565b83815260059390931b85018201928281019150898411156143f557600080fd5b948201945b8386101561441c57853561440d81613ecc565b825294820194908201906143fa565b9650508601359250508082111561443257600080fd5b5061443f8582860161425f565b9150509250929050565b600081518084526020808501945080840160005b838110156144795781518752958201959082019060010161445d565b509495945050505050565b602081526000610dd26020830184614449565b600080600080608085870312156144ad57600080fd5b84359350602085013592506040850135915060608501356144cd81613ecc565b939692955090935050565b600080600080600060a086880312156144f057600080fd5b85359450602086013561450281613ecc565b94979496505050506040830135926060810135926080909101359150565b6000602080830181845280855180835260408601915060408160051b870101925083870160005b8281101561457557603f19888603018452614563858351614169565b94509285019290850190600101614547565b5092979650505050505050565b6020808252825182820181905260009190848201906040850190845b818110156145c35783516001600160a01b03168352928401929184019160010161459e565b50909695505050505050565b602080825282518282018190526000919060409081850190868401855b82811015613fa057815180518552868101516001600160a01b0390811688870152868201511686860152606080820151908601526080908101519085015260a090930192908501906001016145ec565b6001600160a01b0391909116815260200190565b8015158114612e9e57600080fd5b6000806040838503121561467157600080fd5b823561467c81613ecc565b915060208301356141f981614650565b6000806000606084860312156146a157600080fd5b8335925060208401356146b381613ecc565b915060408401356146c381614650565b809150509250925092565b805182526020808201516001600160a01b031690830152604090810151910152565b6020808252825182820181905260009190848201906040850190845b818110156145c35761471f8385516146ce565b928401926060929092019160010161470c565b60008060008060008060c0878903121561474b57600080fd5b86359550602087013561475d81613ecc565b95989597505050506040840135936060810135936080820135935060a0909101359150565b60006020828403121561479457600080fd5b81356001600160401b038111156147aa57600080fd5b6129028482850161403f565b600080604083850312156147c957600080fd5b82356147d481613ecc565b915060208301356141f981613ecc565b6060810161092982846146ce565b600080600080600060a0868803121561480a57600080fd5b853561481581613ecc565b9450602086013561482581613ecc565b9350604086013592506060860135915060808601356001600160401b0381111561484e57600080fd5b6143708882890161403f565b60006020828403121561486c57600080fd5b8135610dd281613ecc565b60006020828403121561488957600080fd5b5051919050565b9182526001600160a01b0316602082015260400190565b80516114dc81613ecc565b6000608082840312156148c457600080fd5b604051608081018181106001600160401b03821117156148e6576148e6613fad565b6040528251815260208301516148fb81613ecc565b6020820152604083810151908201526060928301519281019290925250919050565b634e487b7160e01b600052603260045260246000fd5b634e487b7160e01b600052601160045260246000fd5b60006001820161495b5761495b614933565b5060010190565b60008251614974818460208701614145565b9190910192915050565b8381526060602082015260006149976060830185614169565b82810360408401526149a98185614169565b9695505050505050565b600181811c908216806149c757607f821691505b6020821081036114da57634e487b7160e01b600052602260045260246000fd5b60008084546149f5816149b3565b60018281168015614a0d5760018114614a2257614a51565b60ff1984168752821515830287019450614a51565b8860005260208060002060005b85811015614a485781548a820152908401908201614a2f565b50505082870194505b505050508351614a65818360208801614145565b01949350505050565b60006101208284031215614a8157600080fd5b614a89613fef565b82518152614a99602084016148a7565b6020820152614aaa604084016148a7565b6040820152614abb606084016148a7565b60608201526080830151608082015260a083015160a082015260c083015160c082015260e083015160e08201526101008084015181830152508091505092915050565b600060e08284031215614b1057600080fd5b60405160e081018181106001600160401b0382111715614b3257614b32613fad565b604052825181526020830151614b4781613ecc565b60208201526040830151614b5a81613ecc565b80604083015250606083015160608201526080830151608082015260a083015160a082015260c083015160c08201528091505092915050565b8082018082111561092957610929614933565b8181038181111561092957610929614933565b6020808252602e908201527f455243313135353a2063616c6c6572206973206e6f7420746f6b656e206f776e60408201526d195c881bdc88185c1c1c9bdd995960921b606082015260800190565b938452602084019290925260408301526001600160a01b0316606082015260800190565b60006020808385031215614c3e57600080fd5b82516001600160401b0380821115614c5557600080fd5b818501915085601f830112614c6957600080fd5b8151614c748161423c565b60408051614c828382613fc3565b83815260059390931b8501860192868101925089841115614ca257600080fd5b8686015b84811015614d1f57805186811115614cbe5760008081fd5b8701603f81018c13614cd05760008081fd5b88810151614cdd81614018565b8551614ce98282613fc3565b8281528e87848601011115614d0057600091508182fd5b614d0f838d8301898701614145565b8752505050928701928701614ca6565b509998505050505050505050565b60006020808385031215614d4057600080fd5b82516001600160401b03811115614d5657600080fd5b8301601f81018513614d6757600080fd5b8051614d728161423c565b604051614d7f8282613fc3565b82815260059290921b8301840191848101915087831115614d9f57600080fd5b928401925b82841015614dc6578351614db781613ecc565b82529284019290840190614da4565b979650505050505050565b600060a08284031215614de357600080fd5b60405160a081018181106001600160401b0382111715614e0557614e05613fad565b604052825181526020830151614e1a81613ecc565b60208201526040830151614e2d81613ecc565b6040820152606083810151908201526080928301519281019290925250919050565b9687526001600160a01b0395861660208801529390941660408601526060850191909152608084015260a083019190915260c082015260e00190565b600060208284031215614e9d57600080fd5b8151610dd281614650565b601f8211156117f657600081815260208120601f850160051c81016020861015614ecf5750805b601f850160051c820191505b8181101561359657828155600101614edb565b81516001600160401b03811115614f0757614f07613fad565b614f1b81614f1584546149b3565b84614ea8565b602080601f831160018114614f505760008415614f385750858301515b600019600386901b1c1916600185901b178555613596565b600085815260208120601f198616915b82811015614f7f57888601518255948401946001909101908401614f60565b5085821015614f9d5787850151600019600388901b60f8161c191681555b5050505050600190811b01905550565b60208082526025908201527f455243313135353a207472616e7366657220746f20746865207a65726f206164604082015264647265737360d81b606082015260800190565b6020808252602a908201527f455243313135353a20696e73756666696369656e742062616c616e636520666f60408201526939103a3930b739b332b960b11b606082015260800190565b60408152600061504f6040830185614449565b82810360208401526150618185614449565b95945050505050565b92835260208301919091526001600160a01b0316604082015260600190565b6001600160a01b03868116825285166020820152604081018490526060810183905260a060808201819052600090614dc690830184614169565b6000602082840312156150d557600080fd5b8151610dd281613f0d565b600060033d11156150f95760046000803e5060005160e01c5b90565b600060443d101561510a5790565b6040516003193d81016004833e81513d6001600160401b03816024840111818411171561513957505050505090565b82850191508151818111156151515750505050505090565b843d870101602082850101111561516b5750505050505090565b61517a60208286010187613fc3565b509095945050505050565b60208082526028908201527f455243313135353a204552433131353552656365697665722072656a656374656040820152676420746f6b656e7360c01b606082015260800190565b6001600160a01b0386811682528516602082015260a0604082018190526000906151f990830186614449565b828103606084015261520b8186614449565b9050828103608084015261521f8185614169565b98975050505050505050565b60008161523a5761523a614933565b50600019019056fea26469706673582212201fe3fe2f5dddaf97bdf5424837011d5813d5e2ea5995a58fb5abdbc890b281f364736f6c6343000811003368747470733a2f2f6578616d706c652e636f6d2f6170692f7b69647d2e6a736f6e",
  "immutableReferences": {},
  "source": "// SPDX-License-Identifier: MIT\r\n// pragma solidity >=0.4.22 <0.9.0;\r\npragma solidity ^0.8.17;\r\n\r\nimport \"@openzeppelin/contracts/token/ERC1155/extensions/ERC1155URIStorage.sol\";\r\nimport \"@openzeppelin/contracts/utils/Counters.sol\";\r\nimport \"@openzeppelin/contracts/access/Ownable.sol\";\r\n\r\nimport \"./sell/BookSellingStorage.sol\";\r\nimport \"./rent/BookRentingStorage.sol\";\r\nimport \"./share/BookSharingStorage.sol\";\r\nimport \"./BookTemporary.sol\";\r\nimport \"./ListRealOwners.sol\";\r\nimport \"./keyManager/SecretKeyStorage.sol\";\r\n\r\ncontract BookStore is ERC1155URIStorage, Ownable {\r\n  using Counters for Counters.Counter;\r\n\r\n  struct NFTBook {\r\n    uint256 tokenId;\r\n    address author;\r\n    uint256 quantity;\r\n  }\r\n\r\n  event NFTBookCreated(uint256 tokenId, address author, uint256 quantity);\r\n  // Event handler when recall book\r\n  event RecallBookResult(bool isSuccess);\r\n\r\n  BookSellingStorage private _bookSellingStorage;\r\n  BookTemporary private _bookTemporary;\r\n  BookRentingStorage private _bookRentingStorage;\r\n  BookSharingStorage private _bookSharingStorage;\r\n  ListRealOwners private _listRealOwners;\r\n  SecretKeyStorage private _secretKeyStorage;\r\n\r\n  uint MAX_BALANCE = 500;\r\n  uint MIN_TIME = 604800; // Rental period is at least one week\r\n  uint public listingPrice = 0.025 ether;\r\n  uint public lendingPrice = 0.001 ether;\r\n  uint public sharingPrice = 0.0005 ether;\r\n\r\n  Counters.Counter private _tokenIds;\r\n\r\n  mapping(uint => NFTBook) _idToNFTBook;\r\n  mapping(string => bool) private _usedTokenURIs;\r\n\r\n  mapping(address => mapping(uint => uint)) private _ownedTokens;\r\n  mapping(address => uint) private _totalOwnedToken;\r\n\r\n  constructor(\r\n    BookSellingStorage bookSellingStorage,\r\n    BookTemporary bookTemporary,\r\n    ListRealOwners listRealOwners,\r\n    SecretKeyStorage secretKeyStorage\r\n  ) ERC1155(\"https://example.com/api/{id}.json\") {\r\n    _bookSellingStorage = bookSellingStorage;\r\n    _bookTemporary = bookTemporary;\r\n    _bookRentingStorage = _bookTemporary.getBookRentingStorage();\r\n    _bookSharingStorage = _bookTemporary.getBookSharingStorage();\r\n    _listRealOwners = listRealOwners;\r\n    _secretKeyStorage = secretKeyStorage;\r\n  }\r\n\r\n  function getUri(uint tokenId) public view returns (string memory) {\r\n    return ERC1155URIStorage.uri(tokenId);\r\n  }\r\n\r\n  function setListingPrice(uint newPrice) external onlyOwner {\r\n    if (newPrice == 0) {\r\n      revert Error.InvalidPriceError(newPrice);\r\n    }\r\n    listingPrice = newPrice;\r\n  }\r\n\r\n  function setLendingPrice(uint newPrice) external onlyOwner {\r\n    if (newPrice == 0) {\r\n      revert Error.InvalidPriceError(newPrice);\r\n    }\r\n    lendingPrice = newPrice;\r\n  }\r\n\r\n  function setSharingPrice(uint newPrice) external onlyOwner {\r\n    if (newPrice == 0) {\r\n      revert Error.InvalidPriceError(newPrice);\r\n    }\r\n    sharingPrice = newPrice;\r\n  }\r\n\r\n  function _beforeTokenTransfer(\r\n    address operator,\r\n    address from,\r\n    address to,\r\n    uint256[] memory ids,\r\n    uint256[] memory amounts,\r\n    bytes memory data\r\n  ) internal virtual override {\r\n    super._beforeTokenTransfer(operator, from, to, ids, amounts, data);\r\n\r\n    // Mint book\r\n    if (from == address(0) && to != address(0)) {\r\n      uint tokenId = ids[0];\r\n      _addTokenToOwnerEnumeration(to, tokenId);\r\n    }\r\n\r\n    // Buy books/ Borrow books / Share books\r\n    if (from != address(0) && to != address(0) && to != from) {\r\n      uint tokenId = ids[0];\r\n      _addTokenToOwnerEnumeration(to, tokenId);\r\n      if (ERC1155.balanceOf(from, tokenId) == 0) {\r\n        _removeTokenFromOwnerEnumeration(from, tokenId);\r\n      }\r\n    }\r\n  }\r\n\r\n  function getAllRealOwnerOfTokenId(\r\n    uint tokenId\r\n  ) public view returns (address[] memory) {\r\n    return _listRealOwners.getAllRealOwnerOfTokenId(tokenId);\r\n  }\r\n\r\n  function _afterTokenTransfer(\r\n    address operator,\r\n    address from,\r\n    address to,\r\n    uint256[] memory ids,\r\n    uint256[] memory amounts,\r\n    bytes memory data\r\n  ) internal virtual override {\r\n    super._afterTokenTransfer(operator, from, to, ids, amounts, data);\r\n    uint realQuantity;\r\n    // Mint book\r\n    if (from == address(0) && to != address(0)) {\r\n      uint tokenId = ids[0];\r\n      realQuantity =\r\n        ERC1155.balanceOf(to, tokenId) -\r\n        _bookTemporary.getAmountOfUnsalableBooksInTemporary(tokenId, to);\r\n      _listRealOwners.updateRealOwnerOfTokenIdIfNeed(realQuantity, tokenId, to);\r\n    }\r\n\r\n    // Buy books/ Borrow books / Share books\r\n    if (from != address(0) && to != address(0) && to != from) {\r\n      uint tokenId = ids[0];\r\n      realQuantity =\r\n        ERC1155.balanceOf(to, tokenId) -\r\n        _bookTemporary.getAmountOfUnsalableBooksInTemporary(tokenId, to);\r\n      _listRealOwners.updateRealOwnerOfTokenIdIfNeed(realQuantity, tokenId, to);\r\n      realQuantity =\r\n        ERC1155.balanceOf(from, tokenId) -\r\n        _bookTemporary.getAmountOfUnsalableBooksInTemporary(tokenId, from);\r\n      _listRealOwners.updateRealOwnerOfTokenIdIfNeed(\r\n        realQuantity,\r\n        tokenId,\r\n        from\r\n      );\r\n    }\r\n  }\r\n\r\n  function getBalanceOfOwnerBook(uint tokenId) public view returns (uint) {\r\n    if (!isOwnerOfToken(tokenId, msg.sender)) {\r\n      revert Error.InvalidOwnerError(tokenId, msg.sender);\r\n    }\r\n\r\n    return ERC1155.balanceOf(msg.sender, tokenId);\r\n  }\r\n\r\n  function _addTokenToOwnerEnumeration(address owner, uint tokenId) private {\r\n    if (!isOwnerOfToken(tokenId, owner)) {\r\n      uint length = _totalOwnedToken[owner];\r\n      _ownedTokens[owner][length] = tokenId;\r\n      _totalOwnedToken[owner]++;\r\n    }\r\n  }\r\n\r\n  function _removeTokenFromOwnerEnumeration(\r\n    address owner,\r\n    uint tokenId\r\n  ) private {\r\n    uint lastTokenIndex = _totalOwnedToken[owner] - 1;\r\n\r\n    for (uint i = 0; i < lastTokenIndex + 1; i++) {\r\n      if (tokenId == _ownedTokens[owner][i]) {\r\n        _ownedTokens[owner][i] = _ownedTokens[owner][lastTokenIndex];\r\n      }\r\n    }\r\n\r\n    _totalOwnedToken[owner]--;\r\n    delete _ownedTokens[owner][lastTokenIndex];\r\n  }\r\n\r\n  function getNftBook(uint tokenId) public view returns (NFTBook memory) {\r\n    return _idToNFTBook[tokenId];\r\n  }\r\n\r\n  function isTokenURIExist(string memory tokenURI) public view returns (bool) {\r\n    return _usedTokenURIs[tokenURI];\r\n  }\r\n\r\n  function mintBook(\r\n    string memory tokenURI,\r\n    uint256 quantity,\r\n    string memory privateKey,\r\n    string memory iv\r\n  ) public payable returns (uint) {\r\n    if (isTokenURIExist(tokenURI)) {\r\n      revert Error.InvalidTokenUriError(tokenURI);\r\n    }\r\n    if (quantity == 0 || quantity > MAX_BALANCE) {\r\n      revert Error.InvalidAmountError(quantity);\r\n    }\r\n    if (msg.value != listingPrice) {\r\n      revert Error.InvalidPriceError(msg.value);\r\n    }\r\n\r\n    _tokenIds.increment();\r\n    uint newTokenId = _tokenIds.current();\r\n\r\n    _mint(msg.sender, newTokenId, quantity, \"\");\r\n    _setURI(newTokenId, tokenURI);\r\n    _createNftBook(newTokenId, quantity);\r\n\r\n    _usedTokenURIs[tokenURI] = true;\r\n    _secretKeyStorage.addSecretKey(newTokenId, privateKey, iv);\r\n    return newTokenId;\r\n  }\r\n\r\n  function getSecretKey(uint tokenId) \r\n    public view returns (string[] memory) {\r\n    // Need check is readable?\r\n    if (!isBookReadableByUser(tokenId)) {\r\n      revert Error.NoReadingPermissionError(tokenId);\r\n    }\r\n    string[] memory sk = _secretKeyStorage.getSecretKey(tokenId);\r\n    return sk;\r\n  }\r\n\r\n  function isBookReadableByUser(uint tokenId) public view returns (bool) {\r\n    if (!isOwnerOfToken(tokenId, msg.sender)) {\r\n      return false;\r\n    }\r\n    if (getAmountUnUsedBook(tokenId) > 0) {\r\n      return true;\r\n    }\r\n\r\n    if (_bookRentingStorage.isBorrowedBookReadable(tokenId, msg.sender)) {\r\n      return true;\r\n    }\r\n\r\n    if (_bookSharingStorage.isSharedBookReadable(tokenId, msg.sender)) {\r\n      return true;\r\n    }\r\n    return false;\r\n  }\r\n\r\n  function _createNftBook(uint tokenId, uint256 quantity) private {\r\n    _idToNFTBook[tokenId] = NFTBook(tokenId, msg.sender, quantity);\r\n    emit NFTBookCreated(tokenId, msg.sender, quantity);\r\n  }\r\n\r\n  function isOwnerOfToken(\r\n    uint tokenId,\r\n    address owner\r\n  ) public view returns (bool) {\r\n    return ERC1155.balanceOf(owner, tokenId) > 0;\r\n  }\r\n\r\n  function getOwnedNFTBooks() public view returns (NFTBook[] memory) {\r\n    uint ownedItemsCount = _totalOwnedToken[msg.sender];\r\n    NFTBook[] memory books = new NFTBook[](ownedItemsCount);\r\n\r\n    for (uint i = 0; i < ownedItemsCount; i++) {\r\n      uint tokenId = _ownedTokens[msg.sender][i];\r\n      NFTBook memory book = _idToNFTBook[tokenId];\r\n\r\n      books[i] = book;\r\n    }\r\n\r\n    return books;\r\n  }\r\n\r\n  function getOwnedListedBooks()\r\n    public\r\n    view\r\n    returns (BookSellingStorage.BookSelling[] memory)\r\n  {\r\n    uint ownedListedBookCount = _bookSellingStorage.getTotalOwnedListedBook(\r\n      msg.sender\r\n    );\r\n    uint ownedItemsCount = _totalOwnedToken[msg.sender];\r\n    BookSellingStorage.BookSelling[]\r\n      memory books = new BookSellingStorage.BookSelling[](ownedListedBookCount);\r\n\r\n    uint currentIndex = 0;\r\n    for (uint i = 0; i < ownedItemsCount; i++) {\r\n      uint tokenId = _ownedTokens[msg.sender][i];\r\n      BookSellingStorage.BookSelling memory book = _bookSellingStorage\r\n        .getListedBook(tokenId, msg.sender);\r\n      if (book.tokenId != 0 && book.seller != address(0)) {\r\n        books[currentIndex] = book;\r\n        currentIndex++;\r\n      }\r\n    }\r\n\r\n    return books;\r\n  }\r\n\r\n  function getOwnedLendingBooks()\r\n    public\r\n    view\r\n    returns (BookRentingStorage.LendBook[] memory)\r\n  {\r\n    uint ownedLendBookCount = _bookRentingStorage.getTotalOwnedLendBook(\r\n      msg.sender\r\n    );\r\n    uint ownedItemsCount = _totalOwnedToken[msg.sender];\r\n    BookRentingStorage.LendBook[]\r\n      memory books = new BookRentingStorage.LendBook[](ownedLendBookCount);\r\n\r\n    uint currentIndex = 0;\r\n    for (uint i = 0; i < ownedItemsCount; i++) {\r\n      uint tokenId = _ownedTokens[msg.sender][i];\r\n      BookRentingStorage.LendBook memory book = _bookRentingStorage.getLendBook(\r\n        tokenId,\r\n        msg.sender\r\n      );\r\n      if (book.tokenId != 0 && book.renter != address(0)) {\r\n        books[currentIndex] = book;\r\n        currentIndex++;\r\n      }\r\n    }\r\n\r\n    return books;\r\n  }\r\n\r\n  function getAmountUnUsedBook(uint256 tokenId) public view returns (uint) {\r\n    return\r\n      getBalanceOfOwnerBook(tokenId) -\r\n      getAmountOfAllTypeBooksUntradeable(tokenId);\r\n  }\r\n\r\n  function getAmountOfAllTypeBooksUntradeable(\r\n    uint256 tokenId\r\n  ) public view returns (uint) {\r\n    return\r\n      _bookSellingStorage.getAmountOfListedBooks(tokenId, msg.sender) +\r\n      _bookTemporary.getAmountOfAllTypeBooksInTemporary(tokenId, msg.sender);\r\n  }\r\n\r\n  function sellBooks(\r\n    uint256 tokenId,\r\n    uint price,\r\n    uint256 amount\r\n  ) public payable {\r\n    if (!isOwnerOfToken(tokenId, msg.sender)) {\r\n      revert Error.InvalidOwnerError(tokenId, msg.sender);\r\n    }\r\n    if (\r\n      getAmountOfAllTypeBooksUntradeable(tokenId) + amount >\r\n      ERC1155.balanceOf(msg.sender, tokenId) ||\r\n      amount == 0\r\n    ) {\r\n      revert Error.InvalidAmountError(amount);\r\n    }\r\n    if (msg.value != listingPrice) {\r\n      revert Error.InvalidPriceError(msg.value);\r\n    }\r\n    _bookSellingStorage.sellListedBooks(tokenId, price, amount, msg.sender);\r\n  }\r\n\r\n  function lendBooks(\r\n    uint256 tokenId,\r\n    uint price,\r\n    uint256 amount\r\n  ) public payable {\r\n    if (!isOwnerOfToken(tokenId, msg.sender)) {\r\n      revert Error.InvalidOwnerError(tokenId, msg.sender);\r\n    }\r\n    if (\r\n      getAmountOfAllTypeBooksUntradeable(tokenId) + amount >\r\n      ERC1155.balanceOf(msg.sender, tokenId) ||\r\n      amount == 0\r\n    ) {\r\n      revert Error.InvalidAmountError(amount);\r\n    }\r\n    if (msg.value != lendingPrice) {\r\n      revert Error.InvalidPriceError(msg.value);\r\n    }\r\n    _bookRentingStorage.lendBooks(tokenId, msg.sender, price, amount);\r\n  }\r\n\r\n  function updateBookFromSale(\r\n    uint256 tokenId,\r\n    uint newPrice,\r\n    uint256 newAmount,\r\n    address seller\r\n  ) public {\r\n    if (!isOwnerOfToken(tokenId, msg.sender)) {\r\n      revert Error.InvalidOwnerError(tokenId, msg.sender);\r\n    }\r\n    if (seller != msg.sender) {\r\n      revert Error.InvalidAddressError(msg.sender);\r\n    }\r\n    _bookSellingStorage.updateListedBookFromSale(\r\n      tokenId,\r\n      newPrice,\r\n      newAmount,\r\n      seller\r\n    );\r\n  }\r\n\r\n  function updateBookFromRenting(\r\n    uint256 tokenId,\r\n    uint newPrice,\r\n    uint256 newAmount,\r\n    address renter\r\n  ) public {\r\n    if (!isOwnerOfToken(tokenId, renter)) {\r\n      revert Error.InvalidOwnerError(tokenId, renter);\r\n    }\r\n    if (renter != msg.sender) {\r\n      revert Error.InvalidAddressError(msg.sender);\r\n    }\r\n\r\n    _bookRentingStorage.updateLendBookFromRenting(\r\n      tokenId,\r\n      newPrice,\r\n      newAmount,\r\n      renter\r\n    );\r\n  }\r\n\r\n  function buyBooks(\r\n    uint256 tokenId,\r\n    address seller,\r\n    uint256 amount\r\n  ) public payable {\r\n    uint totalPrice = _bookSellingStorage.buyListedBooks(\r\n      tokenId,\r\n      seller,\r\n      amount,\r\n      msg.sender,\r\n      msg.value\r\n    );\r\n    if (totalPrice != 0) {\r\n      _safeTransferFrom(seller, msg.sender, tokenId, amount, \"\");\r\n      payable(seller).transfer(totalPrice);\r\n    }\r\n  }\r\n\r\n  function borrowBooks(\r\n    uint256 tokenId,\r\n    address renter,\r\n    uint256 price,\r\n    uint256 amount,\r\n    uint rentalDuration\r\n  ) public payable {\r\n    if (rentalDuration < MIN_TIME) {\r\n      revert Error.InvalidTimeError(rentalDuration);\r\n    }\r\n\r\n    uint startTime = block.timestamp;\r\n    uint endTime = startTime + rentalDuration;\r\n    uint256 totalPrice = _bookRentingStorage.borrowBooks(\r\n      tokenId,\r\n      renter,\r\n      amount,\r\n      price,\r\n      startTime,\r\n      endTime,\r\n      msg.sender,\r\n      msg.value\r\n    );\r\n    _safeTransferFrom(renter, msg.sender, tokenId, amount, \"\");\r\n    payable(renter).transfer(totalPrice);\r\n  }\r\n\r\n  //Make a request to extend the rental period and wait for their owner to approve your request\r\n  function requestExtendTimeOfBorrowedBooks(\r\n    uint256 tokenId,\r\n    address renter,\r\n    uint startTime,\r\n    uint endTime,\r\n    uint extendedAmount,\r\n    uint extendedTime\r\n  ) public {\r\n    if (renter == msg.sender) {\r\n      revert Error.InvalidAddressError(msg.sender);\r\n    }\r\n    if (extendedTime < MIN_TIME) {\r\n      revert Error.InvalidTimeError(extendedTime);\r\n    }\r\n    _bookRentingStorage.requestExtendTimeOfBorrowedBooks(\r\n      tokenId,\r\n      renter,\r\n      msg.sender,\r\n      startTime,\r\n      endTime,\r\n      extendedAmount,\r\n      extendedTime\r\n    );\r\n  }\r\n\r\n  // If borrowed book exist, only update extended time. Owthersise, do nothing\r\n  function updateRequestOfBorrowedBooks(\r\n    uint256 tokenId,\r\n    address renter,\r\n    uint startTime,\r\n    uint endTime,\r\n    uint newExtendedAmount,\r\n    uint newExtendedTime\r\n  ) public {\r\n    if (renter == address(0) || msg.sender == address(0)) {\r\n      revert Error.InvalidAddressError(address(0));\r\n    }\r\n    if (renter == msg.sender) {\r\n      revert Error.InvalidAddressError(msg.sender);\r\n    }\r\n    if (newExtendedTime < MIN_TIME) {\r\n      revert Error.InvalidTimeError(newExtendedTime);\r\n    }\r\n\r\n    _bookRentingStorage.updateRequestOfBorrowedBooks(\r\n      tokenId,\r\n      renter,\r\n      msg.sender,\r\n      startTime,\r\n      endTime,\r\n      newExtendedAmount,\r\n      newExtendedTime\r\n    );\r\n  }\r\n\r\n  function doAcceptRequest(\r\n    uint idBorrowedBook,\r\n    address borrower,\r\n    bool isAccept\r\n  ) public returns (bool) {\r\n    return\r\n      _bookRentingStorage.doAcceptRequestAndCreateResponse(\r\n        idBorrowedBook,\r\n        borrower,\r\n        msg.sender,\r\n        isAccept\r\n      );\r\n  }\r\n\r\n  function transferForSendedRequest(\r\n    uint id,\r\n    address renter,\r\n    bool isExtend\r\n  ) public payable {\r\n    if (renter == msg.sender) {\r\n      revert Error.InvalidAddressError(msg.sender);\r\n    }\r\n    uint totalPrice = _bookRentingStorage.transferForSendedRequest(\r\n      id,\r\n      renter,\r\n      msg.sender,\r\n      block.timestamp,\r\n      isExtend\r\n    );\r\n\r\n    if (totalPrice > 0) {\r\n      if (msg.value != totalPrice) {\r\n        revert Error.InvalidPriceError(msg.value);\r\n      }\r\n      payable(renter).transfer(totalPrice);\r\n    }\r\n  }\r\n\r\n  // Return true if success, owthersise return false\r\n  function recallBorrowedBooks(uint idBorrowedBook) public returns (bool) {\r\n    BookRentingStorage.BorrowedBook memory book = _bookRentingStorage\r\n      .getBorrowedBookFromId(idBorrowedBook);\r\n    if (book.renter == msg.sender) {\r\n      bool res = _bookRentingStorage.excRecallBorrowedBooks(idBorrowedBook);\r\n      if (res) {\r\n        _safeTransferFrom(\r\n          book.borrower,\r\n          msg.sender,\r\n          book.tokenId,\r\n          book.amount,\r\n          \"\"\r\n        );\r\n      }\r\n      emit RecallBookResult(res);\r\n      return res;\r\n    }\r\n    emit RecallBookResult(false);\r\n    return false;\r\n  }\r\n\r\n  // Return total of borrowed books which is recalled, if total equal 0,\r\n  // you do not have any recallable books. Needed automate this function with Chainlink\r\n  function recallAllBorrowedBooks() public returns (uint) {\r\n    uint total = 0;\r\n    if (address(0) != msg.sender) {\r\n      uint length = _bookRentingStorage.getTotalBorrowedBooksOnBorrowing();\r\n      if (length > 0) {\r\n        for (uint i = 1; i <= length; i++) {\r\n          BookRentingStorage.BorrowedBook memory book = _bookRentingStorage\r\n            .getBorrowedBookFromId(i);\r\n          if (book.renter == msg.sender && recallBorrowedBooks(i)) {\r\n            total++;\r\n          }\r\n        }\r\n      }\r\n    }\r\n    return total;\r\n  }\r\n\r\n  function shareBooks(\r\n    uint256 idBorrowedBook,\r\n    uint price,\r\n    uint256 amount\r\n  ) public payable {\r\n    BookRentingStorage.BorrowedBook memory borrowedBook = _bookRentingStorage\r\n      .getBorrowedBookFromId(idBorrowedBook);\r\n    if (msg.sender != borrowedBook.borrower) {\r\n      revert Error.InvalidAddressError(msg.sender);\r\n    }\r\n    if (msg.value != sharingPrice) {\r\n      revert Error.InvalidPriceError(sharingPrice);\r\n    }\r\n    if (amount == 0 || amount > borrowedBook.amount) {\r\n      revert Error.InvalidAmountError(amount);\r\n    }\r\n    if (block.timestamp >= borrowedBook.endTime) {\r\n      revert Error.InvalidTimeError(block.timestamp);\r\n    }\r\n    _bookSharingStorage.shareBooks(\r\n      borrowedBook.tokenId,\r\n      borrowedBook.renter,\r\n      msg.sender,\r\n      borrowedBook.price,\r\n      price,\r\n      amount,\r\n      borrowedBook.startTime,\r\n      borrowedBook.endTime\r\n    );\r\n\r\n    _bookRentingStorage.updateAmountBorrowedBookFromBorrowing(\r\n      idBorrowedBook,\r\n      amount,\r\n      true\r\n    );\r\n  }\r\n\r\n  function updateBooksOnSharing(\r\n    uint idBooksOnSharing,\r\n    uint newPrice,\r\n    uint newAmount\r\n  ) public {\r\n    BookSharingStorage.BookSharing memory booksOnSharing = _bookSharingStorage\r\n      .getBooksOnSharing(idBooksOnSharing);\r\n    uint idBorrowedBook = _bookRentingStorage.getIdBorrowedBook(\r\n      booksOnSharing.tokenId,\r\n      booksOnSharing.fromRenter,\r\n      booksOnSharing.sharer,\r\n      booksOnSharing.startTime,\r\n      booksOnSharing.endTime\r\n    );\r\n    if (idBorrowedBook == 0) {\r\n      revert Error.InvalidIdError(idBorrowedBook);\r\n    }\r\n    BookRentingStorage.BorrowedBook memory borrowedBook = _bookRentingStorage\r\n      .getBorrowedBookFromId(idBorrowedBook);\r\n    if (msg.sender != borrowedBook.borrower) {\r\n      revert Error.InvalidAddressError(msg.sender);\r\n    }\r\n    if (\r\n      newAmount == 0 || newAmount > borrowedBook.amount + booksOnSharing.amount\r\n    ) {\r\n      revert Error.InvalidAmountError(newAmount);\r\n    }\r\n\r\n    bool isDecrease;\r\n    uint balance;\r\n\r\n    if (newAmount <= booksOnSharing.amount) {\r\n      isDecrease = false;\r\n      balance = booksOnSharing.amount - newAmount;\r\n    } else {\r\n      isDecrease = true;\r\n      balance = newAmount - booksOnSharing.amount;\r\n    }\r\n\r\n    _bookSharingStorage.updateBooksOnSharing(\r\n      idBooksOnSharing,\r\n      msg.sender,\r\n      borrowedBook.tokenId,\r\n      newPrice,\r\n      newAmount\r\n    );\r\n\r\n    _bookRentingStorage.updateAmountBorrowedBookFromBorrowing(\r\n      idBorrowedBook,\r\n      balance,\r\n      isDecrease\r\n    );\r\n  }\r\n\r\n  function takeBooksOnSharing(uint idBooksOnSharing) public payable {\r\n    if (msg.sender == address(0)) {\r\n      revert Error.InvalidAddressError(msg.sender);\r\n    }\r\n    if (idBooksOnSharing == 0) {\r\n      revert Error.InvalidIdError(0);\r\n    }\r\n    BookSharingStorage.BookSharing memory booksOnSharing = _bookSharingStorage\r\n      .getBooksOnSharing(idBooksOnSharing);\r\n    uint price = _bookSharingStorage.takeBooksOnSharing(\r\n      idBooksOnSharing,\r\n      msg.sender\r\n    );\r\n    if (msg.value != price) {\r\n      revert Error.InvalidPriceError(msg.value);\r\n    }\r\n    if (booksOnSharing.tokenId != 0) {\r\n      _safeTransferFrom(\r\n        booksOnSharing.sharer,\r\n        msg.sender,\r\n        booksOnSharing.tokenId,\r\n        1,\r\n        \"\"\r\n      );\r\n      // The amount you pay for this transaction will not depend on the period of borrowing the book,\r\n      // the price will be set by the sharer\r\n      payable(booksOnSharing.sharer).transfer(price);\r\n    } else {\r\n      revert Error.ExecutionError();\r\n    }\r\n  }\r\n\r\n  // Return true if success, owthersise return false\r\n  function recallSharedBooks(uint idSharedBook) public returns (bool) {\r\n    BookSharingStorage.BookSharing memory book = _bookSharingStorage\r\n      .getSharedBooks(idSharedBook);\r\n    if (book.fromRenter == msg.sender) {\r\n      bool res = _bookSharingStorage.excRecallSharedBooks(idSharedBook);\r\n      if (res) {\r\n        _safeTransferFrom(\r\n          book.sharedPer,\r\n          msg.sender,\r\n          book.tokenId,\r\n          book.amount,\r\n          \"\"\r\n        );\r\n      }\r\n      emit RecallBookResult(res);\r\n      return res;\r\n    }\r\n    emit RecallBookResult(false);\r\n    return false;\r\n  }\r\n\r\n  function recallAllSharedBooks() public returns (uint) {\r\n    uint total = 0;\r\n    if (address(0) != msg.sender) {\r\n      uint length = _bookSharingStorage.getTotalSharedBooks();\r\n      if (length > 0) {\r\n        for (uint i = 1; i <= length; i++) {\r\n          BookSharingStorage.BookSharing memory book = _bookSharingStorage\r\n            .getSharedBooks(i);\r\n          if (book.fromRenter == msg.sender && recallSharedBooks(i)) {\r\n            total++;\r\n          }\r\n        }\r\n      }\r\n    }\r\n    return total;\r\n  }\r\n\r\n  function recallBooksOnSharing(uint idBooksOnSharing) public returns (bool) {\r\n    BookSharingStorage.BookSharing memory book = _bookSharingStorage\r\n      .getBooksOnSharing(idBooksOnSharing);\r\n    if (book.fromRenter == msg.sender) {\r\n      bool res = _bookSharingStorage.excRecallBooksOnSharing(idBooksOnSharing);\r\n      if (res) {\r\n        _safeTransferFrom(\r\n          book.sharer,\r\n          msg.sender,\r\n          book.tokenId,\r\n          book.amount,\r\n          \"\"\r\n        );\r\n      }\r\n      return res;\r\n    }\r\n    return false;\r\n  }\r\n\r\n  function recallAllBooksOnSharing() public returns (uint) {\r\n    uint total = 0;\r\n    if (address(0) != msg.sender) {\r\n      uint length = _bookSharingStorage.getTotalBooksOnSharing();\r\n      if (length > 0) {\r\n        for (uint i = 1; i <= length; i++) {\r\n          BookSharingStorage.BookSharing memory book = _bookSharingStorage\r\n            .getBooksOnSharing(i);\r\n          if (book.fromRenter == msg.sender && recallBooksOnSharing(i)) {\r\n            total++;\r\n          }\r\n        }\r\n      }\r\n    }\r\n    return total;\r\n  }\r\n}\r\n",
  "sourcePath": "D:\\DO_AN_TOT_NGHIEP\\project\\nft-bookstore\\contracts\\BookStore.sol",
  "compiler": {
    "name": "solc",
    "version": "0.8.17+commit.8df45f5f.Emscripten.clang"
  },
  "schemaVersion": "3.4.11",
  "updatedAt": "2023-05-17T15:56:05.661Z",
  "networkType": "ethereum",
  "devdoc": {
    "kind": "dev",
    "methods": {
      "balanceOf(address,uint256)": {
        "details": "See {IERC1155-balanceOf}. Requirements: - `account` cannot be the zero address."
      },
      "balanceOfBatch(address[],uint256[])": {
        "details": "See {IERC1155-balanceOfBatch}. Requirements: - `accounts` and `ids` must have the same length."
      },
      "isApprovedForAll(address,address)": {
        "details": "See {IERC1155-isApprovedForAll}."
      },
      "owner()": {
        "details": "Returns the address of the current owner."
      },
      "renounceOwnership()": {
        "details": "Leaves the contract without owner. It will not be possible to call `onlyOwner` functions anymore. Can only be called by the current owner. NOTE: Renouncing ownership will leave the contract without an owner, thereby removing any functionality that is only available to the owner."
      },
      "safeBatchTransferFrom(address,address,uint256[],uint256[],bytes)": {
        "details": "See {IERC1155-safeBatchTransferFrom}."
      },
      "safeTransferFrom(address,address,uint256,uint256,bytes)": {
        "details": "See {IERC1155-safeTransferFrom}."
      },
      "setApprovalForAll(address,bool)": {
        "details": "See {IERC1155-setApprovalForAll}."
      },
      "supportsInterface(bytes4)": {
        "details": "See {IERC165-supportsInterface}."
      },
      "transferOwnership(address)": {
        "details": "Transfers ownership of the contract to a new account (`newOwner`). Can only be called by the current owner."
      },
      "uri(uint256)": {
        "details": "See {IERC1155MetadataURI-uri}. This implementation returns the concatenation of the `_baseURI` and the token-specific uri if the latter is set This enables the following behaviors: - if `_tokenURIs[tokenId]` is set, then the result is the concatenation   of `_baseURI` and `_tokenURIs[tokenId]` (keep in mind that `_baseURI`   is empty per default); - if `_tokenURIs[tokenId]` is NOT set then we fallback to `super.uri()`   which in most cases will contain `ERC1155._uri`; - if `_tokenURIs[tokenId]` is NOT set, and if the parents do not have a   uri value set, then the result is empty."
      }
    },
    "version": 1
  },
  "userdoc": {
    "kind": "user",
    "methods": {},
    "version": 1
  }
}