{
  "contractName": "BookStore",
  "abi": [
    {
      "inputs": [],
      "stateMutability": "nonpayable",
      "type": "constructor"
    },
    {
      "anonymous": false,
      "inputs": [
        {
          "indexed": true,
          "internalType": "address",
          "name": "account",
          "type": "address"
        },
        {
          "indexed": true,
          "internalType": "address",
          "name": "operator",
          "type": "address"
        },
        {
          "indexed": false,
          "internalType": "bool",
          "name": "approved",
          "type": "bool"
        }
      ],
      "name": "ApprovalForAll",
      "type": "event"
    },
    {
      "anonymous": false,
      "inputs": [
        {
          "indexed": true,
          "internalType": "address",
          "name": "operator",
          "type": "address"
        },
        {
          "indexed": true,
          "internalType": "address",
          "name": "from",
          "type": "address"
        },
        {
          "indexed": true,
          "internalType": "address",
          "name": "to",
          "type": "address"
        },
        {
          "indexed": false,
          "internalType": "uint256[]",
          "name": "ids",
          "type": "uint256[]"
        },
        {
          "indexed": false,
          "internalType": "uint256[]",
          "name": "values",
          "type": "uint256[]"
        }
      ],
      "name": "TransferBatch",
      "type": "event"
    },
    {
      "anonymous": false,
      "inputs": [
        {
          "indexed": true,
          "internalType": "address",
          "name": "operator",
          "type": "address"
        },
        {
          "indexed": true,
          "internalType": "address",
          "name": "from",
          "type": "address"
        },
        {
          "indexed": true,
          "internalType": "address",
          "name": "to",
          "type": "address"
        },
        {
          "indexed": false,
          "internalType": "uint256",
          "name": "id",
          "type": "uint256"
        },
        {
          "indexed": false,
          "internalType": "uint256",
          "name": "value",
          "type": "uint256"
        }
      ],
      "name": "TransferSingle",
      "type": "event"
    },
    {
      "anonymous": false,
      "inputs": [
        {
          "indexed": false,
          "internalType": "string",
          "name": "value",
          "type": "string"
        },
        {
          "indexed": true,
          "internalType": "uint256",
          "name": "id",
          "type": "uint256"
        }
      ],
      "name": "URI",
      "type": "event"
    },
    {
      "inputs": [
        {
          "internalType": "address",
          "name": "account",
          "type": "address"
        },
        {
          "internalType": "uint256",
          "name": "id",
          "type": "uint256"
        }
      ],
      "name": "balanceOf",
      "outputs": [
        {
          "internalType": "uint256",
          "name": "",
          "type": "uint256"
        }
      ],
      "stateMutability": "view",
      "type": "function",
      "constant": true
    },
    {
      "inputs": [
        {
          "internalType": "address[]",
          "name": "accounts",
          "type": "address[]"
        },
        {
          "internalType": "uint256[]",
          "name": "ids",
          "type": "uint256[]"
        }
      ],
      "name": "balanceOfBatch",
      "outputs": [
        {
          "internalType": "uint256[]",
          "name": "",
          "type": "uint256[]"
        }
      ],
      "stateMutability": "view",
      "type": "function",
      "constant": true
    },
    {
      "inputs": [
        {
          "internalType": "address",
          "name": "account",
          "type": "address"
        },
        {
          "internalType": "address",
          "name": "operator",
          "type": "address"
        }
      ],
      "name": "isApprovedForAll",
      "outputs": [
        {
          "internalType": "bool",
          "name": "",
          "type": "bool"
        }
      ],
      "stateMutability": "view",
      "type": "function",
      "constant": true
    },
    {
      "inputs": [],
      "name": "listingPrice",
      "outputs": [
        {
          "internalType": "uint256",
          "name": "",
          "type": "uint256"
        }
      ],
      "stateMutability": "view",
      "type": "function",
      "constant": true
    },
    {
      "inputs": [
        {
          "internalType": "address",
          "name": "from",
          "type": "address"
        },
        {
          "internalType": "address",
          "name": "to",
          "type": "address"
        },
        {
          "internalType": "uint256[]",
          "name": "ids",
          "type": "uint256[]"
        },
        {
          "internalType": "uint256[]",
          "name": "amounts",
          "type": "uint256[]"
        },
        {
          "internalType": "bytes",
          "name": "data",
          "type": "bytes"
        }
      ],
      "name": "safeBatchTransferFrom",
      "outputs": [],
      "stateMutability": "nonpayable",
      "type": "function"
    },
    {
      "inputs": [
        {
          "internalType": "address",
          "name": "from",
          "type": "address"
        },
        {
          "internalType": "address",
          "name": "to",
          "type": "address"
        },
        {
          "internalType": "uint256",
          "name": "id",
          "type": "uint256"
        },
        {
          "internalType": "uint256",
          "name": "amount",
          "type": "uint256"
        },
        {
          "internalType": "bytes",
          "name": "data",
          "type": "bytes"
        }
      ],
      "name": "safeTransferFrom",
      "outputs": [],
      "stateMutability": "nonpayable",
      "type": "function"
    },
    {
      "inputs": [
        {
          "internalType": "address",
          "name": "operator",
          "type": "address"
        },
        {
          "internalType": "bool",
          "name": "approved",
          "type": "bool"
        }
      ],
      "name": "setApprovalForAll",
      "outputs": [],
      "stateMutability": "nonpayable",
      "type": "function"
    },
    {
      "inputs": [
        {
          "internalType": "bytes4",
          "name": "interfaceId",
          "type": "bytes4"
        }
      ],
      "name": "supportsInterface",
      "outputs": [
        {
          "internalType": "bool",
          "name": "",
          "type": "bool"
        }
      ],
      "stateMutability": "view",
      "type": "function",
      "constant": true
    },
    {
      "inputs": [
        {
          "internalType": "uint256",
          "name": "tokenId",
          "type": "uint256"
        }
      ],
      "name": "uri",
      "outputs": [
        {
          "internalType": "string",
          "name": "",
          "type": "string"
        }
      ],
      "stateMutability": "view",
      "type": "function",
      "constant": true
    },
    {
      "inputs": [
        {
          "internalType": "string",
          "name": "_tokenURI",
          "type": "string"
        },
        {
          "internalType": "uint256",
          "name": "_price",
          "type": "uint256"
        },
        {
          "internalType": "uint256",
          "name": "_quantity",
          "type": "uint256"
        }
      ],
      "name": "createBook",
      "outputs": [
        {
          "internalType": "uint256",
          "name": "",
          "type": "uint256"
        }
      ],
      "stateMutability": "payable",
      "type": "function",
      "payable": true
    }
  ],
  "bytecode": "0x60806040526040518060200160405280600081525060039081620000249190620002ff565b506658d15e176280006005553480156200003d57600080fd5b50604051806060016040528060218152602001620033586021913962000069816200007060201b60201c565b50620003e6565b8060029081620000819190620002ff565b5050565b600081519050919050565b7f4e487b7100000000000000000000000000000000000000000000000000000000600052604160045260246000fd5b7f4e487b7100000000000000000000000000000000000000000000000000000000600052602260045260246000fd5b600060028204905060018216806200010757607f821691505b6020821081036200011d576200011c620000bf565b5b50919050565b60008190508160005260206000209050919050565b60006020601f8301049050919050565b600082821b905092915050565b600060088302620001877fffffffffffffffffffffffffffffffffffffffffffffffffffffffffffffffff8262000148565b62000193868362000148565b95508019841693508086168417925050509392505050565b6000819050919050565b6000819050919050565b6000620001e0620001da620001d484620001ab565b620001b5565b620001ab565b9050919050565b6000819050919050565b620001fc83620001bf565b620002146200020b82620001e7565b84845462000155565b825550505050565b600090565b6200022b6200021c565b62000238818484620001f1565b505050565b5b8181101562000260576200025460008262000221565b6001810190506200023e565b5050565b601f821115620002af57620002798162000123565b620002848462000138565b8101602085101562000294578190505b620002ac620002a38562000138565b8301826200023d565b50505b505050565b600082821c905092915050565b6000620002d460001984600802620002b4565b1980831691505092915050565b6000620002ef8383620002c1565b9150826002028217905092915050565b6200030a8262000085565b67ffffffffffffffff81111562000326576200032562000090565b5b620003328254620000ee565b6200033f82828562000264565b600060209050601f83116001811462000377576000841562000362578287015190505b6200036e8582620002e1565b865550620003de565b601f198416620003878662000123565b60005b82811015620003b1578489015182556001820191506020850194506020810190506200038a565b86831015620003d15784890151620003cd601f891682620002c1565b8355505b6001600288020188555050505b505050505050565b612f6280620003f66000396000f3fe6080604052600436106100905760003560e01c8063a22cb46511610059578063a22cb465146101b2578063c78f19f9146101db578063e985e9c514610206578063f242432a14610243578063f7c9f76f1461026c57610090565b8062fdd58e1461009557806301ffc9a7146100d25780630e89341c1461010f5780632eb2c2d61461014c5780634e1273f414610175575b600080fd5b3480156100a157600080fd5b506100bc60048036038101906100b7919061186f565b61029c565b6040516100c991906118be565b60405180910390f35b3480156100de57600080fd5b506100f960048036038101906100f49190611931565b610364565b6040516101069190611979565b60405180910390f35b34801561011b57600080fd5b5061013660048036038101906101319190611994565b610446565b6040516101439190611a51565b60405180910390f35b34801561015857600080fd5b50610173600480360381019061016e9190611c70565b61052b565b005b34801561018157600080fd5b5061019c60048036038101906101979190611e02565b6105cc565b6040516101a99190611f38565b60405180910390f35b3480156101be57600080fd5b506101d960048036038101906101d49190611f86565b6106e5565b005b3480156101e757600080fd5b506101f06106fb565b6040516101fd91906118be565b60405180910390f35b34801561021257600080fd5b5061022d60048036038101906102289190611fc6565b610701565b60405161023a9190611979565b60405180910390f35b34801561024f57600080fd5b5061026a60048036038101906102659190612006565b610795565b005b6102866004803603810190610281919061213e565b610836565b60405161029391906118be565b60405180910390f35b60008073ffffffffffffffffffffffffffffffffffffffff168373ffffffffffffffffffffffffffffffffffffffff160361030c576040517f08c379a00000000000000000000000000000000000000000000000000000000081526004016103039061221f565b60405180910390fd5b60008083815260200190815260200160002060008473ffffffffffffffffffffffffffffffffffffffff1673ffffffffffffffffffffffffffffffffffffffff16815260200190815260200160002054905092915050565b60007fd9b67a26000000000000000000000000000000000000000000000000000000007bffffffffffffffffffffffffffffffffffffffffffffffffffffffff1916827bffffffffffffffffffffffffffffffffffffffffffffffffffffffff1916148061042f57507f0e89341c000000000000000000000000000000000000000000000000000000007bffffffffffffffffffffffffffffffffffffffffffffffffffffffff1916827bffffffffffffffffffffffffffffffffffffffffffffffffffffffff1916145b8061043f575061043e82610905565b5b9050919050565b606060006004600084815260200190815260200160002080546104689061226e565b80601f01602080910402602001604051908101604052809291908181526020018280546104949061226e565b80156104e15780601f106104b6576101008083540402835291602001916104e1565b820191906000526020600020905b8154815290600101906020018083116104c457829003601f168201915b5050505050905060008151116104ff576104fa8361096f565b610523565b600381604051602001610513929190612373565b6040516020818303038152906040525b915050919050565b610533610a03565b73ffffffffffffffffffffffffffffffffffffffff168573ffffffffffffffffffffffffffffffffffffffff161480610579575061057885610573610a03565b610701565b5b6105b8576040517f08c379a00000000000000000000000000000000000000000000000000000000081526004016105af90612409565b60405180910390fd5b6105c58585858585610a0b565b5050505050565b60608151835114610612576040517f08c379a00000000000000000000000000000000000000000000000000000000081526004016106099061249b565b60405180910390fd5b6000835167ffffffffffffffff81111561062f5761062e611a78565b5b60405190808252806020026020018201604052801561065d5781602001602082028036833780820191505090505b50905060005b84518110156106da576106aa858281518110610682576106816124bb565b5b602002602001015185838151811061069d5761069c6124bb565b5b602002602001015161029c565b8282815181106106bd576106bc6124bb565b5b602002602001018181525050806106d390612519565b9050610663565b508091505092915050565b6106f76106f0610a03565b8383610d2c565b5050565b60055481565b6000600160008473ffffffffffffffffffffffffffffffffffffffff1673ffffffffffffffffffffffffffffffffffffffff16815260200190815260200160002060008373ffffffffffffffffffffffffffffffffffffffff1673ffffffffffffffffffffffffffffffffffffffff16815260200190815260200160002060009054906101000a900460ff16905092915050565b61079d610a03565b73ffffffffffffffffffffffffffffffffffffffff168573ffffffffffffffffffffffffffffffffffffffff1614806107e357506107e2856107dd610a03565b610701565b5b610822576040517f08c379a000000000000000000000000000000000000000000000000000000000815260040161081990612409565b60405180910390fd5b61082f8585858585610e98565b5050505050565b6000600554341461087c576040517f08c379a0000000000000000000000000000000000000000000000000000000008152600401610873906125d3565b60405180910390fd5b6108866007611133565b6108906006611133565b600061089c6007611149565b90506108b933828560405180602001604052806000815250611157565b6108c38186611307565b60016008866040516108d591906125f3565b908152602001604051809103902060006101000a81548160ff021916908315150217905550809150509392505050565b60007f01ffc9a7000000000000000000000000000000000000000000000000000000007bffffffffffffffffffffffffffffffffffffffffffffffffffffffff1916827bffffffffffffffffffffffffffffffffffffffffffffffffffffffff1916149050919050565b60606002805461097e9061226e565b80601f01602080910402602001604051908101604052809291908181526020018280546109aa9061226e565b80156109f75780601f106109cc576101008083540402835291602001916109f7565b820191906000526020600020905b8154815290600101906020018083116109da57829003601f168201915b50505050509050919050565b600033905090565b8151835114610a4f576040517f08c379a0000000000000000000000000000000000000000000000000000000008152600401610a469061267c565b60405180910390fd5b600073ffffffffffffffffffffffffffffffffffffffff168473ffffffffffffffffffffffffffffffffffffffff1603610abe576040517f08c379a0000000000000000000000000000000000000000000000000000000008152600401610ab59061270e565b60405180910390fd5b6000610ac8610a03565b9050610ad881878787878761136c565b60005b8451811015610c89576000858281518110610af957610af86124bb565b5b602002602001015190506000858381518110610b1857610b176124bb565b5b60200260200101519050600080600084815260200190815260200160002060008b73ffffffffffffffffffffffffffffffffffffffff1673ffffffffffffffffffffffffffffffffffffffff16815260200190815260200160002054905081811015610bb9576040517f08c379a0000000000000000000000000000000000000000000000000000000008152600401610bb0906127a0565b60405180910390fd5b81810360008085815260200190815260200160002060008c73ffffffffffffffffffffffffffffffffffffffff1673ffffffffffffffffffffffffffffffffffffffff168152602001908152602001600020819055508160008085815260200190815260200160002060008b73ffffffffffffffffffffffffffffffffffffffff1673ffffffffffffffffffffffffffffffffffffffff1681526020019081526020016000206000828254610c6e91906127c0565b9250508190555050505080610c8290612519565b9050610adb565b508473ffffffffffffffffffffffffffffffffffffffff168673ffffffffffffffffffffffffffffffffffffffff168273ffffffffffffffffffffffffffffffffffffffff167f4a39dc06d4c0dbc64b70af90fd698a233a518aa5d07e595d983b8c0526c8f7fb8787604051610d009291906127f4565b60405180910390a4610d16818787878787611374565b610d2481878787878761137c565b505050505050565b8173ffffffffffffffffffffffffffffffffffffffff168373ffffffffffffffffffffffffffffffffffffffff1603610d9a576040517f08c379a0000000000000000000000000000000000000000000000000000000008152600401610d919061289d565b60405180910390fd5b80600160008573ffffffffffffffffffffffffffffffffffffffff1673ffffffffffffffffffffffffffffffffffffffff16815260200190815260200160002060008473ffffffffffffffffffffffffffffffffffffffff1673ffffffffffffffffffffffffffffffffffffffff16815260200190815260200160002060006101000a81548160ff0219169083151502179055508173ffffffffffffffffffffffffffffffffffffffff168373ffffffffffffffffffffffffffffffffffffffff167f17307eab39ab6107e8899845ad3d59bd9653f200f220920489ca2b5937696c3183604051610e8b9190611979565b60405180910390a3505050565b600073ffffffffffffffffffffffffffffffffffffffff168473ffffffffffffffffffffffffffffffffffffffff1603610f07576040517f08c379a0000000000000000000000000000000000000000000000000000000008152600401610efe9061270e565b60405180910390fd5b6000610f11610a03565b90506000610f1e85611553565b90506000610f2b85611553565b9050610f3b83898985858961136c565b600080600088815260200190815260200160002060008a73ffffffffffffffffffffffffffffffffffffffff1673ffffffffffffffffffffffffffffffffffffffff16815260200190815260200160002054905085811015610fd2576040517f08c379a0000000000000000000000000000000000000000000000000000000008152600401610fc9906127a0565b60405180910390fd5b85810360008089815260200190815260200160002060008b73ffffffffffffffffffffffffffffffffffffffff1673ffffffffffffffffffffffffffffffffffffffff168152602001908152602001600020819055508560008089815260200190815260200160002060008a73ffffffffffffffffffffffffffffffffffffffff1673ffffffffffffffffffffffffffffffffffffffff168152602001908152602001600020600082825461108791906127c0565b925050819055508773ffffffffffffffffffffffffffffffffffffffff168973ffffffffffffffffffffffffffffffffffffffff168573ffffffffffffffffffffffffffffffffffffffff167fc3d58168c5ae7397731d063d5bbf3d657854427343f4c083240f7aacaa2d0f628a8a6040516111049291906128bd565b60405180910390a461111a848a8a86868a611374565b611128848a8a8a8a8a6115cd565b505050505050505050565b6001816000016000828254019250508190555050565b600081600001549050919050565b600073ffffffffffffffffffffffffffffffffffffffff168473ffffffffffffffffffffffffffffffffffffffff16036111c6576040517f08c379a00000000000000000000000000000000000000000000000000000000081526004016111bd90612958565b60405180910390fd5b60006111d0610a03565b905060006111dd85611553565b905060006111ea85611553565b90506111fb8360008985858961136c565b8460008088815260200190815260200160002060008973ffffffffffffffffffffffffffffffffffffffff1673ffffffffffffffffffffffffffffffffffffffff168152602001908152602001600020600082825461125a91906127c0565b925050819055508673ffffffffffffffffffffffffffffffffffffffff16600073ffffffffffffffffffffffffffffffffffffffff168473ffffffffffffffffffffffffffffffffffffffff167fc3d58168c5ae7397731d063d5bbf3d657854427343f4c083240f7aacaa2d0f6289896040516112d89291906128bd565b60405180910390a46112ef83600089858589611374565b6112fe836000898989896115cd565b50505050505050565b806004600084815260200190815260200160002090816113279190612b0f565b50817f6bb7ff708619ba0610cba295a58592e0451dee2622938c8755667688daf3529b61135384610446565b6040516113609190611a51565b60405180910390a25050565b505050505050565b505050505050565b61139b8473ffffffffffffffffffffffffffffffffffffffff166117a4565b1561154b578373ffffffffffffffffffffffffffffffffffffffff1663bc197c8187878686866040518663ffffffff1660e01b81526004016113e1959493929190612c45565b6020604051808303816000875af192505050801561141d57506040513d601f19601f8201168201806040525081019061141a9190612cc2565b60015b6114c257611429612cfc565b806308c379a003611485575061143d612d1e565b806114485750611487565b806040517f08c379a000000000000000000000000000000000000000000000000000000000815260040161147c9190611a51565b60405180910390fd5b505b6040517f08c379a00000000000000000000000000000000000000000000000000000000081526004016114b990612e20565b60405180910390fd5b63bc197c8160e01b7bffffffffffffffffffffffffffffffffffffffffffffffffffffffff1916817bffffffffffffffffffffffffffffffffffffffffffffffffffffffff191614611549576040517f08c379a000000000000000000000000000000000000000000000000000000000815260040161154090612eb2565b60405180910390fd5b505b505050505050565b60606000600167ffffffffffffffff81111561157257611571611a78565b5b6040519080825280602002602001820160405280156115a05781602001602082028036833780820191505090505b50905082816000815181106115b8576115b76124bb565b5b60200260200101818152505080915050919050565b6115ec8473ffffffffffffffffffffffffffffffffffffffff166117a4565b1561179c578373ffffffffffffffffffffffffffffffffffffffff1663f23a6e6187878686866040518663ffffffff1660e01b8152600401611632959493929190612ed2565b6020604051808303816000875af192505050801561166e57506040513d601f19601f8201168201806040525081019061166b9190612cc2565b60015b6117135761167a612cfc565b806308c379a0036116d6575061168e612d1e565b8061169957506116d8565b806040517f08c379a00000000000000000000000000000000000000000000000000000000081526004016116cd9190611a51565b60405180910390fd5b505b6040517f08c379a000000000000000000000000000000000000000000000000000000000815260040161170a90612e20565b60405180910390fd5b63f23a6e6160e01b7bffffffffffffffffffffffffffffffffffffffffffffffffffffffff1916817bffffffffffffffffffffffffffffffffffffffffffffffffffffffff19161461179a576040517f08c379a000000000000000000000000000000000000000000000000000000000815260040161179190612eb2565b60405180910390fd5b505b505050505050565b6000808273ffffffffffffffffffffffffffffffffffffffff163b119050919050565b6000604051905090565b600080fd5b600080fd5b600073ffffffffffffffffffffffffffffffffffffffff82169050919050565b6000611806826117db565b9050919050565b611816816117fb565b811461182157600080fd5b50565b6000813590506118338161180d565b92915050565b6000819050919050565b61184c81611839565b811461185757600080fd5b50565b60008135905061186981611843565b92915050565b60008060408385031215611886576118856117d1565b5b600061189485828601611824565b92505060206118a58582860161185a565b9150509250929050565b6118b881611839565b82525050565b60006020820190506118d360008301846118af565b92915050565b60007fffffffff0000000000000000000000000000000000000000000000000000000082169050919050565b61190e816118d9565b811461191957600080fd5b50565b60008135905061192b81611905565b92915050565b600060208284031215611947576119466117d1565b5b60006119558482850161191c565b91505092915050565b60008115159050919050565b6119738161195e565b82525050565b600060208201905061198e600083018461196a565b92915050565b6000602082840312156119aa576119a96117d1565b5b60006119b88482850161185a565b91505092915050565b600081519050919050565b600082825260208201905092915050565b60005b838110156119fb5780820151818401526020810190506119e0565b60008484015250505050565b6000601f19601f8301169050919050565b6000611a23826119c1565b611a2d81856119cc565b9350611a3d8185602086016119dd565b611a4681611a07565b840191505092915050565b60006020820190508181036000830152611a6b8184611a18565b905092915050565b600080fd5b7f4e487b7100000000000000000000000000000000000000000000000000000000600052604160045260246000fd5b611ab082611a07565b810181811067ffffffffffffffff82111715611acf57611ace611a78565b5b80604052505050565b6000611ae26117c7565b9050611aee8282611aa7565b919050565b600067ffffffffffffffff821115611b0e57611b0d611a78565b5b602082029050602081019050919050565b600080fd5b6000611b37611b3284611af3565b611ad8565b90508083825260208201905060208402830185811115611b5a57611b59611b1f565b5b835b81811015611b835780611b6f888261185a565b845260208401935050602081019050611b5c565b5050509392505050565b600082601f830112611ba257611ba1611a73565b5b8135611bb2848260208601611b24565b91505092915050565b600080fd5b600067ffffffffffffffff821115611bdb57611bda611a78565b5b611be482611a07565b9050602081019050919050565b82818337600083830152505050565b6000611c13611c0e84611bc0565b611ad8565b905082815260208101848484011115611c2f57611c2e611bbb565b5b611c3a848285611bf1565b509392505050565b600082601f830112611c5757611c56611a73565b5b8135611c67848260208601611c00565b91505092915050565b600080600080600060a08688031215611c8c57611c8b6117d1565b5b6000611c9a88828901611824565b9550506020611cab88828901611824565b945050604086013567ffffffffffffffff811115611ccc57611ccb6117d6565b5b611cd888828901611b8d565b935050606086013567ffffffffffffffff811115611cf957611cf86117d6565b5b611d0588828901611b8d565b925050608086013567ffffffffffffffff811115611d2657611d256117d6565b5b611d3288828901611c42565b9150509295509295909350565b600067ffffffffffffffff821115611d5a57611d59611a78565b5b602082029050602081019050919050565b6000611d7e611d7984611d3f565b611ad8565b90508083825260208201905060208402830185811115611da157611da0611b1f565b5b835b81811015611dca5780611db68882611824565b845260208401935050602081019050611da3565b5050509392505050565b600082601f830112611de957611de8611a73565b5b8135611df9848260208601611d6b565b91505092915050565b60008060408385031215611e1957611e186117d1565b5b600083013567ffffffffffffffff811115611e3757611e366117d6565b5b611e4385828601611dd4565b925050602083013567ffffffffffffffff811115611e6457611e636117d6565b5b611e7085828601611b8d565b9150509250929050565b600081519050919050565b600082825260208201905092915050565b6000819050602082019050919050565b611eaf81611839565b82525050565b6000611ec18383611ea6565b60208301905092915050565b6000602082019050919050565b6000611ee582611e7a565b611eef8185611e85565b9350611efa83611e96565b8060005b83811015611f2b578151611f128882611eb5565b9750611f1d83611ecd565b925050600181019050611efe565b5085935050505092915050565b60006020820190508181036000830152611f528184611eda565b905092915050565b611f638161195e565b8114611f6e57600080fd5b50565b600081359050611f8081611f5a565b92915050565b60008060408385031215611f9d57611f9c6117d1565b5b6000611fab85828601611824565b9250506020611fbc85828601611f71565b9150509250929050565b60008060408385031215611fdd57611fdc6117d1565b5b6000611feb85828601611824565b9250506020611ffc85828601611824565b9150509250929050565b600080600080600060a08688031215612022576120216117d1565b5b600061203088828901611824565b955050602061204188828901611824565b94505060406120528882890161185a565b93505060606120638882890161185a565b925050608086013567ffffffffffffffff811115612084576120836117d6565b5b61209088828901611c42565b9150509295509295909350565b600067ffffffffffffffff8211156120b8576120b7611a78565b5b6120c182611a07565b9050602081019050919050565b60006120e16120dc8461209d565b611ad8565b9050828152602081018484840111156120fd576120fc611bbb565b5b612108848285611bf1565b509392505050565b600082601f83011261212557612124611a73565b5b81356121358482602086016120ce565b91505092915050565b600080600060608486031215612157576121566117d1565b5b600084013567ffffffffffffffff811115612175576121746117d6565b5b61218186828701612110565b93505060206121928682870161185a565b92505060406121a38682870161185a565b9150509250925092565b7f455243313135353a2061646472657373207a65726f206973206e6f742061207660008201527f616c6964206f776e657200000000000000000000000000000000000000000000602082015250565b6000612209602a836119cc565b9150612214826121ad565b604082019050919050565b60006020820190508181036000830152612238816121fc565b9050919050565b7f4e487b7100000000000000000000000000000000000000000000000000000000600052602260045260246000fd5b6000600282049050600182168061228657607f821691505b6020821081036122995761229861223f565b5b50919050565b600081905092915050565b60008190508160005260206000209050919050565b600081546122cc8161226e565b6122d6818661229f565b945060018216600081146122f1576001811461230657612339565b60ff1983168652811515820286019350612339565b61230f856122aa565b60005b8381101561233157815481890152600182019150602081019050612312565b838801955050505b50505092915050565b600061234d826119c1565b612357818561229f565b93506123678185602086016119dd565b80840191505092915050565b600061237f82856122bf565b915061238b8284612342565b91508190509392505050565b7f455243313135353a2063616c6c6572206973206e6f7420746f6b656e206f776e60008201527f6572206f7220617070726f766564000000000000000000000000000000000000602082015250565b60006123f3602e836119cc565b91506123fe82612397565b604082019050919050565b60006020820190508181036000830152612422816123e6565b9050919050565b7f455243313135353a206163636f756e747320616e6420696473206c656e67746860008201527f206d69736d617463680000000000000000000000000000000000000000000000602082015250565b60006124856029836119cc565b915061249082612429565b604082019050919050565b600060208201905081810360008301526124b481612478565b9050919050565b7f4e487b7100000000000000000000000000000000000000000000000000000000600052603260045260246000fd5b7f4e487b7100000000000000000000000000000000000000000000000000000000600052601160045260246000fd5b600061252482611839565b91507fffffffffffffffffffffffffffffffffffffffffffffffffffffffffffffffff8203612556576125556124ea565b5b600182019050919050565b7f5072696365206d75737420626520657175616c20746f206c697374696e67207060008201527f7269636500000000000000000000000000000000000000000000000000000000602082015250565b60006125bd6024836119cc565b91506125c882612561565b604082019050919050565b600060208201905081810360008301526125ec816125b0565b9050919050565b60006125ff8284612342565b915081905092915050565b7f455243313135353a2069647320616e6420616d6f756e7473206c656e6774682060008201527f6d69736d61746368000000000000000000000000000000000000000000000000602082015250565b60006126666028836119cc565b91506126718261260a565b604082019050919050565b6000602082019050818103600083015261269581612659565b9050919050565b7f455243313135353a207472616e7366657220746f20746865207a65726f20616460008201527f6472657373000000000000000000000000000000000000000000000000000000602082015250565b60006126f86025836119cc565b91506127038261269c565b604082019050919050565b60006020820190508181036000830152612727816126eb565b9050919050565b7f455243313135353a20696e73756666696369656e742062616c616e636520666f60008201527f72207472616e7366657200000000000000000000000000000000000000000000602082015250565b600061278a602a836119cc565b91506127958261272e565b604082019050919050565b600060208201905081810360008301526127b98161277d565b9050919050565b60006127cb82611839565b91506127d683611839565b92508282019050808211156127ee576127ed6124ea565b5b92915050565b6000604082019050818103600083015261280e8185611eda565b905081810360208301526128228184611eda565b90509392505050565b7f455243313135353a2073657474696e6720617070726f76616c2073746174757360008201527f20666f722073656c660000000000000000000000000000000000000000000000602082015250565b60006128876029836119cc565b91506128928261282b565b604082019050919050565b600060208201905081810360008301526128b68161287a565b9050919050565b60006040820190506128d260008301856118af565b6128df60208301846118af565b9392505050565b7f455243313135353a206d696e7420746f20746865207a65726f2061646472657360008201527f7300000000000000000000000000000000000000000000000000000000000000602082015250565b60006129426021836119cc565b915061294d826128e6565b604082019050919050565b6000602082019050818103600083015261297181612935565b9050919050565b60006020601f8301049050919050565b600082821b905092915050565b6000600883026129c57fffffffffffffffffffffffffffffffffffffffffffffffffffffffffffffffff82612988565b6129cf8683612988565b95508019841693508086168417925050509392505050565b6000819050919050565b6000612a0c612a07612a0284611839565b6129e7565b611839565b9050919050565b6000819050919050565b612a26836129f1565b612a3a612a3282612a13565b848454612995565b825550505050565b600090565b612a4f612a42565b612a5a818484612a1d565b505050565b5b81811015612a7e57612a73600082612a47565b600181019050612a60565b5050565b601f821115612ac357612a94816122aa565b612a9d84612978565b81016020851015612aac578190505b612ac0612ab885612978565b830182612a5f565b50505b505050565b600082821c905092915050565b6000612ae660001984600802612ac8565b1980831691505092915050565b6000612aff8383612ad5565b9150826002028217905092915050565b612b18826119c1565b67ffffffffffffffff811115612b3157612b30611a78565b5b612b3b825461226e565b612b46828285612a82565b600060209050601f831160018114612b795760008415612b67578287015190505b612b718582612af3565b865550612bd9565b601f198416612b87866122aa565b60005b82811015612baf57848901518255600182019150602085019450602081019050612b8a565b86831015612bcc5784890151612bc8601f891682612ad5565b8355505b6001600288020188555050505b505050505050565b612bea816117fb565b82525050565b600081519050919050565b600082825260208201905092915050565b6000612c1782612bf0565b612c218185612bfb565b9350612c318185602086016119dd565b612c3a81611a07565b840191505092915050565b600060a082019050612c5a6000830188612be1565b612c676020830187612be1565b8181036040830152612c798186611eda565b90508181036060830152612c8d8185611eda565b90508181036080830152612ca18184612c0c565b90509695505050505050565b600081519050612cbc81611905565b92915050565b600060208284031215612cd857612cd76117d1565b5b6000612ce684828501612cad565b91505092915050565b60008160e01c9050919050565b600060033d1115612d1b5760046000803e612d18600051612cef565b90505b90565b600060443d10612dab57612d306117c7565b60043d036004823e80513d602482011167ffffffffffffffff82111715612d58575050612dab565b808201805167ffffffffffffffff811115612d765750505050612dab565b80602083010160043d038501811115612d93575050505050612dab565b612da282602001850186611aa7565b82955050505050505b90565b7f455243313135353a207472616e7366657220746f206e6f6e2d4552433131353560008201527f526563656976657220696d706c656d656e746572000000000000000000000000602082015250565b6000612e0a6034836119cc565b9150612e1582612dae565b604082019050919050565b60006020820190508181036000830152612e3981612dfd565b9050919050565b7f455243313135353a204552433131353552656365697665722072656a6563746560008201527f6420746f6b656e73000000000000000000000000000000000000000000000000602082015250565b6000612e9c6028836119cc565b9150612ea782612e40565b604082019050919050565b60006020820190508181036000830152612ecb81612e8f565b9050919050565b600060a082019050612ee76000830188612be1565b612ef46020830187612be1565b612f0160408301866118af565b612f0e60608301856118af565b8181036080830152612f208184612c0c565b9050969550505050505056fea2646970667358221220e7ded061f39379ea8c742ac4d41881726dbbd308e1396c78f0eb23c2a14da27a64736f6c6343000811003368747470733a2f2f6578616d706c652e636f6d2f6170692f7b69647d2e6a736f6e",
  "immutableReferences": {},
  "source": "pragma solidity >=0.4.22 <0.9.0;\r\nimport \"@openzeppelin/contracts/token/ERC1155/extensions/ERC1155URIStorage.sol\";\r\nimport \"@openzeppelin/contracts/utils/Counters.sol\";\r\n\r\ncontract BookStore is ERC1155URIStorage {\r\n  using Counters for Counters.Counter;\r\n\r\n  struct NFTBook {\r\n    uint256 tokenId;\r\n    address author;\r\n    uint256 quantity;\r\n  }\r\n\r\n  enum StatusUsedBook{ LISTED, UNLISTED, RENTING, RENTED }\r\n\r\n  struct UsedBook {\r\n    uint256 tokenId;\r\n    uint256 amount;\r\n    StatusUsedBook status;\r\n    uint256 price;\r\n    uint256 startTime;\r\n    uint256 endTime;\r\n  }\r\n\r\n  uint public listingPrice = 0.025 ether;\r\n  Counters.Counter private _listedBooks;\r\n  Counters.Counter private _tokenIds;\r\n\r\n  mapping(string => bool) private _usedTokenURIs;\r\n  NFTBook[] private _allNftBooks;\r\n\r\n  constructor() ERC1155(\"https://example.com/api/{id}.json\") {\r\n  }\r\n\r\n  function createBook(string memory _tokenURI, uint256 _price, uint256 _quantity)  public payable returns (uint) {\r\n    require(msg.value == listingPrice, \"Price must be equal to listing price\");\r\n\r\n    _tokenIds.increment();\r\n    _listedBooks.increment();\r\n\r\n    uint newTokenId = _tokenIds.current();\r\n\r\n    _mint(msg.sender, newTokenId, _quantity, \"\");\r\n\r\n    _setURI(newTokenId, _tokenURI);\r\n    // _createBookVersion(newTokenId, _price, _quantity);\r\n    _usedTokenURIs[_tokenURI] = true;\r\n\r\n    return newTokenId;\r\n  }\r\n\r\n}",
  "sourcePath": "D:\\DO_AN_TOT_NGHIEP\\project\\nft-bookstore\\contracts\\BookStore.sol",
  "compiler": {
    "name": "solc",
    "version": "0.8.17+commit.8df45f5f.Emscripten.clang"
  },
  "schemaVersion": "3.4.11",
  "updatedAt": "2023-02-16T07:48:17.898Z",
  "networkType": "ethereum",
  "devdoc": {
    "kind": "dev",
    "methods": {
      "balanceOf(address,uint256)": {
        "details": "See {IERC1155-balanceOf}. Requirements: - `account` cannot be the zero address."
      },
      "balanceOfBatch(address[],uint256[])": {
        "details": "See {IERC1155-balanceOfBatch}. Requirements: - `accounts` and `ids` must have the same length."
      },
      "isApprovedForAll(address,address)": {
        "details": "See {IERC1155-isApprovedForAll}."
      },
      "safeBatchTransferFrom(address,address,uint256[],uint256[],bytes)": {
        "details": "See {IERC1155-safeBatchTransferFrom}."
      },
      "safeTransferFrom(address,address,uint256,uint256,bytes)": {
        "details": "See {IERC1155-safeTransferFrom}."
      },
      "setApprovalForAll(address,bool)": {
        "details": "See {IERC1155-setApprovalForAll}."
      },
      "supportsInterface(bytes4)": {
        "details": "See {IERC165-supportsInterface}."
      },
      "uri(uint256)": {
        "details": "See {IERC1155MetadataURI-uri}. This implementation returns the concatenation of the `_baseURI` and the token-specific uri if the latter is set This enables the following behaviors: - if `_tokenURIs[tokenId]` is set, then the result is the concatenation   of `_baseURI` and `_tokenURIs[tokenId]` (keep in mind that `_baseURI`   is empty per default); - if `_tokenURIs[tokenId]` is NOT set then we fallback to `super.uri()`   which in most cases will contain `ERC1155._uri`; - if `_tokenURIs[tokenId]` is NOT set, and if the parents do not have a   uri value set, then the result is empty."
      }
    },
    "version": 1
  },
  "userdoc": {
    "kind": "user",
    "methods": {},
    "version": 1
  }
}