{
  "contractName": "BookStore",
  "abi": [
    {
      "inputs": [],
      "stateMutability": "nonpayable",
      "type": "constructor"
    },
    {
      "anonymous": false,
      "inputs": [
        {
          "indexed": true,
          "internalType": "address",
          "name": "account",
          "type": "address"
        },
        {
          "indexed": true,
          "internalType": "address",
          "name": "operator",
          "type": "address"
        },
        {
          "indexed": false,
          "internalType": "bool",
          "name": "approved",
          "type": "bool"
        }
      ],
      "name": "ApprovalForAll",
      "type": "event"
    },
    {
      "anonymous": false,
      "inputs": [
        {
          "indexed": false,
          "internalType": "uint256",
          "name": "tokenId",
          "type": "uint256"
        },
        {
          "indexed": false,
          "internalType": "uint256",
          "name": "price",
          "type": "uint256"
        },
        {
          "indexed": false,
          "internalType": "address",
          "name": "author",
          "type": "address"
        },
        {
          "indexed": false,
          "internalType": "uint256",
          "name": "quantity",
          "type": "uint256"
        }
      ],
      "name": "BookVersionCreated",
      "type": "event"
    },
    {
      "anonymous": false,
      "inputs": [
        {
          "indexed": true,
          "internalType": "address",
          "name": "operator",
          "type": "address"
        },
        {
          "indexed": true,
          "internalType": "address",
          "name": "from",
          "type": "address"
        },
        {
          "indexed": true,
          "internalType": "address",
          "name": "to",
          "type": "address"
        },
        {
          "indexed": false,
          "internalType": "uint256[]",
          "name": "ids",
          "type": "uint256[]"
        },
        {
          "indexed": false,
          "internalType": "uint256[]",
          "name": "values",
          "type": "uint256[]"
        }
      ],
      "name": "TransferBatch",
      "type": "event"
    },
    {
      "anonymous": false,
      "inputs": [
        {
          "indexed": true,
          "internalType": "address",
          "name": "operator",
          "type": "address"
        },
        {
          "indexed": true,
          "internalType": "address",
          "name": "from",
          "type": "address"
        },
        {
          "indexed": true,
          "internalType": "address",
          "name": "to",
          "type": "address"
        },
        {
          "indexed": false,
          "internalType": "uint256",
          "name": "id",
          "type": "uint256"
        },
        {
          "indexed": false,
          "internalType": "uint256",
          "name": "value",
          "type": "uint256"
        }
      ],
      "name": "TransferSingle",
      "type": "event"
    },
    {
      "anonymous": false,
      "inputs": [
        {
          "indexed": false,
          "internalType": "string",
          "name": "value",
          "type": "string"
        },
        {
          "indexed": true,
          "internalType": "uint256",
          "name": "id",
          "type": "uint256"
        }
      ],
      "name": "URI",
      "type": "event"
    },
    {
      "inputs": [
        {
          "internalType": "address",
          "name": "account",
          "type": "address"
        },
        {
          "internalType": "uint256",
          "name": "id",
          "type": "uint256"
        }
      ],
      "name": "balanceOf",
      "outputs": [
        {
          "internalType": "uint256",
          "name": "",
          "type": "uint256"
        }
      ],
      "stateMutability": "view",
      "type": "function"
    },
    {
      "inputs": [
        {
          "internalType": "address[]",
          "name": "accounts",
          "type": "address[]"
        },
        {
          "internalType": "uint256[]",
          "name": "ids",
          "type": "uint256[]"
        }
      ],
      "name": "balanceOfBatch",
      "outputs": [
        {
          "internalType": "uint256[]",
          "name": "",
          "type": "uint256[]"
        }
      ],
      "stateMutability": "view",
      "type": "function"
    },
    {
      "inputs": [
        {
          "internalType": "address",
          "name": "account",
          "type": "address"
        },
        {
          "internalType": "address",
          "name": "operator",
          "type": "address"
        }
      ],
      "name": "isApprovedForAll",
      "outputs": [
        {
          "internalType": "bool",
          "name": "",
          "type": "bool"
        }
      ],
      "stateMutability": "view",
      "type": "function"
    },
    {
      "inputs": [],
      "name": "listingPrice",
      "outputs": [
        {
          "internalType": "uint256",
          "name": "",
          "type": "uint256"
        }
      ],
      "stateMutability": "view",
      "type": "function"
    },
    {
      "inputs": [
        {
          "internalType": "address",
          "name": "from",
          "type": "address"
        },
        {
          "internalType": "address",
          "name": "to",
          "type": "address"
        },
        {
          "internalType": "uint256[]",
          "name": "ids",
          "type": "uint256[]"
        },
        {
          "internalType": "uint256[]",
          "name": "amounts",
          "type": "uint256[]"
        },
        {
          "internalType": "bytes",
          "name": "data",
          "type": "bytes"
        }
      ],
      "name": "safeBatchTransferFrom",
      "outputs": [],
      "stateMutability": "nonpayable",
      "type": "function"
    },
    {
      "inputs": [
        {
          "internalType": "address",
          "name": "from",
          "type": "address"
        },
        {
          "internalType": "address",
          "name": "to",
          "type": "address"
        },
        {
          "internalType": "uint256",
          "name": "id",
          "type": "uint256"
        },
        {
          "internalType": "uint256",
          "name": "amount",
          "type": "uint256"
        },
        {
          "internalType": "bytes",
          "name": "data",
          "type": "bytes"
        }
      ],
      "name": "safeTransferFrom",
      "outputs": [],
      "stateMutability": "nonpayable",
      "type": "function"
    },
    {
      "inputs": [
        {
          "internalType": "address",
          "name": "operator",
          "type": "address"
        },
        {
          "internalType": "bool",
          "name": "approved",
          "type": "bool"
        }
      ],
      "name": "setApprovalForAll",
      "outputs": [],
      "stateMutability": "nonpayable",
      "type": "function"
    },
    {
      "inputs": [
        {
          "internalType": "bytes4",
          "name": "interfaceId",
          "type": "bytes4"
        }
      ],
      "name": "supportsInterface",
      "outputs": [
        {
          "internalType": "bool",
          "name": "",
          "type": "bool"
        }
      ],
      "stateMutability": "view",
      "type": "function"
    },
    {
      "inputs": [
        {
          "internalType": "uint256",
          "name": "tokenId",
          "type": "uint256"
        }
      ],
      "name": "uri",
      "outputs": [
        {
          "internalType": "string",
          "name": "",
          "type": "string"
        }
      ],
      "stateMutability": "view",
      "type": "function"
    },
    {
      "inputs": [
        {
          "internalType": "uint256",
          "name": "bookVersionId",
          "type": "uint256"
        }
      ],
      "name": "getBookVersion",
      "outputs": [
        {
          "components": [
            {
              "internalType": "uint256",
              "name": "tokenId",
              "type": "uint256"
            },
            {
              "internalType": "uint256",
              "name": "price",
              "type": "uint256"
            },
            {
              "internalType": "address",
              "name": "author",
              "type": "address"
            },
            {
              "internalType": "uint256",
              "name": "quantity",
              "type": "uint256"
            }
          ],
          "internalType": "struct BookStore.BookVersion",
          "name": "",
          "type": "tuple"
        }
      ],
      "stateMutability": "view",
      "type": "function"
    },
    {
      "inputs": [],
      "name": "listedItemsCount",
      "outputs": [
        {
          "internalType": "uint256",
          "name": "",
          "type": "uint256"
        }
      ],
      "stateMutability": "view",
      "type": "function"
    },
    {
      "inputs": [
        {
          "internalType": "string",
          "name": "tokenURI",
          "type": "string"
        }
      ],
      "name": "tokenURIExists",
      "outputs": [
        {
          "internalType": "bool",
          "name": "",
          "type": "bool"
        }
      ],
      "stateMutability": "view",
      "type": "function"
    },
    {
      "inputs": [
        {
          "internalType": "string",
          "name": "tokenURI",
          "type": "string"
        },
        {
          "internalType": "uint256",
          "name": "_price",
          "type": "uint256"
        },
        {
          "internalType": "uint256",
          "name": "_quantity",
          "type": "uint256"
        }
      ],
      "name": "publish",
      "outputs": [
        {
          "internalType": "uint256",
          "name": "",
          "type": "uint256"
        }
      ],
      "stateMutability": "payable",
      "type": "function"
    }
  ],
  "bytecode": "0x60806040526040518060200160405280600081525060039081620000249190620002ff565b506658d15e176280006005553480156200003d57600080fd5b506040518060600160405280602181526020016200397c6021913962000069816200007060201b60201c565b50620003e6565b8060029081620000819190620002ff565b5050565b600081519050919050565b7f4e487b7100000000000000000000000000000000000000000000000000000000600052604160045260246000fd5b7f4e487b7100000000000000000000000000000000000000000000000000000000600052602260045260246000fd5b600060028204905060018216806200010757607f821691505b6020821081036200011d576200011c620000bf565b5b50919050565b60008190508160005260206000209050919050565b60006020601f8301049050919050565b600082821b905092915050565b600060088302620001877fffffffffffffffffffffffffffffffffffffffffffffffffffffffffffffffff8262000148565b62000193868362000148565b95508019841693508086168417925050509392505050565b6000819050919050565b6000819050919050565b6000620001e0620001da620001d484620001ab565b620001b5565b620001ab565b9050919050565b6000819050919050565b620001fc83620001bf565b620002146200020b82620001e7565b84845462000155565b825550505050565b600090565b6200022b6200021c565b62000238818484620001f1565b505050565b5b8181101562000260576200025460008262000221565b6001810190506200023e565b5050565b601f821115620002af57620002798162000123565b620002848462000138565b8101602085101562000294578190505b620002ac620002a38562000138565b8301826200023d565b50505b505050565b600082821c905092915050565b6000620002d460001984600802620002b4565b1980831691505092915050565b6000620002ef8383620002c1565b9150826002028217905092915050565b6200030a8262000085565b67ffffffffffffffff81111562000326576200032562000090565b5b620003328254620000ee565b6200033f82828562000264565b600060209050601f83116001811462000377576000841562000362578287015190505b6200036e8582620002e1565b865550620003de565b601f198416620003878662000123565b60005b82811015620003b1578489015182556001820191506020850194506020810190506200038a565b86831015620003d15784890151620003cd601f891682620002c1565b8355505b6001600288020188555050505b505050505050565b61358680620003f66000396000f3fe6080604052600436106100c15760003560e01c80634e1273f41161007f578063c78f19f911610059578063c78f19f9146102b6578063ccb4918d146102e1578063e985e9c51461030c578063f242432a14610349576100c1565b80634e1273f4146102205780636a94b66a1461025d578063a22cb4651461028d576100c1565b8062fdd58e146100c657806301ffc9a7146101035780630e89341c146101405780632eb2c2d61461017d5780633369f8c0146101a657806343d32ae7146101e3575b600080fd5b3480156100d257600080fd5b506100ed60048036038101906100e89190611cae565b610372565b6040516100fa9190611cfd565b60405180910390f35b34801561010f57600080fd5b5061012a60048036038101906101259190611d70565b61043a565b6040516101379190611db8565b60405180910390f35b34801561014c57600080fd5b5061016760048036038101906101629190611dd3565b61051c565b6040516101749190611e90565b60405180910390f35b34801561018957600080fd5b506101a4600480360381019061019f91906120af565b610601565b005b3480156101b257600080fd5b506101cd60048036038101906101c89190611dd3565b6106a2565b6040516101da91906121f1565b60405180910390f35b3480156101ef57600080fd5b5061020a600480360381019061020591906122ad565b610743565b6040516102179190611db8565b60405180910390f35b34801561022c57600080fd5b50610247600480360381019061024291906123b9565b61077f565b60405161025491906124e0565b60405180910390f35b61027760048036038101906102729190612502565b610898565b6040516102849190611cfd565b60405180910390f35b34801561029957600080fd5b506102b460048036038101906102af919061259d565b610a6d565b005b3480156102c257600080fd5b506102cb610a83565b6040516102d89190611cfd565b60405180910390f35b3480156102ed57600080fd5b506102f6610a89565b6040516103039190611cfd565b60405180910390f35b34801561031857600080fd5b50610333600480360381019061032e91906125dd565b610a9a565b6040516103409190611db8565b60405180910390f35b34801561035557600080fd5b50610370600480360381019061036b919061261d565b610b2e565b005b60008073ffffffffffffffffffffffffffffffffffffffff168373ffffffffffffffffffffffffffffffffffffffff16036103e2576040517f08c379a00000000000000000000000000000000000000000000000000000000081526004016103d990612726565b60405180910390fd5b60008083815260200190815260200160002060008473ffffffffffffffffffffffffffffffffffffffff1673ffffffffffffffffffffffffffffffffffffffff16815260200190815260200160002054905092915050565b60007fd9b67a26000000000000000000000000000000000000000000000000000000007bffffffffffffffffffffffffffffffffffffffffffffffffffffffff1916827bffffffffffffffffffffffffffffffffffffffffffffffffffffffff1916148061050557507f0e89341c000000000000000000000000000000000000000000000000000000007bffffffffffffffffffffffffffffffffffffffffffffffffffffffff1916827bffffffffffffffffffffffffffffffffffffffffffffffffffffffff1916145b80610515575061051482610bcf565b5b9050919050565b6060600060046000848152602001908152602001600020805461053e90612775565b80601f016020809104026020016040519081016040528092919081815260200182805461056a90612775565b80156105b75780601f1061058c576101008083540402835291602001916105b7565b820191906000526020600020905b81548152906001019060200180831161059a57829003601f168201915b5050505050905060008151116105d5576105d083610c39565b6105f9565b6003816040516020016105e992919061287a565b6040516020818303038152906040525b915050919050565b610609610ccd565b73ffffffffffffffffffffffffffffffffffffffff168573ffffffffffffffffffffffffffffffffffffffff16148061064f575061064e85610649610ccd565b610a9a565b5b61068e576040517f08c379a000000000000000000000000000000000000000000000000000000000815260040161068590612910565b60405180910390fd5b61069b8585858585610cd5565b5050505050565b6106aa611bc8565b6008600083815260200190815260200160002060405180608001604052908160008201548152602001600182015481526020016002820160009054906101000a900473ffffffffffffffffffffffffffffffffffffffff1673ffffffffffffffffffffffffffffffffffffffff1673ffffffffffffffffffffffffffffffffffffffff1681526020016003820154815250509050919050565b6000600115156009836040516107599190612930565b908152602001604051809103902060009054906101000a900460ff161515149050919050565b606081518351146107c5576040517f08c379a00000000000000000000000000000000000000000000000000000000081526004016107bc906129b9565b60405180910390fd5b6000835167ffffffffffffffff8111156107e2576107e1611eb7565b5b6040519080825280602002602001820160405280156108105781602001602082028036833780820191505090505b50905060005b845181101561088d5761085d858281518110610835576108346129d9565b5b60200260200101518583815181106108505761084f6129d9565b5b6020026020010151610372565b8282815181106108705761086f6129d9565b5b6020026020010181815250508061088690612a37565b9050610816565b508091505092915050565b60006108a384610743565b156108e3576040517f08c379a00000000000000000000000000000000000000000000000000000000081526004016108da90612acb565b60405180910390fd5b6005543414610927576040517f08c379a000000000000000000000000000000000000000000000000000000000815260040161091e90612b5d565b60405180910390fd5b6109316007610ff6565b61093b6006610ff6565b6000610947600761100c565b90506109643382856040518060200160405280600081525061101a565b60405180608001604052808281526020018581526020013373ffffffffffffffffffffffffffffffffffffffff1681526020018481525060086000838152602001908152602001600020600082015181600001556020820151816001015560408201518160020160006101000a81548173ffffffffffffffffffffffffffffffffffffffff021916908373ffffffffffffffffffffffffffffffffffffffff16021790555060608201518160030155905050610a2081866111ca565b610a2b81858561122f565b6001600986604051610a3d9190612930565b908152602001604051809103902060006101000a81548160ff021916908315150217905550809150509392505050565b610a7f610a78610ccd565b8383611366565b5050565b60055481565b6000610a95600661100c565b905090565b6000600160008473ffffffffffffffffffffffffffffffffffffffff1673ffffffffffffffffffffffffffffffffffffffff16815260200190815260200160002060008373ffffffffffffffffffffffffffffffffffffffff1673ffffffffffffffffffffffffffffffffffffffff16815260200190815260200160002060009054906101000a900460ff16905092915050565b610b36610ccd565b73ffffffffffffffffffffffffffffffffffffffff168573ffffffffffffffffffffffffffffffffffffffff161480610b7c5750610b7b85610b76610ccd565b610a9a565b5b610bbb576040517f08c379a0000000000000000000000000000000000000000000000000000000008152600401610bb290612910565b60405180910390fd5b610bc885858585856114d2565b5050505050565b60007f01ffc9a7000000000000000000000000000000000000000000000000000000007bffffffffffffffffffffffffffffffffffffffffffffffffffffffff1916827bffffffffffffffffffffffffffffffffffffffffffffffffffffffff1916149050919050565b606060028054610c4890612775565b80601f0160208091040260200160405190810160405280929190818152602001828054610c7490612775565b8015610cc15780601f10610c9657610100808354040283529160200191610cc1565b820191906000526020600020905b815481529060010190602001808311610ca457829003601f168201915b50505050509050919050565b600033905090565b8151835114610d19576040517f08c379a0000000000000000000000000000000000000000000000000000000008152600401610d1090612bef565b60405180910390fd5b600073ffffffffffffffffffffffffffffffffffffffff168473ffffffffffffffffffffffffffffffffffffffff1603610d88576040517f08c379a0000000000000000000000000000000000000000000000000000000008152600401610d7f90612c81565b60405180910390fd5b6000610d92610ccd565b9050610da281878787878761176d565b60005b8451811015610f53576000858281518110610dc357610dc26129d9565b5b602002602001015190506000858381518110610de257610de16129d9565b5b60200260200101519050600080600084815260200190815260200160002060008b73ffffffffffffffffffffffffffffffffffffffff1673ffffffffffffffffffffffffffffffffffffffff16815260200190815260200160002054905081811015610e83576040517f08c379a0000000000000000000000000000000000000000000000000000000008152600401610e7a90612d13565b60405180910390fd5b81810360008085815260200190815260200160002060008c73ffffffffffffffffffffffffffffffffffffffff1673ffffffffffffffffffffffffffffffffffffffff168152602001908152602001600020819055508160008085815260200190815260200160002060008b73ffffffffffffffffffffffffffffffffffffffff1673ffffffffffffffffffffffffffffffffffffffff1681526020019081526020016000206000828254610f389190612d33565b9250508190555050505080610f4c90612a37565b9050610da5565b508473ffffffffffffffffffffffffffffffffffffffff168673ffffffffffffffffffffffffffffffffffffffff168273ffffffffffffffffffffffffffffffffffffffff167f4a39dc06d4c0dbc64b70af90fd698a233a518aa5d07e595d983b8c0526c8f7fb8787604051610fca929190612d67565b60405180910390a4610fe0818787878787611775565b610fee81878787878761177d565b505050505050565b6001816000016000828254019250508190555050565b600081600001549050919050565b600073ffffffffffffffffffffffffffffffffffffffff168473ffffffffffffffffffffffffffffffffffffffff1603611089576040517f08c379a000000000000000000000000000000000000000000000000000000000815260040161108090612e10565b60405180910390fd5b6000611093610ccd565b905060006110a085611954565b905060006110ad85611954565b90506110be8360008985858961176d565b8460008088815260200190815260200160002060008973ffffffffffffffffffffffffffffffffffffffff1673ffffffffffffffffffffffffffffffffffffffff168152602001908152602001600020600082825461111d9190612d33565b925050819055508673ffffffffffffffffffffffffffffffffffffffff16600073ffffffffffffffffffffffffffffffffffffffff168473ffffffffffffffffffffffffffffffffffffffff167fc3d58168c5ae7397731d063d5bbf3d657854427343f4c083240f7aacaa2d0f62898960405161119b929190612e30565b60405180910390a46111b283600089858589611775565b6111c1836000898989896119ce565b50505050505050565b806004600084815260200190815260200160002090816111ea9190612ff0565b50817f6bb7ff708619ba0610cba295a58592e0451dee2622938c8755667688daf3529b6112168461051c565b6040516112239190611e90565b60405180910390a25050565b60008211611272576040517f08c379a00000000000000000000000000000000000000000000000000000000081526004016112699061310e565b60405180910390fd5b60405180608001604052808481526020018381526020013373ffffffffffffffffffffffffffffffffffffffff1681526020018281525060086000858152602001908152602001600020600082015181600001556020820151816001015560408201518160020160006101000a81548173ffffffffffffffffffffffffffffffffffffffff021916908373ffffffffffffffffffffffffffffffffffffffff160217905550606082015181600301559050507f9e6eb2956146a12454109dbb408af738fdee252884eae3dac8927d6e08ee46e183833384604051611359949392919061313d565b60405180910390a1505050565b8173ffffffffffffffffffffffffffffffffffffffff168373ffffffffffffffffffffffffffffffffffffffff16036113d4576040517f08c379a00000000000000000000000000000000000000000000000000000000081526004016113cb906131f4565b60405180910390fd5b80600160008573ffffffffffffffffffffffffffffffffffffffff1673ffffffffffffffffffffffffffffffffffffffff16815260200190815260200160002060008473ffffffffffffffffffffffffffffffffffffffff1673ffffffffffffffffffffffffffffffffffffffff16815260200190815260200160002060006101000a81548160ff0219169083151502179055508173ffffffffffffffffffffffffffffffffffffffff168373ffffffffffffffffffffffffffffffffffffffff167f17307eab39ab6107e8899845ad3d59bd9653f200f220920489ca2b5937696c31836040516114c59190611db8565b60405180910390a3505050565b600073ffffffffffffffffffffffffffffffffffffffff168473ffffffffffffffffffffffffffffffffffffffff1603611541576040517f08c379a000000000000000000000000000000000000000000000000000000000815260040161153890612c81565b60405180910390fd5b600061154b610ccd565b9050600061155885611954565b9050600061156585611954565b905061157583898985858961176d565b600080600088815260200190815260200160002060008a73ffffffffffffffffffffffffffffffffffffffff1673ffffffffffffffffffffffffffffffffffffffff1681526020019081526020016000205490508581101561160c576040517f08c379a000000000000000000000000000000000000000000000000000000000815260040161160390612d13565b60405180910390fd5b85810360008089815260200190815260200160002060008b73ffffffffffffffffffffffffffffffffffffffff1673ffffffffffffffffffffffffffffffffffffffff168152602001908152602001600020819055508560008089815260200190815260200160002060008a73ffffffffffffffffffffffffffffffffffffffff1673ffffffffffffffffffffffffffffffffffffffff16815260200190815260200160002060008282546116c19190612d33565b925050819055508773ffffffffffffffffffffffffffffffffffffffff168973ffffffffffffffffffffffffffffffffffffffff168573ffffffffffffffffffffffffffffffffffffffff167fc3d58168c5ae7397731d063d5bbf3d657854427343f4c083240f7aacaa2d0f628a8a60405161173e929190612e30565b60405180910390a4611754848a8a86868a611775565b611762848a8a8a8a8a6119ce565b505050505050505050565b505050505050565b505050505050565b61179c8473ffffffffffffffffffffffffffffffffffffffff16611ba5565b1561194c578373ffffffffffffffffffffffffffffffffffffffff1663bc197c8187878686866040518663ffffffff1660e01b81526004016117e2959493929190613269565b6020604051808303816000875af192505050801561181e57506040513d601f19601f8201168201806040525081019061181b91906132e6565b60015b6118c35761182a613320565b806308c379a003611886575061183e613342565b806118495750611888565b806040517f08c379a000000000000000000000000000000000000000000000000000000000815260040161187d9190611e90565b60405180910390fd5b505b6040517f08c379a00000000000000000000000000000000000000000000000000000000081526004016118ba90613444565b60405180910390fd5b63bc197c8160e01b7bffffffffffffffffffffffffffffffffffffffffffffffffffffffff1916817bffffffffffffffffffffffffffffffffffffffffffffffffffffffff19161461194a576040517f08c379a0000000000000000000000000000000000000000000000000000000008152600401611941906134d6565b60405180910390fd5b505b505050505050565b60606000600167ffffffffffffffff81111561197357611972611eb7565b5b6040519080825280602002602001820160405280156119a15781602001602082028036833780820191505090505b50905082816000815181106119b9576119b86129d9565b5b60200260200101818152505080915050919050565b6119ed8473ffffffffffffffffffffffffffffffffffffffff16611ba5565b15611b9d578373ffffffffffffffffffffffffffffffffffffffff1663f23a6e6187878686866040518663ffffffff1660e01b8152600401611a339594939291906134f6565b6020604051808303816000875af1925050508015611a6f57506040513d601f19601f82011682018060405250810190611a6c91906132e6565b60015b611b1457611a7b613320565b806308c379a003611ad75750611a8f613342565b80611a9a5750611ad9565b806040517f08c379a0000000000000000000000000000000000000000000000000000000008152600401611ace9190611e90565b60405180910390fd5b505b6040517f08c379a0000000000000000000000000000000000000000000000000000000008152600401611b0b90613444565b60405180910390fd5b63f23a6e6160e01b7bffffffffffffffffffffffffffffffffffffffffffffffffffffffff1916817bffffffffffffffffffffffffffffffffffffffffffffffffffffffff191614611b9b576040517f08c379a0000000000000000000000000000000000000000000000000000000008152600401611b92906134d6565b60405180910390fd5b505b505050505050565b6000808273ffffffffffffffffffffffffffffffffffffffff163b119050919050565b60405180608001604052806000815260200160008152602001600073ffffffffffffffffffffffffffffffffffffffff168152602001600081525090565b6000604051905090565b600080fd5b600080fd5b600073ffffffffffffffffffffffffffffffffffffffff82169050919050565b6000611c4582611c1a565b9050919050565b611c5581611c3a565b8114611c6057600080fd5b50565b600081359050611c7281611c4c565b92915050565b6000819050919050565b611c8b81611c78565b8114611c9657600080fd5b50565b600081359050611ca881611c82565b92915050565b60008060408385031215611cc557611cc4611c10565b5b6000611cd385828601611c63565b9250506020611ce485828601611c99565b9150509250929050565b611cf781611c78565b82525050565b6000602082019050611d126000830184611cee565b92915050565b60007fffffffff0000000000000000000000000000000000000000000000000000000082169050919050565b611d4d81611d18565b8114611d5857600080fd5b50565b600081359050611d6a81611d44565b92915050565b600060208284031215611d8657611d85611c10565b5b6000611d9484828501611d5b565b91505092915050565b60008115159050919050565b611db281611d9d565b82525050565b6000602082019050611dcd6000830184611da9565b92915050565b600060208284031215611de957611de8611c10565b5b6000611df784828501611c99565b91505092915050565b600081519050919050565b600082825260208201905092915050565b60005b83811015611e3a578082015181840152602081019050611e1f565b60008484015250505050565b6000601f19601f8301169050919050565b6000611e6282611e00565b611e6c8185611e0b565b9350611e7c818560208601611e1c565b611e8581611e46565b840191505092915050565b60006020820190508181036000830152611eaa8184611e57565b905092915050565b600080fd5b7f4e487b7100000000000000000000000000000000000000000000000000000000600052604160045260246000fd5b611eef82611e46565b810181811067ffffffffffffffff82111715611f0e57611f0d611eb7565b5b80604052505050565b6000611f21611c06565b9050611f2d8282611ee6565b919050565b600067ffffffffffffffff821115611f4d57611f4c611eb7565b5b602082029050602081019050919050565b600080fd5b6000611f76611f7184611f32565b611f17565b90508083825260208201905060208402830185811115611f9957611f98611f5e565b5b835b81811015611fc25780611fae8882611c99565b845260208401935050602081019050611f9b565b5050509392505050565b600082601f830112611fe157611fe0611eb2565b5b8135611ff1848260208601611f63565b91505092915050565b600080fd5b600067ffffffffffffffff82111561201a57612019611eb7565b5b61202382611e46565b9050602081019050919050565b82818337600083830152505050565b600061205261204d84611fff565b611f17565b90508281526020810184848401111561206e5761206d611ffa565b5b612079848285612030565b509392505050565b600082601f83011261209657612095611eb2565b5b81356120a684826020860161203f565b91505092915050565b600080600080600060a086880312156120cb576120ca611c10565b5b60006120d988828901611c63565b95505060206120ea88828901611c63565b945050604086013567ffffffffffffffff81111561210b5761210a611c15565b5b61211788828901611fcc565b935050606086013567ffffffffffffffff81111561213857612137611c15565b5b61214488828901611fcc565b925050608086013567ffffffffffffffff81111561216557612164611c15565b5b61217188828901612081565b9150509295509295909350565b61218781611c78565b82525050565b61219681611c3a565b82525050565b6080820160008201516121b2600085018261217e565b5060208201516121c5602085018261217e565b5060408201516121d8604085018261218d565b5060608201516121eb606085018261217e565b50505050565b6000608082019050612206600083018461219c565b92915050565b600067ffffffffffffffff82111561222757612226611eb7565b5b61223082611e46565b9050602081019050919050565b600061225061224b8461220c565b611f17565b90508281526020810184848401111561226c5761226b611ffa565b5b612277848285612030565b509392505050565b600082601f83011261229457612293611eb2565b5b81356122a484826020860161223d565b91505092915050565b6000602082840312156122c3576122c2611c10565b5b600082013567ffffffffffffffff8111156122e1576122e0611c15565b5b6122ed8482850161227f565b91505092915050565b600067ffffffffffffffff82111561231157612310611eb7565b5b602082029050602081019050919050565b6000612335612330846122f6565b611f17565b9050808382526020820190506020840283018581111561235857612357611f5e565b5b835b81811015612381578061236d8882611c63565b84526020840193505060208101905061235a565b5050509392505050565b600082601f8301126123a05761239f611eb2565b5b81356123b0848260208601612322565b91505092915050565b600080604083850312156123d0576123cf611c10565b5b600083013567ffffffffffffffff8111156123ee576123ed611c15565b5b6123fa8582860161238b565b925050602083013567ffffffffffffffff81111561241b5761241a611c15565b5b61242785828601611fcc565b9150509250929050565b600081519050919050565b600082825260208201905092915050565b6000819050602082019050919050565b6000612469838361217e565b60208301905092915050565b6000602082019050919050565b600061248d82612431565b612497818561243c565b93506124a28361244d565b8060005b838110156124d35781516124ba888261245d565b97506124c583612475565b9250506001810190506124a6565b5085935050505092915050565b600060208201905081810360008301526124fa8184612482565b905092915050565b60008060006060848603121561251b5761251a611c10565b5b600084013567ffffffffffffffff81111561253957612538611c15565b5b6125458682870161227f565b935050602061255686828701611c99565b925050604061256786828701611c99565b9150509250925092565b61257a81611d9d565b811461258557600080fd5b50565b60008135905061259781612571565b92915050565b600080604083850312156125b4576125b3611c10565b5b60006125c285828601611c63565b92505060206125d385828601612588565b9150509250929050565b600080604083850312156125f4576125f3611c10565b5b600061260285828601611c63565b925050602061261385828601611c63565b9150509250929050565b600080600080600060a0868803121561263957612638611c10565b5b600061264788828901611c63565b955050602061265888828901611c63565b945050604061266988828901611c99565b935050606061267a88828901611c99565b925050608086013567ffffffffffffffff81111561269b5761269a611c15565b5b6126a788828901612081565b9150509295509295909350565b7f455243313135353a2061646472657373207a65726f206973206e6f742061207660008201527f616c6964206f776e657200000000000000000000000000000000000000000000602082015250565b6000612710602a83611e0b565b915061271b826126b4565b604082019050919050565b6000602082019050818103600083015261273f81612703565b9050919050565b7f4e487b7100000000000000000000000000000000000000000000000000000000600052602260045260246000fd5b6000600282049050600182168061278d57607f821691505b6020821081036127a05761279f612746565b5b50919050565b600081905092915050565b60008190508160005260206000209050919050565b600081546127d381612775565b6127dd81866127a6565b945060018216600081146127f8576001811461280d57612840565b60ff1983168652811515820286019350612840565b612816856127b1565b60005b8381101561283857815481890152600182019150602081019050612819565b838801955050505b50505092915050565b600061285482611e00565b61285e81856127a6565b935061286e818560208601611e1c565b80840191505092915050565b600061288682856127c6565b91506128928284612849565b91508190509392505050565b7f455243313135353a2063616c6c6572206973206e6f7420746f6b656e206f776e60008201527f6572206f7220617070726f766564000000000000000000000000000000000000602082015250565b60006128fa602e83611e0b565b91506129058261289e565b604082019050919050565b60006020820190508181036000830152612929816128ed565b9050919050565b600061293c8284612849565b915081905092915050565b7f455243313135353a206163636f756e747320616e6420696473206c656e67746860008201527f206d69736d617463680000000000000000000000000000000000000000000000602082015250565b60006129a3602983611e0b565b91506129ae82612947565b604082019050919050565b600060208201905081810360008301526129d281612996565b9050919050565b7f4e487b7100000000000000000000000000000000000000000000000000000000600052603260045260246000fd5b7f4e487b7100000000000000000000000000000000000000000000000000000000600052601160045260246000fd5b6000612a4282611c78565b91507fffffffffffffffffffffffffffffffffffffffffffffffffffffffffffffffff8203612a7457612a73612a08565b5b600182019050919050565b7f546f6b656e2055524920616c7265616479206578697374730000000000000000600082015250565b6000612ab5601883611e0b565b9150612ac082612a7f565b602082019050919050565b60006020820190508181036000830152612ae481612aa8565b9050919050565b7f5072696365206d75737420626520657175616c20746f206c697374696e67207060008201527f7269636500000000000000000000000000000000000000000000000000000000602082015250565b6000612b47602483611e0b565b9150612b5282612aeb565b604082019050919050565b60006020820190508181036000830152612b7681612b3a565b9050919050565b7f455243313135353a2069647320616e6420616d6f756e7473206c656e6774682060008201527f6d69736d61746368000000000000000000000000000000000000000000000000602082015250565b6000612bd9602883611e0b565b9150612be482612b7d565b604082019050919050565b60006020820190508181036000830152612c0881612bcc565b9050919050565b7f455243313135353a207472616e7366657220746f20746865207a65726f20616460008201527f6472657373000000000000000000000000000000000000000000000000000000602082015250565b6000612c6b602583611e0b565b9150612c7682612c0f565b604082019050919050565b60006020820190508181036000830152612c9a81612c5e565b9050919050565b7f455243313135353a20696e73756666696369656e742062616c616e636520666f60008201527f72207472616e7366657200000000000000000000000000000000000000000000602082015250565b6000612cfd602a83611e0b565b9150612d0882612ca1565b604082019050919050565b60006020820190508181036000830152612d2c81612cf0565b9050919050565b6000612d3e82611c78565b9150612d4983611c78565b9250828201905080821115612d6157612d60612a08565b5b92915050565b60006040820190508181036000830152612d818185612482565b90508181036020830152612d958184612482565b90509392505050565b7f455243313135353a206d696e7420746f20746865207a65726f2061646472657360008201527f7300000000000000000000000000000000000000000000000000000000000000602082015250565b6000612dfa602183611e0b565b9150612e0582612d9e565b604082019050919050565b60006020820190508181036000830152612e2981612ded565b9050919050565b6000604082019050612e456000830185611cee565b612e526020830184611cee565b9392505050565b60006020601f8301049050919050565b600082821b905092915050565b600060088302612ea67fffffffffffffffffffffffffffffffffffffffffffffffffffffffffffffffff82612e69565b612eb08683612e69565b95508019841693508086168417925050509392505050565b6000819050919050565b6000612eed612ee8612ee384611c78565b612ec8565b611c78565b9050919050565b6000819050919050565b612f0783612ed2565b612f1b612f1382612ef4565b848454612e76565b825550505050565b600090565b612f30612f23565b612f3b818484612efe565b505050565b5b81811015612f5f57612f54600082612f28565b600181019050612f41565b5050565b601f821115612fa457612f75816127b1565b612f7e84612e59565b81016020851015612f8d578190505b612fa1612f9985612e59565b830182612f40565b50505b505050565b600082821c905092915050565b6000612fc760001984600802612fa9565b1980831691505092915050565b6000612fe08383612fb6565b9150826002028217905092915050565b612ff982611e00565b67ffffffffffffffff81111561301257613011611eb7565b5b61301c8254612775565b613027828285612f63565b600060209050601f83116001811461305a5760008415613048578287015190505b6130528582612fd4565b8655506130ba565b601f198416613068866127b1565b60005b828110156130905784890151825560018201915060208501945060208101905061306b565b868310156130ad57848901516130a9601f891682612fb6565b8355505b6001600288020188555050505b505050505050565b7f5072696365206d757374206265206174206c6561737420312077656900000000600082015250565b60006130f8601c83611e0b565b9150613103826130c2565b602082019050919050565b60006020820190508181036000830152613127816130eb565b9050919050565b61313781611c3a565b82525050565b60006080820190506131526000830187611cee565b61315f6020830186611cee565b61316c604083018561312e565b6131796060830184611cee565b95945050505050565b7f455243313135353a2073657474696e6720617070726f76616c2073746174757360008201527f20666f722073656c660000000000000000000000000000000000000000000000602082015250565b60006131de602983611e0b565b91506131e982613182565b604082019050919050565b6000602082019050818103600083015261320d816131d1565b9050919050565b600081519050919050565b600082825260208201905092915050565b600061323b82613214565b613245818561321f565b9350613255818560208601611e1c565b61325e81611e46565b840191505092915050565b600060a08201905061327e600083018861312e565b61328b602083018761312e565b818103604083015261329d8186612482565b905081810360608301526132b18185612482565b905081810360808301526132c58184613230565b90509695505050505050565b6000815190506132e081611d44565b92915050565b6000602082840312156132fc576132fb611c10565b5b600061330a848285016132d1565b91505092915050565b60008160e01c9050919050565b600060033d111561333f5760046000803e61333c600051613313565b90505b90565b600060443d106133cf57613354611c06565b60043d036004823e80513d602482011167ffffffffffffffff8211171561337c5750506133cf565b808201805167ffffffffffffffff81111561339a57505050506133cf565b80602083010160043d0385018111156133b75750505050506133cf565b6133c682602001850186611ee6565b82955050505050505b90565b7f455243313135353a207472616e7366657220746f206e6f6e2d4552433131353560008201527f526563656976657220696d706c656d656e746572000000000000000000000000602082015250565b600061342e603483611e0b565b9150613439826133d2565b604082019050919050565b6000602082019050818103600083015261345d81613421565b9050919050565b7f455243313135353a204552433131353552656365697665722072656a6563746560008201527f6420746f6b656e73000000000000000000000000000000000000000000000000602082015250565b60006134c0602883611e0b565b91506134cb82613464565b604082019050919050565b600060208201905081810360008301526134ef816134b3565b9050919050565b600060a08201905061350b600083018861312e565b613518602083018761312e565b6135256040830186611cee565b6135326060830185611cee565b81810360808301526135448184613230565b9050969550505050505056fea26469706673582212209e6e263355fa8c3df231b2cde2f050b4a5297da556b8281ce0b1cf01e39a6e0d64736f6c6343000811003368747470733a2f2f6578616d706c652e636f6d2f6170692f7b69647d2e6a736f6e",
  "immutableReferences": {},
  "source": "pragma solidity >=0.4.22 <0.9.0;\r\nimport \"@openzeppelin/contracts/token/ERC1155/extensions/ERC1155URIStorage.sol\";\r\nimport \"@openzeppelin/contracts/utils/Counters.sol\";\r\n\r\ncontract BookStore is ERC1155URIStorage {\r\n  using Counters for Counters.Counter;\r\n\r\n  struct BookVersion {\r\n    uint256 tokenId;\r\n    uint256 price;\r\n    address author;\r\n    uint256 quantity;\r\n  }\r\n\r\n  event BookVersionCreated (\r\n    uint256 tokenId,\r\n    uint256 price,\r\n    address author,\r\n    uint256 quantity\r\n  );\r\n\r\n  uint public listingPrice = 0.025 ether;\r\n  Counters.Counter private _listedItems;\r\n  Counters.Counter private _bookVersionIds;\r\n\r\n  mapping(uint256 => BookVersion) private _idToBookVersion;\r\n  mapping(string => bool) private _usedTokenURIs;\r\n\r\n  constructor() ERC1155(\"https://example.com/api/{id}.json\") {\r\n  }\r\n\r\n  function getBookVersion(uint bookVersionId) public view returns (BookVersion memory) {\r\n    return _idToBookVersion[bookVersionId];\r\n  }\r\n\r\n  function listedItemsCount() public view returns (uint) {\r\n    return _listedItems.current();\r\n  }\r\n\r\n  function tokenURIExists(string memory tokenURI) public view returns (bool) {\r\n    return _usedTokenURIs[tokenURI] == true;\r\n  }\r\n\r\n  function publish(string memory tokenURI, uint256 _price, uint256 _quantity)  public payable returns (uint) {\r\n    require(!tokenURIExists(tokenURI), \"Token URI already exists\");\r\n    require(msg.value == listingPrice, \"Price must be equal to listing price\");\r\n\r\n    _bookVersionIds.increment();\r\n    _listedItems.increment();\r\n\r\n    uint newTokenId = _bookVersionIds.current();\r\n\r\n    _mint(msg.sender, newTokenId, _quantity, \"\");\r\n\r\n    _idToBookVersion[newTokenId] = BookVersion(newTokenId, _price, msg.sender, _quantity);\r\n\r\n    _setURI(newTokenId, tokenURI);\r\n    _createBookVersion(newTokenId, _price, _quantity);\r\n    _usedTokenURIs[tokenURI] = true;\r\n\r\n    return newTokenId;\r\n  }\r\n\r\n  function _createBookVersion(\r\n    uint tokenId,\r\n    uint price,\r\n    uint256 quantity\r\n  ) private {\r\n    require(price > 0, \"Price must be at least 1 wei\");\r\n\r\n    _idToBookVersion[tokenId] = BookVersion(\r\n      tokenId,\r\n      price,\r\n      msg.sender,\r\n      quantity\r\n    );\r\n\r\n    emit BookVersionCreated(tokenId, price, msg.sender, quantity);\r\n  }\r\n}",
  "sourcePath": "D:\\DO_AN_TOT_NGHIEP\\project\\nft-bookstore\\contracts\\BookStore.sol",
  "compiler": {
    "name": "solc",
    "version": "0.8.17+commit.8df45f5f.Emscripten.clang"
  },
  "schemaVersion": "3.4.11",
  "updatedAt": "2023-02-08T14:14:58.184Z",
  "devdoc": {
    "kind": "dev",
    "methods": {
      "balanceOf(address,uint256)": {
        "details": "See {IERC1155-balanceOf}. Requirements: - `account` cannot be the zero address."
      },
      "balanceOfBatch(address[],uint256[])": {
        "details": "See {IERC1155-balanceOfBatch}. Requirements: - `accounts` and `ids` must have the same length."
      },
      "isApprovedForAll(address,address)": {
        "details": "See {IERC1155-isApprovedForAll}."
      },
      "safeBatchTransferFrom(address,address,uint256[],uint256[],bytes)": {
        "details": "See {IERC1155-safeBatchTransferFrom}."
      },
      "safeTransferFrom(address,address,uint256,uint256,bytes)": {
        "details": "See {IERC1155-safeTransferFrom}."
      },
      "setApprovalForAll(address,bool)": {
        "details": "See {IERC1155-setApprovalForAll}."
      },
      "supportsInterface(bytes4)": {
        "details": "See {IERC165-supportsInterface}."
      },
      "uri(uint256)": {
        "details": "See {IERC1155MetadataURI-uri}. This implementation returns the concatenation of the `_baseURI` and the token-specific uri if the latter is set This enables the following behaviors: - if `_tokenURIs[tokenId]` is set, then the result is the concatenation   of `_baseURI` and `_tokenURIs[tokenId]` (keep in mind that `_baseURI`   is empty per default); - if `_tokenURIs[tokenId]` is NOT set then we fallback to `super.uri()`   which in most cases will contain `ERC1155._uri`; - if `_tokenURIs[tokenId]` is NOT set, and if the parents do not have a   uri value set, then the result is empty."
      }
    },
    "version": 1
  },
  "userdoc": {
    "kind": "user",
    "methods": {},
    "version": 1
  }
}