{
  "contractName": "BookTemporary",
  "abi": [
    {
      "inputs": [
        {
          "internalType": "contract BookRentingStorage",
          "name": "bookRentingStorage",
          "type": "address"
        },
        {
          "internalType": "contract BookSharingStorage",
          "name": "bookSharingStorage",
          "type": "address"
        }
      ],
      "stateMutability": "nonpayable",
      "type": "constructor"
    },
    {
      "inputs": [
        {
          "internalType": "address",
          "name": "",
          "type": "address"
        }
      ],
      "name": "InvalidAddressError",
      "type": "error"
    },
    {
      "inputs": [
        {
          "internalType": "uint256",
          "name": "",
          "type": "uint256"
        }
      ],
      "name": "InvalidAmountError",
      "type": "error"
    },
    {
      "inputs": [
        {
          "internalType": "uint256",
          "name": "",
          "type": "uint256"
        }
      ],
      "name": "InvalidPriceError",
      "type": "error"
    },
    {
      "inputs": [],
      "name": "convertPrice",
      "outputs": [
        {
          "internalType": "uint256",
          "name": "",
          "type": "uint256"
        }
      ],
      "stateMutability": "view",
      "type": "function",
      "constant": true
    },
    {
      "inputs": [],
      "name": "getBookRentingStorage",
      "outputs": [
        {
          "internalType": "contract BookRentingStorage",
          "name": "",
          "type": "address"
        }
      ],
      "stateMutability": "view",
      "type": "function",
      "constant": true
    },
    {
      "inputs": [],
      "name": "getBookSharingStorage",
      "outputs": [
        {
          "internalType": "contract BookSharingStorage",
          "name": "",
          "type": "address"
        }
      ],
      "stateMutability": "view",
      "type": "function",
      "constant": true
    },
    {
      "inputs": [
        {
          "internalType": "uint256",
          "name": "tokenId",
          "type": "uint256"
        },
        {
          "internalType": "address",
          "name": "owner",
          "type": "address"
        }
      ],
      "name": "getAmountOfAllTypeBooksInTemporary",
      "outputs": [
        {
          "internalType": "uint256",
          "name": "",
          "type": "uint256"
        }
      ],
      "stateMutability": "view",
      "type": "function",
      "constant": true
    },
    {
      "inputs": [
        {
          "internalType": "uint256",
          "name": "tokenId",
          "type": "uint256"
        },
        {
          "internalType": "address",
          "name": "owner",
          "type": "address"
        }
      ],
      "name": "getAmountOfUnsalableBooksInTemporary",
      "outputs": [
        {
          "internalType": "uint256",
          "name": "",
          "type": "uint256"
        }
      ],
      "stateMutability": "view",
      "type": "function",
      "constant": true
    },
    {
      "inputs": [
        {
          "internalType": "uint256",
          "name": "idBookOnSharing",
          "type": "uint256"
        },
        {
          "internalType": "uint256",
          "name": "amount",
          "type": "uint256"
        }
      ],
      "name": "convertBookOnSharingToBorrowedBook",
      "outputs": [],
      "stateMutability": "payable",
      "type": "function",
      "payable": true
    }
  ],
  "bytecode": "0x608060405265048c2739500060025534801561001a57600080fd5b50604051610b27380380610b2783398101604081905261003991610082565b600080546001600160a01b039384166001600160a01b031991821617909155600180549290931691161790556100bc565b6001600160a01b038116811461007f57600080fd5b50565b6000806040838503121561009557600080fd5b82516100a08161006a565b60208401519092506100b18161006a565b809150509250929050565b610a5c806100cb6000396000f3fe6080604052600436106100555760003560e01c8063521f54181461005a5780637c2f25f31461008d5780638c8e2033146100a2578063a943f98f146100b8578063bc20efc5146100df578063defec467146100fd575b600080fd5b34801561006657600080fd5b5061007a61007536600461084d565b61011d565b6040519081526020015b60405180910390f35b6100a061009b36600461087d565b610311565b005b3480156100ae57600080fd5b5061007a60025481565b3480156100c457600080fd5b506000546001600160a01b03165b604051610084919061089f565b3480156100eb57600080fd5b506001546001600160a01b03166100d2565b34801561010957600080fd5b5061007a61011836600461084d565b6106db565b60008054604051635681a2cb60e11b81526001600160a01b039091169063ad0345969061015090869086906004016108b3565b602060405180830381865afa15801561016d573d6000803e3d6000fd5b505050506040513d601f19601f8201168201806040525081019061019191906108ca565b600154604051638ad24dbb60e01b81526001600160a01b0390911690638ad24dbb906101c390879087906004016108b3565b602060405180830381865afa1580156101e0573d6000803e3d6000fd5b505050506040513d601f19601f8201168201806040525081019061020491906108ca565b600154604051630ce4959560e21b81526001600160a01b039091169063339256549061023690889088906004016108b3565b602060405180830381865afa158015610253573d6000803e3d6000fd5b505050506040513d601f19601f8201168201806040525081019061027791906108ca565b6000546040516369020cf960e11b81526001600160a01b039091169063d20419f2906102a990899089906004016108b3565b602060405180830381865afa1580156102c6573d6000803e3d6000fd5b505050506040513d601f19601f820116820180604052508101906102ea91906108ca565b6102f491906108f9565b6102fe91906108f9565b61030891906108f9565b90505b92915050565b600254341461033a5760405163713bd66960e01b81523460048201526024015b60405180910390fd5b60015460405163c0a6417160e01b8152600481018490526000916001600160a01b03169063c0a641719060240161012060405180830381865afa158015610385573d6000803e3d6000fd5b505050506040513d601f19601f820116820180604052508101906103a99190610954565b60408101519091506001600160a01b031633146103db5733604051633992dcbd60e21b8152600401610331919061089f565b818160c0015110156104035760405163099f49a360e11b815260048101839052602401610331565b8060c001518203610490576001548151602083015160408085015160e08601516101008701519251635c89ea5d60e11b81526001600160a01b039096169563b913d4ba95610459959094909392916004016109e4565b600060405180830381600087803b15801561047357600080fd5b505af1158015610487573d6000803e3d6000fd5b50505050610534565b600154815160a083015160c08401516001600160a01b0390931692639c48c1b392879233926104c0908990610a13565b6040516001600160e01b031960e088901b16815260048101959095526001600160a01b03909316602485015260448401919091526064830152608482015260a401600060405180830381600087803b15801561051b57600080fd5b505af115801561052f573d6000803e3d6000fd5b505050505b600080548251602084015160e08501516101008601516040516301e4faa160e31b81526001600160a01b0390951694630f27d5089461057b949093909233926004016109e4565b602060405180830381865afa158015610598573d6000803e3d6000fd5b505050506040513d601f19601f820116820180604052508101906105bc91906108ca565b9050806000036106685760005482516020840151608085015160e086015161010087015160405163d5cb4efb60e01b815260048101959095526001600160a01b039384166024860152604485019290925260648401889052608484015260a48301523360c48301529091169063d5cb4efb9060e401600060405180830381600087803b15801561064b57600080fd5b505af115801561065f573d6000803e3d6000fd5b505050506106d5565b60008054604051631a43551f60e11b8152600481018490526024810186905260448101929092526001600160a01b031690633486aa3e90606401600060405180830381600087803b1580156106bc57600080fd5b505af11580156106d0573d6000803e3d6000fd5b505050505b50505050565b60008054604051635681a2cb60e11b81526001600160a01b039091169063ad0345969061070e90869086906004016108b3565b602060405180830381865afa15801561072b573d6000803e3d6000fd5b505050506040513d601f19601f8201168201806040525081019061074f91906108ca565b600154604051638ad24dbb60e01b81526001600160a01b0390911690638ad24dbb9061078190879087906004016108b3565b602060405180830381865afa15801561079e573d6000803e3d6000fd5b505050506040513d601f19601f820116820180604052508101906107c291906108ca565b600154604051630ce4959560e21b81526001600160a01b03909116906333925654906107f490889088906004016108b3565b602060405180830381865afa158015610811573d6000803e3d6000fd5b505050506040513d601f19601f820116820180604052508101906102f491906108ca565b6001600160a01b038116811461084a57600080fd5b50565b6000806040838503121561086057600080fd5b82359150602083013561087281610835565b809150509250929050565b6000806040838503121561089057600080fd5b50508035926020909101359150565b6001600160a01b0391909116815260200190565b9182526001600160a01b0316602082015260400190565b6000602082840312156108dc57600080fd5b5051919050565b634e487b7160e01b600052601160045260246000fd5b8082018082111561030b5761030b6108e3565b604051610120810167ffffffffffffffff8111828210171561093e57634e487b7160e01b600052604160045260246000fd5b60405290565b805161094f81610835565b919050565b6000610120828403121561096757600080fd5b61096f61090c565b8251815261097f60208401610944565b602082015261099060408401610944565b60408201526109a160608401610944565b60608201526080830151608082015260a083015160a082015260c083015160c082015260e083015160e08201526101008084015181830152508091505092915050565b9485526001600160a01b0393841660208601529190921660408401526060830191909152608082015260a00190565b8181038181111561030b5761030b6108e356fea2646970667358221220140591987ea69a8efd18da96ecd01e09a745ef032ddbb6906ce23b3d5f1cc38864736f6c63430008110033",
  "immutableReferences": {},
  "source": "// SPDX-License-Identifier: MIT\r\npragma solidity >=0.4.22 <0.9.0;\r\nimport \"./utils/Error.sol\";\r\nimport \"./rent/BookRentingStorage.sol\";\r\nimport \"./share/BookSharingStorage.sol\";\r\n\r\ncontract BookTemporary {\r\n  BookRentingStorage private _bookRentingStorage;\r\n  BookSharingStorage private _bookSharingStorage;\r\n  uint public convertPrice = 0.000005 ether;\r\n\r\n  constructor(\r\n    BookRentingStorage bookRentingStorage,\r\n    BookSharingStorage bookSharingStorage\r\n  ) {\r\n    _bookRentingStorage = bookRentingStorage;\r\n    _bookSharingStorage = bookSharingStorage;\r\n  }\r\n\r\n  function getBookRentingStorage() public view returns (BookRentingStorage) {\r\n    return _bookRentingStorage;\r\n  }\r\n\r\n  function getBookSharingStorage() public view returns (BookSharingStorage) {\r\n    return _bookSharingStorage;\r\n  }\r\n\r\n  function getAmountOfAllTypeBooksInTemporary(\r\n    uint256 tokenId,\r\n    address owner\r\n  ) public view returns (uint) {\r\n    return\r\n      _bookRentingStorage.getAmountOfLendBooks(tokenId, owner) +\r\n      _bookSharingStorage.getAmountOfAllSharedBooks(tokenId, owner) +\r\n      _bookSharingStorage.getAmountOfAllBooksOnSharing(tokenId, owner) +\r\n      _bookRentingStorage.getAmountOfBorrowedBooks(tokenId, owner);\r\n  }\r\n\r\n  function getAmountOfUnsalableBooksInTemporary(\r\n    uint256 tokenId,\r\n    address owner\r\n  ) public view returns (uint) {\r\n    return\r\n      _bookSharingStorage.getAmountOfAllSharedBooks(tokenId, owner) +\r\n      _bookSharingStorage.getAmountOfAllBooksOnSharing(tokenId, owner) +\r\n      _bookRentingStorage.getAmountOfBorrowedBooks(tokenId, owner);\r\n  }\r\n\r\n  function convertBookOnSharingToBorrowedBook(\r\n    uint idBookOnSharing,\r\n    uint amount\r\n  ) public payable {\r\n    if (msg.value != convertPrice) {\r\n      revert Error.InvalidPriceError(msg.value);\r\n    }\r\n    BookSharingStorage.BookSharing memory booksOnSharing = _bookSharingStorage\r\n      .getBooksOnSharing(idBookOnSharing);\r\n\r\n    if (booksOnSharing.sharer != msg.sender) {\r\n      revert Error.InvalidAddressError(msg.sender);\r\n    }\r\n    if (booksOnSharing.amount < amount) {\r\n      revert Error.InvalidAmountError(amount);\r\n    }\r\n\r\n    if (amount == booksOnSharing.amount) {\r\n      _bookSharingStorage.removeBooksOnSharing(\r\n        booksOnSharing.tokenId,\r\n        booksOnSharing.fromRenter,\r\n        booksOnSharing.sharer,\r\n        booksOnSharing.startTime,\r\n        booksOnSharing.endTime\r\n      );\r\n    } else {\r\n      _bookSharingStorage.updateBooksOnSharing(\r\n        idBookOnSharing,\r\n        msg.sender,\r\n        booksOnSharing.tokenId,\r\n        booksOnSharing.price,\r\n        booksOnSharing.amount - amount\r\n      );\r\n    }\r\n\r\n    uint idBorrowedBook = _bookRentingStorage.getIdBorrowedBook(\r\n      booksOnSharing.tokenId,\r\n      booksOnSharing.fromRenter,\r\n      msg.sender,\r\n      booksOnSharing.startTime,\r\n      booksOnSharing.endTime\r\n    );\r\n    if (idBorrowedBook == 0) {\r\n      _bookRentingStorage.createBorrowedBook(\r\n        booksOnSharing.tokenId,\r\n        booksOnSharing.fromRenter,\r\n        booksOnSharing.priceOfBB,\r\n        amount,\r\n        booksOnSharing.startTime,\r\n        booksOnSharing.endTime,\r\n        msg.sender\r\n      );\r\n    } else {\r\n      _bookRentingStorage.updateAmountBorrowedBookFromBorrowing(\r\n        idBorrowedBook,\r\n        amount,\r\n        false\r\n      );\r\n    }\r\n  }\r\n}\r\n",
  "sourcePath": "D:\\HCMUS_Nam4_HocKi1\\04_DoAnTotNghiep\\nft-bookstore-development\\nft-bookstore\\contracts\\BookTemporary.sol",
  "compiler": {
    "name": "solc",
    "version": "0.8.17+commit.8df45f5f.Emscripten.clang"
  },
  "schemaVersion": "3.4.12",
  "updatedAt": "2023-06-03T14:12:37.001Z",
  "networkType": "ethereum",
  "devdoc": {
    "kind": "dev",
    "methods": {},
    "version": 1
  },
  "userdoc": {
    "kind": "user",
    "methods": {},
    "version": 1
  }
}