{
  "contractName": "BookStore",
  "abi": [
    {
      "inputs": [
        {
          "internalType": "contract ListedBookStorage",
          "name": "listedBookStorage",
          "type": "address"
        },
        {
          "internalType": "contract RentedBookStorage",
          "name": "rentedBookStorage",
          "type": "address"
        }
      ],
      "stateMutability": "nonpayable",
      "type": "constructor"
    },
    {
      "anonymous": false,
      "inputs": [
        {
          "indexed": true,
          "internalType": "address",
          "name": "account",
          "type": "address"
        },
        {
          "indexed": true,
          "internalType": "address",
          "name": "operator",
          "type": "address"
        },
        {
          "indexed": false,
          "internalType": "bool",
          "name": "approved",
          "type": "bool"
        }
      ],
      "name": "ApprovalForAll",
      "type": "event"
    },
    {
      "anonymous": false,
      "inputs": [
        {
          "indexed": false,
          "internalType": "uint256",
          "name": "tokenId",
          "type": "uint256"
        },
        {
          "indexed": false,
          "internalType": "address",
          "name": "author",
          "type": "address"
        },
        {
          "indexed": false,
          "internalType": "uint256",
          "name": "balance",
          "type": "uint256"
        }
      ],
      "name": "NFTBookCreated",
      "type": "event"
    },
    {
      "anonymous": false,
      "inputs": [
        {
          "indexed": true,
          "internalType": "address",
          "name": "previousOwner",
          "type": "address"
        },
        {
          "indexed": true,
          "internalType": "address",
          "name": "newOwner",
          "type": "address"
        }
      ],
      "name": "OwnershipTransferred",
      "type": "event"
    },
    {
      "anonymous": false,
      "inputs": [
        {
          "indexed": true,
          "internalType": "address",
          "name": "operator",
          "type": "address"
        },
        {
          "indexed": true,
          "internalType": "address",
          "name": "from",
          "type": "address"
        },
        {
          "indexed": true,
          "internalType": "address",
          "name": "to",
          "type": "address"
        },
        {
          "indexed": false,
          "internalType": "uint256[]",
          "name": "ids",
          "type": "uint256[]"
        },
        {
          "indexed": false,
          "internalType": "uint256[]",
          "name": "values",
          "type": "uint256[]"
        }
      ],
      "name": "TransferBatch",
      "type": "event"
    },
    {
      "anonymous": false,
      "inputs": [
        {
          "indexed": true,
          "internalType": "address",
          "name": "operator",
          "type": "address"
        },
        {
          "indexed": true,
          "internalType": "address",
          "name": "from",
          "type": "address"
        },
        {
          "indexed": true,
          "internalType": "address",
          "name": "to",
          "type": "address"
        },
        {
          "indexed": false,
          "internalType": "uint256",
          "name": "id",
          "type": "uint256"
        },
        {
          "indexed": false,
          "internalType": "uint256",
          "name": "value",
          "type": "uint256"
        }
      ],
      "name": "TransferSingle",
      "type": "event"
    },
    {
      "anonymous": false,
      "inputs": [
        {
          "indexed": false,
          "internalType": "string",
          "name": "value",
          "type": "string"
        },
        {
          "indexed": true,
          "internalType": "uint256",
          "name": "id",
          "type": "uint256"
        }
      ],
      "name": "URI",
      "type": "event"
    },
    {
      "inputs": [
        {
          "internalType": "address",
          "name": "account",
          "type": "address"
        },
        {
          "internalType": "uint256",
          "name": "id",
          "type": "uint256"
        }
      ],
      "name": "balanceOf",
      "outputs": [
        {
          "internalType": "uint256",
          "name": "",
          "type": "uint256"
        }
      ],
      "stateMutability": "view",
      "type": "function",
      "constant": true
    },
    {
      "inputs": [
        {
          "internalType": "address[]",
          "name": "accounts",
          "type": "address[]"
        },
        {
          "internalType": "uint256[]",
          "name": "ids",
          "type": "uint256[]"
        }
      ],
      "name": "balanceOfBatch",
      "outputs": [
        {
          "internalType": "uint256[]",
          "name": "",
          "type": "uint256[]"
        }
      ],
      "stateMutability": "view",
      "type": "function",
      "constant": true
    },
    {
      "inputs": [
        {
          "internalType": "address",
          "name": "account",
          "type": "address"
        },
        {
          "internalType": "address",
          "name": "operator",
          "type": "address"
        }
      ],
      "name": "isApprovedForAll",
      "outputs": [
        {
          "internalType": "bool",
          "name": "",
          "type": "bool"
        }
      ],
      "stateMutability": "view",
      "type": "function",
      "constant": true
    },
    {
      "inputs": [],
      "name": "listingPrice",
      "outputs": [
        {
          "internalType": "uint256",
          "name": "",
          "type": "uint256"
        }
      ],
      "stateMutability": "view",
      "type": "function",
      "constant": true
    },
    {
      "inputs": [],
      "name": "owner",
      "outputs": [
        {
          "internalType": "address",
          "name": "",
          "type": "address"
        }
      ],
      "stateMutability": "view",
      "type": "function",
      "constant": true
    },
    {
      "inputs": [],
      "name": "renounceOwnership",
      "outputs": [],
      "stateMutability": "nonpayable",
      "type": "function"
    },
    {
      "inputs": [],
      "name": "rentingPrice",
      "outputs": [
        {
          "internalType": "uint256",
          "name": "",
          "type": "uint256"
        }
      ],
      "stateMutability": "view",
      "type": "function",
      "constant": true
    },
    {
      "inputs": [
        {
          "internalType": "address",
          "name": "from",
          "type": "address"
        },
        {
          "internalType": "address",
          "name": "to",
          "type": "address"
        },
        {
          "internalType": "uint256[]",
          "name": "ids",
          "type": "uint256[]"
        },
        {
          "internalType": "uint256[]",
          "name": "amounts",
          "type": "uint256[]"
        },
        {
          "internalType": "bytes",
          "name": "data",
          "type": "bytes"
        }
      ],
      "name": "safeBatchTransferFrom",
      "outputs": [],
      "stateMutability": "nonpayable",
      "type": "function"
    },
    {
      "inputs": [
        {
          "internalType": "address",
          "name": "from",
          "type": "address"
        },
        {
          "internalType": "address",
          "name": "to",
          "type": "address"
        },
        {
          "internalType": "uint256",
          "name": "id",
          "type": "uint256"
        },
        {
          "internalType": "uint256",
          "name": "amount",
          "type": "uint256"
        },
        {
          "internalType": "bytes",
          "name": "data",
          "type": "bytes"
        }
      ],
      "name": "safeTransferFrom",
      "outputs": [],
      "stateMutability": "nonpayable",
      "type": "function"
    },
    {
      "inputs": [
        {
          "internalType": "address",
          "name": "operator",
          "type": "address"
        },
        {
          "internalType": "bool",
          "name": "approved",
          "type": "bool"
        }
      ],
      "name": "setApprovalForAll",
      "outputs": [],
      "stateMutability": "nonpayable",
      "type": "function"
    },
    {
      "inputs": [
        {
          "internalType": "bytes4",
          "name": "interfaceId",
          "type": "bytes4"
        }
      ],
      "name": "supportsInterface",
      "outputs": [
        {
          "internalType": "bool",
          "name": "",
          "type": "bool"
        }
      ],
      "stateMutability": "view",
      "type": "function",
      "constant": true
    },
    {
      "inputs": [
        {
          "internalType": "address",
          "name": "newOwner",
          "type": "address"
        }
      ],
      "name": "transferOwnership",
      "outputs": [],
      "stateMutability": "nonpayable",
      "type": "function"
    },
    {
      "inputs": [
        {
          "internalType": "uint256",
          "name": "tokenId",
          "type": "uint256"
        }
      ],
      "name": "uri",
      "outputs": [
        {
          "internalType": "string",
          "name": "",
          "type": "string"
        }
      ],
      "stateMutability": "view",
      "type": "function",
      "constant": true
    },
    {
      "inputs": [
        {
          "internalType": "uint256",
          "name": "newPrice",
          "type": "uint256"
        }
      ],
      "name": "setListingPrice",
      "outputs": [],
      "stateMutability": "nonpayable",
      "type": "function"
    },
    {
      "inputs": [
        {
          "internalType": "uint256",
          "name": "newPrice",
          "type": "uint256"
        }
      ],
      "name": "setRentingPrice",
      "outputs": [],
      "stateMutability": "nonpayable",
      "type": "function"
    },
    {
      "inputs": [
        {
          "internalType": "uint256",
          "name": "tokenId",
          "type": "uint256"
        }
      ],
      "name": "getNftBook",
      "outputs": [
        {
          "components": [
            {
              "internalType": "uint256",
              "name": "tokenId",
              "type": "uint256"
            },
            {
              "internalType": "address",
              "name": "author",
              "type": "address"
            },
            {
              "internalType": "uint256",
              "name": "balance",
              "type": "uint256"
            }
          ],
          "internalType": "struct BookStore.NFTBook",
          "name": "",
          "type": "tuple"
        }
      ],
      "stateMutability": "view",
      "type": "function",
      "constant": true
    },
    {
      "inputs": [
        {
          "internalType": "string",
          "name": "tokenURI",
          "type": "string"
        }
      ],
      "name": "isTokenURIExist",
      "outputs": [
        {
          "internalType": "bool",
          "name": "",
          "type": "bool"
        }
      ],
      "stateMutability": "view",
      "type": "function",
      "constant": true
    },
    {
      "inputs": [
        {
          "internalType": "string",
          "name": "tokenURI",
          "type": "string"
        },
        {
          "internalType": "uint256",
          "name": "balance",
          "type": "uint256"
        }
      ],
      "name": "mintBook",
      "outputs": [
        {
          "internalType": "uint256",
          "name": "",
          "type": "uint256"
        }
      ],
      "stateMutability": "payable",
      "type": "function",
      "payable": true
    },
    {
      "inputs": [
        {
          "internalType": "uint256",
          "name": "tokenId",
          "type": "uint256"
        },
        {
          "internalType": "address",
          "name": "owner",
          "type": "address"
        }
      ],
      "name": "isOwnerOfToken",
      "outputs": [
        {
          "internalType": "bool",
          "name": "",
          "type": "bool"
        }
      ],
      "stateMutability": "view",
      "type": "function",
      "constant": true
    },
    {
      "inputs": [],
      "name": "getOwnedNFTBooks",
      "outputs": [
        {
          "components": [
            {
              "internalType": "uint256",
              "name": "tokenId",
              "type": "uint256"
            },
            {
              "internalType": "address",
              "name": "author",
              "type": "address"
            },
            {
              "internalType": "uint256",
              "name": "balance",
              "type": "uint256"
            }
          ],
          "internalType": "struct BookStore.NFTBook[]",
          "name": "",
          "type": "tuple[]"
        }
      ],
      "stateMutability": "view",
      "type": "function",
      "constant": true
    },
    {
      "inputs": [],
      "name": "getOwnedListedBooks",
      "outputs": [
        {
          "components": [
            {
              "internalType": "uint256",
              "name": "tokenId",
              "type": "uint256"
            },
            {
              "internalType": "address",
              "name": "seller",
              "type": "address"
            },
            {
              "internalType": "uint256",
              "name": "price",
              "type": "uint256"
            },
            {
              "internalType": "uint256",
              "name": "amount",
              "type": "uint256"
            }
          ],
          "internalType": "struct ListedBookStorage.ListedBook[]",
          "name": "",
          "type": "tuple[]"
        }
      ],
      "stateMutability": "view",
      "type": "function",
      "constant": true
    },
    {
      "inputs": [],
      "name": "getTotalOwnedToken",
      "outputs": [
        {
          "internalType": "uint256",
          "name": "",
          "type": "uint256"
        }
      ],
      "stateMutability": "view",
      "type": "function",
      "constant": true
    },
    {
      "inputs": [],
      "name": "getOwnedRentedBooks",
      "outputs": [
        {
          "components": [
            {
              "internalType": "uint256",
              "name": "tokenId",
              "type": "uint256"
            },
            {
              "internalType": "address",
              "name": "renter",
              "type": "address"
            },
            {
              "internalType": "uint256",
              "name": "price",
              "type": "uint256"
            },
            {
              "internalType": "uint256",
              "name": "amount",
              "type": "uint256"
            },
            {
              "internalType": "uint256",
              "name": "startTime",
              "type": "uint256"
            },
            {
              "internalType": "uint256",
              "name": "rentalDuration",
              "type": "uint256"
            }
          ],
          "internalType": "struct RentedBookStorage.RentedBook[]",
          "name": "",
          "type": "tuple[]"
        }
      ],
      "stateMutability": "view",
      "type": "function",
      "constant": true
    },
    {
      "inputs": [
        {
          "internalType": "uint256",
          "name": "tokenId",
          "type": "uint256"
        },
        {
          "internalType": "address",
          "name": "owner",
          "type": "address"
        }
      ],
      "name": "getAmountOfAllTypeBooks",
      "outputs": [
        {
          "internalType": "uint256",
          "name": "",
          "type": "uint256"
        }
      ],
      "stateMutability": "view",
      "type": "function",
      "constant": true
    },
    {
      "inputs": [
        {
          "internalType": "uint256",
          "name": "tokenId",
          "type": "uint256"
        },
        {
          "internalType": "uint256",
          "name": "price",
          "type": "uint256"
        },
        {
          "internalType": "uint256",
          "name": "amount",
          "type": "uint256"
        }
      ],
      "name": "sellBooks",
      "outputs": [],
      "stateMutability": "payable",
      "type": "function",
      "payable": true
    },
    {
      "inputs": [
        {
          "internalType": "uint256",
          "name": "tokenId",
          "type": "uint256"
        },
        {
          "internalType": "uint256",
          "name": "price",
          "type": "uint256"
        },
        {
          "internalType": "uint256",
          "name": "amount",
          "type": "uint256"
        },
        {
          "internalType": "uint256",
          "name": "rentalDuration",
          "type": "uint256"
        }
      ],
      "name": "rentBooks",
      "outputs": [],
      "stateMutability": "payable",
      "type": "function",
      "payable": true
    },
    {
      "inputs": [
        {
          "internalType": "uint256",
          "name": "tokenId",
          "type": "uint256"
        },
        {
          "internalType": "uint256",
          "name": "newPrice",
          "type": "uint256"
        },
        {
          "internalType": "uint256",
          "name": "newAmount",
          "type": "uint256"
        },
        {
          "internalType": "address",
          "name": "seller",
          "type": "address"
        }
      ],
      "name": "updateBookFromSale",
      "outputs": [],
      "stateMutability": "nonpayable",
      "type": "function"
    },
    {
      "inputs": [
        {
          "internalType": "uint256",
          "name": "tokenId",
          "type": "uint256"
        },
        {
          "internalType": "uint256",
          "name": "newPrice",
          "type": "uint256"
        },
        {
          "internalType": "uint256",
          "name": "newAmount",
          "type": "uint256"
        },
        {
          "internalType": "uint256",
          "name": "newStartTime",
          "type": "uint256"
        },
        {
          "internalType": "uint256",
          "name": "newRentalDuration",
          "type": "uint256"
        },
        {
          "internalType": "address",
          "name": "renter",
          "type": "address"
        }
      ],
      "name": "updateBookFromRenting",
      "outputs": [],
      "stateMutability": "nonpayable",
      "type": "function"
    },
    {
      "inputs": [],
      "name": "getAllBooksOnSale",
      "outputs": [
        {
          "components": [
            {
              "internalType": "uint256",
              "name": "tokenId",
              "type": "uint256"
            },
            {
              "internalType": "address",
              "name": "seller",
              "type": "address"
            },
            {
              "internalType": "uint256",
              "name": "price",
              "type": "uint256"
            },
            {
              "internalType": "uint256",
              "name": "amount",
              "type": "uint256"
            }
          ],
          "internalType": "struct ListedBookStorage.ListedBook[]",
          "name": "",
          "type": "tuple[]"
        }
      ],
      "stateMutability": "view",
      "type": "function",
      "constant": true
    },
    {
      "inputs": [],
      "name": "getAllBooksOnRenting",
      "outputs": [
        {
          "components": [
            {
              "internalType": "uint256",
              "name": "tokenId",
              "type": "uint256"
            },
            {
              "internalType": "address",
              "name": "renter",
              "type": "address"
            },
            {
              "internalType": "uint256",
              "name": "price",
              "type": "uint256"
            },
            {
              "internalType": "uint256",
              "name": "amount",
              "type": "uint256"
            },
            {
              "internalType": "uint256",
              "name": "startTime",
              "type": "uint256"
            },
            {
              "internalType": "uint256",
              "name": "rentalDuration",
              "type": "uint256"
            }
          ],
          "internalType": "struct RentedBookStorage.RentedBook[]",
          "name": "",
          "type": "tuple[]"
        }
      ],
      "stateMutability": "view",
      "type": "function",
      "constant": true
    },
    {
      "inputs": [
        {
          "internalType": "uint256",
          "name": "tokenId",
          "type": "uint256"
        },
        {
          "internalType": "address",
          "name": "seller",
          "type": "address"
        },
        {
          "internalType": "uint256",
          "name": "amount",
          "type": "uint256"
        }
      ],
      "name": "buyBooks",
      "outputs": [],
      "stateMutability": "payable",
      "type": "function",
      "payable": true
    }
  ],
  "bytecode": "0x60a0604052600060809081526003906200001a9082620001da565b506101f460085562093a806009556658d15e17628000600a5566038d7ea4c68000600b553480156200004b57600080fd5b50604051620039e5380380620039e58339810160408190526200006e91620002bf565b604051806060016040528060218152602001620039c4602191396200009381620000d1565b506200009f33620000e3565b600680546001600160a01b039384166001600160a01b03199182161790915560078054929093169116179055620002fe565b6002620000df8282620001da565b5050565b600580546001600160a01b038381166001600160a01b0319831681179093556040519116919082907f8be0079c531659141344cd1fd0a4f28419497f9722a3daafe3b4186f6b6457e090600090a35050565b634e487b7160e01b600052604160045260246000fd5b600181811c908216806200016057607f821691505b6020821081036200018157634e487b7160e01b600052602260045260246000fd5b50919050565b601f821115620001d557600081815260208120601f850160051c81016020861015620001b05750805b601f850160051c820191505b81811015620001d157828155600101620001bc565b5050505b505050565b81516001600160401b03811115620001f657620001f662000135565b6200020e816200020784546200014b565b8462000187565b602080601f8311600181146200024657600084156200022d5750858301515b600019600386901b1c1916600185901b178555620001d1565b600085815260208120601f198616915b82811015620002775788860151825594840194600190910190840162000256565b5085821015620002965787850151600019600388901b60f8161c191681555b5050505050600190811b01905550565b6001600160a01b0381168114620002bc57600080fd5b50565b60008060408385031215620002d357600080fd5b8251620002e081620002a6565b6020840151909250620002f381620002a6565b809150509250929050565b6136b6806200030e6000396000f3fe6080604052600436106101d75760003560e01c806376a36a0011610102578063c78f19f911610095578063ee02c23d11610064578063ee02c23d14610563578063f242432a14610578578063f2fde38b14610598578063f9b08f47146105b857600080fd5b8063c78f19f9146104b5578063cd8f086c146104cb578063e985e9c5146104ed578063eafdf24c1461053657600080fd5b80638da5cb5b116100d15780638da5cb5b1461042b578063a22cb46514610453578063b0a3a2f314610473578063ba71a7131461049557600080fd5b806376a36a00146103be5780637a04b1bd146103e05780637c726b69146103f657806380e8b1381461041657600080fd5b80632eb2c2d61161017a5780634e1273f4116101495780634e1273f4146103495780634e129cde146103765780635c4f125714610396578063715018a6146103a957600080fd5b80632eb2c2d6146102e35780633dd7a71e146103035780634603bf5214610316578063482c52421461032957600080fd5b806312d0a766116101b657806312d0a7661461026c5780631bcb98e61461028c57806320cf53b8146102ac5780632e43a9f9146102ce57600080fd5b8062fdd58e146101dc57806301ffc9a71461020f5780630e89341c1461023f575b600080fd5b3480156101e857600080fd5b506101fc6101f73660046125ef565b6105d8565b6040519081526020015b60405180910390f35b34801561021b57600080fd5b5061022f61022a366004612631565b610671565b6040519015158152602001610206565b34801561024b57600080fd5b5061025f61025a36600461264e565b6106c1565b60405161020691906126b7565b34801561027857600080fd5b5061022f6102873660046126ca565b6107a1565b34801561029857600080fd5b506101fc6102a73660046126ca565b6107b6565b3480156102b857600080fd5b506102c16108ab565b60405161020691906126fa565b6102e16102dc366004612767565b610922565b005b3480156102ef57600080fd5b506102e16102fe3660046128e8565b610a0f565b6101fc610311366004612995565b610a54565b6102e16103243660046129d9565b610bd5565b34801561033557600080fd5b506102e1610344366004612a0b565b610d7e565b34801561035557600080fd5b50610369610364366004612a60565b610ee4565b6040516102069190612b67565b34801561038257600080fd5b506102e1610391366004612b7a565b61100d565b6102e16103a4366004612bbb565b6110de565b3480156103b557600080fd5b506102e16111d9565b3480156103ca57600080fd5b506103d36111ed565b6040516102069190612be7565b3480156103ec57600080fd5b506101fc600b5481565b34801561040257600080fd5b506102e161041136600461264e565b61125f565b34801561042257600080fd5b506102c16112bc565b34801561043757600080fd5b506005546040516001600160a01b039091168152602001610206565b34801561045f57600080fd5b506102e161046e366004612c5b565b6114d9565b34801561047f57600080fd5b506104886114e8565b6040516102069190612c8e565b3480156104a157600080fd5b5061022f6104b0366004612cf9565b611616565b3480156104c157600080fd5b506101fc600a5481565b3480156104d757600080fd5b50336000908152601060205260409020546101fc565b3480156104f957600080fd5b5061022f610508366004612d35565b6001600160a01b03918216600090815260016020908152604080832093909416825291909152205460ff1690565b34801561054257600080fd5b5061055661055136600461264e565b611641565b6040516102069190612d63565b34801561056f57600080fd5b506103d36116b0565b34801561058457600080fd5b506102e1610593366004612d8d565b6118e0565b3480156105a457600080fd5b506102e16105b3366004612df5565b611925565b3480156105c457600080fd5b506102e16105d336600461264e565b61199e565b60006001600160a01b0383166106485760405162461bcd60e51b815260206004820152602a60248201527f455243313135353a2061646472657373207a65726f206973206e6f742061207660448201526930b634b21037bbb732b960b11b60648201526084015b60405180910390fd5b506000818152602081815260408083206001600160a01b03861684529091529020545b92915050565b60006001600160e01b03198216636cdb3d1360e11b14806106a257506001600160e01b031982166303a24d0760e21b145b8061066b57506301ffc9a760e01b6001600160e01b031983161461066b565b6000818152600460205260408120805460609291906106df90612e12565b80601f016020809104026020016040519081016040528092919081815260200182805461070b90612e12565b80156107585780601f1061072d57610100808354040283529160200191610758565b820191906000526020600020905b81548152906001019060200180831161073b57829003601f168201915b50505050509050600081511161077657610771836119fb565b61079a565b60038160405160200161078a929190612e4c565b6040516020818303038152906040525b9392505050565b6000806107ae83856105d8565b119392505050565b60075460405163d3080b8f60e01b8152600481018490526001600160a01b038381166024830152600092169063d3080b8f90604401602060405180830381865afa158015610808573d6000803e3d6000fd5b505050506040513d601f19601f8201168201806040525081019061082c9190612ed3565b6006546040516362513fcd60e11b8152600481018690526001600160a01b0385811660248301529091169063c4a27f9a90604401602060405180830381865afa15801561087d573d6000803e3d6000fd5b505050506040513d601f19601f820116820180604052508101906108a19190612ed3565b61079a9190612f02565b6006546040805163290251e760e11b815290516060926001600160a01b031691635204a3ce9160048083019260009291908290030181865afa1580156108f5573d6000803e3d6000fd5b505050506040513d6000823e601f3d908101601f1916820160405261091d9190810190612f85565b905090565b600654604051633af98cfd60e11b8152600481018590526001600160a01b0384811660248301526044820184905233606483015234608483015260009216906375f319fa9060a4016020604051808303816000875af1158015610989573d6000803e3d6000fd5b505050506040513d601f19601f820116820180604052508101906109ad9190612ed3565b90508015610a09576109d18333868560405180602001604052806000815250611a8f565b6040516001600160a01b0384169082156108fc029083906000818181858888f19350505050158015610a07573d6000803e3d6000fd5b505b50505050565b6001600160a01b038516331480610a2b5750610a2b8533610508565b610a475760405162461bcd60e51b815260040161063f9061302b565b610a078585858585611bc7565b6000610a5f83611616565b15610aac5760405162461bcd60e51b815260206004820152601860248201527f546f6b656e2055524920616c7265616479206578697374730000000000000000604482015260640161063f565b600082118015610abe57506008548211155b610b305760405162461bcd60e51b815260206004820152603a60248201527f546865206e756d626572206f6620626f6f6b7320796f752077616e7420746f2060448201527f7075626c697368206973206e6f7420617070726f707269617465000000000000606482015260840161063f565b600a543414610b515760405162461bcd60e51b815260040161063f90613079565b610b5f600c80546001019055565b6000610b6a600c5490565b9050610b8733828560405180602001604052806000815250611db2565b610b918185611ecc565b610b9b8184611f29565b6001600e85604051610bad91906130bd565b908152604051908190036020019020805491151560ff19909216919091179055905092915050565b610bdf84336107a1565b610bfb5760405162461bcd60e51b815260040161063f906130d9565b610c0533856105d8565b82610c1086336107b6565b610c1a9190612f02565b11158015610c285750600082115b610c445760405162461bcd60e51b815260040161063f9061311c565b600b543414610ca15760405162461bcd60e51b8152602060048201526024808201527f5072696365206d75737420626520657175616c20746f2072656e74696e6720706044820152637269636560e01b606482015260840161063f565b600954811015610cfe5760405162461bcd60e51b815260206004820152602260248201527f52656e74616c20706572696f64206973206174206c65617374206f6e65207765604482015261656b60f01b606482015260840161063f565b60075460405163691d09af60e11b8152600481018690523360248201526044810185905260648101849052608481018390526001600160a01b039091169063d23a135e9060a4015b600060405180830381600087803b158015610d6057600080fd5b505af1158015610d74573d6000803e3d6000fd5b5050505050505050565b610d8886826107a1565b610da45760405162461bcd60e51b815260040161063f906130d9565b6001600160a01b0381163314610e085760405162461bcd60e51b8152602060048201526024808201527f596f7520617265206e6f74207468652072656e746572206f662074686973207460448201526337b5b2b760e11b606482015260840161063f565b600954821015610e5a5760405162461bcd60e51b815260206004820152601e60248201527f4e65772072656e74616c206475726174696f6e20697320696e76616c69640000604482015260640161063f565b60075460405163333d478d60e11b815260048101889052602481018790526044810186905260648101859052608481018490526001600160a01b0383811660a48301529091169063667a8f1a9060c401600060405180830381600087803b158015610ec457600080fd5b505af1158015610ed8573d6000803e3d6000fd5b50505050505050505050565b60608151835114610f495760405162461bcd60e51b815260206004820152602960248201527f455243313135353a206163636f756e747320616e6420696473206c656e677468604482015268040dad2e6dac2e8c6d60bb1b606482015260840161063f565b600083516001600160401b03811115610f6457610f6461279f565b604051908082528060200260200182016040528015610f8d578160200160208202803683370190505b50905060005b845181101561100557610fd8858281518110610fb157610fb161315f565b6020026020010151858381518110610fcb57610fcb61315f565b60200260200101516105d8565b828281518110610fea57610fea61315f565b6020908102919091010152610ffe81613175565b9050610f93565b509392505050565b61101784826107a1565b6110335760405162461bcd60e51b815260040161063f906130d9565b6001600160a01b03811633146110975760405162461bcd60e51b8152602060048201526024808201527f596f7520617265206e6f74207468652073656c6c6572206f662074686973207460448201526337b5b2b760e11b606482015260840161063f565b60065460405163783db84b60e01b81526004810186905260248101859052604481018490526001600160a01b0383811660648301529091169063783db84b90608401610d46565b6110e883336107a1565b6111045760405162461bcd60e51b815260040161063f906130d9565b61110e33846105d8565b8161111985336107b6565b6111239190612f02565b11156111415760405162461bcd60e51b815260040161063f9061311c565b600a5434146111625760405162461bcd60e51b815260040161063f90613079565b600654604051634c5aecb560e01b81526004810185905260248101849052604481018390523360648201526001600160a01b0390911690634c5aecb590608401600060405180830381600087803b1580156111bc57600080fd5b505af11580156111d0573d6000803e3d6000fd5b50505050505050565b6111e1611fc1565b6111eb600061201b565b565b60075460408051633a63739f60e01b815290516060926001600160a01b031691633a63739f9160048083019260009291908290030181865afa158015611237573d6000803e3d6000fd5b505050506040513d6000823e601f3d908101601f1916820160405261091d9190810190613212565b611267611fc1565b600081116112b75760405162461bcd60e51b815260206004820152601c60248201527f5072696365206d757374206265206174206c6561737420312077656900000000604482015260640161063f565b600a55565b600654604051637cf6961960e11b81523360048201526060916000916001600160a01b039091169063f9ed2c3290602401602060405180830381865afa15801561130a573d6000803e3d6000fd5b505050506040513d601f19601f8201168201806040525081019061132e9190612ed3565b905060006113483360009081526010602052604090205490565b90506000826001600160401b038111156113645761136461279f565b6040519080825280602002602001820160405280156113c957816020015b6113b660405180608001604052806000815260200160006001600160a01b0316815260200160008152602001600081525090565b8152602001906001900390816113825790505b5090506000805b838110156114cf57336000818152600f60209081526040808320858452909152808220546006549151630ed148dd60e41b8152600481018290526024810194909452926001600160a01b039091169063ed148dd090604401608060405180830381865afa158015611445573d6000803e3d6000fd5b505050506040513d601f19601f8201168201806040525081019061146991906132b5565b805190915015801590611488575060208101516001600160a01b031615155b156114ba57808585815181106114a0576114a061315f565b602002602001018190525083806114b690613175565b9450505b505080806114c790613175565b9150506113d0565b5090949350505050565b6114e433838361206d565b5050565b606060006115023360009081526010602052604090205490565b90506000816001600160401b0381111561151e5761151e61279f565b60405190808252806020026020018201604052801561157c57816020015b61156960405180606001604052806000815260200160006001600160a01b03168152602001600081525090565b81526020019060019003908161153c5790505b50905060005b8281101561160f57336000908152600f60209081526040808320848452825280832054808452600d83529281902081516060810183528154815260018201546001600160a01b0316938101939093526002015490820152835181908590859081106115ef576115ef61315f565b60200260200101819052505050808061160790613175565b915050611582565b5092915050565b6000600e8260405161162891906130bd565b9081526040519081900360200190205460ff1692915050565b61166e60405180606001604052806000815260200160006001600160a01b03168152602001600081525090565b506000908152600d602090815260409182902082516060810184528154815260018201546001600160a01b031692810192909252600201549181019190915290565b600754604051631428d41f60e11b81523360048201526060916000916001600160a01b0390911690632851a83e90602401602060405180830381865afa1580156116fe573d6000803e3d6000fd5b505050506040513d601f19601f820116820180604052508101906117229190612ed3565b9050600061173c3360009081526010602052604090205490565b90506000826001600160401b038111156117585761175861279f565b6040519080825280602002602001820160405280156117cb57816020015b6117b86040518060c001604052806000815260200160006001600160a01b03168152602001600081526020016000815260200160008152602001600081525090565b8152602001906001900390816117765790505b5090506000805b838110156114cf57336000818152600f6020908152604080832085845290915280822054600754915163cf99308d60e01b8152600481018290526024810194909452926001600160a01b039091169063cf99308d9060440160c060405180830381865afa158015611847573d6000803e3d6000fd5b505050506040513d601f19601f8201168201806040525081019061186b91906132d1565b80519091501580159061188a575060208101516001600160a01b031615155b8015611899575060a081015115155b156118cb57808585815181106118b1576118b161315f565b602002602001018190525083806118c790613175565b9450505b505080806118d890613175565b9150506117d2565b6001600160a01b0385163314806118fc57506118fc8533610508565b6119185760405162461bcd60e51b815260040161063f9061302b565b610a078585858585611a8f565b61192d611fc1565b6001600160a01b0381166119925760405162461bcd60e51b815260206004820152602660248201527f4f776e61626c653a206e6577206f776e657220697320746865207a65726f206160448201526564647265737360d01b606482015260840161063f565b61199b8161201b565b50565b6119a6611fc1565b600081116119f65760405162461bcd60e51b815260206004820152601c60248201527f5072696365206d757374206265206174206c6561737420312077656900000000604482015260640161063f565b600b55565b606060028054611a0a90612e12565b80601f0160208091040260200160405190810160405280929190818152602001828054611a3690612e12565b8015611a835780601f10611a5857610100808354040283529160200191611a83565b820191906000526020600020905b815481529060010190602001808311611a6657829003601f168201915b50505050509050919050565b6001600160a01b038416611ab55760405162461bcd60e51b815260040161063f906132ed565b336000611ac18561214d565b90506000611ace8561214d565b9050611ade838989858589612198565b6000868152602081815260408083206001600160a01b038c16845290915290205485811015611b1f5760405162461bcd60e51b815260040161063f90613332565b6000878152602081815260408083206001600160a01b038d8116855292528083208985039055908a16825281208054889290611b5c908490612f02565b909155505060408051888152602081018890526001600160a01b03808b16928c821692918816917fc3d58168c5ae7397731d063d5bbf3d657854427343f4c083240f7aacaa2d0f62910160405180910390a4611bbc848a8a8a8a8a61226e565b505050505050505050565b8151835114611c295760405162461bcd60e51b815260206004820152602860248201527f455243313135353a2069647320616e6420616d6f756e7473206c656e677468206044820152670dad2e6dac2e8c6d60c31b606482015260840161063f565b6001600160a01b038416611c4f5760405162461bcd60e51b815260040161063f906132ed565b33611c5e818787878787612198565b60005b8451811015611d44576000858281518110611c7e57611c7e61315f565b602002602001015190506000858381518110611c9c57611c9c61315f565b602090810291909101810151600084815280835260408082206001600160a01b038e168352909352919091205490915081811015611cec5760405162461bcd60e51b815260040161063f90613332565b6000838152602081815260408083206001600160a01b038e8116855292528083208585039055908b16825281208054849290611d29908490612f02565b9250508190555050505080611d3d90613175565b9050611c61565b50846001600160a01b0316866001600160a01b0316826001600160a01b03167f4a39dc06d4c0dbc64b70af90fd698a233a518aa5d07e595d983b8c0526c8f7fb8787604051611d9492919061337c565b60405180910390a4611daa8187878787876123c9565b505050505050565b6001600160a01b038416611e125760405162461bcd60e51b815260206004820152602160248201527f455243313135353a206d696e7420746f20746865207a65726f206164647265736044820152607360f81b606482015260840161063f565b336000611e1e8561214d565b90506000611e2b8561214d565b9050611e3c83600089858589612198565b6000868152602081815260408083206001600160a01b038b16845290915281208054879290611e6c908490612f02565b909155505060408051878152602081018790526001600160a01b03808a1692600092918716917fc3d58168c5ae7397731d063d5bbf3d657854427343f4c083240f7aacaa2d0f62910160405180910390a46111d08360008989898961226e565b6000828152600460205260409020611ee482826133f5565b50817f6bb7ff708619ba0610cba295a58592e0451dee2622938c8755667688daf3529b611f10846106c1565b604051611f1d91906126b7565b60405180910390a25050565b60408051606080820183528482523360208084018281528486018781526000898152600d84528790209551865590516001860180546001600160a01b0319166001600160a01b03909216919091179055516002909401939093558351868152928301529181018390527f1b0894b5dbaa4e03eefef0639cb8bdd09459f893cb73161de2aad97a30c66f78910160405180910390a15050565b6005546001600160a01b031633146111eb5760405162461bcd60e51b815260206004820181905260248201527f4f776e61626c653a2063616c6c6572206973206e6f7420746865206f776e6572604482015260640161063f565b600580546001600160a01b038381166001600160a01b0319831681179093556040519116919082907f8be0079c531659141344cd1fd0a4f28419497f9722a3daafe3b4186f6b6457e090600090a35050565b816001600160a01b0316836001600160a01b0316036120e05760405162461bcd60e51b815260206004820152602960248201527f455243313135353a2073657474696e6720617070726f76616c20737461747573604482015268103337b91039b2b63360b91b606482015260840161063f565b6001600160a01b03838116600081815260016020908152604080832094871680845294825291829020805460ff191686151590811790915591519182527f17307eab39ab6107e8899845ad3d59bd9653f200f220920489ca2b5937696c31910160405180910390a3505050565b604080516001808252818301909252606091600091906020808301908036833701905050905082816000815181106121875761218761315f565b602090810291909101015292915050565b6001600160a01b0385161580156121b757506001600160a01b03841615155b156121e7576000836000815181106121d1576121d161315f565b602002602001015190506121e58582612484565b505b6001600160a01b0385161580159061220757506001600160a01b03841615155b80156122255750846001600160a01b0316846001600160a01b031614155b15611daa5760008360008151811061223f5761223f61315f565b602002602001015190506122538582612484565b61225d86826105d8565b6000036111d0576111d086826124e0565b6001600160a01b0384163b15611daa5760405163f23a6e6160e01b81526001600160a01b0385169063f23a6e61906122b290899089908890889088906004016134b4565b6020604051808303816000875af19250505080156122ed575060408051601f3d908101601f191682019092526122ea918101906134ee565b60015b612399576122f961350b565b806308c379a003612332575061230d613527565b806123185750612334565b8060405162461bcd60e51b815260040161063f91906126b7565b505b60405162461bcd60e51b815260206004820152603460248201527f455243313135353a207472616e7366657220746f206e6f6e2d455243313135356044820152732932b1b2b4bb32b91034b6b83632b6b2b73a32b960611b606482015260840161063f565b6001600160e01b0319811663f23a6e6160e01b146111d05760405162461bcd60e51b815260040161063f906135b0565b6001600160a01b0384163b15611daa5760405163bc197c8160e01b81526001600160a01b0385169063bc197c819061240d90899089908890889088906004016135f8565b6020604051808303816000875af1925050508015612448575060408051601f3d908101601f19168201909252612445918101906134ee565b60015b612454576122f961350b565b6001600160e01b0319811663bc197c8160e01b146111d05760405162461bcd60e51b815260040161063f906135b0565b61248e81836107a1565b6114e4576001600160a01b03821660008181526010602081815260408084208054600f845282862081875284529185208790559484529190528254909290916124d683613175565b9190505550505050565b6001600160a01b03821660009081526010602052604081205461250590600190613656565b905060005b612515826001612f02565b811015612584576001600160a01b0384166000908152600f602090815260408083208484529091529020548303612572576001600160a01b0384166000908152600f60209081526040808320858452909152808220548383529120555b8061257c81613175565b91505061250a565b506001600160a01b03831660009081526010602052604081208054916125a983613669565b90915550506001600160a01b039092166000908152600f602090815260408083209483529390529182209190915550565b6001600160a01b038116811461199b57600080fd5b6000806040838503121561260257600080fd5b823561260d816125da565b946020939093013593505050565b6001600160e01b03198116811461199b57600080fd5b60006020828403121561264357600080fd5b813561079a8161261b565b60006020828403121561266057600080fd5b5035919050565b60005b8381101561268257818101518382015260200161266a565b50506000910152565b600081518084526126a3816020860160208601612667565b601f01601f19169290920160200192915050565b60208152600061079a602083018461268b565b600080604083850312156126dd57600080fd5b8235915060208301356126ef816125da565b809150509250929050565b602080825282518282018190526000919060409081850190868401855b8281101561275a57815180518552868101516001600160a01b03168786015285810151868601526060908101519085015260809093019290850190600101612717565b5091979650505050505050565b60008060006060848603121561277c57600080fd5b83359250602084013561278e816125da565b929592945050506040919091013590565b634e487b7160e01b600052604160045260246000fd5b601f8201601f191681016001600160401b03811182821017156127da576127da61279f565b6040525050565b60006001600160401b038211156127fa576127fa61279f565b5060051b60200190565b600082601f83011261281557600080fd5b81356020612822826127e1565b60405161282f82826127b5565b83815260059390931b850182019282810191508684111561284f57600080fd5b8286015b8481101561286a5780358352918301918301612853565b509695505050505050565b600082601f83011261288657600080fd5b81356001600160401b0381111561289f5761289f61279f565b6040516128b6601f8301601f1916602001826127b5565b8181528460208386010111156128cb57600080fd5b816020850160208301376000918101602001919091529392505050565b600080600080600060a0868803121561290057600080fd5b853561290b816125da565b9450602086013561291b816125da565b935060408601356001600160401b038082111561293757600080fd5b61294389838a01612804565b9450606088013591508082111561295957600080fd5b61296589838a01612804565b9350608088013591508082111561297b57600080fd5b5061298888828901612875565b9150509295509295909350565b600080604083850312156129a857600080fd5b82356001600160401b038111156129be57600080fd5b6129ca85828601612875565b95602094909401359450505050565b600080600080608085870312156129ef57600080fd5b5050823594602084013594506040840135936060013592509050565b60008060008060008060c08789031215612a2457600080fd5b863595506020870135945060408701359350606087013592506080870135915060a0870135612a52816125da565b809150509295509295509295565b60008060408385031215612a7357600080fd5b82356001600160401b0380821115612a8a57600080fd5b818501915085601f830112612a9e57600080fd5b81356020612aab826127e1565b604051612ab882826127b5565b83815260059390931b8501820192828101915089841115612ad857600080fd5b948201945b83861015612aff578535612af0816125da565b82529482019490820190612add565b96505086013592505080821115612b1557600080fd5b50612b2285828601612804565b9150509250929050565b600081518084526020808501945080840160005b83811015612b5c57815187529582019590820190600101612b40565b509495945050505050565b60208152600061079a6020830184612b2c565b60008060008060808587031215612b9057600080fd5b8435935060208501359250604085013591506060850135612bb0816125da565b939692955090935050565b600080600060608486031215612bd057600080fd5b505081359360208301359350604090920135919050565b602080825282518282018190526000919060409081850190868401855b8281101561275a57815180518552868101516001600160a01b0316878601528581015186860152606080820151908601526080808201519086015260a0908101519085015260c09093019290850190600101612c04565b60008060408385031215612c6e57600080fd5b8235612c79816125da565b9150602083013580151581146126ef57600080fd5b6020808252825182820181905260009190848201906040850190845b81811015612ced57612cda838551805182526020808201516001600160a01b031690830152604090810151910152565b9284019260609290920191600101612caa565b50909695505050505050565b600060208284031215612d0b57600080fd5b81356001600160401b03811115612d2157600080fd5b612d2d84828501612875565b949350505050565b60008060408385031215612d4857600080fd5b8235612d53816125da565b915060208301356126ef816125da565b815181526020808301516001600160a01b031690820152604080830151908201526060810161066b565b600080600080600060a08688031215612da557600080fd5b8535612db0816125da565b94506020860135612dc0816125da565b9350604086013592506060860135915060808601356001600160401b03811115612de957600080fd5b61298888828901612875565b600060208284031215612e0757600080fd5b813561079a816125da565b600181811c90821680612e2657607f821691505b602082108103612e4657634e487b7160e01b600052602260045260246000fd5b50919050565b6000808454612e5a81612e12565b60018281168015612e725760018114612e8757612eb6565b60ff1984168752821515830287019450612eb6565b8860005260208060002060005b85811015612ead5781548a820152908401908201612e94565b50505082870194505b505050508351612eca818360208801612667565b01949350505050565b600060208284031215612ee557600080fd5b5051919050565b634e487b7160e01b600052601160045260246000fd5b8082018082111561066b5761066b612eec565b600060808284031215612f2757600080fd5b604051608081018181106001600160401b0382111715612f4957612f4961279f565b8060405250809150825181526020830151612f63816125da565b8060208301525060408301516040820152606083015160608201525092915050565b60006020808385031215612f9857600080fd5b82516001600160401b03811115612fae57600080fd5b8301601f81018513612fbf57600080fd5b8051612fca816127e1565b604051612fd782826127b5565b82815260079290921b8301840191848101915087831115612ff757600080fd5b928401925b828410156130205761300e8885612f15565b82528482019150608084019350612ffc565b979650505050505050565b6020808252602e908201527f455243313135353a2063616c6c6572206973206e6f7420746f6b656e206f776e60408201526d195c881bdc88185c1c1c9bdd995960921b606082015260800190565b60208082526024908201527f5072696365206d75737420626520657175616c20746f206c697374696e6720706040820152637269636560e01b606082015260800190565b600082516130cf818460208701612667565b9190910192915050565b60208082526023908201527f596f7520617265206e6f7420746865206f776e6572206f66207468697320746f60408201526235b2b760e91b606082015260800190565b60208082526023908201527f596f7520646f6e2774206861766520656e6f75676820626f6f6b7320746f2073604082015262195b1b60ea1b606082015260800190565b634e487b7160e01b600052603260045260246000fd5b60006001820161318757613187612eec565b5060010190565b600060c082840312156131a057600080fd5b60405160c081018181106001600160401b03821117156131c2576131c261279f565b80604052508091508251815260208301516131dc816125da565b8060208301525060408301516040820152606083015160608201526080830151608082015260a083015160a08201525092915050565b6000602080838503121561322557600080fd5b82516001600160401b0381111561323b57600080fd5b8301601f8101851361324c57600080fd5b8051613257816127e1565b60405161326482826127b5565b82815260c0928302840185019285820192508884111561328357600080fd5b938501935b838510156132a95761329a898661318e565b83529384019391850191613288565b50979650505050505050565b6000608082840312156132c757600080fd5b61079a8383612f15565b600060c082840312156132e357600080fd5b61079a838361318e565b60208082526025908201527f455243313135353a207472616e7366657220746f20746865207a65726f206164604082015264647265737360d81b606082015260800190565b6020808252602a908201527f455243313135353a20696e73756666696369656e742062616c616e636520666f60408201526939103a3930b739b332b960b11b606082015260800190565b60408152600061338f6040830185612b2c565b82810360208401526133a18185612b2c565b95945050505050565b601f8211156133f057600081815260208120601f850160051c810160208610156133d15750805b601f850160051c820191505b81811015611daa578281556001016133dd565b505050565b81516001600160401b0381111561340e5761340e61279f565b6134228161341c8454612e12565b846133aa565b602080601f831160018114613457576000841561343f5750858301515b600019600386901b1c1916600185901b178555611daa565b600085815260208120601f198616915b8281101561348657888601518255948401946001909101908401613467565b50858210156134a45787850151600019600388901b60f8161c191681555b5050505050600190811b01905550565b6001600160a01b03868116825285166020820152604081018490526060810183905260a0608082018190526000906130209083018461268b565b60006020828403121561350057600080fd5b815161079a8161261b565b600060033d11156135245760046000803e5060005160e01c5b90565b600060443d10156135355790565b6040516003193d81016004833e81513d6001600160401b03816024840111818411171561356457505050505090565b828501915081518181111561357c5750505050505090565b843d87010160208285010111156135965750505050505090565b6135a5602082860101876127b5565b509095945050505050565b60208082526028908201527f455243313135353a204552433131353552656365697665722072656a656374656040820152676420746f6b656e7360c01b606082015260800190565b6001600160a01b0386811682528516602082015260a06040820181905260009061362490830186612b2c565b82810360608401526136368186612b2c565b9050828103608084015261364a818561268b565b98975050505050505050565b8181038181111561066b5761066b612eec565b60008161367857613678612eec565b50600019019056fea26469706673582212202c44df922ae5d9984ae796e01c19bb2df34ad7aa1432f9c0fc8adec144de936264736f6c6343000811003368747470733a2f2f6578616d706c652e636f6d2f6170692f7b69647d2e6a736f6e",
  "immutableReferences": {},
  "source": "// SPDX-License-Identifier: MIT\r\npragma solidity >=0.4.22 <0.9.0;\r\nimport \"@openzeppelin/contracts/token/ERC1155/extensions/ERC1155URIStorage.sol\";\r\nimport \"@openzeppelin/contracts/utils/Counters.sol\";\r\nimport \"@openzeppelin/contracts/access/Ownable.sol\";\r\n\r\nimport \"./ListedBookStorage.sol\";\r\nimport \"./RentedBookStorage.sol\";\r\n\r\ncontract BookStore is ERC1155URIStorage, Ownable {\r\n  using Counters for Counters.Counter;\r\n\r\n  struct NFTBook {\r\n    uint256 tokenId;\r\n    address author;\r\n    uint256 balance;\r\n  }\r\n\r\n  event NFTBookCreated (\r\n    uint256 tokenId,\r\n    address author,\r\n    uint256 balance\r\n  );\r\n\r\n  ListedBookStorage private _listedBookStorage;\r\n  RentedBookStorage private _rentedBookStorage;\r\n\r\n  uint MAX_BALANCE = 500;\r\n  uint MIN_TIME = 604800; // Rental period is at least one week\r\n  uint public listingPrice = 0.025 ether;\r\n  uint public rentingPrice = 0.001 ether;\r\n  Counters.Counter private _tokenIds;\r\n\r\n  mapping (uint => NFTBook) _idToNFTBook;\r\n  mapping (string => bool) private _usedTokenURIs;\r\n\r\n  // For buyer\r\n  mapping(address => mapping(uint => uint)) private _ownedTokens;\r\n  mapping(address => uint) private _totalOwnedToken;\r\n\r\n  // For borrower\r\n  // mapping(address => mapping(uint => uint)) private _ownedTemporaryTokens;\r\n  // mapping(address => uint) private _totalOwnedTemporaryToken;\r\n\r\n  constructor(ListedBookStorage  listedBookStorage,\r\n               RentedBookStorage rentedBookStorage)\r\n    ERC1155(\"https://example.com/api/{id}.json\") {\r\n\r\n    _listedBookStorage = listedBookStorage;\r\n    _rentedBookStorage = rentedBookStorage;\r\n\r\n  }\r\n\r\n  function setListingPrice(uint newPrice) external onlyOwner {\r\n    require(newPrice > 0, \"Price must be at least 1 wei\");\r\n    listingPrice = newPrice;\r\n  }\r\n\r\n  function setRentingPrice(uint newPrice) external onlyOwner {\r\n    require(newPrice > 0, \"Price must be at least 1 wei\");\r\n    rentingPrice = newPrice;\r\n  }\r\n\r\n  function _beforeTokenTransfer(\r\n        address operator,\r\n        address from,\r\n        address to,\r\n        uint256[] memory ids,\r\n        uint256[] memory amounts,\r\n        bytes memory data\r\n  ) internal virtual override {\r\n\r\n    super._beforeTokenTransfer(operator, from, to, ids, amounts, data);\r\n\r\n    // Mint book\r\n    if (from == address(0) && to != address(0)) {\r\n      uint tokenId = ids[0];\r\n      _addTokenToOwnerEnumeration(to, tokenId);\r\n    }\r\n\r\n    // Buy books\r\n    if (from != address(0) && to != address(0) && to != from) {\r\n      uint tokenId = ids[0];\r\n      _addTokenToOwnerEnumeration(to, tokenId);\r\n      if (ERC1155.balanceOf(from, tokenId) == 0) {\r\n        _removeTokenFromOwnerEnumeration(from, tokenId);\r\n      }\r\n    }\r\n\r\n  }\r\n\r\n  function _addTokenToOwnerEnumeration(address owner, uint tokenId) private {\r\n    if (!isOwnerOfToken(tokenId, owner)) {\r\n      uint length = _totalOwnedToken[owner];\r\n      _ownedTokens[owner][length] = tokenId;\r\n      _totalOwnedToken[owner]++;\r\n    }\r\n  }\r\n\r\n  function _removeTokenFromOwnerEnumeration(address owner, uint tokenId) private {\r\n    uint lastTokenIndex = _totalOwnedToken[owner] - 1;\r\n\r\n    for (uint i = 0; i < lastTokenIndex + 1; i++) {\r\n      if (tokenId == _ownedTokens[owner][i]) {\r\n        _ownedTokens[owner][i] = _ownedTokens[owner][lastTokenIndex];\r\n      }\r\n    }\r\n\r\n    _totalOwnedToken[owner]--;\r\n    delete _ownedTokens[owner][lastTokenIndex];\r\n  }\r\n\r\n  function getNftBook(uint tokenId) public view returns (NFTBook memory) {\r\n    return _idToNFTBook[tokenId];\r\n  }\r\n\r\n  function isTokenURIExist(string memory tokenURI) public view returns (bool) {\r\n    return _usedTokenURIs[tokenURI];\r\n  }\r\n\r\n  function mintBook(string memory tokenURI, uint256 balance)\r\n    public payable returns (uint) {\r\n\r\n    require(!isTokenURIExist(tokenURI),\r\n           \"Token URI already exists\");\r\n    require(balance > 0 && balance <= MAX_BALANCE,\r\n          \"The number of books you want to publish is not appropriate\");\r\n    require(msg.value == listingPrice,\r\n           \"Price must be equal to listing price\");\r\n\r\n    _tokenIds.increment();\r\n    uint newTokenId = _tokenIds.current();\r\n\r\n    _mint(msg.sender, newTokenId, balance, \"\");\r\n    _setURI(newTokenId, tokenURI);\r\n    _createNftBook(newTokenId, balance);\r\n\r\n    _usedTokenURIs[tokenURI] = true;\r\n    return newTokenId;\r\n  }\r\n\r\n  function _createNftBook(uint tokenId, uint256 balance) private {\r\n    _idToNFTBook[tokenId] = NFTBook(tokenId, msg.sender, balance);\r\n    emit NFTBookCreated(tokenId, msg.sender, balance);\r\n  }\r\n  \r\n  function isOwnerOfToken(uint tokenId, address owner) public view returns(bool) {\r\n    return ERC1155.balanceOf(owner, tokenId) > 0;\r\n  }\r\n\r\n  function getOwnedNFTBooks() public view returns (NFTBook[] memory) {\r\n    uint ownedItemsCount = getTotalOwnedToken();\r\n    NFTBook[] memory books = new NFTBook[](ownedItemsCount);\r\n\r\n    for (uint i = 0; i < ownedItemsCount; i++) {\r\n      uint tokenId = _ownedTokens[msg.sender][i];\r\n      NFTBook memory book = _idToNFTBook[tokenId];\r\n\r\n      books[i] = book;\r\n    }\r\n\r\n    return books;\r\n  }\r\n\r\n  function getOwnedListedBooks() public view returns (ListedBookStorage.ListedBook[] memory) {\r\n    uint ownedListedBookCount = _listedBookStorage.getTotalOwnedListedBook(msg.sender);\r\n    uint ownedItemsCount = getTotalOwnedToken();\r\n    ListedBookStorage.ListedBook[] memory books = new ListedBookStorage.ListedBook[](ownedListedBookCount);\r\n\r\n    uint currentIndex = 0;\r\n    for (uint i = 0; i < ownedItemsCount; i++) {\r\n      uint tokenId = _ownedTokens[msg.sender][i];\r\n      ListedBookStorage.ListedBook memory book = _listedBookStorage.getListedBook(tokenId, msg.sender);\r\n      if (book.tokenId != 0 && book.seller != address(0)) {\r\n        books[currentIndex] = book;\r\n        currentIndex++;\r\n      }\r\n    }\r\n\r\n    return books;\r\n  }\r\n\r\n  function getTotalOwnedToken() public view returns(uint) {\r\n    return _totalOwnedToken[msg.sender];\r\n  }\r\n\r\n  function getOwnedRentedBooks() public view returns (RentedBookStorage.RentedBook[] memory) {\r\n    uint ownedRentedBookCount = _rentedBookStorage.getTotalOwnedRentedBook(msg.sender);\r\n    uint ownedItemsCount = getTotalOwnedToken();\r\n    RentedBookStorage.RentedBook[] memory books = new RentedBookStorage.RentedBook[](ownedRentedBookCount);\r\n\r\n    uint currentIndex = 0;\r\n    for (uint i = 0; i < ownedItemsCount; i++) {\r\n      uint tokenId = _ownedTokens[msg.sender][i];\r\n      RentedBookStorage.RentedBook memory book = _rentedBookStorage.getRentedBook(tokenId, msg.sender);\r\n      if (book.tokenId != 0 &&\r\n          book.renter != address(0) &&\r\n          book.rentalDuration != 0) {\r\n\r\n        books[currentIndex] = book;\r\n        currentIndex++;\r\n      }\r\n    }\r\n\r\n    return books;\r\n  }\r\n\r\n  function getAmountOfAllTypeBooks(uint256 tokenId, address owner) public view returns(uint) {\r\n    return _listedBookStorage.getAmountOfListedBooks(tokenId, owner) +\r\n          _rentedBookStorage.getAmountOfRentedBooks(tokenId, owner);\r\n  }\r\n\r\n  function sellBooks(uint256 tokenId,\r\n                    uint price,\r\n                    uint256 amount) public payable {\r\n    require(isOwnerOfToken(tokenId, msg.sender),\r\n          \"You are not the owner of this token\");\r\n    require(getAmountOfAllTypeBooks(tokenId, msg.sender) + amount <= ERC1155.balanceOf(msg.sender, tokenId),\r\n          \"You don't have enough books to sell\");\r\n    require(msg.value == listingPrice,\r\n           \"Price must be equal to listing price\");\r\n    _listedBookStorage.sellListedBooks(tokenId, price, amount, msg.sender);\r\n  }\r\n\r\n  function rentBooks(uint256 tokenId,\r\n                    uint price,\r\n                    uint256 amount,\r\n                    uint rentalDuration) public payable {\r\n    require(isOwnerOfToken(tokenId, msg.sender),\r\n          \"You are not the owner of this token\");\r\n    require(getAmountOfAllTypeBooks(tokenId, msg.sender) + amount <= ERC1155.balanceOf(msg.sender, tokenId) &&\r\n           amount > 0,\r\n          \"You don't have enough books to sell\");\r\n    require(msg.value == rentingPrice,\r\n           \"Price must be equal to renting price\");\r\n    require(rentalDuration >= MIN_TIME,\r\n           \"Rental period is at least one week\");\r\n\r\n    _rentedBookStorage.rentRentedBooks(tokenId, msg.sender, price, amount, rentalDuration);\r\n  }\r\n\r\n  function updateBookFromSale(uint256 tokenId, \r\n                              uint newPrice, \r\n                              uint256 newAmount, \r\n                              address seller) public {\r\n    require(isOwnerOfToken(tokenId, seller),\r\n          \"You are not the owner of this token\");\r\n    require(seller == msg.sender,\r\n          \"You are not the seller of this token\");\r\n    _listedBookStorage.updateListedBookFromSale(tokenId,\r\n                                                newPrice, \r\n                                                newAmount, \r\n                                                seller);\r\n  }\r\n\r\n  function updateBookFromRenting(uint256 tokenId,\r\n                                uint newPrice,\r\n                                uint256 newAmount,\r\n                                uint newStartTime,\r\n                                uint newRentalDuration,\r\n                                address renter) public {\r\n    require(isOwnerOfToken(tokenId, renter),\r\n          \"You are not the owner of this token\");\r\n    require(renter == msg.sender,\r\n          \"You are not the renter of this token\");\r\n    require(newRentalDuration >= MIN_TIME, \r\n          \"New rental duration is invalid\");\r\n    \r\n    _rentedBookStorage.updateRentedBookFromRenting(tokenId,\r\n                                                  newPrice,\r\n                                                  newAmount,\r\n                                                  newStartTime, \r\n                                                  newRentalDuration, \r\n                                                  renter);\r\n  }\r\n\r\n  function getAllBooksOnSale() public view returns (ListedBookStorage.ListedBook[] memory) {\r\n    return _listedBookStorage.getAllListedBooks();\r\n  }\r\n\r\n  function getAllBooksOnRenting() public view returns (RentedBookStorage.RentedBook[] memory) {\r\n    return _rentedBookStorage.getAllRentedBooks();\r\n  }\r\n\r\n  function buyBooks(uint256 tokenId, address seller, uint256 amount) public payable {\r\n\r\n    uint totalPrice = _listedBookStorage.buyListedBooks(tokenId, seller, amount, msg.sender, msg.value);\r\n    if (totalPrice != 0) {\r\n      _safeTransferFrom(seller, msg.sender, tokenId, amount, \"\");\r\n      payable(seller).transfer(totalPrice);\r\n    }\r\n  }\r\n\r\n  // This function is incomplete\r\n\r\n  // function borrowBooks(uint256 tokenId,\r\n  //                     address renter,\r\n  //                     uint256 amount,\r\n  //                     uint startTime,\r\n  //                     uint rentalDuration) public payable {\r\n\r\n  //   uint totalPrice = _rentedBookStorage.borrowRentedBooks(tokenId,\r\n  //                                                          renter, \r\n  //                                                          amount, \r\n  //                                                          msg.sender, \r\n  //                                                          startTime, \r\n  //                                                          rentalDuration, \r\n  //                                                          msg.value);\r\n  //   if (totalPrice != 0) {\r\n  //     // _safeTransferFrom(renter, msg.sender, tokenId, amount, \"\");\r\n  //     payable(renter).transfer(totalPrice);\r\n  //   }\r\n  // }\r\n\r\n}",
  "sourcePath": "D:\\Workspace\\DoAnTotNghiep\\Product\\nft-bookstore\\contracts\\BookStore.sol",
  "compiler": {
    "name": "solc",
    "version": "0.8.17+commit.8df45f5f.Emscripten.clang"
  },
  "schemaVersion": "3.4.11",
  "updatedAt": "2023-02-26T11:35:11.087Z",
  "networkType": "ethereum",
  "devdoc": {
    "kind": "dev",
    "methods": {
      "balanceOf(address,uint256)": {
        "details": "See {IERC1155-balanceOf}. Requirements: - `account` cannot be the zero address."
      },
      "balanceOfBatch(address[],uint256[])": {
        "details": "See {IERC1155-balanceOfBatch}. Requirements: - `accounts` and `ids` must have the same length."
      },
      "isApprovedForAll(address,address)": {
        "details": "See {IERC1155-isApprovedForAll}."
      },
      "owner()": {
        "details": "Returns the address of the current owner."
      },
      "renounceOwnership()": {
        "details": "Leaves the contract without owner. It will not be possible to call `onlyOwner` functions anymore. Can only be called by the current owner. NOTE: Renouncing ownership will leave the contract without an owner, thereby removing any functionality that is only available to the owner."
      },
      "safeBatchTransferFrom(address,address,uint256[],uint256[],bytes)": {
        "details": "See {IERC1155-safeBatchTransferFrom}."
      },
      "safeTransferFrom(address,address,uint256,uint256,bytes)": {
        "details": "See {IERC1155-safeTransferFrom}."
      },
      "setApprovalForAll(address,bool)": {
        "details": "See {IERC1155-setApprovalForAll}."
      },
      "supportsInterface(bytes4)": {
        "details": "See {IERC165-supportsInterface}."
      },
      "transferOwnership(address)": {
        "details": "Transfers ownership of the contract to a new account (`newOwner`). Can only be called by the current owner."
      },
      "uri(uint256)": {
        "details": "See {IERC1155MetadataURI-uri}. This implementation returns the concatenation of the `_baseURI` and the token-specific uri if the latter is set This enables the following behaviors: - if `_tokenURIs[tokenId]` is set, then the result is the concatenation   of `_baseURI` and `_tokenURIs[tokenId]` (keep in mind that `_baseURI`   is empty per default); - if `_tokenURIs[tokenId]` is NOT set then we fallback to `super.uri()`   which in most cases will contain `ERC1155._uri`; - if `_tokenURIs[tokenId]` is NOT set, and if the parents do not have a   uri value set, then the result is empty."
      }
    },
    "version": 1
  },
  "userdoc": {
    "kind": "user",
    "methods": {},
    "version": 1
  }
}