{
  "contractName": "BookStoreV1",
  "abi": [
    {
      "inputs": [],
      "stateMutability": "nonpayable",
      "type": "constructor"
    },
    {
      "anonymous": false,
      "inputs": [
        {
          "indexed": true,
          "internalType": "address",
          "name": "account",
          "type": "address"
        },
        {
          "indexed": true,
          "internalType": "address",
          "name": "operator",
          "type": "address"
        },
        {
          "indexed": false,
          "internalType": "bool",
          "name": "approved",
          "type": "bool"
        }
      ],
      "name": "ApprovalForAll",
      "type": "event"
    },
    {
      "anonymous": false,
      "inputs": [
        {
          "indexed": false,
          "internalType": "uint256",
          "name": "tokenId",
          "type": "uint256"
        },
        {
          "indexed": false,
          "internalType": "uint256",
          "name": "price",
          "type": "uint256"
        },
        {
          "indexed": false,
          "internalType": "address",
          "name": "author",
          "type": "address"
        },
        {
          "indexed": false,
          "internalType": "uint256",
          "name": "quantity",
          "type": "uint256"
        }
      ],
      "name": "BookVersionCreated",
      "type": "event"
    },
    {
      "anonymous": false,
      "inputs": [
        {
          "indexed": true,
          "internalType": "address",
          "name": "operator",
          "type": "address"
        },
        {
          "indexed": true,
          "internalType": "address",
          "name": "from",
          "type": "address"
        },
        {
          "indexed": true,
          "internalType": "address",
          "name": "to",
          "type": "address"
        },
        {
          "indexed": false,
          "internalType": "uint256[]",
          "name": "ids",
          "type": "uint256[]"
        },
        {
          "indexed": false,
          "internalType": "uint256[]",
          "name": "values",
          "type": "uint256[]"
        }
      ],
      "name": "TransferBatch",
      "type": "event"
    },
    {
      "anonymous": false,
      "inputs": [
        {
          "indexed": true,
          "internalType": "address",
          "name": "operator",
          "type": "address"
        },
        {
          "indexed": true,
          "internalType": "address",
          "name": "from",
          "type": "address"
        },
        {
          "indexed": true,
          "internalType": "address",
          "name": "to",
          "type": "address"
        },
        {
          "indexed": false,
          "internalType": "uint256",
          "name": "id",
          "type": "uint256"
        },
        {
          "indexed": false,
          "internalType": "uint256",
          "name": "value",
          "type": "uint256"
        }
      ],
      "name": "TransferSingle",
      "type": "event"
    },
    {
      "anonymous": false,
      "inputs": [
        {
          "indexed": false,
          "internalType": "string",
          "name": "value",
          "type": "string"
        },
        {
          "indexed": true,
          "internalType": "uint256",
          "name": "id",
          "type": "uint256"
        }
      ],
      "name": "URI",
      "type": "event"
    },
    {
      "inputs": [
        {
          "internalType": "address",
          "name": "account",
          "type": "address"
        },
        {
          "internalType": "uint256",
          "name": "id",
          "type": "uint256"
        }
      ],
      "name": "balanceOf",
      "outputs": [
        {
          "internalType": "uint256",
          "name": "",
          "type": "uint256"
        }
      ],
      "stateMutability": "view",
      "type": "function",
      "constant": true
    },
    {
      "inputs": [
        {
          "internalType": "address[]",
          "name": "accounts",
          "type": "address[]"
        },
        {
          "internalType": "uint256[]",
          "name": "ids",
          "type": "uint256[]"
        }
      ],
      "name": "balanceOfBatch",
      "outputs": [
        {
          "internalType": "uint256[]",
          "name": "",
          "type": "uint256[]"
        }
      ],
      "stateMutability": "view",
      "type": "function",
      "constant": true
    },
    {
      "inputs": [
        {
          "internalType": "address",
          "name": "account",
          "type": "address"
        },
        {
          "internalType": "address",
          "name": "operator",
          "type": "address"
        }
      ],
      "name": "isApprovedForAll",
      "outputs": [
        {
          "internalType": "bool",
          "name": "",
          "type": "bool"
        }
      ],
      "stateMutability": "view",
      "type": "function",
      "constant": true
    },
    {
      "inputs": [],
      "name": "listingPrice",
      "outputs": [
        {
          "internalType": "uint256",
          "name": "",
          "type": "uint256"
        }
      ],
      "stateMutability": "view",
      "type": "function",
      "constant": true
    },
    {
      "inputs": [
        {
          "internalType": "address",
          "name": "from",
          "type": "address"
        },
        {
          "internalType": "address",
          "name": "to",
          "type": "address"
        },
        {
          "internalType": "uint256[]",
          "name": "ids",
          "type": "uint256[]"
        },
        {
          "internalType": "uint256[]",
          "name": "amounts",
          "type": "uint256[]"
        },
        {
          "internalType": "bytes",
          "name": "data",
          "type": "bytes"
        }
      ],
      "name": "safeBatchTransferFrom",
      "outputs": [],
      "stateMutability": "nonpayable",
      "type": "function"
    },
    {
      "inputs": [
        {
          "internalType": "address",
          "name": "from",
          "type": "address"
        },
        {
          "internalType": "address",
          "name": "to",
          "type": "address"
        },
        {
          "internalType": "uint256",
          "name": "id",
          "type": "uint256"
        },
        {
          "internalType": "uint256",
          "name": "amount",
          "type": "uint256"
        },
        {
          "internalType": "bytes",
          "name": "data",
          "type": "bytes"
        }
      ],
      "name": "safeTransferFrom",
      "outputs": [],
      "stateMutability": "nonpayable",
      "type": "function"
    },
    {
      "inputs": [
        {
          "internalType": "address",
          "name": "operator",
          "type": "address"
        },
        {
          "internalType": "bool",
          "name": "approved",
          "type": "bool"
        }
      ],
      "name": "setApprovalForAll",
      "outputs": [],
      "stateMutability": "nonpayable",
      "type": "function"
    },
    {
      "inputs": [
        {
          "internalType": "bytes4",
          "name": "interfaceId",
          "type": "bytes4"
        }
      ],
      "name": "supportsInterface",
      "outputs": [
        {
          "internalType": "bool",
          "name": "",
          "type": "bool"
        }
      ],
      "stateMutability": "view",
      "type": "function",
      "constant": true
    },
    {
      "inputs": [
        {
          "internalType": "uint256",
          "name": "tokenId",
          "type": "uint256"
        }
      ],
      "name": "uri",
      "outputs": [
        {
          "internalType": "string",
          "name": "",
          "type": "string"
        }
      ],
      "stateMutability": "view",
      "type": "function",
      "constant": true
    },
    {
      "inputs": [
        {
          "internalType": "uint256",
          "name": "_bookVersionId",
          "type": "uint256"
        }
      ],
      "name": "getBookVersion",
      "outputs": [
        {
          "components": [
            {
              "internalType": "uint256",
              "name": "price",
              "type": "uint256"
            },
            {
              "internalType": "address",
              "name": "author",
              "type": "address"
            },
            {
              "internalType": "uint256",
              "name": "quantity",
              "type": "uint256"
            }
          ],
          "internalType": "struct BookStoreV1.BookVersion",
          "name": "",
          "type": "tuple"
        }
      ],
      "stateMutability": "view",
      "type": "function",
      "constant": true
    },
    {
      "inputs": [
        {
          "internalType": "uint256",
          "name": "_bookVersionId",
          "type": "uint256"
        }
      ],
      "name": "bookVersionPrice",
      "outputs": [
        {
          "internalType": "uint256",
          "name": "",
          "type": "uint256"
        }
      ],
      "stateMutability": "view",
      "type": "function",
      "constant": true
    },
    {
      "inputs": [
        {
          "internalType": "uint256",
          "name": "_bookVersionId",
          "type": "uint256"
        }
      ],
      "name": "bookVersionAuthor",
      "outputs": [
        {
          "internalType": "address",
          "name": "",
          "type": "address"
        }
      ],
      "stateMutability": "view",
      "type": "function",
      "constant": true
    },
    {
      "inputs": [
        {
          "internalType": "uint256",
          "name": "_bookVersionId",
          "type": "uint256"
        }
      ],
      "name": "bookVersionQuantity",
      "outputs": [
        {
          "internalType": "uint256",
          "name": "",
          "type": "uint256"
        }
      ],
      "stateMutability": "view",
      "type": "function",
      "constant": true
    },
    {
      "inputs": [],
      "name": "listedItemsCount",
      "outputs": [
        {
          "internalType": "uint256",
          "name": "",
          "type": "uint256"
        }
      ],
      "stateMutability": "view",
      "type": "function",
      "constant": true
    },
    {
      "inputs": [
        {
          "internalType": "string",
          "name": "tokenURI",
          "type": "string"
        }
      ],
      "name": "tokenURIExists",
      "outputs": [
        {
          "internalType": "bool",
          "name": "",
          "type": "bool"
        }
      ],
      "stateMutability": "view",
      "type": "function",
      "constant": true
    },
    {
      "inputs": [
        {
          "internalType": "string",
          "name": "tokenURI",
          "type": "string"
        },
        {
          "internalType": "uint256",
          "name": "_price",
          "type": "uint256"
        },
        {
          "internalType": "uint256",
          "name": "_quantity",
          "type": "uint256"
        }
      ],
      "name": "publish",
      "outputs": [
        {
          "internalType": "uint256",
          "name": "",
          "type": "uint256"
        }
      ],
      "stateMutability": "payable",
      "type": "function",
      "payable": true
    }
  ],
  "bytecode": "0x60806040526040518060200160405280600081525060039081620000249190620002ff565b506658d15e176280006005553480156200003d57600080fd5b5060405180606001604052806021815260200162003abb6021913962000069816200007060201b60201c565b50620003e6565b8060029081620000819190620002ff565b5050565b600081519050919050565b7f4e487b7100000000000000000000000000000000000000000000000000000000600052604160045260246000fd5b7f4e487b7100000000000000000000000000000000000000000000000000000000600052602260045260246000fd5b600060028204905060018216806200010757607f821691505b6020821081036200011d576200011c620000bf565b5b50919050565b60008190508160005260206000209050919050565b60006020601f8301049050919050565b600082821b905092915050565b600060088302620001877fffffffffffffffffffffffffffffffffffffffffffffffffffffffffffffffff8262000148565b62000193868362000148565b95508019841693508086168417925050509392505050565b6000819050919050565b6000819050919050565b6000620001e0620001da620001d484620001ab565b620001b5565b620001ab565b9050919050565b6000819050919050565b620001fc83620001bf565b620002146200020b82620001e7565b84845462000155565b825550505050565b600090565b6200022b6200021c565b62000238818484620001f1565b505050565b5b8181101562000260576200025460008262000221565b6001810190506200023e565b5050565b601f821115620002af57620002798162000123565b620002848462000138565b8101602085101562000294578190505b620002ac620002a38562000138565b8301826200023d565b50505b505050565b600082821c905092915050565b6000620002d460001984600802620002b4565b1980831691505092915050565b6000620002ef8383620002c1565b9150826002028217905092915050565b6200030a8262000085565b67ffffffffffffffff81111562000326576200032562000090565b5b620003328254620000ee565b6200033f82828562000264565b600060209050601f83116001811462000377576000841562000362578287015190505b6200036e8582620002e1565b865550620003de565b601f198416620003878662000123565b60005b82811015620003b1578489015182556001820191506020850194506020810190506200038a565b86831015620003d15784890151620003cd601f891682620002c1565b8355505b6001600288020188555050505b505050505050565b6136c580620003f66000396000f3fe6080604052600436106100f25760003560e01c8063a22cb4651161008a578063d05aa68b11610059578063d05aa68b1461037a578063d2e18f32146103b7578063e985e9c5146103f4578063f242432a14610431576100f2565b8063a22cb465146102be578063c5f0b2a0146102e7578063c78f19f914610324578063ccb4918d1461034f576100f2565b80633369f8c0116100c65780633369f8c0146101d757806343d32ae7146102145780634e1273f4146102515780636a94b66a1461028e576100f2565b8062fdd58e146100f757806301ffc9a7146101345780630e89341c146101715780632eb2c2d6146101ae575b600080fd5b34801561010357600080fd5b5061011e60048036038101906101199190611de5565b61045a565b60405161012b9190611e34565b60405180910390f35b34801561014057600080fd5b5061015b60048036038101906101569190611ea7565b610522565b6040516101689190611eef565b60405180910390f35b34801561017d57600080fd5b5061019860048036038101906101939190611f0a565b610604565b6040516101a59190611fc7565b60405180910390f35b3480156101ba57600080fd5b506101d560048036038101906101d091906121e6565b6106e9565b005b3480156101e357600080fd5b506101fe60048036038101906101f99190611f0a565b61078a565b60405161020b9190612315565b60405180910390f35b34801561022057600080fd5b5061023b600480360381019061023691906123d1565b610821565b6040516102489190611eef565b60405180910390f35b34801561025d57600080fd5b50610278600480360381019061027391906124dd565b61085d565b6040516102859190612604565b60405180910390f35b6102a860048036038101906102a39190612626565b610976565b6040516102b59190611e34565b60405180910390f35b3480156102ca57600080fd5b506102e560048036038101906102e091906126c1565b610b3b565b005b3480156102f357600080fd5b5061030e60048036038101906103099190611f0a565b610b51565b60405161031b9190611e34565b60405180910390f35b34801561033057600080fd5b50610339610b71565b6040516103469190611e34565b60405180910390f35b34801561035b57600080fd5b50610364610b77565b6040516103719190611e34565b60405180910390f35b34801561038657600080fd5b506103a1600480360381019061039c9190611f0a565b610b88565b6040516103ae9190611e34565b60405180910390f35b3480156103c357600080fd5b506103de60048036038101906103d99190611f0a565b610ba8565b6040516103eb9190612710565b60405180910390f35b34801561040057600080fd5b5061041b6004803603810190610416919061272b565b610be8565b6040516104289190611eef565b60405180910390f35b34801561043d57600080fd5b506104586004803603810190610453919061276b565b610c7c565b005b60008073ffffffffffffffffffffffffffffffffffffffff168373ffffffffffffffffffffffffffffffffffffffff16036104ca576040517f08c379a00000000000000000000000000000000000000000000000000000000081526004016104c190612874565b60405180910390fd5b60008083815260200190815260200160002060008473ffffffffffffffffffffffffffffffffffffffff1673ffffffffffffffffffffffffffffffffffffffff16815260200190815260200160002054905092915050565b60007fd9b67a26000000000000000000000000000000000000000000000000000000007bffffffffffffffffffffffffffffffffffffffffffffffffffffffff1916827bffffffffffffffffffffffffffffffffffffffffffffffffffffffff191614806105ed57507f0e89341c000000000000000000000000000000000000000000000000000000007bffffffffffffffffffffffffffffffffffffffffffffffffffffffff1916827bffffffffffffffffffffffffffffffffffffffffffffffffffffffff1916145b806105fd57506105fc82610d1d565b5b9050919050565b60606000600460008481526020019081526020016000208054610626906128c3565b80601f0160208091040260200160405190810160405280929190818152602001828054610652906128c3565b801561069f5780601f106106745761010080835404028352916020019161069f565b820191906000526020600020905b81548152906001019060200180831161068257829003601f168201915b5050505050905060008151116106bd576106b883610d87565b6106e1565b6003816040516020016106d19291906129c8565b6040516020818303038152906040525b915050919050565b6106f1610e1b565b73ffffffffffffffffffffffffffffffffffffffff168573ffffffffffffffffffffffffffffffffffffffff161480610737575061073685610731610e1b565b610be8565b5b610776576040517f08c379a000000000000000000000000000000000000000000000000000000000815260040161076d90612a5e565b60405180910390fd5b6107838585858585610e23565b5050505050565b610792611d06565b60086000838152602001908152602001600020604051806060016040529081600082015481526020016001820160009054906101000a900473ffffffffffffffffffffffffffffffffffffffff1673ffffffffffffffffffffffffffffffffffffffff1673ffffffffffffffffffffffffffffffffffffffff1681526020016002820154815250509050919050565b6000600115156009836040516108379190612a7e565b908152602001604051809103902060009054906101000a900460ff161515149050919050565b606081518351146108a3576040517f08c379a000000000000000000000000000000000000000000000000000000000815260040161089a90612b07565b60405180910390fd5b6000835167ffffffffffffffff8111156108c0576108bf611fee565b5b6040519080825280602002602001820160405280156108ee5781602001602082028036833780820191505090505b50905060005b845181101561096b5761093b85828151811061091357610912612b27565b5b602002602001015185838151811061092e5761092d612b27565b5b602002602001015161045a565b82828151811061094e5761094d612b27565b5b6020026020010181815250508061096490612b85565b90506108f4565b508091505092915050565b600061098184610821565b156109c1576040517f08c379a00000000000000000000000000000000000000000000000000000000081526004016109b890612c19565b60405180910390fd5b6005543414610a05576040517f08c379a00000000000000000000000000000000000000000000000000000000081526004016109fc90612cab565b60405180910390fd5b610a0f6007611144565b610a196006611144565b6000610a25600761115a565b9050610a4233828560405180602001604052806000815250611168565b60405180606001604052808581526020013373ffffffffffffffffffffffffffffffffffffffff16815260200184815250600860008381526020019081526020016000206000820151816000015560208201518160010160006101000a81548173ffffffffffffffffffffffffffffffffffffffff021916908373ffffffffffffffffffffffffffffffffffffffff16021790555060408201518160020155905050610aee8186611318565b610af981858561137d565b6001600986604051610b0b9190612a7e565b908152602001604051809103902060006101000a81548160ff021916908315150217905550809150509392505050565b610b4d610b46610e1b565b83836114a4565b5050565b600060086000838152602001908152602001600020600201549050919050565b60055481565b6000610b83600661115a565b905090565b600060086000838152602001908152602001600020600001549050919050565b60006008600083815260200190815260200160002060010160009054906101000a900473ffffffffffffffffffffffffffffffffffffffff169050919050565b6000600160008473ffffffffffffffffffffffffffffffffffffffff1673ffffffffffffffffffffffffffffffffffffffff16815260200190815260200160002060008373ffffffffffffffffffffffffffffffffffffffff1673ffffffffffffffffffffffffffffffffffffffff16815260200190815260200160002060009054906101000a900460ff16905092915050565b610c84610e1b565b73ffffffffffffffffffffffffffffffffffffffff168573ffffffffffffffffffffffffffffffffffffffff161480610cca5750610cc985610cc4610e1b565b610be8565b5b610d09576040517f08c379a0000000000000000000000000000000000000000000000000000000008152600401610d0090612a5e565b60405180910390fd5b610d168585858585611610565b5050505050565b60007f01ffc9a7000000000000000000000000000000000000000000000000000000007bffffffffffffffffffffffffffffffffffffffffffffffffffffffff1916827bffffffffffffffffffffffffffffffffffffffffffffffffffffffff1916149050919050565b606060028054610d96906128c3565b80601f0160208091040260200160405190810160405280929190818152602001828054610dc2906128c3565b8015610e0f5780601f10610de457610100808354040283529160200191610e0f565b820191906000526020600020905b815481529060010190602001808311610df257829003601f168201915b50505050509050919050565b600033905090565b8151835114610e67576040517f08c379a0000000000000000000000000000000000000000000000000000000008152600401610e5e90612d3d565b60405180910390fd5b600073ffffffffffffffffffffffffffffffffffffffff168473ffffffffffffffffffffffffffffffffffffffff1603610ed6576040517f08c379a0000000000000000000000000000000000000000000000000000000008152600401610ecd90612dcf565b60405180910390fd5b6000610ee0610e1b565b9050610ef08187878787876118ab565b60005b84518110156110a1576000858281518110610f1157610f10612b27565b5b602002602001015190506000858381518110610f3057610f2f612b27565b5b60200260200101519050600080600084815260200190815260200160002060008b73ffffffffffffffffffffffffffffffffffffffff1673ffffffffffffffffffffffffffffffffffffffff16815260200190815260200160002054905081811015610fd1576040517f08c379a0000000000000000000000000000000000000000000000000000000008152600401610fc890612e61565b60405180910390fd5b81810360008085815260200190815260200160002060008c73ffffffffffffffffffffffffffffffffffffffff1673ffffffffffffffffffffffffffffffffffffffff168152602001908152602001600020819055508160008085815260200190815260200160002060008b73ffffffffffffffffffffffffffffffffffffffff1673ffffffffffffffffffffffffffffffffffffffff16815260200190815260200160002060008282546110869190612e81565b925050819055505050508061109a90612b85565b9050610ef3565b508473ffffffffffffffffffffffffffffffffffffffff168673ffffffffffffffffffffffffffffffffffffffff168273ffffffffffffffffffffffffffffffffffffffff167f4a39dc06d4c0dbc64b70af90fd698a233a518aa5d07e595d983b8c0526c8f7fb8787604051611118929190612eb5565b60405180910390a461112e8187878787876118b3565b61113c8187878787876118bb565b505050505050565b6001816000016000828254019250508190555050565b600081600001549050919050565b600073ffffffffffffffffffffffffffffffffffffffff168473ffffffffffffffffffffffffffffffffffffffff16036111d7576040517f08c379a00000000000000000000000000000000000000000000000000000000081526004016111ce90612f5e565b60405180910390fd5b60006111e1610e1b565b905060006111ee85611a92565b905060006111fb85611a92565b905061120c836000898585896118ab565b8460008088815260200190815260200160002060008973ffffffffffffffffffffffffffffffffffffffff1673ffffffffffffffffffffffffffffffffffffffff168152602001908152602001600020600082825461126b9190612e81565b925050819055508673ffffffffffffffffffffffffffffffffffffffff16600073ffffffffffffffffffffffffffffffffffffffff168473ffffffffffffffffffffffffffffffffffffffff167fc3d58168c5ae7397731d063d5bbf3d657854427343f4c083240f7aacaa2d0f6289896040516112e9929190612f7e565b60405180910390a4611300836000898585896118b3565b61130f83600089898989611b0c565b50505050505050565b80600460008481526020019081526020016000209081611338919061313e565b50817f6bb7ff708619ba0610cba295a58592e0451dee2622938c8755667688daf3529b61136484610604565b6040516113719190611fc7565b60405180910390a25050565b600082116113c0576040517f08c379a00000000000000000000000000000000000000000000000000000000081526004016113b79061325c565b60405180910390fd5b60405180606001604052808381526020013373ffffffffffffffffffffffffffffffffffffffff16815260200182815250600860008581526020019081526020016000206000820151816000015560208201518160010160006101000a81548173ffffffffffffffffffffffffffffffffffffffff021916908373ffffffffffffffffffffffffffffffffffffffff160217905550604082015181600201559050507f9e6eb2956146a12454109dbb408af738fdee252884eae3dac8927d6e08ee46e183833384604051611497949392919061327c565b60405180910390a1505050565b8173ffffffffffffffffffffffffffffffffffffffff168373ffffffffffffffffffffffffffffffffffffffff1603611512576040517f08c379a000000000000000000000000000000000000000000000000000000000815260040161150990613333565b60405180910390fd5b80600160008573ffffffffffffffffffffffffffffffffffffffff1673ffffffffffffffffffffffffffffffffffffffff16815260200190815260200160002060008473ffffffffffffffffffffffffffffffffffffffff1673ffffffffffffffffffffffffffffffffffffffff16815260200190815260200160002060006101000a81548160ff0219169083151502179055508173ffffffffffffffffffffffffffffffffffffffff168373ffffffffffffffffffffffffffffffffffffffff167f17307eab39ab6107e8899845ad3d59bd9653f200f220920489ca2b5937696c31836040516116039190611eef565b60405180910390a3505050565b600073ffffffffffffffffffffffffffffffffffffffff168473ffffffffffffffffffffffffffffffffffffffff160361167f576040517f08c379a000000000000000000000000000000000000000000000000000000000815260040161167690612dcf565b60405180910390fd5b6000611689610e1b565b9050600061169685611a92565b905060006116a385611a92565b90506116b38389898585896118ab565b600080600088815260200190815260200160002060008a73ffffffffffffffffffffffffffffffffffffffff1673ffffffffffffffffffffffffffffffffffffffff1681526020019081526020016000205490508581101561174a576040517f08c379a000000000000000000000000000000000000000000000000000000000815260040161174190612e61565b60405180910390fd5b85810360008089815260200190815260200160002060008b73ffffffffffffffffffffffffffffffffffffffff1673ffffffffffffffffffffffffffffffffffffffff168152602001908152602001600020819055508560008089815260200190815260200160002060008a73ffffffffffffffffffffffffffffffffffffffff1673ffffffffffffffffffffffffffffffffffffffff16815260200190815260200160002060008282546117ff9190612e81565b925050819055508773ffffffffffffffffffffffffffffffffffffffff168973ffffffffffffffffffffffffffffffffffffffff168573ffffffffffffffffffffffffffffffffffffffff167fc3d58168c5ae7397731d063d5bbf3d657854427343f4c083240f7aacaa2d0f628a8a60405161187c929190612f7e565b60405180910390a4611892848a8a86868a6118b3565b6118a0848a8a8a8a8a611b0c565b505050505050505050565b505050505050565b505050505050565b6118da8473ffffffffffffffffffffffffffffffffffffffff16611ce3565b15611a8a578373ffffffffffffffffffffffffffffffffffffffff1663bc197c8187878686866040518663ffffffff1660e01b81526004016119209594939291906133a8565b6020604051808303816000875af192505050801561195c57506040513d601f19601f820116820180604052508101906119599190613425565b60015b611a015761196861345f565b806308c379a0036119c4575061197c613481565b8061198757506119c6565b806040517f08c379a00000000000000000000000000000000000000000000000000000000081526004016119bb9190611fc7565b60405180910390fd5b505b6040517f08c379a00000000000000000000000000000000000000000000000000000000081526004016119f890613583565b60405180910390fd5b63bc197c8160e01b7bffffffffffffffffffffffffffffffffffffffffffffffffffffffff1916817bffffffffffffffffffffffffffffffffffffffffffffffffffffffff191614611a88576040517f08c379a0000000000000000000000000000000000000000000000000000000008152600401611a7f90613615565b60405180910390fd5b505b505050505050565b60606000600167ffffffffffffffff811115611ab157611ab0611fee565b5b604051908082528060200260200182016040528015611adf5781602001602082028036833780820191505090505b5090508281600081518110611af757611af6612b27565b5b60200260200101818152505080915050919050565b611b2b8473ffffffffffffffffffffffffffffffffffffffff16611ce3565b15611cdb578373ffffffffffffffffffffffffffffffffffffffff1663f23a6e6187878686866040518663ffffffff1660e01b8152600401611b71959493929190613635565b6020604051808303816000875af1925050508015611bad57506040513d601f19601f82011682018060405250810190611baa9190613425565b60015b611c5257611bb961345f565b806308c379a003611c155750611bcd613481565b80611bd85750611c17565b806040517f08c379a0000000000000000000000000000000000000000000000000000000008152600401611c0c9190611fc7565b60405180910390fd5b505b6040517f08c379a0000000000000000000000000000000000000000000000000000000008152600401611c4990613583565b60405180910390fd5b63f23a6e6160e01b7bffffffffffffffffffffffffffffffffffffffffffffffffffffffff1916817bffffffffffffffffffffffffffffffffffffffffffffffffffffffff191614611cd9576040517f08c379a0000000000000000000000000000000000000000000000000000000008152600401611cd090613615565b60405180910390fd5b505b505050505050565b6000808273ffffffffffffffffffffffffffffffffffffffff163b119050919050565b604051806060016040528060008152602001600073ffffffffffffffffffffffffffffffffffffffff168152602001600081525090565b6000604051905090565b600080fd5b600080fd5b600073ffffffffffffffffffffffffffffffffffffffff82169050919050565b6000611d7c82611d51565b9050919050565b611d8c81611d71565b8114611d9757600080fd5b50565b600081359050611da981611d83565b92915050565b6000819050919050565b611dc281611daf565b8114611dcd57600080fd5b50565b600081359050611ddf81611db9565b92915050565b60008060408385031215611dfc57611dfb611d47565b5b6000611e0a85828601611d9a565b9250506020611e1b85828601611dd0565b9150509250929050565b611e2e81611daf565b82525050565b6000602082019050611e496000830184611e25565b92915050565b60007fffffffff0000000000000000000000000000000000000000000000000000000082169050919050565b611e8481611e4f565b8114611e8f57600080fd5b50565b600081359050611ea181611e7b565b92915050565b600060208284031215611ebd57611ebc611d47565b5b6000611ecb84828501611e92565b91505092915050565b60008115159050919050565b611ee981611ed4565b82525050565b6000602082019050611f046000830184611ee0565b92915050565b600060208284031215611f2057611f1f611d47565b5b6000611f2e84828501611dd0565b91505092915050565b600081519050919050565b600082825260208201905092915050565b60005b83811015611f71578082015181840152602081019050611f56565b60008484015250505050565b6000601f19601f8301169050919050565b6000611f9982611f37565b611fa38185611f42565b9350611fb3818560208601611f53565b611fbc81611f7d565b840191505092915050565b60006020820190508181036000830152611fe18184611f8e565b905092915050565b600080fd5b7f4e487b7100000000000000000000000000000000000000000000000000000000600052604160045260246000fd5b61202682611f7d565b810181811067ffffffffffffffff8211171561204557612044611fee565b5b80604052505050565b6000612058611d3d565b9050612064828261201d565b919050565b600067ffffffffffffffff82111561208457612083611fee565b5b602082029050602081019050919050565b600080fd5b60006120ad6120a884612069565b61204e565b905080838252602082019050602084028301858111156120d0576120cf612095565b5b835b818110156120f957806120e58882611dd0565b8452602084019350506020810190506120d2565b5050509392505050565b600082601f83011261211857612117611fe9565b5b813561212884826020860161209a565b91505092915050565b600080fd5b600067ffffffffffffffff82111561215157612150611fee565b5b61215a82611f7d565b9050602081019050919050565b82818337600083830152505050565b600061218961218484612136565b61204e565b9050828152602081018484840111156121a5576121a4612131565b5b6121b0848285612167565b509392505050565b600082601f8301126121cd576121cc611fe9565b5b81356121dd848260208601612176565b91505092915050565b600080600080600060a0868803121561220257612201611d47565b5b600061221088828901611d9a565b955050602061222188828901611d9a565b945050604086013567ffffffffffffffff81111561224257612241611d4c565b5b61224e88828901612103565b935050606086013567ffffffffffffffff81111561226f5761226e611d4c565b5b61227b88828901612103565b925050608086013567ffffffffffffffff81111561229c5761229b611d4c565b5b6122a8888289016121b8565b9150509295509295909350565b6122be81611daf565b82525050565b6122cd81611d71565b82525050565b6060820160008201516122e960008501826122b5565b5060208201516122fc60208501826122c4565b50604082015161230f60408501826122b5565b50505050565b600060608201905061232a60008301846122d3565b92915050565b600067ffffffffffffffff82111561234b5761234a611fee565b5b61235482611f7d565b9050602081019050919050565b600061237461236f84612330565b61204e565b9050828152602081018484840111156123905761238f612131565b5b61239b848285612167565b509392505050565b600082601f8301126123b8576123b7611fe9565b5b81356123c8848260208601612361565b91505092915050565b6000602082840312156123e7576123e6611d47565b5b600082013567ffffffffffffffff81111561240557612404611d4c565b5b612411848285016123a3565b91505092915050565b600067ffffffffffffffff82111561243557612434611fee565b5b602082029050602081019050919050565b60006124596124548461241a565b61204e565b9050808382526020820190506020840283018581111561247c5761247b612095565b5b835b818110156124a557806124918882611d9a565b84526020840193505060208101905061247e565b5050509392505050565b600082601f8301126124c4576124c3611fe9565b5b81356124d4848260208601612446565b91505092915050565b600080604083850312156124f4576124f3611d47565b5b600083013567ffffffffffffffff81111561251257612511611d4c565b5b61251e858286016124af565b925050602083013567ffffffffffffffff81111561253f5761253e611d4c565b5b61254b85828601612103565b9150509250929050565b600081519050919050565b600082825260208201905092915050565b6000819050602082019050919050565b600061258d83836122b5565b60208301905092915050565b6000602082019050919050565b60006125b182612555565b6125bb8185612560565b93506125c683612571565b8060005b838110156125f75781516125de8882612581565b97506125e983612599565b9250506001810190506125ca565b5085935050505092915050565b6000602082019050818103600083015261261e81846125a6565b905092915050565b60008060006060848603121561263f5761263e611d47565b5b600084013567ffffffffffffffff81111561265d5761265c611d4c565b5b612669868287016123a3565b935050602061267a86828701611dd0565b925050604061268b86828701611dd0565b9150509250925092565b61269e81611ed4565b81146126a957600080fd5b50565b6000813590506126bb81612695565b92915050565b600080604083850312156126d8576126d7611d47565b5b60006126e685828601611d9a565b92505060206126f7858286016126ac565b9150509250929050565b61270a81611d71565b82525050565b60006020820190506127256000830184612701565b92915050565b6000806040838503121561274257612741611d47565b5b600061275085828601611d9a565b925050602061276185828601611d9a565b9150509250929050565b600080600080600060a0868803121561278757612786611d47565b5b600061279588828901611d9a565b95505060206127a688828901611d9a565b94505060406127b788828901611dd0565b93505060606127c888828901611dd0565b925050608086013567ffffffffffffffff8111156127e9576127e8611d4c565b5b6127f5888289016121b8565b9150509295509295909350565b7f455243313135353a2061646472657373207a65726f206973206e6f742061207660008201527f616c6964206f776e657200000000000000000000000000000000000000000000602082015250565b600061285e602a83611f42565b915061286982612802565b604082019050919050565b6000602082019050818103600083015261288d81612851565b9050919050565b7f4e487b7100000000000000000000000000000000000000000000000000000000600052602260045260246000fd5b600060028204905060018216806128db57607f821691505b6020821081036128ee576128ed612894565b5b50919050565b600081905092915050565b60008190508160005260206000209050919050565b60008154612921816128c3565b61292b81866128f4565b94506001821660008114612946576001811461295b5761298e565b60ff198316865281151582028601935061298e565b612964856128ff565b60005b8381101561298657815481890152600182019150602081019050612967565b838801955050505b50505092915050565b60006129a282611f37565b6129ac81856128f4565b93506129bc818560208601611f53565b80840191505092915050565b60006129d48285612914565b91506129e08284612997565b91508190509392505050565b7f455243313135353a2063616c6c6572206973206e6f7420746f6b656e206f776e60008201527f6572206f7220617070726f766564000000000000000000000000000000000000602082015250565b6000612a48602e83611f42565b9150612a53826129ec565b604082019050919050565b60006020820190508181036000830152612a7781612a3b565b9050919050565b6000612a8a8284612997565b915081905092915050565b7f455243313135353a206163636f756e747320616e6420696473206c656e67746860008201527f206d69736d617463680000000000000000000000000000000000000000000000602082015250565b6000612af1602983611f42565b9150612afc82612a95565b604082019050919050565b60006020820190508181036000830152612b2081612ae4565b9050919050565b7f4e487b7100000000000000000000000000000000000000000000000000000000600052603260045260246000fd5b7f4e487b7100000000000000000000000000000000000000000000000000000000600052601160045260246000fd5b6000612b9082611daf565b91507fffffffffffffffffffffffffffffffffffffffffffffffffffffffffffffffff8203612bc257612bc1612b56565b5b600182019050919050565b7f546f6b656e2055524920616c7265616479206578697374730000000000000000600082015250565b6000612c03601883611f42565b9150612c0e82612bcd565b602082019050919050565b60006020820190508181036000830152612c3281612bf6565b9050919050565b7f5072696365206d75737420626520657175616c20746f206c697374696e67207060008201527f7269636500000000000000000000000000000000000000000000000000000000602082015250565b6000612c95602483611f42565b9150612ca082612c39565b604082019050919050565b60006020820190508181036000830152612cc481612c88565b9050919050565b7f455243313135353a2069647320616e6420616d6f756e7473206c656e6774682060008201527f6d69736d61746368000000000000000000000000000000000000000000000000602082015250565b6000612d27602883611f42565b9150612d3282612ccb565b604082019050919050565b60006020820190508181036000830152612d5681612d1a565b9050919050565b7f455243313135353a207472616e7366657220746f20746865207a65726f20616460008201527f6472657373000000000000000000000000000000000000000000000000000000602082015250565b6000612db9602583611f42565b9150612dc482612d5d565b604082019050919050565b60006020820190508181036000830152612de881612dac565b9050919050565b7f455243313135353a20696e73756666696369656e742062616c616e636520666f60008201527f72207472616e7366657200000000000000000000000000000000000000000000602082015250565b6000612e4b602a83611f42565b9150612e5682612def565b604082019050919050565b60006020820190508181036000830152612e7a81612e3e565b9050919050565b6000612e8c82611daf565b9150612e9783611daf565b9250828201905080821115612eaf57612eae612b56565b5b92915050565b60006040820190508181036000830152612ecf81856125a6565b90508181036020830152612ee381846125a6565b90509392505050565b7f455243313135353a206d696e7420746f20746865207a65726f2061646472657360008201527f7300000000000000000000000000000000000000000000000000000000000000602082015250565b6000612f48602183611f42565b9150612f5382612eec565b604082019050919050565b60006020820190508181036000830152612f7781612f3b565b9050919050565b6000604082019050612f936000830185611e25565b612fa06020830184611e25565b9392505050565b60006020601f8301049050919050565b600082821b905092915050565b600060088302612ff47fffffffffffffffffffffffffffffffffffffffffffffffffffffffffffffffff82612fb7565b612ffe8683612fb7565b95508019841693508086168417925050509392505050565b6000819050919050565b600061303b61303661303184611daf565b613016565b611daf565b9050919050565b6000819050919050565b61305583613020565b61306961306182613042565b848454612fc4565b825550505050565b600090565b61307e613071565b61308981848461304c565b505050565b5b818110156130ad576130a2600082613076565b60018101905061308f565b5050565b601f8211156130f2576130c3816128ff565b6130cc84612fa7565b810160208510156130db578190505b6130ef6130e785612fa7565b83018261308e565b50505b505050565b600082821c905092915050565b6000613115600019846008026130f7565b1980831691505092915050565b600061312e8383613104565b9150826002028217905092915050565b61314782611f37565b67ffffffffffffffff8111156131605761315f611fee565b5b61316a82546128c3565b6131758282856130b1565b600060209050601f8311600181146131a85760008415613196578287015190505b6131a08582613122565b865550613208565b601f1984166131b6866128ff565b60005b828110156131de578489015182556001820191506020850194506020810190506131b9565b868310156131fb57848901516131f7601f891682613104565b8355505b6001600288020188555050505b505050505050565b7f5072696365206d757374206265206174206c6561737420312077656900000000600082015250565b6000613246601c83611f42565b915061325182613210565b602082019050919050565b6000602082019050818103600083015261327581613239565b9050919050565b60006080820190506132916000830187611e25565b61329e6020830186611e25565b6132ab6040830185612701565b6132b86060830184611e25565b95945050505050565b7f455243313135353a2073657474696e6720617070726f76616c2073746174757360008201527f20666f722073656c660000000000000000000000000000000000000000000000602082015250565b600061331d602983611f42565b9150613328826132c1565b604082019050919050565b6000602082019050818103600083015261334c81613310565b9050919050565b600081519050919050565b600082825260208201905092915050565b600061337a82613353565b613384818561335e565b9350613394818560208601611f53565b61339d81611f7d565b840191505092915050565b600060a0820190506133bd6000830188612701565b6133ca6020830187612701565b81810360408301526133dc81866125a6565b905081810360608301526133f081856125a6565b90508181036080830152613404818461336f565b90509695505050505050565b60008151905061341f81611e7b565b92915050565b60006020828403121561343b5761343a611d47565b5b600061344984828501613410565b91505092915050565b60008160e01c9050919050565b600060033d111561347e5760046000803e61347b600051613452565b90505b90565b600060443d1061350e57613493611d3d565b60043d036004823e80513d602482011167ffffffffffffffff821117156134bb57505061350e565b808201805167ffffffffffffffff8111156134d9575050505061350e565b80602083010160043d0385018111156134f657505050505061350e565b6135058260200185018661201d565b82955050505050505b90565b7f455243313135353a207472616e7366657220746f206e6f6e2d4552433131353560008201527f526563656976657220696d706c656d656e746572000000000000000000000000602082015250565b600061356d603483611f42565b915061357882613511565b604082019050919050565b6000602082019050818103600083015261359c81613560565b9050919050565b7f455243313135353a204552433131353552656365697665722072656a6563746560008201527f6420746f6b656e73000000000000000000000000000000000000000000000000602082015250565b60006135ff602883611f42565b915061360a826135a3565b604082019050919050565b6000602082019050818103600083015261362e816135f2565b9050919050565b600060a08201905061364a6000830188612701565b6136576020830187612701565b6136646040830186611e25565b6136716060830185611e25565b8181036080830152613683818461336f565b9050969550505050505056fea264697066735822122077d1b35211bb36aae8772dacddcc829a64fce561511114434e10ccb654e21d0564736f6c6343000811003368747470733a2f2f6578616d706c652e636f6d2f6170692f7b69647d2e6a736f6e",
  "immutableReferences": {},
  "source": "pragma solidity >=0.4.22 <0.9.0;\r\nimport \"@openzeppelin/contracts/token/ERC1155/extensions/ERC1155URIStorage.sol\";\r\nimport \"@openzeppelin/contracts/utils/Counters.sol\";\r\n\r\ncontract BookStoreV1 is ERC1155URIStorage {\r\n  using Counters for Counters.Counter;\r\n\r\n  struct BookVersion {\r\n    uint256 price;\r\n    address author;\r\n    uint256 quantity;\r\n  }\r\n\r\n  event BookVersionCreated (\r\n    uint256 tokenId,\r\n    uint256 price,\r\n    address author,\r\n    uint256 quantity\r\n  );\r\n\r\n  uint public listingPrice = 0.025 ether;\r\n  Counters.Counter private _listedItems;\r\n  Counters.Counter private _bookVersionIds;\r\n\r\n  mapping(uint256 => BookVersion) private _idToBookVersion;\r\n  mapping(string => bool) private _usedTokenURIs;\r\n\r\n  constructor() ERC1155(\"https://example.com/api/{id}.json\") {\r\n  }\r\n\r\n  function getBookVersion(uint _bookVersionId) public view returns (BookVersion memory) {\r\n    return _idToBookVersion[_bookVersionId];\r\n  }\r\n\r\n  function bookVersionPrice(uint256 _bookVersionId) public view returns(uint256) {\r\n  return _idToBookVersion[_bookVersionId].price;\r\n  }\r\n\r\n  function bookVersionAuthor(uint256 _bookVersionId) public view returns(address) {\r\n    return _idToBookVersion[_bookVersionId].author;\r\n  }\r\n\r\n  function bookVersionQuantity(uint256 _bookVersionId) public view returns(uint256) {\r\n    return _idToBookVersion[_bookVersionId].quantity;\r\n  }\r\n\r\n  function listedItemsCount() public view returns (uint) {\r\n    return _listedItems.current();\r\n  }\r\n\r\n  function tokenURIExists(string memory tokenURI) public view returns (bool) {\r\n    return _usedTokenURIs[tokenURI] == true;\r\n  }\r\n\r\n  function publish(string memory tokenURI, uint256 _price, uint256 _quantity)  public payable returns (uint) {\r\n    require(!tokenURIExists(tokenURI), \"Token URI already exists\");\r\n    require(msg.value == listingPrice, \"Price must be equal to listing price\");\r\n\r\n    _bookVersionIds.increment();\r\n    _listedItems.increment();\r\n\r\n    uint newTokenId = _bookVersionIds.current();\r\n\r\n    _mint(msg.sender, newTokenId, _quantity, \"\");\r\n\r\n    _idToBookVersion[newTokenId] = BookVersion(_price, msg.sender, _quantity);\r\n\r\n    _setURI(newTokenId, tokenURI);\r\n    _createBookVersion(newTokenId, _price, _quantity);\r\n    _usedTokenURIs[tokenURI] = true;\r\n\r\n    return newTokenId;\r\n  }\r\n\r\n  function _createBookVersion(\r\n    uint tokenId,\r\n    uint price,\r\n    uint256 quantity\r\n  ) private {\r\n    require(price > 0, \"Price must be at least 1 wei\");\r\n\r\n    _idToBookVersion[tokenId] = BookVersion(\r\n      price,\r\n      msg.sender,\r\n      quantity\r\n    );\r\n\r\n    emit BookVersionCreated(tokenId, price, msg.sender, quantity);\r\n  }\r\n}",
  "sourcePath": "D:\\DO_AN_TOT_NGHIEP\\project\\nft-bookstore\\contracts\\BookStoreV1.sol",
  "compiler": {
    "name": "solc",
    "version": "0.8.17+commit.8df45f5f.Emscripten.clang"
  },
  "schemaVersion": "3.4.11",
  "updatedAt": "2023-02-25T07:28:12.729Z",
  "networkType": "ethereum",
  "devdoc": {
    "kind": "dev",
    "methods": {
      "balanceOf(address,uint256)": {
        "details": "See {IERC1155-balanceOf}. Requirements: - `account` cannot be the zero address."
      },
      "balanceOfBatch(address[],uint256[])": {
        "details": "See {IERC1155-balanceOfBatch}. Requirements: - `accounts` and `ids` must have the same length."
      },
      "isApprovedForAll(address,address)": {
        "details": "See {IERC1155-isApprovedForAll}."
      },
      "safeBatchTransferFrom(address,address,uint256[],uint256[],bytes)": {
        "details": "See {IERC1155-safeBatchTransferFrom}."
      },
      "safeTransferFrom(address,address,uint256,uint256,bytes)": {
        "details": "See {IERC1155-safeTransferFrom}."
      },
      "setApprovalForAll(address,bool)": {
        "details": "See {IERC1155-setApprovalForAll}."
      },
      "supportsInterface(bytes4)": {
        "details": "See {IERC165-supportsInterface}."
      },
      "uri(uint256)": {
        "details": "See {IERC1155MetadataURI-uri}. This implementation returns the concatenation of the `_baseURI` and the token-specific uri if the latter is set This enables the following behaviors: - if `_tokenURIs[tokenId]` is set, then the result is the concatenation   of `_baseURI` and `_tokenURIs[tokenId]` (keep in mind that `_baseURI`   is empty per default); - if `_tokenURIs[tokenId]` is NOT set then we fallback to `super.uri()`   which in most cases will contain `ERC1155._uri`; - if `_tokenURIs[tokenId]` is NOT set, and if the parents do not have a   uri value set, then the result is empty."
      }
    },
    "version": 1
  },
  "userdoc": {
    "kind": "user",
    "methods": {},
    "version": 1
  }
}