{
  "contractName": "BookStore",
  "abi": [
    {
      "inputs": [],
      "stateMutability": "nonpayable",
      "type": "constructor"
    },
    {
      "anonymous": false,
      "inputs": [
        {
          "indexed": true,
          "internalType": "address",
          "name": "account",
          "type": "address"
        },
        {
          "indexed": true,
          "internalType": "address",
          "name": "operator",
          "type": "address"
        },
        {
          "indexed": false,
          "internalType": "bool",
          "name": "approved",
          "type": "bool"
        }
      ],
      "name": "ApprovalForAll",
      "type": "event"
    },
    {
      "anonymous": false,
      "inputs": [
        {
          "indexed": false,
          "internalType": "uint256",
          "name": "tokenId",
          "type": "uint256"
        },
        {
          "indexed": false,
          "internalType": "address",
          "name": "seller",
          "type": "address"
        },
        {
          "indexed": false,
          "internalType": "uint256",
          "name": "price",
          "type": "uint256"
        },
        {
          "indexed": false,
          "internalType": "uint256",
          "name": "amount",
          "type": "uint256"
        }
      ],
      "name": "ListedBookCreated",
      "type": "event"
    },
    {
      "anonymous": false,
      "inputs": [
        {
          "indexed": false,
          "internalType": "uint256",
          "name": "tokenId",
          "type": "uint256"
        },
        {
          "indexed": false,
          "internalType": "address",
          "name": "author",
          "type": "address"
        },
        {
          "indexed": false,
          "internalType": "uint256",
          "name": "balance",
          "type": "uint256"
        }
      ],
      "name": "NFTBookCreated",
      "type": "event"
    },
    {
      "anonymous": false,
      "inputs": [
        {
          "indexed": true,
          "internalType": "address",
          "name": "previousOwner",
          "type": "address"
        },
        {
          "indexed": true,
          "internalType": "address",
          "name": "newOwner",
          "type": "address"
        }
      ],
      "name": "OwnershipTransferred",
      "type": "event"
    },
    {
      "anonymous": false,
      "inputs": [
        {
          "indexed": true,
          "internalType": "address",
          "name": "operator",
          "type": "address"
        },
        {
          "indexed": true,
          "internalType": "address",
          "name": "from",
          "type": "address"
        },
        {
          "indexed": true,
          "internalType": "address",
          "name": "to",
          "type": "address"
        },
        {
          "indexed": false,
          "internalType": "uint256[]",
          "name": "ids",
          "type": "uint256[]"
        },
        {
          "indexed": false,
          "internalType": "uint256[]",
          "name": "values",
          "type": "uint256[]"
        }
      ],
      "name": "TransferBatch",
      "type": "event"
    },
    {
      "anonymous": false,
      "inputs": [
        {
          "indexed": true,
          "internalType": "address",
          "name": "operator",
          "type": "address"
        },
        {
          "indexed": true,
          "internalType": "address",
          "name": "from",
          "type": "address"
        },
        {
          "indexed": true,
          "internalType": "address",
          "name": "to",
          "type": "address"
        },
        {
          "indexed": false,
          "internalType": "uint256",
          "name": "id",
          "type": "uint256"
        },
        {
          "indexed": false,
          "internalType": "uint256",
          "name": "value",
          "type": "uint256"
        }
      ],
      "name": "TransferSingle",
      "type": "event"
    },
    {
      "anonymous": false,
      "inputs": [
        {
          "indexed": false,
          "internalType": "string",
          "name": "value",
          "type": "string"
        },
        {
          "indexed": true,
          "internalType": "uint256",
          "name": "id",
          "type": "uint256"
        }
      ],
      "name": "URI",
      "type": "event"
    },
    {
      "inputs": [
        {
          "internalType": "address",
          "name": "account",
          "type": "address"
        },
        {
          "internalType": "uint256",
          "name": "id",
          "type": "uint256"
        }
      ],
      "name": "balanceOf",
      "outputs": [
        {
          "internalType": "uint256",
          "name": "",
          "type": "uint256"
        }
      ],
      "stateMutability": "view",
      "type": "function",
      "constant": true
    },
    {
      "inputs": [
        {
          "internalType": "address[]",
          "name": "accounts",
          "type": "address[]"
        },
        {
          "internalType": "uint256[]",
          "name": "ids",
          "type": "uint256[]"
        }
      ],
      "name": "balanceOfBatch",
      "outputs": [
        {
          "internalType": "uint256[]",
          "name": "",
          "type": "uint256[]"
        }
      ],
      "stateMutability": "view",
      "type": "function",
      "constant": true
    },
    {
      "inputs": [
        {
          "internalType": "address",
          "name": "account",
          "type": "address"
        },
        {
          "internalType": "address",
          "name": "operator",
          "type": "address"
        }
      ],
      "name": "isApprovedForAll",
      "outputs": [
        {
          "internalType": "bool",
          "name": "",
          "type": "bool"
        }
      ],
      "stateMutability": "view",
      "type": "function",
      "constant": true
    },
    {
      "inputs": [],
      "name": "listingPrice",
      "outputs": [
        {
          "internalType": "uint256",
          "name": "",
          "type": "uint256"
        }
      ],
      "stateMutability": "view",
      "type": "function",
      "constant": true
    },
    {
      "inputs": [],
      "name": "owner",
      "outputs": [
        {
          "internalType": "address",
          "name": "",
          "type": "address"
        }
      ],
      "stateMutability": "view",
      "type": "function",
      "constant": true
    },
    {
      "inputs": [],
      "name": "renounceOwnership",
      "outputs": [],
      "stateMutability": "nonpayable",
      "type": "function"
    },
    {
      "inputs": [
        {
          "internalType": "address",
          "name": "from",
          "type": "address"
        },
        {
          "internalType": "address",
          "name": "to",
          "type": "address"
        },
        {
          "internalType": "uint256[]",
          "name": "ids",
          "type": "uint256[]"
        },
        {
          "internalType": "uint256[]",
          "name": "amounts",
          "type": "uint256[]"
        },
        {
          "internalType": "bytes",
          "name": "data",
          "type": "bytes"
        }
      ],
      "name": "safeBatchTransferFrom",
      "outputs": [],
      "stateMutability": "nonpayable",
      "type": "function"
    },
    {
      "inputs": [
        {
          "internalType": "address",
          "name": "from",
          "type": "address"
        },
        {
          "internalType": "address",
          "name": "to",
          "type": "address"
        },
        {
          "internalType": "uint256",
          "name": "id",
          "type": "uint256"
        },
        {
          "internalType": "uint256",
          "name": "amount",
          "type": "uint256"
        },
        {
          "internalType": "bytes",
          "name": "data",
          "type": "bytes"
        }
      ],
      "name": "safeTransferFrom",
      "outputs": [],
      "stateMutability": "nonpayable",
      "type": "function"
    },
    {
      "inputs": [
        {
          "internalType": "address",
          "name": "operator",
          "type": "address"
        },
        {
          "internalType": "bool",
          "name": "approved",
          "type": "bool"
        }
      ],
      "name": "setApprovalForAll",
      "outputs": [],
      "stateMutability": "nonpayable",
      "type": "function"
    },
    {
      "inputs": [
        {
          "internalType": "bytes4",
          "name": "interfaceId",
          "type": "bytes4"
        }
      ],
      "name": "supportsInterface",
      "outputs": [
        {
          "internalType": "bool",
          "name": "",
          "type": "bool"
        }
      ],
      "stateMutability": "view",
      "type": "function",
      "constant": true
    },
    {
      "inputs": [
        {
          "internalType": "address",
          "name": "newOwner",
          "type": "address"
        }
      ],
      "name": "transferOwnership",
      "outputs": [],
      "stateMutability": "nonpayable",
      "type": "function"
    },
    {
      "inputs": [
        {
          "internalType": "uint256",
          "name": "tokenId",
          "type": "uint256"
        }
      ],
      "name": "uri",
      "outputs": [
        {
          "internalType": "string",
          "name": "",
          "type": "string"
        }
      ],
      "stateMutability": "view",
      "type": "function",
      "constant": true
    },
    {
      "inputs": [
        {
          "internalType": "uint256",
          "name": "newPrice",
          "type": "uint256"
        }
      ],
      "name": "setListingPrice",
      "outputs": [],
      "stateMutability": "nonpayable",
      "type": "function"
    },
    {
      "inputs": [
        {
          "internalType": "uint256",
          "name": "tokenId",
          "type": "uint256"
        }
      ],
      "name": "getNftBook",
      "outputs": [
        {
          "components": [
            {
              "internalType": "uint256",
              "name": "tokenId",
              "type": "uint256"
            },
            {
              "internalType": "address",
              "name": "author",
              "type": "address"
            },
            {
              "internalType": "uint256",
              "name": "balance",
              "type": "uint256"
            }
          ],
          "internalType": "struct BookStore.NFTBook",
          "name": "",
          "type": "tuple"
        }
      ],
      "stateMutability": "view",
      "type": "function",
      "constant": true
    },
    {
      "inputs": [
        {
          "internalType": "uint256",
          "name": "tokenId",
          "type": "uint256"
        },
        {
          "internalType": "address",
          "name": "seller",
          "type": "address"
        }
      ],
      "name": "getListedBook",
      "outputs": [
        {
          "components": [
            {
              "internalType": "uint256",
              "name": "tokenId",
              "type": "uint256"
            },
            {
              "internalType": "address",
              "name": "seller",
              "type": "address"
            },
            {
              "internalType": "uint256",
              "name": "price",
              "type": "uint256"
            },
            {
              "internalType": "uint256",
              "name": "amount",
              "type": "uint256"
            }
          ],
          "internalType": "struct BookStore.ListedBook",
          "name": "",
          "type": "tuple"
        }
      ],
      "stateMutability": "view",
      "type": "function",
      "constant": true
    },
    {
      "inputs": [
        {
          "internalType": "string",
          "name": "tokenURI",
          "type": "string"
        }
      ],
      "name": "isTokenURIExist",
      "outputs": [
        {
          "internalType": "bool",
          "name": "",
          "type": "bool"
        }
      ],
      "stateMutability": "view",
      "type": "function",
      "constant": true
    },
    {
      "inputs": [
        {
          "internalType": "string",
          "name": "tokenURI",
          "type": "string"
        },
        {
          "internalType": "uint256",
          "name": "balance",
          "type": "uint256"
        }
      ],
      "name": "mintBook",
      "outputs": [
        {
          "internalType": "uint256",
          "name": "",
          "type": "uint256"
        }
      ],
      "stateMutability": "payable",
      "type": "function",
      "payable": true
    },
    {
      "inputs": [
        {
          "internalType": "uint256",
          "name": "tokenId",
          "type": "uint256"
        },
        {
          "internalType": "address",
          "name": "owner",
          "type": "address"
        }
      ],
      "name": "isOwnerOfToken",
      "outputs": [
        {
          "internalType": "bool",
          "name": "",
          "type": "bool"
        }
      ],
      "stateMutability": "view",
      "type": "function",
      "constant": true
    },
    {
      "inputs": [],
      "name": "getOwnedNFTBooks",
      "outputs": [
        {
          "components": [
            {
              "internalType": "uint256",
              "name": "tokenId",
              "type": "uint256"
            },
            {
              "internalType": "address",
              "name": "author",
              "type": "address"
            },
            {
              "internalType": "uint256",
              "name": "balance",
              "type": "uint256"
            }
          ],
          "internalType": "struct BookStore.NFTBook[]",
          "name": "",
          "type": "tuple[]"
        }
      ],
      "stateMutability": "view",
      "type": "function",
      "constant": true
    },
    {
      "inputs": [],
      "name": "getOwnedListedBooks",
      "outputs": [
        {
          "components": [
            {
              "internalType": "uint256",
              "name": "tokenId",
              "type": "uint256"
            },
            {
              "internalType": "address",
              "name": "seller",
              "type": "address"
            },
            {
              "internalType": "uint256",
              "name": "price",
              "type": "uint256"
            },
            {
              "internalType": "uint256",
              "name": "amount",
              "type": "uint256"
            }
          ],
          "internalType": "struct BookStore.ListedBook[]",
          "name": "",
          "type": "tuple[]"
        }
      ],
      "stateMutability": "view",
      "type": "function",
      "constant": true
    },
    {
      "inputs": [
        {
          "internalType": "uint256",
          "name": "tokenId",
          "type": "uint256"
        },
        {
          "internalType": "address",
          "name": "seller",
          "type": "address"
        }
      ],
      "name": "getAmountOfListedBook",
      "outputs": [
        {
          "internalType": "uint256",
          "name": "",
          "type": "uint256"
        }
      ],
      "stateMutability": "view",
      "type": "function",
      "constant": true
    },
    {
      "inputs": [
        {
          "internalType": "uint256",
          "name": "tokenId",
          "type": "uint256"
        },
        {
          "internalType": "uint256",
          "name": "price",
          "type": "uint256"
        },
        {
          "internalType": "uint256",
          "name": "amount",
          "type": "uint256"
        }
      ],
      "name": "sellBooks",
      "outputs": [],
      "stateMutability": "payable",
      "type": "function",
      "payable": true
    },
    {
      "inputs": [
        {
          "components": [
            {
              "internalType": "uint256",
              "name": "tokenId",
              "type": "uint256"
            },
            {
              "internalType": "address",
              "name": "seller",
              "type": "address"
            }
          ],
          "internalType": "struct BookStore.PrimaryKeyListedBook",
          "name": "value",
          "type": "tuple"
        }
      ],
      "name": "removeItemFromAllListedBooks",
      "outputs": [],
      "stateMutability": "nonpayable",
      "type": "function"
    },
    {
      "inputs": [
        {
          "internalType": "uint256",
          "name": "tokenId",
          "type": "uint256"
        },
        {
          "internalType": "uint256",
          "name": "amount",
          "type": "uint256"
        },
        {
          "internalType": "address",
          "name": "seller",
          "type": "address"
        }
      ],
      "name": "decreaseListedBookFromSale",
      "outputs": [],
      "stateMutability": "nonpayable",
      "type": "function"
    },
    {
      "inputs": [],
      "name": "getAllBooksOnSale",
      "outputs": [
        {
          "components": [
            {
              "internalType": "uint256",
              "name": "tokenId",
              "type": "uint256"
            },
            {
              "internalType": "address",
              "name": "seller",
              "type": "address"
            },
            {
              "internalType": "uint256",
              "name": "price",
              "type": "uint256"
            },
            {
              "internalType": "uint256",
              "name": "amount",
              "type": "uint256"
            }
          ],
          "internalType": "struct BookStore.ListedBook[]",
          "name": "",
          "type": "tuple[]"
        }
      ],
      "stateMutability": "view",
      "type": "function",
      "constant": true
    },
    {
      "inputs": [
        {
          "internalType": "uint256",
          "name": "tokenId",
          "type": "uint256"
        },
        {
          "internalType": "address",
          "name": "seller",
          "type": "address"
        },
        {
          "internalType": "uint256",
          "name": "amount",
          "type": "uint256"
        }
      ],
      "name": "buyBooks",
      "outputs": [],
      "stateMutability": "payable",
      "type": "function",
      "payable": true
    }
  ],
  "bytecode": "0x60806040526040518060200160405280600081525060039081620000249190620003f3565b506101f46006556658d15e176280006007553480156200004357600080fd5b506040518060600160405280602181526020016200628a602191396200006f816200009660201b60201c565b506200009062000084620000ab60201b60201c565b620000b360201b60201c565b620004da565b8060029081620000a79190620003f3565b5050565b600033905090565b6000600560009054906101000a900473ffffffffffffffffffffffffffffffffffffffff16905081600560006101000a81548173ffffffffffffffffffffffffffffffffffffffff021916908373ffffffffffffffffffffffffffffffffffffffff1602179055508173ffffffffffffffffffffffffffffffffffffffff168173ffffffffffffffffffffffffffffffffffffffff167f8be0079c531659141344cd1fd0a4f28419497f9722a3daafe3b4186f6b6457e060405160405180910390a35050565b600081519050919050565b7f4e487b7100000000000000000000000000000000000000000000000000000000600052604160045260246000fd5b7f4e487b7100000000000000000000000000000000000000000000000000000000600052602260045260246000fd5b60006002820490506001821680620001fb57607f821691505b602082108103620002115762000210620001b3565b5b50919050565b60008190508160005260206000209050919050565b60006020601f8301049050919050565b600082821b905092915050565b6000600883026200027b7fffffffffffffffffffffffffffffffffffffffffffffffffffffffffffffffff826200023c565b6200028786836200023c565b95508019841693508086168417925050509392505050565b6000819050919050565b6000819050919050565b6000620002d4620002ce620002c8846200029f565b620002a9565b6200029f565b9050919050565b6000819050919050565b620002f083620002b3565b62000308620002ff82620002db565b84845462000249565b825550505050565b600090565b6200031f62000310565b6200032c818484620002e5565b505050565b5b8181101562000354576200034860008262000315565b60018101905062000332565b5050565b601f821115620003a3576200036d8162000217565b62000378846200022c565b8101602085101562000388578190505b620003a062000397856200022c565b83018262000331565b50505b505050565b600082821c905092915050565b6000620003c860001984600802620003a8565b1980831691505092915050565b6000620003e38383620003b5565b9150826002028217905092915050565b620003fe8262000179565b67ffffffffffffffff8111156200041a576200041962000184565b5b620004268254620001e2565b6200043382828562000358565b600060209050601f8311600181146200046b576000841562000456578287015190505b620004628582620003d5565b865550620004d2565b601f1984166200047b8662000217565b60005b82811015620004a5578489015182556001820191506020850194506020810190506200047e565b86831015620004c55784890151620004c1601f891682620003b5565b8355505b6001600288020188555050505b505050505050565b615da080620004ea6000396000f3fe6080604052600436106101805760003560e01c80637c726b69116100d1578063c78f19f91161008a578063eafdf24c11610064578063eafdf24c14610590578063ed148dd0146105cd578063f242432a1461060a578063f2fde38b1461063357610180565b8063c78f19f9146104eb578063e5c4272714610516578063e985e9c51461055357610180565b80637c726b69146103db57806380e8b138146104045780638da5cb5b1461042f578063a22cb4651461045a578063b0a3a2f314610483578063ba71a713146104ae57610180565b80632e43a9f91161013e578063415d645811610118578063415d6458146103425780634e1273f41461036b5780635c4f1257146103a8578063715018a6146103c457610180565b80632e43a9f9146102cd5780632eb2c2d6146102e95780633dd7a71e1461031257610180565b8062fdd58e1461018557806301ffc9a7146101c25780630e89341c146101ff5780630f94934d1461023c57806312d0a7661461026557806320cf53b8146102a2575b600080fd5b34801561019157600080fd5b506101ac60048036038101906101a791906139e4565b61065c565b6040516101b99190613a33565b60405180910390f35b3480156101ce57600080fd5b506101e960048036038101906101e49190613aa6565b610724565b6040516101f69190613aee565b60405180910390f35b34801561020b57600080fd5b5061022660048036038101906102219190613b09565b610806565b6040516102339190613bc6565b60405180910390f35b34801561024857600080fd5b50610263600480360381019061025e9190613cb8565b6108eb565b005b34801561027157600080fd5b5061028c60048036038101906102879190613ce5565b610a5c565b6040516102999190613aee565b60405180910390f35b3480156102ae57600080fd5b506102b7610a72565b6040516102c49190613e47565b60405180910390f35b6102e760048036038101906102e29190613e69565b610cde565b005b3480156102f557600080fd5b50610310600480360381019061030b919061403e565b610f50565b005b61032c600480360381019061032791906141ae565b610ff1565b6040516103399190613a33565b60405180910390f35b34801561034e57600080fd5b506103696004803603810190610364919061420a565b611159565b005b34801561037757600080fd5b50610392600480360381019061038d9190614320565b611446565b60405161039f9190614447565b60405180910390f35b6103c260048036038101906103bd9190614469565b61155f565b005b3480156103d057600080fd5b506103d96117f6565b005b3480156103e757600080fd5b5061040260048036038101906103fd9190613b09565b61180a565b005b34801561041057600080fd5b5061041961185f565b6040516104269190613e47565b60405180910390f35b34801561043b57600080fd5b50610444611ac9565b60405161045191906144cb565b60405180910390f35b34801561046657600080fd5b50610481600480360381019061047c9190614512565b611af3565b005b34801561048f57600080fd5b50610498611b09565b6040516104a59190614643565b60405180910390f35b3480156104ba57600080fd5b506104d560048036038101906104d09190614665565b611cd0565b6040516104e29190613aee565b60405180910390f35b3480156104f757600080fd5b50610500611d05565b60405161050d9190613a33565b60405180910390f35b34801561052257600080fd5b5061053d60048036038101906105389190613ce5565b611d0b565b60405161054a9190613a33565b60405180910390f35b34801561055f57600080fd5b5061057a600480360381019061057591906146ae565b611d69565b6040516105879190613aee565b60405180910390f35b34801561059c57600080fd5b506105b760048036038101906105b29190613b09565b611dfd565b6040516105c49190614730565b60405180910390f35b3480156105d957600080fd5b506105f460048036038101906105ef9190613ce5565b611e94565b60405161060191906147a0565b60405180910390f35b34801561061657600080fd5b50610631600480360381019061062c91906147bb565b611f73565b005b34801561063f57600080fd5b5061065a60048036038101906106559190614852565b612014565b005b60008073ffffffffffffffffffffffffffffffffffffffff168373ffffffffffffffffffffffffffffffffffffffff16036106cc576040517f08c379a00000000000000000000000000000000000000000000000000000000081526004016106c3906148f1565b60405180910390fd5b60008083815260200190815260200160002060008473ffffffffffffffffffffffffffffffffffffffff1673ffffffffffffffffffffffffffffffffffffffff16815260200190815260200160002054905092915050565b60007fd9b67a26000000000000000000000000000000000000000000000000000000007bffffffffffffffffffffffffffffffffffffffffffffffffffffffff1916827bffffffffffffffffffffffffffffffffffffffffffffffffffffffff191614806107ef57507f0e89341c000000000000000000000000000000000000000000000000000000007bffffffffffffffffffffffffffffffffffffffffffffffffffffffff1916827bffffffffffffffffffffffffffffffffffffffffffffffffffffffff1916145b806107ff57506107fe82612097565b5b9050919050565b6060600060046000848152602001908152602001600020805461082890614940565b80601f016020809104026020016040519081016040528092919081815260200182805461085490614940565b80156108a15780601f10610876576101008083540402835291602001916108a1565b820191906000526020600020905b81548152906001019060200180831161088457829003601f168201915b5050505050905060008151116108bf576108ba83612101565b6108e3565b6003816040516020016108d3929190614a45565b6040516020818303038152906040525b915050919050565b6000600f6000836000015181526020019081526020016000206000836020015173ffffffffffffffffffffffffffffffffffffffff1673ffffffffffffffffffffffffffffffffffffffff16815260200190815260200160002054905060006109546010612195565b9050600e60006001836109679190614a98565b8152602001908152602001600020600e6000848152602001908152602001600020600082015481600001556001820160009054906101000a900473ffffffffffffffffffffffffffffffffffffffff168160010160006101000a81548173ffffffffffffffffffffffffffffffffffffffff021916908373ffffffffffffffffffffffffffffffffffffffff160217905550905050600e6000600183610a0d9190614a98565b81526020019081526020016000206000808201600090556001820160006101000a81549073ffffffffffffffffffffffffffffffffffffffff02191690555050610a5760106121a3565b505050565b600080610a69838561065c565b11905092915050565b60606000610a806010612195565b67ffffffffffffffff811115610a9957610a98613bed565b5b604051908082528060200260200182016040528015610ad257816020015b610abf6138c7565b815260200190600190039081610ab75790505b5090506000805b610ae36010612195565b811015610cd5576000600e6000838152602001908152602001600020604051806040016040529081600082015481526020016001820160009054906101000a900473ffffffffffffffffffffffffffffffffffffffff1673ffffffffffffffffffffffffffffffffffffffff1673ffffffffffffffffffffffffffffffffffffffff168152505090506000600a6000836000015181526020019081526020016000206000836020015173ffffffffffffffffffffffffffffffffffffffff1673ffffffffffffffffffffffffffffffffffffffff168152602001908152602001600020604051806080016040529081600082015481526020016001820160009054906101000a900473ffffffffffffffffffffffffffffffffffffffff1673ffffffffffffffffffffffffffffffffffffffff1673ffffffffffffffffffffffffffffffffffffffff1681526020016002820154815260200160038201548152505090506000816000015114158015610c8d5750600073ffffffffffffffffffffffffffffffffffffffff16816020015173ffffffffffffffffffffffffffffffffffffffff1614155b15610cc05780858581518110610ca657610ca5614acc565b5b60200260200101819052508380610cbc90614afb565b9450505b50508080610ccd90614afb565b915050610ad9565b50819250505090565b6000600a600085815260200190815260200160002060008473ffffffffffffffffffffffffffffffffffffffff1673ffffffffffffffffffffffffffffffffffffffff168152602001908152602001600020604051806080016040529081600082015481526020016001820160009054906101000a900473ffffffffffffffffffffffffffffffffffffffff1673ffffffffffffffffffffffffffffffffffffffff1673ffffffffffffffffffffffffffffffffffffffff168152602001600282015481526020016003820154815250509050806020015173ffffffffffffffffffffffffffffffffffffffff163373ffffffffffffffffffffffffffffffffffffffff1603610e23576040517f08c379a0000000000000000000000000000000000000000000000000000000008152600401610e1a90614bb5565b60405180910390fd5b806040015182610e339190614bd5565b3414610e74576040517f08c379a0000000000000000000000000000000000000000000000000000000008152600401610e6b90614c63565b60405180910390fd5b80606001518211158015610e885750600082115b610ec7576040517f08c379a0000000000000000000000000000000000000000000000000000000008152600401610ebe90614ccf565b60405180910390fd5b6000816040015183610ed99190614bd5565b9050610ee6858486611159565b610f0284338786604051806020016040528060008152506121ff565b8373ffffffffffffffffffffffffffffffffffffffff166108fc829081150290604051600060405180830381858888f19350505050158015610f48573d6000803e3d6000fd5b505050505050565b610f5861249a565b73ffffffffffffffffffffffffffffffffffffffff168573ffffffffffffffffffffffffffffffffffffffff161480610f9e5750610f9d85610f9861249a565b611d69565b5b610fdd576040517f08c379a0000000000000000000000000000000000000000000000000000000008152600401610fd490614d61565b60405180910390fd5b610fea85858585856124a2565b5050505050565b6000610ffc83611cd0565b1561103c576040517f08c379a000000000000000000000000000000000000000000000000000000000815260040161103390614dcd565b60405180910390fd5b60008211801561104e57506006548211155b61108d576040517f08c379a000000000000000000000000000000000000000000000000000000000815260040161108490614e5f565b60405180910390fd5b60075434146110d1576040517f08c379a00000000000000000000000000000000000000000000000000000000081526004016110c890614ef1565b60405180910390fd5b6110db60086127c3565b60006110e76008612195565b9050611104338285604051806020016040528060008152506127d9565b61110e8185612989565b61111881846129ee565b6001600b8560405161112a9190614f11565b908152602001604051809103902060006101000a81548160ff0219169083151502179055508091505092915050565b6111638382610a5c565b6111a2576040517f08c379a000000000000000000000000000000000000000000000000000000000815260040161119990614f9a565b60405180910390fd5b600082116111e5576040517f08c379a00000000000000000000000000000000000000000000000000000000081526004016111dc9061502c565b60405180910390fd5b6000600a600085815260200190815260200160002060008373ffffffffffffffffffffffffffffffffffffffff1673ffffffffffffffffffffffffffffffffffffffff168152602001908152602001600020604051806080016040529081600082015481526020016001820160009054906101000a900473ffffffffffffffffffffffffffffffffffffffff1673ffffffffffffffffffffffffffffffffffffffff1673ffffffffffffffffffffffffffffffffffffffff16815260200160028201548152602001600382015481525050905060008160600151116112ff576040517f08c379a00000000000000000000000000000000000000000000000000000000081526004016112f690615098565b60405180910390fd5b806060015183101561137a5782600a600086815260200190815260200160002060008473ffffffffffffffffffffffffffffffffffffffff1673ffffffffffffffffffffffffffffffffffffffff168152602001908152602001600020600301600082825461136e9190614a98565b92505081905550611440565b6113ad60405180604001604052808681526020018473ffffffffffffffffffffffffffffffffffffffff168152506108eb565b600a600085815260200190815260200160002060008373ffffffffffffffffffffffffffffffffffffffff1673ffffffffffffffffffffffffffffffffffffffff1681526020019081526020016000206000808201600090556001820160006101000a81549073ffffffffffffffffffffffffffffffffffffffff02191690556002820160009055600382016000905550505b50505050565b6060815183511461148c576040517f08c379a00000000000000000000000000000000000000000000000000000000081526004016114839061512a565b60405180910390fd5b6000835167ffffffffffffffff8111156114a9576114a8613bed565b5b6040519080825280602002602001820160405280156114d75781602001602082028036833780820191505090505b50905060005b8451811015611554576115248582815181106114fc576114fb614acc565b5b602002602001015185838151811061151757611516614acc565b5b602002602001015161065c565b82828151811061153757611536614acc565b5b6020026020010181815250508061154d90614afb565b90506114dd565b508091505092915050565b6115698333610a5c565b6115a8576040517f08c379a000000000000000000000000000000000000000000000000000000000815260040161159f90614f9a565b60405180910390fd5b6115b2338461065c565b816115bd8533611d0b565b6115c7919061514a565b111580156115d55750600081115b611614576040517f08c379a000000000000000000000000000000000000000000000000000000000815260040161160b906151f0565b60405180910390fd5b6007543414611658576040517f08c379a000000000000000000000000000000000000000000000000000000000815260040161164f90614ef1565b60405180910390fd5b6000600a600085815260200190815260200160002060003373ffffffffffffffffffffffffffffffffffffffff1673ffffffffffffffffffffffffffffffffffffffff168152602001908152602001600020604051806080016040529081600082015481526020016001820160009054906101000a900473ffffffffffffffffffffffffffffffffffffffff1673ffffffffffffffffffffffffffffffffffffffff1673ffffffffffffffffffffffffffffffffffffffff1681526020016002820154815260200160038201548152505090506000816000015114801561176f5750600073ffffffffffffffffffffffffffffffffffffffff16816020015173ffffffffffffffffffffffffffffffffffffffff16145b156117855761178084338585612acf565b6117f0565b81600a600086815260200190815260200160002060003373ffffffffffffffffffffffffffffffffffffffff1673ffffffffffffffffffffffffffffffffffffffff16815260200190815260200160002060030160008282546117e8919061514a565b925050819055505b50505050565b6117fe612d04565b6118086000612d82565b565b611812612d04565b60008111611855576040517f08c379a000000000000000000000000000000000000000000000000000000000815260040161184c9061525c565b60405180910390fd5b8060078190555050565b60606000600d60003373ffffffffffffffffffffffffffffffffffffffff1673ffffffffffffffffffffffffffffffffffffffff16815260200190815260200160002054905060008167ffffffffffffffff8111156118c1576118c0613bed565b5b6040519080825280602002602001820160405280156118fa57816020015b6118e76138c7565b8152602001906001900390816118df5790505b5090506000805b83811015611abf576000600c60003373ffffffffffffffffffffffffffffffffffffffff1673ffffffffffffffffffffffffffffffffffffffff16815260200190815260200160002060008381526020019081526020016000205490506000600a600083815260200190815260200160002060003373ffffffffffffffffffffffffffffffffffffffff1673ffffffffffffffffffffffffffffffffffffffff168152602001908152602001600020604051806080016040529081600082015481526020016001820160009054906101000a900473ffffffffffffffffffffffffffffffffffffffff1673ffffffffffffffffffffffffffffffffffffffff1673ffffffffffffffffffffffffffffffffffffffff1681526020016002820154815260200160038201548152505090506000816000015114158015611a775750600073ffffffffffffffffffffffffffffffffffffffff16816020015173ffffffffffffffffffffffffffffffffffffffff1614155b15611aaa5780858581518110611a9057611a8f614acc565b5b60200260200101819052508380611aa690614afb565b9450505b50508080611ab790614afb565b915050611901565b5081935050505090565b6000600560009054906101000a900473ffffffffffffffffffffffffffffffffffffffff16905090565b611b05611afe61249a565b8383612e48565b5050565b60606000600d60003373ffffffffffffffffffffffffffffffffffffffff1673ffffffffffffffffffffffffffffffffffffffff16815260200190815260200160002054905060008167ffffffffffffffff811115611b6b57611b6a613bed565b5b604051908082528060200260200182016040528015611ba457816020015b611b91613905565b815260200190600190039081611b895790505b50905060005b82811015611cc7576000600c60003373ffffffffffffffffffffffffffffffffffffffff1673ffffffffffffffffffffffffffffffffffffffff1681526020019081526020016000206000838152602001908152602001600020549050600060096000838152602001908152602001600020604051806060016040529081600082015481526020016001820160009054906101000a900473ffffffffffffffffffffffffffffffffffffffff1673ffffffffffffffffffffffffffffffffffffffff1673ffffffffffffffffffffffffffffffffffffffff168152602001600282015481525050905080848481518110611ca757611ca6614acc565b5b602002602001018190525050508080611cbf90614afb565b915050611baa565b50809250505090565b6000600b82604051611ce29190614f11565b908152602001604051809103902060009054906101000a900460ff169050919050565b60075481565b6000600a600084815260200190815260200160002060008373ffffffffffffffffffffffffffffffffffffffff1673ffffffffffffffffffffffffffffffffffffffff16815260200190815260200160002060030154905092915050565b6000600160008473ffffffffffffffffffffffffffffffffffffffff1673ffffffffffffffffffffffffffffffffffffffff16815260200190815260200160002060008373ffffffffffffffffffffffffffffffffffffffff1673ffffffffffffffffffffffffffffffffffffffff16815260200190815260200160002060009054906101000a900460ff16905092915050565b611e05613905565b60096000838152602001908152602001600020604051806060016040529081600082015481526020016001820160009054906101000a900473ffffffffffffffffffffffffffffffffffffffff1673ffffffffffffffffffffffffffffffffffffffff1673ffffffffffffffffffffffffffffffffffffffff1681526020016002820154815250509050919050565b611e9c6138c7565b600a600084815260200190815260200160002060008373ffffffffffffffffffffffffffffffffffffffff1673ffffffffffffffffffffffffffffffffffffffff168152602001908152602001600020604051806080016040529081600082015481526020016001820160009054906101000a900473ffffffffffffffffffffffffffffffffffffffff1673ffffffffffffffffffffffffffffffffffffffff1673ffffffffffffffffffffffffffffffffffffffff16815260200160028201548152602001600382015481525050905092915050565b611f7b61249a565b73ffffffffffffffffffffffffffffffffffffffff168573ffffffffffffffffffffffffffffffffffffffff161480611fc15750611fc085611fbb61249a565b611d69565b5b612000576040517f08c379a0000000000000000000000000000000000000000000000000000000008152600401611ff790614d61565b60405180910390fd5b61200d85858585856121ff565b5050505050565b61201c612d04565b600073ffffffffffffffffffffffffffffffffffffffff168173ffffffffffffffffffffffffffffffffffffffff160361208b576040517f08c379a0000000000000000000000000000000000000000000000000000000008152600401612082906152ee565b60405180910390fd5b61209481612d82565b50565b60007f01ffc9a7000000000000000000000000000000000000000000000000000000007bffffffffffffffffffffffffffffffffffffffffffffffffffffffff1916827bffffffffffffffffffffffffffffffffffffffffffffffffffffffff1916149050919050565b60606002805461211090614940565b80601f016020809104026020016040519081016040528092919081815260200182805461213c90614940565b80156121895780601f1061215e57610100808354040283529160200191612189565b820191906000526020600020905b81548152906001019060200180831161216c57829003601f168201915b50505050509050919050565b600081600001549050919050565b600081600001549050600081116121ef576040517f08c379a00000000000000000000000000000000000000000000000000000000081526004016121e69061535a565b60405180910390fd5b6001810382600001819055505050565b600073ffffffffffffffffffffffffffffffffffffffff168473ffffffffffffffffffffffffffffffffffffffff160361226e576040517f08c379a0000000000000000000000000000000000000000000000000000000008152600401612265906153ec565b60405180910390fd5b600061227861249a565b9050600061228585612fb4565b9050600061229285612fb4565b90506122a283898985858961302e565b600080600088815260200190815260200160002060008a73ffffffffffffffffffffffffffffffffffffffff1673ffffffffffffffffffffffffffffffffffffffff16815260200190815260200160002054905085811015612339576040517f08c379a00000000000000000000000000000000000000000000000000000000081526004016123309061547e565b60405180910390fd5b85810360008089815260200190815260200160002060008b73ffffffffffffffffffffffffffffffffffffffff1673ffffffffffffffffffffffffffffffffffffffff168152602001908152602001600020819055508560008089815260200190815260200160002060008a73ffffffffffffffffffffffffffffffffffffffff1673ffffffffffffffffffffffffffffffffffffffff16815260200190815260200160002060008282546123ee919061514a565b925050819055508773ffffffffffffffffffffffffffffffffffffffff168973ffffffffffffffffffffffffffffffffffffffff168573ffffffffffffffffffffffffffffffffffffffff167fc3d58168c5ae7397731d063d5bbf3d657854427343f4c083240f7aacaa2d0f628a8a60405161246b92919061549e565b60405180910390a4612481848a8a86868a6131cd565b61248f848a8a8a8a8a6131d5565b505050505050505050565b600033905090565b81518351146124e6576040517f08c379a00000000000000000000000000000000000000000000000000000000081526004016124dd90615539565b60405180910390fd5b600073ffffffffffffffffffffffffffffffffffffffff168473ffffffffffffffffffffffffffffffffffffffff1603612555576040517f08c379a000000000000000000000000000000000000000000000000000000000815260040161254c906153ec565b60405180910390fd5b600061255f61249a565b905061256f81878787878761302e565b60005b84518110156127205760008582815181106125905761258f614acc565b5b6020026020010151905060008583815181106125af576125ae614acc565b5b60200260200101519050600080600084815260200190815260200160002060008b73ffffffffffffffffffffffffffffffffffffffff1673ffffffffffffffffffffffffffffffffffffffff16815260200190815260200160002054905081811015612650576040517f08c379a00000000000000000000000000000000000000000000000000000000081526004016126479061547e565b60405180910390fd5b81810360008085815260200190815260200160002060008c73ffffffffffffffffffffffffffffffffffffffff1673ffffffffffffffffffffffffffffffffffffffff168152602001908152602001600020819055508160008085815260200190815260200160002060008b73ffffffffffffffffffffffffffffffffffffffff1673ffffffffffffffffffffffffffffffffffffffff1681526020019081526020016000206000828254612705919061514a565b925050819055505050508061271990614afb565b9050612572565b508473ffffffffffffffffffffffffffffffffffffffff168673ffffffffffffffffffffffffffffffffffffffff168273ffffffffffffffffffffffffffffffffffffffff167f4a39dc06d4c0dbc64b70af90fd698a233a518aa5d07e595d983b8c0526c8f7fb8787604051612797929190615559565b60405180910390a46127ad8187878787876131cd565b6127bb8187878787876133ac565b505050505050565b6001816000016000828254019250508190555050565b600073ffffffffffffffffffffffffffffffffffffffff168473ffffffffffffffffffffffffffffffffffffffff1603612848576040517f08c379a000000000000000000000000000000000000000000000000000000000815260040161283f90615602565b60405180910390fd5b600061285261249a565b9050600061285f85612fb4565b9050600061286c85612fb4565b905061287d8360008985858961302e565b8460008088815260200190815260200160002060008973ffffffffffffffffffffffffffffffffffffffff1673ffffffffffffffffffffffffffffffffffffffff16815260200190815260200160002060008282546128dc919061514a565b925050819055508673ffffffffffffffffffffffffffffffffffffffff16600073ffffffffffffffffffffffffffffffffffffffff168473ffffffffffffffffffffffffffffffffffffffff167fc3d58168c5ae7397731d063d5bbf3d657854427343f4c083240f7aacaa2d0f62898960405161295a92919061549e565b60405180910390a4612971836000898585896131cd565b612980836000898989896131d5565b50505050505050565b806004600084815260200190815260200160002090816129a991906157b9565b50817f6bb7ff708619ba0610cba295a58592e0451dee2622938c8755667688daf3529b6129d584610806565b6040516129e29190613bc6565b60405180910390a25050565b60405180606001604052808381526020013373ffffffffffffffffffffffffffffffffffffffff16815260200182815250600960008481526020019081526020016000206000820151816000015560208201518160010160006101000a81548173ffffffffffffffffffffffffffffffffffffffff021916908373ffffffffffffffffffffffffffffffffffffffff160217905550604082015181600201559050507f1b0894b5dbaa4e03eefef0639cb8bdd09459f893cb73161de2aad97a30c66f78823383604051612ac39392919061588b565b60405180910390a15050565b60405180608001604052808581526020018473ffffffffffffffffffffffffffffffffffffffff16815260200183815260200182815250600a600086815260200190815260200160002060008573ffffffffffffffffffffffffffffffffffffffff1673ffffffffffffffffffffffffffffffffffffffff1681526020019081526020016000206000820151816000015560208201518160010160006101000a81548173ffffffffffffffffffffffffffffffffffffffff021916908373ffffffffffffffffffffffffffffffffffffffff160217905550604082015181600201556060820151816003015590505060405180604001604052808581526020018473ffffffffffffffffffffffffffffffffffffffff16815250600e6000612bf76010612195565b81526020019081526020016000206000820151816000015560208201518160010160006101000a81548173ffffffffffffffffffffffffffffffffffffffff021916908373ffffffffffffffffffffffffffffffffffffffff160217905550905050612c636010612195565b600f600086815260200190815260200160002060008573ffffffffffffffffffffffffffffffffffffffff1673ffffffffffffffffffffffffffffffffffffffff16815260200190815260200160002081905550612cc160106127c3565b7f5b83511fd1d3d8bfdab85700518eb12ccc021d17b8de38ab1acdd99d9705a40284848484604051612cf694939291906158c2565b60405180910390a150505050565b612d0c61249a565b73ffffffffffffffffffffffffffffffffffffffff16612d2a611ac9565b73ffffffffffffffffffffffffffffffffffffffff1614612d80576040517f08c379a0000000000000000000000000000000000000000000000000000000008152600401612d7790615953565b60405180910390fd5b565b6000600560009054906101000a900473ffffffffffffffffffffffffffffffffffffffff16905081600560006101000a81548173ffffffffffffffffffffffffffffffffffffffff021916908373ffffffffffffffffffffffffffffffffffffffff1602179055508173ffffffffffffffffffffffffffffffffffffffff168173ffffffffffffffffffffffffffffffffffffffff167f8be0079c531659141344cd1fd0a4f28419497f9722a3daafe3b4186f6b6457e060405160405180910390a35050565b8173ffffffffffffffffffffffffffffffffffffffff168373ffffffffffffffffffffffffffffffffffffffff1603612eb6576040517f08c379a0000000000000000000000000000000000000000000000000000000008152600401612ead906159e5565b60405180910390fd5b80600160008573ffffffffffffffffffffffffffffffffffffffff1673ffffffffffffffffffffffffffffffffffffffff16815260200190815260200160002060008473ffffffffffffffffffffffffffffffffffffffff1673ffffffffffffffffffffffffffffffffffffffff16815260200190815260200160002060006101000a81548160ff0219169083151502179055508173ffffffffffffffffffffffffffffffffffffffff168373ffffffffffffffffffffffffffffffffffffffff167f17307eab39ab6107e8899845ad3d59bd9653f200f220920489ca2b5937696c3183604051612fa79190613aee565b60405180910390a3505050565b60606000600167ffffffffffffffff811115612fd357612fd2613bed565b5b6040519080825280602002602001820160405280156130015781602001602082028036833780820191505090505b509050828160008151811061301957613018614acc565b5b60200260200101818152505080915050919050565b61303c868686868686613583565b600073ffffffffffffffffffffffffffffffffffffffff168573ffffffffffffffffffffffffffffffffffffffff161480156130a55750600073ffffffffffffffffffffffffffffffffffffffff168473ffffffffffffffffffffffffffffffffffffffff1614155b156130d6576000836000815181106130c0576130bf614acc565b5b602002602001015190506130d4858261358b565b505b600073ffffffffffffffffffffffffffffffffffffffff168573ffffffffffffffffffffffffffffffffffffffff16141580156131405750600073ffffffffffffffffffffffffffffffffffffffff168473ffffffffffffffffffffffffffffffffffffffff1614155b801561317857508473ffffffffffffffffffffffffffffffffffffffff168473ffffffffffffffffffffffffffffffffffffffff1614155b156131c55760008360008151811061319357613192614acc565b5b602002602001015190506131a7858261358b565b60006131b3878361065c565b036131c3576131c2868261367e565b5b505b505050505050565b505050505050565b6131f48473ffffffffffffffffffffffffffffffffffffffff166138a4565b156133a4578373ffffffffffffffffffffffffffffffffffffffff1663f23a6e6187878686866040518663ffffffff1660e01b815260040161323a959493929190615a5a565b6020604051808303816000875af192505050801561327657506040513d601f19601f820116820180604052508101906132739190615ac9565b60015b61331b57613282615b03565b806308c379a0036132de5750613296615b25565b806132a157506132e0565b806040517f08c379a00000000000000000000000000000000000000000000000000000000081526004016132d59190613bc6565b60405180910390fd5b505b6040517f08c379a000000000000000000000000000000000000000000000000000000000815260040161331290615c27565b60405180910390fd5b63f23a6e6160e01b7bffffffffffffffffffffffffffffffffffffffffffffffffffffffff1916817bffffffffffffffffffffffffffffffffffffffffffffffffffffffff1916146133a2576040517f08c379a000000000000000000000000000000000000000000000000000000000815260040161339990615cb9565b60405180910390fd5b505b505050505050565b6133cb8473ffffffffffffffffffffffffffffffffffffffff166138a4565b1561357b578373ffffffffffffffffffffffffffffffffffffffff1663bc197c8187878686866040518663ffffffff1660e01b8152600401613411959493929190615cd9565b6020604051808303816000875af192505050801561344d57506040513d601f19601f8201168201806040525081019061344a9190615ac9565b60015b6134f257613459615b03565b806308c379a0036134b5575061346d615b25565b8061347857506134b7565b806040517f08c379a00000000000000000000000000000000000000000000000000000000081526004016134ac9190613bc6565b60405180910390fd5b505b6040517f08c379a00000000000000000000000000000000000000000000000000000000081526004016134e990615c27565b60405180910390fd5b63bc197c8160e01b7bffffffffffffffffffffffffffffffffffffffffffffffffffffffff1916817bffffffffffffffffffffffffffffffffffffffffffffffffffffffff191614613579576040517f08c379a000000000000000000000000000000000000000000000000000000000815260040161357090615cb9565b60405180910390fd5b505b505050505050565b505050505050565b6000600d60008473ffffffffffffffffffffffffffffffffffffffff1673ffffffffffffffffffffffffffffffffffffffff16815260200190815260200160002054905081600c60008573ffffffffffffffffffffffffffffffffffffffff1673ffffffffffffffffffffffffffffffffffffffff168152602001908152602001600020600083815260200190815260200160002081905550600d60008473ffffffffffffffffffffffffffffffffffffffff1673ffffffffffffffffffffffffffffffffffffffff168152602001908152602001600020600081548092919061367490614afb565b9190505550505050565b60006001600d60008573ffffffffffffffffffffffffffffffffffffffff1673ffffffffffffffffffffffffffffffffffffffff168152602001908152602001600020546136cc9190614a98565b905060005b6001826136de919061514a565b8110156137f557600c60008573ffffffffffffffffffffffffffffffffffffffff1673ffffffffffffffffffffffffffffffffffffffff16815260200190815260200160002060008281526020019081526020016000205483036137e257600c60008573ffffffffffffffffffffffffffffffffffffffff1673ffffffffffffffffffffffffffffffffffffffff168152602001908152602001600020600083815260200190815260200160002054600c60008673ffffffffffffffffffffffffffffffffffffffff1673ffffffffffffffffffffffffffffffffffffffff1681526020019081526020016000206000838152602001908152602001600020819055505b80806137ed90614afb565b9150506136d1565b50600d60008473ffffffffffffffffffffffffffffffffffffffff1673ffffffffffffffffffffffffffffffffffffffff168152602001908152602001600020600081548092919061384690615d41565b9190505550600c60008473ffffffffffffffffffffffffffffffffffffffff1673ffffffffffffffffffffffffffffffffffffffff168152602001908152602001600020600082815260200190815260200160002060009055505050565b6000808273ffffffffffffffffffffffffffffffffffffffff163b119050919050565b604051806080016040528060008152602001600073ffffffffffffffffffffffffffffffffffffffff16815260200160008152602001600081525090565b604051806060016040528060008152602001600073ffffffffffffffffffffffffffffffffffffffff168152602001600081525090565b6000604051905090565b600080fd5b600080fd5b600073ffffffffffffffffffffffffffffffffffffffff82169050919050565b600061397b82613950565b9050919050565b61398b81613970565b811461399657600080fd5b50565b6000813590506139a881613982565b92915050565b6000819050919050565b6139c1816139ae565b81146139cc57600080fd5b50565b6000813590506139de816139b8565b92915050565b600080604083850312156139fb576139fa613946565b5b6000613a0985828601613999565b9250506020613a1a858286016139cf565b9150509250929050565b613a2d816139ae565b82525050565b6000602082019050613a486000830184613a24565b92915050565b60007fffffffff0000000000000000000000000000000000000000000000000000000082169050919050565b613a8381613a4e565b8114613a8e57600080fd5b50565b600081359050613aa081613a7a565b92915050565b600060208284031215613abc57613abb613946565b5b6000613aca84828501613a91565b91505092915050565b60008115159050919050565b613ae881613ad3565b82525050565b6000602082019050613b036000830184613adf565b92915050565b600060208284031215613b1f57613b1e613946565b5b6000613b2d848285016139cf565b91505092915050565b600081519050919050565b600082825260208201905092915050565b60005b83811015613b70578082015181840152602081019050613b55565b60008484015250505050565b6000601f19601f8301169050919050565b6000613b9882613b36565b613ba28185613b41565b9350613bb2818560208601613b52565b613bbb81613b7c565b840191505092915050565b60006020820190508181036000830152613be08184613b8d565b905092915050565b600080fd5b7f4e487b7100000000000000000000000000000000000000000000000000000000600052604160045260246000fd5b613c2582613b7c565b810181811067ffffffffffffffff82111715613c4457613c43613bed565b5b80604052505050565b6000613c5761393c565b9050613c638282613c1c565b919050565b600060408284031215613c7e57613c7d613be8565b5b613c886040613c4d565b90506000613c98848285016139cf565b6000830152506020613cac84828501613999565b60208301525092915050565b600060408284031215613cce57613ccd613946565b5b6000613cdc84828501613c68565b91505092915050565b60008060408385031215613cfc57613cfb613946565b5b6000613d0a858286016139cf565b9250506020613d1b85828601613999565b9150509250929050565b600081519050919050565b600082825260208201905092915050565b6000819050602082019050919050565b613d5a816139ae565b82525050565b613d6981613970565b82525050565b608082016000820151613d856000850182613d51565b506020820151613d986020850182613d60565b506040820151613dab6040850182613d51565b506060820151613dbe6060850182613d51565b50505050565b6000613dd08383613d6f565b60808301905092915050565b6000602082019050919050565b6000613df482613d25565b613dfe8185613d30565b9350613e0983613d41565b8060005b83811015613e3a578151613e218882613dc4565b9750613e2c83613ddc565b925050600181019050613e0d565b5085935050505092915050565b60006020820190508181036000830152613e618184613de9565b905092915050565b600080600060608486031215613e8257613e81613946565b5b6000613e90868287016139cf565b9350506020613ea186828701613999565b9250506040613eb2868287016139cf565b9150509250925092565b600080fd5b600067ffffffffffffffff821115613edc57613edb613bed565b5b602082029050602081019050919050565b600080fd5b6000613f05613f0084613ec1565b613c4d565b90508083825260208201905060208402830185811115613f2857613f27613eed565b5b835b81811015613f515780613f3d88826139cf565b845260208401935050602081019050613f2a565b5050509392505050565b600082601f830112613f7057613f6f613ebc565b5b8135613f80848260208601613ef2565b91505092915050565b600080fd5b600067ffffffffffffffff821115613fa957613fa8613bed565b5b613fb282613b7c565b9050602081019050919050565b82818337600083830152505050565b6000613fe1613fdc84613f8e565b613c4d565b905082815260208101848484011115613ffd57613ffc613f89565b5b614008848285613fbf565b509392505050565b600082601f83011261402557614024613ebc565b5b8135614035848260208601613fce565b91505092915050565b600080600080600060a0868803121561405a57614059613946565b5b600061406888828901613999565b955050602061407988828901613999565b945050604086013567ffffffffffffffff81111561409a5761409961394b565b5b6140a688828901613f5b565b935050606086013567ffffffffffffffff8111156140c7576140c661394b565b5b6140d388828901613f5b565b925050608086013567ffffffffffffffff8111156140f4576140f361394b565b5b61410088828901614010565b9150509295509295909350565b600067ffffffffffffffff82111561412857614127613bed565b5b61413182613b7c565b9050602081019050919050565b600061415161414c8461410d565b613c4d565b90508281526020810184848401111561416d5761416c613f89565b5b614178848285613fbf565b509392505050565b600082601f83011261419557614194613ebc565b5b81356141a584826020860161413e565b91505092915050565b600080604083850312156141c5576141c4613946565b5b600083013567ffffffffffffffff8111156141e3576141e261394b565b5b6141ef85828601614180565b9250506020614200858286016139cf565b9150509250929050565b60008060006060848603121561422357614222613946565b5b6000614231868287016139cf565b9350506020614242868287016139cf565b925050604061425386828701613999565b9150509250925092565b600067ffffffffffffffff82111561427857614277613bed565b5b602082029050602081019050919050565b600061429c6142978461425d565b613c4d565b905080838252602082019050602084028301858111156142bf576142be613eed565b5b835b818110156142e857806142d48882613999565b8452602084019350506020810190506142c1565b5050509392505050565b600082601f83011261430757614306613ebc565b5b8135614317848260208601614289565b91505092915050565b6000806040838503121561433757614336613946565b5b600083013567ffffffffffffffff8111156143555761435461394b565b5b614361858286016142f2565b925050602083013567ffffffffffffffff8111156143825761438161394b565b5b61438e85828601613f5b565b9150509250929050565b600081519050919050565b600082825260208201905092915050565b6000819050602082019050919050565b60006143d08383613d51565b60208301905092915050565b6000602082019050919050565b60006143f482614398565b6143fe81856143a3565b9350614409836143b4565b8060005b8381101561443a57815161442188826143c4565b975061442c836143dc565b92505060018101905061440d565b5085935050505092915050565b6000602082019050818103600083015261446181846143e9565b905092915050565b60008060006060848603121561448257614481613946565b5b6000614490868287016139cf565b93505060206144a1868287016139cf565b92505060406144b2868287016139cf565b9150509250925092565b6144c581613970565b82525050565b60006020820190506144e060008301846144bc565b92915050565b6144ef81613ad3565b81146144fa57600080fd5b50565b60008135905061450c816144e6565b92915050565b6000806040838503121561452957614528613946565b5b600061453785828601613999565b9250506020614548858286016144fd565b9150509250929050565b600081519050919050565b600082825260208201905092915050565b6000819050602082019050919050565b6060820160008201516145946000850182613d51565b5060208201516145a76020850182613d60565b5060408201516145ba6040850182613d51565b50505050565b60006145cc838361457e565b60608301905092915050565b6000602082019050919050565b60006145f082614552565b6145fa818561455d565b93506146058361456e565b8060005b8381101561463657815161461d88826145c0565b9750614628836145d8565b925050600181019050614609565b5085935050505092915050565b6000602082019050818103600083015261465d81846145e5565b905092915050565b60006020828403121561467b5761467a613946565b5b600082013567ffffffffffffffff8111156146995761469861394b565b5b6146a584828501614180565b91505092915050565b600080604083850312156146c5576146c4613946565b5b60006146d385828601613999565b92505060206146e485828601613999565b9150509250929050565b6060820160008201516147046000850182613d51565b5060208201516147176020850182613d60565b50604082015161472a6040850182613d51565b50505050565b600060608201905061474560008301846146ee565b92915050565b6080820160008201516147616000850182613d51565b5060208201516147746020850182613d60565b5060408201516147876040850182613d51565b50606082015161479a6060850182613d51565b50505050565b60006080820190506147b5600083018461474b565b92915050565b600080600080600060a086880312156147d7576147d6613946565b5b60006147e588828901613999565b95505060206147f688828901613999565b9450506040614807888289016139cf565b9350506060614818888289016139cf565b925050608086013567ffffffffffffffff8111156148395761483861394b565b5b61484588828901614010565b9150509295509295909350565b60006020828403121561486857614867613946565b5b600061487684828501613999565b91505092915050565b7f455243313135353a2061646472657373207a65726f206973206e6f742061207660008201527f616c6964206f776e657200000000000000000000000000000000000000000000602082015250565b60006148db602a83613b41565b91506148e68261487f565b604082019050919050565b6000602082019050818103600083015261490a816148ce565b9050919050565b7f4e487b7100000000000000000000000000000000000000000000000000000000600052602260045260246000fd5b6000600282049050600182168061495857607f821691505b60208210810361496b5761496a614911565b5b50919050565b600081905092915050565b60008190508160005260206000209050919050565b6000815461499e81614940565b6149a88186614971565b945060018216600081146149c357600181146149d857614a0b565b60ff1983168652811515820286019350614a0b565b6149e18561497c565b60005b83811015614a03578154818901526001820191506020810190506149e4565b838801955050505b50505092915050565b6000614a1f82613b36565b614a298185614971565b9350614a39818560208601613b52565b80840191505092915050565b6000614a518285614991565b9150614a5d8284614a14565b91508190509392505050565b7f4e487b7100000000000000000000000000000000000000000000000000000000600052601160045260246000fd5b6000614aa3826139ae565b9150614aae836139ae565b9250828203905081811115614ac657614ac5614a69565b5b92915050565b7f4e487b7100000000000000000000000000000000000000000000000000000000600052603260045260246000fd5b6000614b06826139ae565b91507fffffffffffffffffffffffffffffffffffffffffffffffffffffffffffffffff8203614b3857614b37614a69565b5b600182019050919050565b7f596f752063616e27742062757920796f7572206f776e20626f6f6b73206f6e2060008201527f73616c6500000000000000000000000000000000000000000000000000000000602082015250565b6000614b9f602483613b41565b9150614baa82614b43565b604082019050919050565b60006020820190508181036000830152614bce81614b92565b9050919050565b6000614be0826139ae565b9150614beb836139ae565b9250828202614bf9816139ae565b91508282048414831517614c1057614c0f614a69565b5b5092915050565b7f506c65617365207375626d6974207468652061736b696e672070726963650000600082015250565b6000614c4d601e83613b41565b9150614c5882614c17565b602082019050919050565b60006020820190508181036000830152614c7c81614c40565b9050919050565b7f416d6f756e7420697320696e76616c6964000000000000000000000000000000600082015250565b6000614cb9601183613b41565b9150614cc482614c83565b602082019050919050565b60006020820190508181036000830152614ce881614cac565b9050919050565b7f455243313135353a2063616c6c6572206973206e6f7420746f6b656e206f776e60008201527f6572206f7220617070726f766564000000000000000000000000000000000000602082015250565b6000614d4b602e83613b41565b9150614d5682614cef565b604082019050919050565b60006020820190508181036000830152614d7a81614d3e565b9050919050565b7f546f6b656e2055524920616c7265616479206578697374730000000000000000600082015250565b6000614db7601883613b41565b9150614dc282614d81565b602082019050919050565b60006020820190508181036000830152614de681614daa565b9050919050565b7f546865206e756d626572206f6620626f6f6b7320796f752077616e7420746f2060008201527f7075626c697368206973206e6f7420617070726f707269617465000000000000602082015250565b6000614e49603a83613b41565b9150614e5482614ded565b604082019050919050565b60006020820190508181036000830152614e7881614e3c565b9050919050565b7f5072696365206d75737420626520657175616c20746f206c697374696e67207060008201527f7269636500000000000000000000000000000000000000000000000000000000602082015250565b6000614edb602483613b41565b9150614ee682614e7f565b604082019050919050565b60006020820190508181036000830152614f0a81614ece565b9050919050565b6000614f1d8284614a14565b915081905092915050565b7f596f7520617265206e6f7420746865206f776e6572206f66207468697320746f60008201527f6b656e0000000000000000000000000000000000000000000000000000000000602082015250565b6000614f84602383613b41565b9150614f8f82614f28565b604082019050919050565b60006020820190508181036000830152614fb381614f77565b9050919050565b7f72656d6f76656420616d6f756e74206f6620626f6f6b20697320696e76616c6960008201527f6400000000000000000000000000000000000000000000000000000000000000602082015250565b6000615016602183613b41565b915061502182614fba565b604082019050919050565b6000602082019050818103600083015261504581615009565b9050919050565b7f596f757220626f6f6b20617265206e6f74206f6e2073616c6500000000000000600082015250565b6000615082601983613b41565b915061508d8261504c565b602082019050919050565b600060208201905081810360008301526150b181615075565b9050919050565b7f455243313135353a206163636f756e747320616e6420696473206c656e67746860008201527f206d69736d617463680000000000000000000000000000000000000000000000602082015250565b6000615114602983613b41565b915061511f826150b8565b604082019050919050565b6000602082019050818103600083015261514381615107565b9050919050565b6000615155826139ae565b9150615160836139ae565b925082820190508082111561517857615177614a69565b5b92915050565b7f596f7520646f6e2774206861766520656e6f75676820626f6f6b7320746f207360008201527f656c6c0000000000000000000000000000000000000000000000000000000000602082015250565b60006151da602383613b41565b91506151e58261517e565b604082019050919050565b60006020820190508181036000830152615209816151cd565b9050919050565b7f5072696365206d757374206265206174206c6561737420312077656900000000600082015250565b6000615246601c83613b41565b915061525182615210565b602082019050919050565b6000602082019050818103600083015261527581615239565b9050919050565b7f4f776e61626c653a206e6577206f776e657220697320746865207a65726f206160008201527f6464726573730000000000000000000000000000000000000000000000000000602082015250565b60006152d8602683613b41565b91506152e38261527c565b604082019050919050565b60006020820190508181036000830152615307816152cb565b9050919050565b7f436f756e7465723a2064656372656d656e74206f766572666c6f770000000000600082015250565b6000615344601b83613b41565b915061534f8261530e565b602082019050919050565b6000602082019050818103600083015261537381615337565b9050919050565b7f455243313135353a207472616e7366657220746f20746865207a65726f20616460008201527f6472657373000000000000000000000000000000000000000000000000000000602082015250565b60006153d6602583613b41565b91506153e18261537a565b604082019050919050565b60006020820190508181036000830152615405816153c9565b9050919050565b7f455243313135353a20696e73756666696369656e742062616c616e636520666f60008201527f72207472616e7366657200000000000000000000000000000000000000000000602082015250565b6000615468602a83613b41565b91506154738261540c565b604082019050919050565b600060208201905081810360008301526154978161545b565b9050919050565b60006040820190506154b36000830185613a24565b6154c06020830184613a24565b9392505050565b7f455243313135353a2069647320616e6420616d6f756e7473206c656e6774682060008201527f6d69736d61746368000000000000000000000000000000000000000000000000602082015250565b6000615523602883613b41565b915061552e826154c7565b604082019050919050565b6000602082019050818103600083015261555281615516565b9050919050565b6000604082019050818103600083015261557381856143e9565b9050818103602083015261558781846143e9565b90509392505050565b7f455243313135353a206d696e7420746f20746865207a65726f2061646472657360008201527f7300000000000000000000000000000000000000000000000000000000000000602082015250565b60006155ec602183613b41565b91506155f782615590565b604082019050919050565b6000602082019050818103600083015261561b816155df565b9050919050565b60006020601f8301049050919050565b600082821b905092915050565b60006008830261566f7fffffffffffffffffffffffffffffffffffffffffffffffffffffffffffffffff82615632565b6156798683615632565b95508019841693508086168417925050509392505050565b6000819050919050565b60006156b66156b16156ac846139ae565b615691565b6139ae565b9050919050565b6000819050919050565b6156d08361569b565b6156e46156dc826156bd565b84845461563f565b825550505050565b600090565b6156f96156ec565b6157048184846156c7565b505050565b5b818110156157285761571d6000826156f1565b60018101905061570a565b5050565b601f82111561576d5761573e8161497c565b61574784615622565b81016020851015615756578190505b61576a61576285615622565b830182615709565b50505b505050565b600082821c905092915050565b600061579060001984600802615772565b1980831691505092915050565b60006157a9838361577f565b9150826002028217905092915050565b6157c282613b36565b67ffffffffffffffff8111156157db576157da613bed565b5b6157e58254614940565b6157f082828561572c565b600060209050601f8311600181146158235760008415615811578287015190505b61581b858261579d565b865550615883565b601f1984166158318661497c565b60005b8281101561585957848901518255600182019150602085019450602081019050615834565b868310156158765784890151615872601f89168261577f565b8355505b6001600288020188555050505b505050505050565b60006060820190506158a06000830186613a24565b6158ad60208301856144bc565b6158ba6040830184613a24565b949350505050565b60006080820190506158d76000830187613a24565b6158e460208301866144bc565b6158f16040830185613a24565b6158fe6060830184613a24565b95945050505050565b7f4f776e61626c653a2063616c6c6572206973206e6f7420746865206f776e6572600082015250565b600061593d602083613b41565b915061594882615907565b602082019050919050565b6000602082019050818103600083015261596c81615930565b9050919050565b7f455243313135353a2073657474696e6720617070726f76616c2073746174757360008201527f20666f722073656c660000000000000000000000000000000000000000000000602082015250565b60006159cf602983613b41565b91506159da82615973565b604082019050919050565b600060208201905081810360008301526159fe816159c2565b9050919050565b600081519050919050565b600082825260208201905092915050565b6000615a2c82615a05565b615a368185615a10565b9350615a46818560208601613b52565b615a4f81613b7c565b840191505092915050565b600060a082019050615a6f60008301886144bc565b615a7c60208301876144bc565b615a896040830186613a24565b615a966060830185613a24565b8181036080830152615aa88184615a21565b90509695505050505050565b600081519050615ac381613a7a565b92915050565b600060208284031215615adf57615ade613946565b5b6000615aed84828501615ab4565b91505092915050565b60008160e01c9050919050565b600060033d1115615b225760046000803e615b1f600051615af6565b90505b90565b600060443d10615bb257615b3761393c565b60043d036004823e80513d602482011167ffffffffffffffff82111715615b5f575050615bb2565b808201805167ffffffffffffffff811115615b7d5750505050615bb2565b80602083010160043d038501811115615b9a575050505050615bb2565b615ba982602001850186613c1c565b82955050505050505b90565b7f455243313135353a207472616e7366657220746f206e6f6e2d4552433131353560008201527f526563656976657220696d706c656d656e746572000000000000000000000000602082015250565b6000615c11603483613b41565b9150615c1c82615bb5565b604082019050919050565b60006020820190508181036000830152615c4081615c04565b9050919050565b7f455243313135353a204552433131353552656365697665722072656a6563746560008201527f6420746f6b656e73000000000000000000000000000000000000000000000000602082015250565b6000615ca3602883613b41565b9150615cae82615c47565b604082019050919050565b60006020820190508181036000830152615cd281615c96565b9050919050565b600060a082019050615cee60008301886144bc565b615cfb60208301876144bc565b8181036040830152615d0d81866143e9565b90508181036060830152615d2181856143e9565b90508181036080830152615d358184615a21565b90509695505050505050565b6000615d4c826139ae565b915060008203615d5f57615d5e614a69565b5b60018203905091905056fea2646970667358221220322f8111d6cfc463b4ea943394192c0ad3f4085236c654df2641c8d1dc7887d264736f6c6343000811003368747470733a2f2f6578616d706c652e636f6d2f6170692f7b69647d2e6a736f6e",
  "immutableReferences": {},
  "source": "// SPDX-License-Identifier: MIT\r\n\r\npragma solidity >=0.4.22 <0.9.0;\r\nimport \"@openzeppelin/contracts/token/ERC1155/extensions/ERC1155URIStorage.sol\";\r\nimport \"@openzeppelin/contracts/utils/Counters.sol\";\r\nimport \"@openzeppelin/contracts/access/Ownable.sol\";\r\n\r\ncontract BookStore is ERC1155URIStorage, Ownable {\r\n  using Counters for Counters.Counter;\r\n\r\n  struct NFTBook {\r\n    uint256 tokenId;\r\n    address author;\r\n    uint256 balance;\r\n  }\r\n\r\n  event NFTBookCreated (\r\n    uint256 tokenId,\r\n    address author,\r\n    uint256 balance\r\n  );\r\n\r\n  struct ListedBook {\r\n    uint256 tokenId;\r\n    address seller;\r\n    uint price;\r\n    uint amount;\r\n  }\r\n\r\n  struct PrimaryKeyListedBook {\r\n    uint256 tokenId;\r\n    address seller;\r\n  }\r\n\r\n  event ListedBookCreated (\r\n    uint tokenId,\r\n    address seller,\r\n    uint price,\r\n    uint amount\r\n  );\r\n\r\n  uint MAX_BALANCE = 500;\r\n  uint public listingPrice = 0.025 ether;\r\n  Counters.Counter private _tokenIds;\r\n\r\n  mapping (uint => NFTBook) _idToNFTBook;\r\n  mapping (uint => mapping (address => ListedBook)) _keyToListedBook; // Key is tokenId and seller\r\n  mapping (string => bool) private _usedTokenURIs;\r\n\r\n  mapping(address => mapping(uint => uint)) private _ownedTokens;\r\n  mapping(address => uint) private _totalOwnedToken;\r\n\r\n  mapping(uint => PrimaryKeyListedBook) private _allListedBook;\r\n  mapping (uint => mapping (address => uint)) _keyToIndexAllListedBooks; // Key is tokenId and seller\r\n  Counters.Counter private _listedBooks;\r\n\r\n  constructor() ERC1155(\"https://example.com/api/{id}.json\") {}\r\n\r\n  function setListingPrice(uint newPrice) external onlyOwner {\r\n    require(newPrice > 0, \"Price must be at least 1 wei\");\r\n    listingPrice = newPrice;\r\n  }\r\n\r\n  function _beforeTokenTransfer(\r\n        address operator,\r\n        address from,\r\n        address to,\r\n        uint256[] memory ids,\r\n        uint256[] memory amounts,\r\n        bytes memory data\r\n  ) internal virtual override {\r\n\r\n    super._beforeTokenTransfer(operator, from, to, ids, amounts, data);\r\n\r\n    // Mint book\r\n    if (from == address(0) && to != address(0)) {\r\n      uint tokenId = ids[0];\r\n      _addTokenToOwnerEnumeration(to, tokenId);\r\n    }\r\n\r\n    // Buy books\r\n    if (from != address(0) && to != address(0) && to != from) {\r\n      uint tokenId = ids[0];\r\n      _addTokenToOwnerEnumeration(to, tokenId);\r\n      if (ERC1155.balanceOf(from, tokenId) == 0) {\r\n        _removeTokenFromOwnerEnumeration(from, tokenId);\r\n      }\r\n    }\r\n\r\n  }\r\n\r\n  // Not necessary\r\n\r\n  // function getBalanceOfBook(uint256 tokenId, address owner) public view returns (uint256) {\r\n  //   require(isOwnerOfToken(tokenId, owner), \"You do not own this token\");\r\n  //   return ERC1155.balanceOf(owner, tokenId);\r\n  // }\r\n\r\n  function _addTokenToOwnerEnumeration(address owner, uint tokenId) private {\r\n    uint length = _totalOwnedToken[owner];\r\n    _ownedTokens[owner][length] = tokenId;\r\n    _totalOwnedToken[owner]++;\r\n  }\r\n\r\n  function _removeTokenFromOwnerEnumeration(address owner, uint tokenId) private {\r\n    uint lastTokenIndex = _totalOwnedToken[owner] - 1;\r\n\r\n    for (uint i = 0; i < lastTokenIndex + 1; i++) {\r\n      if (tokenId == _ownedTokens[owner][i]) {\r\n        _ownedTokens[owner][i] = _ownedTokens[owner][lastTokenIndex];\r\n      }\r\n    }\r\n\r\n    _totalOwnedToken[owner]--;\r\n    delete _ownedTokens[owner][lastTokenIndex];\r\n  }\r\n\r\n  function getNftBook(uint tokenId) public view returns (NFTBook memory) {\r\n    return _idToNFTBook[tokenId];\r\n  }\r\n\r\n  function getListedBook(uint tokenId, address seller) public view returns (ListedBook memory) {\r\n    return _keyToListedBook[tokenId][seller];\r\n  }\r\n\r\n  function isTokenURIExist(string memory tokenURI) public view returns (bool) {\r\n    return _usedTokenURIs[tokenURI];\r\n  }\r\n\r\n  function mintBook(string memory tokenURI, uint256 balance)\r\n    public payable returns (uint) {\r\n\r\n    require(!isTokenURIExist(tokenURI),\r\n           \"Token URI already exists\");\r\n    require(balance > 0 && balance <= MAX_BALANCE,\r\n          \"The number of books you want to publish is not appropriate\");\r\n    require(msg.value == listingPrice,\r\n           \"Price must be equal to listing price\");\r\n\r\n    _tokenIds.increment();\r\n    uint newTokenId = _tokenIds.current();\r\n\r\n    _mint(msg.sender, newTokenId, balance, \"\");\r\n    _setURI(newTokenId, tokenURI);\r\n    _createNftBook(newTokenId, balance);\r\n\r\n    _usedTokenURIs[tokenURI] = true;\r\n    return newTokenId;\r\n  }\r\n\r\n  function _createNftBook(uint tokenId, uint256 balance) private {\r\n    _idToNFTBook[tokenId] = NFTBook(tokenId, msg.sender, balance);\r\n    emit NFTBookCreated(tokenId, msg.sender, balance);\r\n  }\r\n\r\n  function _createListedBook(uint tokenId, address seller, uint256 price, uint amount) private {\r\n    _keyToListedBook[tokenId][seller] = ListedBook(tokenId, seller, price, amount);\r\n    // _allListedBook[_listedBooks.current()] = ListedBook(tokenId, seller, price, amount);\r\n    _allListedBook[_listedBooks.current()] = PrimaryKeyListedBook(tokenId, seller);\r\n    _keyToIndexAllListedBooks[tokenId][seller] = _listedBooks.current();\r\n    _listedBooks.increment();\r\n    emit ListedBookCreated(tokenId, seller, price, amount);\r\n  }\r\n\r\n  function isOwnerOfToken(uint tokenId, address owner) public view returns(bool) {\r\n    // uint total = _totalOwnedToken[owner];\r\n    // for (uint i = 0; i < total; i++) {\r\n    //   if (_ownedTokens[owner][i] == tokenId) {\r\n    //     return true;\r\n    //   }\r\n    // }\r\n    // return false;\r\n\r\n    // Suggest\r\n    return ERC1155.balanceOf(owner, tokenId) > 0;\r\n  }\r\n\r\n  function getOwnedNFTBooks() public view returns (NFTBook[] memory) {\r\n    uint ownedItemsCount = _totalOwnedToken[msg.sender];\r\n    NFTBook[] memory books = new NFTBook[](ownedItemsCount);\r\n\r\n    for (uint i = 0; i < ownedItemsCount; i++) {\r\n      uint tokenId = _ownedTokens[msg.sender][i];\r\n      NFTBook memory book = _idToNFTBook[tokenId];\r\n\r\n      books[i] = book;\r\n    }\r\n\r\n    return books;\r\n  }\r\n\r\n  function getOwnedListedBooks() public view returns (ListedBook[] memory) {\r\n    uint ownedItemsCount = _totalOwnedToken[msg.sender];\r\n    ListedBook[] memory books = new ListedBook[](ownedItemsCount);\r\n\r\n    uint currentIndex = 0;\r\n    for (uint i = 0; i < ownedItemsCount; i++) {\r\n      uint tokenId = _ownedTokens[msg.sender][i];\r\n      ListedBook memory book = _keyToListedBook[tokenId][msg.sender];\r\n\r\n      if(book.tokenId != 0 && book.seller != address(0)) {\r\n        books[currentIndex] = book;\r\n        currentIndex++;\r\n      }\r\n    }\r\n\r\n    return books;\r\n  }\r\n\r\n  // TODO: not necessary\r\n\r\n  // return false: You don't have enough books to sell\r\n  // function checkQuantityToSell(uint256 quantity, uint256 tokenId) public view returns(bool) {\r\n  //   return quantity <= getBalanceOfBook(tokenId, msg.sender) && quantity > 0;\r\n  // }\r\n\r\n  // return i > 0: listed book on sale\r\n  // return -1: unlisted book on sale\r\n  // function getIdListedBookOnSale(uint256 tokenId,\r\n  //                               uint price,\r\n  //                               address seller) public view returns (int) {\r\n  //   for (uint256 i = 0; i < _listedBooks.current(); i++) {\r\n  //     ListedBook memory listedBook = _allListedBook[i];\r\n\r\n  //     if (tokenId == listedBook.tokenId &&\r\n  //         seller == listedBook.seller &&\r\n  //         price == listedBook.price) {\r\n  //       return int(i);\r\n  //     }\r\n  //   }\r\n  //   return -1;\r\n  // }\r\n\r\n  function getAmountOfListedBook(uint256 tokenId, address seller) public view returns(uint256) {\r\n    return _keyToListedBook[tokenId][seller].amount;\r\n  }\r\n\r\n  function sellBooks(uint256 tokenId, uint price, uint256 amount) public payable {\r\n    require(isOwnerOfToken(tokenId, msg.sender),\r\n          \"You are not the owner of this token\");\r\n    require(getAmountOfListedBook(tokenId, msg.sender) + amount <= ERC1155.balanceOf(msg.sender, tokenId) &&\r\n           amount > 0,\r\n          \"You don't have enough books to sell\");\r\n    require(msg.value == listingPrice,\r\n           \"Price must be equal to listing price\");\r\n    // int idListedBook = getIdListedBookOnSale(tokenId, price, msg.sender);\r\n    ListedBook memory listedBook = _keyToListedBook[tokenId][msg.sender];\r\n\r\n    if (listedBook.tokenId == 0 && listedBook.seller == address(0)) {\r\n      _createListedBook(tokenId, msg.sender, price, amount);\r\n\r\n    } else {\r\n      // require(checkQuantityToSell(listedBook.amount + amount,\r\n      //                          tokenId),\r\n      //                         \"You don't have enough books to sell\"); // TODO: not necessary\r\n      _keyToListedBook[tokenId][msg.sender].amount += amount;\r\n    }\r\n  }\r\n\r\n  function removeItemFromAllListedBooks(PrimaryKeyListedBook memory value) public {\r\n    uint index = _keyToIndexAllListedBooks[value.tokenId][value.seller];\r\n    uint length = _listedBooks.current();\r\n    _allListedBook[index] = _allListedBook[length - 1];\r\n    delete _allListedBook[length - 1];\r\n    _listedBooks.decrement();\r\n  }\r\n\r\n  function decreaseListedBookFromSale(uint256 tokenId, uint256 amount, address seller) public {\r\n    require(isOwnerOfToken(tokenId, seller),\r\n          \"You are not the owner of this token\");\r\n    require(amount > 0,\r\n          \"removed amount of book is invalid\");\r\n    \r\n    // int idListedBook = getIdListedBookOnSale(tokenId, price, seller);\r\n\r\n    // ListedBook memory listedBook = getListedBook(uint256(idListedBook));\r\n    ListedBook memory listedBook = _keyToListedBook[tokenId][seller];\r\n    require(listedBook.amount > 0,\r\n          \"Your book are not on sale\");\r\n\r\n    if (amount < listedBook.amount) {\r\n      _keyToListedBook[tokenId][seller].amount -= amount;\r\n    } else {\r\n      // uint256 lastIndexListedBook = _listedBooks.current() - 1;\r\n      // ListedBook memory lastListedBook = getListedBook(uint256(lastIndexListedBook));\r\n      // _allListedBook[uint256(idListedBook)] = lastListedBook;\r\n      removeItemFromAllListedBooks(PrimaryKeyListedBook(tokenId, seller));\r\n      delete _keyToListedBook[tokenId][seller];\r\n    }\r\n  }\r\n\r\n  function getAllBooksOnSale() public view returns (ListedBook[] memory) {\r\n    ListedBook[] memory books = new ListedBook[](_listedBooks.current());\r\n\r\n    uint currentIndex = 0;\r\n    for (uint i = 0; i < _listedBooks.current(); i++) {\r\n      PrimaryKeyListedBook memory keyListedBook = _allListedBook[i];\r\n      ListedBook memory book = _keyToListedBook[keyListedBook.tokenId][keyListedBook.seller];\r\n      if(book.tokenId != 0 && book.seller != address(0)) {\r\n        books[currentIndex] = book;\r\n        currentIndex++;\r\n      }\r\n    }\r\n    return books;\r\n  }\r\n\r\n  function buyBooks(uint256 tokenId, address seller, uint256 amount) public payable {\r\n    // int idListedBook = getIdListedBookOnSale(tokenId, price, seller);\r\n    // ListedBook memory listedBook = getListedBook(uint256(idListedBook));\r\n    ListedBook memory listedBook = _keyToListedBook[tokenId][seller];\r\n    require(msg.sender != listedBook.seller, \"You can't buy your own books on sale\");\r\n    require(msg.value == amount * listedBook.price, \"Please submit the asking price\");\r\n    require(amount <= listedBook.amount && amount > 0, \"Amount is invalid\");\r\n\r\n    uint256 totalPrice = amount * listedBook.price;\r\n    decreaseListedBookFromSale(tokenId, amount, seller);\r\n    _safeTransferFrom(seller, msg.sender, tokenId, amount, \"\");\r\n    payable(seller).transfer(totalPrice);\r\n  }\r\n\r\n}",
  "sourcePath": "D:\\DO_AN_TOT_NGHIEP\\project\\nft-bookstore\\contracts\\BookStore.sol",
  "compiler": {
    "name": "solc",
    "version": "0.8.17+commit.8df45f5f.Emscripten.clang"
  },
  "schemaVersion": "3.4.11",
  "updatedAt": "2023-02-26T07:15:32.895Z",
  "networkType": "ethereum",
  "devdoc": {
    "kind": "dev",
    "methods": {
      "balanceOf(address,uint256)": {
        "details": "See {IERC1155-balanceOf}. Requirements: - `account` cannot be the zero address."
      },
      "balanceOfBatch(address[],uint256[])": {
        "details": "See {IERC1155-balanceOfBatch}. Requirements: - `accounts` and `ids` must have the same length."
      },
      "isApprovedForAll(address,address)": {
        "details": "See {IERC1155-isApprovedForAll}."
      },
      "owner()": {
        "details": "Returns the address of the current owner."
      },
      "renounceOwnership()": {
        "details": "Leaves the contract without owner. It will not be possible to call `onlyOwner` functions anymore. Can only be called by the current owner. NOTE: Renouncing ownership will leave the contract without an owner, thereby removing any functionality that is only available to the owner."
      },
      "safeBatchTransferFrom(address,address,uint256[],uint256[],bytes)": {
        "details": "See {IERC1155-safeBatchTransferFrom}."
      },
      "safeTransferFrom(address,address,uint256,uint256,bytes)": {
        "details": "See {IERC1155-safeTransferFrom}."
      },
      "setApprovalForAll(address,bool)": {
        "details": "See {IERC1155-setApprovalForAll}."
      },
      "supportsInterface(bytes4)": {
        "details": "See {IERC165-supportsInterface}."
      },
      "transferOwnership(address)": {
        "details": "Transfers ownership of the contract to a new account (`newOwner`). Can only be called by the current owner."
      },
      "uri(uint256)": {
        "details": "See {IERC1155MetadataURI-uri}. This implementation returns the concatenation of the `_baseURI` and the token-specific uri if the latter is set This enables the following behaviors: - if `_tokenURIs[tokenId]` is set, then the result is the concatenation   of `_baseURI` and `_tokenURIs[tokenId]` (keep in mind that `_baseURI`   is empty per default); - if `_tokenURIs[tokenId]` is NOT set then we fallback to `super.uri()`   which in most cases will contain `ERC1155._uri`; - if `_tokenURIs[tokenId]` is NOT set, and if the parents do not have a   uri value set, then the result is empty."
      }
    },
    "version": 1
  },
  "userdoc": {
    "kind": "user",
    "methods": {},
    "version": 1
  }
}