{
  "contractName": "ExtendTime",
  "abi": [
    {
      "inputs": [
        {
          "internalType": "bool",
          "name": "",
          "type": "bool"
        }
      ],
      "name": "AlreadyExistsRequestError",
      "type": "error"
    },
    {
      "inputs": [
        {
          "internalType": "bool",
          "name": "",
          "type": "bool"
        }
      ],
      "name": "AlreadyExistsResponseError",
      "type": "error"
    },
    {
      "anonymous": false,
      "inputs": [
        {
          "indexed": false,
          "internalType": "uint256",
          "name": "id",
          "type": "uint256"
        },
        {
          "indexed": false,
          "internalType": "uint256",
          "name": "time",
          "type": "uint256"
        },
        {
          "indexed": false,
          "internalType": "uint256",
          "name": "amount",
          "type": "uint256"
        },
        {
          "indexed": false,
          "internalType": "address",
          "name": "sender",
          "type": "address"
        },
        {
          "indexed": false,
          "internalType": "bool",
          "name": "isAccept",
          "type": "bool"
        }
      ],
      "name": "CreatedRequest",
      "type": "event"
    },
    {
      "anonymous": false,
      "inputs": [
        {
          "indexed": false,
          "internalType": "uint256",
          "name": "id",
          "type": "uint256"
        },
        {
          "indexed": false,
          "internalType": "uint256",
          "name": "time",
          "type": "uint256"
        },
        {
          "indexed": false,
          "internalType": "uint256",
          "name": "amount",
          "type": "uint256"
        },
        {
          "indexed": false,
          "internalType": "address",
          "name": "sender",
          "type": "address"
        }
      ],
      "name": "CreatedResponse",
      "type": "event"
    },
    {
      "inputs": [
        {
          "internalType": "uint256",
          "name": "id",
          "type": "uint256"
        },
        {
          "internalType": "address",
          "name": "sender",
          "type": "address"
        },
        {
          "internalType": "address",
          "name": "receiver",
          "type": "address"
        }
      ],
      "name": "isRequestExist",
      "outputs": [
        {
          "internalType": "bool",
          "name": "",
          "type": "bool"
        }
      ],
      "stateMutability": "view",
      "type": "function",
      "constant": true
    },
    {
      "inputs": [
        {
          "internalType": "uint256",
          "name": "id",
          "type": "uint256"
        },
        {
          "internalType": "address",
          "name": "sender",
          "type": "address"
        },
        {
          "internalType": "address",
          "name": "receiver",
          "type": "address"
        }
      ],
      "name": "isAcceptRequest",
      "outputs": [
        {
          "internalType": "bool",
          "name": "",
          "type": "bool"
        }
      ],
      "stateMutability": "view",
      "type": "function",
      "constant": true
    },
    {
      "inputs": [
        {
          "internalType": "uint256",
          "name": "id",
          "type": "uint256"
        },
        {
          "internalType": "address",
          "name": "sender",
          "type": "address"
        },
        {
          "internalType": "address",
          "name": "receiver",
          "type": "address"
        }
      ],
      "name": "isResponseExist",
      "outputs": [
        {
          "internalType": "bool",
          "name": "",
          "type": "bool"
        }
      ],
      "stateMutability": "view",
      "type": "function",
      "constant": true
    },
    {
      "inputs": [],
      "name": "getAllOwnedRequest",
      "outputs": [
        {
          "components": [
            {
              "internalType": "uint256",
              "name": "id",
              "type": "uint256"
            },
            {
              "internalType": "uint256",
              "name": "time",
              "type": "uint256"
            },
            {
              "internalType": "uint256",
              "name": "amount",
              "type": "uint256"
            },
            {
              "internalType": "address",
              "name": "sender",
              "type": "address"
            },
            {
              "internalType": "bool",
              "name": "isAccept",
              "type": "bool"
            }
          ],
          "internalType": "struct ExtendTime.Request[]",
          "name": "",
          "type": "tuple[]"
        }
      ],
      "stateMutability": "view",
      "type": "function",
      "constant": true
    },
    {
      "inputs": [],
      "name": "getAllOwnedResponse",
      "outputs": [
        {
          "components": [
            {
              "internalType": "uint256",
              "name": "id",
              "type": "uint256"
            },
            {
              "internalType": "uint256",
              "name": "time",
              "type": "uint256"
            },
            {
              "internalType": "uint256",
              "name": "amount",
              "type": "uint256"
            },
            {
              "internalType": "address",
              "name": "sender",
              "type": "address"
            }
          ],
          "internalType": "struct ExtendTime.Response[]",
          "name": "",
          "type": "tuple[]"
        }
      ],
      "stateMutability": "view",
      "type": "function",
      "constant": true
    },
    {
      "inputs": [
        {
          "internalType": "uint256",
          "name": "id",
          "type": "uint256"
        },
        {
          "internalType": "address",
          "name": "sender",
          "type": "address"
        },
        {
          "internalType": "address",
          "name": "receiver",
          "type": "address"
        }
      ],
      "name": "getRequest",
      "outputs": [
        {
          "components": [
            {
              "internalType": "uint256",
              "name": "id",
              "type": "uint256"
            },
            {
              "internalType": "uint256",
              "name": "time",
              "type": "uint256"
            },
            {
              "internalType": "uint256",
              "name": "amount",
              "type": "uint256"
            },
            {
              "internalType": "address",
              "name": "sender",
              "type": "address"
            },
            {
              "internalType": "bool",
              "name": "isAccept",
              "type": "bool"
            }
          ],
          "internalType": "struct ExtendTime.Request",
          "name": "",
          "type": "tuple"
        }
      ],
      "stateMutability": "view",
      "type": "function",
      "constant": true
    },
    {
      "inputs": [
        {
          "internalType": "uint256",
          "name": "id",
          "type": "uint256"
        },
        {
          "internalType": "address",
          "name": "sender",
          "type": "address"
        },
        {
          "internalType": "address",
          "name": "receiver",
          "type": "address"
        }
      ],
      "name": "getResponse",
      "outputs": [
        {
          "components": [
            {
              "internalType": "uint256",
              "name": "id",
              "type": "uint256"
            },
            {
              "internalType": "uint256",
              "name": "time",
              "type": "uint256"
            },
            {
              "internalType": "uint256",
              "name": "amount",
              "type": "uint256"
            },
            {
              "internalType": "address",
              "name": "sender",
              "type": "address"
            }
          ],
          "internalType": "struct ExtendTime.Response",
          "name": "",
          "type": "tuple"
        }
      ],
      "stateMutability": "view",
      "type": "function",
      "constant": true
    }
  ],
  "bytecode": "0x608060405234801561001057600080fd5b50610a08806100206000396000f3fe608060405234801561001057600080fd5b506004361061006d5760003560e01c80632229aea21461007257806328964f6d1461009a5780632f3a00b3146100ad57806354e76f83146100c25780636d312e8d146100d55780637ca1a868146100ea578063e774ed611461010a575b600080fd5b610085610080366004610833565b61012a565b60405190151581526020015b60405180910390f35b6100856100a8366004610833565b610229565b6100b56102dc565b604051610091919061089b565b6100856100d0366004610833565b6103ef565b6100dd61049e565b6040516100919190610921565b6100fd6100f8366004610833565b6105b9565b6040516100919190610963565b61011d610118366004610833565b6106c3565b6040516100919190610971565b6001600160a01b038116600090815260036020526040812054808203610154576000915050610222565b60005b8181101561021b576001600160a01b0384166000908152600260209081526040808320848452909152902054861480156101bb57506001600160a01b0384811660009081526002602090815260408083208584529091529020600301548116908616145b80156101f957506001600160a01b0384166000908152600260209081526040808320848452909152902060030154600160a01b900460ff1615156001145b1561020957600192505050610222565b806102138161097f565b915050610157565b5060009150505b9392505050565b6001600160a01b038116600090815260036020526040812054808203610253576000915050610222565b60005b8181101561021b576001600160a01b0384166000908152600260209081526040808320848452909152902054861480156102ba57506001600160a01b0384811660009081526002602090815260408083208584529091529020600301548116908616145b156102ca57600192505050610222565b806102d48161097f565b915050610256565b336000908152600160205260409020546060908181156103e9578167ffffffffffffffff81111561030f5761030f6109a6565b60405190808252806020026020018201604052801561034857816020015b6103356107ac565b81526020019060019003908161032d5790505b5090506103536107ac565b60005b838110156103e657336000908152602081815260408083208484528252918290208251608081018452815481526001820154928101929092526002810154928201929092526003909101546001600160a01b03166060820152835190925082908490839081106103c8576103c86109bc565b602002602001018190525080806103de9061097f565b915050610356565b50505b92915050565b6001600160a01b038116600090815260016020526040812054808203610419576000915050610222565b60005b8181101561021b576001600160a01b0384166000908152602081815260408083208484529091529020548614801561047c57506001600160a01b038481166000908152602081815260408083208584529091529020600301548116908616145b1561048c57600192505050610222565b806104968161097f565b91505061041c565b336000908152600360205260409020546060908181156103e9578167ffffffffffffffff8111156104d1576104d16109a6565b60405190808252806020026020018201604052801561050a57816020015b6104f76107dd565b8152602001906001900390816104ef5790505b5090506105156107dd565b60005b838110156103e657336000908152600260208181526040808420858552825292839020835160a081018552815481526001820154928101929092529182015492810192909252600301546001600160a01b0381166060830152600160a01b900460ff16151560808201528351909250829084908390811061059b5761059b6109bc565b602002602001018190525080806105b19061097f565b915050610518565b6105c16107dd565b6105cc848484610229565b6105f157604051634c043de760e01b8152600060048201526024015b60405180910390fd5b6001600160a01b0382166000908152600360205260409020546106126107dd565b60005b828110156106b9576001600160a01b038581166000908152600260208181526040808420868552825292839020835160a0810185528154815260018201549281019290925291820154928101929092526003015480831660608301819052600160a01b90910460ff16151560808301529093509087161480156106985750815187145b156106a7575091506102229050565b806106b18161097f565b915050610615565b5095945050505050565b6106cb6107ac565b6106d68484846103ef565b6106f657604051634091ca8360e11b8152600060048201526024016105e8565b6001600160a01b0382166000908152600160205260409020546107176107ac565b60005b828110156106b9576001600160a01b0380861660009081526020818152604080832085845282529182902082516080810184528154815260018201549281019290925260028101549282019290925260039091015482166060820181905290935090871614801561078b5750815187145b1561079a575091506102229050565b806107a48161097f565b91505061071a565b604051806080016040528060008152602001600081526020016000815260200160006001600160a01b031681525090565b6040518060a0016040528060008152602001600081526020016000815260200160006001600160a01b031681526020016000151581525090565b80356001600160a01b038116811461082e57600080fd5b919050565b60008060006060848603121561084857600080fd5b8335925061085860208501610817565b915061086660408501610817565b90509250925092565b8051825260208082015190830152604080820151908301526060908101516001600160a01b0316910152565b6020808252825182820181905260009190848201906040850190845b818110156108dd576108ca83855161086f565b92840192608092909201916001016108b7565b50909695505050505050565b8051825260208082015190830152604080820151908301526060808201516001600160a01b0316908301526080908101511515910152565b6020808252825182820181905260009190848201906040850190845b818110156108dd576109508385516108e9565b9284019260a0929092019160010161093d565b60a081016103e982846108e9565b608081016103e9828461086f565b60006001820161099f57634e487b7160e01b600052601160045260246000fd5b5060010190565b634e487b7160e01b600052604160045260246000fd5b634e487b7160e01b600052603260045260246000fdfea2646970667358221220056856c49981273a34324c9d7eb05cf1489df8be857bfd3ae7c8c4c46f84a3aa64736f6c63430008110033",
  "immutableReferences": {},
  "source": "// SPDX-License-Identifier: MIT\r\npragma solidity ^0.8.17;\r\nimport \"./Error.sol\";\r\n\r\n// PROTOCOL:\r\n//\r\n// ---------------   Request(infor of borrowed book)    Get res from Renter       reject res\r\n// | Extend time | <------------------- <BORROWER>---------------------------o------------------> No transfer, Update Extend time\r\n// ---------------                         ^                                 |\r\n//       ^                                 |                                 | accept res\r\n//       |                                 |                                 |\r\n//       |                                 |              Transfer to Renter + Update Time of Borrowed Books\r\n//       |                                 |  \r\n//       | Get request                     | YES -> Create response and \r\n//       |                                 |     send to borrower\r\n//       |                                 |\r\n//       |                 Is agree?       |         NO\r\n//   <RENTER> -----------------------------o------------------> Remove request \r\n\r\n// The class assists in creating a request to extend the loan period and\r\n// waits for the owner to approve or not\r\ncontract ExtendTime {\r\n\r\n    struct Request {\r\n        uint id; // id of Borrowed Books\r\n        uint time; // Extended time\r\n        uint amount;\r\n        address sender; // Borrower\r\n        bool isAccept;\r\n    }\r\n\r\n    event CreatedRequest (\r\n        uint id,\r\n        uint time,\r\n        uint amount,\r\n        address sender,\r\n        bool isAccept\r\n    );\r\n\r\n    struct Response {\r\n        uint id;\r\n        uint time;\r\n        uint amount;\r\n        address sender; // Renter\r\n    }\r\n\r\n    event CreatedResponse (\r\n        uint id,\r\n        uint time,\r\n        uint amount,\r\n        address sender\r\n    );\r\n\r\n    // Borrower => index =>  request\r\n    mapping (address => mapping (uint => Response)) private _responses;\r\n    // Borrower => total requests\r\n    mapping (address => uint) private _totalOwnedResponse;\r\n\r\n    // Renter => index =>  request\r\n    mapping (address => mapping (uint => Request)) private _requests;\r\n    // Renter => total requests\r\n    mapping (address => uint) private _totalOwnedRequest;\r\n    \r\n    function isRequestExist(uint id, \r\n                            address sender, \r\n                            address receiver) public view returns(bool) {\r\n\r\n        uint length = _totalOwnedRequest[receiver];\r\n        if (length == 0) {\r\n            return false;\r\n        }\r\n\r\n        for (uint i = 0; i < length; i++) {\r\n            if (_requests[receiver][i].id == id &&\r\n                 _requests[receiver][i].sender == sender) {\r\n                return true;\r\n            }\r\n        }\r\n        return false;\r\n    }\r\n\r\n    function isAcceptRequest(uint id, \r\n                             address sender, \r\n                             address receiver) public view returns(bool) {\r\n        \r\n        uint length = _totalOwnedRequest[receiver];\r\n        if (length == 0) {\r\n            return false;\r\n        }\r\n\r\n        for (uint i = 0; i < length; i++) {\r\n            if (_requests[receiver][i].id == id &&\r\n                 _requests[receiver][i].sender == sender &&\r\n                 _requests[receiver][i].isAccept == true) {\r\n                return true;\r\n            }\r\n        }\r\n        return false;\r\n    }\r\n\r\n    function isResponseExist(uint id, \r\n                            address sender, \r\n                            address receiver) public view returns(bool) {\r\n\r\n        uint length = _totalOwnedResponse[receiver];\r\n        if (length == 0) {\r\n            return false;\r\n        }\r\n\r\n        for (uint i = 0; i < length; i++) {\r\n            if (_responses[receiver][i].id == id &&\r\n                 _responses[receiver][i].sender == sender) {\r\n                return true;\r\n            }\r\n        }\r\n        return false;\r\n    }\r\n\r\n    function _createRequest(uint id, \r\n                           uint time, \r\n                           uint amount, \r\n                           address sender, \r\n                           address receiver) internal {\r\n        if (isRequestExist(id, sender, receiver)) {\r\n            revert Error.AlreadyExistsRequestError(true);\r\n        }\r\n        uint index = _totalOwnedRequest[receiver];\r\n        _requests[receiver][index] = Request(id, time, amount, sender, false);\r\n        _totalOwnedRequest[receiver] += 1;\r\n        emit CreatedRequest(id, time, amount, sender, false);\r\n    }\r\n\r\n    function _createResponse(uint id, \r\n                             uint time, \r\n                             uint amount,\r\n                             address sender, \r\n                             address receiver) internal {\r\n        if (isResponseExist(id, sender, receiver)) {\r\n            revert Error.AlreadyExistsResponseError(true);\r\n        }\r\n        uint index = _totalOwnedResponse[receiver];\r\n        _responses[receiver][index] = Response(id, time, amount, sender);\r\n        _totalOwnedResponse[receiver] += 1;\r\n        emit CreatedResponse(id, time, amount, sender);\r\n    }\r\n\r\n\r\n    function _updateRequest(uint id, \r\n                            uint newAmount,\r\n                            uint newTime, \r\n                            address sender, \r\n                            address receiver) internal {\r\n        uint length = _totalOwnedRequest[receiver];\r\n        if (length == 0) {\r\n            revert Error.InvalidLengthError(length);\r\n        }\r\n        Request memory request;\r\n        for (uint i; i < length; i++) {\r\n            request = _requests[receiver][i];\r\n            if(request.id == id && \r\n               request.sender == sender) {\r\n               if (newTime > request.time) {\r\n                  _requests[receiver][i].time = newTime;\r\n               }\r\n\r\n               if (newAmount != request.amount) {\r\n                  _requests[receiver][i].amount = newAmount;\r\n               }\r\n               return;\r\n            }\r\n        }\r\n    }\r\n\r\n    function _cancelRequest(uint id,  \r\n                           address sender, \r\n                           address receiver) internal {\r\n\r\n        uint length = _totalOwnedRequest[receiver];\r\n        if (length != 0) {\r\n            Request memory request;\r\n            for (uint i; i < length; i++) {\r\n                request = _requests[receiver][i];\r\n                if(request.id == id && \r\n                request.sender == sender) {\r\n                    uint lastIndex = _totalOwnedRequest[receiver] - 1;\r\n                    Request memory lastRequest = _requests[receiver][lastIndex];\r\n\r\n                    _requests[receiver][i] = lastRequest;\r\n\r\n                    delete _requests[receiver][lastIndex];\r\n                    _totalOwnedRequest[receiver] -= 1;\r\n                    return;\r\n                }\r\n            }                          \r\n        }\r\n    }\r\n\r\n    function _cancelResponse(uint id,  \r\n                            address sender, \r\n                            address receiver) internal {\r\n\r\n        uint length = _totalOwnedResponse[receiver];\r\n        if (length != 0) {\r\n            Response memory response;\r\n            for (uint i; i < length; i++) {\r\n                response = _responses[receiver][i];\r\n                if(response.id == id && \r\n                response.sender == sender) {\r\n                    uint lastIndex = _totalOwnedResponse[receiver] - 1;\r\n                    Response memory lastResponse = _responses[receiver][lastIndex];\r\n\r\n                    _responses[receiver][i] = lastResponse;\r\n\r\n                    delete _responses[receiver][lastIndex];\r\n                    _totalOwnedResponse[receiver] -= 1;\r\n                    return;\r\n                }\r\n            }                          \r\n        }\r\n    }\r\n\r\n    function _setAcceptionForRequest(uint id, \r\n                                    address sender, \r\n                                    address receiver) internal {\r\n        uint length = _totalOwnedRequest[receiver];\r\n        if (length == 0) {\r\n            revert Error.InvalidLengthError(length);\r\n        }\r\n        Request memory req;\r\n        for (uint i = 0; i < length; i++) {\r\n            req = _requests[receiver][i];\r\n\r\n            if(req.sender == sender && req.id == id) {\r\n                if (_requests[receiver][i].isAccept) {\r\n                    revert Error.AlreadyChangedStatusError(true);\r\n                }\r\n                _requests[receiver][i].isAccept = true;\r\n            }\r\n        }                          \r\n    }\r\n\r\n    function getAllOwnedRequest() public view returns(Request[] memory) {\r\n        uint length = _totalOwnedRequest[msg.sender];\r\n        Request[] memory requests;\r\n        if (length > 0) {\r\n            requests = new Request[](length);\r\n            Request memory request;\r\n\r\n            for (uint i = 0; i < length; i++) {\r\n                request = _requests[msg.sender][i];\r\n\r\n                requests[i] = request;\r\n            }\r\n        }\r\n        return requests;\r\n    }\r\n\r\n    function getAllOwnedResponse() public view returns(Response[] memory) {\r\n        uint length = _totalOwnedResponse[msg.sender];\r\n        Response[] memory responses;\r\n\r\n        if (length > 0) {\r\n            responses = new Response[](length);\r\n            Response memory response;\r\n\r\n            for (uint i = 0; i < length; i++) {\r\n                response = _responses[msg.sender][i];\r\n\r\n                responses[i] = response;\r\n            }\r\n        }\r\n\r\n        return responses;\r\n    }\r\n\r\n    function getRequest(uint id, \r\n                        address sender, \r\n                        address receiver) public view returns(Request memory) {\r\n        if (!isRequestExist(id, sender, receiver)) {\r\n            revert Error.AlreadyExistsRequestError(false);\r\n        }\r\n        uint length = _totalOwnedRequest[receiver];\r\n        Request memory req;\r\n        for (uint i = 0; i < length; i++) {\r\n            req = _requests[receiver][i];\r\n\r\n            if(req.sender == sender && req.id == id) {\r\n                return req;\r\n            }\r\n        }\r\n        return req; \r\n    }\r\n\r\n    function getResponse(uint id, \r\n                        address sender, \r\n                        address receiver) public view returns(Response memory) {\r\n        if (!isResponseExist(id, sender, receiver)) {\r\n            revert Error.AlreadyExistsResponseError(false);\r\n        }\r\n        uint length = _totalOwnedResponse[receiver];\r\n        Response memory res;\r\n        for (uint i = 0; i < length; i++) {\r\n            res = _responses[receiver][i];\r\n\r\n            if(res.sender == sender && res.id == id) {\r\n                return res;\r\n            }\r\n        }\r\n        return res; \r\n    }\r\n}",
  "sourcePath": "D:\\HCMUS_Nam4_HocKi1\\04_DoAnTotNghiep\\nft-bookstore-development\\nft-bookstore\\contracts\\utils\\ExtendTime.sol",
  "compiler": {
    "name": "solc",
    "version": "0.8.17+commit.8df45f5f.Emscripten.clang"
  },
  "schemaVersion": "3.4.12",
  "updatedAt": "2023-06-03T14:12:37.032Z",
  "networkType": "ethereum",
  "devdoc": {
    "kind": "dev",
    "methods": {},
    "version": 1
  },
  "userdoc": {
    "kind": "user",
    "methods": {},
    "version": 1
  }
}