{
  "contractName": "ExtendTime",
  "abi": [
    {
      "inputs": [
        {
          "internalType": "bool",
          "name": "",
          "type": "bool"
        }
      ],
      "name": "AlreadyExistsRequestError",
      "type": "error"
    },
    {
      "inputs": [
        {
          "internalType": "bool",
          "name": "",
          "type": "bool"
        }
      ],
      "name": "AlreadyExistsResponseError",
      "type": "error"
    },
    {
      "anonymous": false,
      "inputs": [
        {
          "indexed": false,
          "internalType": "uint256",
          "name": "id",
          "type": "uint256"
        },
        {
          "indexed": false,
          "internalType": "uint256",
          "name": "time",
          "type": "uint256"
        },
        {
          "indexed": false,
          "internalType": "uint256",
          "name": "amount",
          "type": "uint256"
        },
        {
          "indexed": false,
          "internalType": "address",
          "name": "sender",
          "type": "address"
        },
        {
          "indexed": false,
          "internalType": "bool",
          "name": "isAccept",
          "type": "bool"
        }
      ],
      "name": "CreatedRequest",
      "type": "event"
    },
    {
      "anonymous": false,
      "inputs": [
        {
          "indexed": false,
          "internalType": "uint256",
          "name": "id",
          "type": "uint256"
        },
        {
          "indexed": false,
          "internalType": "uint256",
          "name": "time",
          "type": "uint256"
        },
        {
          "indexed": false,
          "internalType": "uint256",
          "name": "amount",
          "type": "uint256"
        },
        {
          "indexed": false,
          "internalType": "address",
          "name": "sender",
          "type": "address"
        }
      ],
      "name": "CreatedResponse",
      "type": "event"
    },
    {
      "inputs": [
        {
          "internalType": "uint256",
          "name": "id",
          "type": "uint256"
        },
        {
          "internalType": "address",
          "name": "sender",
          "type": "address"
        },
        {
          "internalType": "address",
          "name": "receiver",
          "type": "address"
        }
      ],
      "name": "isRequestExist",
      "outputs": [
        {
          "internalType": "bool",
          "name": "",
          "type": "bool"
        }
      ],
      "stateMutability": "view",
      "type": "function",
      "constant": true
    },
    {
      "inputs": [
        {
          "internalType": "uint256",
          "name": "id",
          "type": "uint256"
        },
        {
          "internalType": "address",
          "name": "sender",
          "type": "address"
        },
        {
          "internalType": "address",
          "name": "receiver",
          "type": "address"
        }
      ],
      "name": "isAcceptRequest",
      "outputs": [
        {
          "internalType": "bool",
          "name": "",
          "type": "bool"
        }
      ],
      "stateMutability": "view",
      "type": "function",
      "constant": true
    },
    {
      "inputs": [
        {
          "internalType": "uint256",
          "name": "id",
          "type": "uint256"
        },
        {
          "internalType": "address",
          "name": "sender",
          "type": "address"
        },
        {
          "internalType": "address",
          "name": "receiver",
          "type": "address"
        }
      ],
      "name": "isResponseExist",
      "outputs": [
        {
          "internalType": "bool",
          "name": "",
          "type": "bool"
        }
      ],
      "stateMutability": "view",
      "type": "function",
      "constant": true
    },
    {
      "inputs": [],
      "name": "getAllOwnedRequest",
      "outputs": [
        {
          "components": [
            {
              "internalType": "uint256",
              "name": "id",
              "type": "uint256"
            },
            {
              "internalType": "uint256",
              "name": "time",
              "type": "uint256"
            },
            {
              "internalType": "uint256",
              "name": "amount",
              "type": "uint256"
            },
            {
              "internalType": "address",
              "name": "sender",
              "type": "address"
            },
            {
              "internalType": "bool",
              "name": "isAccept",
              "type": "bool"
            }
          ],
          "internalType": "struct ExtendTime.Request[]",
          "name": "",
          "type": "tuple[]"
        }
      ],
      "stateMutability": "view",
      "type": "function",
      "constant": true
    },
    {
      "inputs": [],
      "name": "getAllOwnedResponse",
      "outputs": [
        {
          "components": [
            {
              "internalType": "uint256",
              "name": "id",
              "type": "uint256"
            },
            {
              "internalType": "uint256",
              "name": "time",
              "type": "uint256"
            },
            {
              "internalType": "uint256",
              "name": "amount",
              "type": "uint256"
            },
            {
              "internalType": "address",
              "name": "sender",
              "type": "address"
            }
          ],
          "internalType": "struct ExtendTime.Response[]",
          "name": "",
          "type": "tuple[]"
        }
      ],
      "stateMutability": "view",
      "type": "function",
      "constant": true
    },
    {
      "inputs": [
        {
          "internalType": "uint256",
          "name": "id",
          "type": "uint256"
        },
        {
          "internalType": "address",
          "name": "sender",
          "type": "address"
        },
        {
          "internalType": "address",
          "name": "receiver",
          "type": "address"
        }
      ],
      "name": "getRequest",
      "outputs": [
        {
          "components": [
            {
              "internalType": "uint256",
              "name": "id",
              "type": "uint256"
            },
            {
              "internalType": "uint256",
              "name": "time",
              "type": "uint256"
            },
            {
              "internalType": "uint256",
              "name": "amount",
              "type": "uint256"
            },
            {
              "internalType": "address",
              "name": "sender",
              "type": "address"
            },
            {
              "internalType": "bool",
              "name": "isAccept",
              "type": "bool"
            }
          ],
          "internalType": "struct ExtendTime.Request",
          "name": "",
          "type": "tuple"
        }
      ],
      "stateMutability": "view",
      "type": "function",
      "constant": true
    },
    {
      "inputs": [
        {
          "internalType": "uint256",
          "name": "id",
          "type": "uint256"
        },
        {
          "internalType": "address",
          "name": "sender",
          "type": "address"
        },
        {
          "internalType": "address",
          "name": "receiver",
          "type": "address"
        }
      ],
      "name": "getResponse",
      "outputs": [
        {
          "components": [
            {
              "internalType": "uint256",
              "name": "id",
              "type": "uint256"
            },
            {
              "internalType": "uint256",
              "name": "time",
              "type": "uint256"
            },
            {
              "internalType": "uint256",
              "name": "amount",
              "type": "uint256"
            },
            {
              "internalType": "address",
              "name": "sender",
              "type": "address"
            }
          ],
          "internalType": "struct ExtendTime.Response",
          "name": "",
          "type": "tuple"
        }
      ],
      "stateMutability": "view",
      "type": "function",
      "constant": true
    }
  ],
  "bytecode": "0x608060405234801561001057600080fd5b50610a08806100206000396000f3fe608060405234801561001057600080fd5b506004361061006d5760003560e01c80632229aea21461007257806328964f6d1461009a5780632f3a00b3146100ad57806354e76f83146100c25780636d312e8d146100d55780637ca1a868146100ea578063e774ed611461010a575b600080fd5b610085610080366004610833565b61012a565b60405190151581526020015b60405180910390f35b6100856100a8366004610833565b610229565b6100b56102dc565b604051610091919061089b565b6100856100d0366004610833565b6103ef565b6100dd61049e565b6040516100919190610921565b6100fd6100f8366004610833565b6105b9565b6040516100919190610963565b61011d610118366004610833565b6106c3565b6040516100919190610971565b6001600160a01b038116600090815260036020526040812054808203610154576000915050610222565b60005b8181101561021b576001600160a01b0384166000908152600260209081526040808320848452909152902054861480156101bb57506001600160a01b0384811660009081526002602090815260408083208584529091529020600301548116908616145b80156101f957506001600160a01b0384166000908152600260209081526040808320848452909152902060030154600160a01b900460ff1615156001145b1561020957600192505050610222565b806102138161097f565b915050610157565b5060009150505b9392505050565b6001600160a01b038116600090815260036020526040812054808203610253576000915050610222565b60005b8181101561021b576001600160a01b0384166000908152600260209081526040808320848452909152902054861480156102ba57506001600160a01b0384811660009081526002602090815260408083208584529091529020600301548116908616145b156102ca57600192505050610222565b806102d48161097f565b915050610256565b336000908152600160205260409020546060908181156103e9578167ffffffffffffffff81111561030f5761030f6109a6565b60405190808252806020026020018201604052801561034857816020015b6103356107ac565b81526020019060019003908161032d5790505b5090506103536107ac565b60005b838110156103e657336000908152602081815260408083208484528252918290208251608081018452815481526001820154928101929092526002810154928201929092526003909101546001600160a01b03166060820152835190925082908490839081106103c8576103c86109bc565b602002602001018190525080806103de9061097f565b915050610356565b50505b92915050565b6001600160a01b038116600090815260016020526040812054808203610419576000915050610222565b60005b8181101561021b576001600160a01b0384166000908152602081815260408083208484529091529020548614801561047c57506001600160a01b038481166000908152602081815260408083208584529091529020600301548116908616145b1561048c57600192505050610222565b806104968161097f565b91505061041c565b336000908152600360205260409020546060908181156103e9578167ffffffffffffffff8111156104d1576104d16109a6565b60405190808252806020026020018201604052801561050a57816020015b6104f76107dd565b8152602001906001900390816104ef5790505b5090506105156107dd565b60005b838110156103e657336000908152600260208181526040808420858552825292839020835160a081018552815481526001820154928101929092529182015492810192909252600301546001600160a01b0381166060830152600160a01b900460ff16151560808201528351909250829084908390811061059b5761059b6109bc565b602002602001018190525080806105b19061097f565b915050610518565b6105c16107dd565b6105cc848484610229565b6105f157604051634c043de760e01b8152600060048201526024015b60405180910390fd5b6001600160a01b0382166000908152600360205260409020546106126107dd565b60005b828110156106b9576001600160a01b038581166000908152600260208181526040808420868552825292839020835160a0810185528154815260018201549281019290925291820154928101929092526003015480831660608301819052600160a01b90910460ff16151560808301529093509087161480156106985750815187145b156106a7575091506102229050565b806106b18161097f565b915050610615565b5095945050505050565b6106cb6107ac565b6106d68484846103ef565b6106f657604051634091ca8360e11b8152600060048201526024016105e8565b6001600160a01b0382166000908152600160205260409020546107176107ac565b60005b828110156106b9576001600160a01b0380861660009081526020818152604080832085845282529182902082516080810184528154815260018201549281019290925260028101549282019290925260039091015482166060820181905290935090871614801561078b5750815187145b1561079a575091506102229050565b806107a48161097f565b91505061071a565b604051806080016040528060008152602001600081526020016000815260200160006001600160a01b031681525090565b6040518060a0016040528060008152602001600081526020016000815260200160006001600160a01b031681526020016000151581525090565b80356001600160a01b038116811461082e57600080fd5b919050565b60008060006060848603121561084857600080fd5b8335925061085860208501610817565b915061086660408501610817565b90509250925092565b8051825260208082015190830152604080820151908301526060908101516001600160a01b0316910152565b6020808252825182820181905260009190848201906040850190845b818110156108dd576108ca83855161086f565b92840192608092909201916001016108b7565b50909695505050505050565b8051825260208082015190830152604080820151908301526060808201516001600160a01b0316908301526080908101511515910152565b6020808252825182820181905260009190848201906040850190845b818110156108dd576109508385516108e9565b9284019260a0929092019160010161093d565b60a081016103e982846108e9565b608081016103e9828461086f565b60006001820161099f57634e487b7160e01b600052601160045260246000fd5b5060010190565b634e487b7160e01b600052604160045260246000fd5b634e487b7160e01b600052603260045260246000fdfea2646970667358221220d924a01a2a34e3d0ccebfd3dd23982248bf4ec794ad24c1722eca806eb28934d64736f6c63430008110033",
  "immutableReferences": {},
  "source": "// SPDX-License-Identifier: MIT\npragma solidity ^0.8.17;\nimport \"./Error.sol\";\n\n// PROTOCOL:\n//\n// ---------------   Request(infor of borrowed book)    Get res from Renter       reject res\n// | Extend time | <------------------- <BORROWER>---------------------------o------------------> No transfer, Update Extend time\n// ---------------                         ^                                 |\n//       ^                                 |                                 | accept res\n//       |                                 |                                 |\n//       |                                 |              Transfer to Renter + Update Time of Borrowed Books\n//       |                                 |  \n//       | Get request                     | YES -> Create response and \n//       |                                 |     send to borrower\n//       |                                 |\n//       |                 Is agree?       |         NO\n//   <RENTER> -----------------------------o------------------> Remove request \n\n// The class assists in creating a request to extend the loan period and\n// waits for the owner to approve or not\ncontract ExtendTime {\n\n    struct Request {\n        uint id; // id of Borrowed Books\n        uint time; // Extended time\n        uint amount;\n        address sender; // Borrower\n        bool isAccept;\n    }\n\n    event CreatedRequest (\n        uint id,\n        uint time,\n        uint amount,\n        address sender,\n        bool isAccept\n    );\n\n    struct Response {\n        uint id;\n        uint time;\n        uint amount;\n        address sender; // Renter\n    }\n\n    event CreatedResponse (\n        uint id,\n        uint time,\n        uint amount,\n        address sender\n    );\n\n    // Borrower => index =>  request\n    mapping (address => mapping (uint => Response)) private _responses;\n    // Borrower => total requests\n    mapping (address => uint) private _totalOwnedResponse;\n\n    // Renter => index =>  request\n    mapping (address => mapping (uint => Request)) private _requests;\n    // Renter => total requests\n    mapping (address => uint) private _totalOwnedRequest;\n    \n    function isRequestExist(uint id, \n                            address sender, \n                            address receiver) public view returns(bool) {\n\n        uint length = _totalOwnedRequest[receiver];\n        if (length == 0) {\n            return false;\n        }\n\n        for (uint i = 0; i < length; i++) {\n            if (_requests[receiver][i].id == id &&\n                 _requests[receiver][i].sender == sender) {\n                return true;\n            }\n        }\n        return false;\n    }\n\n    function isAcceptRequest(uint id, \n                             address sender, \n                             address receiver) public view returns(bool) {\n        \n        uint length = _totalOwnedRequest[receiver];\n        if (length == 0) {\n            return false;\n        }\n\n        for (uint i = 0; i < length; i++) {\n            if (_requests[receiver][i].id == id &&\n                 _requests[receiver][i].sender == sender &&\n                 _requests[receiver][i].isAccept == true) {\n                return true;\n            }\n        }\n        return false;\n    }\n\n    function isResponseExist(uint id, \n                            address sender, \n                            address receiver) public view returns(bool) {\n\n        uint length = _totalOwnedResponse[receiver];\n        if (length == 0) {\n            return false;\n        }\n\n        for (uint i = 0; i < length; i++) {\n            if (_responses[receiver][i].id == id &&\n                 _responses[receiver][i].sender == sender) {\n                return true;\n            }\n        }\n        return false;\n    }\n\n    function _createRequest(uint id, \n                           uint time, \n                           uint amount, \n                           address sender, \n                           address receiver) internal {\n        if (isRequestExist(id, sender, receiver)) {\n            revert Error.AlreadyExistsRequestError(true);\n        }\n        uint index = _totalOwnedRequest[receiver];\n        _requests[receiver][index] = Request(id, time, amount, sender, false);\n        _totalOwnedRequest[receiver] += 1;\n        emit CreatedRequest(id, time, amount, sender, false);\n    }\n\n    function _createResponse(uint id, \n                             uint time, \n                             uint amount,\n                             address sender, \n                             address receiver) internal {\n        if (isResponseExist(id, sender, receiver)) {\n            revert Error.AlreadyExistsResponseError(true);\n        }\n        uint index = _totalOwnedResponse[receiver];\n        _responses[receiver][index] = Response(id, time, amount, sender);\n        _totalOwnedResponse[receiver] += 1;\n        emit CreatedResponse(id, time, amount, sender);\n    }\n\n\n    function _updateRequest(uint id, \n                            uint newAmount,\n                            uint newTime, \n                            address sender, \n                            address receiver) internal {\n        uint length = _totalOwnedRequest[receiver];\n        if (length == 0) {\n            revert Error.InvalidLengthError(length);\n        }\n        Request memory request;\n        for (uint i; i < length; i++) {\n            request = _requests[receiver][i];\n            if(request.id == id && \n               request.sender == sender) {\n               if (newTime > request.time) {\n                  _requests[receiver][i].time = newTime;\n               }\n\n               if (newAmount != request.amount) {\n                  _requests[receiver][i].amount = newAmount;\n               }\n               return;\n            }\n        }\n    }\n\n    function _cancelRequest(uint id,  \n                           address sender, \n                           address receiver) internal {\n\n        uint length = _totalOwnedRequest[receiver];\n        if (length != 0) {\n            Request memory request;\n            for (uint i; i < length; i++) {\n                request = _requests[receiver][i];\n                if(request.id == id && \n                request.sender == sender) {\n                    uint lastIndex = _totalOwnedRequest[receiver] - 1;\n                    Request memory lastRequest = _requests[receiver][lastIndex];\n\n                    _requests[receiver][i] = lastRequest;\n\n                    delete _requests[receiver][lastIndex];\n                    _totalOwnedRequest[receiver] -= 1;\n                    return;\n                }\n            }                          \n        }\n    }\n\n    function _cancelResponse(uint id,  \n                            address sender, \n                            address receiver) internal {\n\n        uint length = _totalOwnedResponse[receiver];\n        if (length != 0) {\n            Response memory response;\n            for (uint i; i < length; i++) {\n                response = _responses[receiver][i];\n                if(response.id == id && \n                response.sender == sender) {\n                    uint lastIndex = _totalOwnedResponse[receiver] - 1;\n                    Response memory lastResponse = _responses[receiver][lastIndex];\n\n                    _responses[receiver][i] = lastResponse;\n\n                    delete _responses[receiver][lastIndex];\n                    _totalOwnedResponse[receiver] -= 1;\n                    return;\n                }\n            }                          \n        }\n    }\n\n    function _setAcceptionForRequest(uint id, \n                                    address sender, \n                                    address receiver) internal {\n        uint length = _totalOwnedRequest[receiver];\n        if (length == 0) {\n            revert Error.InvalidLengthError(length);\n        }\n        Request memory req;\n        for (uint i = 0; i < length; i++) {\n            req = _requests[receiver][i];\n\n            if(req.sender == sender && req.id == id) {\n                if (_requests[receiver][i].isAccept) {\n                    revert Error.AlreadyChangedStatusError(true);\n                }\n                _requests[receiver][i].isAccept = true;\n            }\n        }                          \n    }\n\n    function getAllOwnedRequest() public view returns(Request[] memory) {\n        uint length = _totalOwnedRequest[msg.sender];\n        Request[] memory requests;\n        if (length > 0) {\n            requests = new Request[](length);\n            Request memory request;\n\n            for (uint i = 0; i < length; i++) {\n                request = _requests[msg.sender][i];\n\n                requests[i] = request;\n            }\n        }\n        return requests;\n    }\n\n    function getAllOwnedResponse() public view returns(Response[] memory) {\n        uint length = _totalOwnedResponse[msg.sender];\n        Response[] memory responses;\n\n        if (length > 0) {\n            responses = new Response[](length);\n            Response memory response;\n\n            for (uint i = 0; i < length; i++) {\n                response = _responses[msg.sender][i];\n\n                responses[i] = response;\n            }\n        }\n\n        return responses;\n    }\n\n    function getRequest(uint id, \n                        address sender, \n                        address receiver) public view returns(Request memory) {\n        if (!isRequestExist(id, sender, receiver)) {\n            revert Error.AlreadyExistsRequestError(false);\n        }\n        uint length = _totalOwnedRequest[receiver];\n        Request memory req;\n        for (uint i = 0; i < length; i++) {\n            req = _requests[receiver][i];\n\n            if(req.sender == sender && req.id == id) {\n                return req;\n            }\n        }\n        return req; \n    }\n\n    function getResponse(uint id, \n                        address sender, \n                        address receiver) public view returns(Response memory) {\n        if (!isResponseExist(id, sender, receiver)) {\n            revert Error.AlreadyExistsResponseError(false);\n        }\n        uint length = _totalOwnedResponse[receiver];\n        Response memory res;\n        for (uint i = 0; i < length; i++) {\n            res = _responses[receiver][i];\n\n            if(res.sender == sender && res.id == id) {\n                return res;\n            }\n        }\n        return res; \n    }\n}",
  "sourcePath": "D:\\HCMUS_Nam4_HocKi1\\04_DoAnTotNghiep\\nft-bookstore-development\\nft-bookstore\\contracts\\utils\\ExtendTime.sol",
  "compiler": {
    "name": "solc",
    "version": "0.8.17+commit.8df45f5f.Emscripten.clang"
  },
  "schemaVersion": "3.4.12",
  "updatedAt": "2023-06-29T15:10:07.465Z",
  "networkType": "ethereum",
  "devdoc": {
    "kind": "dev",
    "methods": {},
    "version": 1
  },
  "userdoc": {
    "kind": "user",
    "methods": {},
    "version": 1
  }
}