{
  "contractName": "ListedBookStorage",
  "abi": [
    {
      "anonymous": false,
      "inputs": [
        {
          "indexed": false,
          "internalType": "uint256",
          "name": "tokenId",
          "type": "uint256"
        },
        {
          "indexed": false,
          "internalType": "address",
          "name": "seller",
          "type": "address"
        },
        {
          "indexed": false,
          "internalType": "uint256",
          "name": "price",
          "type": "uint256"
        },
        {
          "indexed": false,
          "internalType": "uint256",
          "name": "amount",
          "type": "uint256"
        }
      ],
      "name": "ListedBookCreated",
      "type": "event"
    },
    {
      "inputs": [
        {
          "internalType": "uint256",
          "name": "tokenId",
          "type": "uint256"
        },
        {
          "internalType": "address",
          "name": "seller",
          "type": "address"
        }
      ],
      "name": "getListedBook",
      "outputs": [
        {
          "components": [
            {
              "internalType": "uint256",
              "name": "tokenId",
              "type": "uint256"
            },
            {
              "internalType": "address",
              "name": "seller",
              "type": "address"
            },
            {
              "internalType": "uint256",
              "name": "price",
              "type": "uint256"
            },
            {
              "internalType": "uint256",
              "name": "amount",
              "type": "uint256"
            }
          ],
          "internalType": "struct ListedBookStorage.ListedBook",
          "name": "",
          "type": "tuple"
        }
      ],
      "stateMutability": "view",
      "type": "function",
      "constant": true
    },
    {
      "inputs": [
        {
          "internalType": "address",
          "name": "seller",
          "type": "address"
        }
      ],
      "name": "getTotalOwnedListedBook",
      "outputs": [
        {
          "internalType": "uint256",
          "name": "",
          "type": "uint256"
        }
      ],
      "stateMutability": "view",
      "type": "function",
      "constant": true
    },
    {
      "inputs": [
        {
          "internalType": "uint256",
          "name": "tokenId",
          "type": "uint256"
        },
        {
          "internalType": "address",
          "name": "seller",
          "type": "address"
        }
      ],
      "name": "getIdListedBook",
      "outputs": [
        {
          "internalType": "uint256",
          "name": "",
          "type": "uint256"
        }
      ],
      "stateMutability": "view",
      "type": "function",
      "constant": true
    },
    {
      "inputs": [
        {
          "internalType": "uint256",
          "name": "tokenId",
          "type": "uint256"
        },
        {
          "internalType": "address",
          "name": "owner",
          "type": "address"
        }
      ],
      "name": "getAmountOfListedBooks",
      "outputs": [
        {
          "internalType": "uint256",
          "name": "",
          "type": "uint256"
        }
      ],
      "stateMutability": "view",
      "type": "function",
      "constant": true
    },
    {
      "inputs": [
        {
          "internalType": "uint256",
          "name": "tokenId",
          "type": "uint256"
        },
        {
          "internalType": "uint256",
          "name": "price",
          "type": "uint256"
        },
        {
          "internalType": "uint256",
          "name": "amount",
          "type": "uint256"
        },
        {
          "internalType": "address",
          "name": "seller",
          "type": "address"
        }
      ],
      "name": "sellListedBooks",
      "outputs": [],
      "stateMutability": "payable",
      "type": "function",
      "payable": true
    },
    {
      "inputs": [
        {
          "internalType": "uint256",
          "name": "tokenId",
          "type": "uint256"
        },
        {
          "internalType": "uint256",
          "name": "amount",
          "type": "uint256"
        },
        {
          "internalType": "address",
          "name": "seller",
          "type": "address"
        }
      ],
      "name": "decreaseListedBookFromSale",
      "outputs": [],
      "stateMutability": "nonpayable",
      "type": "function"
    },
    {
      "inputs": [],
      "name": "getAllListedBooks",
      "outputs": [
        {
          "components": [
            {
              "internalType": "uint256",
              "name": "tokenId",
              "type": "uint256"
            },
            {
              "internalType": "address",
              "name": "seller",
              "type": "address"
            },
            {
              "internalType": "uint256",
              "name": "price",
              "type": "uint256"
            },
            {
              "internalType": "uint256",
              "name": "amount",
              "type": "uint256"
            }
          ],
          "internalType": "struct ListedBookStorage.ListedBook[]",
          "name": "",
          "type": "tuple[]"
        }
      ],
      "stateMutability": "view",
      "type": "function",
      "constant": true
    },
    {
      "inputs": [
        {
          "internalType": "uint256",
          "name": "tokenId",
          "type": "uint256"
        },
        {
          "internalType": "address",
          "name": "seller",
          "type": "address"
        },
        {
          "internalType": "uint256",
          "name": "amount",
          "type": "uint256"
        },
        {
          "internalType": "address",
          "name": "buyer",
          "type": "address"
        },
        {
          "internalType": "uint256",
          "name": "value",
          "type": "uint256"
        }
      ],
      "name": "buyListedBooks",
      "outputs": [
        {
          "internalType": "uint256",
          "name": "",
          "type": "uint256"
        }
      ],
      "stateMutability": "payable",
      "type": "function",
      "payable": true
    }
  ],
  "bytecode": "0x608060405234801561001057600080fd5b506119bb806100206000396000f3fe60806040526004361061007b5760003560e01c806375f319fa1161004e57806375f319fa1461012d578063c4a27f9a1461015d578063ed148dd01461019a578063f9ed2c32146101d75761007b565b8063101be81d14610080578063415d6458146100bd5780634c5aecb5146100e65780635204a3ce14610102575b600080fd5b34801561008c57600080fd5b506100a760048036038101906100a29190611026565b610214565b6040516100b49190611075565b60405180910390f35b3480156100c957600080fd5b506100e460048036038101906100df9190611090565b6102ea565b005b61010060048036038101906100fb91906110e3565b610464565b005b34801561010e57600080fd5b506101176105cb565b604051610124919061126c565b60405180910390f35b6101476004803603810190610142919061128e565b610722565b6040516101549190611075565b60405180910390f35b34801561016957600080fd5b50610184600480360381019061017f9190611026565b61091e565b6040516101919190611075565b60405180910390f35b3480156101a657600080fd5b506101c160048036038101906101bc9190611026565b610966565b6040516101ce919061135e565b60405180910390f35b3480156101e357600080fd5b506101fe60048036038101906101f99190611379565b610a17565b60405161020b9190611075565b60405180910390f35b60008083141580156102535750600073ffffffffffffffffffffffffffffffffffffffff168273ffffffffffffffffffffffffffffffffffffffff1614155b610292576040517f08c379a000000000000000000000000000000000000000000000000000000000815260040161028990611429565b60405180910390fd5b60008084815260200190815260200160002060008373ffffffffffffffffffffffffffffffffffffffff1673ffffffffffffffffffffffffffffffffffffffff16815260200190815260200160002054905092915050565b6000821161032d576040517f08c379a0000000000000000000000000000000000000000000000000000000008152600401610324906114bb565b60405180910390fd5b60006103398483610214565b9050600060026000838152602001908152602001600020604051806080016040529081600082015481526020016001820160009054906101000a900473ffffffffffffffffffffffffffffffffffffffff1673ffffffffffffffffffffffffffffffffffffffff1673ffffffffffffffffffffffffffffffffffffffff16815260200160028201548152602001600382015481525050905060008203610414576040517f08c379a000000000000000000000000000000000000000000000000000000000815260040161040b90611527565b60405180910390fd5b806060015184101561045257836002600084815260200190815260200160002060030160008282546104469190611576565b9250508190555061045d565b61045c8584610a60565b5b5050505050565b600083116104a7576040517f08c379a000000000000000000000000000000000000000000000000000000000815260040161049e906115f6565b60405180910390fd5b60006104b38583610214565b9050600081036104d85760008311156104d3576104d285838686610d15565b5b6105c4565b600060026000838152602001908152602001600020604051806080016040529081600082015481526020016001820160009054906101000a900473ffffffffffffffffffffffffffffffffffffffff1673ffffffffffffffffffffffffffffffffffffffff1673ffffffffffffffffffffffffffffffffffffffff168152602001600282015481526020016003820154815250509050836002600084815260200190815260200160002060030160008282546105949190611616565b92505081905550806040015185146105c2578460026000848152602001908152602001600020600201819055505b505b5050505050565b606060006105d96003610ecf565b67ffffffffffffffff8111156105f2576105f161164a565b5b60405190808252806020026020018201604052801561062b57816020015b610618610f4f565b8152602001906001900390816106105790505b5090506000600190505b61063f6003610ecf565b811161071a57600060026000838152602001908152602001600020604051806080016040529081600082015481526020016001820160009054906101000a900473ffffffffffffffffffffffffffffffffffffffff1673ffffffffffffffffffffffffffffffffffffffff1673ffffffffffffffffffffffffffffffffffffffff16815260200160028201548152602001600382015481525050905080836001846106ea9190611576565b815181106106fb576106fa611679565b5b6020026020010181905250508080610712906116a8565b915050610635565b508091505090565b60008061072f8787610214565b90506000811461090f57600060026000838152602001908152602001600020604051806080016040529081600082015481526020016001820160009054906101000a900473ffffffffffffffffffffffffffffffffffffffff1673ffffffffffffffffffffffffffffffffffffffff1673ffffffffffffffffffffffffffffffffffffffff168152602001600282015481526020016003820154815250509050806020015173ffffffffffffffffffffffffffffffffffffffff168573ffffffffffffffffffffffffffffffffffffffff1603610841576040517f08c379a000000000000000000000000000000000000000000000000000000000815260040161083890611762565b60405180910390fd5b8060400151866108519190611782565b8414610892576040517f08c379a000000000000000000000000000000000000000000000000000000000815260040161088990611810565b60405180910390fd5b806060015186111580156108a65750600086115b6108e5576040517f08c379a00000000000000000000000000000000000000000000000000000000081526004016108dc9061187c565b60405180910390fd5b60008160400151876108f79190611782565b905061090489888a6102ea565b809350505050610915565b60009150505b95945050505050565b60008061092b8484610214565b9050600080821461095b576002600083815260200190815260200160002060030154816109589190611616565b90505b809250505092915050565b61096e610f4f565b600061097a8484610214565b905060026000828152602001908152602001600020604051806080016040529081600082015481526020016001820160009054906101000a900473ffffffffffffffffffffffffffffffffffffffff1673ffffffffffffffffffffffffffffffffffffffff1673ffffffffffffffffffffffffffffffffffffffff1681526020016002820154815260200160038201548152505091505092915050565b6000600160008373ffffffffffffffffffffffffffffffffffffffff1673ffffffffffffffffffffffffffffffffffffffff168152602001908152602001600020549050919050565b6000610a6c8383610214565b90506000610a7a6003610ecf565b9050600060026000838152602001908152602001600020604051806080016040529081600082015481526020016001820160009054906101000a900473ffffffffffffffffffffffffffffffffffffffff1673ffffffffffffffffffffffffffffffffffffffff1673ffffffffffffffffffffffffffffffffffffffff16815260200160028201548152602001600382015481525050905060008160000151905060008260200151905060008514610d0c57848414610c04578460008084815260200190815260200160002060008373ffffffffffffffffffffffffffffffffffffffff1673ffffffffffffffffffffffffffffffffffffffff1681526020019081526020016000208190555082600260008781526020019081526020016000206000820151816000015560208201518160010160006101000a81548173ffffffffffffffffffffffffffffffffffffffff021916908373ffffffffffffffffffffffffffffffffffffffff16021790555060408201518160020155606082015181600301559050505b610c0e6003610edd565b600160008773ffffffffffffffffffffffffffffffffffffffff1673ffffffffffffffffffffffffffffffffffffffff1681526020019081526020016000206000815480929190610c5e9061189c565b919050555060008088815260200190815260200160002060008773ffffffffffffffffffffffffffffffffffffffff1673ffffffffffffffffffffffffffffffffffffffff16815260200190815260200160002060009055600260008581526020019081526020016000206000808201600090556001820160006101000a81549073ffffffffffffffffffffffffffffffffffffffff02191690556002820160009055600382016000905550505b50505050505050565b610d1f6003610f39565b610d296003610ecf565b60008086815260200190815260200160002060008573ffffffffffffffffffffffffffffffffffffffff1673ffffffffffffffffffffffffffffffffffffffff1681526020019081526020016000208190555060405180608001604052808581526020018473ffffffffffffffffffffffffffffffffffffffff1681526020018381526020018281525060026000610dc16003610ecf565b81526020019081526020016000206000820151816000015560208201518160010160006101000a81548173ffffffffffffffffffffffffffffffffffffffff021916908373ffffffffffffffffffffffffffffffffffffffff1602179055506040820151816002015560608201518160030155905050600160008473ffffffffffffffffffffffffffffffffffffffff1673ffffffffffffffffffffffffffffffffffffffff1681526020019081526020016000206000815480929190610e87906116a8565b91905055507f5b83511fd1d3d8bfdab85700518eb12ccc021d17b8de38ab1acdd99d9705a40284848484604051610ec194939291906118d4565b60405180910390a150505050565b600081600001549050919050565b60008160000154905060008111610f29576040517f08c379a0000000000000000000000000000000000000000000000000000000008152600401610f2090611965565b60405180910390fd5b6001810382600001819055505050565b6001816000016000828254019250508190555050565b604051806080016040528060008152602001600073ffffffffffffffffffffffffffffffffffffffff16815260200160008152602001600081525090565b600080fd5b6000819050919050565b610fa581610f92565b8114610fb057600080fd5b50565b600081359050610fc281610f9c565b92915050565b600073ffffffffffffffffffffffffffffffffffffffff82169050919050565b6000610ff382610fc8565b9050919050565b61100381610fe8565b811461100e57600080fd5b50565b60008135905061102081610ffa565b92915050565b6000806040838503121561103d5761103c610f8d565b5b600061104b85828601610fb3565b925050602061105c85828601611011565b9150509250929050565b61106f81610f92565b82525050565b600060208201905061108a6000830184611066565b92915050565b6000806000606084860312156110a9576110a8610f8d565b5b60006110b786828701610fb3565b93505060206110c886828701610fb3565b92505060406110d986828701611011565b9150509250925092565b600080600080608085870312156110fd576110fc610f8d565b5b600061110b87828801610fb3565b945050602061111c87828801610fb3565b935050604061112d87828801610fb3565b925050606061113e87828801611011565b91505092959194509250565b600081519050919050565b600082825260208201905092915050565b6000819050602082019050919050565b61117f81610f92565b82525050565b61118e81610fe8565b82525050565b6080820160008201516111aa6000850182611176565b5060208201516111bd6020850182611185565b5060408201516111d06040850182611176565b5060608201516111e36060850182611176565b50505050565b60006111f58383611194565b60808301905092915050565b6000602082019050919050565b60006112198261114a565b6112238185611155565b935061122e83611166565b8060005b8381101561125f57815161124688826111e9565b975061125183611201565b925050600181019050611232565b5085935050505092915050565b60006020820190508181036000830152611286818461120e565b905092915050565b600080600080600060a086880312156112aa576112a9610f8d565b5b60006112b888828901610fb3565b95505060206112c988828901611011565b94505060406112da88828901610fb3565b93505060606112eb88828901611011565b92505060806112fc88828901610fb3565b9150509295509295909350565b60808201600082015161131f6000850182611176565b5060208201516113326020850182611185565b5060408201516113456040850182611176565b5060608201516113586060850182611176565b50505050565b60006080820190506113736000830184611309565b92915050565b60006020828403121561138f5761138e610f8d565b5b600061139d84828501611011565b91505092915050565b600082825260208201905092915050565b7f546f6b656e20696420616e642061646472657373206f6620796f75206973206960008201527f6e76616c69640000000000000000000000000000000000000000000000000000602082015250565b60006114136026836113a6565b915061141e826113b7565b604082019050919050565b6000602082019050818103600083015261144281611406565b9050919050565b7f72656d6f76656420616d6f756e74206f6620626f6f6b20697320696e76616c6960008201527f6400000000000000000000000000000000000000000000000000000000000000602082015250565b60006114a56021836113a6565b91506114b082611449565b604082019050919050565b600060208201905081810360008301526114d481611498565b9050919050565b7f596f757220626f6f6b20617265206e6f74206f6e2073616c6500000000000000600082015250565b60006115116019836113a6565b915061151c826114db565b602082019050919050565b6000602082019050818103600083015261154081611504565b9050919050565b7f4e487b7100000000000000000000000000000000000000000000000000000000600052601160045260246000fd5b600061158182610f92565b915061158c83610f92565b92508282039050818111156115a4576115a3611547565b5b92915050565b7f5072696365206d7573742062652067726561746572207468616e207a65726f00600082015250565b60006115e0601f836113a6565b91506115eb826115aa565b602082019050919050565b6000602082019050818103600083015261160f816115d3565b9050919050565b600061162182610f92565b915061162c83610f92565b925082820190508082111561164457611643611547565b5b92915050565b7f4e487b7100000000000000000000000000000000000000000000000000000000600052604160045260246000fd5b7f4e487b7100000000000000000000000000000000000000000000000000000000600052603260045260246000fd5b60006116b382610f92565b91507fffffffffffffffffffffffffffffffffffffffffffffffffffffffffffffffff82036116e5576116e4611547565b5b600182019050919050565b7f596f752063616e27742062757920796f7572206f776e20626f6f6b73206f6e2060008201527f73616c6500000000000000000000000000000000000000000000000000000000602082015250565b600061174c6024836113a6565b9150611757826116f0565b604082019050919050565b6000602082019050818103600083015261177b8161173f565b9050919050565b600061178d82610f92565b915061179883610f92565b92508282026117a681610f92565b915082820484148315176117bd576117bc611547565b5b5092915050565b7f506c65617365207375626d6974207468652061736b696e672070726963650000600082015250565b60006117fa601e836113a6565b9150611805826117c4565b602082019050919050565b60006020820190508181036000830152611829816117ed565b9050919050565b7f416d6f756e7420697320696e76616c6964000000000000000000000000000000600082015250565b60006118666011836113a6565b915061187182611830565b602082019050919050565b6000602082019050818103600083015261189581611859565b9050919050565b60006118a782610f92565b9150600082036118ba576118b9611547565b5b600182039050919050565b6118ce81610fe8565b82525050565b60006080820190506118e96000830187611066565b6118f660208301866118c5565b6119036040830185611066565b6119106060830184611066565b95945050505050565b7f436f756e7465723a2064656372656d656e74206f766572666c6f770000000000600082015250565b600061194f601b836113a6565b915061195a82611919565b602082019050919050565b6000602082019050818103600083015261197e81611942565b905091905056fea264697066735822122089ae3b762e154f8f4d6076b4ceee865f7836c9a7e03f4bde7a5b80e893ad99d464736f6c63430008110033",
  "immutableReferences": {},
  "source": "// SPDX-License-Identifier: MIT\r\n\r\npragma solidity >=0.4.22 <0.9.0;\r\nimport \"@openzeppelin/contracts/utils/Counters.sol\";\r\n\r\ncontract ListedBookStorage {\r\n  using Counters for Counters.Counter;\r\n\r\n  struct ListedBook {\r\n    uint256 tokenId;\r\n    address seller;\r\n    uint price;\r\n    uint amount;\r\n  }\r\n\r\n  event ListedBookCreated (\r\n    uint tokenId,\r\n    address seller,\r\n    uint price,\r\n    uint amount\r\n  );\r\n\r\n  // Variable for Listed Books\r\n  mapping (uint => mapping (address => uint)) _allListedBook; // (tokenID -> (seller -> ID))\r\n  mapping(address => uint) private _totalOwnedListedBook;\r\n  mapping(uint => ListedBook) private _idToListedBook; // (ID -> ListedBook))\r\n  Counters.Counter private _listedBooks;\r\n\r\n  function getListedBook(uint tokenId, address seller) public view returns (ListedBook memory) {\r\n    uint idListedBook = getIdListedBook(tokenId, seller);\r\n    return _idToListedBook[idListedBook];\r\n  }\r\n\r\n  function getTotalOwnedListedBook(address seller) public view returns(uint) {\r\n    return _totalOwnedListedBook[seller];\r\n  }\r\n\r\n  function _createListedBook(uint tokenId, address seller, uint256 price, uint amount) private {\r\n    _listedBooks.increment();\r\n    _allListedBook[tokenId][seller] = _listedBooks.current();\r\n    _idToListedBook[_listedBooks.current()] = ListedBook(tokenId, seller, price, amount);\r\n    _totalOwnedListedBook[seller]++;\r\n    emit ListedBookCreated(tokenId, seller, price, amount);\r\n  }\r\n\r\n  // ===================================LISTING============================================\r\n\r\n  function getIdListedBook(uint tokenId, address seller) public view returns(uint) {\r\n    require(tokenId != 0 && seller != address(0), \"Token id and address of you is invalid\");\r\n    return _allListedBook[tokenId][seller];\r\n  }\r\n\r\n\r\n  function getAmountOfListedBooks(uint256 tokenId, address owner) public view returns(uint) {\r\n    uint idListedBook = getIdListedBook(tokenId, owner);\r\n\r\n    uint totalBook = 0;\r\n    if (idListedBook != 0) {\r\n      totalBook +=_idToListedBook[idListedBook].amount;\r\n    }\r\n    \r\n    return totalBook;\r\n  }\r\n\r\n  function sellListedBooks(uint256 tokenId, uint price, uint256 amount, address seller) public payable {\r\n    require(price > 0,\r\n           \"Price must be greater than zero\");\r\n    uint idListedBook = getIdListedBook(tokenId, seller);\r\n    if (idListedBook == 0) {\r\n      if (amount > 0) {\r\n        _createListedBook(tokenId, seller, price, amount);\r\n      }\r\n    } else {\r\n\r\n      ListedBook memory listedBook = _idToListedBook[idListedBook];\r\n      _idToListedBook[idListedBook].amount += amount;\r\n\r\n      // Update price of listed book if need\r\n      if (price != listedBook.price) {\r\n        _idToListedBook[idListedBook].price = price;\r\n      }\r\n\r\n    }\r\n  }\r\n\r\n  function _removeItemFromAllListedBooks(uint tokenId, address seller) private {\r\n    uint idListedBook = getIdListedBook(tokenId, seller);\r\n    uint lastIdListedBook = _listedBooks.current();\r\n    ListedBook memory lastListedBook = _idToListedBook[lastIdListedBook];\r\n    uint lastTokenId = lastListedBook.tokenId;\r\n    address lastSeller = lastListedBook.seller;\r\n    if (idListedBook != 0) {\r\n      if (lastIdListedBook != idListedBook) {\r\n        _allListedBook[lastTokenId][lastSeller] = idListedBook;\r\n        _idToListedBook[idListedBook] = lastListedBook;\r\n      }\r\n\r\n      _listedBooks.decrement();\r\n      _totalOwnedListedBook[seller]--;\r\n      delete _allListedBook[tokenId][seller];\r\n      delete _idToListedBook[lastIdListedBook];\r\n    }\r\n  }\r\n\r\n  function decreaseListedBookFromSale(uint256 tokenId, uint256 amount, address seller) public {\r\n    require(amount > 0,\r\n          \"removed amount of book is invalid\");\r\n    \r\n    uint idListedBook = getIdListedBook(tokenId, seller);\r\n    ListedBook memory listedBook = _idToListedBook[idListedBook];\r\n    require(idListedBook != 0,\r\n          \"Your book are not on sale\");\r\n\r\n    if (amount < listedBook.amount) {\r\n      _idToListedBook[idListedBook].amount -= amount;\r\n    } else {\r\n      _removeItemFromAllListedBooks(tokenId, seller);\r\n    }\r\n  }\r\n\r\n  function getAllListedBooks() public view returns (ListedBook[] memory) {\r\n    ListedBook[] memory books = new ListedBook[](_listedBooks.current());\r\n\r\n    for (uint i = 1; i <= _listedBooks.current(); i++) {\r\n      ListedBook memory book = _idToListedBook[i];\r\n      books[i - 1] = book;\r\n    }\r\n\r\n    return books;\r\n  }\r\n\r\n  function buyListedBooks(uint256 tokenId, address seller, uint256 amount, address buyer, uint256 value)public payable returns(uint) {\r\n\r\n    uint idListedBook = getIdListedBook(tokenId, seller);\r\n    if (idListedBook != 0) {\r\n      ListedBook memory listedBook = _idToListedBook[idListedBook];\r\n      require(buyer != listedBook.seller, \"You can't buy your own books on sale\");\r\n      require(value == amount * listedBook.price, \"Please submit the asking price\");\r\n      require(amount <= listedBook.amount && amount > 0, \"Amount is invalid\");\r\n\r\n      uint256 totalPrice = amount * listedBook.price;\r\n      decreaseListedBookFromSale(tokenId, amount, seller);\r\n\r\n      return totalPrice;\r\n    }\r\n\r\n    return 0;\r\n  }\r\n\r\n}",
  "sourcePath": "D:\\Workspace\\DoAnTotNghiep\\Product\\nft-bookstore\\contracts\\ListedBookStorage.sol",
  "compiler": {
    "name": "solc",
    "version": "0.8.17+commit.8df45f5f.Emscripten.clang"
  },
  "schemaVersion": "3.4.11",
  "updatedAt": "2023-02-25T08:19:31.392Z",
  "networkType": "ethereum",
  "devdoc": {
    "kind": "dev",
    "methods": {},
    "version": 1
  },
  "userdoc": {
    "kind": "user",
    "methods": {},
    "version": 1
  }
}