{
  "contractName": "ListedBookStorage",
  "abi": [
    {
      "anonymous": false,
      "inputs": [
        {
          "indexed": false,
          "internalType": "uint256",
          "name": "tokenId",
          "type": "uint256"
        },
        {
          "indexed": false,
          "internalType": "address",
          "name": "seller",
          "type": "address"
        },
        {
          "indexed": false,
          "internalType": "uint256",
          "name": "price",
          "type": "uint256"
        },
        {
          "indexed": false,
          "internalType": "uint256",
          "name": "amount",
          "type": "uint256"
        }
      ],
      "name": "ListedBookCreated",
      "type": "event"
    },
    {
      "inputs": [
        {
          "internalType": "uint256",
          "name": "tokenId",
          "type": "uint256"
        },
        {
          "internalType": "address",
          "name": "seller",
          "type": "address"
        }
      ],
      "name": "isListing",
      "outputs": [
        {
          "internalType": "bool",
          "name": "",
          "type": "bool"
        }
      ],
      "stateMutability": "view",
      "type": "function",
      "constant": true
    },
    {
      "inputs": [
        {
          "internalType": "uint256",
          "name": "tokenId",
          "type": "uint256"
        },
        {
          "internalType": "address",
          "name": "seller",
          "type": "address"
        }
      ],
      "name": "getListedBook",
      "outputs": [
        {
          "components": [
            {
              "internalType": "uint256",
              "name": "tokenId",
              "type": "uint256"
            },
            {
              "internalType": "address",
              "name": "seller",
              "type": "address"
            },
            {
              "internalType": "uint256",
              "name": "price",
              "type": "uint256"
            },
            {
              "internalType": "uint256",
              "name": "amount",
              "type": "uint256"
            }
          ],
          "internalType": "struct ListedBookStorage.ListedBook",
          "name": "",
          "type": "tuple"
        }
      ],
      "stateMutability": "view",
      "type": "function",
      "constant": true
    },
    {
      "inputs": [
        {
          "internalType": "uint256",
          "name": "idListedBook",
          "type": "uint256"
        }
      ],
      "name": "getListedBookById",
      "outputs": [
        {
          "components": [
            {
              "internalType": "uint256",
              "name": "tokenId",
              "type": "uint256"
            },
            {
              "internalType": "address",
              "name": "seller",
              "type": "address"
            },
            {
              "internalType": "uint256",
              "name": "price",
              "type": "uint256"
            },
            {
              "internalType": "uint256",
              "name": "amount",
              "type": "uint256"
            }
          ],
          "internalType": "struct ListedBookStorage.ListedBook",
          "name": "",
          "type": "tuple"
        }
      ],
      "stateMutability": "view",
      "type": "function",
      "constant": true
    },
    {
      "inputs": [
        {
          "internalType": "address",
          "name": "seller",
          "type": "address"
        }
      ],
      "name": "getTotalOwnedListedBook",
      "outputs": [
        {
          "internalType": "uint256",
          "name": "",
          "type": "uint256"
        }
      ],
      "stateMutability": "view",
      "type": "function",
      "constant": true
    },
    {
      "inputs": [
        {
          "internalType": "uint256",
          "name": "tokenId",
          "type": "uint256"
        },
        {
          "internalType": "address",
          "name": "seller",
          "type": "address"
        }
      ],
      "name": "getIdListedBook",
      "outputs": [
        {
          "internalType": "uint256",
          "name": "",
          "type": "uint256"
        }
      ],
      "stateMutability": "view",
      "type": "function",
      "constant": true
    },
    {
      "inputs": [
        {
          "internalType": "uint256",
          "name": "tokenId",
          "type": "uint256"
        },
        {
          "internalType": "address",
          "name": "owner",
          "type": "address"
        }
      ],
      "name": "getAmountOfListedBooks",
      "outputs": [
        {
          "internalType": "uint256",
          "name": "",
          "type": "uint256"
        }
      ],
      "stateMutability": "view",
      "type": "function",
      "constant": true
    },
    {
      "inputs": [
        {
          "internalType": "uint256",
          "name": "tokenId",
          "type": "uint256"
        },
        {
          "internalType": "uint256",
          "name": "price",
          "type": "uint256"
        },
        {
          "internalType": "uint256",
          "name": "amount",
          "type": "uint256"
        },
        {
          "internalType": "address",
          "name": "seller",
          "type": "address"
        }
      ],
      "name": "sellListedBooks",
      "outputs": [],
      "stateMutability": "payable",
      "type": "function",
      "payable": true
    },
    {
      "inputs": [
        {
          "internalType": "uint256",
          "name": "tokenId",
          "type": "uint256"
        },
        {
          "internalType": "uint256",
          "name": "newPrice",
          "type": "uint256"
        },
        {
          "internalType": "uint256",
          "name": "newAmount",
          "type": "uint256"
        },
        {
          "internalType": "address",
          "name": "seller",
          "type": "address"
        }
      ],
      "name": "updateListedBookFromSale",
      "outputs": [],
      "stateMutability": "nonpayable",
      "type": "function"
    },
    {
      "inputs": [],
      "name": "getAllListedBooks",
      "outputs": [
        {
          "components": [
            {
              "internalType": "uint256",
              "name": "tokenId",
              "type": "uint256"
            },
            {
              "internalType": "address",
              "name": "seller",
              "type": "address"
            },
            {
              "internalType": "uint256",
              "name": "price",
              "type": "uint256"
            },
            {
              "internalType": "uint256",
              "name": "amount",
              "type": "uint256"
            }
          ],
          "internalType": "struct ListedBookStorage.ListedBook[]",
          "name": "",
          "type": "tuple[]"
        }
      ],
      "stateMutability": "view",
      "type": "function",
      "constant": true
    },
    {
      "inputs": [
        {
          "internalType": "uint256",
          "name": "tokenId",
          "type": "uint256"
        },
        {
          "internalType": "address",
          "name": "seller",
          "type": "address"
        },
        {
          "internalType": "uint256",
          "name": "amount",
          "type": "uint256"
        },
        {
          "internalType": "address",
          "name": "buyer",
          "type": "address"
        },
        {
          "internalType": "uint256",
          "name": "value",
          "type": "uint256"
        }
      ],
      "name": "buyListedBooks",
      "outputs": [
        {
          "internalType": "uint256",
          "name": "",
          "type": "uint256"
        }
      ],
      "stateMutability": "payable",
      "type": "function",
      "payable": true
    }
  ],
  "bytecode": "0x608060405234801561001057600080fd5b50610d1c806100206000396000f3fe6080604052600436106100815760003560e01c8063101be81d1461008657806316b32f65146100b957806329832056146100e95780634c5aecb5146101165780635204a3ce1461012b57806375f319fa1461014d578063783db84b14610160578063c4a27f9a14610180578063ed148dd0146101a0578063f9ed2c32146101c0575b600080fd5b34801561009257600080fd5b506100a66100a1366004610abb565b6101f6565b6040519081526020015b60405180910390f35b3480156100c557600080fd5b506100d96100d4366004610abb565b610298565b60405190151581526020016100b0565b3480156100f557600080fd5b50610109610104366004610ae7565b6102c1565b6040516100b09190610b2c565b610129610124366004610b3a565b610314565b005b34801561013757600080fd5b506101406103cb565b6040516100b09190610b79565b6100a661015b366004610bc7565b6104c6565b34801561016c57600080fd5b5061012961017b366004610b3a565b61067c565b34801561018c57600080fd5b506100a661019b366004610abb565b610714565b3480156101ac57600080fd5b506101096101bb366004610abb565b610752565b3480156101cc57600080fd5b506100a66101db366004610c15565b6001600160a01b031660009081526001602052604090205490565b6000821580159061020f57506001600160a01b03821615155b61026f5760405162461bcd60e51b815260206004820152602660248201527f546f6b656e20696420616e642061646472657373206f6620796f7520697320696044820152651b9d985b1a5960d21b60648201526084015b60405180910390fd5b506000828152602081815260408083206001600160a01b03851684529091529020545b92915050565b6000806102a584846101f6565b905080156102b7576001915050610292565b6000915050610292565b6102c9610a6e565b5060009081526002602081815260409283902083516080810185528154815260018201546001600160a01b031692810192909252918201549281019290925260030154606082015290565b600061032085836101f6565b90508060000361033b57610336858386866107b5565b6103c4565b80156103c457600081815260026020818152604080842081516080810183528154815260018201546001600160a01b03168185015281850154928101929092526003018054606083018190528686529390925292869261039c908490610c4d565b9091555050604081015185146103c2576000828152600260208190526040909120018590555b505b5050505050565b606060006103d860035490565b67ffffffffffffffff8111156103f0576103f0610c60565b60405190808252806020026020018201604052801561042957816020015b610416610a6e565b81526020019060019003908161040e5790505b50905060015b60035481116104c0576000818152600260208181526040928390208351608081018552815481526001808301546001600160a01b0316938201939093529281015493830193909352600390920154606082015290819084906104919085610c76565b815181106104a1576104a1610c89565b60200260200101819052505080806104b890610c9f565b91505061042f565b50919050565b6000806104d387876101f6565b9050801561066d5760008181526002602081815260409283902083516080810185528154815260018201546001600160a01b0390811693820184905293820154948101949094526003015460608401529086160361057f5760405162461bcd60e51b8152602060048201526024808201527f596f752063616e27742062757920796f7572206f776e20626f6f6b73206f6e2060448201526373616c6560e01b6064820152608401610266565b604081015161058e9087610cb8565b84146105dc5760405162461bcd60e51b815260206004820152601e60248201527f506c65617365207375626d6974207468652061736b696e6720707269636500006044820152606401610266565b806060015186111580156105f05750600086115b6106305760405162461bcd60e51b8152602060048201526011602482015270105b5bdd5b9d081a5cc81a5b9d985b1a59607a1b6044820152606401610266565b60008160400151876106429190610cb8565b905061066389836040015189856060015161065d9190610c76565b8b61067c565b9250610673915050565b60009150505b95945050505050565b600061068885836101f6565b9050806000036106d65760405162461bcd60e51b8152602060048201526019602482015278596f757220626f6f6b20617265206e6f74206f6e2073616c6560381b6044820152606401610266565b600081815260026020819052604090912001849055821561070a5760008181526002602052604090206003018390556103c4565b6103c485836108b7565b60008061072184846101f6565b90506000811561074a576000828152600260205260409020600301546107479082610c4d565b90505b949350505050565b61075a610a6e565b600061076684846101f6565b60009081526002602081815260409283902083516080810185528154815260018201546001600160a01b0316928101929092529182015492810192909252600301546060820152949350505050565b6107c3600380546001019055565b600380546000868152602081815260408083206001600160a01b0389811680865291845282852086905582516080810184528b81528085018381528185018b8152606083018b81529888526002808852868920935184559151600180850180546001600160a01b031916929096169190911790945551908201559551959096019490945592825292909252812080549161085c83610c9f565b9091555050604080518581526001600160a01b0385166020820152908101839052606081018290527f5b83511fd1d3d8bfdab85700518eb12ccc021d17b8de38ab1acdd99d9705a4029060800160405180910390a150505050565b60006108c383836101f6565b905060006108d060035490565b6000818152600260208181526040928390208351608081018552815480825260018301546001600160a01b0316938201849052938201549481019490945260030154606084015292935090918415610a105784841461098f576000828152602081815260408083206001600160a01b03858116855290835281842089905588845260028084529382902087518155928701516001840180546001600160a01b031916919092161790558501519181019190915560608401516003909101555b6109996003610a19565b6001600160a01b03861660009081526001602052604081208054916109bd83610ccf565b90915550506000878152602081815260408083206001600160a01b038a168452825280832083905586835260029182905282208281556001810180546001600160a01b0319169055908101829055600301555b50505050505050565b805480610a665760405162461bcd60e51b815260206004820152601b60248201527a436f756e7465723a2064656372656d656e74206f766572666c6f7760281b6044820152606401610266565b600019019055565b60405180608001604052806000815260200160006001600160a01b0316815260200160008152602001600081525090565b80356001600160a01b0381168114610ab657600080fd5b919050565b60008060408385031215610ace57600080fd5b82359150610ade60208401610a9f565b90509250929050565b600060208284031215610af957600080fd5b5035919050565b805182526020808201516001600160a01b03169083015260408082015190830152606090810151910152565b608081016102928284610b00565b60008060008060808587031215610b5057600080fd5b843593506020850135925060408501359150610b6e60608601610a9f565b905092959194509250565b6020808252825182820181905260009190848201906040850190845b81811015610bbb57610ba8838551610b00565b9284019260809290920191600101610b95565b50909695505050505050565b600080600080600060a08688031215610bdf57600080fd5b85359450610bef60208701610a9f565b935060408601359250610c0460608701610a9f565b949793965091946080013592915050565b600060208284031215610c2757600080fd5b610c3082610a9f565b9392505050565b634e487b7160e01b600052601160045260246000fd5b8082018082111561029257610292610c37565b634e487b7160e01b600052604160045260246000fd5b8181038181111561029257610292610c37565b634e487b7160e01b600052603260045260246000fd5b600060018201610cb157610cb1610c37565b5060010190565b808202811582820484141761029257610292610c37565b600081610cde57610cde610c37565b50600019019056fea2646970667358221220356bcd17bedb7859da520fb91d557fcbb68bba8d1613b551bb90e0d55aba07f964736f6c63430008110033",
  "immutableReferences": {},
  "source": "// SPDX-License-Identifier: MIT\r\npragma solidity >=0.4.22 <0.9.0;\r\nimport \"@openzeppelin/contracts/utils/Counters.sol\";\r\n\r\ncontract ListedBookStorage {\r\n  using Counters for Counters.Counter;\r\n\r\n  struct ListedBook {\r\n    uint256 tokenId;\r\n    address seller;\r\n    uint price;\r\n    uint amount;\r\n  }\r\n\r\n  event ListedBookCreated(\r\n    uint tokenId,\r\n    address seller,\r\n    uint price,\r\n    uint amount\r\n  );\r\n\r\n  // Variable for Listed Books\r\n  mapping(uint => mapping(address => uint)) _allListedBook; // (tokenID -> (seller -> ID))\r\n  mapping(address => uint) private _totalOwnedListedBook;\r\n  mapping(uint => ListedBook) private _idToListedBook; // (ID -> ListedBook))\r\n  Counters.Counter private _listedBooks;\r\n\r\n  function isListing(uint tokenId, address seller) public view returns (bool) {\r\n    uint idListedBook = getIdListedBook(tokenId, seller);\r\n    if (idListedBook > 0) {\r\n      return true;\r\n    } else {\r\n      return false;\r\n    }\r\n  }\r\n\r\n  function getListedBook(\r\n    uint tokenId,\r\n    address seller\r\n  ) public view returns (ListedBook memory) {\r\n    uint idListedBook = getIdListedBook(tokenId, seller);\r\n    return _idToListedBook[idListedBook];\r\n  }\r\n\r\n  function getListedBookById(\r\n    uint idListedBook\r\n  ) public view returns (ListedBook memory) {\r\n    return _idToListedBook[idListedBook];\r\n  }\r\n\r\n  function getTotalOwnedListedBook(address seller) public view returns (uint) {\r\n    return _totalOwnedListedBook[seller];\r\n  }\r\n\r\n  function _createListedBook(\r\n    uint tokenId,\r\n    address seller,\r\n    uint256 price,\r\n    uint amount\r\n  ) private {\r\n    _listedBooks.increment();\r\n    _allListedBook[tokenId][seller] = _listedBooks.current();\r\n    _idToListedBook[_listedBooks.current()] = ListedBook(\r\n      tokenId,\r\n      seller,\r\n      price,\r\n      amount\r\n    );\r\n    _totalOwnedListedBook[seller]++;\r\n    emit ListedBookCreated(tokenId, seller, price, amount);\r\n  }\r\n\r\n  // ===================================LISTING============================================\r\n\r\n  function getIdListedBook(\r\n    uint tokenId,\r\n    address seller\r\n  ) public view returns (uint) {\r\n    require(\r\n      tokenId != 0 && seller != address(0),\r\n      \"Token id and address of you is invalid\"\r\n    );\r\n    return _allListedBook[tokenId][seller];\r\n  }\r\n\r\n  function getAmountOfListedBooks(\r\n    uint256 tokenId,\r\n    address owner\r\n  ) public view returns (uint) {\r\n    uint idListedBook = getIdListedBook(tokenId, owner);\r\n\r\n    uint totalBook = 0;\r\n    if (idListedBook != 0) {\r\n      totalBook += _idToListedBook[idListedBook].amount;\r\n    }\r\n\r\n    return totalBook;\r\n  }\r\n\r\n  function sellListedBooks(\r\n    uint256 tokenId,\r\n    uint price,\r\n    uint256 amount,\r\n    address seller\r\n  ) public payable {\r\n    uint idListedBook = getIdListedBook(tokenId, seller);\r\n    if (idListedBook == 0) {\r\n      _createListedBook(tokenId, seller, price, amount);\r\n    } else if (idListedBook != 0) {\r\n      ListedBook memory listedBook = _idToListedBook[idListedBook];\r\n      _idToListedBook[idListedBook].amount += amount;\r\n\r\n      // Update price of listed book if need\r\n      if (price != listedBook.price) {\r\n        _idToListedBook[idListedBook].price = price;\r\n      }\r\n    }\r\n  }\r\n\r\n  function _removeItemFromAllListedBooks(uint tokenId, address seller) private {\r\n    uint idListedBook = getIdListedBook(tokenId, seller);\r\n    uint lastIdListedBook = _listedBooks.current();\r\n    ListedBook memory lastListedBook = _idToListedBook[lastIdListedBook];\r\n    uint lastTokenId = lastListedBook.tokenId;\r\n    address lastSeller = lastListedBook.seller;\r\n    if (idListedBook != 0) {\r\n      if (lastIdListedBook != idListedBook) {\r\n        _allListedBook[lastTokenId][lastSeller] = idListedBook;\r\n        _idToListedBook[idListedBook] = lastListedBook;\r\n      }\r\n\r\n      _listedBooks.decrement();\r\n      _totalOwnedListedBook[seller]--;\r\n      delete _allListedBook[tokenId][seller];\r\n      delete _idToListedBook[lastIdListedBook];\r\n    }\r\n  }\r\n\r\n  function updateListedBookFromSale(\r\n    uint256 tokenId,\r\n    uint newPrice,\r\n    uint256 newAmount,\r\n    address seller\r\n  ) public {\r\n    uint idListedBook = getIdListedBook(tokenId, seller);\r\n    require(idListedBook != 0, \"Your book are not on sale\");\r\n\r\n    _idToListedBook[idListedBook].price = newPrice;\r\n\r\n    if (newAmount != 0) {\r\n      _idToListedBook[idListedBook].amount = newAmount;\r\n    } else {\r\n      _removeItemFromAllListedBooks(tokenId, seller);\r\n    }\r\n  }\r\n\r\n  function getAllListedBooks() public view returns (ListedBook[] memory) {\r\n    ListedBook[] memory books = new ListedBook[](_listedBooks.current());\r\n\r\n    for (uint i = 1; i <= _listedBooks.current(); i++) {\r\n      ListedBook memory book = _idToListedBook[i];\r\n      books[i - 1] = book;\r\n    }\r\n\r\n    return books;\r\n  }\r\n\r\n  function buyListedBooks(\r\n    uint256 tokenId,\r\n    address seller,\r\n    uint256 amount,\r\n    address buyer,\r\n    uint256 value\r\n  ) public payable returns (uint) {\r\n    uint idListedBook = getIdListedBook(tokenId, seller);\r\n    if (idListedBook != 0) {\r\n      ListedBook memory listedBook = _idToListedBook[idListedBook];\r\n      require(\r\n        buyer != listedBook.seller,\r\n        \"You can't buy your own books on sale\"\r\n      );\r\n      require(\r\n        value == amount * listedBook.price,\r\n        \"Please submit the asking price\"\r\n      );\r\n      require(amount <= listedBook.amount && amount > 0, \"Amount is invalid\");\r\n\r\n      uint256 totalPrice = amount * listedBook.price;\r\n\r\n      updateListedBookFromSale(\r\n        tokenId,\r\n        listedBook.price,\r\n        listedBook.amount - amount,\r\n        seller\r\n      );\r\n\r\n      return totalPrice;\r\n    }\r\n\r\n    return 0;\r\n  }\r\n}\r\n",
  "sourcePath": "D:\\DO_AN_TOT_NGHIEP\\project\\nft-bookstore\\contracts\\list\\ListedBookStorage.sol",
  "compiler": {
    "name": "solc",
    "version": "0.8.17+commit.8df45f5f.Emscripten.clang"
  },
  "schemaVersion": "3.4.11",
  "updatedAt": "2023-04-17T05:11:52.225Z",
  "networkType": "ethereum",
  "devdoc": {
    "kind": "dev",
    "methods": {},
    "version": 1
  },
  "userdoc": {
    "kind": "user",
    "methods": {},
    "version": 1
  }
}