{
  "contractName": "ListedBookStorage",
  "abi": [
    {
      "anonymous": false,
      "inputs": [
        {
          "indexed": false,
          "internalType": "uint256",
          "name": "tokenId",
          "type": "uint256"
        },
        {
          "indexed": false,
          "internalType": "address",
          "name": "seller",
          "type": "address"
        },
        {
          "indexed": false,
          "internalType": "uint256",
          "name": "price",
          "type": "uint256"
        },
        {
          "indexed": false,
          "internalType": "uint256",
          "name": "amount",
          "type": "uint256"
        }
      ],
      "name": "ListedBookCreated",
      "type": "event"
    },
    {
      "inputs": [
        {
          "internalType": "uint256",
          "name": "tokenId",
          "type": "uint256"
        },
        {
          "internalType": "address",
          "name": "seller",
          "type": "address"
        }
      ],
      "name": "getListedBook",
      "outputs": [
        {
          "components": [
            {
              "internalType": "uint256",
              "name": "tokenId",
              "type": "uint256"
            },
            {
              "internalType": "address",
              "name": "seller",
              "type": "address"
            },
            {
              "internalType": "uint256",
              "name": "price",
              "type": "uint256"
            },
            {
              "internalType": "uint256",
              "name": "amount",
              "type": "uint256"
            }
          ],
          "internalType": "struct ListedBookStorage.ListedBook",
          "name": "",
          "type": "tuple"
        }
      ],
      "stateMutability": "view",
      "type": "function",
      "constant": true
    },
    {
      "inputs": [
        {
          "internalType": "address",
          "name": "seller",
          "type": "address"
        }
      ],
      "name": "getTotalOwnedListedBook",
      "outputs": [
        {
          "internalType": "uint256",
          "name": "",
          "type": "uint256"
        }
      ],
      "stateMutability": "view",
      "type": "function",
      "constant": true
    },
    {
      "inputs": [
        {
          "internalType": "uint256",
          "name": "tokenId",
          "type": "uint256"
        },
        {
          "internalType": "address",
          "name": "seller",
          "type": "address"
        }
      ],
      "name": "getIdListedBook",
      "outputs": [
        {
          "internalType": "uint256",
          "name": "",
          "type": "uint256"
        }
      ],
      "stateMutability": "view",
      "type": "function",
      "constant": true
    },
    {
      "inputs": [
        {
          "internalType": "uint256",
          "name": "tokenId",
          "type": "uint256"
        },
        {
          "internalType": "address",
          "name": "owner",
          "type": "address"
        }
      ],
      "name": "getAmountOfListedBooks",
      "outputs": [
        {
          "internalType": "uint256",
          "name": "",
          "type": "uint256"
        }
      ],
      "stateMutability": "view",
      "type": "function",
      "constant": true
    },
    {
      "inputs": [
        {
          "internalType": "uint256",
          "name": "tokenId",
          "type": "uint256"
        },
        {
          "internalType": "uint256",
          "name": "price",
          "type": "uint256"
        },
        {
          "internalType": "uint256",
          "name": "amount",
          "type": "uint256"
        },
        {
          "internalType": "address",
          "name": "seller",
          "type": "address"
        }
      ],
      "name": "sellListedBooks",
      "outputs": [],
      "stateMutability": "payable",
      "type": "function",
      "payable": true
    },
    {
      "inputs": [
        {
          "internalType": "uint256",
          "name": "tokenId",
          "type": "uint256"
        },
        {
          "internalType": "uint256",
          "name": "newPrice",
          "type": "uint256"
        },
        {
          "internalType": "uint256",
          "name": "newAmount",
          "type": "uint256"
        },
        {
          "internalType": "address",
          "name": "seller",
          "type": "address"
        }
      ],
      "name": "updateListedBookFromSale",
      "outputs": [],
      "stateMutability": "nonpayable",
      "type": "function"
    },
    {
      "inputs": [],
      "name": "getAllListedBooks",
      "outputs": [
        {
          "components": [
            {
              "internalType": "uint256",
              "name": "tokenId",
              "type": "uint256"
            },
            {
              "internalType": "address",
              "name": "seller",
              "type": "address"
            },
            {
              "internalType": "uint256",
              "name": "price",
              "type": "uint256"
            },
            {
              "internalType": "uint256",
              "name": "amount",
              "type": "uint256"
            }
          ],
          "internalType": "struct ListedBookStorage.ListedBook[]",
          "name": "",
          "type": "tuple[]"
        }
      ],
      "stateMutability": "view",
      "type": "function",
      "constant": true
    },
    {
      "inputs": [
        {
          "internalType": "uint256",
          "name": "tokenId",
          "type": "uint256"
        },
        {
          "internalType": "address",
          "name": "seller",
          "type": "address"
        },
        {
          "internalType": "uint256",
          "name": "amount",
          "type": "uint256"
        },
        {
          "internalType": "address",
          "name": "buyer",
          "type": "address"
        },
        {
          "internalType": "uint256",
          "name": "value",
          "type": "uint256"
        }
      ],
      "name": "buyListedBooks",
      "outputs": [
        {
          "internalType": "uint256",
          "name": "",
          "type": "uint256"
        }
      ],
      "stateMutability": "payable",
      "type": "function",
      "payable": true
    }
  ],
  "bytecode": "0x608060405234801561001057600080fd5b50610c7f806100206000396000f3fe60806040526004361061007b5760003560e01c8063783db84b1161004e578063783db84b146100fd578063c4a27f9a1461011d578063ed148dd01461013d578063f9ed2c321461016a57600080fd5b8063101be81d146100805780634c5aecb5146100b35780635204a3ce146100c857806375f319fa146100ea575b600080fd5b34801561008c57600080fd5b506100a061009b366004610a16565b6101a0565b6040519081526020015b60405180910390f35b6100c66100c1366004610a42565b610242565b005b3480156100d457600080fd5b506100dd6102f9565b6040516100aa9190610a81565b6100a06100f8366004610af6565b610420565b34801561010957600080fd5b506100c6610118366004610a42565b6105d6565b34801561012957600080fd5b506100a0610138366004610a16565b610672565b34801561014957600080fd5b5061015d610158366004610a16565b6106b0565b6040516100aa9190610b44565b34801561017657600080fd5b506100a0610185366004610b78565b6001600160a01b031660009081526001602052604090205490565b600082158015906101b957506001600160a01b03821615155b6102195760405162461bcd60e51b815260206004820152602660248201527f546f6b656e20696420616e642061646472657373206f6620796f7520697320696044820152651b9d985b1a5960d21b60648201526084015b60405180910390fd5b506000828152602081815260408083206001600160a01b03851684529091529020545b92915050565b600061024e85836101a0565b905080600003610269576102648583868661073f565b6102f2565b80156102f257600081815260026020818152604080842081516080810183528154815260018201546001600160a01b0316818501528185015492810192909252600301805460608301819052868652939092529286926102ca908490610bb0565b9091555050604081015185146102f0576000828152600260208190526040909120018590555b505b5050505050565b6060600061030660035490565b67ffffffffffffffff81111561031e5761031e610bc3565b60405190808252806020026020018201604052801561038357816020015b61037060405180608001604052806000815260200160006001600160a01b0316815260200160008152602001600081525090565b81526020019060019003908161033c5790505b50905060015b600354811161041a576000818152600260208181526040928390208351608081018552815481526001808301546001600160a01b0316938201939093529281015493830193909352600390920154606082015290819084906103eb9085610bd9565b815181106103fb576103fb610bec565b602002602001018190525050808061041290610c02565b915050610389565b50919050565b60008061042d87876101a0565b905080156105c75760008181526002602081815260409283902083516080810185528154815260018201546001600160a01b039081169382018490529382015494810194909452600301546060840152908616036104d95760405162461bcd60e51b8152602060048201526024808201527f596f752063616e27742062757920796f7572206f776e20626f6f6b73206f6e2060448201526373616c6560e01b6064820152608401610210565b60408101516104e89087610c1b565b84146105365760405162461bcd60e51b815260206004820152601e60248201527f506c65617365207375626d6974207468652061736b696e6720707269636500006044820152606401610210565b8060600151861115801561054a5750600086115b61058a5760405162461bcd60e51b8152602060048201526011602482015270105b5bdd5b9d081a5cc81a5b9d985b1a59607a1b6044820152606401610210565b600081604001518761059c9190610c1b565b90506105bd8983604001518985606001516105b79190610bd9565b8b6105d6565b92506105cd915050565b60009150505b95945050505050565b60006105e285836101a0565b9050806000036106345760405162461bcd60e51b815260206004820152601960248201527f596f757220626f6f6b20617265206e6f74206f6e2073616c65000000000000006044820152606401610210565b60008181526002602081905260409091200184905582156106685760008181526002602052604090206003018390556102f2565b6102f28583610841565b60008061067f84846101a0565b9050600081156106a8576000828152600260205260409020600301546106a59082610bb0565b90505b949350505050565b6106e460405180608001604052806000815260200160006001600160a01b0316815260200160008152602001600081525090565b60006106f084846101a0565b60009081526002602081815260409283902083516080810185528154815260018201546001600160a01b0316928101929092529182015492810192909252600301546060820152949350505050565b61074d600380546001019055565b600380546000868152602081815260408083206001600160a01b0389811680865291845282852086905582516080810184528b81528085018381528185018b8152606083018b81529888526002808852868920935184559151600180850180546001600160a01b03191692909616919091179094555190820155955195909601949094559282529290925281208054916107e683610c02565b9091555050604080518581526001600160a01b0385166020820152908101839052606081018290527f5b83511fd1d3d8bfdab85700518eb12ccc021d17b8de38ab1acdd99d9705a4029060800160405180910390a150505050565b600061084d83836101a0565b9050600061085a60035490565b6000818152600260208181526040928390208351608081018552815480825260018301546001600160a01b031693820184905293820154948101949094526003015460608401529293509091841561099a57848414610919576000828152602081815260408083206001600160a01b03858116855290835281842089905588845260028084529382902087518155928701516001840180546001600160a01b031916919092161790558501519181019190915560608401516003909101555b61092360036109a3565b6001600160a01b038616600090815260016020526040812080549161094783610c32565b90915550506000878152602081815260408083206001600160a01b038a168452825280832083905586835260029182905282208281556001810180546001600160a01b0319169055908101829055600301555b50505050505050565b8054806109f25760405162461bcd60e51b815260206004820152601b60248201527f436f756e7465723a2064656372656d656e74206f766572666c6f7700000000006044820152606401610210565b600019019055565b80356001600160a01b0381168114610a1157600080fd5b919050565b60008060408385031215610a2957600080fd5b82359150610a39602084016109fa565b90509250929050565b60008060008060808587031215610a5857600080fd5b843593506020850135925060408501359150610a76606086016109fa565b905092959194509250565b6020808252825182820181905260009190848201906040850190845b81811015610aea57610ad7838551805182526020808201516001600160a01b03169083015260408082015190830152606090810151910152565b9284019260809290920191600101610a9d565b50909695505050505050565b600080600080600060a08688031215610b0e57600080fd5b85359450610b1e602087016109fa565b935060408601359250610b33606087016109fa565b949793965091946080013592915050565b815181526020808301516001600160a01b03169082015260408083015190820152606080830151908201526080810161023c565b600060208284031215610b8a57600080fd5b610b93826109fa565b9392505050565b634e487b7160e01b600052601160045260246000fd5b8082018082111561023c5761023c610b9a565b634e487b7160e01b600052604160045260246000fd5b8181038181111561023c5761023c610b9a565b634e487b7160e01b600052603260045260246000fd5b600060018201610c1457610c14610b9a565b5060010190565b808202811582820484141761023c5761023c610b9a565b600081610c4157610c41610b9a565b50600019019056fea2646970667358221220eb089bc1e4fe25b88b5693ce8b407ea2da26a0fa02b28e112a324501d234cce464736f6c63430008110033",
  "immutableReferences": {},
  "source": "// SPDX-License-Identifier: MIT\r\npragma solidity >=0.4.22 <0.9.0;\r\nimport \"@openzeppelin/contracts/utils/Counters.sol\";\r\n\r\ncontract ListedBookStorage {\r\n  using Counters for Counters.Counter;\r\n\r\n  struct ListedBook {\r\n    uint256 tokenId;\r\n    address seller;\r\n    uint price;\r\n    uint amount;\r\n  }\r\n\r\n  event ListedBookCreated (\r\n    uint tokenId,\r\n    address seller,\r\n    uint price,\r\n    uint amount\r\n  );\r\n\r\n  // Variable for Listed Books\r\n  mapping (uint => mapping (address => uint)) _allListedBook; // (tokenID -> (seller -> ID))\r\n  mapping(address => uint) private _totalOwnedListedBook;\r\n  mapping(uint => ListedBook) private _idToListedBook; // (ID -> ListedBook))\r\n  Counters.Counter private _listedBooks;\r\n\r\n  function getListedBook(uint tokenId, address seller) public view returns (ListedBook memory) {\r\n    uint idListedBook = getIdListedBook(tokenId, seller);\r\n    return _idToListedBook[idListedBook];\r\n  }\r\n\r\n  function getTotalOwnedListedBook(address seller) public view returns(uint) {\r\n    return _totalOwnedListedBook[seller];\r\n  }\r\n\r\n  function _createListedBook(uint tokenId, address seller, uint256 price, uint amount) private {\r\n    _listedBooks.increment();\r\n    _allListedBook[tokenId][seller] = _listedBooks.current();\r\n    _idToListedBook[_listedBooks.current()] = ListedBook(tokenId, seller, price, amount);\r\n    _totalOwnedListedBook[seller]++;\r\n    emit ListedBookCreated(tokenId, seller, price, amount);\r\n  }\r\n\r\n  // ===================================LISTING============================================\r\n\r\n  function getIdListedBook(uint tokenId, address seller) public view returns(uint) {\r\n    require(tokenId != 0 && seller != address(0), \"Token id and address of you is invalid\");\r\n    return _allListedBook[tokenId][seller];\r\n  }\r\n\r\n\r\n  function getAmountOfListedBooks(uint256 tokenId, address owner) public view returns(uint) {\r\n    uint idListedBook = getIdListedBook(tokenId, owner);\r\n\r\n    uint totalBook = 0;\r\n    if (idListedBook != 0) {\r\n      totalBook +=_idToListedBook[idListedBook].amount;\r\n    }\r\n    \r\n    return totalBook;\r\n  }\r\n\r\n  function sellListedBooks(uint256 tokenId, uint price, uint256 amount, address seller) public payable {\r\n    uint idListedBook = getIdListedBook(tokenId, seller);\r\n    if (idListedBook == 0) {\r\n      _createListedBook(tokenId, seller, price, amount);\r\n    } else if (idListedBook != 0) {\r\n\r\n      ListedBook memory listedBook = _idToListedBook[idListedBook];\r\n      _idToListedBook[idListedBook].amount += amount;\r\n\r\n      // Update price of listed book if need\r\n      if (price != listedBook.price) {\r\n        _idToListedBook[idListedBook].price = price;\r\n      }\r\n\r\n    }\r\n  }\r\n\r\n  function _removeItemFromAllListedBooks(uint tokenId, address seller) private {\r\n    uint idListedBook = getIdListedBook(tokenId, seller);\r\n    uint lastIdListedBook = _listedBooks.current();\r\n    ListedBook memory lastListedBook = _idToListedBook[lastIdListedBook];\r\n    uint lastTokenId = lastListedBook.tokenId;\r\n    address lastSeller = lastListedBook.seller;\r\n    if (idListedBook != 0) {\r\n      if (lastIdListedBook != idListedBook) {\r\n        _allListedBook[lastTokenId][lastSeller] = idListedBook;\r\n        _idToListedBook[idListedBook] = lastListedBook;\r\n      }\r\n\r\n      _listedBooks.decrement();\r\n      _totalOwnedListedBook[seller]--;\r\n      delete _allListedBook[tokenId][seller];\r\n      delete _idToListedBook[lastIdListedBook];\r\n    }\r\n  }\r\n\r\n  function updateListedBookFromSale(uint256 tokenId, uint newPrice, uint256 newAmount, address seller) public {\r\n    uint idListedBook = getIdListedBook(tokenId, seller);\r\n    require(idListedBook != 0,\r\n          \"Your book are not on sale\");\r\n\r\n    _idToListedBook[idListedBook].price = newPrice;\r\n\r\n    if(newAmount != 0) {\r\n      _idToListedBook[idListedBook].amount = newAmount;\r\n    } else {\r\n      _removeItemFromAllListedBooks(tokenId, seller);\r\n    }\r\n  }\r\n\r\n  function getAllListedBooks() public view returns (ListedBook[] memory) {\r\n    ListedBook[] memory books = new ListedBook[](_listedBooks.current());\r\n\r\n    for (uint i = 1; i <= _listedBooks.current(); i++) {\r\n      ListedBook memory book = _idToListedBook[i];\r\n      books[i - 1] = book;\r\n    }\r\n\r\n    return books;\r\n  }\r\n\r\n  function buyListedBooks(uint256 tokenId, address seller, uint256 amount, address buyer, uint256 value) public payable returns(uint) {\r\n\r\n    uint idListedBook = getIdListedBook(tokenId, seller);\r\n    if (idListedBook != 0) {\r\n      ListedBook memory listedBook = _idToListedBook[idListedBook];\r\n      require(buyer != listedBook.seller, \"You can't buy your own books on sale\");\r\n      require(value == amount * listedBook.price, \"Please submit the asking price\");\r\n      require(amount <= listedBook.amount && amount > 0, \"Amount is invalid\");\r\n\r\n      uint256 totalPrice = amount * listedBook.price;\r\n\r\n      updateListedBookFromSale(tokenId, \r\n                              listedBook.price,\r\n                              listedBook.amount - amount,\r\n                              seller);\r\n\r\n      return totalPrice;\r\n    }\r\n\r\n    return 0;\r\n  }\r\n\r\n}",
  "sourcePath": "D:\\Workspace\\DoAnTotNghiep\\Product\\nft-bookstore\\contracts\\ListedBookStorage.sol",
  "compiler": {
    "name": "solc",
    "version": "0.8.17+commit.8df45f5f.Emscripten.clang"
  },
  "schemaVersion": "3.4.11",
  "updatedAt": "2023-02-26T11:35:11.118Z",
  "networkType": "ethereum",
  "devdoc": {
    "kind": "dev",
    "methods": {},
    "version": 1
  },
  "userdoc": {
    "kind": "user",
    "methods": {},
    "version": 1
  }
}