{
  "contractName": "ListRealOwners",
  "abi": [
    {
      "inputs": [
        {
          "internalType": "uint256",
          "name": "tokenId",
          "type": "uint256"
        },
        {
          "internalType": "address",
          "name": "sender",
          "type": "address"
        }
      ],
      "name": "isRealOwnerForTokenId",
      "outputs": [
        {
          "internalType": "bool",
          "name": "",
          "type": "bool"
        }
      ],
      "stateMutability": "view",
      "type": "function",
      "constant": true
    },
    {
      "inputs": [
        {
          "internalType": "uint256",
          "name": "tokenId",
          "type": "uint256"
        }
      ],
      "name": "getAllRealOwnerOfTokenId",
      "outputs": [
        {
          "internalType": "address[]",
          "name": "",
          "type": "address[]"
        }
      ],
      "stateMutability": "view",
      "type": "function",
      "constant": true
    },
    {
      "inputs": [
        {
          "internalType": "uint256",
          "name": "realOwnerQuantity",
          "type": "uint256"
        },
        {
          "internalType": "uint256",
          "name": "tokenId",
          "type": "uint256"
        },
        {
          "internalType": "address",
          "name": "sender",
          "type": "address"
        }
      ],
      "name": "updateRealOwnerOfTokenIdIfNeed",
      "outputs": [],
      "stateMutability": "nonpayable",
      "type": "function"
    }
  ],
  "bytecode": "0x608060405234801561001057600080fd5b506104d0806100206000396000f3fe608060405234801561001057600080fd5b50600436106100415760003560e01c80637ba9a1b3146100465780639127e43d1461006f578063d8e7337f14610092575b600080fd5b610059610054366004610349565b6100a7565b6040516100669190610362565b60405180910390f35b61008261007d3660046103cb565b610111565b6040519015158152602001610066565b6100a56100a03660046103f7565b61019b565b005b6000818152602081815260409182902080548351818402810184019094528084526060939283018282801561010557602002820191906000526020600020905b81546001600160a01b031681526001909101906020018083116100e7575b50505050509050919050565b600082815260208190526040812054815b8181101561018e57836001600160a01b031660008087815260200190815260200160002082815481106101575761015761042c565b6000918252602090912001546001600160a01b03160361017c57600192505050610195565b8061018681610458565b915050610122565b5060009150505b92915050565b60008281526020819052604090205483158015906101c057506101be8383610111565b155b15610204575060009182526020828152604083208054600181018255908452922090910180546001600160a01b0319166001600160a01b0390921691909117905550565b836000036103435760005b8181101561034157826001600160a01b031660008086815260200190815260200160002082815481106102445761024461042c565b6000918252602090912001546001600160a01b03160361032f576000848152602081905260409020610277600184610471565b815481106102875761028761042c565b600091825260208083209091015486835290829052604090912080546001600160a01b0390921691839081106102bf576102bf61042c565b600091825260208083209190910180546001600160a01b0319166001600160a01b039490941693909317909255858152908190526040902080548061030657610306610484565b600082815260209020810160001990810180546001600160a01b03191690550190555050505050565b8061033981610458565b91505061020f565b505b50505050565b60006020828403121561035b57600080fd5b5035919050565b6020808252825182820181905260009190848201906040850190845b818110156103a35783516001600160a01b03168352928401929184019160010161037e565b50909695505050505050565b80356001600160a01b03811681146103c657600080fd5b919050565b600080604083850312156103de57600080fd5b823591506103ee602084016103af565b90509250929050565b60008060006060848603121561040c57600080fd5b8335925060208401359150610423604085016103af565b90509250925092565b634e487b7160e01b600052603260045260246000fd5b634e487b7160e01b600052601160045260246000fd5b60006001820161046a5761046a610442565b5060010190565b8181038181111561019557610195610442565b634e487b7160e01b600052603160045260246000fdfea2646970667358221220a85df08d8172ba996190ea42eb406067cc0cd8ec6597faabab3c6eb1e824fb2e64736f6c63430008110033",
  "immutableReferences": {},
  "source": "// SPDX-License-Identifier: MIT\r\n// pragma solidity >=0.4.22 <0.9.0;\r\npragma solidity ^0.8.17;\r\n\r\ncontract ListRealOwners {\r\n\r\n    mapping(uint => address[]) private _allRealOwnerOfTokenId;\r\n\r\n    function isRealOwnerForTokenId(uint tokenId, address sender) public view returns (bool) {\r\n        uint length = _allRealOwnerOfTokenId[tokenId].length;\r\n        for (uint i = 0; i < length; i++) {\r\n            if (_allRealOwnerOfTokenId[tokenId][i] == sender) {\r\n                return true;\r\n            } \r\n        }\r\n\r\n        return false;\r\n    }\r\n\r\n    function getAllRealOwnerOfTokenId(uint tokenId) \r\n        public view returns (address[] memory) {\r\n        return _allRealOwnerOfTokenId[tokenId];\r\n    }\r\n\r\n    function updateRealOwnerOfTokenIdIfNeed(uint realOwnerQuantity, \r\n                                            uint tokenId, \r\n                                            address sender) public {\r\n        uint length = _allRealOwnerOfTokenId[tokenId].length;\r\n        if (realOwnerQuantity > 0 && !isRealOwnerForTokenId(tokenId, sender)) {\r\n            _allRealOwnerOfTokenId[tokenId].push(sender);\r\n            return;\r\n        } \r\n        if (realOwnerQuantity == 0) {\r\n            for (uint i = 0; i < length; i++) {\r\n                if (_allRealOwnerOfTokenId[tokenId][i] == sender) {\r\n                    _allRealOwnerOfTokenId[tokenId][i] = _allRealOwnerOfTokenId[tokenId][length - 1];\r\n                    _allRealOwnerOfTokenId[tokenId].pop();\r\n                    return;\r\n                } \r\n            }\r\n        }\r\n    }\r\n\r\n}",
  "sourcePath": "D:\\HCMUS_Nam4_HocKi1\\04_DoAnTotNghiep\\nft-bookstore-development\\nft-bookstore\\contracts\\ListRealOwners.sol",
  "compiler": {
    "name": "solc",
    "version": "0.8.17+commit.8df45f5f.Emscripten.clang"
  },
  "schemaVersion": "3.4.12",
  "updatedAt": "2023-06-29T15:10:07.626Z",
  "networkType": "ethereum",
  "devdoc": {
    "kind": "dev",
    "methods": {},
    "version": 1
  },
  "userdoc": {
    "kind": "user",
    "methods": {},
    "version": 1
  }
}