{
  "contractName": "PurchasedBookStorage",
  "abi": [
    {
      "anonymous": false,
      "inputs": [
        {
          "indexed": false,
          "internalType": "uint256",
          "name": "listedId",
          "type": "uint256"
        },
        {
          "indexed": false,
          "internalType": "address",
          "name": "buyer",
          "type": "address"
        },
        {
          "indexed": false,
          "internalType": "uint256",
          "name": "amount",
          "type": "uint256"
        }
      ],
      "name": "PurchasedBookCreated",
      "type": "event"
    },
    {
      "inputs": [
        {
          "internalType": "uint256",
          "name": "listedId",
          "type": "uint256"
        },
        {
          "internalType": "address",
          "name": "buyer",
          "type": "address"
        },
        {
          "internalType": "uint256",
          "name": "amount",
          "type": "uint256"
        }
      ],
      "name": "createPurchasedBook",
      "outputs": [],
      "stateMutability": "nonpayable",
      "type": "function"
    },
    {
      "inputs": [
        {
          "internalType": "address",
          "name": "buyer",
          "type": "address"
        }
      ],
      "name": "getTotalOwnedPurchasedBook",
      "outputs": [
        {
          "internalType": "uint256",
          "name": "",
          "type": "uint256"
        }
      ],
      "stateMutability": "view",
      "type": "function",
      "constant": true
    },
    {
      "inputs": [
        {
          "internalType": "address",
          "name": "owner",
          "type": "address"
        }
      ],
      "name": "getOwnedPurchasedBooks",
      "outputs": [
        {
          "components": [
            {
              "internalType": "uint256",
              "name": "listedId",
              "type": "uint256"
            },
            {
              "internalType": "address",
              "name": "buyer",
              "type": "address"
            },
            {
              "internalType": "uint256",
              "name": "amount",
              "type": "uint256"
            }
          ],
          "internalType": "struct PurchasedBookStorage.PurchasedBook[]",
          "name": "",
          "type": "tuple[]"
        }
      ],
      "stateMutability": "view",
      "type": "function",
      "constant": true
    }
  ],
  "bytecode": "0x608060405234801561001057600080fd5b506104cc806100206000396000f3fe608060405234801561001057600080fd5b50600436106100415760003560e01c80638f5b2b0e146100465780638fd346891461006c5780639a3ccbc61461008c575b600080fd5b61005961005436600461038a565b6100a1565b6040519081526020015b60405180910390f35b61007f61007a36600461038a565b6100bc565b60405161006391906103ac565b61009f61009a36600461040e565b610207565b005b6001600160a01b031660009081526001602052604090205490565b606060006100c9836100a1565b905060008167ffffffffffffffff8111156100e6576100e6610443565b60405190808252806020026020018201604052801561014457816020015b61013160405180606001604052806000815260200160006001600160a01b03168152602001600081525090565b8152602001906001900390816101045790505b5090506000805b838110156101fd576001600160a01b0380871660009081526020818152604080832085845282529182902082516060810184528154808252600183015490951692810192909252600201549181019190915290158015906101b8575060208101516001600160a01b031615155b156101ea57808483815181106101d0576101d0610459565b602002602001018190525082806101e69061046f565b9350505b50806101f58161046f565b91505061014b565b5090949350505050565b6001600160a01b038216600090815260016020526040902054801561028b57604080516060810182528581526001600160a01b0385811660208084018281528486018881526000938452838352868420888552909252949091209251835592516001830180546001600160a01b0319169190921617905590516002909101556102f6565b6001600160a01b03838116600081815260016020818152604080842084905580516060810182528a81528083018681528183018a81529686528584528286208680529093529320925183555190820180546001600160a01b0319169190941617909255516002909101555b6001600160a01b038316600090815260016020526040812080549161031a8361046f565b9091555050604080518581526001600160a01b03851660208201529081018390527f344a0b6f0f6ec222cc608edcfcaf52fef5caeaa550e08a0ba78d5a26cce9f0c89060600160405180910390a150505050565b80356001600160a01b038116811461038557600080fd5b919050565b60006020828403121561039c57600080fd5b6103a58261036e565b9392505050565b602080825282518282018190526000919060409081850190868401855b8281101561040157815180518552868101516001600160a01b03168786015285015185850152606090930192908501906001016103c9565b5091979650505050505050565b60008060006060848603121561042357600080fd5b833592506104336020850161036e565b9150604084013590509250925092565b634e487b7160e01b600052604160045260246000fd5b634e487b7160e01b600052603260045260246000fd5b60006001820161048f57634e487b7160e01b600052601160045260246000fd5b506001019056fea2646970667358221220dcdbcc4c20cdae1db3e61b24f86a137703b3afd75a53eb239d2d5cede386f95564736f6c63430008110033",
  "immutableReferences": {},
  "source": "// SPDX-License-Identifier: MIT\r\npragma solidity >=0.4.22 <0.9.0;\r\n\r\ncontract PurchasedBookStorage {\r\n  struct PurchasedBook {\r\n    uint256 listedId;\r\n    address buyer;\r\n    uint amount;\r\n  }\r\n\r\n  event PurchasedBookCreated(uint listedId, address buyer, uint amount);\r\n\r\n  // Variable for Purchased Books\r\n  mapping(address => mapping(uint => PurchasedBook))\r\n    private _ownedPurchasedBooks;\r\n  mapping(address => uint) private _totalOwnedPurchasedBook;\r\n\r\n  function createPurchasedBook(\r\n    uint listedId,\r\n    address buyer,\r\n    uint amount\r\n  ) public {\r\n    uint length = _totalOwnedPurchasedBook[buyer];\r\n    if (length > 0) {\r\n      _ownedPurchasedBooks[buyer][length] = PurchasedBook(\r\n        listedId,\r\n        buyer,\r\n        amount\r\n      );\r\n    } else {\r\n      _totalOwnedPurchasedBook[buyer] = 0;\r\n      _ownedPurchasedBooks[buyer][0] = PurchasedBook(listedId, buyer, amount);\r\n    }\r\n    _totalOwnedPurchasedBook[buyer]++;\r\n    emit PurchasedBookCreated(listedId, buyer, amount);\r\n  }\r\n\r\n  function getTotalOwnedPurchasedBook(\r\n    address buyer\r\n  ) public view returns (uint) {\r\n    return _totalOwnedPurchasedBook[buyer];\r\n  }\r\n\r\n  function getOwnedPurchasedBooks(\r\n    address owner\r\n  ) public view returns (PurchasedBook[] memory) {\r\n    uint ownedPurchasedBookCount = getTotalOwnedPurchasedBook(owner);\r\n    PurchasedBook[] memory books = new PurchasedBook[](ownedPurchasedBookCount);\r\n\r\n    uint currentIndex = 0;\r\n    for (uint i = 0; i < ownedPurchasedBookCount; i++) {\r\n      PurchasedBook memory book = _ownedPurchasedBooks[owner][i];\r\n      if (book.listedId != 0 && book.buyer != address(0)) {\r\n        books[i] = book;\r\n        currentIndex++;\r\n      }\r\n    }\r\n\r\n    return books;\r\n  }\r\n}\r\n",
  "sourcePath": "D:\\DO_AN_TOT_NGHIEP\\project\\nft-bookstore\\contracts\\purchase\\PurchasedBookStorage.sol",
  "compiler": {
    "name": "solc",
    "version": "0.8.17+commit.8df45f5f.Emscripten.clang"
  },
  "schemaVersion": "3.4.11",
  "updatedAt": "2023-04-17T05:11:52.304Z",
  "networkType": "ethereum",
  "devdoc": {
    "kind": "dev",
    "methods": {},
    "version": 1
  },
  "userdoc": {
    "kind": "user",
    "methods": {},
    "version": 1
  }
}