{
  "contractName": "RentedBookStorage",
  "abi": [
    {
      "anonymous": false,
      "inputs": [
        {
          "indexed": false,
          "internalType": "uint256",
          "name": "tokenId",
          "type": "uint256"
        },
        {
          "indexed": false,
          "internalType": "address",
          "name": "renter",
          "type": "address"
        },
        {
          "indexed": false,
          "internalType": "address",
          "name": "borrower",
          "type": "address"
        },
        {
          "indexed": false,
          "internalType": "uint256",
          "name": "price",
          "type": "uint256"
        },
        {
          "indexed": false,
          "internalType": "uint256",
          "name": "amount",
          "type": "uint256"
        },
        {
          "indexed": false,
          "internalType": "uint256",
          "name": "startTime",
          "type": "uint256"
        },
        {
          "indexed": false,
          "internalType": "uint256",
          "name": "endTime",
          "type": "uint256"
        }
      ],
      "name": "BorrowedBookCreated",
      "type": "event"
    },
    {
      "anonymous": false,
      "inputs": [
        {
          "indexed": false,
          "internalType": "uint256",
          "name": "tokenId",
          "type": "uint256"
        },
        {
          "indexed": false,
          "internalType": "address",
          "name": "renter",
          "type": "address"
        },
        {
          "indexed": false,
          "internalType": "uint256",
          "name": "price",
          "type": "uint256"
        },
        {
          "indexed": false,
          "internalType": "uint256",
          "name": "amount",
          "type": "uint256"
        }
      ],
      "name": "RentedBookCreated",
      "type": "event"
    },
    {
      "inputs": [
        {
          "internalType": "uint256",
          "name": "tokenId",
          "type": "uint256"
        }
      ],
      "name": "isRented",
      "outputs": [
        {
          "internalType": "bool",
          "name": "",
          "type": "bool"
        }
      ],
      "stateMutability": "view",
      "type": "function",
      "constant": true
    },
    {
      "inputs": [
        {
          "internalType": "uint256",
          "name": "tokenId",
          "type": "uint256"
        },
        {
          "internalType": "address",
          "name": "renter",
          "type": "address"
        }
      ],
      "name": "getRentedBook",
      "outputs": [
        {
          "components": [
            {
              "internalType": "uint256",
              "name": "tokenId",
              "type": "uint256"
            },
            {
              "internalType": "address",
              "name": "renter",
              "type": "address"
            },
            {
              "internalType": "uint256",
              "name": "price",
              "type": "uint256"
            },
            {
              "internalType": "uint256",
              "name": "amount",
              "type": "uint256"
            }
          ],
          "internalType": "struct RentedBookStorage.RentedBook",
          "name": "",
          "type": "tuple"
        }
      ],
      "stateMutability": "view",
      "type": "function",
      "constant": true
    },
    {
      "inputs": [
        {
          "internalType": "address",
          "name": "renter",
          "type": "address"
        }
      ],
      "name": "getTotalOwnedRentedBook",
      "outputs": [
        {
          "internalType": "uint256",
          "name": "",
          "type": "uint256"
        }
      ],
      "stateMutability": "view",
      "type": "function",
      "constant": true
    },
    {
      "inputs": [
        {
          "internalType": "uint256",
          "name": "tokenId",
          "type": "uint256"
        },
        {
          "internalType": "address",
          "name": "renter",
          "type": "address"
        },
        {
          "internalType": "address",
          "name": "borrower",
          "type": "address"
        }
      ],
      "name": "getBorrowedBook",
      "outputs": [
        {
          "components": [
            {
              "internalType": "uint256",
              "name": "tokenId",
              "type": "uint256"
            },
            {
              "internalType": "address",
              "name": "renter",
              "type": "address"
            },
            {
              "internalType": "address",
              "name": "borrower",
              "type": "address"
            },
            {
              "internalType": "uint256",
              "name": "price",
              "type": "uint256"
            },
            {
              "internalType": "uint256",
              "name": "amount",
              "type": "uint256"
            },
            {
              "internalType": "uint256",
              "name": "startTime",
              "type": "uint256"
            },
            {
              "internalType": "uint256",
              "name": "endTime",
              "type": "uint256"
            }
          ],
          "internalType": "struct RentedBookStorage.BorrowedBook",
          "name": "",
          "type": "tuple"
        }
      ],
      "stateMutability": "view",
      "type": "function",
      "constant": true
    },
    {
      "inputs": [
        {
          "internalType": "address",
          "name": "borrower",
          "type": "address"
        }
      ],
      "name": "getTotalOwnedBorrowedBook",
      "outputs": [
        {
          "internalType": "uint256",
          "name": "",
          "type": "uint256"
        }
      ],
      "stateMutability": "view",
      "type": "function",
      "constant": true
    },
    {
      "inputs": [
        {
          "internalType": "uint256",
          "name": "tokenId",
          "type": "uint256"
        },
        {
          "internalType": "address",
          "name": "renter",
          "type": "address"
        }
      ],
      "name": "getIdRentedBook",
      "outputs": [
        {
          "internalType": "uint256",
          "name": "",
          "type": "uint256"
        }
      ],
      "stateMutability": "view",
      "type": "function",
      "constant": true
    },
    {
      "inputs": [
        {
          "internalType": "uint256",
          "name": "tokenId",
          "type": "uint256"
        },
        {
          "internalType": "address",
          "name": "owner",
          "type": "address"
        }
      ],
      "name": "getAmountOfRentedBooks",
      "outputs": [
        {
          "internalType": "uint256",
          "name": "",
          "type": "uint256"
        }
      ],
      "stateMutability": "view",
      "type": "function",
      "constant": true
    },
    {
      "inputs": [
        {
          "internalType": "uint256",
          "name": "tokenId",
          "type": "uint256"
        },
        {
          "internalType": "uint256",
          "name": "newPrice",
          "type": "uint256"
        },
        {
          "internalType": "uint256",
          "name": "newAmount",
          "type": "uint256"
        },
        {
          "internalType": "address",
          "name": "renter",
          "type": "address"
        }
      ],
      "name": "updateRentedBookFromRenting",
      "outputs": [],
      "stateMutability": "nonpayable",
      "type": "function"
    },
    {
      "inputs": [],
      "name": "getAllRentedBooks",
      "outputs": [
        {
          "components": [
            {
              "internalType": "uint256",
              "name": "tokenId",
              "type": "uint256"
            },
            {
              "internalType": "address",
              "name": "renter",
              "type": "address"
            },
            {
              "internalType": "uint256",
              "name": "price",
              "type": "uint256"
            },
            {
              "internalType": "uint256",
              "name": "amount",
              "type": "uint256"
            }
          ],
          "internalType": "struct RentedBookStorage.RentedBook[]",
          "name": "",
          "type": "tuple[]"
        }
      ],
      "stateMutability": "view",
      "type": "function",
      "constant": true
    },
    {
      "inputs": [
        {
          "internalType": "uint256",
          "name": "tokenId",
          "type": "uint256"
        },
        {
          "internalType": "address",
          "name": "renter",
          "type": "address"
        },
        {
          "internalType": "uint256",
          "name": "price",
          "type": "uint256"
        },
        {
          "internalType": "uint256",
          "name": "amount",
          "type": "uint256"
        }
      ],
      "name": "rentRentedBooks",
      "outputs": [],
      "stateMutability": "payable",
      "type": "function",
      "payable": true
    },
    {
      "inputs": [
        {
          "internalType": "uint256",
          "name": "tokenId",
          "type": "uint256"
        },
        {
          "internalType": "address",
          "name": "renter",
          "type": "address"
        },
        {
          "internalType": "address",
          "name": "borrower",
          "type": "address"
        }
      ],
      "name": "getIdBorrowedBook",
      "outputs": [
        {
          "internalType": "uint256",
          "name": "",
          "type": "uint256"
        }
      ],
      "stateMutability": "view",
      "type": "function",
      "constant": true
    },
    {
      "inputs": [
        {
          "internalType": "uint256",
          "name": "tokenId",
          "type": "uint256"
        },
        {
          "internalType": "address",
          "name": "owner",
          "type": "address"
        }
      ],
      "name": "getAmountOfBorrowedBooks",
      "outputs": [
        {
          "internalType": "uint256",
          "name": "",
          "type": "uint256"
        }
      ],
      "stateMutability": "view",
      "type": "function",
      "constant": true
    },
    {
      "inputs": [
        {
          "internalType": "address",
          "name": "borrower",
          "type": "address"
        }
      ],
      "name": "getOwnedBorrowedBooks",
      "outputs": [
        {
          "components": [
            {
              "internalType": "uint256",
              "name": "tokenId",
              "type": "uint256"
            },
            {
              "internalType": "address",
              "name": "renter",
              "type": "address"
            },
            {
              "internalType": "address",
              "name": "borrower",
              "type": "address"
            },
            {
              "internalType": "uint256",
              "name": "price",
              "type": "uint256"
            },
            {
              "internalType": "uint256",
              "name": "amount",
              "type": "uint256"
            },
            {
              "internalType": "uint256",
              "name": "startTime",
              "type": "uint256"
            },
            {
              "internalType": "uint256",
              "name": "endTime",
              "type": "uint256"
            }
          ],
          "internalType": "struct RentedBookStorage.BorrowedBook[]",
          "name": "",
          "type": "tuple[]"
        }
      ],
      "stateMutability": "view",
      "type": "function",
      "constant": true
    },
    {
      "inputs": [
        {
          "internalType": "uint256",
          "name": "tokenId",
          "type": "uint256"
        },
        {
          "internalType": "address",
          "name": "renter",
          "type": "address"
        },
        {
          "internalType": "uint256",
          "name": "amount",
          "type": "uint256"
        },
        {
          "internalType": "uint256",
          "name": "price",
          "type": "uint256"
        },
        {
          "internalType": "uint256",
          "name": "startTime",
          "type": "uint256"
        },
        {
          "internalType": "uint256",
          "name": "endTime",
          "type": "uint256"
        },
        {
          "internalType": "address",
          "name": "borrower",
          "type": "address"
        },
        {
          "internalType": "uint256",
          "name": "value",
          "type": "uint256"
        }
      ],
      "name": "borrowRentedBooks",
      "outputs": [
        {
          "internalType": "uint256",
          "name": "",
          "type": "uint256"
        }
      ],
      "stateMutability": "payable",
      "type": "function",
      "payable": true
    },
    {
      "inputs": [],
      "name": "getAllBorrowedBooks",
      "outputs": [
        {
          "components": [
            {
              "internalType": "uint256",
              "name": "tokenId",
              "type": "uint256"
            },
            {
              "internalType": "address",
              "name": "renter",
              "type": "address"
            },
            {
              "internalType": "address",
              "name": "borrower",
              "type": "address"
            },
            {
              "internalType": "uint256",
              "name": "price",
              "type": "uint256"
            },
            {
              "internalType": "uint256",
              "name": "amount",
              "type": "uint256"
            },
            {
              "internalType": "uint256",
              "name": "startTime",
              "type": "uint256"
            },
            {
              "internalType": "uint256",
              "name": "endTime",
              "type": "uint256"
            }
          ],
          "internalType": "struct RentedBookStorage.BorrowedBook[]",
          "name": "",
          "type": "tuple[]"
        }
      ],
      "stateMutability": "view",
      "type": "function",
      "constant": true
    }
  ],
  "bytecode": "0x608060405234801561001057600080fd5b50611b53806100206000396000f3fe6080604052600436106100e85760003560e01c80637858407a1161008a578063ad03459611610059578063ad03459614610299578063cf99308d146102d9578063d3080b8f14610306578063ff506bbe1461032657600080fd5b80637858407a146102215780637beeaa4a146102365780639ebab27314610256578063aa15d40f1461026957600080fd5b80633a63739f116100c65780633a63739f1461019d578063431f8536146101bf5780636982330b146101df5780636a3ae1d4146101ff57600080fd5b806303fbf719146100ed57806327ae1387146101235780632851a83e14610167575b600080fd5b3480156100f957600080fd5b5061010d610108366004611731565b610346565b60405161011a91906117bf565b60405180910390f35b34801561012f57600080fd5b5061015961013e3660046117cd565b6001600160a01b031660009081526005602052604090205490565b60405190815260200161011a565b34801561017357600080fd5b506101596101823660046117cd565b6001600160a01b031660009081526001602052604090205490565b3480156101a957600080fd5b506101b26103d1565b60405161011a91906117ef565b3480156101cb57600080fd5b506101596101da366004611864565b6104f8565b3480156101eb57600080fd5b506101596101fa366004611731565b61055f565b34801561020b57600080fd5b506102146105d9565b60405161011a9190611890565b61023461022f3660046118d2565b6106ef565b005b34801561024257600080fd5b506102146102513660046117cd565b61072f565b61015961026436600461190d565b61086d565b34801561027557600080fd5b5061028961028436600461197a565b610c3d565b604051901515815260200161011a565b3480156102a557600080fd5b506101596102b4366004611864565b6001600160a01b03166000908152600660209081526040808320938352929052205490565b3480156102e557600080fd5b506102f96102f4366004611864565b610c64565b60405161011a9190611993565b34801561031257600080fd5b50610159610321366004611864565b610cf3565b34801561033257600080fd5b506102346103413660046119c7565b610d31565b61034e6116c6565b600061035b85858561055f565b600090815260076020908152604091829020825160e0810184528154815260018201546001600160a01b03908116938201939093526002820154909216928201929092526003820154606082015260048201546080820152600582015460a082015260069091015460c082015295945050505050565b606060006103de60035490565b67ffffffffffffffff8111156103f6576103f6611a06565b60405190808252806020026020018201604052801561045b57816020015b61044860405180608001604052806000815260200160006001600160a01b0316815260200160008152602001600081525090565b8152602001906001900390816104145790505b50905060015b60035481116104f2576000818152600260208181526040928390208351608081018552815481526001808301546001600160a01b0316938201939093529281015493830193909352600390920154606082015290819084906104c39085611a32565b815181106104d3576104d3611a45565b60200260200101819052505080806104ea90611a5b565b915050610461565b50919050565b6000821580159061051157506001600160a01b03821615155b6105365760405162461bcd60e51b815260040161052d90611a74565b60405180910390fd5b506000828152602081815260408083206001600160a01b03851684529091529020545b92915050565b6000831580159061057857506001600160a01b03821615155b801561058c57506001600160a01b03831615155b6105a85760405162461bcd60e51b815260040161052d90611a74565b5060009283526004602090815260408085206001600160a01b03948516865282528085209290931684525290205490565b606060006105e660085490565b67ffffffffffffffff8111156105fe576105fe611a06565b60405190808252806020026020018201604052801561063757816020015b6106246116c6565b81526020019060019003908161061c5790505b50905060015b60085481116104f257600081815260076020908152604091829020825160e081018452815481526001808301546001600160a01b03908116948301949094526002830154909316938101939093526003810154606084015260048101546080840152600581015460a08401526006015460c0830152819084906106c09085611a32565b815181106106d0576106d0611a45565b60200260200101819052505080806106e790611a5b565b91505061063d565b60006106fb85856104f8565b90508060000361071c5781156107175761071785858585610dc9565b610728565b61072885848487610d31565b5050505050565b6001600160a01b0381166000908152600560205260408120546060918167ffffffffffffffff81111561076457610764611a06565b60405190808252806020026020018201604052801561079d57816020015b61078a6116c6565b8152602001906001900390816107825790505b509050600060015b600854811161086357600081815260076020908152604091829020825160e0810184528154815260018201546001600160a01b0390811693820193909352600282015483169381018490526003820154606082015260048201546080820152600582015460a082015260069091015460c0820152919088169003610850578084848151811061083657610836611a45565b6020026020010181905250828061084c90611a5b565b9350505b508061085b81611a5b565b9150506107a5565b5090949350505050565b60008061087a8a8a6104f8565b90508015610c2b5760008181526002602081815260409283902083516080810185528154815260018201546001600160a01b0390811693820184905293820154948101949094526003015460608401529086160361092c5760405162461bcd60e51b815260206004820152602960248201527f596f752063616e277420626f72726f77657220796f7572206f776e20626f6f6b60448201526873206f6e2073616c6560b81b606482015260840161052d565b806040015188146109775760405162461bcd60e51b8152602060048201526015602482015274141c9a58d9481bd988189bdbdac81a5b9d985b1a59605a1b604482015260640161052d565b62093a806109858888611a32565b6040830151610994908c611aba565b61099e9190611aba565b6109a89190611ad1565b84146109f65760405162461bcd60e51b815260206004820152601e60248201527f506c65617365207375626d6974207468652061736b696e672070726963650000604482015260640161052d565b6000610a038c8c88610346565b9050600062093a80610a158a8a611a32565b6040850151610a24908e611aba565b610a2e9190611aba565b610a389190611ad1565b82519091508d148015610a6057508b6001600160a01b031682602001516001600160a01b0316145b8015610a815750866001600160a01b031682604001516001600160a01b0316145b15610b925781608001518b118015610aab575060608301516080830151610aa8908d611a32565b11155b80610ac5575081608001518b11158015610ac5575060008b115b610b1c5760405162461bcd60e51b815260206004820152602260248201527f416d6f756e74206f6620426f72726f77656420426f6f6b20697320696e76616c6044820152611a5960f21b606482015260840161052d565b8160c0015188118015610b3257508160a0015189115b80610b41575081608001518b14155b15610b8557610b598d8d8986604001518f8e8e610ecb565b8a826080015110610b6f579350610c3192505050565b6080820151610b7e908c611a32565b9a50610c01565b6000945050505050610c31565b82606001518b11158015610ba6575060008b115b610bf25760405162461bcd60e51b815260206004820181905260248201527f416d6f756e74206f662052656e74656420426f6f6b20697320696e76616c6964604482015260640161052d565b610c018d8d8c8e8d8d8d61103e565b610c208d84604001518d8660600151610c1a9190611a32565b8f610d31565b9350610c3192505050565b60009150505b98975050505050505050565b600080610c4a83336104f8565b90508015610c5b5750600192915050565b50600092915050565b610c9860405180608001604052806000815260200160006001600160a01b0316815260200160008152602001600081525090565b6000610ca484846104f8565b60009081526002602081815260409283902083516080810185528154815260018201546001600160a01b0316928101929092529182015492810192909252600301546060820152949350505050565b600080610d0084846104f8565b905060008115610d2957600082815260026020526040902060030154610d269082611af3565b90505b949350505050565b6000610d3d85836104f8565b905080600003610d8b5760405162461bcd60e51b8152602060048201526019602482015278596f757220626f6f6b20617265206e6f74206f6e2073616c6560381b604482015260640161052d565b6000818152600260208190526040909120018490558215610dbf576000818152600260205260409020600301839055610728565b61072885836111d7565b610dd7600380546001019055565b600380546000868152602081815260408083206001600160a01b0389811680865291845282852086905582516080810184528b81528085018381528185018b8152606083018b81529888526002808852868920935184559151600180850180546001600160a01b0319169290961691909117909455519082015595519590960194909455928252929092528120805491610e7083611a5b565b9091555050604080518581526001600160a01b0385166020820152908101839052606081018290527f3593dfae51ba8e3dbf6b243e8cb5029c3c60c37fb8c561df2ce82522e2062d219060800160405180910390a150505050565b6000610ed888888861055f565b905080600003610f265760405162461bcd60e51b8152602060048201526019602482015278596f757220626f6f6b20617265206e6f74206f6e2073616c6560381b604482015260640161052d565b6000818152600760205260409020600101546001600160a01b03888116911614610f925760405162461bcd60e51b815260206004820152601960248201527f41646472656464206f662072656e74657220696e76616c696400000000000000604482015260640161052d565b60008181526007602052604090206003810186905560058101849055600601829055831561102957600081815260076020526040812060040154610fd69086611a32565b60008381526007602090815260408083206004018990556001600160a01b038b168352600682528083208d845290915281208054929350839290919061101d908490611af3565b90915550611034915050565b611034888888611339565b5050505050505050565b61104c600880546001019055565b60085460008881526004602081815260408084206001600160a01b038c8116808752918452828620888216808852908552838720889055835160e0810185528f8152808601938452808501828152606082018f8152608083018f815260a084018f815260c085018f81529c8c5260078a52888c209451855596516001850180549188166001600160a01b031992831617905592516002850180549190971693169290921790945592516003820155915195820195909555905160058083019190915595516006909101559183529290925290812080549161112c83611a5b565b90915550506001600160a01b03811660009081526006602090815260408083208a845290915281208054869290611164908490611af3565b9091555050604080518881526001600160a01b038881166020830152831681830152606081018790526080810186905260a0810185905260c0810184905290517fec550619bfd16823d04f9b9716febb17bd3cc46a60e88f6a4a82a7b52b99a6209181900360e00190a150505050505050565b60006111e383836104f8565b905060006111f060035490565b6000818152600260208181526040928390208351608081018552815480825260018301546001600160a01b0316938201849052938201549481019490945260030154606084015292935090918415611330578484146112af576000828152602081815260408083206001600160a01b03858116855290835281842089905588845260028084529382902087518155928701516001840180546001600160a01b031916919092161790558501519181019190915560608401516003909101555b6112b9600361166f565b6001600160a01b03861660009081526001602052604081208054916112dd83611b06565b90915550506000878152602081815260408083206001600160a01b038a168452825280832083905586835260029182905282208281556001810180546001600160a01b0319169055908101829055600301555b50505050505050565b600061134684848461055f565b9050600061135360085490565b90506000600760008381526020019081526020016000206040518060e0016040529081600082015481526020016001820160009054906101000a90046001600160a01b03166001600160a01b03166001600160a01b031681526020016002820160009054906101000a90046001600160a01b03166001600160a01b03166001600160a01b0316815260200160038201548152602001600482015481526020016005820154815260200160068201548152505090506000600760008581526020019081526020016000206040518060e0016040529081600082015481526020016001820160009054906101000a90046001600160a01b03166001600160a01b03166001600160a01b031681526020016002820160009054906101000a90046001600160a01b03166001600160a01b03166001600160a01b031681526020016003820154815260200160048201548152602001600582015481526020016006820154815250509050600082600001519050600083602001519050600084602001519050866000146116635786861461157c5760008381526004602081815260408084206001600160a01b038088168652908352818520868216865283528185208c90558b8552600783529381902089518155918901516001830180549186166001600160a01b031992831617905590890151600283018054919095169116179092556060870151600383015560808701519082015560a0860151600582015560c08601516006909101555b611586600861166f565b6001600160a01b03881660009081526005602052604081208054916115aa83611b06565b909155505060808401516001600160a01b03891660009081526006602090815260408083208e8452909152812080549091906115e7908490611a32565b909155505060008a81526004602081815260408084206001600160a01b03808f168652908352818520908d1685528252808420849055898452600790915282208281556001810180546001600160a01b031990811690915560028201805490911690556003810183905590810182905560058101829055600601555b50505050505050505050565b8054806116be5760405162461bcd60e51b815260206004820152601b60248201527f436f756e7465723a2064656372656d656e74206f766572666c6f770000000000604482015260640161052d565b600019019055565b6040518060e001604052806000815260200160006001600160a01b0316815260200160006001600160a01b03168152602001600081526020016000815260200160008152602001600081525090565b80356001600160a01b038116811461172c57600080fd5b919050565b60008060006060848603121561174657600080fd5b8335925061175660208501611715565b915061176460408501611715565b90509250925092565b80518252602081015160018060a01b0380821660208501528060408401511660408501525050606081015160608301526080810151608083015260a081015160a083015260c081015160c08301525050565b60e08101610559828461176d565b6000602082840312156117df57600080fd5b6117e882611715565b9392505050565b6020808252825182820181905260009190848201906040850190845b8181101561185857611845838551805182526020808201516001600160a01b03169083015260408082015190830152606090810151910152565b928401926080929092019160010161180b565b50909695505050505050565b6000806040838503121561187757600080fd5b8235915061188760208401611715565b90509250929050565b6020808252825182820181905260009190848201906040850190845b81811015611858576118bf83855161176d565b9284019260e092909201916001016118ac565b600080600080608085870312156118e857600080fd5b843593506118f860208601611715565b93969395505050506040820135916060013590565b600080600080600080600080610100898b03121561192a57600080fd5b8835975061193a60208a01611715565b965060408901359550606089013594506080890135935060a0890135925061196460c08a01611715565b915060e089013590509295985092959890939650565b60006020828403121561198c57600080fd5b5035919050565b815181526020808301516001600160a01b031690820152604080830151908201526060808301519082015260808101610559565b600080600080608085870312156119dd57600080fd5b8435935060208501359250604085013591506119fb60608601611715565b905092959194509250565b634e487b7160e01b600052604160045260246000fd5b634e487b7160e01b600052601160045260246000fd5b8181038181111561055957610559611a1c565b634e487b7160e01b600052603260045260246000fd5b600060018201611a6d57611a6d611a1c565b5060010190565b60208082526026908201527f546f6b656e20696420616e642061646472657373206f6620796f7520697320696040820152651b9d985b1a5960d21b606082015260800190565b808202811582820484141761055957610559611a1c565b600082611aee57634e487b7160e01b600052601260045260246000fd5b500490565b8082018082111561055957610559611a1c565b600081611b1557611b15611a1c565b50600019019056fea2646970667358221220f19a46cb723e8404cbd75a6333f4a15e5a39ee9115b28d9d19e94bdc0d9497fb64736f6c63430008110033",
  "immutableReferences": {},
  "source": "// SPDX-License-Identifier: MIT\r\npragma solidity >=0.4.22 <0.9.0;\r\nimport \"@openzeppelin/contracts/utils/Counters.sol\";\r\n\r\ncontract RentedBookStorage {\r\n  using Counters for Counters.Counter;\r\n\r\n  struct RentedBook {\r\n    uint256 tokenId;\r\n    address renter;\r\n    uint price; // ETH/book/1week\r\n    uint amount;\r\n  }\r\n\r\n  struct BorrowedBook {\r\n    uint256 tokenId;\r\n    address renter;\r\n    address borrower;\r\n    uint price;\r\n    uint amount;\r\n    uint startTime;\r\n    uint endTime;\r\n  }\r\n\r\n  event RentedBookCreated (\r\n    uint tokenId,\r\n    address renter,\r\n    uint price,\r\n    uint amount\r\n  );\r\n\r\n  event BorrowedBookCreated (\r\n    uint tokenId,\r\n    address renter,\r\n    address borrower,\r\n    uint price,\r\n    uint amount,\r\n    uint startTime,\r\n    uint endTime\r\n  );\r\n\r\n  // Variable for Rented Books\r\n  mapping (uint => mapping (address => uint)) _allRentedBook; // (tokenID -> (renter -> ID))\r\n  mapping(address => uint) private _totalOwnedRentedBook;\r\n  mapping(uint => RentedBook) private _idToRentedBook; // (ID -> RentedBook))\r\n  Counters.Counter private _rentedBooks;\r\n\r\n  // These variables will manage which books are borrowed\r\n  // (tokenID -> (renter -> (borrower -> ID)))\r\n  mapping (uint => mapping(address => mapping (address => uint))) _allBorrowedBook; \r\n  mapping(address => uint) private _totalOwnedBorrowedBook;\r\n  // Borrower => (tokenId => amount)\r\n  mapping(address => mapping(uint => uint)) private _amountOwnedBorrowedBooks;\r\n  mapping(uint => BorrowedBook) private _idToBorrowedBook; // (ID -> BorrowedBook))\r\n  Counters.Counter private _borrowedBooks;\r\n\r\n function isRented(uint tokenId) public view returns (bool) {\r\n    uint idRentedBook = getIdRentedBook(tokenId, msg.sender);\r\n    if(idRentedBook > 0) {\r\n      return true;\r\n    }\r\n    else {\r\n      return false;\r\n    }\r\n  }\r\n\r\n  function getRentedBook(uint tokenId, address renter) public view returns (RentedBook memory) {\r\n    uint idRentedBook = getIdRentedBook(tokenId, renter);\r\n    return _idToRentedBook[idRentedBook];\r\n  }\r\n\r\n  function getTotalOwnedRentedBook(address renter) public view returns(uint) {\r\n    return _totalOwnedRentedBook[renter];\r\n  }\r\n\r\n  function _createRentedBook(uint tokenId, address renter, uint256 price, uint amount) private {\r\n    _rentedBooks.increment();\r\n    _allRentedBook[tokenId][renter] = _rentedBooks.current();\r\n    _idToRentedBook[_rentedBooks.current()] = RentedBook(tokenId, renter, price, amount);\r\n    _totalOwnedRentedBook[renter]++;\r\n    emit RentedBookCreated(tokenId, renter, price, amount);\r\n  }\r\n\r\n  function getBorrowedBook(uint tokenId, \r\n                           address renter,\r\n                           address borrower) \r\n  public view returns (BorrowedBook memory) {\r\n    uint idBorrowedBook = getIdBorrowedBook(tokenId, renter, borrower);\r\n    return _idToBorrowedBook[idBorrowedBook];\r\n  }\r\n\r\n  function getTotalOwnedBorrowedBook(address borrower) public view returns(uint) {\r\n    return _totalOwnedBorrowedBook[borrower];\r\n  }\r\n\r\n  function _createBorrowedBook(uint tokenId, \r\n                             address renter, \r\n                             uint256 price, \r\n                             uint amount,\r\n                             uint startTime,\r\n                             uint endTime,\r\n                             address borrower) private {\r\n    _borrowedBooks.increment();\r\n    _allBorrowedBook[tokenId][renter][borrower] = _borrowedBooks.current();\r\n    _idToBorrowedBook[_borrowedBooks.current()] = BorrowedBook(tokenId,\r\n                                                               renter,\r\n                                                               borrower,\r\n                                                               price, \r\n                                                               amount, \r\n                                                               startTime, \r\n                                                               endTime);\r\n    _totalOwnedBorrowedBook[borrower]++;\r\n    _amountOwnedBorrowedBooks[borrower][tokenId] += amount;\r\n    emit BorrowedBookCreated(tokenId,\r\n                           renter,\r\n                           borrower, \r\n                           price, \r\n                           amount, \r\n                           startTime, \r\n                           endTime);\r\n  }\r\n\r\n  // ===================================RENTING============================================\r\n\r\n  function getIdRentedBook(uint tokenId, address renter) public view returns(uint) {\r\n    require(tokenId != 0 && renter != address(0), \"Token id and address of you is invalid\");\r\n    return _allRentedBook[tokenId][renter];\r\n  }\r\n\r\n  function getAmountOfRentedBooks(uint256 tokenId, address owner) public view returns(uint) {\r\n    uint idRentedBook = getIdRentedBook(tokenId, owner);\r\n\r\n    uint totalBook = 0;\r\n    if (idRentedBook != 0) {\r\n      totalBook +=_idToRentedBook[idRentedBook].amount;\r\n    }\r\n    \r\n    return totalBook;\r\n  }\r\n\r\n  function _removeItemFromAllRentedBooks(uint tokenId, address renter) private {\r\n    uint idRentedBook = getIdRentedBook(tokenId, renter);\r\n    uint lastIdRentedBook = _rentedBooks.current();\r\n    RentedBook memory lastRentedBook = _idToRentedBook[lastIdRentedBook];\r\n    uint lastTokenId = lastRentedBook.tokenId;\r\n    address lastRenter = lastRentedBook.renter;\r\n    if (idRentedBook != 0) {\r\n      if (lastIdRentedBook != idRentedBook) {\r\n        _allRentedBook[lastTokenId][lastRenter] = idRentedBook;\r\n        _idToRentedBook[idRentedBook] = lastRentedBook;\r\n      }\r\n\r\n      _rentedBooks.decrement();\r\n      _totalOwnedRentedBook[renter]--;\r\n      delete _allRentedBook[tokenId][renter];\r\n      delete _idToRentedBook[lastIdRentedBook];\r\n    }\r\n  }\r\n\r\n  function updateRentedBookFromRenting(uint256 tokenId,\r\n                                      uint newPrice,\r\n                                      uint256 newAmount,\r\n                                      address renter) public {\r\n    uint idRentedBook = getIdRentedBook(tokenId, renter);\r\n    require(idRentedBook != 0,\r\n          \"Your book are not on sale\");\r\n\r\n    _idToRentedBook[idRentedBook].price = newPrice;\r\n\r\n    if (newAmount != 0) {\r\n      _idToRentedBook[idRentedBook].amount = newAmount;\r\n    } else {\r\n      _removeItemFromAllRentedBooks(tokenId, renter);\r\n    }\r\n  }\r\n\r\n  function getAllRentedBooks() public view returns (RentedBook[] memory) {\r\n    RentedBook[] memory books = new RentedBook[](_rentedBooks.current());\r\n\r\n    for (uint i = 1; i <= _rentedBooks.current(); i++) {\r\n      RentedBook memory book = _idToRentedBook[i];\r\n      books[i - 1] = book;\r\n    }\r\n\r\n    return books;\r\n  }\r\n\r\n  function rentRentedBooks(uint256 tokenId, \r\n                           address renter,\r\n                           uint price,\r\n                           uint256 amount\r\n                          ) public payable {\r\n\r\n    uint idRentedBook = getIdRentedBook(tokenId, renter);\r\n    if (idRentedBook == 0) {\r\n      if (amount > 0) {\r\n        _createRentedBook(tokenId, renter, price, amount);\r\n      }\r\n    } else {\r\n      updateRentedBookFromRenting(tokenId, price, amount, renter);\r\n    }\r\n  }\r\n\r\n  // ===================================Borrowing============================================\r\n\r\n  function getIdBorrowedBook(uint tokenId, address renter, address borrower) public view returns(uint) {\r\n    require(tokenId != 0 &&\r\n            borrower != address(0) &&\r\n            renter != address(0), \r\n            \"Token id and address of you is invalid\");\r\n    return _allBorrowedBook[tokenId][renter][borrower];\r\n  }\r\n\r\n  function _removeItemFromAllBorrowedBooks(uint tokenId, address renter, address borrower) private {\r\n    uint idBorrowedBook = getIdBorrowedBook(tokenId, renter, borrower);\r\n    uint lastIdBorrowedBook = _borrowedBooks.current();\r\n    BorrowedBook memory lastBorrowedBook = _idToBorrowedBook[lastIdBorrowedBook];\r\n    BorrowedBook memory borrowedBook = _idToBorrowedBook[idBorrowedBook];\r\n    uint lastTokenId = lastBorrowedBook.tokenId;\r\n    address lastRenter = lastBorrowedBook.renter;\r\n    address lastBorrower = lastBorrowedBook.renter;\r\n    if (idBorrowedBook != 0) {\r\n      if (lastIdBorrowedBook != idBorrowedBook) {\r\n        _allBorrowedBook[lastTokenId][lastRenter][lastBorrower] = idBorrowedBook;\r\n        _idToBorrowedBook[idBorrowedBook] = lastBorrowedBook;\r\n      }\r\n\r\n      _borrowedBooks.decrement();\r\n      _totalOwnedBorrowedBook[borrower]--;\r\n      _amountOwnedBorrowedBooks[borrower][tokenId] -= borrowedBook.amount;\r\n      delete _allBorrowedBook[tokenId][renter][borrower];\r\n      delete _idToBorrowedBook[lastIdBorrowedBook];\r\n    }\r\n  }\r\n\r\n\r\n  function _updateBorrowedBookFromBorrowing(uint256 tokenId,\r\n                                      address renter,\r\n                                      address borrower,\r\n                                      uint newPrice,\r\n                                      uint256 newAmount,\r\n                                      uint newStartTime,\r\n                                      uint newEndTime) private {\r\n    uint idBorrowedBook = getIdBorrowedBook(tokenId, renter, borrower);\r\n    require(idBorrowedBook != 0,\r\n          \"Your book are not on sale\");\r\n    require(_idToBorrowedBook[idBorrowedBook].renter == renter,\r\n          \"Addredd of renter invalid\");\r\n    \r\n    _idToBorrowedBook[idBorrowedBook].price = newPrice;\r\n    _idToBorrowedBook[idBorrowedBook].startTime = newStartTime;\r\n    _idToBorrowedBook[idBorrowedBook].endTime = newEndTime;\r\n\r\n    if (newAmount != 0) {\r\n      uint balance = newAmount - _idToBorrowedBook[idBorrowedBook].amount;\r\n      _idToBorrowedBook[idBorrowedBook].amount = newAmount;\r\n      _amountOwnedBorrowedBooks[borrower][tokenId] += balance;\r\n    } else {\r\n      _removeItemFromAllBorrowedBooks(tokenId, renter, borrower);\r\n    }\r\n  }\r\n\r\n\r\n  function getAmountOfBorrowedBooks(uint256 tokenId, address owner) public view returns(uint) {\r\n    return _amountOwnedBorrowedBooks[owner][tokenId];\r\n  }\r\n\r\n  function getOwnedBorrowedBooks(address borrower) public view returns(BorrowedBook[] memory) {\r\n    uint totalBorrowedBook = _totalOwnedBorrowedBook[borrower];\r\n    BorrowedBook[] memory borrowedBooks = new BorrowedBook[](totalBorrowedBook);\r\n\r\n    uint currentIndex = 0;\r\n    for(uint i = 1; i <= _borrowedBooks.current(); i++) {\r\n      BorrowedBook memory book = _idToBorrowedBook[i];\r\n      if (book.borrower == borrower) {\r\n        borrowedBooks[currentIndex] = book;\r\n        currentIndex++;\r\n      }\r\n    }\r\n\r\n    return borrowedBooks;\r\n  }\r\n\r\n  function borrowRentedBooks(uint256 tokenId,\r\n                            address renter,\r\n                            uint256 amount,\r\n                            uint256 price,\r\n                            uint startTime,\r\n                            uint endTime,\r\n                            address borrower,\r\n                            uint256 value) public payable returns(uint256) {\r\n                             \r\n    uint idRentedBook = getIdRentedBook(tokenId, renter);\r\n    if (idRentedBook != 0) {\r\n      RentedBook memory rentedBook = _idToRentedBook[idRentedBook];\r\n      require(borrower != rentedBook.renter, \"You can't borrower your own books on sale\");\r\n      require(price == rentedBook.price, \"Price of book invalid\");\r\n      require(value == amount * rentedBook.price * (endTime - startTime)/604800,\r\n             \"Please submit the asking price\");\r\n\r\n      BorrowedBook memory borrowedBook = getBorrowedBook(tokenId, renter, borrower);\r\n\r\n      uint totalPrice = amount * rentedBook.price * (endTime - startTime)/604800;\r\n\r\n      if(borrowedBook.tokenId == tokenId &&\r\n         borrowedBook.renter == renter &&\r\n         borrowedBook.borrower == borrower) {\r\n        require((amount > borrowedBook.amount && (amount - borrowedBook.amount <= rentedBook.amount)) || \r\n              (amount <= borrowedBook.amount && amount > 0),\r\n               \"Amount of Borrowed Book is invalid\");\r\n        if((endTime > borrowedBook.endTime &&\r\n           startTime > borrowedBook.startTime) ||\r\n            amount != borrowedBook.amount) {\r\n          // Book rental extension or borrow more books\r\n          _updateBorrowedBookFromBorrowing(tokenId,\r\n                                          renter,\r\n                                          borrower,\r\n                                          rentedBook.price,\r\n                                          amount,\r\n                                          startTime,\r\n                                          endTime);\r\n\r\n          //TODO: need add and remove(if needed) one event!\r\n          if (borrowedBook.amount >= amount) {\r\n            return totalPrice;\r\n          } else {\r\n            amount = amount - borrowedBook.amount;\r\n          }\r\n\r\n        } else {\r\n          return 0;\r\n        }\r\n      } else {\r\n        require(amount <= rentedBook.amount && amount > 0,\r\n               \"Amount of Rented Book is invalid\");\r\n          // TODO: need add one event!\r\n        _createBorrowedBook(tokenId,\r\n                            renter,\r\n                            price, \r\n                            amount, \r\n                            startTime, \r\n                            endTime, \r\n                            borrower);\r\n        \r\n      }\r\n      updateRentedBookFromRenting(tokenId,\r\n                                  rentedBook.price,\r\n                                  rentedBook.amount - amount,\r\n                                  renter);\r\n\r\n      return totalPrice;\r\n    }\r\n\r\n    return 0;\r\n  }\r\n\r\n  function getAllBorrowedBooks() public view returns (BorrowedBook[] memory) {\r\n    BorrowedBook[] memory books = new BorrowedBook[](_borrowedBooks.current());\r\n\r\n    for (uint i = 1; i <= _borrowedBooks.current(); i++) {\r\n      BorrowedBook memory book = _idToBorrowedBook[i];\r\n      books[i - 1] = book;\r\n    }\r\n\r\n    return books;\r\n  }\r\n\r\n}",
  "sourcePath": "D:\\DO_AN_TOT_NGHIEP\\project\\nft-bookstore\\contracts\\RentedBookStorage.sol",
  "compiler": {
    "name": "solc",
    "version": "0.8.17+commit.8df45f5f.Emscripten.clang"
  },
  "schemaVersion": "3.4.11",
  "updatedAt": "2023-03-20T09:41:55.083Z",
  "networkType": "ethereum",
  "devdoc": {
    "kind": "dev",
    "methods": {},
    "version": 1
  },
  "userdoc": {
    "kind": "user",
    "methods": {},
    "version": 1
  }
}