{
  "contractName": "RentedBookStorage",
  "abi": [
    {
      "anonymous": false,
      "inputs": [
        {
          "indexed": false,
          "internalType": "uint256",
          "name": "tokenId",
          "type": "uint256"
        },
        {
          "indexed": false,
          "internalType": "address",
          "name": "renter",
          "type": "address"
        },
        {
          "indexed": false,
          "internalType": "uint256",
          "name": "price",
          "type": "uint256"
        },
        {
          "indexed": false,
          "internalType": "uint256",
          "name": "amount",
          "type": "uint256"
        },
        {
          "indexed": false,
          "internalType": "uint256",
          "name": "startTime",
          "type": "uint256"
        },
        {
          "indexed": false,
          "internalType": "uint256",
          "name": "rentalDuration",
          "type": "uint256"
        }
      ],
      "name": "RentedBookCreated",
      "type": "event"
    },
    {
      "inputs": [
        {
          "internalType": "uint256",
          "name": "tokenId",
          "type": "uint256"
        },
        {
          "internalType": "address",
          "name": "seller",
          "type": "address"
        }
      ],
      "name": "getRentedBook",
      "outputs": [
        {
          "components": [
            {
              "internalType": "uint256",
              "name": "tokenId",
              "type": "uint256"
            },
            {
              "internalType": "address",
              "name": "renter",
              "type": "address"
            },
            {
              "internalType": "uint256",
              "name": "price",
              "type": "uint256"
            },
            {
              "internalType": "uint256",
              "name": "amount",
              "type": "uint256"
            },
            {
              "internalType": "uint256",
              "name": "startTime",
              "type": "uint256"
            },
            {
              "internalType": "uint256",
              "name": "rentalDuration",
              "type": "uint256"
            }
          ],
          "internalType": "struct RentedBookStorage.RentedBook",
          "name": "",
          "type": "tuple"
        }
      ],
      "stateMutability": "view",
      "type": "function",
      "constant": true
    },
    {
      "inputs": [
        {
          "internalType": "address",
          "name": "renter",
          "type": "address"
        }
      ],
      "name": "getTotalOwnedRentedBook",
      "outputs": [
        {
          "internalType": "uint256",
          "name": "",
          "type": "uint256"
        }
      ],
      "stateMutability": "view",
      "type": "function",
      "constant": true
    },
    {
      "inputs": [
        {
          "internalType": "uint256",
          "name": "tokenId",
          "type": "uint256"
        },
        {
          "internalType": "address",
          "name": "renter",
          "type": "address"
        }
      ],
      "name": "getIdRentedBook",
      "outputs": [
        {
          "internalType": "uint256",
          "name": "",
          "type": "uint256"
        }
      ],
      "stateMutability": "view",
      "type": "function",
      "constant": true
    },
    {
      "inputs": [
        {
          "internalType": "uint256",
          "name": "tokenId",
          "type": "uint256"
        },
        {
          "internalType": "address",
          "name": "owner",
          "type": "address"
        }
      ],
      "name": "getAmountOfRentedBooks",
      "outputs": [
        {
          "internalType": "uint256",
          "name": "",
          "type": "uint256"
        }
      ],
      "stateMutability": "view",
      "type": "function",
      "constant": true
    },
    {
      "inputs": [
        {
          "internalType": "uint256",
          "name": "tokenId",
          "type": "uint256"
        },
        {
          "internalType": "uint256",
          "name": "newPrice",
          "type": "uint256"
        },
        {
          "internalType": "uint256",
          "name": "newAmount",
          "type": "uint256"
        },
        {
          "internalType": "uint256",
          "name": "newStartTime",
          "type": "uint256"
        },
        {
          "internalType": "uint256",
          "name": "newRentalDuration",
          "type": "uint256"
        },
        {
          "internalType": "address",
          "name": "renter",
          "type": "address"
        }
      ],
      "name": "updateRentedBookFromRenting",
      "outputs": [],
      "stateMutability": "nonpayable",
      "type": "function"
    },
    {
      "inputs": [],
      "name": "getAllRentedBooks",
      "outputs": [
        {
          "components": [
            {
              "internalType": "uint256",
              "name": "tokenId",
              "type": "uint256"
            },
            {
              "internalType": "address",
              "name": "renter",
              "type": "address"
            },
            {
              "internalType": "uint256",
              "name": "price",
              "type": "uint256"
            },
            {
              "internalType": "uint256",
              "name": "amount",
              "type": "uint256"
            },
            {
              "internalType": "uint256",
              "name": "startTime",
              "type": "uint256"
            },
            {
              "internalType": "uint256",
              "name": "rentalDuration",
              "type": "uint256"
            }
          ],
          "internalType": "struct RentedBookStorage.RentedBook[]",
          "name": "",
          "type": "tuple[]"
        }
      ],
      "stateMutability": "view",
      "type": "function",
      "constant": true
    },
    {
      "inputs": [
        {
          "internalType": "uint256",
          "name": "tokenId",
          "type": "uint256"
        },
        {
          "internalType": "address",
          "name": "renter",
          "type": "address"
        },
        {
          "internalType": "uint256",
          "name": "price",
          "type": "uint256"
        },
        {
          "internalType": "uint256",
          "name": "amount",
          "type": "uint256"
        },
        {
          "internalType": "uint256",
          "name": "rentalDuration",
          "type": "uint256"
        }
      ],
      "name": "rentRentedBooks",
      "outputs": [],
      "stateMutability": "payable",
      "type": "function",
      "payable": true
    }
  ],
  "bytecode": "0x608060405234801561001057600080fd5b50610b58806100206000396000f3fe6080604052600436106100705760003560e01c8063667a8f1a1161004e578063667a8f1a14610100578063cf99308d14610122578063d23a135e1461014f578063d3080b8f1461016257600080fd5b80632851a83e146100755780633a63739f146100be578063431f8536146100e0575b600080fd5b34801561008157600080fd5b506100ab610090366004610909565b6001600160a01b031660009081526001602052604090205490565b6040519081526020015b60405180910390f35b3480156100ca57600080fd5b506100d3610182565b6040516100b5919061096b565b3480156100ec57600080fd5b506100ab6100fb3660046109b9565b610291565b34801561010c57600080fd5b5061012061011b3660046109e5565b610333565b005b34801561012e57600080fd5b5061014261013d3660046109b9565b6103e7565b6040516100b59190610a36565b61012061015d366004610a44565b61045e565b34801561016e57600080fd5b506100ab61017d3660046109b9565b61054d565b6060600061018f60035490565b67ffffffffffffffff8111156101a7576101a7610a8a565b6040519080825280602002602001820160405280156101e057816020015b6101cd6108ae565b8152602001906001900390816101c55790505b50905060015b600354811161028b57600081815260026020818152604092839020835160c081018552815481526001808301546001600160a01b0316938201939093529281015493830193909352600383015460608301526004830154608083015260059092015460a0820152908190849061025c9085610ab6565b8151811061026c5761026c610ac9565b602002602001018190525050808061028390610adf565b9150506101e6565b50919050565b600082158015906102aa57506001600160a01b03821615155b61030a5760405162461bcd60e51b815260206004820152602660248201527f546f6b656e20696420616e642061646472657373206f6620796f7520697320696044820152651b9d985b1a5960d21b60648201526084015b60405180910390fd5b506000828152602081815260408083206001600160a01b03851684529091529020545b92915050565b600061033f8783610291565b9050806000036103915760405162461bcd60e51b815260206004820152601960248201527f596f757220626f6f6b20617265206e6f74206f6e2073616c65000000000000006044820152606401610301565b60008181526002602081905260409091209081018790556004810185905560050183905584156103d45760008181526002602052604090206003018590556103de565b6103de878361058b565b50505050505050565b6103ef6108ae565b60006103fb8484610291565b600090815260026020818152604092839020835160c0810185528154815260018201546001600160a01b031692810192909252918201549281019290925260038101546060830152600481015460808301526005015460a0820152949350505050565b600061046a8686610291565b90508060000361048c578215610487576104878686868686610722565b610545565b6000818152600260208181526040808420815160c0810183528154815260018201546001600160a01b0316818501528185015492810192909252600381018054606084018190526004830154608085015260059092015460a084015286865293909252928692916104fe908490610af8565b909155505060408101518514610524576000828152600260208190526040909120018590555b8060a0015183146103de576000828152600260205260409020600501839055505b505050505050565b60008061055a8484610291565b905060008115610583576000828152600260205260409020600301546105809082610af8565b90505b949350505050565b60006105978383610291565b905060006105a460035490565b600081815260026020818152604092839020835160c081018552815480825260018301546001600160a01b0316938201849052938201549481019490945260038101546060850152600481015460808501526005015460a0840152929350909184156103de5784841461068b576000828152602081815260408083206001600160a01b03858116855290835281842089905588845260028084529382902087518155928701516001840180546001600160a01b0319169190921617905585015191810191909155606084015160038201556080840151600482015560a08401516005909101555b6106956003610857565b6001600160a01b03861660009081526001602052604081208054916106b983610b0b565b90915550506000878152602081815260408083206001600160a01b038a168452825280832083905586835260029182905282208281556001810180546001600160a01b031916905590810182905560038101829055600481018290556005015550505050505050565b610730600380546001019055565b600380546000878152602081815260408083206001600160a01b038a8116808652918452828520869055825160c0810184528c81528085018381528185018c8152606083018c81526080840189815260a085018d81529a8a526002808a52888b20955186559351600180870180546001600160a01b0319169290981691909117909655915192840192909255905198820198909855965160048801559451600590960195909555938252919091529081208054916107ed83610adf565b9091555050604080518681526001600160a01b0386166020820152908101849052606081018390526000608082015260a081018290527f80e130741936252504de36c0f4289d9e57b8a2ee41ac15d59330719587642f749060c00160405180910390a15050505050565b8054806108a65760405162461bcd60e51b815260206004820152601b60248201527f436f756e7465723a2064656372656d656e74206f766572666c6f7700000000006044820152606401610301565b600019019055565b6040518060c001604052806000815260200160006001600160a01b03168152602001600081526020016000815260200160008152602001600081525090565b80356001600160a01b038116811461090457600080fd5b919050565b60006020828403121561091b57600080fd5b610924826108ed565b9392505050565b805182526020808201516001600160a01b03169083015260408082015190830152606080820151908301526080808201519083015260a090810151910152565b6020808252825182820181905260009190848201906040850190845b818110156109ad5761099a83855161092b565b9284019260c09290920191600101610987565b50909695505050505050565b600080604083850312156109cc57600080fd5b823591506109dc602084016108ed565b90509250929050565b60008060008060008060c087890312156109fe57600080fd5b8635955060208701359450604087013593506060870135925060808701359150610a2a60a088016108ed565b90509295509295509295565b60c0810161032d828461092b565b600080600080600060a08688031215610a5c57600080fd5b85359450610a6c602087016108ed565b94979496505050506040830135926060810135926080909101359150565b634e487b7160e01b600052604160045260246000fd5b634e487b7160e01b600052601160045260246000fd5b8181038181111561032d5761032d610aa0565b634e487b7160e01b600052603260045260246000fd5b600060018201610af157610af1610aa0565b5060010190565b8082018082111561032d5761032d610aa0565b600081610b1a57610b1a610aa0565b50600019019056fea26469706673582212203457004efca88e2674cfcdf350c4af3be74aefe23811aab84d3a4842409d3c3b64736f6c63430008110033",
  "immutableReferences": {},
  "source": "// SPDX-License-Identifier: MIT\r\npragma solidity >=0.4.22 <0.9.0;\r\nimport \"@openzeppelin/contracts/utils/Counters.sol\";\r\n\r\ncontract RentedBookStorage {\r\n  using Counters for Counters.Counter;\r\n\r\n  struct RentedBook {\r\n    uint256 tokenId;\r\n    address renter;\r\n    uint price;\r\n    uint amount;\r\n    uint startTime;\r\n    uint rentalDuration;\r\n  }\r\n\r\n  event RentedBookCreated (\r\n    uint tokenId,\r\n    address renter,\r\n    uint price,\r\n    uint amount,\r\n    uint startTime,\r\n    uint rentalDuration\r\n  );\r\n\r\n\r\n  // Variable for Rented Books\r\n  mapping (uint => mapping (address => uint)) _allRentedBook; // (tokenID -> (renter -> ID))\r\n  mapping(address => uint) private _totalOwnedRentedBook;\r\n  mapping(uint => RentedBook) private _idToRentedBook; // (ID -> RentedBook))\r\n  Counters.Counter private _rentedBooks;\r\n\r\n  function getRentedBook(uint tokenId, address seller) public view returns (RentedBook memory) {\r\n    uint idRentedBook = getIdRentedBook(tokenId, seller);\r\n    return _idToRentedBook[idRentedBook];\r\n  }\r\n\r\n  function getTotalOwnedRentedBook(address renter) public view returns(uint) {\r\n    return _totalOwnedRentedBook[renter];\r\n  }\r\n\r\n  function _createRentedBook(uint tokenId, address renter, uint256 price, uint amount, uint rentalDuration) private {\r\n    _rentedBooks.increment();\r\n    _allRentedBook[tokenId][renter] = _rentedBooks.current();\r\n    _idToRentedBook[_rentedBooks.current()] = RentedBook(tokenId, renter, price, amount, 0, rentalDuration);\r\n    _totalOwnedRentedBook[renter]++;\r\n    emit RentedBookCreated(tokenId, renter, price, amount, 0, rentalDuration);\r\n  }\r\n\r\n  // ===================================RENTING============================================\r\n\r\n  function getIdRentedBook(uint tokenId, address renter) public view returns(uint) {\r\n    require(tokenId != 0 && renter != address(0), \"Token id and address of you is invalid\");\r\n    return _allRentedBook[tokenId][renter];\r\n  }\r\n\r\n  function getAmountOfRentedBooks(uint256 tokenId, address owner) public view returns(uint) {\r\n    uint idRentedBook = getIdRentedBook(tokenId, owner);\r\n\r\n    uint totalBook = 0;\r\n    if (idRentedBook != 0) {\r\n      totalBook +=_idToRentedBook[idRentedBook].amount;\r\n    }\r\n    \r\n    return totalBook;\r\n  }\r\n\r\n  function _removeItemFromAllRentedBooks(uint tokenId, address renter) private {\r\n    uint idRentedBook = getIdRentedBook(tokenId, renter);\r\n    uint lastIdRentedBook = _rentedBooks.current();\r\n    RentedBook memory lastRentedBook = _idToRentedBook[lastIdRentedBook];\r\n    uint lastTokenId = lastRentedBook.tokenId;\r\n    address lastRenter = lastRentedBook.renter;\r\n    if (idRentedBook != 0) {\r\n      if (lastIdRentedBook != idRentedBook) {\r\n        _allRentedBook[lastTokenId][lastRenter] = idRentedBook;\r\n        _idToRentedBook[idRentedBook] = lastRentedBook;\r\n      }\r\n\r\n      _rentedBooks.decrement();\r\n      _totalOwnedRentedBook[renter]--;\r\n      delete _allRentedBook[tokenId][renter];\r\n      delete _idToRentedBook[lastIdRentedBook];\r\n    }\r\n  }\r\n\r\n  function updateRentedBookFromRenting(uint256 tokenId,\r\n                                      uint newPrice,\r\n                                      uint256 newAmount,\r\n                                      uint newStartTime,\r\n                                      uint newRentalDuration,\r\n                                      address renter) public {\r\n    uint idRentedBook = getIdRentedBook(tokenId, renter);\r\n    require(idRentedBook != 0,\r\n          \"Your book are not on sale\");\r\n\r\n    _idToRentedBook[idRentedBook].price = newPrice;\r\n    _idToRentedBook[idRentedBook].startTime = newStartTime;\r\n    _idToRentedBook[idRentedBook].rentalDuration = newRentalDuration;\r\n\r\n    if (newAmount != 0) {\r\n      _idToRentedBook[idRentedBook].amount = newAmount;\r\n    } else {\r\n      _removeItemFromAllRentedBooks(tokenId, renter);\r\n    }\r\n  }\r\n\r\n  function getAllRentedBooks() public view returns (RentedBook[] memory) {\r\n    RentedBook[] memory books = new RentedBook[](_rentedBooks.current());\r\n\r\n    for (uint i = 1; i <= _rentedBooks.current(); i++) {\r\n      RentedBook memory book = _idToRentedBook[i];\r\n      books[i - 1] = book;\r\n    }\r\n\r\n    return books;\r\n  }\r\n\r\n  function rentRentedBooks(uint256 tokenId, \r\n                           address renter,\r\n                           uint price,\r\n                           uint256 amount,\r\n                          uint rentalDuration) public payable {\r\n\r\n    uint idRentedBook = getIdRentedBook(tokenId, renter);\r\n    if (idRentedBook == 0) {\r\n      if (amount > 0) {\r\n        _createRentedBook(tokenId, renter, price, amount, rentalDuration);\r\n      }\r\n    } else {\r\n      RentedBook memory rentedBook = _idToRentedBook[idRentedBook];\r\n      _idToRentedBook[idRentedBook].amount += amount;\r\n\r\n      // Update price of Rented book if need\r\n      if (price != rentedBook.price) {\r\n        _idToRentedBook[idRentedBook].price = price;\r\n      }\r\n\r\n      // Update rental duration of Rented book if need\r\n      if (rentalDuration != rentedBook.rentalDuration) {\r\n        _idToRentedBook[idRentedBook].rentalDuration = rentalDuration;\r\n      }\r\n\r\n    }\r\n  }\r\n\r\n  // This function is incomplete\r\n\r\n  // function borrowRentedBooks(uint256 tokenId,\r\n  //                           address renter,\r\n  //                           uint256 amount,\r\n  //                           address borrower,\r\n  //                           uint startTime,\r\n  //                           uint rentalDuration,\r\n  //                           uint256 value) public payable returns(uint) {\r\n                             \r\n  //   uint idRentedBook = getIdRentedBook(tokenId, renter);\r\n  //   if (idRentedBook != 0) {\r\n  //     RentedBook memory rentedBook = _idToRentedBook[idRentedBook];\r\n  //     require(borrower != rentedBook.renter, \"You can't borrower your own books on sale\");\r\n  //     require(value == amount * rentedBook.price, \"Please submit the asking price\");\r\n  //     require(amount <= rentedBook.amount && amount > 0, \"Amount is invalid\");\r\n\r\n  //     uint256 totalPrice = amount * rentedBook.price;\r\n\r\n  //     updateRentedBookFromRenting(tokenId, \r\n  //                             rentedBook.price,\r\n  //                             rentedBook.amount - amount,\r\n  //                             startTime,\r\n  //                             rentalDuration,\r\n  //                             renter);\r\n\r\n  //     return totalPrice;\r\n  //   }\r\n\r\n  //   return 0;\r\n  // }\r\n\r\n}",
  "sourcePath": "D:\\Workspace\\DoAnTotNghiep\\Product\\nft-bookstore\\contracts\\RentedBookStorage.sol",
  "compiler": {
    "name": "solc",
    "version": "0.8.17+commit.8df45f5f.Emscripten.clang"
  },
  "schemaVersion": "3.4.11",
  "updatedAt": "2023-02-26T11:35:11.129Z",
  "networkType": "ethereum",
  "devdoc": {
    "kind": "dev",
    "methods": {},
    "version": 1
  },
  "userdoc": {
    "kind": "user",
    "methods": {},
    "version": 1
  }
}