{
  "contractName": "RentedBookStorage",
  "abi": [
    {
      "anonymous": false,
      "inputs": [
        {
          "indexed": false,
          "internalType": "uint256",
          "name": "tokenId",
          "type": "uint256"
        },
        {
          "indexed": false,
          "internalType": "address",
          "name": "renter",
          "type": "address"
        },
        {
          "indexed": false,
          "internalType": "uint256",
          "name": "price",
          "type": "uint256"
        },
        {
          "indexed": false,
          "internalType": "uint256",
          "name": "amount",
          "type": "uint256"
        },
        {
          "indexed": false,
          "internalType": "uint256",
          "name": "startTime",
          "type": "uint256"
        },
        {
          "indexed": false,
          "internalType": "uint256",
          "name": "rentalDuration",
          "type": "uint256"
        }
      ],
      "name": "RentedBookCreated",
      "type": "event"
    },
    {
      "inputs": [
        {
          "internalType": "uint256",
          "name": "tokenId",
          "type": "uint256"
        },
        {
          "internalType": "address",
          "name": "seller",
          "type": "address"
        }
      ],
      "name": "getRentedBook",
      "outputs": [
        {
          "components": [
            {
              "internalType": "uint256",
              "name": "tokenId",
              "type": "uint256"
            },
            {
              "internalType": "address",
              "name": "renter",
              "type": "address"
            },
            {
              "internalType": "uint256",
              "name": "price",
              "type": "uint256"
            },
            {
              "internalType": "uint256",
              "name": "amount",
              "type": "uint256"
            },
            {
              "internalType": "uint256",
              "name": "startTime",
              "type": "uint256"
            },
            {
              "internalType": "uint256",
              "name": "rentalDuration",
              "type": "uint256"
            }
          ],
          "internalType": "struct RentedBookStorage.RentedBook",
          "name": "",
          "type": "tuple"
        }
      ],
      "stateMutability": "view",
      "type": "function",
      "constant": true
    },
    {
      "inputs": [],
      "name": "getTotalOwnedRentedBook",
      "outputs": [
        {
          "internalType": "uint256",
          "name": "",
          "type": "uint256"
        }
      ],
      "stateMutability": "view",
      "type": "function",
      "constant": true
    },
    {
      "inputs": [
        {
          "internalType": "uint256",
          "name": "tokenId",
          "type": "uint256"
        },
        {
          "internalType": "address",
          "name": "renter",
          "type": "address"
        }
      ],
      "name": "getIdRentedBook",
      "outputs": [
        {
          "internalType": "uint256",
          "name": "",
          "type": "uint256"
        }
      ],
      "stateMutability": "view",
      "type": "function",
      "constant": true
    },
    {
      "inputs": [
        {
          "internalType": "uint256",
          "name": "tokenId",
          "type": "uint256"
        },
        {
          "internalType": "address",
          "name": "owner",
          "type": "address"
        }
      ],
      "name": "getAmountOfRentedBooks",
      "outputs": [
        {
          "internalType": "uint256",
          "name": "",
          "type": "uint256"
        }
      ],
      "stateMutability": "view",
      "type": "function",
      "constant": true
    },
    {
      "inputs": [],
      "name": "getAllBooksOnRenting",
      "outputs": [
        {
          "components": [
            {
              "internalType": "uint256",
              "name": "tokenId",
              "type": "uint256"
            },
            {
              "internalType": "address",
              "name": "renter",
              "type": "address"
            },
            {
              "internalType": "uint256",
              "name": "price",
              "type": "uint256"
            },
            {
              "internalType": "uint256",
              "name": "amount",
              "type": "uint256"
            },
            {
              "internalType": "uint256",
              "name": "startTime",
              "type": "uint256"
            },
            {
              "internalType": "uint256",
              "name": "rentalDuration",
              "type": "uint256"
            }
          ],
          "internalType": "struct RentedBookStorage.RentedBook[]",
          "name": "",
          "type": "tuple[]"
        }
      ],
      "stateMutability": "view",
      "type": "function",
      "constant": true
    },
    {
      "inputs": [
        {
          "internalType": "uint256",
          "name": "tokenId",
          "type": "uint256"
        },
        {
          "internalType": "uint256",
          "name": "price",
          "type": "uint256"
        },
        {
          "internalType": "uint256",
          "name": "amount",
          "type": "uint256"
        },
        {
          "internalType": "uint256",
          "name": "rentalDuration",
          "type": "uint256"
        }
      ],
      "name": "rentRentedBooks",
      "outputs": [],
      "stateMutability": "payable",
      "type": "function",
      "payable": true
    }
  ],
  "bytecode": "0x608060405234801561001057600080fd5b50610f7e806100206000396000f3fe6080604052600436106100555760003560e01c8063431f85361461005a57806355f69fca1461009757806376a36a00146100c2578063c3036e7e146100ed578063cf99308d14610109578063d3080b8f14610146575b600080fd5b34801561006657600080fd5b50610081600480360381019061007c9190610976565b610183565b60405161008e91906109c5565b60405180910390f35b3480156100a357600080fd5b506100ac61025a565b6040516100b991906109c5565b60405180910390f35b3480156100ce57600080fd5b506100d76102a1565b6040516100e49190610b28565b60405180910390f35b61010760048036038101906101029190610b4a565b61040c565b005b34801561011557600080fd5b50610130600480360381019061012b9190610976565b61057e565b60405161013d9190610c2c565b60405180910390f35b34801561015257600080fd5b5061016d60048036038101906101689190610976565b610643565b60405161017a91906109c5565b60405180910390f35b60008083141580156101c25750600073ffffffffffffffffffffffffffffffffffffffff168273ffffffffffffffffffffffffffffffffffffffff1614155b610201576040517f08c379a00000000000000000000000000000000000000000000000000000000081526004016101f890610cca565b60405180910390fd5b6002600084815260200190815260200160002060008373ffffffffffffffffffffffffffffffffffffffff1673ffffffffffffffffffffffffffffffffffffffff16815260200190815260200160002054905092915050565b6000600360003373ffffffffffffffffffffffffffffffffffffffff1673ffffffffffffffffffffffffffffffffffffffff16815260200190815260200160002054905090565b606060006102af600561068b565b67ffffffffffffffff8111156102c8576102c7610cea565b5b60405190808252806020026020018201604052801561030157816020015b6102ee610891565b8152602001906001900390816102e65790505b5090506000600190505b610315600561068b565b8111610404576000600460008381526020019081526020016000206040518060c0016040529081600082015481526020016001820160009054906101000a900473ffffffffffffffffffffffffffffffffffffffff1673ffffffffffffffffffffffffffffffffffffffff1673ffffffffffffffffffffffffffffffffffffffff168152602001600282015481526020016003820154815260200160048201548152602001600582015481525050905080836001846103d49190610d48565b815181106103e5576103e4610d7c565b5b60200260200101819052505080806103fc90610dab565b91505061030b565b508091505090565b6000831161044f576040517f08c379a000000000000000000000000000000000000000000000000000000000815260040161044690610e3f565b60405180910390fd5b600061045b8533610183565b905060008103610477576104728533868686610699565b610577565b6000600460008381526020019081526020016000206040518060c0016040529081600082015481526020016001820160009054906101000a900473ffffffffffffffffffffffffffffffffffffffff1673ffffffffffffffffffffffffffffffffffffffff1673ffffffffffffffffffffffffffffffffffffffff1681526020016002820154815260200160038201548152602001600482015481526020016005820154815250509050836004600084815260200190815260200160002060030160008282546105479190610e5f565b9250508190555080604001518514610575578460046000848152602001908152602001600020600201819055505b505b5050505050565b610586610891565b60006105928484610183565b9050600460008281526020019081526020016000206040518060c0016040529081600082015481526020016001820160009054906101000a900473ffffffffffffffffffffffffffffffffffffffff1673ffffffffffffffffffffffffffffffffffffffff1673ffffffffffffffffffffffffffffffffffffffff16815260200160028201548152602001600382015481526020016004820154815260200160058201548152505091505092915050565b6000806106508484610183565b905060008082146106805760046000838152602001908152602001600020600301548161067d9190610e5f565b90505b809250505092915050565b600081600001549050919050565b6106a3600561087b565b6106ad600561068b565b6002600087815260200190815260200160002060008673ffffffffffffffffffffffffffffffffffffffff1673ffffffffffffffffffffffffffffffffffffffff168152602001908152602001600020819055506040518060c001604052808681526020018573ffffffffffffffffffffffffffffffffffffffff168152602001848152602001838152602001600081526020018281525060046000610753600561068b565b81526020019081526020016000206000820151816000015560208201518160010160006101000a81548173ffffffffffffffffffffffffffffffffffffffff021916908373ffffffffffffffffffffffffffffffffffffffff16021790555060408201518160020155606082015181600301556080820151816004015560a08201518160050155905050600360008573ffffffffffffffffffffffffffffffffffffffff1673ffffffffffffffffffffffffffffffffffffffff168152602001908152602001600020600081548092919061082d90610dab565b91905055507f80e130741936252504de36c0f4289d9e57b8a2ee41ac15d59330719587642f748585858560008660405161086c96959493929190610ee7565b60405180910390a15050505050565b6001816000016000828254019250508190555050565b6040518060c0016040528060008152602001600073ffffffffffffffffffffffffffffffffffffffff168152602001600081526020016000815260200160008152602001600081525090565b600080fd5b6000819050919050565b6108f5816108e2565b811461090057600080fd5b50565b600081359050610912816108ec565b92915050565b600073ffffffffffffffffffffffffffffffffffffffff82169050919050565b600061094382610918565b9050919050565b61095381610938565b811461095e57600080fd5b50565b6000813590506109708161094a565b92915050565b6000806040838503121561098d5761098c6108dd565b5b600061099b85828601610903565b92505060206109ac85828601610961565b9150509250929050565b6109bf816108e2565b82525050565b60006020820190506109da60008301846109b6565b92915050565b600081519050919050565b600082825260208201905092915050565b6000819050602082019050919050565b610a15816108e2565b82525050565b610a2481610938565b82525050565b60c082016000820151610a406000850182610a0c565b506020820151610a536020850182610a1b565b506040820151610a666040850182610a0c565b506060820151610a796060850182610a0c565b506080820151610a8c6080850182610a0c565b5060a0820151610a9f60a0850182610a0c565b50505050565b6000610ab18383610a2a565b60c08301905092915050565b6000602082019050919050565b6000610ad5826109e0565b610adf81856109eb565b9350610aea836109fc565b8060005b83811015610b1b578151610b028882610aa5565b9750610b0d83610abd565b925050600181019050610aee565b5085935050505092915050565b60006020820190508181036000830152610b428184610aca565b905092915050565b60008060008060808587031215610b6457610b636108dd565b5b6000610b7287828801610903565b9450506020610b8387828801610903565b9350506040610b9487828801610903565b9250506060610ba587828801610903565b91505092959194509250565b60c082016000820151610bc76000850182610a0c565b506020820151610bda6020850182610a1b565b506040820151610bed6040850182610a0c565b506060820151610c006060850182610a0c565b506080820151610c136080850182610a0c565b5060a0820151610c2660a0850182610a0c565b50505050565b600060c082019050610c416000830184610bb1565b92915050565b600082825260208201905092915050565b7f546f6b656e20696420616e642061646472657373206f6620796f75206973206960008201527f6e76616c69640000000000000000000000000000000000000000000000000000602082015250565b6000610cb4602683610c47565b9150610cbf82610c58565b604082019050919050565b60006020820190508181036000830152610ce381610ca7565b9050919050565b7f4e487b7100000000000000000000000000000000000000000000000000000000600052604160045260246000fd5b7f4e487b7100000000000000000000000000000000000000000000000000000000600052601160045260246000fd5b6000610d53826108e2565b9150610d5e836108e2565b9250828203905081811115610d7657610d75610d19565b5b92915050565b7f4e487b7100000000000000000000000000000000000000000000000000000000600052603260045260246000fd5b6000610db6826108e2565b91507fffffffffffffffffffffffffffffffffffffffffffffffffffffffffffffffff8203610de857610de7610d19565b5b600182019050919050565b7f5072696365206d7573742062652067726561746572207468616e207a65726f00600082015250565b6000610e29601f83610c47565b9150610e3482610df3565b602082019050919050565b60006020820190508181036000830152610e5881610e1c565b9050919050565b6000610e6a826108e2565b9150610e75836108e2565b9250828201905080821115610e8d57610e8c610d19565b5b92915050565b610e9c81610938565b82525050565b6000819050919050565b6000819050919050565b6000610ed1610ecc610ec784610ea2565b610eac565b6108e2565b9050919050565b610ee181610eb6565b82525050565b600060c082019050610efc60008301896109b6565b610f096020830188610e93565b610f1660408301876109b6565b610f2360608301866109b6565b610f306080830185610ed8565b610f3d60a08301846109b6565b97965050505050505056fea2646970667358221220dd12f0d7ec0c5e3af6503c29a7d666067c6e9bc031d60985097febc829dc97fa64736f6c63430008110033",
  "immutableReferences": {},
  "source": "// SPDX-License-Identifier: MIT\r\n\r\npragma solidity >=0.4.22 <0.9.0;\r\nimport \"@openzeppelin/contracts/utils/Counters.sol\";\r\n\r\ncontract RentedBookStorage {\r\n  using Counters for Counters.Counter;\r\n\r\n  struct RentedBook {\r\n    uint256 tokenId;\r\n    address renter;\r\n    uint price;\r\n    uint amount;\r\n    uint startTime;\r\n    uint rentalDuration;\r\n  }\r\n\r\n  event RentedBookCreated (\r\n    uint tokenId,\r\n    address renter,\r\n    uint price,\r\n    uint amount,\r\n    uint startTime,\r\n    uint rentalDuration\r\n  );\r\n\r\n  mapping(address => mapping(uint => uint)) private _ownedTemporaryTokens;\r\n  mapping(address => uint) private _totalOwnedTemporaryToken;\r\n\r\n  // Variable for Rented Books\r\n  mapping (uint => mapping (address => uint)) _allRentedBook; // (tokenID -> (renter -> ID))\r\n  mapping(address => uint) private _totalOwnedRentedBook;\r\n  mapping(uint => RentedBook) private _idToRentedBook; // (ID -> RentedBook))\r\n  Counters.Counter private _rentedBooks;\r\n\r\n  function getRentedBook(uint tokenId, address seller) public view returns (RentedBook memory) {\r\n    uint idRentedBook = getIdRentedBook(tokenId, seller);\r\n    return _idToRentedBook[idRentedBook];\r\n  }\r\n\r\n  function getTotalOwnedRentedBook() public view returns(uint) {\r\n    return _totalOwnedRentedBook[msg.sender];\r\n  }\r\n\r\n  function _createRentedBook(uint tokenId, address renter, uint256 price, uint amount, uint rentalDuration) private {\r\n    _rentedBooks.increment();\r\n    _allRentedBook[tokenId][renter] = _rentedBooks.current();\r\n    _idToRentedBook[_rentedBooks.current()] = RentedBook(tokenId, renter, price, amount, 0, rentalDuration);\r\n    _totalOwnedRentedBook[renter]++;\r\n    emit RentedBookCreated(tokenId, renter, price, amount, 0, rentalDuration);\r\n  }\r\n\r\n  // ===================================RENTING============================================\r\n\r\n  function getIdRentedBook(uint tokenId, address renter) public view returns(uint) {\r\n    require(tokenId != 0 && renter != address(0), \"Token id and address of you is invalid\");\r\n    return _allRentedBook[tokenId][renter];\r\n  }\r\n\r\n  function getAmountOfRentedBooks(uint256 tokenId, address owner) public view returns(uint) {\r\n    uint idRentedBook = getIdRentedBook(tokenId, owner);\r\n\r\n    uint totalBook = 0;\r\n    if (idRentedBook != 0) {\r\n      totalBook +=_idToRentedBook[idRentedBook].amount;\r\n    }\r\n    \r\n    return totalBook;\r\n  }\r\n\r\n  function getAllBooksOnRenting() public view returns (RentedBook[] memory) {\r\n    RentedBook[] memory books = new RentedBook[](_rentedBooks.current());\r\n\r\n    for (uint i = 1; i <= _rentedBooks.current(); i++) {\r\n      RentedBook memory book = _idToRentedBook[i];\r\n      books[i - 1] = book;\r\n    }\r\n\r\n    return books;\r\n  }\r\n\r\n  function rentRentedBooks(uint256 tokenId, uint price, uint256 amount, uint rentalDuration) public payable {\r\n    require(price > 0,\r\n           \"Price must be greater than zero\");\r\n\r\n    uint idRentedBook = getIdRentedBook(tokenId, msg.sender);\r\n    if (idRentedBook == 0) {\r\n      _createRentedBook(tokenId, msg.sender, price, amount, rentalDuration);\r\n    } else {\r\n      RentedBook memory rentedBook = _idToRentedBook[idRentedBook];\r\n      _idToRentedBook[idRentedBook].amount += amount;\r\n\r\n      // Update price of Rented book if need\r\n      if (price != rentedBook.price) {\r\n        _idToRentedBook[idRentedBook].price = price;\r\n      }\r\n\r\n    }\r\n  }\r\n\r\n}",
  "sourcePath": "D:\\Workspace\\DoAnTotNghiep\\Product\\nft-bookstore\\contracts\\RentedBookStorage.sol",
  "compiler": {
    "name": "solc",
    "version": "0.8.17+commit.8df45f5f.Emscripten.clang"
  },
  "schemaVersion": "3.4.11",
  "updatedAt": "2023-02-25T08:19:31.405Z",
  "networkType": "ethereum",
  "devdoc": {
    "kind": "dev",
    "methods": {},
    "version": 1
  },
  "userdoc": {
    "kind": "user",
    "methods": {},
    "version": 1
  }
}