{
  "contractName": "SecretKeyStorage",
  "abi": [
    {
      "inputs": [
        {
          "internalType": "uint256",
          "name": "tokenId",
          "type": "uint256"
        },
        {
          "internalType": "string",
          "name": "privateKey",
          "type": "string"
        },
        {
          "internalType": "string",
          "name": "iv",
          "type": "string"
        }
      ],
      "name": "addSecretKey",
      "outputs": [],
      "stateMutability": "nonpayable",
      "type": "function"
    },
    {
      "inputs": [
        {
          "internalType": "uint256",
          "name": "tokenId",
          "type": "uint256"
        }
      ],
      "name": "getSecretKey",
      "outputs": [
        {
          "internalType": "string[]",
          "name": "",
          "type": "string[]"
        }
      ],
      "stateMutability": "view",
      "type": "function",
      "constant": true
    }
  ],
  "bytecode": "0x608060405234801561001057600080fd5b506106b1806100206000396000f3fe608060405234801561001057600080fd5b50600436106100365760003560e01c806353d36d8f1461003b5780637731b1f014610050575b600080fd5b61004e61004936600461038e565b610079565b005b61006361005e3660046103fb565b610144565b6040516100709190610414565b60405180910390f35b604080516000808252602080830180855283519020878352908290529083902090926100a592016104e0565b60405160208183030381529060405280519060200120148015610108575060408051600080825260208083018085528351902087835260019091529083902090926100f092016104e0565b60405160208183030381529060405280519060200120145b1561003657600083815260208190526040902061012582826105a5565b50600083815260016020526040902061013e83826105a5565b50505050565b604080516002808252606082810190935260009190816020015b606081526020019060019003908161015e575050600084815260208190526040902080549192509061018f906104a6565b80601f01602080910402602001604051908101604052809291908181526020018280546101bb906104a6565b80156102085780601f106101dd57610100808354040283529160200191610208565b820191906000526020600020905b8154815290600101906020018083116101eb57829003601f168201915b50505050508160008151811061022057610220610665565b6020026020010181905250600160008481526020019081526020016000208054610249906104a6565b80601f0160208091040260200160405190810160405280929190818152602001828054610275906104a6565b80156102c25780601f10610297576101008083540402835291602001916102c2565b820191906000526020600020905b8154815290600101906020018083116102a557829003601f168201915b5050505050816001815181106102da576102da610665565b602090810291909101015292915050565b634e487b7160e01b600052604160045260246000fd5b600082601f83011261031257600080fd5b813567ffffffffffffffff8082111561032d5761032d6102eb565b604051601f8301601f19908116603f01168101908282118183101715610355576103556102eb565b8160405283815286602085880101111561036e57600080fd5b836020870160208301376000602085830101528094505050505092915050565b6000806000606084860312156103a357600080fd5b83359250602084013567ffffffffffffffff808211156103c257600080fd5b6103ce87838801610301565b935060408601359150808211156103e457600080fd5b506103f186828701610301565b9150509250925092565b60006020828403121561040d57600080fd5b5035919050565b6000602080830181845280855180835260408601915060408160051b87010192508387016000805b8381101561049857888603603f1901855282518051808852835b81811015610471578281018a01518982018b01528901610456565b508781018901849052601f01601f191690960187019550938601939186019160010161043c565b509398975050505050505050565b600181811c908216806104ba57607f821691505b6020821081036104da57634e487b7160e01b600052602260045260246000fd5b50919050565b60008083546104ee816104a6565b60018281168015610506576001811461051b5761054a565b60ff198416875282151583028701945061054a565b8760005260208060002060005b858110156105415781548a820152908401908201610528565b50505082870194505b50929695505050505050565b601f8211156105a057600081815260208120601f850160051c8101602086101561057d5750805b601f850160051c820191505b8181101561059c57828155600101610589565b5050505b505050565b815167ffffffffffffffff8111156105bf576105bf6102eb565b6105d3816105cd84546104a6565b84610556565b602080601f83116001811461060857600084156105f05750858301515b600019600386901b1c1916600185901b17855561059c565b600085815260208120601f198616915b8281101561063757888601518255948401946001909101908401610618565b50858210156106555787850151600019600388901b60f8161c191681555b5050505050600190811b01905550565b634e487b7160e01b600052603260045260246000fdfea264697066735822122013e9bcb9f91fc0ed66b523b16bc696c1cef3461ef1ea0395621a1a76dba64cfc64736f6c63430008110033",
  "immutableReferences": {},
  "source": "// SPDX-License-Identifier: MIT\r\n// pragma solidity >=0.4.22 <0.9.0;\r\npragma solidity ^0.8.17;\r\n\r\ncontract SecretKeyStorage {\r\n\r\n  mapping(uint => string) private _tokenIdToIV;\r\n  mapping(uint => string) private _tokenIdToPrivateKey;\r\n\r\n  // add private key and add IV\r\n  function addSecretKey(uint tokenId, \r\n                      string memory privateKey, \r\n                      string memory iv) public {\r\n    if (keccak256(abi.encodePacked(_tokenIdToIV[tokenId])) \r\n      == keccak256(abi.encodePacked(\"\")) &&\r\n      keccak256(abi.encodePacked(_tokenIdToPrivateKey[tokenId])) \r\n      == keccak256(abi.encodePacked(\"\"))) {\r\n       \r\n      _tokenIdToIV[tokenId] = iv;\r\n      _tokenIdToPrivateKey[tokenId] = privateKey;\r\n      return;\r\n    }\r\n    revert();\r\n  }\r\n\r\n  function getSecretKey(uint tokenId) \r\n    public view returns(string[] memory) {\r\n     \r\n    string[] memory sk = new string[](2);\r\n    sk[0] = _tokenIdToIV[tokenId];\r\n    sk[1] = _tokenIdToPrivateKey[tokenId];\r\n    return sk;\r\n  }\r\n\r\n}",
  "sourcePath": "D:\\DO_AN_TOT_NGHIEP\\project\\nft-bookstore\\contracts\\keyManager\\SecretKeyStorage.sol",
  "compiler": {
    "name": "solc",
    "version": "0.8.17+commit.8df45f5f.Emscripten.clang"
  },
  "schemaVersion": "3.4.11",
  "updatedAt": "2023-06-28T14:31:05.234Z",
  "networkType": "ethereum",
  "devdoc": {
    "kind": "dev",
    "methods": {},
    "version": 1
  },
  "userdoc": {
    "kind": "user",
    "methods": {},
    "version": 1
  }
}