{
  "contractName": "SharedBookStorage",
  "abi": [
    {
      "inputs": [
        {
          "internalType": "address",
          "name": "",
          "type": "address"
        }
      ],
      "name": "InvalidAddressError",
      "type": "error"
    },
    {
      "inputs": [
        {
          "internalType": "uint256",
          "name": "",
          "type": "uint256"
        }
      ],
      "name": "InvalidAmountError",
      "type": "error"
    },
    {
      "inputs": [
        {
          "internalType": "uint256",
          "name": "",
          "type": "uint256"
        }
      ],
      "name": "InvalidIdError",
      "type": "error"
    },
    {
      "inputs": [],
      "name": "InvalidParamsError",
      "type": "error"
    },
    {
      "inputs": [
        {
          "internalType": "uint256",
          "name": "",
          "type": "uint256"
        }
      ],
      "name": "InvalidValueError",
      "type": "error"
    },
    {
      "anonymous": false,
      "inputs": [
        {
          "indexed": false,
          "internalType": "uint256",
          "name": "tokenId",
          "type": "uint256"
        },
        {
          "indexed": false,
          "internalType": "address",
          "name": "fromRenter",
          "type": "address"
        },
        {
          "indexed": false,
          "internalType": "address",
          "name": "sharer",
          "type": "address"
        },
        {
          "indexed": false,
          "internalType": "address",
          "name": "sharedPer",
          "type": "address"
        },
        {
          "indexed": false,
          "internalType": "uint256",
          "name": "priceOfBB",
          "type": "uint256"
        },
        {
          "indexed": false,
          "internalType": "uint256",
          "name": "price",
          "type": "uint256"
        },
        {
          "indexed": false,
          "internalType": "uint256",
          "name": "amount",
          "type": "uint256"
        },
        {
          "indexed": false,
          "internalType": "uint256",
          "name": "startTime",
          "type": "uint256"
        },
        {
          "indexed": false,
          "internalType": "uint256",
          "name": "endTime",
          "type": "uint256"
        }
      ],
      "name": "SharedBookCreated",
      "type": "event"
    },
    {
      "inputs": [],
      "name": "getTotalBookOnSharing",
      "outputs": [
        {
          "internalType": "uint256",
          "name": "",
          "type": "uint256"
        }
      ],
      "stateMutability": "view",
      "type": "function",
      "constant": true
    },
    {
      "inputs": [
        {
          "internalType": "uint256",
          "name": "tokenId",
          "type": "uint256"
        },
        {
          "internalType": "address",
          "name": "sharer",
          "type": "address"
        },
        {
          "internalType": "address",
          "name": "sharedPer",
          "type": "address"
        },
        {
          "internalType": "uint256",
          "name": "startTime",
          "type": "uint256"
        },
        {
          "internalType": "uint256",
          "name": "endTime",
          "type": "uint256"
        }
      ],
      "name": "getHashIdForSharedBook",
      "outputs": [
        {
          "internalType": "bytes32",
          "name": "",
          "type": "bytes32"
        }
      ],
      "stateMutability": "pure",
      "type": "function",
      "constant": true
    },
    {
      "inputs": [
        {
          "internalType": "uint256",
          "name": "tokenId",
          "type": "uint256"
        },
        {
          "internalType": "address",
          "name": "fromRenter",
          "type": "address"
        },
        {
          "internalType": "address",
          "name": "sharer",
          "type": "address"
        },
        {
          "internalType": "uint256",
          "name": "startTime",
          "type": "uint256"
        },
        {
          "internalType": "uint256",
          "name": "endTime",
          "type": "uint256"
        }
      ],
      "name": "getHashIdForBookOnSharing",
      "outputs": [
        {
          "internalType": "bytes32",
          "name": "",
          "type": "bytes32"
        }
      ],
      "stateMutability": "pure",
      "type": "function",
      "constant": true
    },
    {
      "inputs": [
        {
          "internalType": "uint256",
          "name": "tokenId",
          "type": "uint256"
        },
        {
          "internalType": "address",
          "name": "fromRenter",
          "type": "address"
        },
        {
          "internalType": "address",
          "name": "sharer",
          "type": "address"
        },
        {
          "internalType": "uint256",
          "name": "startTime",
          "type": "uint256"
        },
        {
          "internalType": "uint256",
          "name": "endTime",
          "type": "uint256"
        }
      ],
      "name": "getIdBookOnSharing",
      "outputs": [
        {
          "internalType": "uint256",
          "name": "",
          "type": "uint256"
        }
      ],
      "stateMutability": "view",
      "type": "function",
      "constant": true
    },
    {
      "inputs": [
        {
          "internalType": "uint256",
          "name": "idBooksOnSharing",
          "type": "uint256"
        }
      ],
      "name": "getBooksOnSharing",
      "outputs": [
        {
          "components": [
            {
              "internalType": "uint256",
              "name": "tokenId",
              "type": "uint256"
            },
            {
              "internalType": "address",
              "name": "fromRenter",
              "type": "address"
            },
            {
              "internalType": "address",
              "name": "sharer",
              "type": "address"
            },
            {
              "internalType": "address",
              "name": "sharedPer",
              "type": "address"
            },
            {
              "internalType": "uint256",
              "name": "priceOfBB",
              "type": "uint256"
            },
            {
              "internalType": "uint256",
              "name": "price",
              "type": "uint256"
            },
            {
              "internalType": "uint256",
              "name": "amount",
              "type": "uint256"
            },
            {
              "internalType": "uint256",
              "name": "startTime",
              "type": "uint256"
            },
            {
              "internalType": "uint256",
              "name": "endTime",
              "type": "uint256"
            }
          ],
          "internalType": "struct SharedBookStorage.SharedBook",
          "name": "",
          "type": "tuple"
        }
      ],
      "stateMutability": "view",
      "type": "function",
      "constant": true
    },
    {
      "inputs": [
        {
          "internalType": "uint256",
          "name": "tokenId",
          "type": "uint256"
        },
        {
          "internalType": "address",
          "name": "sharedPer",
          "type": "address"
        },
        {
          "internalType": "address",
          "name": "sharer",
          "type": "address"
        },
        {
          "internalType": "uint256",
          "name": "startTime",
          "type": "uint256"
        },
        {
          "internalType": "uint256",
          "name": "endTime",
          "type": "uint256"
        }
      ],
      "name": "getIdSharedBook",
      "outputs": [
        {
          "internalType": "uint256",
          "name": "",
          "type": "uint256"
        }
      ],
      "stateMutability": "view",
      "type": "function",
      "constant": true
    },
    {
      "inputs": [
        {
          "internalType": "uint256",
          "name": "idSharedBook",
          "type": "uint256"
        }
      ],
      "name": "getSharedBooks",
      "outputs": [
        {
          "components": [
            {
              "internalType": "uint256",
              "name": "tokenId",
              "type": "uint256"
            },
            {
              "internalType": "address",
              "name": "fromRenter",
              "type": "address"
            },
            {
              "internalType": "address",
              "name": "sharer",
              "type": "address"
            },
            {
              "internalType": "address",
              "name": "sharedPer",
              "type": "address"
            },
            {
              "internalType": "uint256",
              "name": "priceOfBB",
              "type": "uint256"
            },
            {
              "internalType": "uint256",
              "name": "price",
              "type": "uint256"
            },
            {
              "internalType": "uint256",
              "name": "amount",
              "type": "uint256"
            },
            {
              "internalType": "uint256",
              "name": "startTime",
              "type": "uint256"
            },
            {
              "internalType": "uint256",
              "name": "endTime",
              "type": "uint256"
            }
          ],
          "internalType": "struct SharedBookStorage.SharedBook",
          "name": "",
          "type": "tuple"
        }
      ],
      "stateMutability": "view",
      "type": "function",
      "constant": true
    },
    {
      "inputs": [
        {
          "internalType": "uint256",
          "name": "tokenId",
          "type": "uint256"
        },
        {
          "internalType": "address",
          "name": "fromRenter",
          "type": "address"
        },
        {
          "internalType": "address",
          "name": "sharer",
          "type": "address"
        },
        {
          "internalType": "uint256",
          "name": "priceOfBB",
          "type": "uint256"
        },
        {
          "internalType": "uint256",
          "name": "price",
          "type": "uint256"
        },
        {
          "internalType": "uint256",
          "name": "amount",
          "type": "uint256"
        },
        {
          "internalType": "uint256",
          "name": "startTime",
          "type": "uint256"
        },
        {
          "internalType": "uint256",
          "name": "endTime",
          "type": "uint256"
        }
      ],
      "name": "shareBooks",
      "outputs": [],
      "stateMutability": "payable",
      "type": "function",
      "payable": true
    },
    {
      "inputs": [],
      "name": "getAllBooksOnSharing",
      "outputs": [
        {
          "components": [
            {
              "internalType": "uint256",
              "name": "tokenId",
              "type": "uint256"
            },
            {
              "internalType": "address",
              "name": "fromRenter",
              "type": "address"
            },
            {
              "internalType": "address",
              "name": "sharer",
              "type": "address"
            },
            {
              "internalType": "address",
              "name": "sharedPer",
              "type": "address"
            },
            {
              "internalType": "uint256",
              "name": "priceOfBB",
              "type": "uint256"
            },
            {
              "internalType": "uint256",
              "name": "price",
              "type": "uint256"
            },
            {
              "internalType": "uint256",
              "name": "amount",
              "type": "uint256"
            },
            {
              "internalType": "uint256",
              "name": "startTime",
              "type": "uint256"
            },
            {
              "internalType": "uint256",
              "name": "endTime",
              "type": "uint256"
            }
          ],
          "internalType": "struct SharedBookStorage.SharedBook[]",
          "name": "",
          "type": "tuple[]"
        }
      ],
      "stateMutability": "view",
      "type": "function",
      "constant": true
    },
    {
      "inputs": [
        {
          "internalType": "address",
          "name": "owner",
          "type": "address"
        }
      ],
      "name": "getAllOwnedBooksOnSharing",
      "outputs": [
        {
          "components": [
            {
              "internalType": "uint256",
              "name": "tokenId",
              "type": "uint256"
            },
            {
              "internalType": "address",
              "name": "fromRenter",
              "type": "address"
            },
            {
              "internalType": "address",
              "name": "sharer",
              "type": "address"
            },
            {
              "internalType": "address",
              "name": "sharedPer",
              "type": "address"
            },
            {
              "internalType": "uint256",
              "name": "priceOfBB",
              "type": "uint256"
            },
            {
              "internalType": "uint256",
              "name": "price",
              "type": "uint256"
            },
            {
              "internalType": "uint256",
              "name": "amount",
              "type": "uint256"
            },
            {
              "internalType": "uint256",
              "name": "startTime",
              "type": "uint256"
            },
            {
              "internalType": "uint256",
              "name": "endTime",
              "type": "uint256"
            }
          ],
          "internalType": "struct SharedBookStorage.SharedBook[]",
          "name": "",
          "type": "tuple[]"
        }
      ],
      "stateMutability": "view",
      "type": "function",
      "constant": true
    },
    {
      "inputs": [],
      "name": "getAllSharedBook",
      "outputs": [
        {
          "components": [
            {
              "internalType": "uint256",
              "name": "tokenId",
              "type": "uint256"
            },
            {
              "internalType": "address",
              "name": "fromRenter",
              "type": "address"
            },
            {
              "internalType": "address",
              "name": "sharer",
              "type": "address"
            },
            {
              "internalType": "address",
              "name": "sharedPer",
              "type": "address"
            },
            {
              "internalType": "uint256",
              "name": "priceOfBB",
              "type": "uint256"
            },
            {
              "internalType": "uint256",
              "name": "price",
              "type": "uint256"
            },
            {
              "internalType": "uint256",
              "name": "amount",
              "type": "uint256"
            },
            {
              "internalType": "uint256",
              "name": "startTime",
              "type": "uint256"
            },
            {
              "internalType": "uint256",
              "name": "endTime",
              "type": "uint256"
            }
          ],
          "internalType": "struct SharedBookStorage.SharedBook[]",
          "name": "",
          "type": "tuple[]"
        }
      ],
      "stateMutability": "view",
      "type": "function",
      "constant": true
    },
    {
      "inputs": [
        {
          "internalType": "address",
          "name": "owner",
          "type": "address"
        }
      ],
      "name": "getAllOwnedSharedBook",
      "outputs": [
        {
          "components": [
            {
              "internalType": "uint256",
              "name": "tokenId",
              "type": "uint256"
            },
            {
              "internalType": "address",
              "name": "fromRenter",
              "type": "address"
            },
            {
              "internalType": "address",
              "name": "sharer",
              "type": "address"
            },
            {
              "internalType": "address",
              "name": "sharedPer",
              "type": "address"
            },
            {
              "internalType": "uint256",
              "name": "priceOfBB",
              "type": "uint256"
            },
            {
              "internalType": "uint256",
              "name": "price",
              "type": "uint256"
            },
            {
              "internalType": "uint256",
              "name": "amount",
              "type": "uint256"
            },
            {
              "internalType": "uint256",
              "name": "startTime",
              "type": "uint256"
            },
            {
              "internalType": "uint256",
              "name": "endTime",
              "type": "uint256"
            }
          ],
          "internalType": "struct SharedBookStorage.SharedBook[]",
          "name": "",
          "type": "tuple[]"
        }
      ],
      "stateMutability": "view",
      "type": "function",
      "constant": true
    },
    {
      "inputs": [
        {
          "internalType": "uint256",
          "name": "idBookOnSharing",
          "type": "uint256"
        },
        {
          "internalType": "address",
          "name": "sharer",
          "type": "address"
        },
        {
          "internalType": "uint256",
          "name": "tokenId",
          "type": "uint256"
        },
        {
          "internalType": "uint256",
          "name": "newPrice",
          "type": "uint256"
        },
        {
          "internalType": "uint256",
          "name": "newAmount",
          "type": "uint256"
        }
      ],
      "name": "updateBooksOnSharing",
      "outputs": [],
      "stateMutability": "nonpayable",
      "type": "function"
    },
    {
      "inputs": [
        {
          "internalType": "uint256",
          "name": "tokenId",
          "type": "uint256"
        },
        {
          "internalType": "address",
          "name": "fromRenter",
          "type": "address"
        },
        {
          "internalType": "address",
          "name": "sharer",
          "type": "address"
        },
        {
          "internalType": "uint256",
          "name": "startTime",
          "type": "uint256"
        },
        {
          "internalType": "uint256",
          "name": "endTime",
          "type": "uint256"
        }
      ],
      "name": "removeBooksOnSharing",
      "outputs": [],
      "stateMutability": "nonpayable",
      "type": "function"
    },
    {
      "inputs": [
        {
          "internalType": "uint256",
          "name": "tokenId",
          "type": "uint256"
        },
        {
          "internalType": "address",
          "name": "owner",
          "type": "address"
        },
        {
          "internalType": "address",
          "name": "sharer",
          "type": "address"
        },
        {
          "internalType": "uint256",
          "name": "startTime",
          "type": "uint256"
        },
        {
          "internalType": "uint256",
          "name": "endTime",
          "type": "uint256"
        }
      ],
      "name": "removeSharedBooks",
      "outputs": [],
      "stateMutability": "nonpayable",
      "type": "function"
    },
    {
      "inputs": [
        {
          "internalType": "uint256",
          "name": "idBooksOnSharing",
          "type": "uint256"
        },
        {
          "internalType": "address",
          "name": "sender",
          "type": "address"
        },
        {
          "internalType": "uint256",
          "name": "amount",
          "type": "uint256"
        }
      ],
      "name": "takeBooksOnSharing",
      "outputs": [
        {
          "internalType": "uint256",
          "name": "",
          "type": "uint256"
        }
      ],
      "stateMutability": "payable",
      "type": "function",
      "payable": true
    },
    {
      "inputs": [
        {
          "internalType": "uint256",
          "name": "tokenId",
          "type": "uint256"
        },
        {
          "internalType": "address",
          "name": "owner",
          "type": "address"
        }
      ],
      "name": "getAmountOfAllBooksOnSharing",
      "outputs": [
        {
          "internalType": "uint256",
          "name": "",
          "type": "uint256"
        }
      ],
      "stateMutability": "view",
      "type": "function",
      "constant": true
    },
    {
      "inputs": [
        {
          "internalType": "uint256",
          "name": "tokenId",
          "type": "uint256"
        },
        {
          "internalType": "address",
          "name": "owner",
          "type": "address"
        }
      ],
      "name": "getAmountOfAllSharedBooks",
      "outputs": [
        {
          "internalType": "uint256",
          "name": "",
          "type": "uint256"
        }
      ],
      "stateMutability": "view",
      "type": "function",
      "constant": true
    }
  ],
  "bytecode": "0x608060405234801561001057600080fd5b506124c6806100206000396000f3fe6080604052600436106100e95760003560e01c80637d2b2369116100855780637d2b2369146102165780638ad24dbb146102365780639a8f0872146102765780639c48c1b314610289578063b913d4ba146102a9578063c0a64171146102c9578063c86a3500146102e9578063d02d29c9146102fc578063e5efe2a51461031157600080fd5b8063070a562e146100ee578063339256541461012457806338aea1f2146101525780633dc5ae581461017f57806351200158146101a15780635b6434d7146101b65780635f058af8146101d6578063654b6194146101f657806368300a1f146101b6575b600080fd5b3480156100fa57600080fd5b5061010e6101093660046120a7565b610326565b60405161011b919061212c565b60405180910390f35b34801561013057600080fd5b5061014461013f36600461217b565b61047f565b60405190815260200161011b565b34801561015e57600080fd5b5061017261016d3660046121a7565b6104aa565b60405161011b91906121c0565b34801561018b57600080fd5b5061019f61019a3660046121cf565b6105ec565b005b3480156101ad57600080fd5b5061010e610682565b3480156101c257600080fd5b506101446101d13660046121cf565b6107bf565b3480156101e257600080fd5b506101446101f13660046121cf565b610811565b34801561020257600080fd5b5061010e6102113660046120a7565b6108e3565b34801561022257600080fd5b506101446102313660046121cf565b610a49565b34801561024257600080fd5b5061014461025136600461217b565b6001600160a01b03166000908152600460209081526040808320938352929052205490565b61019f61028436600461221d565b610a9a565b34801561029557600080fd5b5061019f6102a4366004612287565b610b12565b3480156102b557600080fd5b5061019f6102c43660046121cf565b610bb6565b3480156102d557600080fd5b506101726102e43660046121a7565b610c16565b6101446102f73660046122cd565b610d1f565b34801561030857600080fd5b50610144611092565b34801561031d57600080fd5b5061010e6110a2565b6001600160a01b038116600090815260066020526040902054606090818115610478576000826001600160401b0381111561036357610363612302565b60405190808252806020026020018201604052801561039c57816020015b610389612024565b8152602001906001900390816103815790505b50915060015b6007548111610475576000818152600860208181526040928390208351610120810185528154815260018201546001600160a01b03908116938201939093526002820154831694810194909452600381015482166060850181905260048201546080860152600582015460a0860152600682015460c0860152600782015460e086015292015461010084015288169003610462578084848151811061044957610449612318565b602090810291909101015261045f600184612344565b92505b508061046d81612357565b9150506103a2565b50505b9392505050565b6001600160a01b03811660009081526009602090815260408083208584529091529020545b92915050565b6104b2612024565b816000036105075760405162461bcd60e51b815260206004820152601c60248201527f4964206f662073686172656420626f6f6b20697320696e76616c69640000000060448201526064015b60405180910390fd5b6000828152600860205260409020600301546001600160a01b03166105675760405162461bcd60e51b815260206004820152601660248201527514da185c995908109bdbdac81a5cc81a5b9d985b1a5960521b60448201526064016104fe565b506000908152600860208181526040928390208351610120810185528154815260018201546001600160a01b039081169382019390935260028201548316948101949094526003810154909116606084015260048101546080840152600581015460a0840152600681015460c0840152600781015460e0840152015461010082015290565b6000851161060c5760405162461bcd60e51b81526004016104fe90612370565b6001600160a01b0384166106605760405162461bcd60e51b815260206004820152601b60248201527a1059191c995cdcc81bd9881bdddb995c881a5cc81a5b9d985b1a59602a1b60448201526064016104fe565b600061066f86858786866107bf565b905061067a816111d9565b505050505050565b6060600061068f60025490565b9050606081156104a457816001600160401b038111156106b1576106b1612302565b6040519080825280602002602001820160405280156106ea57816020015b6106d7612024565b8152602001906001900390816106cf5790505b50905060015b8281116107b857600081815260036020818152604092839020835161012081018552815481526001808301546001600160a01b0390811694830194909452600283015484169582019590955292810154909116606083015260048101546080830152600581015460a0830152600681015460c0830152600781015460e0830152600801546101008201529081908490610789908561239d565b8151811061079957610799612318565b60200260200101819052505080806107b090612357565b9150506106f0565b5092915050565b6040805160208082018890526001600160a01b0387811683850152861660608301526080820185905260a08083018590528351808403909101815260c090920190925280519101205b95945050505050565b6000851580159061082a57506001600160a01b03851615155b6108855760405162461bcd60e51b815260206004820152602660248201527f546f6b656e20696420616e6420796f75722773206164647265737320697320696044820152651b9d985b1a5960d21b60648201526084016104fe565b600061089487868887876107bf565b60008181526005602052604090205490915080156108d5576000818152600860205260409020600301546001600160a01b0316156108d55791506108089050565b506000979650505050505050565b6001600160a01b038116600090815260016020526040902054606090818115610478576000826001600160401b0381111561092057610920612302565b60405190808252806020026020018201604052801561095957816020015b610946612024565b81526020019060019003908161093e5790505b50915060015b6002548111610475576000818152600360208181526040928390208351610120810185528154815260018201546001600160a01b039081169382019390935260028201548316948101859052928101548216606084015260048101546080840152600581015460a0840152600681015460c0840152600781015460e0840152600801546101008301529091908816148015610a05575060608101516001600160a01b0316155b15610a365780848481518110610a1d57610a1d612318565b6020908102919091010152610a33600184612344565b92505b5080610a4181612357565b91505061095f565b600080610a5987878787876107bf565b60008181526020819052604090205490915080156108d557600081815260036020819052604090912001546001600160a01b03166108d55791506108089050565b6000610aa98989898686610a49565b90508015610af75760405162461bcd60e51b815260206004820152601b60248201527a426f6f6b732069732065786973746564206f6e2073686172696e6760281b60448201526064016104fe565b610b0789898989898989896114ed565b505050505050505050565b84600003610b625760405162461bcd60e51b815260206004820152601e60248201527f426f6f6b206973206e6f742065786973746564206f6e2073686172696e67000060448201526064016104fe565b60008211610b825760405162461bcd60e51b81526004016104fe906123b0565b60008111610ba25760405162461bcd60e51b81526004016104fe906123b0565b610baf8585858585611717565b5050505050565b60008511610bd65760405162461bcd60e51b81526004016104fe906123de565b6001600160a01b038316610bfc5760405162461bcd60e51b81526004016104fe9061240b565b6000610c0b86868686866107bf565b905061067a816118b4565b610c1e612024565b81600003610c425760405163d8bbd62160e01b8152600481018390526024016104fe565b600082815260036020819052604090912001546001600160a01b031615610c9b5760008281526003602081905260409182902001549051633992dcbd60e21b81526001600160a01b0390911660048201526024016104fe565b506000908152600360208181526040928390208351610120810185528154815260018201546001600160a01b039081169382019390935260028201548316948101949094529182015416606083015260048101546080830152600581015460a0830152600681015460c0830152600781015460e08301526008015461010082015290565b600080610d2b85610c16565b8051909150610d4c5760405162461bcd60e51b81526004016104fe906123de565b60408101516001600160a01b031615801590610d7057506001600160a01b03841615155b610dcb5760405162461bcd60e51b815260206004820152602660248201527f41646472657373206f6620736861726572206f722073656e64657220697320696044820152651b9d985b1a5960d21b60648201526084016104fe565b836001600160a01b031681604001516001600160a01b031603610e425760405162461bcd60e51b815260206004820152602960248201527f596f75206d6179206e6f742074616b6520626f6f6b7320736861726564206279604482015268103cb7bab939b2b63360b91b60648201526084016104fe565b8060c001518311158015610e565750600083115b610eb95760405162461bcd60e51b815260206004820152602e60248201527f416d6f756e74206f6620626f6f6b7320776869636820796f752077616e74207460448201526d185ad9481a5cc81a5b9d985b1a5960921b60648201526084016104fe565b8051604082015160e0830151610100840151600091610ede9185918a91869190610811565b905080600003610f1357610f0e838560200151848a88608001518960a001518c8b60e001518c6101000151611bc7565b610fbe565b6000818152600860208181526040928390208351610120810185528154815260018201546001600160a01b039081169382019390935260028201548316948101949094526003810154909116606084015260048101546080840152600581015460a080850191909152600682015460c08501819052600783015460e0860152919092015461010084015290860151610fbc9184918b91889190610fb7908d90612344565b611df4565b505b8360c001518603611063576000610fe5848660200151858860e001518961010001516107bf565b60008181526020819052604090205490915089146110545760405162461bcd60e51b815260206004820152602660248201527f48617368206964206f6620626f6f6b73206f6e2073686172696e6720697320696044820152651b9d985b1a5960d21b60648201526084016104fe565b61105d816118b4565b50611083565b6110838883858760a001518a8960c0015161107e919061239d565b611717565b50505060a00151949350505050565b600061109d60025490565b905090565b606060006110af60075490565b9050606081156104a457816001600160401b038111156110d1576110d1612302565b60405190808252806020026020018201604052801561110a57816020015b6110f7612024565b8152602001906001900390816110ef5790505b50905060015b8281116107b857600081815260086020818152604092839020835161012081018552815481526001808301546001600160a01b039081169483019490945260028301548416958201959095526003820154909216606083015260048101546080830152600581015460a0830152600681015460c0830152600781015460e08301529091015461010082015290819084906111aa908561239d565b815181106111ba576111ba612318565b60200260200101819052505080806111d190612357565b915050611110565b600081815260056020526040812054908190036112335760405162461bcd60e51b815260206004820152601860248201527714da185c995908189bdbdac81a5cc81b9bdd08195e1a5cdd60421b60448201526064016104fe565b6000818152600860208181526040928390208351610120810185528154815260018201546001600160a01b039081169382019390935260028201548316948101949094526003810154909116606084015260048101546080840152600581015460a0840152600681015460c084015260078082015460e085015291015461010083015254808314611401576000818152600860208181526040808420815161012081018352815480825260018301546001600160a01b03908116958301959095526002830154851693820184905260038301549094166060820181905260048301546080830152600583015460a0830152600683015460c0830152600783015460e083018190529290950154610100820181905290959461135794939290916107bf565b600090815260056020818152604080842089905588845260088083529381902086518155918601516001830180546001600160a01b03199081166001600160a01b0393841617909155918701516002840180548416918316919091179055606087015160038401805490931691161790556080850151600482015560a08501519181019190915560c0840151600682015560e0840151600782015561010090930151920191909155505b60008481526005602081815260408084208490558484526008808352818520858155600180820180546001600160a01b031990811690915560028301805482169055600383018054909116905560048201879055948101869055600680820187905560078201879055910185905560608701516001600160a01b03168552909152822080549192909161149590849061239d565b909155505060c082015160608301516001600160a01b0316600090815260096020908152604080832086518452909152812080549091906114d790849061239d565b909155506114e790506007611fcf565b50505050565b60006114fc89898986866107bf565b60008181526005602052604090205490915015611540576000818152600560205260409081902054905163d8bbd62160e01b815260048101919091526024016104fe565b61154e600280546001019055565b600254600080838152602001908152602001600020819055506040518061012001604052808a8152602001896001600160a01b03168152602001886001600160a01b0316815260200160006001600160a01b0316815260200187815260200186815260200185815260200184815260200183815250600360006115d060025490565b8152602080820192909252604090810160009081208451815584840151600180830180546001600160a01b03199081166001600160a01b039485161790915587860151600285018054831691851691909117905560608801516003850180549092169084161790556080870151600484015560a0870151600584015560c0870151600684015560e08701516007840155610100909601516008909201919091558b16815292909152812080549161168683612357565b90915550506001600160a01b03871660009081526004602090815260408083208c8452909152812080548692906116be908490612344565b90915550506040517fbcf961d6da4be11cd34d5727b06fad89d9338448617c8de9d1616bdf68b7c0b290611704908b908b908b906000908c908c908c908c908c90612442565b60405180910390a1505050505050505050565b60008581526003602052604090205483146117445760405162461bcd60e51b81526004016104fe90612370565b6000858152600360205260409020600201546001600160a01b038581169116146117805760405162461bcd60e51b81526004016104fe9061240b565b60008581526003602052604090206005015482146117ad5760008581526003602052604090206005018290555b6000858152600360205260409020600601548114610baf5760008581526003602052604081206006015482101561183e576000868152600360205260409020600601546117fb90839061239d565b6001600160a01b038616600090815260046020908152604080832088845290915281208054929350839290919061183390849061239d565b909155506118989050565b60008681526003602052604090206006015461185a908361239d565b6001600160a01b0386166000908152600460209081526040808320888452909152812080549293508392909190611892908490612344565b90915550505b5060008581526003602052604090206006018190555050505050565b600081815260208190526040812054908190036119135760405162461bcd60e51b815260206004820152601c60248201527f426f6f6b206f6e2073686172696e67206973206e6f742065786973740000000060448201526064016104fe565b6000818152600360208181526040928390208351610120810185528154815260018201546001600160a01b039081169382019390935260028083015484169582019590955292810154909116606083015260048101546080830152600581015460a0830152600681015460c0830152600781015460e0830152600801546101008201529054808314611ae3576000818152600360208181526040808420815161012081018352815480825260018301546001600160a01b039081169583018690526002840154811694830185905295830154909516606082015260048201546080820152600582015460a0820152600682015460c0820152600782015460e082018190526008909201546101008201819052909594611a37949093909290916107bf565b60009081526020818152604080832088905587835260038083529281902085518155918501516001830180546001600160a01b03199081166001600160a01b0393841617909155918601516002840180548416918316919091179055606086015193830180549092169316929092179091556080830151600482015560a0830151600582015560c0830151600682015560e0830151600782015561010090920151600890920191909155505b6000848152602081815260408083208390558383526003808352818420848155600180820180546001600160a01b031990811690915560028301805482169055928201805490931690925560048101859055600581018590556006810185905560078101859055600801849055858201516001600160a01b03168452918290528220805491929091611b7690849061239d565b909155505060c08201516040808401516001600160a01b03166000908152600460209081528282208651835290529081208054909190611bb790849061239d565b909155506114e790506002611fcf565b6000611bd68a898986866107bf565b60008181526005602052604090205490915015611c1a576000818152600560205260409081902054905163d8bbd62160e01b815260048101919091526024016104fe565b611c28600780546001019055565b60075460056000838152602001908152602001600020819055506040518061012001604052808b81526020018a6001600160a01b03168152602001896001600160a01b03168152602001886001600160a01b031681526020018781526020018681526020018581526020018481526020018381525060086000611caa60075490565b81526020808201929092526040908101600090812084518155848401516001820180546001600160a01b03199081166001600160a01b039384161790915586850151600284018054831691841691909117905560608701516003840180549092169083161790556080860151600483015560a0860151600583015560c086015160068084019190915560e08701516007840155610100909601516008909201919091558b168152929091528120805491611d6383612357565b90915550506001600160a01b03871660009081526009602090815260408083208d845290915281208054869290611d9b908490612344565b90915550506040517fbcf961d6da4be11cd34d5727b06fad89d9338448617c8de9d1616bdf68b7c0b290611de0908c908c908c908c908c908c908c908c908c90612442565b60405180910390a150505050505050505050565b6000858152600860205260409020548314611e215760405162461bcd60e51b81526004016104fe90612370565b6000858152600860205260409020600301546001600160a01b03858116911614611e9b5760405162461bcd60e51b815260206004820152602560248201527f41646472657373206f6620736861726572656420706572736f6e20697320696e6044820152641d985b1a5960da1b60648201526084016104fe565b6000858152600860205260409020600501548214611ec85760008581526008602052604090206005018290555b6000858152600860205260409020600601548114610baf57600085815260086020526040812060060154821015611f5957600086815260086020526040902060060154611f1690839061239d565b6001600160a01b0386166000908152600960209081526040808320888452909152812080549293508392909190611f4e90849061239d565b90915550611fb39050565b600086815260086020526040902060060154611f75908361239d565b6001600160a01b0386166000908152600960209081526040808320888452909152812080549293508392909190611fad908490612344565b90915550505b5060008581526008602052604090206006018190555050505050565b80548061201c5760405162461bcd60e51b815260206004820152601b60248201527a436f756e7465723a2064656372656d656e74206f766572666c6f7760281b60448201526064016104fe565b600019019055565b6040518061012001604052806000815260200160006001600160a01b0316815260200160006001600160a01b0316815260200160006001600160a01b0316815260200160008152602001600081526020016000815260200160008152602001600081525090565b80356001600160a01b03811681146120a257600080fd5b919050565b6000602082840312156120b957600080fd5b6104788261208b565b80518252602081015160018060a01b03808216602085015280604084015116604085015280606084015116606085015250506080810151608083015260a081015160a083015260c081015160c083015260e081015160e08301526101008082015181840152505050565b6020808252825182820181905260009190848201906040850190845b8181101561216f5761215b8385516120c2565b928401926101209290920191600101612148565b50909695505050505050565b6000806040838503121561218e57600080fd5b8235915061219e6020840161208b565b90509250929050565b6000602082840312156121b957600080fd5b5035919050565b61012081016104a482846120c2565b600080600080600060a086880312156121e757600080fd5b853594506121f76020870161208b565b93506122056040870161208b565b94979396509394606081013594506080013592915050565b600080600080600080600080610100898b03121561223a57600080fd5b8835975061224a60208a0161208b565b965061225860408a0161208b565b979a96995096976060810135975060808101359660a0820135965060c0820135955060e0909101359350915050565b600080600080600060a0868803121561229f57600080fd5b853594506122af6020870161208b565b94979496505050506040830135926060810135926080909101359150565b6000806000606084860312156122e257600080fd5b833592506122f26020850161208b565b9150604084013590509250925092565b634e487b7160e01b600052604160045260246000fd5b634e487b7160e01b600052603260045260246000fd5b634e487b7160e01b600052601160045260246000fd5b808201808211156104a4576104a461232e565b6000600182016123695761236961232e565b5060010190565b602080825260139082015272151bdad95b881259081a5cc81a5b9d985b1a59606a1b604082015260600190565b818103818111156104a4576104a461232e565b60208082526014908201527313995dc81c1c9a58d9481a5cc81a5b9d985b1a5960621b604082015260600190565b602080825260139082015272151bdad95b881a59081a5cc81a5b9d985b1a59606a1b604082015260600190565b6020808252601c908201527f41646472657373206f662073686172657220697320696e76616c696400000000604082015260600190565b9889526001600160a01b0397881660208a01529587166040890152939095166060870152608086019190915260a085015260c084019290925260e0830191909152610100820152610120019056fea2646970667358221220f1cc20d6a2ffe4ee84cf8135a1b12891548236ef541b5934d334e28a2a8fcc5f64736f6c63430008110033",
  "immutableReferences": {},
  "source": "// SPDX-License-Identifier: MIT\r\npragma solidity ^0.8.17;\r\nimport \"@openzeppelin/contracts/utils/Counters.sol\";\r\n\r\ncontract SharedBookStorage {\r\n    using Counters for Counters.Counter;\r\n\r\n    error InvalidAddressError(address);\r\n    error InvalidAmountError(uint);\r\n    error InvalidIdError(uint);\r\n    error InvalidValueError(uint);\r\n    error InvalidParamsError();\r\n\r\n    \r\n    // priceOfBB: Save the price of previously borrowed books.\r\n    // For the purpose of creating a new borrowed book when convert.\r\n    // Read func convertBookOnSharingToBorrowedBook to more understand\r\n    struct SharedBook {\r\n        uint256 tokenId;\r\n        address fromRenter;\r\n        address sharer;\r\n        address  sharedPer;\r\n        uint priceOfBB; \r\n        uint price; // price / books \r\n        uint amount;\r\n        uint startTime;\r\n        uint endTime;\r\n    }\r\n\r\n    event SharedBookCreated (\r\n        uint256 tokenId,\r\n        address fromRenter,\r\n        address sharer,\r\n        address  sharedPer,\r\n        uint priceOfBB,\r\n        uint price,\r\n        uint amount,\r\n        uint startTime,\r\n        uint endTime\r\n    );\r\n\r\n    // Variable for Shared Books\r\n\r\n    // (hash ID ->  ID Book on sharing)\r\n    mapping (bytes32 => uint) _allBooksOnSharing;\r\n    // For sharer\r\n    mapping(address => uint) private _totalOwnedBookOnSharing; \r\n    Counters.Counter private _booksOnSharing;\r\n    mapping(uint => SharedBook) private _idToBookOnSharing; // (ID -> Book on Sharing)\r\n    mapping(address => mapping(uint => uint)) private _amountOwnedBooksOnSharing;\r\n\r\n\r\n\r\n    // hash ID => ID shared book\r\n    mapping (bytes32 => uint) _allSharedBooks;\r\n    // For shared person\r\n    mapping(address => uint) private _totalOwnedSharedBook; \r\n    Counters.Counter private _sharedBooks;\r\n    mapping(uint => SharedBook) private _idToSharedBook; // (ID -> Shared book)\r\n    // Shared person => (tokenId => amount)\r\n    mapping(address => mapping(uint => uint)) private _amountOwnedSharedBooks;\r\n\r\n    function getTotalBookOnSharing() public view returns(uint) {\r\n        return _booksOnSharing.current();\r\n    }\r\n\r\n    function getHashIdForSharedBook(uint tokenId, \r\n                                    address sharer, \r\n                                    address sharedPer, \r\n                                    uint startTime, \r\n                                    uint endTime) public pure returns (bytes32) {\r\n        return keccak256(abi.encode(tokenId, sharer, sharedPer, startTime, endTime));                                  \r\n    }\r\n\r\n    function getHashIdForBookOnSharing(uint tokenId,\r\n                                       address fromRenter, \r\n                                       address sharer, \r\n                                       uint startTime, \r\n                                       uint endTime) public pure returns (bytes32) {\r\n        return keccak256(abi.encode(tokenId, fromRenter, sharer, startTime, endTime));                                  \r\n    }\r\n    function _createBookForSharing(uint tokenId, \r\n                                   address fromRenter,\r\n                                   address sharer, \r\n                                   uint priceOfBB, \r\n                                   uint price, \r\n                                   uint amount, \r\n                                   uint startTime, \r\n                                   uint endTime) private {\r\n        bytes32 hashId = getHashIdForBookOnSharing(tokenId,\r\n                                                   fromRenter,\r\n                                                   sharer,  \r\n                                                   startTime, \r\n                                                   endTime);\r\n        if (_allSharedBooks[hashId] != 0) {\r\n            revert InvalidIdError(_allSharedBooks[hashId]);\r\n        }\r\n        _booksOnSharing.increment();\r\n        \r\n        _allBooksOnSharing[hashId] = _booksOnSharing.current();\r\n        _idToBookOnSharing[_booksOnSharing.current()] = SharedBook(tokenId,\r\n                                                                   fromRenter,\r\n                                                                   sharer,\r\n                                                                   address(0), \r\n                                                                   priceOfBB,\r\n                                                                   price, \r\n                                                                   amount,\r\n                                                                   startTime,\r\n                                                                   endTime);\r\n        _totalOwnedBookOnSharing[sharer]++;\r\n        _amountOwnedBooksOnSharing[sharer][tokenId] += amount;\r\n        emit SharedBookCreated(tokenId,\r\n                               fromRenter,\r\n                               sharer,\r\n                               address(0), \r\n                               priceOfBB,\r\n                               price, \r\n                               amount,\r\n                               startTime,\r\n                               endTime);\r\n    }\r\n\r\n    function _createSharedBook(uint tokenId, \r\n                               address fromRenter,\r\n                               address sharer, \r\n                               address sharedPer, \r\n                               uint priceOfBB,\r\n                               uint256 price, \r\n                               uint amount,\r\n                               uint startTime,\r\n                               uint endTime) private {\r\n        bytes32 hashId = getHashIdForSharedBook(tokenId,\r\n                                                sharer, \r\n                                                sharedPer, \r\n                                                startTime, \r\n                                                endTime);\r\n        if (_allSharedBooks[hashId] != 0) {\r\n            revert InvalidIdError(_allSharedBooks[hashId]);\r\n        }\r\n        _sharedBooks.increment();\r\n        _allSharedBooks[hashId] = _sharedBooks.current();\r\n        _idToSharedBook[_sharedBooks.current()] = SharedBook(tokenId,\r\n                                                             fromRenter,\r\n                                                             sharer,\r\n                                                             sharedPer, \r\n                                                             priceOfBB,\r\n                                                             price, \r\n                                                             amount,\r\n                                                             startTime,\r\n                                                             endTime);\r\n        _totalOwnedSharedBook[sharedPer]++;\r\n        _amountOwnedSharedBooks[sharedPer][tokenId] += amount;\r\n        emit SharedBookCreated(tokenId,\r\n                               fromRenter,\r\n                               sharer,\r\n                               sharedPer, \r\n                               priceOfBB,\r\n                               price, \r\n                               amount,\r\n                               startTime,\r\n                               endTime);\r\n    }\r\n\r\n    function getIdBookOnSharing(uint tokenId, \r\n                                address fromRenter,\r\n                                address sharer, \r\n                                uint startTime, \r\n                                uint endTime) public view returns(uint) {\r\n        bytes32 hashId = getHashIdForBookOnSharing(tokenId,\r\n                                                   fromRenter, \r\n                                                   sharer, \r\n                                                   startTime, \r\n                                                   endTime);\r\n        uint idBooksOnSharing = _allBooksOnSharing[hashId];\r\n        if (idBooksOnSharing != 0) {\r\n            if (_idToBookOnSharing[idBooksOnSharing].sharedPer == address(0)) {\r\n                return idBooksOnSharing;\r\n            }\r\n        }\r\n        return 0;\r\n    }\r\n\r\n    function getBooksOnSharing(uint idBooksOnSharing) public view returns(SharedBook memory) {\r\n        if (idBooksOnSharing == 0) {\r\n            revert InvalidIdError(idBooksOnSharing);\r\n        } \r\n        if (_idToBookOnSharing[idBooksOnSharing].sharedPer != address(0)) {\r\n            revert InvalidAddressError(_idToBookOnSharing[idBooksOnSharing].sharedPer);\r\n        }\r\n        return _idToBookOnSharing[idBooksOnSharing];\r\n    }\r\n\r\n    function getIdSharedBook(uint tokenId, \r\n                            address sharedPer, \r\n                            address sharer,\r\n                            uint startTime,\r\n                            uint endTime) public view returns(uint) {\r\n        require(tokenId != 0 && sharedPer != address(0), \"Token id and your's address is invalid\");\r\n        bytes32 hashId = getHashIdForSharedBook(tokenId, \r\n                                                sharer, \r\n                                                sharedPer, \r\n                                                startTime, \r\n                                                endTime);\r\n        uint idSharedBook = _allSharedBooks[hashId];\r\n        if (idSharedBook != 0) {\r\n            if (_idToSharedBook[idSharedBook].sharedPer != address(0)) {\r\n                return idSharedBook;\r\n            }\r\n        }\r\n        return 0;\r\n    }\r\n\r\n    function getSharedBooks(uint idSharedBook) public view returns(SharedBook memory) {\r\n        require(idSharedBook != 0, \"Id of shared book is invalid\");\r\n        require(_idToSharedBook[idSharedBook].sharedPer != address(0),\r\n                 \"Shared Book is invalid\");\r\n        return _idToSharedBook[idSharedBook];\r\n    }\r\n\r\n    function shareBooks(uint256 tokenId,\r\n                        address fromRenter, \r\n                        address sharer,\r\n                        uint priceOfBB,\r\n                        uint price,\r\n                        uint256 amount,\r\n                        uint256 startTime,\r\n                        uint256 endTime) public payable {\r\n\r\n        uint idBookOnSharing = getIdBookOnSharing(tokenId, fromRenter, sharer, startTime, endTime);\r\n        require(idBookOnSharing == 0, \"Books is existed on sharing\");\r\n        _createBookForSharing(tokenId, fromRenter, sharer, priceOfBB, price, amount, startTime, endTime);\r\n\r\n    }\r\n\r\n    function getAllBooksOnSharing() public view returns (SharedBook[] memory) {\r\n        uint length = _booksOnSharing.current();\r\n        SharedBook[] memory books;\r\n        if (length > 0) {\r\n            books = new SharedBook[](length);\r\n\r\n            for (uint i = 1; i <= length; i++) {\r\n                SharedBook memory book = _idToBookOnSharing[i];\r\n                books[i - 1] = book;\r\n            }\r\n        }\r\n\r\n        return books;\r\n    }\r\n\r\n    function getAllOwnedBooksOnSharing(address owner) public view returns (SharedBook[] memory) {\r\n        uint total = _totalOwnedBookOnSharing[owner];\r\n        SharedBook[] memory books;\r\n\r\n        if (total > 0) {\r\n            uint currentIndex = 0;\r\n            books = new SharedBook[](total);\r\n\r\n            for (uint i = 1; i <= _booksOnSharing.current(); i++) {\r\n                SharedBook memory book = _idToBookOnSharing[i];\r\n                if (book.sharer == owner && book.sharedPer == address(0)) {\r\n                    books[currentIndex] = book;\r\n                    currentIndex += 1;\r\n                }\r\n            }\r\n        }\r\n        return books;\r\n    }\r\n\r\n    function getAllSharedBook() public view returns (SharedBook[] memory) {\r\n        uint length = _sharedBooks.current();\r\n        SharedBook[] memory books;\r\n        if (length > 0) {\r\n            books = new SharedBook[](length);\r\n\r\n            for (uint i = 1; i <= length; i++) {\r\n                SharedBook memory book = _idToSharedBook[i];\r\n                books[i - 1] = book;\r\n            }\r\n        }\r\n\r\n        return books;\r\n    }\r\n\r\n    function getAllOwnedSharedBook(address owner) public view returns (SharedBook[] memory) {\r\n        uint total = _totalOwnedSharedBook[owner];\r\n        SharedBook[] memory books;\r\n\r\n        if (total > 0) {\r\n            uint currentIndex = 0;\r\n            books = new SharedBook[](total);\r\n\r\n            for (uint i = 1; i <= _sharedBooks.current(); i++) {\r\n                SharedBook memory book = _idToSharedBook[i];\r\n                if (book.sharedPer == owner) {\r\n                    books[currentIndex] = book;\r\n                    currentIndex += 1;\r\n                }\r\n            }\r\n        }\r\n        return books;\r\n    }\r\n\r\n    function _updateSharedBooksInternal(uint idSharedBook,\r\n                                        address sharedPer,\r\n                                        uint tokenId,\r\n                                        uint newPrice,\r\n                                        uint256 newAmount\r\n                                        ) private {\r\n        require(_idToSharedBook[idSharedBook].tokenId == tokenId, \"Token Id is invalid\");\r\n        require(_idToSharedBook[idSharedBook].sharedPer == sharedPer, \"Address of sharered person is invalid\");\r\n        if(_idToSharedBook[idSharedBook].price != newPrice) {\r\n\r\n            _idToSharedBook[idSharedBook].price = newPrice;\r\n\r\n        } \r\n        \r\n        if( _idToSharedBook[idSharedBook].amount != newAmount) {\r\n            uint balance;\r\n            if (_idToSharedBook[idSharedBook].amount > newAmount) {\r\n                balance = _idToSharedBook[idSharedBook].amount - newAmount;\r\n                _amountOwnedSharedBooks[sharedPer][tokenId] -= balance;\r\n            } else {\r\n                balance = newAmount - _idToSharedBook[idSharedBook].amount;\r\n                _amountOwnedSharedBooks[sharedPer][tokenId] += balance;\r\n            }\r\n\r\n            _idToSharedBook[idSharedBook].amount = newAmount;\r\n\r\n        }\r\n\r\n    }\r\n\r\n    function _updateBooksOnSharingInternal(uint idBookOnSharing,\r\n                                           address sharer,\r\n                                           uint tokenId,\r\n                                           uint newPrice,\r\n                                           uint256 newAmount\r\n                                        ) private {\r\n        require(_idToBookOnSharing[idBookOnSharing].tokenId == tokenId, \"Token Id is invalid\");\r\n        require(_idToBookOnSharing[idBookOnSharing].sharer == sharer, \"Address of sharer is invalid\");\r\n        if(_idToBookOnSharing[idBookOnSharing].price != newPrice ) {\r\n\r\n            _idToBookOnSharing[idBookOnSharing].price = newPrice;\r\n\r\n        }\r\n\r\n        if (_idToBookOnSharing[idBookOnSharing].amount != newAmount) {\r\n            uint balance;\r\n            if (_idToBookOnSharing[idBookOnSharing].amount > newAmount) {\r\n                balance = _idToBookOnSharing[idBookOnSharing].amount - newAmount;\r\n                _amountOwnedBooksOnSharing[sharer][tokenId] -= balance;\r\n            } else {\r\n                balance = newAmount - _idToBookOnSharing[idBookOnSharing].amount;\r\n                _amountOwnedBooksOnSharing[sharer][tokenId] += balance;\r\n            }\r\n            _idToBookOnSharing[idBookOnSharing].amount = newAmount;\r\n\r\n        }\r\n\r\n    }\r\n\r\n    function updateBooksOnSharing(uint idBookOnSharing,\r\n                                  address sharer,\r\n                                  uint tokenId,\r\n                                  uint newPrice, \r\n                                  uint newAmount) public {\r\n\r\n        require(idBookOnSharing != 0, \"Book is not existed on sharing\");\r\n        require(newPrice > 0, \"New price is invalid\");\r\n        require(newAmount > 0, \"New price is invalid\");\r\n        _updateBooksOnSharingInternal(idBookOnSharing, sharer, tokenId, newPrice, newAmount);\r\n    }\r\n\r\n    function _removeBooksOnSharingInternal(bytes32 hashId) private {\r\n        uint idBook = _allBooksOnSharing[hashId];\r\n        require(idBook != 0, \"Book on sharing is not exist\");\r\n        SharedBook memory bookOnSharing = _idToBookOnSharing[idBook];\r\n\r\n        uint lastIdBook = _booksOnSharing.current();\r\n        if (lastIdBook != idBook) {\r\n\r\n            SharedBook memory lastBook = _idToBookOnSharing[lastIdBook];\r\n            bytes32 lastHashId = getHashIdForBookOnSharing(lastBook.tokenId, \r\n                                                           lastBook.fromRenter,\r\n                                                           lastBook.sharer, \r\n                                                           lastBook.startTime, \r\n                                                           lastBook.endTime);\r\n\r\n            _allBooksOnSharing[lastHashId] = idBook;\r\n            _idToBookOnSharing[idBook] = lastBook;\r\n\r\n        }\r\n\r\n        delete _allBooksOnSharing[hashId];\r\n        delete _idToBookOnSharing[lastIdBook];\r\n\r\n        _totalOwnedBookOnSharing[bookOnSharing.sharer] -= 1;\r\n        _amountOwnedBooksOnSharing[bookOnSharing.sharer][bookOnSharing.tokenId] -= bookOnSharing.amount;\r\n        _booksOnSharing.decrement();\r\n\r\n    }\r\n\r\n    function removeBooksOnSharing(uint tokenId,\r\n                                  address fromRenter,\r\n                                  address sharer,\r\n                                  uint startTime,\r\n                                  uint endTime) public {\r\n        require(tokenId > 0, \"Token id is invalid\");\r\n        require(sharer != address(0), \"Address of sharer is invalid\");\r\n\r\n        bytes32 hashId = getHashIdForBookOnSharing(tokenId, \r\n                                                   fromRenter,\r\n                                                   sharer, \r\n                                                   startTime, \r\n                                                   endTime); \r\n\r\n        _removeBooksOnSharingInternal(hashId);\r\n    }\r\n\r\n    function _removeSharedBooksInternal(bytes32 hashId) private {\r\n        uint idBook = _allSharedBooks[hashId];\r\n        require(idBook != 0, \"Shared book is not exist\");\r\n        SharedBook memory sharedBook = _idToSharedBook[idBook];\r\n\r\n        uint lastIdBook = _sharedBooks.current();\r\n        if (lastIdBook != idBook) {\r\n\r\n            SharedBook memory lastBook = _idToSharedBook[lastIdBook];\r\n            bytes32 lastHashId = getHashIdForSharedBook(lastBook.tokenId, \r\n                                                        lastBook.sharer, \r\n                                                        lastBook.sharedPer, \r\n                                                        lastBook.startTime, \r\n                                                        lastBook.endTime);\r\n\r\n            _allSharedBooks[lastHashId] = idBook;\r\n            _idToSharedBook[idBook] = lastBook;\r\n\r\n        }\r\n\r\n        delete _allSharedBooks[hashId];\r\n        delete _idToSharedBook[lastIdBook];\r\n\r\n        _totalOwnedSharedBook[sharedBook.sharedPer] -= 1;\r\n        _amountOwnedSharedBooks[sharedBook.sharedPer][sharedBook.tokenId] -= sharedBook.amount;\r\n        _sharedBooks.decrement();\r\n\r\n    }\r\n\r\n    function removeSharedBooks(uint tokenId,\r\n                              address owner,\r\n                              address sharer,\r\n                              uint startTime,\r\n                              uint endTime\r\n                              ) public {\r\n        require(tokenId > 0, \"Token Id is invalid\");\r\n        require(owner != address(0), \"Address of owner is invalid\");\r\n\r\n        bytes32 hashId = getHashIdForSharedBook(tokenId, \r\n                                                sharer, \r\n                                                owner, \r\n                                                startTime, \r\n                                                endTime); \r\n        _removeSharedBooksInternal(hashId);\r\n    }\r\n\r\n    function takeBooksOnSharing(uint idBooksOnSharing,\r\n                                address sender,\r\n                                uint amount) public payable returns(uint) {\r\n        SharedBook memory booksOnSharing = getBooksOnSharing(idBooksOnSharing);\r\n        require(booksOnSharing.tokenId > 0, \"Token id is invalid\");\r\n        require(booksOnSharing.sharer != address(0) && sender != address(0), \r\n                \"Address of sharer or sender is invalid\");\r\n        require(booksOnSharing.sharer != sender, \"You may not take books shared by yourself\");\r\n        require(amount <= booksOnSharing.amount && amount > 0,\r\n                     \"Amount of books which you want take is invalid\");\r\n        uint tokenId = booksOnSharing.tokenId;\r\n        address sharer = booksOnSharing.sharer;\r\n\r\n        uint idSharedBook = getIdSharedBook(tokenId, \r\n                                            sender, \r\n                                            sharer, \r\n                                            booksOnSharing.startTime, \r\n                                            booksOnSharing.endTime);\r\n        if (idSharedBook == 0) {\r\n            _createSharedBook(tokenId,\r\n                              booksOnSharing.fromRenter,\r\n                              sharer, \r\n                              sender, \r\n                              booksOnSharing.priceOfBB,\r\n                              booksOnSharing.price, \r\n                              amount, \r\n                              booksOnSharing.startTime, \r\n                              booksOnSharing.endTime);\r\n\r\n        } else {\r\n            SharedBook memory sharedBooks = _idToSharedBook[idSharedBook];\r\n            _updateSharedBooksInternal(idSharedBook, \r\n                                       sender,\r\n                                       tokenId,\r\n                                       booksOnSharing.price, \r\n                                       sharedBooks.amount + amount);\r\n        }\r\n\r\n        if (amount == booksOnSharing.amount) {\r\n            bytes32 hashId = getHashIdForBookOnSharing(tokenId,\r\n                                                       booksOnSharing.fromRenter,\r\n                                                       sharer, \r\n                                                       booksOnSharing.startTime, \r\n                                                       booksOnSharing.endTime); \r\n            require(_allBooksOnSharing[hashId] == idBooksOnSharing,\r\n                     \"Hash id of books on sharing is invalid\");\r\n            _removeBooksOnSharingInternal(hashId);\r\n        } else {\r\n            _updateBooksOnSharingInternal(idBooksOnSharing,\r\n                                          sharer,\r\n                                          tokenId,\r\n                                          booksOnSharing.price, \r\n                                          booksOnSharing.amount - amount);\r\n        }\r\n\r\n        // Return price of books on sharing to transfer to sharer \r\n        return booksOnSharing.price;\r\n    }\r\n\r\n    function getAmountOfAllBooksOnSharing(uint tokenId,\r\n                                          address owner) public view returns(uint) {\r\n        return _amountOwnedBooksOnSharing[owner][tokenId];\r\n    }\r\n\r\n    function getAmountOfAllSharedBooks(uint tokenId,\r\n                                    address owner) public view returns(uint) {\r\n            \r\n        return _amountOwnedSharedBooks[owner][tokenId];\r\n    }\r\n\r\n}",
  "sourcePath": "D:\\DO_AN_TOT_NGHIEP\\project\\nft-bookstore\\contracts\\SharedBookStorage.sol",
  "compiler": {
    "name": "solc",
    "version": "0.8.17+commit.8df45f5f.Emscripten.clang"
  },
  "schemaVersion": "3.4.11",
  "updatedAt": "2023-04-08T03:06:43.539Z",
  "networkType": "ethereum",
  "devdoc": {
    "kind": "dev",
    "methods": {},
    "version": 1
  },
  "userdoc": {
    "kind": "user",
    "methods": {},
    "version": 1
  }
}