{
  "contractName": "TimeLock",
  "abi": [
    {
      "inputs": [
        {
          "internalType": "bytes32",
          "name": "",
          "type": "bytes32"
        }
      ],
      "name": "AlreadyQueuedError",
      "type": "error"
    },
    {
      "inputs": [
        {
          "internalType": "bytes32",
          "name": "",
          "type": "bytes32"
        }
      ],
      "name": "NotQueuedError",
      "type": "error"
    },
    {
      "inputs": [
        {
          "internalType": "uint256",
          "name": "",
          "type": "uint256"
        },
        {
          "internalType": "uint256",
          "name": "",
          "type": "uint256"
        }
      ],
      "name": "TimestampNotInRangeError",
      "type": "error"
    },
    {
      "anonymous": false,
      "inputs": [
        {
          "indexed": true,
          "internalType": "bytes32",
          "name": "txId",
          "type": "bytes32"
        }
      ],
      "name": "Cancel",
      "type": "event"
    },
    {
      "anonymous": false,
      "inputs": [
        {
          "indexed": true,
          "internalType": "bytes32",
          "name": "txId",
          "type": "bytes32"
        },
        {
          "indexed": true,
          "internalType": "address",
          "name": "owner",
          "type": "address"
        },
        {
          "indexed": false,
          "internalType": "uint256",
          "name": "value",
          "type": "uint256"
        },
        {
          "indexed": false,
          "internalType": "string",
          "name": "func",
          "type": "string"
        },
        {
          "indexed": false,
          "internalType": "bytes",
          "name": "data",
          "type": "bytes"
        },
        {
          "indexed": false,
          "internalType": "uint256",
          "name": "timestamp",
          "type": "uint256"
        }
      ],
      "name": "Queue",
      "type": "event"
    },
    {
      "inputs": [],
      "name": "DELAY_TRANSACTION",
      "outputs": [
        {
          "internalType": "uint256",
          "name": "",
          "type": "uint256"
        }
      ],
      "stateMutability": "view",
      "type": "function",
      "constant": true
    },
    {
      "inputs": [],
      "name": "MIN_DELAY",
      "outputs": [
        {
          "internalType": "uint256",
          "name": "",
          "type": "uint256"
        }
      ],
      "stateMutability": "view",
      "type": "function",
      "constant": true
    },
    {
      "inputs": [
        {
          "internalType": "address",
          "name": "owner",
          "type": "address"
        },
        {
          "internalType": "uint256",
          "name": "_value",
          "type": "uint256"
        },
        {
          "internalType": "string",
          "name": "_func",
          "type": "string"
        },
        {
          "internalType": "bytes",
          "name": "_data",
          "type": "bytes"
        },
        {
          "internalType": "uint256",
          "name": "_timestamp",
          "type": "uint256"
        }
      ],
      "name": "getTxId",
      "outputs": [
        {
          "internalType": "bytes32",
          "name": "",
          "type": "bytes32"
        }
      ],
      "stateMutability": "pure",
      "type": "function",
      "constant": true
    },
    {
      "inputs": [
        {
          "internalType": "address",
          "name": "_owner",
          "type": "address"
        },
        {
          "internalType": "uint256",
          "name": "_value",
          "type": "uint256"
        },
        {
          "internalType": "string",
          "name": "_func",
          "type": "string"
        },
        {
          "internalType": "bytes",
          "name": "_data",
          "type": "bytes"
        },
        {
          "internalType": "uint256",
          "name": "_timestamp",
          "type": "uint256"
        }
      ],
      "name": "queue",
      "outputs": [
        {
          "internalType": "bytes32",
          "name": "txId",
          "type": "bytes32"
        }
      ],
      "stateMutability": "nonpayable",
      "type": "function"
    },
    {
      "inputs": [
        {
          "internalType": "bytes32",
          "name": "txId",
          "type": "bytes32"
        },
        {
          "internalType": "address",
          "name": "_newOwner",
          "type": "address"
        },
        {
          "internalType": "uint256",
          "name": "_newvalue",
          "type": "uint256"
        },
        {
          "internalType": "string",
          "name": "_newFunc",
          "type": "string"
        },
        {
          "internalType": "bytes",
          "name": "_newData",
          "type": "bytes"
        },
        {
          "internalType": "uint256",
          "name": "_newTimestamp",
          "type": "uint256"
        }
      ],
      "name": "update",
      "outputs": [
        {
          "internalType": "bool",
          "name": "",
          "type": "bool"
        }
      ],
      "stateMutability": "nonpayable",
      "type": "function"
    },
    {
      "inputs": [
        {
          "internalType": "address",
          "name": "_owner",
          "type": "address"
        },
        {
          "internalType": "uint256",
          "name": "_value",
          "type": "uint256"
        },
        {
          "internalType": "string",
          "name": "_func",
          "type": "string"
        },
        {
          "internalType": "bytes",
          "name": "_data",
          "type": "bytes"
        },
        {
          "internalType": "uint256",
          "name": "_timestamp",
          "type": "uint256"
        }
      ],
      "name": "isExecute",
      "outputs": [
        {
          "internalType": "bool",
          "name": "",
          "type": "bool"
        }
      ],
      "stateMutability": "nonpayable",
      "type": "function"
    },
    {
      "inputs": [
        {
          "internalType": "bytes32",
          "name": "_txId",
          "type": "bytes32"
        }
      ],
      "name": "cancel",
      "outputs": [],
      "stateMutability": "nonpayable",
      "type": "function"
    }
  ],
  "bytecode": "0x608060405234801561001057600080fd5b50610771806100206000396000f3fe608060405234801561001057600080fd5b506004361061006d5760003560e01c806340d3acda146100725780634b9915a51461008e5780638a1ce0b6146100a15780639f81aed7146100b4578063a14e4406146100bc578063c4d252f5146100df578063f3e7a3b9146100f4575b600080fd5b61007b6104b081565b6040519081526020015b60405180910390f35b61007b61009c3660046104fb565b610107565b61007b6100af3660046104fb565b610200565b61007b61023d565b6100cf6100ca366004610581565b61024f565b6040519015158152602001610085565b6100f26100ed366004610611565b61034a565b005b6100cf6101023660046104fb565b6103d5565b60006101168686868686610200565b60008181526020819052604090205490915060ff161561015157604051634ca8215f60e11b8152600481018290526024015b60405180910390fd5b6101606104b062093a80610640565b61016a9042610659565b82101561019357604051630d4b0b6160e11b815242600482015260248101839052604401610148565b60008181526020819052604090819020805460ff19166001179055516001600160a01b0387169082907f3c22f47140594040d205a5533cfedd86c9ab8622c39ead03affb2d97052c794c906101ef9089908990899089906106b2565b60405180910390a395945050505050565b6000858585858560405160200161021b9594939291906106ef565b6040516020818303038152906040528051906020012090505b95945050505050565b61024c6104b062093a80610640565b81565b60008681526020819052604081205460ff161561033c576102756104b062093a80610640565b61027f9042610659565b8210156102a857604051630d4b0b6160e11b815242600482015260248101839052604401610148565b6000878152602081905260408120805460ff191690556102cb8787878787610200565b60008181526020819052604090819020805460ff19166001179055519091506001600160a01b0388169089907f3c22f47140594040d205a5533cfedd86c9ab8622c39ead03affb2d97052c794c9061032a908a908a908a908a906106b2565b60405180910390a36001915050610340565b5060005b9695505050505050565b60008181526020819052604090205460ff166103955760405162461bcd60e51b815260206004820152600a602482015269436865636b206c6f673160b01b6044820152606401610148565b600081815260208190526040808220805460ff191690555182917fe8d9861dbc9c663ed3accd261bbe2fe01e0d3d9e5f51fa38523b265c7757a93a91a250565b6000806103e58787878787610200565b60008181526020819052604090205490915060ff16610408576000915050610234565b8242101561041a576000915050610234565b6000908152602081905260409020805460ff1916905550600195945050505050565b80356001600160a01b038116811461045357600080fd5b919050565b634e487b7160e01b600052604160045260246000fd5b600082601f83011261047f57600080fd5b813567ffffffffffffffff8082111561049a5761049a610458565b604051601f8301601f19908116603f011681019082821181831017156104c2576104c2610458565b816040528381528660208588010111156104db57600080fd5b836020870160208301376000602085830101528094505050505092915050565b600080600080600060a0868803121561051357600080fd5b61051c8661043c565b945060208601359350604086013567ffffffffffffffff8082111561054057600080fd5b61054c89838a0161046e565b9450606088013591508082111561056257600080fd5b5061056f8882890161046e565b95989497509295608001359392505050565b60008060008060008060c0878903121561059a57600080fd5b863595506105aa6020880161043c565b945060408701359350606087013567ffffffffffffffff808211156105ce57600080fd5b6105da8a838b0161046e565b945060808901359150808211156105f057600080fd5b506105fd89828a0161046e565b92505060a087013590509295509295509295565b60006020828403121561062357600080fd5b5035919050565b634e487b7160e01b600052601160045260246000fd5b818103818111156106535761065361062a565b92915050565b808201808211156106535761065361062a565b6000815180845260005b8181101561069257602081850181015186830182015201610676565b506000602082860101526020601f19601f83011685010191505092915050565b8481526080602082015260006106cb608083018661066c565b82810360408401526106dd818661066c565b91505082606083015295945050505050565b60018060a01b038616815284602082015260a06040820152600061071660a083018661066c565b8281036060840152610728818661066c565b915050826080830152969550505050505056fea26469706673582212206aa2effdb11b96a90f2ec16081651d6ba84ab0e7010df2b48867734cc46b705d64736f6c63430008110033",
  "immutableReferences": {},
  "source": "// SPDX-License-Identifier: MIT\r\npragma solidity ^0.8.17;\r\nimport \"./Error.sol\";\r\n\r\n// Timelock is a contract that helps us in delaying a transaction with a specific time\r\ncontract TimeLock {\r\n\r\n    event Queue(\r\n        bytes32 indexed txId,\r\n        address indexed owner,\r\n        uint value,\r\n        string func,\r\n        bytes data,\r\n        uint timestamp\r\n    );\r\n\r\n    event Cancel(bytes32 indexed txId);\r\n\r\n    uint public constant DELAY_TRANSACTION = 1200; // 30 minutes\r\n    uint public constant MIN_DELAY = 604800 - DELAY_TRANSACTION; // 1 weeks\r\n\r\n    // tx id => queued\r\n    mapping(bytes32 => bool) private queued;\r\n\r\n    function getTxId(\r\n        address owner,\r\n        uint _value,\r\n        string memory _func,\r\n        bytes memory _data,\r\n        uint _timestamp\r\n    ) public pure returns (bytes32) {\r\n        return keccak256(abi.encode(owner, _value, _func, _data, _timestamp));\r\n    }\r\n\r\n    /**\r\n     * @param _owner Address of account of owner\r\n     * @param _value Amount of ETH to send\r\n     * @param _func Function signature, for example \"foo(address,uint256)\"\r\n     * @param _data ABI encoded data send.\r\n     * @param _timestamp Timestamp after which the transaction can be executed.\r\n     */\r\n    function queue(\r\n        address _owner,\r\n        uint _value,\r\n        string memory _func,\r\n        bytes memory _data,\r\n        uint _timestamp\r\n    ) public returns (bytes32 txId) {\r\n        txId = getTxId(_owner, _value, _func, _data, _timestamp);\r\n        if (queued[txId]) {\r\n            revert Error.AlreadyQueuedError(txId);\r\n        }\r\n        // ---|------------|-------\r\n        //  block    block + MIN_DELAY     \r\n        if (\r\n            _timestamp < block.timestamp + MIN_DELAY \r\n        ) {\r\n            revert Error.TimestampNotInRangeError(block.timestamp, _timestamp);\r\n        }\r\n\r\n        queued[txId] = true;\r\n\r\n\r\n        emit Queue(txId, _owner, _value, _func, _data, _timestamp);\r\n    }\r\n\r\n    function update(\r\n        bytes32 txId,\r\n        address _newOwner,\r\n        uint _newvalue,\r\n        string memory _newFunc,\r\n        bytes memory _newData,\r\n        uint _newTimestamp\r\n    ) public returns(bool) {\r\n        if (queued[txId]) {\r\n\r\n            if (\r\n                _newTimestamp < block.timestamp + MIN_DELAY \r\n            ) {\r\n                revert Error.TimestampNotInRangeError(block.timestamp, _newTimestamp);\r\n            }\r\n            queued[txId] = false;\r\n\r\n            bytes32 newIdx = getTxId(_newOwner, _newvalue, _newFunc, _newData, _newTimestamp);\r\n            queued[newIdx] = true;\r\n            emit Queue(txId, _newOwner, _newvalue, _newFunc, _newData, _newTimestamp);\r\n            return true;\r\n        }\r\n        return false;\r\n    }\r\n\r\n    function isExecute(\r\n        address _owner,\r\n        uint _value,\r\n        string memory _func,\r\n        bytes memory _data,\r\n        uint _timestamp\r\n    ) public returns(bool) {\r\n        bytes32 txId = getTxId(_owner, _value, _func, _data, _timestamp);\r\n\r\n        if (!queued[txId]) {\r\n            return false;\r\n        }\r\n\r\n        // ----|-------------------|-------\r\n        //  block.timestamp    timestamp \r\n        if (block.timestamp < _timestamp) {\r\n            return false;\r\n        }\r\n\r\n        queued[txId] = false;\r\n        return true;\r\n    }\r\n\r\n    function cancel(bytes32 _txId) public {\r\n        if (!queued[_txId]) {\r\n            require(false, \"Check log1\");\r\n            revert Error.NotQueuedError(_txId);\r\n        }\r\n\r\n        queued[_txId] = false;\r\n\r\n        emit Cancel(_txId);\r\n    }\r\n}\r\n",
  "sourcePath": "D:\\DO_AN_TOT_NGHIEP\\project\\nft-bookstore\\contracts\\utils\\Timelock.sol",
  "compiler": {
    "name": "solc",
    "version": "0.8.17+commit.8df45f5f.Emscripten.clang"
  },
  "schemaVersion": "3.4.11",
  "updatedAt": "2023-05-17T15:56:05.716Z",
  "networkType": "ethereum",
  "devdoc": {
    "kind": "dev",
    "methods": {
      "queue(address,uint256,string,bytes,uint256)": {
        "params": {
          "_data": "ABI encoded data send.",
          "_func": "Function signature, for example \"foo(address,uint256)\"",
          "_owner": "Address of account of owner",
          "_timestamp": "Timestamp after which the transaction can be executed.",
          "_value": "Amount of ETH to send"
        }
      }
    },
    "version": 1
  },
  "userdoc": {
    "kind": "user",
    "methods": {},
    "version": 1
  }
}