{
  "contractName": "TimeLock",
  "abi": [
    {
      "inputs": [
        {
          "internalType": "bytes32",
          "name": "",
          "type": "bytes32"
        }
      ],
      "name": "AlreadyQueuedError",
      "type": "error"
    },
    {
      "inputs": [
        {
          "internalType": "bytes32",
          "name": "",
          "type": "bytes32"
        }
      ],
      "name": "NotQueuedError",
      "type": "error"
    },
    {
      "anonymous": false,
      "inputs": [
        {
          "indexed": true,
          "internalType": "bytes32",
          "name": "txId",
          "type": "bytes32"
        }
      ],
      "name": "Cancel",
      "type": "event"
    },
    {
      "anonymous": false,
      "inputs": [
        {
          "indexed": true,
          "internalType": "bytes32",
          "name": "txId",
          "type": "bytes32"
        },
        {
          "indexed": true,
          "internalType": "address",
          "name": "owner",
          "type": "address"
        },
        {
          "indexed": false,
          "internalType": "uint256",
          "name": "value",
          "type": "uint256"
        },
        {
          "indexed": false,
          "internalType": "string",
          "name": "func",
          "type": "string"
        },
        {
          "indexed": false,
          "internalType": "bytes",
          "name": "data",
          "type": "bytes"
        },
        {
          "indexed": false,
          "internalType": "uint256",
          "name": "timestamp",
          "type": "uint256"
        }
      ],
      "name": "Queue",
      "type": "event"
    },
    {
      "inputs": [
        {
          "internalType": "address",
          "name": "owner",
          "type": "address"
        },
        {
          "internalType": "uint256",
          "name": "_value",
          "type": "uint256"
        },
        {
          "internalType": "string",
          "name": "_func",
          "type": "string"
        },
        {
          "internalType": "bytes",
          "name": "_data",
          "type": "bytes"
        },
        {
          "internalType": "uint256",
          "name": "_timestamp",
          "type": "uint256"
        }
      ],
      "name": "getTxId",
      "outputs": [
        {
          "internalType": "bytes32",
          "name": "",
          "type": "bytes32"
        }
      ],
      "stateMutability": "pure",
      "type": "function",
      "constant": true
    },
    {
      "inputs": [
        {
          "internalType": "address",
          "name": "_owner",
          "type": "address"
        },
        {
          "internalType": "uint256",
          "name": "_value",
          "type": "uint256"
        },
        {
          "internalType": "string",
          "name": "_func",
          "type": "string"
        },
        {
          "internalType": "bytes",
          "name": "_data",
          "type": "bytes"
        },
        {
          "internalType": "uint256",
          "name": "_timestamp",
          "type": "uint256"
        }
      ],
      "name": "queue",
      "outputs": [
        {
          "internalType": "bytes32",
          "name": "txId",
          "type": "bytes32"
        }
      ],
      "stateMutability": "nonpayable",
      "type": "function"
    },
    {
      "inputs": [
        {
          "internalType": "bytes32",
          "name": "txId",
          "type": "bytes32"
        },
        {
          "internalType": "address",
          "name": "_newOwner",
          "type": "address"
        },
        {
          "internalType": "uint256",
          "name": "_newvalue",
          "type": "uint256"
        },
        {
          "internalType": "string",
          "name": "_newFunc",
          "type": "string"
        },
        {
          "internalType": "bytes",
          "name": "_newData",
          "type": "bytes"
        },
        {
          "internalType": "uint256",
          "name": "_newTimestamp",
          "type": "uint256"
        }
      ],
      "name": "update",
      "outputs": [
        {
          "internalType": "bool",
          "name": "",
          "type": "bool"
        }
      ],
      "stateMutability": "nonpayable",
      "type": "function"
    },
    {
      "inputs": [
        {
          "internalType": "address",
          "name": "_owner",
          "type": "address"
        },
        {
          "internalType": "uint256",
          "name": "_value",
          "type": "uint256"
        },
        {
          "internalType": "string",
          "name": "_func",
          "type": "string"
        },
        {
          "internalType": "bytes",
          "name": "_data",
          "type": "bytes"
        },
        {
          "internalType": "uint256",
          "name": "_timestamp",
          "type": "uint256"
        }
      ],
      "name": "isExecute",
      "outputs": [
        {
          "internalType": "bool",
          "name": "",
          "type": "bool"
        }
      ],
      "stateMutability": "view",
      "type": "function",
      "constant": true
    },
    {
      "inputs": [
        {
          "internalType": "bytes32",
          "name": "_txId",
          "type": "bytes32"
        }
      ],
      "name": "cancel",
      "outputs": [],
      "stateMutability": "nonpayable",
      "type": "function"
    }
  ],
  "bytecode": "0x608060405234801561001057600080fd5b50610644806100206000396000f3fe608060405234801561001057600080fd5b50600436106100575760003560e01c80634b9915a51461005c5780638a1ce0b614610082578063a14e440614610095578063c4d252f5146100b8578063f3e7a3b9146100cd575b600080fd5b61006f61006a366004610410565b6100e0565b6040519081526020015b60405180910390f35b61006f610090366004610410565b610197565b6100a86100a3366004610496565b6101d4565b6040519015158152602001610079565b6100cb6100c6366004610526565b61028d565b005b6100a86100db366004610410565b6102ff565b60006100ef8686868686610197565b60008181526020819052604090205490915060ff161561012a57604051634ca8215f60e11b8152600481018290526024015b60405180910390fd5b60008181526020819052604090819020805460ff19166001179055516001600160a01b0387169082907f3c22f47140594040d205a5533cfedd86c9ab8622c39ead03affb2d97052c794c90610186908990899089908990610585565b60405180910390a395945050505050565b600085858585856040516020016101b29594939291906105c2565b6040516020818303038152906040528051906020012090505b95945050505050565b60008681526020819052604081205460ff161561027f576000878152602081905260408120805460ff1916905561020e8787878787610197565b60008181526020819052604090819020805460ff19166001179055519091506001600160a01b0388169089907f3c22f47140594040d205a5533cfedd86c9ab8622c39ead03affb2d97052c794c9061026d908a908a908a908a90610585565b60405180910390a36001915050610283565b5060005b9695505050505050565b60008181526020819052604090205460ff166102bf57604051630995c9d560e01b815260048101829052602401610121565b600081815260208190526040808220805460ff191690555182917fe8d9861dbc9c663ed3accd261bbe2fe01e0d3d9e5f51fa38523b265c7757a93a91a250565b60008061030f8787878787610197565b60008181526020819052604090205490915060ff166103325760009150506101cb565b824210156103445760009150506101cb565b5060019695505050505050565b80356001600160a01b038116811461036857600080fd5b919050565b634e487b7160e01b600052604160045260246000fd5b600082601f83011261039457600080fd5b813567ffffffffffffffff808211156103af576103af61036d565b604051601f8301601f19908116603f011681019082821181831017156103d7576103d761036d565b816040528381528660208588010111156103f057600080fd5b836020870160208301376000602085830101528094505050505092915050565b600080600080600060a0868803121561042857600080fd5b61043186610351565b945060208601359350604086013567ffffffffffffffff8082111561045557600080fd5b61046189838a01610383565b9450606088013591508082111561047757600080fd5b5061048488828901610383565b95989497509295608001359392505050565b60008060008060008060c087890312156104af57600080fd5b863595506104bf60208801610351565b945060408701359350606087013567ffffffffffffffff808211156104e357600080fd5b6104ef8a838b01610383565b9450608089013591508082111561050557600080fd5b5061051289828a01610383565b92505060a087013590509295509295509295565b60006020828403121561053857600080fd5b5035919050565b6000815180845260005b8181101561056557602081850181015186830182015201610549565b506000602082860101526020601f19601f83011685010191505092915050565b84815260806020820152600061059e608083018661053f565b82810360408401526105b0818661053f565b91505082606083015295945050505050565b60018060a01b038616815284602082015260a0604082015260006105e960a083018661053f565b82810360608401526105fb818661053f565b915050826080830152969550505050505056fea264697066735822122001075aad931a0038f24b7e1f680dccb568b061b730c2ca8f9175b5869cd3e75764736f6c63430008110033",
  "immutableReferences": {},
  "source": "// SPDX-License-Identifier: MIT\npragma solidity ^0.8.17;\nimport \"./Error.sol\";\n\n// Timelock is a contract that helps us in delaying a transaction with a specific time\ncontract TimeLock {\n\n    event Queue(\n        bytes32 indexed txId,\n        address indexed owner,\n        uint value,\n        string func,\n        bytes data,\n        uint timestamp\n    );\n\n    event Cancel(bytes32 indexed txId);\n\n    // tx id => queued\n    mapping(bytes32 => bool) private queued;\n\n    function getTxId(\n        address owner,\n        uint _value,\n        string memory _func,\n        bytes memory _data,\n        uint _timestamp\n    ) public pure returns (bytes32) {\n        return keccak256(abi.encode(owner, _value, _func, _data, _timestamp));\n    }\n\n    /**\n     * @param _owner Address of account of owner\n     * @param _value Amount of ETH to send\n     * @param _func Function signature, for example \"foo(address,uint256)\"\n     * @param _data ABI encoded data send.\n     * @param _timestamp Timestamp after which the transaction can be executed.\n     */\n    function queue(\n        address _owner,\n        uint _value,\n        string memory _func,\n        bytes memory _data,\n        uint _timestamp\n    ) public returns (bytes32 txId) {\n        txId = getTxId(_owner, _value, _func, _data, _timestamp);\n        if (queued[txId]) {\n            revert Error.AlreadyQueuedError(txId);\n        }\n        queued[txId] = true;\n        emit Queue(txId, _owner, _value, _func, _data, _timestamp);\n    }\n\n    function update(\n        bytes32 txId,\n        address _newOwner,\n        uint _newvalue,\n        string memory _newFunc,\n        bytes memory _newData,\n        uint _newTimestamp\n    ) public returns(bool) {\n        if (queued[txId]) {\n            queued[txId] = false;\n\n            bytes32 newIdx = getTxId(_newOwner, _newvalue, _newFunc, _newData, _newTimestamp);\n            queued[newIdx] = true;\n            emit Queue(txId, _newOwner, _newvalue, _newFunc, _newData, _newTimestamp);\n            return true;\n        }\n        return false;\n    }\n\n    function isExecute(\n        address _owner,\n        uint _value,\n        string memory _func,\n        bytes memory _data,\n        uint _timestamp\n    ) public view returns(bool) {\n        bytes32 txId = getTxId(_owner, _value, _func, _data, _timestamp);\n\n        if (!queued[txId]) {\n            return false;\n        }\n\n        // ----|-------------------|-------\n        //  block.timestamp    timestamp \n        if (block.timestamp < _timestamp) {\n            return false;\n        }\n\n        // queued[txId] = false;\n        return true;\n    }\n\n    function cancel(bytes32 _txId) public {\n        if (!queued[_txId]) {\n            revert Error.NotQueuedError(_txId);\n        }\n\n        queued[_txId] = false;\n\n        emit Cancel(_txId);\n    }\n}\n",
  "sourcePath": "D:\\HCMUS_Nam4_HocKi1\\04_DoAnTotNghiep\\nft-bookstore-development\\nft-bookstore\\contracts\\utils\\Timelock.sol",
  "compiler": {
    "name": "solc",
    "version": "0.8.17+commit.8df45f5f.Emscripten.clang"
  },
  "schemaVersion": "3.4.12",
  "updatedAt": "2023-06-29T15:10:07.447Z",
  "networkType": "ethereum",
  "devdoc": {
    "kind": "dev",
    "methods": {
      "queue(address,uint256,string,bytes,uint256)": {
        "params": {
          "_data": "ABI encoded data send.",
          "_func": "Function signature, for example \"foo(address,uint256)\"",
          "_owner": "Address of account of owner",
          "_timestamp": "Timestamp after which the transaction can be executed.",
          "_value": "Amount of ETH to send"
        }
      }
    },
    "version": 1
  },
  "userdoc": {
    "kind": "user",
    "methods": {},
    "version": 1
  }
}