{
  "contractName": "TimeLock",
  "abi": [
    {
      "inputs": [
        {
          "internalType": "bytes32",
          "name": "",
          "type": "bytes32"
        }
      ],
      "name": "AlreadyQueuedError",
      "type": "error"
    },
    {
      "inputs": [
        {
          "internalType": "bytes32",
          "name": "",
          "type": "bytes32"
        }
      ],
      "name": "NotQueuedError",
      "type": "error"
    },
    {
      "inputs": [
        {
          "internalType": "uint256",
          "name": "",
          "type": "uint256"
        },
        {
          "internalType": "uint256",
          "name": "",
          "type": "uint256"
        }
      ],
      "name": "TimestampNotInRangeError",
      "type": "error"
    },
    {
      "anonymous": false,
      "inputs": [
        {
          "indexed": true,
          "internalType": "bytes32",
          "name": "txId",
          "type": "bytes32"
        }
      ],
      "name": "Cancel",
      "type": "event"
    },
    {
      "anonymous": false,
      "inputs": [
        {
          "indexed": true,
          "internalType": "bytes32",
          "name": "txId",
          "type": "bytes32"
        },
        {
          "indexed": true,
          "internalType": "address",
          "name": "owner",
          "type": "address"
        },
        {
          "indexed": false,
          "internalType": "uint256",
          "name": "value",
          "type": "uint256"
        },
        {
          "indexed": false,
          "internalType": "string",
          "name": "func",
          "type": "string"
        },
        {
          "indexed": false,
          "internalType": "bytes",
          "name": "data",
          "type": "bytes"
        },
        {
          "indexed": false,
          "internalType": "uint256",
          "name": "timestamp",
          "type": "uint256"
        }
      ],
      "name": "Queue",
      "type": "event"
    },
    {
      "inputs": [],
      "name": "MIN_DELAY",
      "outputs": [
        {
          "internalType": "uint256",
          "name": "",
          "type": "uint256"
        }
      ],
      "stateMutability": "view",
      "type": "function",
      "constant": true
    },
    {
      "inputs": [
        {
          "internalType": "address",
          "name": "owner",
          "type": "address"
        },
        {
          "internalType": "uint256",
          "name": "_value",
          "type": "uint256"
        },
        {
          "internalType": "string",
          "name": "_func",
          "type": "string"
        },
        {
          "internalType": "bytes",
          "name": "_data",
          "type": "bytes"
        },
        {
          "internalType": "uint256",
          "name": "_timestamp",
          "type": "uint256"
        }
      ],
      "name": "getTxId",
      "outputs": [
        {
          "internalType": "bytes32",
          "name": "",
          "type": "bytes32"
        }
      ],
      "stateMutability": "pure",
      "type": "function",
      "constant": true
    },
    {
      "inputs": [
        {
          "internalType": "address",
          "name": "_owner",
          "type": "address"
        },
        {
          "internalType": "uint256",
          "name": "_value",
          "type": "uint256"
        },
        {
          "internalType": "string",
          "name": "_func",
          "type": "string"
        },
        {
          "internalType": "bytes",
          "name": "_data",
          "type": "bytes"
        },
        {
          "internalType": "uint256",
          "name": "_timestamp",
          "type": "uint256"
        }
      ],
      "name": "queue",
      "outputs": [
        {
          "internalType": "bytes32",
          "name": "txId",
          "type": "bytes32"
        }
      ],
      "stateMutability": "nonpayable",
      "type": "function"
    },
    {
      "inputs": [
        {
          "internalType": "bytes32",
          "name": "txId",
          "type": "bytes32"
        },
        {
          "internalType": "address",
          "name": "_newOwner",
          "type": "address"
        },
        {
          "internalType": "uint256",
          "name": "_newvalue",
          "type": "uint256"
        },
        {
          "internalType": "string",
          "name": "_newFunc",
          "type": "string"
        },
        {
          "internalType": "bytes",
          "name": "_newData",
          "type": "bytes"
        },
        {
          "internalType": "uint256",
          "name": "_newTimestamp",
          "type": "uint256"
        }
      ],
      "name": "update",
      "outputs": [
        {
          "internalType": "bool",
          "name": "",
          "type": "bool"
        }
      ],
      "stateMutability": "nonpayable",
      "type": "function"
    },
    {
      "inputs": [
        {
          "internalType": "address",
          "name": "_owner",
          "type": "address"
        },
        {
          "internalType": "uint256",
          "name": "_value",
          "type": "uint256"
        },
        {
          "internalType": "string",
          "name": "_func",
          "type": "string"
        },
        {
          "internalType": "bytes",
          "name": "_data",
          "type": "bytes"
        },
        {
          "internalType": "uint256",
          "name": "_timestamp",
          "type": "uint256"
        }
      ],
      "name": "isExecute",
      "outputs": [
        {
          "internalType": "bool",
          "name": "",
          "type": "bool"
        }
      ],
      "stateMutability": "view",
      "type": "function",
      "constant": true
    },
    {
      "inputs": [
        {
          "internalType": "bytes32",
          "name": "_txId",
          "type": "bytes32"
        }
      ],
      "name": "cancel",
      "outputs": [],
      "stateMutability": "nonpayable",
      "type": "function"
    }
  ],
  "bytecode": "0x608060405234801561001057600080fd5b506106ec806100206000396000f3fe608060405234801561001057600080fd5b50600436106100625760003560e01c80634b9915a5146100675780638a1ce0b61461008d5780639f81aed7146100a0578063a14e4406146100aa578063c4d252f5146100cd578063f3e7a3b9146100e2575b600080fd5b61007a610075366004610491565b6100f5565b6040519081526020015b60405180910390f35b61007a61009b366004610491565b6101e2565b61007a62093a8081565b6100bd6100b8366004610517565b61021f565b6040519015158152602001610084565b6100e06100db3660046105a7565b61030e565b005b6100bd6100f0366004610491565b610380565b600061010486868686866101e2565b60008181526020819052604090205490915060ff161561013f57604051634ca8215f60e11b8152600481018290526024015b60405180910390fd5b61014c62093a80426105c0565b82101561017557604051630d4b0b6160e11b815242600482015260248101839052604401610136565b60008181526020819052604090819020805460ff19166001179055516001600160a01b0387169082907f3c22f47140594040d205a5533cfedd86c9ab8622c39ead03affb2d97052c794c906101d190899089908990899061062d565b60405180910390a395945050505050565b600085858585856040516020016101fd95949392919061066a565b6040516020818303038152906040528051906020012090505b95945050505050565b60008681526020819052604081205460ff16156103005761024362093a80426105c0565b82101561026c57604051630d4b0b6160e11b815242600482015260248101839052604401610136565b6000878152602081905260408120805460ff1916905561028f87878787876101e2565b60008181526020819052604090819020805460ff19166001179055519091506001600160a01b0388169089907f3c22f47140594040d205a5533cfedd86c9ab8622c39ead03affb2d97052c794c906102ee908a908a908a908a9061062d565b60405180910390a36001915050610304565b5060005b9695505050505050565b60008181526020819052604090205460ff1661034057604051630995c9d560e01b815260048101829052602401610136565b600081815260208190526040808220805460ff191690555182917fe8d9861dbc9c663ed3accd261bbe2fe01e0d3d9e5f51fa38523b265c7757a93a91a250565b60008061039087878787876101e2565b60008181526020819052604090205490915060ff166103b3576000915050610216565b824210156103c5576000915050610216565b5060019695505050505050565b80356001600160a01b03811681146103e957600080fd5b919050565b634e487b7160e01b600052604160045260246000fd5b600082601f83011261041557600080fd5b813567ffffffffffffffff80821115610430576104306103ee565b604051601f8301601f19908116603f01168101908282118183101715610458576104586103ee565b8160405283815286602085880101111561047157600080fd5b836020870160208301376000602085830101528094505050505092915050565b600080600080600060a086880312156104a957600080fd5b6104b2866103d2565b945060208601359350604086013567ffffffffffffffff808211156104d657600080fd5b6104e289838a01610404565b945060608801359150808211156104f857600080fd5b5061050588828901610404565b95989497509295608001359392505050565b60008060008060008060c0878903121561053057600080fd5b86359550610540602088016103d2565b945060408701359350606087013567ffffffffffffffff8082111561056457600080fd5b6105708a838b01610404565b9450608089013591508082111561058657600080fd5b5061059389828a01610404565b92505060a087013590509295509295509295565b6000602082840312156105b957600080fd5b5035919050565b808201808211156105e157634e487b7160e01b600052601160045260246000fd5b92915050565b6000815180845260005b8181101561060d576020818501810151868301820152016105f1565b506000602082860101526020601f19601f83011685010191505092915050565b84815260806020820152600061064660808301866105e7565b828103604084015261065881866105e7565b91505082606083015295945050505050565b60018060a01b038616815284602082015260a06040820152600061069160a08301866105e7565b82810360608401526106a381866105e7565b915050826080830152969550505050505056fea26469706673582212209d1aca8b97d157cde22f1865d82b57ad16649b89b72101f486b6b62473226fac64736f6c63430008110033",
  "immutableReferences": {},
  "source": "// SPDX-License-Identifier: MIT\r\npragma solidity ^0.8.17;\r\nimport \"./Error.sol\";\r\n\r\n// Timelock is a contract that helps us in delaying a transaction with a specific time\r\ncontract TimeLock {\r\n\r\n    event Queue(\r\n        bytes32 indexed txId,\r\n        address indexed owner,\r\n        uint value,\r\n        string func,\r\n        bytes data,\r\n        uint timestamp\r\n    );\r\n\r\n    event Cancel(bytes32 indexed txId);\r\n\r\n    uint public constant MIN_DELAY = 604800; // 1 weeks\r\n\r\n    // tx id => queued\r\n    mapping(bytes32 => bool) private queued;\r\n\r\n    function getTxId(\r\n        address owner,\r\n        uint _value,\r\n        string memory _func,\r\n        bytes memory _data,\r\n        uint _timestamp\r\n    ) public pure returns (bytes32) {\r\n        return keccak256(abi.encode(owner, _value, _func, _data, _timestamp));\r\n    }\r\n\r\n    /**\r\n     * @param _owner Address of account of owner\r\n     * @param _value Amount of ETH to send\r\n     * @param _func Function signature, for example \"foo(address,uint256)\"\r\n     * @param _data ABI encoded data send.\r\n     * @param _timestamp Timestamp after which the transaction can be executed.\r\n     */\r\n    function queue(\r\n        address _owner,\r\n        uint _value,\r\n        string memory _func,\r\n        bytes memory _data,\r\n        uint _timestamp\r\n    ) public returns (bytes32 txId) {\r\n        txId = getTxId(_owner, _value, _func, _data, _timestamp);\r\n        if (queued[txId]) {\r\n            revert Error.AlreadyQueuedError(txId);\r\n        }\r\n        // ---|------------|-------\r\n        //  block    block + MIN_DELAY     \r\n        if (\r\n            _timestamp < block.timestamp + MIN_DELAY \r\n        ) {\r\n            revert Error.TimestampNotInRangeError(block.timestamp, _timestamp);\r\n        }\r\n\r\n        queued[txId] = true;\r\n\r\n\r\n        emit Queue(txId, _owner, _value, _func, _data, _timestamp);\r\n    }\r\n\r\n    function update(\r\n        bytes32 txId,\r\n        address _newOwner,\r\n        uint _newvalue,\r\n        string memory _newFunc,\r\n        bytes memory _newData,\r\n        uint _newTimestamp\r\n    ) public returns(bool) {\r\n        if (queued[txId]) {\r\n\r\n            if (\r\n                _newTimestamp < block.timestamp + MIN_DELAY \r\n            ) {\r\n                revert Error.TimestampNotInRangeError(block.timestamp, _newTimestamp);\r\n            }\r\n            queued[txId] = false;\r\n\r\n            bytes32 newIdx = getTxId(_newOwner, _newvalue, _newFunc, _newData, _newTimestamp);\r\n            queued[newIdx] = true;\r\n            emit Queue(txId, _newOwner, _newvalue, _newFunc, _newData, _newTimestamp);\r\n            return true;\r\n        }\r\n        return false;\r\n    }\r\n\r\n    function isExecute(\r\n        address _owner,\r\n        uint _value,\r\n        string memory _func,\r\n        bytes memory _data,\r\n        uint _timestamp\r\n    ) public view returns(bool) {\r\n        bytes32 txId = getTxId(_owner, _value, _func, _data, _timestamp);\r\n\r\n        if (!queued[txId]) {\r\n            return false;\r\n        }\r\n\r\n        // ----|-------------------|-------\r\n        //  block.timestamp    timestamp \r\n        if (block.timestamp < _timestamp) {\r\n            return false;\r\n        }\r\n\r\n        // queued[txId] = false;\r\n        return true;\r\n    }\r\n\r\n    function cancel(bytes32 _txId) public {\r\n        if (!queued[_txId]) {\r\n            revert Error.NotQueuedError(_txId);\r\n        }\r\n\r\n        queued[_txId] = false;\r\n\r\n        emit Cancel(_txId);\r\n    }\r\n}\r\n",
  "sourcePath": "D:\\DO_AN_TOT_NGHIEP\\project\\nft-bookstore\\contracts\\utils\\Timelock.sol",
  "compiler": {
    "name": "solc",
    "version": "0.8.17+commit.8df45f5f.Emscripten.clang"
  },
  "schemaVersion": "3.4.11",
  "updatedAt": "2023-06-06T14:20:25.373Z",
  "networkType": "ethereum",
  "devdoc": {
    "kind": "dev",
    "methods": {
      "queue(address,uint256,string,bytes,uint256)": {
        "params": {
          "_data": "ABI encoded data send.",
          "_func": "Function signature, for example \"foo(address,uint256)\"",
          "_owner": "Address of account of owner",
          "_timestamp": "Timestamp after which the transaction can be executed.",
          "_value": "Amount of ETH to send"
        }
      }
    },
    "version": 1
  },
  "userdoc": {
    "kind": "user",
    "methods": {},
    "version": 1
  }
}